{
  "_format": "hh-sol-artifact-1",
  "contractName": "UnicoinRegistry",
  "sourceName": "contracts/UnicoinRegistry.sol",
  "abi": [
    {
      "inputs": [
        {
          "internalType": "address",
          "name": "trustedForwarder",
          "type": "address"
        }
      ],
      "stateMutability": "nonpayable",
      "type": "constructor"
    },
    {
      "anonymous": false,
      "inputs": [
        {
          "indexed": false,
          "internalType": "uint8",
          "name": "version",
          "type": "uint8"
        }
      ],
      "name": "Initialized",
      "type": "event"
    },
    {
      "inputs": [],
      "name": "buyLicenceFixedRate",
      "outputs": [],
      "stateMutability": "nonpayable",
      "type": "function"
    },
    {
      "inputs": [
        {
          "internalType": "address",
          "name": "userAddress",
          "type": "address"
        },
        {
          "internalType": "uint256",
          "name": "amount",
          "type": "uint256"
        }
      ],
      "name": "canAddressPay",
      "outputs": [
        {
          "internalType": "bool",
          "name": "",
          "type": "bool"
        }
      ],
      "stateMutability": "view",
      "type": "function"
    },
    {
      "inputs": [
        {
          "internalType": "uint256",
          "name": "bidId",
          "type": "uint256"
        }
      ],
      "name": "cancelBid",
      "outputs": [
        {
          "internalType": "bool",
          "name": "",
          "type": "bool"
        }
      ],
      "stateMutability": "nonpayable",
      "type": "function"
    },
    {
      "inputs": [
        {
          "internalType": "uint256",
          "name": "publicationId",
          "type": "uint256"
        }
      ],
      "name": "claimHarbergerTax",
      "outputs": [
        {
          "internalType": "uint256",
          "name": "",
          "type": "uint256"
        }
      ],
      "stateMutability": "nonpayable",
      "type": "function"
    },
    {
      "inputs": [
        {
          "internalType": "bytes32",
          "name": "bidHash",
          "type": "bytes32"
        },
        {
          "internalType": "uint256",
          "name": "publicationId",
          "type": "uint256"
        }
      ],
      "name": "commitSealedBid",
      "outputs": [],
      "stateMutability": "nonpayable",
      "type": "function"
    },
    {
      "inputs": [
        {
          "internalType": "uint256",
          "name": "licenceId",
          "type": "uint256"
        },
        {
          "internalType": "uint256",
          "name": "buyOutAmount",
          "type": "uint256"
        }
      ],
      "name": "createHarbergerBuyOut",
      "outputs": [
        {
          "internalType": "uint256",
          "name": "",
          "type": "uint256"
        }
      ],
      "stateMutability": "nonpayable",
      "type": "function"
    },
    {
      "inputs": [
        {
          "internalType": "enum SharedStructures.PricingStrategy",
          "name": "_pricingStrategy",
          "type": "uint8"
        },
        {
          "internalType": "string",
          "name": "publicationUri",
          "type": "string"
        },
        {
          "internalType": "uint256",
          "name": "auctionFloor",
          "type": "uint256"
        },
        {
          "internalType": "uint256",
          "name": "auctionStartTime",
          "type": "uint256"
        },
        {
          "internalType": "uint256",
          "name": "auctionDuration",
          "type": "uint256"
        },
        {
          "internalType": "uint256",
          "name": "fixedSellPrice",
          "type": "uint256"
        },
        {
          "internalType": "uint8",
          "name": "maxNumberOfLicences",
          "type": "uint8"
        },
        {
          "components": [
            {
              "internalType": "address",
              "name": "contributorAddress",
              "type": "address"
            },
            {
              "internalType": "uint16",
              "name": "weighting",
              "type": "uint16"
            },
            {
              "internalType": "uint256",
              "name": "balance",
              "type": "uint256"
            },
            {
              "internalType": "uint256",
              "name": "lifetimeAllocations",
              "type": "uint256"
            }
          ],
          "internalType": "struct SharedStructures.Contribution[]",
          "name": "contributors",
          "type": "tuple[]"
        },
        {
          "components": [
            {
              "internalType": "uint256",
              "name": "publicationId",
              "type": "uint256"
            },
            {
              "internalType": "uint16",
              "name": "weighting",
              "type": "uint16"
            }
          ],
          "internalType": "struct SharedStructures.Citation[]",
          "name": "citations",
          "type": "tuple[]"
        }
      ],
      "name": "createPublication",
      "outputs": [],
      "stateMutability": "nonpayable",
      "type": "function"
    },
    {
      "inputs": [
        {
          "internalType": "uint256",
          "name": "publicationId",
          "type": "uint256"
        },
        {
          "internalType": "uint256",
          "name": "value",
          "type": "uint256"
        }
      ],
      "name": "donate",
      "outputs": [],
      "stateMutability": "nonpayable",
      "type": "function"
    },
    {
      "inputs": [
        {
          "internalType": "uint256",
          "name": "auctionId",
          "type": "uint256"
        }
      ],
      "name": "finalizeAuction",
      "outputs": [
        {
          "internalType": "uint256",
          "name": "",
          "type": "uint256"
        }
      ],
      "stateMutability": "nonpayable",
      "type": "function"
    },
    {
      "inputs": [
        {
          "internalType": "uint256",
          "name": "buyOutId",
          "type": "uint256"
        }
      ],
      "name": "finalizeBuyoutOffer",
      "outputs": [
        {
          "internalType": "bool",
          "name": "",
          "type": "bool"
        }
      ],
      "stateMutability": "nonpayable",
      "type": "function"
    },
    {
      "inputs": [
        {
          "internalType": "uint256",
          "name": "auctionId",
          "type": "uint256"
        }
      ],
      "name": "getAuction",
      "outputs": [
        {
          "components": [
            {
              "internalType": "uint256",
              "name": "publicationId",
              "type": "uint256"
            },
            {
              "internalType": "uint256",
              "name": "auctionFloor",
              "type": "uint256"
            },
            {
              "internalType": "uint256",
              "name": "startingTime",
              "type": "uint256"
            },
            {
              "internalType": "uint256",
              "name": "duration",
              "type": "uint256"
            },
            {
              "internalType": "uint256[]",
              "name": "auctionBidIds",
              "type": "uint256[]"
            },
            {
              "internalType": "uint256",
              "name": "winningBidId",
              "type": "uint256"
            },
            {
              "internalType": "enum SharedStructures.AuctionStatus",
              "name": "status",
              "type": "uint8"
            }
          ],
          "internalType": "struct SharedStructures.Auction",
          "name": "",
          "type": "tuple"
        }
      ],
      "stateMutability": "view",
      "type": "function"
    },
    {
      "inputs": [
        {
          "internalType": "uint256",
          "name": "auctionId",
          "type": "uint256"
        }
      ],
      "name": "getAuctionStatus",
      "outputs": [
        {
          "internalType": "uint256",
          "name": "",
          "type": "uint256"
        }
      ],
      "stateMutability": "nonpayable",
      "type": "function"
    },
    {
      "inputs": [
        {
          "internalType": "uint256",
          "name": "bidId",
          "type": "uint256"
        }
      ],
      "name": "getBid",
      "outputs": [
        {
          "components": [
            {
              "internalType": "bytes32",
              "name": "commitBid",
              "type": "bytes32"
            },
            {
              "internalType": "uint256",
              "name": "revealedBid",
              "type": "uint256"
            },
            {
              "internalType": "uint256",
              "name": "revealedSalt",
              "type": "uint256"
            },
            {
              "internalType": "enum SharedStructures.BidStatus",
              "name": "status",
              "type": "uint8"
            },
            {
              "internalType": "uint256",
              "name": "publicationId",
              "type": "uint256"
            },
            {
              "internalType": "uint256",
              "name": "auctionId",
              "type": "uint256"
            },
            {
              "internalType": "address",
              "name": "bidderAddress",
              "type": "address"
            }
          ],
          "internalType": "struct SharedStructures.Bid",
          "name": "",
          "type": "tuple"
        }
      ],
      "stateMutability": "view",
      "type": "function"
    },
    {
      "inputs": [
        {
          "internalType": "address",
          "name": "bidderAddress",
          "type": "address"
        }
      ],
      "name": "getBidderBids",
      "outputs": [
        {
          "internalType": "uint256[]",
          "name": "",
          "type": "uint256[]"
        }
      ],
      "stateMutability": "view",
      "type": "function"
    },
    {
      "inputs": [
        {
          "internalType": "address",
          "name": "bidderAddress",
          "type": "address"
        }
      ],
      "name": "getBids",
      "outputs": [
        {
          "internalType": "uint256[]",
          "name": "",
          "type": "uint256[]"
        }
      ],
      "stateMutability": "view",
      "type": "function"
    },
    {
      "inputs": [],
      "name": "getBlockTime",
      "outputs": [
        {
          "internalType": "uint256",
          "name": "",
          "type": "uint256"
        }
      ],
      "stateMutability": "view",
      "type": "function"
    },
    {
      "inputs": [
        {
          "internalType": "uint256",
          "name": "licenceId",
          "type": "uint256"
        }
      ],
      "name": "getLicence",
      "outputs": [
        {
          "components": [
            {
              "internalType": "address",
              "name": "ownerAddress",
              "type": "address"
            },
            {
              "internalType": "uint256",
              "name": "publicationId",
              "type": "uint256"
            },
            {
              "internalType": "uint256",
              "name": "publicationLicenceNo",
              "type": "uint256"
            },
            {
              "internalType": "enum SharedStructures.LicenceStatus",
              "name": "status",
              "type": "uint8"
            }
          ],
          "internalType": "struct SharedStructures.Licence",
          "name": "",
          "type": "tuple"
        }
      ],
      "stateMutability": "view",
      "type": "function"
    },
    {
      "inputs": [
        {
          "internalType": "address",
          "name": "userAddress",
          "type": "address"
        }
      ],
      "name": "getLicenceForAddress",
      "outputs": [
        {
          "internalType": "uint256[]",
          "name": "",
          "type": "uint256[]"
        }
      ],
      "stateMutability": "view",
      "type": "function"
    },
    {
      "inputs": [
        {
          "internalType": "uint256",
          "name": "licenceId",
          "type": "uint256"
        }
      ],
      "name": "getLicenceTaxObjectId",
      "outputs": [
        {
          "internalType": "uint256",
          "name": "",
          "type": "uint256"
        }
      ],
      "stateMutability": "view",
      "type": "function"
    },
    {
      "inputs": [
        {
          "internalType": "uint256",
          "name": "publicationId",
          "type": "uint256"
        }
      ],
      "name": "getMinBuyOutAmount",
      "outputs": [
        {
          "internalType": "uint256",
          "name": "",
          "type": "uint256"
        }
      ],
      "stateMutability": "view",
      "type": "function"
    },
    {
      "inputs": [
        {
          "internalType": "uint256",
          "name": "taxObjectId",
          "type": "uint256"
        }
      ],
      "name": "getMinBuyOutPrice",
      "outputs": [
        {
          "internalType": "uint256",
          "name": "",
          "type": "uint256"
        }
      ],
      "stateMutability": "view",
      "type": "function"
    },
    {
      "inputs": [
        {
          "internalType": "uint256",
          "name": "publicationId",
          "type": "uint256"
        }
      ],
      "name": "getMostRecentPublicationLicence",
      "outputs": [
        {
          "internalType": "uint256",
          "name": "",
          "type": "uint256"
        }
      ],
      "stateMutability": "view",
      "type": "function"
    },
    {
      "inputs": [
        {
          "internalType": "uint256",
          "name": "taxObjectId",
          "type": "uint256"
        }
      ],
      "name": "getOutstandingTax",
      "outputs": [
        {
          "internalType": "uint256",
          "name": "",
          "type": "uint256"
        }
      ],
      "stateMutability": "view",
      "type": "function"
    },
    {
      "inputs": [
        {
          "internalType": "uint256",
          "name": "publicationId",
          "type": "uint256"
        }
      ],
      "name": "getPublication",
      "outputs": [
        {
          "components": [
            {
              "internalType": "enum SharedStructures.PricingStrategy",
              "name": "pricingStrategy",
              "type": "uint8"
            },
            {
              "internalType": "string",
              "name": "publicationUri",
              "type": "string"
            },
            {
              "internalType": "enum SharedStructures.PublicationStatus",
              "name": "publicationStatus",
              "type": "uint8"
            },
            {
              "internalType": "address",
              "name": "ownerAddress",
              "type": "address"
            },
            {
              "internalType": "uint256",
              "name": "sellPrice",
              "type": "uint256"
            },
            {
              "internalType": "uint8",
              "name": "maxNumberOfLicences",
              "type": "uint8"
            },
            {
              "internalType": "uint256",
              "name": "licencesIssued",
              "type": "uint256"
            },
            {
              "internalType": "uint256",
              "name": "previousVersion",
              "type": "uint256"
            },
            {
              "internalType": "uint256[]",
              "name": "auctionIds",
              "type": "uint256[]"
            },
            {
              "internalType": "uint256",
              "name": "contributionsId",
              "type": "uint256"
            },
            {
              "internalType": "uint256[]",
              "name": "donations",
              "type": "uint256[]"
            },
            {
              "internalType": "uint256",
              "name": "citationsId",
              "type": "uint256"
            },
            {
              "internalType": "uint256",
              "name": "lifetimeEarnings",
              "type": "uint256"
            }
          ],
          "internalType": "struct SharedStructures.Publication",
          "name": "",
          "type": "tuple"
        }
      ],
      "stateMutability": "view",
      "type": "function"
    },
    {
      "inputs": [
        {
          "internalType": "uint256",
          "name": "publicationId",
          "type": "uint256"
        }
      ],
      "name": "getPublicationAuctionBidLength",
      "outputs": [
        {
          "internalType": "uint256",
          "name": "",
          "type": "uint256"
        }
      ],
      "stateMutability": "view",
      "type": "function"
    },
    {
      "inputs": [
        {
          "internalType": "uint256",
          "name": "publicationId",
          "type": "uint256"
        }
      ],
      "name": "getPublicationAuctions",
      "outputs": [
        {
          "internalType": "uint256[]",
          "name": "",
          "type": "uint256[]"
        }
      ],
      "stateMutability": "view",
      "type": "function"
    },
    {
      "inputs": [
        {
          "internalType": "uint256",
          "name": "publicationId",
          "type": "uint256"
        }
      ],
      "name": "getPublicationBids",
      "outputs": [
        {
          "internalType": "uint256[]",
          "name": "",
          "type": "uint256[]"
        }
      ],
      "stateMutability": "view",
      "type": "function"
    },
    {
      "inputs": [
        {
          "internalType": "uint256",
          "name": "publicationId",
          "type": "uint256"
        }
      ],
      "name": "getPublicationContributors",
      "outputs": [
        {
          "components": [
            {
              "internalType": "address",
              "name": "contributorAddress",
              "type": "address"
            },
            {
              "internalType": "uint16",
              "name": "weighting",
              "type": "uint16"
            },
            {
              "internalType": "uint256",
              "name": "balance",
              "type": "uint256"
            },
            {
              "internalType": "uint256",
              "name": "lifetimeAllocations",
              "type": "uint256"
            }
          ],
          "internalType": "struct SharedStructures.Contribution[]",
          "name": "",
          "type": "tuple[]"
        }
      ],
      "stateMutability": "view",
      "type": "function"
    },
    {
      "inputs": [
        {
          "internalType": "uint256",
          "name": "publicationId",
          "type": "uint256"
        }
      ],
      "name": "getPublicationLatestAuction",
      "outputs": [
        {
          "components": [
            {
              "internalType": "uint256",
              "name": "publicationId",
              "type": "uint256"
            },
            {
              "internalType": "uint256",
              "name": "auctionFloor",
              "type": "uint256"
            },
            {
              "internalType": "uint256",
              "name": "startingTime",
              "type": "uint256"
            },
            {
              "internalType": "uint256",
              "name": "duration",
              "type": "uint256"
            },
            {
              "internalType": "uint256[]",
              "name": "auctionBidIds",
              "type": "uint256[]"
            },
            {
              "internalType": "uint256",
              "name": "winningBidId",
              "type": "uint256"
            },
            {
              "internalType": "enum SharedStructures.AuctionStatus",
              "name": "status",
              "type": "uint8"
            }
          ],
          "internalType": "struct SharedStructures.Auction",
          "name": "",
          "type": "tuple"
        }
      ],
      "stateMutability": "view",
      "type": "function"
    },
    {
      "inputs": [],
      "name": "getPublicationLength",
      "outputs": [
        {
          "internalType": "uint256",
          "name": "",
          "type": "uint256"
        }
      ],
      "stateMutability": "view",
      "type": "function"
    },
    {
      "inputs": [
        {
          "internalType": "uint256",
          "name": "publicationId",
          "type": "uint256"
        }
      ],
      "name": "getPublicationLicences",
      "outputs": [
        {
          "internalType": "uint256[]",
          "name": "",
          "type": "uint256[]"
        }
      ],
      "stateMutability": "view",
      "type": "function"
    },
    {
      "inputs": [
        {
          "internalType": "address",
          "name": "authorAddress",
          "type": "address"
        }
      ],
      "name": "getPublicationsAuthorAddress",
      "outputs": [
        {
          "internalType": "uint256[]",
          "name": "",
          "type": "uint256[]"
        }
      ],
      "stateMutability": "view",
      "type": "function"
    },
    {
      "inputs": [
        {
          "internalType": "uint256",
          "name": "taxObjectId",
          "type": "uint256"
        }
      ],
      "name": "getTaxObject",
      "outputs": [
        {
          "components": [
            {
              "internalType": "uint256",
              "name": "licenceId",
              "type": "uint256"
            },
            {
              "internalType": "uint256",
              "name": "ratePerBlock",
              "type": "uint256"
            },
            {
              "internalType": "uint256",
              "name": "lastPayment",
              "type": "uint256"
            },
            {
              "internalType": "uint256",
              "name": "numberOfOutBids",
              "type": "uint256"
            },
            {
              "internalType": "uint256",
              "name": "currentAssignedValue",
              "type": "uint256"
            },
            {
              "internalType": "uint256[]",
              "name": "buyOuts",
              "type": "uint256[]"
            },
            {
              "internalType": "enum SharedStructures.TaxObjectStatus",
              "name": "status",
              "type": "uint8"
            }
          ],
          "internalType": "struct SharedStructures.TaxObject",
          "name": "",
          "type": "tuple"
        }
      ],
      "stateMutability": "view",
      "type": "function"
    },
    {
      "inputs": [],
      "name": "getTaxObjectLength",
      "outputs": [
        {
          "internalType": "uint256",
          "name": "",
          "type": "uint256"
        }
      ],
      "stateMutability": "view",
      "type": "function"
    },
    {
      "inputs": [
        {
          "internalType": "address",
          "name": "userAddress",
          "type": "address"
        }
      ],
      "name": "getUserId",
      "outputs": [
        {
          "internalType": "uint256",
          "name": "",
          "type": "uint256"
        }
      ],
      "stateMutability": "view",
      "type": "function"
    },
    {
      "inputs": [
        {
          "internalType": "address",
          "name": "userAddress",
          "type": "address"
        }
      ],
      "name": "getUserProfileUri",
      "outputs": [
        {
          "internalType": "string",
          "name": "",
          "type": "string"
        }
      ],
      "stateMutability": "view",
      "type": "function"
    },
    {
      "inputs": [
        {
          "internalType": "address",
          "name": "auctionManagerContract",
          "type": "address"
        },
        {
          "internalType": "address",
          "name": "licenceManagerContract",
          "type": "address"
        },
        {
          "internalType": "address",
          "name": "publicationManagerContract",
          "type": "address"
        },
        {
          "internalType": "address",
          "name": "userManagerContract",
          "type": "address"
        },
        {
          "internalType": "address",
          "name": "harbergerTaxManagerContract",
          "type": "address"
        },
        {
          "internalType": "address",
          "name": "vaultContract",
          "type": "address"
        }
      ],
      "name": "initialize",
      "outputs": [],
      "stateMutability": "nonpayable",
      "type": "function"
    },
    {
      "inputs": [],
      "name": "isCallerRegistered",
      "outputs": [
        {
          "internalType": "bool",
          "name": "",
          "type": "bool"
        }
      ],
      "stateMutability": "view",
      "type": "function"
    },
    {
      "inputs": [
        {
          "internalType": "address",
          "name": "forwarder",
          "type": "address"
        }
      ],
      "name": "isTrustedForwarder",
      "outputs": [
        {
          "internalType": "bool",
          "name": "",
          "type": "bool"
        }
      ],
      "stateMutability": "view",
      "type": "function"
    },
    {
      "inputs": [
        {
          "internalType": "uint256",
          "name": "tokenId",
          "type": "uint256"
        }
      ],
      "name": "ownerOf",
      "outputs": [
        {
          "internalType": "address",
          "name": "",
          "type": "address"
        }
      ],
      "stateMutability": "view",
      "type": "function"
    },
    {
      "inputs": [
        {
          "internalType": "string",
          "name": "profileUri",
          "type": "string"
        }
      ],
      "name": "registerUser",
      "outputs": [
        {
          "internalType": "uint256",
          "name": "",
          "type": "uint256"
        }
      ],
      "stateMutability": "nonpayable",
      "type": "function"
    },
    {
      "inputs": [
        {
          "internalType": "uint256",
          "name": "bid",
          "type": "uint256"
        },
        {
          "internalType": "uint256",
          "name": "salt",
          "type": "uint256"
        },
        {
          "internalType": "uint256",
          "name": "publicationId",
          "type": "uint256"
        },
        {
          "internalType": "uint256",
          "name": "bidId",
          "type": "uint256"
        }
      ],
      "name": "revealSealedBid",
      "outputs": [],
      "stateMutability": "nonpayable",
      "type": "function"
    },
    {
      "inputs": [
        {
          "internalType": "address",
          "name": "ownerAddress",
          "type": "address"
        }
      ],
      "name": "setOwner",
      "outputs": [],
      "stateMutability": "nonpayable",
      "type": "function"
    },
    {
      "inputs": [
        {
          "internalType": "uint256",
          "name": "publicationId",
          "type": "uint256"
        },
        {
          "internalType": "uint256",
          "name": "newStartTime",
          "type": "uint256"
        }
      ],
      "name": "updateAuctionStartTime",
      "outputs": [],
      "stateMutability": "nonpayable",
      "type": "function"
    },
    {
      "inputs": [
        {
          "internalType": "uint256",
          "name": "licenceId",
          "type": "uint256"
        },
        {
          "internalType": "uint256",
          "name": "newValuation",
          "type": "uint256"
        }
      ],
      "name": "updateLicenceHarbergerValuation",
      "outputs": [],
      "stateMutability": "nonpayable",
      "type": "function"
    }
  ],
  "bytecode": "0x60a0346200018557601f6200384c38819003918201601f19168301916001600160401b038311848410176200018a578084926020946040528339810103126200018557516001600160a01b0381168103620001855760805260005460ff8160081c16159081809262000177575b80156200015e575b15620001025760ff19811660011760005581620000ef575b50620000b3575b6040516136ab9081620001a1823960805181818161158401526126740152f35b61ff0019600054166000557f7f26b83ff96e1f2b6a682f133852f6798a09c465da95921460cefb3847402498602060405160018152a162000093565b61ffff191661010117600055386200008c565b60405162461bcd60e51b815260206004820152602e60248201527f496e697469616c697a61626c653a20636f6e747261637420697320616c72656160448201526d191e481a5b9a5d1a585b1a5e995960921b6064820152608490fd5b50303b158015620000745750600160ff82161462000074565b50600160ff8216106200006c565b600080fd5b634e487b7160e01b600052604160045260246000fdfe6080806040526004361015610014575b600080fd5b600090813560e01c90816303b43c77146121a05750806304686b4a1461218a5780630cdd53f61461204957806313af403514611fa6578063207f293714611f4b5780632207fc6a14611e6457806328260cf914611e115780632b956ff714611db55780632cedebee14611c9f5780633c889e6f14611b3d5780633e76460414611a7b57806346ac9a3614611a5c5780634beb8224146116615780634cd541841461160e57806351a35349146115ab578063572b6c05146115595780635bc2ff781461153e578063625d8e7814610fe557806362838913146111a75780636352211e146114ac578063704f1b94146113e05780637765c52c1461133b57806378bd7935146112d75780637a3e00cd1461122b5780637ece03bb146111df57806387ceff09146111c45780639703ef35146111a75780639ae001ff14610fef5780639dccae8214610fe5578063a564e83c14610cd8578063a8020ee714610c74578063b352c82d14610c21578063b4c0bd9d14610bce578063b7b668af14610ba5578063cc2a9a5b146109d8578063d74298df146108fe578063db39d73e14610877578063e808386314610850578063eb12cdc3146106bb578063ec297be6146105be578063ef257a321461050a578063fbd9d2eb1461048b578063fc51cee31461038d578063fd8446e91461030e5763ff42e8791461021157600080fd5b3461030b576020908160031936011261030b5760246001600160a01b0383816067541660405193848092633630b3e360e11b825260043560048301525afa9182156103005790849184936102cf575b506065541691602460405180948193633d446f6760e11b835260048301525afa9182156102c35791610296575b50604051908152f35b90508181813d83116102bc575b6102ad81836124d5565b8101031261000f57513861028d565b503d6102a3565b604051903d90823e3d90fd5b8281939294503d83116102f9575b6102e781836124d5565b8101031261000f578390519138610260565b503d6102dd565b6040513d85823e3d90fd5b80fd5b503461030b578060031936011261030b5760049060206001600160a01b03606954166040519384809263fd8446e960e01b82525afa9081156102c3579061035b575b602090604051908152f35b506020813d8211610385575b81610374602093836124d5565b8101031261000f5760209051610350565b3d9150610367565b503461030b57602036600319011261030b576103a761359f565b506024816001600160a01b036020816067541660405194858092633630b3e360e11b825260043560048301525afa92831561044a578293610455575b5060655416916024604051809481936378bd793560e01b835260048301525afa90811561044a57826104239392610427575b505060405191829182612547565b0390f35b61044392503d8091833e61043b81836124d5565b8101906135d8565b3880610415565b6040513d84823e3d90fd5b915091506020813d8211610483575b81610471602093836124d5565b8101031261000f5782905191386103e3565b3d9150610464565b503461030b57602036600319011261030b576024816001600160a01b03606654166040519283809263fbd9d2eb60e01b825260043560048301525afa90811561044a578261042393926104e7575b505060405191829182612371565b61050392503d8091833e6104fb81836124d5565b81019061351b565b38806104d9565b503461030b57602036600319011261030b5761052461235b565b90806001600160a01b0360248160685416946040519586938492637792bd1960e11b84521660048301525afa9081156102c3578091610574575b60405160208082528190610423908201856125eb565b90503d8082843e61058581846124d5565b8201916020818403126105ba5780519167ffffffffffffffff831161030b5750916105b49161042393016126b1565b3861055e565b5080fd5b503461030b57604036600319011261030b576001600160a01b038060675416906040518092633630b3e360e11b8252602435600483015281602460209586935afa80156106b05783918591610681575b506064610619612671565b918685606554166040519687958694633cabc27560e21b8652600435600487015260248601521660448401525af1801561030057610658575b82604051f35b813d831161067a575b61066b81836124d5565b8101031261000f573880610652565b503d610661565b82819392503d83116106a9575b61069881836124d5565b8101031261000f578290513861060e565b503d61068e565b6040513d86823e3d90fd5b503461030b576020806003193601126105ba57604051916106db8361249c565b80835280828401528060408401528060c060609482868201528260808201528560a082015201526024816001600160a01b03606954166040519283809263eb12cdc360e01b825260043560048301525afa9182156102c357809261079e575b505060405192828493845282518185015282015160408401526040820151818401528101516080830152608081015160a083015260c061078960a083015160e083860152610100850190612513565b910151610795816123ac565b60e08301520390f35b9091503d8082843e6107b081846124d5565b820183838203126105ba57825167ffffffffffffffff9384821161084857019060e08282031261084c57604051936107e78561249c565b8251855285830151868601526040830151604086015286830151878601526080830151608086015260a083015190811161084857829161082a9160c094016134bd565b60a0850152015190600282101561030b575060c0820152388061073a565b8380fd5b8280fd5b503461030b57602036600319011261030b57602061086f6004356128bc565b604051908152f35b503461030b57602036600319011261030b576024816001600160a01b036067541660405192838092633c1ab00f60e01b825260043560048301525afa90811561044a578261042393926108db575b5050604051918291602083526020830190612610565b6108f792503d8091833e6108ef81836124d5565b810190612731565b38806108c5565b503461030b5761090d36612345565b60695460405163b4c0bd9d60e01b81526004810193909352602093926001600160a01b03929183168582602481845afa9182156109cd578693929186918293610999575b50906064929161095f612671565b96604051978896879563041d948960e01b8752600487015260248601521660448401525af19182156102c357916102965750604051908152f35b925093905081813d83116109c6575b6109b281836124d5565b8101031261000f5751859285906064610951565b503d6109a8565b6040513d87823e3d90fd5b503461030b5760c036600319011261030b576109f261235b565b6024356001600160a01b039182821680920361000f5760443583811680910361000f5760643584811680910361000f576084359185831680930361000f5760a4359486861680960361000f5787549660ff8860081c161597888099610b98575b8015610b81575b15610b165760ff1981166001178a5588610b05575b5080610a78612671565b16956001600160a01b03199687606b541617606b5516856065541617606555846066541617606655836067541617606755826068541617606855816069541617606955606a541617606a55610acc57604051f35b61ff001981541681557f7f26b83ff96e1f2b6a682f133852f6798a09c465da95921460cefb3847402498602060405160018152a1604051f35b61ffff191661010117895538610a6e565b60405162461bcd60e51b815260206004820152602e60248201527f496e697469616c697a61626c653a20636f6e747261637420697320616c72656160448201527f647920696e697469616c697a65640000000000000000000000000000000000006064820152608490fd5b50303b158015610a595750600160ff821614610a59565b50600160ff821610610a52565b503461030b57602036600319011261030b576020610bc46004356132c1565b6040519015158152f35b503461030b576020908160031936011261030b576024826001600160a01b03606954166040519283809263b4c0bd9d60e01b825260043560048301525afa9182156102c357916102965750604051908152f35b503461030b576020908160031936011261030b576024826001600160a01b036069541660405192838092634511371960e11b825260043560048301525afa9182156102c357916102965750604051908152f35b503461030b57602036600319011261030b57610c8e61235b565b816001600160a01b03602481606654169360405194859384926334767e5760e21b84521660048301525afa90811561044a578261042393926104e757505060405191829182612371565b503461030b57602036600319011261030b5780610180604051610cfa816124b8565b828152606060208201528260408201528260608201528260808201528260a08201528260c08201528260e082015260606101008201528261012082015260606101408201528261016082015201526024816001600160a01b0360675416604051928380926329593a0f60e21b825260043560048301525afa90811561044a578291610e7c575b506040519060208252610d976020830182516125a9565b6020810151610db46101a0918260408601526101c08501906125eb565b936040830151906006821015610e685750610e5384956101809260608701526001600160a01b036060860151166080870152608085015160a087015260ff60a08601511660c087015260c085015160e087015260e0850151610100870152610e3061010086015191601f199283898303016101208a0152612513565b906101208601516101408801526101408601519087830301610160880152612513565b92610160810151828601520151908301520390f35b634e487b7160e01b81526021600452602490fd5b90503d8083833e610e8d81836124d5565b602082828101031261084c57815167ffffffffffffffff8111610848576101a081840183850103126108485760405192610ec6846124b8565b818101516005811015610fe15784526020828201015167ffffffffffffffff8111610fe157610efc9084830190848401016126b1565b6020850152604082820101516006811015610fe1576040850152610f24606083830101612705565b6060850152608082820101516080850152610f4360a0838301016128ae565b60a085015280820160c0818101519086015260e08082015190860152610100015167ffffffffffffffff8111610fe157610f849084830190848401016134bd565b610100850152808201610120818101519086015261014001519267ffffffffffffffff8411610fe15761018093610fc191830190848401016134bd565b610140850152016101608181015190840152015161018082015238610d80565b8580fd5b505061000f6123cc565b503461030b57610ffe36612345565b611009929192612671565b6001600160a01b03806067541660405192631baaa12b60e31b84528660048501526020938481602481865afa801561119c5784908890611162575b8192501691160361110857828596602460405180948193633630b3e360e11b835260048301525afa9283156109cd5785936110d5575b50506065541691823b156110d05760448492836040519586948593638b633cbb60e01b8552600485015260248401525af1801561044a576110bc575b50604051f35b6110c590612456565b61030b5780386110b6565b505050fd5b819550809293503d8311611101575b6110ee81836124d5565b8101031261000f5783925190388061107a565b503d6110e4565b60405162461bcd60e51b815260048101849052602c60248201527f4f6e6c7920746865207075626c69736865722063616e206d6f6469667920746860448201526b652073746172742074696d6560a01b6064820152608490fd5b50508481813d8311611195575b61117981836124d5565b81010312611191578361118c8192612705565b611044565b8680fd5b503d61116f565b6040513d89823e3d90fd5b503461030b57602036600319011261030b57602090604051908152f35b503461030b578060031936011261030b576020604051428152f35b503461030b578060031936011261030b5760049060206001600160a01b036067541660405193848092637ece03bb60e01b82525afa9081156102c3579061035b57602090604051908152f35b503461030b57604036600319011261030b5761128b602061124a61235b565b6001600160a01b03606a54166040518080958194637a3e00cd60e01b83526024359060048401602090939291936001600160a01b0360408201951681520152565b03915afa90811561044a57602092916112aa575b506040519015158152f35b6112ca9150823d81116112d0575b6112c281836124d5565b810190612817565b3861129f565b503d6112b8565b503461030b57602036600319011261030b576112f161359f565b506024816001600160a01b0360655416604051928380926378bd793560e01b825260043560048301525afa90811561044a5782610423939261042757505060405191829182612547565b503461030b576020908160031936011261030b5780826001600160a01b0360655416602460405180958193631dd9714b60e21b835260043560048401525af19182156113d357819261139b575b506004821015610e685750604051908152f35b9091508281813d83116113cc575b6113b381836124d5565b810103126105ba575160048110156105ba579038611388565b503d6113a9565b50604051903d90823e3d90fd5b503461030b576020908160031936011261030b5760043567ffffffffffffffff81116105ba57366023820112156105ba57806004013561141f816124f7565b9161142d60405193846124d5565b81835236602483830101116108485781849260248793018386013783010152826001600160a01b03806068541661148c85611466612671565b9560405196879586948593636ec3877f60e01b85526040600486015260448501906125eb565b9116602483015203925af19182156102c357916102965750604051908152f35b503461030b576020908160031936011261030b576001600160a01b036024838260665416604051928380926331a9108f60e11b825260043560048301525afa9283156102c3578093611504575b505060405191168152f35b909192508382813d8311611537575b61151d81836124d5565b8101031261030b575061152f90612705565b9038806114f9565b503d611513565b503461030b578060031936011261030b576020610bc4613541565b503461030b57602036600319011261030b57602061157561235b565b604051906001600160a01b03807f0000000000000000000000000000000000000000000000000000000000000000169116148152f35b503461030b57602036600319011261030b576115c561235b565b816001600160a01b036024816067541693604051948593849262e07ba960e21b84521660048301525afa90811561044a578261042393926104e757505060405191829182612371565b503461030b576020908160031936011261030b576024826001600160a01b036066541660405192838092631335506160e21b825260043560048301525afa9182156102c357916102965750604051908152f35b503461030b5761012036600319011261030b576005600435101561030b5767ffffffffffffffff90816024351161030b5736602360243501121561030b5781602435600401351161030b57366024803560040135813501011161030b5760c43560ff811681036105ba5760e4359083821161084c573660238301121561084c578382600401351161084c57366024836004013560071b8401011161084c57610104359380851161084857366023860112156108485784600401351161084c57366024856004013560061b8601011161084c5761173b613541565b156119f1576001600160a01b0360675416610124611757612671565b60405163261c62eb60e11b81529390611775600480870190356125a9565b60e060248601526024356004013560e486015260243560040135602480350161010487013786610104602435600401358701015260ff601f19601f6024356004013501168601926001600160a01b0361010485019316604488015260a43560648801521660848601526101008583030160a4860152856004013590520192602481019085905b8060040135821061199d575050508183036003190160c4830152600485013583526020928301946024810190855b8160040135811061197257505050818391818681819903925af1908115610300578391611941575b506001600435036118625782604051f35b82826001600160a01b036065541660846040518094819363b8f4e5a560e01b835287600484015260443560248401526064356044840152833560648401525af19283156106b057849361190e575b50506001600160a01b036067541691823b156110d05760448492836040519586948593637c14866f60e11b8552600485015260248401525af1801561044a576118fa575b80610652565b61190390612456565b61030b5780386118f4565b819450809293503d831161193a575b61192781836124d5565b8101031261000f578291519038806118b0565b503d61191d565b809350828092503d831161196b575b61195a81836124d5565b8101031261000f5782915138611851565b503d611950565b9091966040806001928a35815261ffff61198d8a8d016126f6565b16818a0152019801929101611829565b9091948535906001600160a01b03821680920361000f576001918152602061ffff6119c9828a016126f6565b16908201526040870135604082015260608088013590820152608080910196019201906117fb565b60405162461bcd60e51b815260206004820152603460248201527f43616e2774206372656174652061207075626c69636174696f6e20696620796f60448201527f7520617265206e6f7420726567697374657265640000000000000000000000006064820152608490fd5b503461030b57602036600319011261030b57602061086f600435612d2c565b503461030b57602036600319011261030b576024816001600160a01b036020816067541660405194858092633630b3e360e11b825260043560048301525afa92831561044a578293611b07575b50606554169160246040518094819363385a3b4760e11b835260048301525afa90811561044a578261042393926104e757505060405191829182612371565b915091506020813d8211611b35575b81611b23602093836124d5565b8101031261000f578290519138611ac8565b3d9150611b16565b503461030b576020806003193601126105ba578160249260c0604051611b628161249c565b82815282858201528260408201528260608201528260808201528260a082015201526001600160a01b039060e0826065541660405195868092633c889e6f851b825260043560048301525afa9384156113d3578194611c10575b5060405192845184528085015190840152604084015160408401526060840151906003821015610e68575060e09360c09160608501526080810151608085015260a081015160a085015201511660c0820152f35b90935060e0813d60e011611c97575b81611c2c60e093836124d5565b810103126108485760405190611c418261249c565b8051825283810151848301526040810151604083015260608101516003811015610fe157611c8b9160c09160608501526080810151608085015260a081015160a085015201612705565b60c08201529238611bbc565b3d9150611c1f565b503461030b576020908160031936011261030b57806060604051611cc281612480565b828152828582015282604082015201526001600160a01b039060246080836066541660405192838092631676f5f760e11b825260043560048301525afa9182156102c3578092611d41575b608084606085886040519382511684528082015190840152604081015160408401520151611d3a816123ac565b6060820152f35b9091506080823d8211611dad575b81611d5c608093836124d5565b8101031261030b57606060405192611d7384612480565b611d7c81612705565b8452858101518685015260408101516040850152015190600282101561030b57506060808301919091528390611d0d565b3d9150611d4f565b503461030b576020908160031936011261030b57611dd161235b565b826001600160a01b0360248160685416936040519485938492632b956ff760e01b84521660048301525afa9182156102c357916102965750604051908152f35b503461030b576020908160031936011261030b576024826001600160a01b036069541660405192838092631c59b01360e11b825260043560048301525afa9182156102c357916102965750604051908152f35b503461030b57608036600319011261030b57806001600160a01b0360246020826067541660405192838092633630b3e360e11b825260443560048301525afa908115610300578391611f17575b50611eba612671565b8260655416803b15611f135784928360a4926040519687958694633befc3d560e11b865260043560048701526024356024870152604486015260643560648601521660848401525af1801561044a576110bc5750604051f35b8480fd5b9250506020823d8211611f43575b81611f32602093836124d5565b8101031261000f5782915138611eb1565b3d9150611f25565b503461030b57602036600319011261030b576024816001600160a01b03606754166040519283809263207f293760e01b825260043560048301525afa90811561044a578261042393926104e757505060405191829182612371565b503461030b57602036600319011261030b57611fc061235b565b606b54906001600160a01b039081611fd6612671565b1682841603611ff45716906001600160a01b03191617606b55604051f35b60405162461bcd60e51b815260206004820152602760248201527f4f6e6c79206f776e65722063616e206368616e676520746865206f776e6572206044820152666164647265737360c81b6064820152608490fd5b503461030b5761205836612345565b6001600160a01b03806067541690604051631baaa12b60e31b8152846004820152856020958683602481885afa92831561044a578293612153575b50602460405180968193633c1ab00f60e01b835260048301525afa918215612148578593879361212c575b50606a541690866120cd612671565b6120ed6040519788968795869463e6a3b49760e01b86526004860161282f565b03925af19081156103005761210a92849261210f575b5050612862565b604051f35b6121259250803d106112d0576112c281836124d5565b3880612103565b6121419193503d8089833e6108ef81836124d5565b91386120be565b6040513d88823e3d90fd5b9092508681813d8311612183575b61216b81836124d5565b810103126105ba5761217c90612705565b9138612093565b503d612161565b503461030b578060031936011261030b57604051f35b9050346105ba576121b036612345565b90916001600160a01b038181606654166327eaf52960e21b825285600483015281602460209586935afa908115612148578691612310575b5081806121f3612671565b169116036122a5579084929160695416936040519063b4c0bd9d60e01b825260048201528181602481885afa9182156106b0578492612277575b5050833b1561084c57604490836040519586948593631116c47960e31b8552600485015260248401525af1801561044a576122685750604051f35b61227190612456565b386110b6565b90809250813d831161229e575b61228e81836124d5565b8101031261084c5751388061222d565b503d612284565b60405162461bcd60e51b815260048101839052603860248201527f4f6e6c79207468652063757272656e74206c6963656e6365206f776e6572206360448201527f616e2075706461746520746865202076616c756174696f6e00000000000000006064820152608490fd5b90508281813d831161233e575b61232781836124d5565b81010312610fe15761233890612705565b386121e8565b503d61231d565b604090600319011261000f576004359060243590565b600435906001600160a01b038216820361000f57565b6020908160408183019282815285518094520193019160005b828110612398575050505090565b83518552938101939281019260010161238a565b600211156123b657565b634e487b7160e01b600052602160045260246000fd5b503461000f57602036600319011261000f576123e661235b565b60006001600160a01b0360248160655416936040519485938492630c4bb1cf60e31b84521660048301525afa801561244a5761042391600091612431575b5060405191829182612371565b612444913d8091833e6104fb81836124d5565b38612424565b6040513d6000823e3d90fd5b67ffffffffffffffff811161246a57604052565b634e487b7160e01b600052604160045260246000fd5b6080810190811067ffffffffffffffff82111761246a57604052565b60e0810190811067ffffffffffffffff82111761246a57604052565b6101a0810190811067ffffffffffffffff82111761246a57604052565b90601f8019910116810190811067ffffffffffffffff82111761246a57604052565b67ffffffffffffffff811161246a57601f01601f191660200190565b90815180825260208080930193019160005b828110612533575050505090565b835185529381019392810192600101612525565b602081528151602082015260208201516040820152604082015160608201526060820151608082015260c061258c608084015160e060a0850152610100840190612513565b9260a08101518284015201519060048210156123b65760e0015290565b9060058210156123b65752565b918091926000905b8282106125d65750116125cf575050565b6000910152565b915080602091830151818601520182916125be565b90602091612604815180928185528580860191016125b6565b601f01601f1916010190565b90815180825260208080930193019160005b828110612630575050505090565b835180516001600160a01b031686528083015161ffff1686840152604080820151908701526060908101519086015260809094019392810192600101612622565b337f00000000000000000000000000000000000000000000000000000000000000006001600160a01b0316036126ad5736601319013560601c90565b3390565b81601f8201121561000f5780516126c7816124f7565b926126d560405194856124d5565b8184526020828401011161000f576126f391602080850191016125b6565b90565b359061ffff8216820361000f57565b51906001600160a01b038216820361000f57565b67ffffffffffffffff811161246a5760051b60200190565b906020808383031261000f57825167ffffffffffffffff9384821161000f57019082601f8301121561000f57815161276881612719565b94604094612778865197886124d5565b828752838088019360071b8601019481861161000f578401925b8584106127a3575050505050505090565b608090818584031261000f578751918201828110858211176128025788526127ca85612705565b8252858501519061ffff8216820361000f57828792836080950152898701518a82015260608088015190820152815201930192612792565b60246000634e487b7160e01b81526041600452fd5b9081602091031261000f5751801515810361000f5790565b94939261285d916060936001600160a01b038092168852166020870152608060408701526080860190612610565b930152565b1561286957565b60405162461bcd60e51b815260206004820152601e60248201527f42756c6b2061756374696f6e20736574746c656d656e74206661696c656400006044820152606490fd5b519060ff8216820361000f57565b6001600160a01b0380606554169060409283519363878227ed60e01b8552600491828601526024916060868481600080995af1958615612d22578596612ca5575b50855115612c9c576020938487018181511615612c5a5783880190815115612c185782606754168251865190631baaa12b60e31b82528682015288818981855afa908115612bd5578a91612bdf575b5089845189895180958193633c1ab00f60e01b83528b8301525afa918215612bd5579089918b93612bb9575b5085606a54168c8c896129a48a89511693518d519889978896879563e6a3b49760e01b8752860161282f565b03925af1908115612b925789949392916129c5918691612b9c575b50612862565b878360675416888451895197889384926326347cd560e11b84528b8401525af1938415612b92579088918a95612b5d575b5060648480606654169251168b8551938a51988995869463d6e7af3560e01b86528c8601528d85015260448401525af1928315612b24578893612b2e575b5086826067541691518787518094819363eabcd8d160e01b8352898301525afa908115612b24578891612ae6575b5060ff16600214612a79575b505050505050505190565b859287604492606954168a518751988996879563328f52c160e11b87528601528401525af1908115612add5750612ab4575b80808080612a6e565b813d8311612ad6575b612ac781836124d5565b8101031261030b578080612aab565b503d612abd565b513d85823e3d90fd5b90508681813d8311612b1d575b612afd81836124d5565b81010312612b195760ff612b126002926128ae565b9150612a62565b8780fd5b503d612af3565b85513d8a823e3d90fd5b9092508681813d8311612b56575b612b4681836124d5565b81010312612b1957519138612a34565b503d612b3c565b8281939296503d8311612b8b575b612b7581836124d5565b81010312612b875787905193386129f6565b8880fd5b503d612b6b565b86513d8b823e3d90fd5b612bb391508a3d8c116112d0576112c281836124d5565b386129bf565b612bce9193503d808d833e6108ef81836124d5565b9138612978565b87513d8c823e3d90fd5b90508881813d8311612c11575b612bf681836124d5565b81010312612c0d57612c0790612705565b3861294c565b8980fd5b503d612bec565b845162461bcd60e51b81528085018890526016818801527f496e76616c6964207075626c69636174696f6e204964000000000000000000006044820152606490fd5b835162461bcd60e51b81528084018790526016818701527f496e76616c69642077696e6e696e6720626964204964000000000000000000006044820152606490fd5b50505050905090565b9095506060813d8211612d1a575b81612cc0606093836124d5565b81010312611f13578151906060820182811067ffffffffffffffff821117612d08578352805182528290612cf660208201612705565b602084015201518282015294386128fd565b634e487b7160e01b8752604188528487fd5b3d9150612cb3565b82513d87823e3d90fd5b6066546000906001600160a01b03809116604090815190631335506160e21b82526004938685840152602060249281858581845afa948515612f94578895613292575b50606954865163b4c0bd9d60e01b8152808901879052908416999095838787818e5afa968715612fbb578a97613263575b508387878b8b519e8f938492634511371960e11b84528301525afa9a8b15612fbb578a9b613234575b5087516331a9108f60e11b81528981018290529284848881845afa938415613003578c8a8c88938f986131ec575b50606a549151637a3e00cd60e01b81526001600160a01b038916918101918252602082019390935291929183918a1690829081906040015b03915afa9081156131e2578c916131c5575b501561300d575050836067541691875191631baaa12b60e31b8352808a84015284838881875afa92831561300357908b918294612fc5575b50878b8b519687938492633c1ab00f60e01b84528301525afa928315612fbb578492918c918c95612f9e575b508b8b612ecb89606a5416948d519889978896879563e6a3b49760e01b8752860161282f565b03925af1908115612f94578891612f77575b5015612f3757506069541693843b15610fe15790859291838551968794859363709b1da960e11b85528401525af1908115612f2e5750612f1c57505090565b612f268291612456565b61030b575090565b513d84823e3d90fd5b85818460649388519362461bcd60e51b85528401528201527f42756c6b2068617262657267657220736574746c656d656e74206661696c65646044820152fd5b612f8e9150823d84116112d0576112c281836124d5565b38612edd565b86513d8a823e3d90fd5b612fb49195508c3d8091833e6108ef81836124d5565b9338612ea5565b88513d8c823e3d90fd5b86809295508193503d8311612ffc575b612fdf81836124d5565b81010312612ff857612ff18b91612705565b9238612e79565b8a80fd5b503d612fd5565b89513d8d823e3d90fd5b919798969395999a509150803b15612c0d578980918a8a518094819363d804c0d760e01b978884528c8401525af18015612fbb576131b4575b50838991898560675416918a51948593849283528b8b8401525af180156131aa57908491613181575b5050816069541690813b15612b875788918883928951948593849263cacf7e0f60e01b84528a8401525af18015612f945790889161316d575b50828260655416608488518094819363b8f4e5a560e01b83528a8a840152818d84015242604484015262278d0060648401525af1928315612f9457889361313d575b50506067541690813b1561119157918660449281959487519889968795637c14866f60e11b87528601528401525af1908115612f2e575090829161312d57505090565b61313690612456565b61030b5790565b9080929350813d8311613166575b61315581836124d5565b8101031261000f57519038806130ea565b503d61314b565b61317690612456565b6111915786386130a8565b813d83116131a3575b61319481836124d5565b8101031261000f57823861306f565b503d61318a565b87513d8b823e3d90fd5b986131bf859a612456565b98613046565b6131dc9150863d88116112d0576112c281836124d5565b38612e41565b8a513d8e823e3d90fd5b949596975050505081813d831161322d575b61320881836124d5565b81010312612ff85790612e2f858d8b6132238e989796612705565b9790919293612df7565b503d6131fe565b909a508381813d831161325c575b61324c81836124d5565b81010312612c0d57519938612dc9565b503d613242565b9096508381813d831161328b575b61327b81836124d5565b81010312612c0d57519538612da0565b503d613271565b9094508181813d83116132ba575b6132aa81836124d5565b81010312612b1957519338612d6f565b503d6132a0565b60695460009160409081519063fe6fd79760e01b82528060048301526020918281602481896001600160a01b03809a165af190811561345b5786916134a0575b5061330d575050505090565b8360695416835191635859eec160e01b83528060048401528383602481855afa928315613496579084918894613465575b506024865180948193634142681360e01b835260048301525afa90811561345b578691613426575b5084606654169084516327eaf52960e21b81528360048201528481602481865afa948515612f945788956133ee575b5050813b15611191579186606492878296958851998a97889663ab2a766160e01b885260048801521660248601521660448401525af1908115612f2e57506133df575b5050600190565b6133e890612456565b386133d8565b9080929550813d831161341f575b61340681836124d5565b810103126111915761341790612705565b923880613395565b503d6133fc565b90508281813d8311613454575b61343d81836124d5565b81010312610fe15761344e90612705565b38613366565b503d613433565b84513d88823e3d90fd5b8281939295503d831161348f575b61347d81836124d5565b8101031261119157839051923861333e565b503d613473565b85513d89823e3d90fd5b6134b79150833d85116112d0576112c281836124d5565b38613301565b81601f8201121561000f578051916134d483612719565b926134e260405194856124d5565b808452602092838086019260051b82010192831161000f578301905b82821061350c575050505090565b815181529083019083016134fe565b9060208282031261000f57815167ffffffffffffffff811161000f576126f392016134bd565b6001600160a01b036020816068541691602461355b612671565b60405194859384926338b6a3a160e01b84521660048301525afa90811561244a57600091613587575090565b6126f3915060203d81116112d0576112c281836124d5565b604051906135ac8261249c565b8160c0600091828152826020820152826040820152826060820152606060808201528260a08201520152565b9060208282031261000f57815167ffffffffffffffff9283821161000f570160e08183031261000f576040519260e084018481108282111761246a5760405281518452602082015160208501526040820151604085015260608201516060850152608082015190811161000f5760c0926136539183016134bd565b608084015260a081015160a08401520151600481101561000f5760c08201529056fea2646970667358221220ef25150dd90a333b2fd6b2b8957312af9a0a7694162100eb398b8eeb8c7964d364736f6c634300080f0033",
  "linkReferences": {},
  "deployedLinkReferences": {}
}