{
  "_format": "hh-sol-artifact-1",
  "contractName": "AuctionManager",
  "sourceName": "contracts/AuctionManager.sol",
  "abi": [
    {
      "inputs": [
        {
          "internalType": "address",
          "name": "unicoinRegistry",
          "type": "address"
        },
        {
          "internalType": "address",
          "name": "trustedForwarder",
          "type": "address"
        }
      ],
      "stateMutability": "nonpayable",
      "type": "constructor"
    },
    {
      "anonymous": false,
      "inputs": [
        {
          "indexed": false,
          "internalType": "uint8",
          "name": "version",
          "type": "uint8"
        }
      ],
      "name": "Initialized",
      "type": "event"
    },
    {
      "inputs": [
        {
          "internalType": "bytes32",
          "name": "bidHash",
          "type": "bytes32"
        },
        {
          "internalType": "uint256",
          "name": "auctionId",
          "type": "uint256"
        },
        {
          "internalType": "address",
          "name": "bidderAddress",
          "type": "address"
        }
      ],
      "name": "_commitSealedBid",
      "outputs": [
        {
          "internalType": "uint256",
          "name": "",
          "type": "uint256"
        }
      ],
      "stateMutability": "nonpayable",
      "type": "function"
    },
    {
      "inputs": [
        {
          "internalType": "uint256",
          "name": "_publicationId",
          "type": "uint256"
        },
        {
          "internalType": "uint256",
          "name": "_auctionFloor",
          "type": "uint256"
        },
        {
          "internalType": "uint256",
          "name": "_auctionStartTime",
          "type": "uint256"
        },
        {
          "internalType": "uint256",
          "name": "_auctionDuration",
          "type": "uint256"
        }
      ],
      "name": "_createAuction",
      "outputs": [
        {
          "internalType": "uint256",
          "name": "",
          "type": "uint256"
        }
      ],
      "stateMutability": "nonpayable",
      "type": "function"
    },
    {
      "inputs": [
        {
          "internalType": "uint256",
          "name": "auctionId",
          "type": "uint256"
        }
      ],
      "name": "_finalizeAuction",
      "outputs": [
        {
          "components": [
            {
              "internalType": "uint256",
              "name": "winningAmount",
              "type": "uint256"
            },
            {
              "internalType": "address",
              "name": "winnerAddress",
              "type": "address"
            },
            {
              "internalType": "uint256",
              "name": "publicationId",
              "type": "uint256"
            }
          ],
          "internalType": "struct SharedStructures.AuctionResult",
          "name": "result",
          "type": "tuple"
        }
      ],
      "stateMutability": "nonpayable",
      "type": "function"
    },
    {
      "inputs": [
        {
          "internalType": "uint256",
          "name": "bidAmount",
          "type": "uint256"
        },
        {
          "internalType": "uint256",
          "name": "salt",
          "type": "uint256"
        },
        {
          "internalType": "uint256",
          "name": "auctionId",
          "type": "uint256"
        },
        {
          "internalType": "uint256",
          "name": "bidId",
          "type": "uint256"
        },
        {
          "internalType": "address",
          "name": "bidderAddress",
          "type": "address"
        }
      ],
      "name": "_revealSealedBid",
      "outputs": [],
      "stateMutability": "nonpayable",
      "type": "function"
    },
    {
      "inputs": [
        {
          "internalType": "uint256",
          "name": "auctionId",
          "type": "uint256"
        },
        {
          "internalType": "uint256",
          "name": "_newStartTime",
          "type": "uint256"
        }
      ],
      "name": "_updateAuctionStartTime",
      "outputs": [],
      "stateMutability": "nonpayable",
      "type": "function"
    },
    {
      "inputs": [
        {
          "internalType": "uint256",
          "name": "",
          "type": "uint256"
        }
      ],
      "name": "auctions",
      "outputs": [
        {
          "internalType": "uint256",
          "name": "publicationId",
          "type": "uint256"
        },
        {
          "internalType": "uint256",
          "name": "auctionFloor",
          "type": "uint256"
        },
        {
          "internalType": "uint256",
          "name": "startingTime",
          "type": "uint256"
        },
        {
          "internalType": "uint256",
          "name": "duration",
          "type": "uint256"
        },
        {
          "internalType": "uint256",
          "name": "winningBidId",
          "type": "uint256"
        },
        {
          "internalType": "enum SharedStructures.AuctionStatus",
          "name": "status",
          "type": "uint8"
        }
      ],
      "stateMutability": "view",
      "type": "function"
    },
    {
      "inputs": [
        {
          "internalType": "address",
          "name": "",
          "type": "address"
        },
        {
          "internalType": "uint256",
          "name": "",
          "type": "uint256"
        }
      ],
      "name": "bidOwners",
      "outputs": [
        {
          "internalType": "uint256",
          "name": "",
          "type": "uint256"
        }
      ],
      "stateMutability": "view",
      "type": "function"
    },
    {
      "inputs": [
        {
          "internalType": "uint256",
          "name": "auctionId",
          "type": "uint256"
        }
      ],
      "name": "getAuction",
      "outputs": [
        {
          "components": [
            {
              "internalType": "uint256",
              "name": "publicationId",
              "type": "uint256"
            },
            {
              "internalType": "uint256",
              "name": "auctionFloor",
              "type": "uint256"
            },
            {
              "internalType": "uint256",
              "name": "startingTime",
              "type": "uint256"
            },
            {
              "internalType": "uint256",
              "name": "duration",
              "type": "uint256"
            },
            {
              "internalType": "uint256[]",
              "name": "auctionBidIds",
              "type": "uint256[]"
            },
            {
              "internalType": "uint256",
              "name": "winningBidId",
              "type": "uint256"
            },
            {
              "internalType": "enum SharedStructures.AuctionStatus",
              "name": "status",
              "type": "uint8"
            }
          ],
          "internalType": "struct SharedStructures.Auction",
          "name": "",
          "type": "tuple"
        }
      ],
      "stateMutability": "view",
      "type": "function"
    },
    {
      "inputs": [
        {
          "internalType": "uint256",
          "name": "auctionId",
          "type": "uint256"
        }
      ],
      "name": "getAuctionBids",
      "outputs": [
        {
          "internalType": "uint256[]",
          "name": "",
          "type": "uint256[]"
        }
      ],
      "stateMutability": "view",
      "type": "function"
    },
    {
      "inputs": [
        {
          "internalType": "uint256",
          "name": "auctionId",
          "type": "uint256"
        }
      ],
      "name": "getAuctionStatus",
      "outputs": [
        {
          "internalType": "enum SharedStructures.AuctionStatus",
          "name": "",
          "type": "uint8"
        }
      ],
      "stateMutability": "nonpayable",
      "type": "function"
    },
    {
      "inputs": [
        {
          "internalType": "uint256",
          "name": "bidId",
          "type": "uint256"
        }
      ],
      "name": "getBid",
      "outputs": [
        {
          "components": [
            {
              "internalType": "bytes32",
              "name": "commitBid",
              "type": "bytes32"
            },
            {
              "internalType": "uint256",
              "name": "revealedBid",
              "type": "uint256"
            },
            {
              "internalType": "uint256",
              "name": "revealedSalt",
              "type": "uint256"
            },
            {
              "internalType": "enum SharedStructures.BidStatus",
              "name": "status",
              "type": "uint8"
            },
            {
              "internalType": "uint256",
              "name": "publicationId",
              "type": "uint256"
            },
            {
              "internalType": "uint256",
              "name": "auctionId",
              "type": "uint256"
            },
            {
              "internalType": "address",
              "name": "bidderAddress",
              "type": "address"
            }
          ],
          "internalType": "struct SharedStructures.Bid",
          "name": "",
          "type": "tuple"
        }
      ],
      "stateMutability": "view",
      "type": "function"
    },
    {
      "inputs": [
        {
          "internalType": "address",
          "name": "bidderAddress",
          "type": "address"
        }
      ],
      "name": "getBidderBids",
      "outputs": [
        {
          "internalType": "uint256[]",
          "name": "",
          "type": "uint256[]"
        }
      ],
      "stateMutability": "view",
      "type": "function"
    },
    {
      "inputs": [
        {
          "internalType": "uint256",
          "name": "auctionId",
          "type": "uint256"
        }
      ],
      "name": "getNumberOfBidsInAuction",
      "outputs": [
        {
          "internalType": "uint256",
          "name": "",
          "type": "uint256"
        }
      ],
      "stateMutability": "view",
      "type": "function"
    },
    {
      "inputs": [
        {
          "internalType": "address",
          "name": "forwarder",
          "type": "address"
        }
      ],
      "name": "isTrustedForwarder",
      "outputs": [
        {
          "internalType": "bool",
          "name": "",
          "type": "bool"
        }
      ],
      "stateMutability": "view",
      "type": "function"
    }
  ],
  "bytecode": "0x60c034620001ac57601f620014b538819003918201601f19168301916001600160401b03831184841017620001b1578084926040948552833981010312620001ac576200005a60206200005283620001c7565b9201620001c7565b6080526000549060ff8260081c1615918280936200019e575b801562000185575b15620001295760ff1981166001176000558262000116575b5060a052620000da575b6040516112d89081620001dd8239608051818181610c9b015261104a015260a05181818160f90152818161032a0152818161062501526109290152f35b61ff0019600054166000557f7f26b83ff96e1f2b6a682f133852f6798a09c465da95921460cefb3847402498602060405160018152a16200009d565b61ffff1916610101176000553862000093565b60405162461bcd60e51b815260206004820152602e60248201527f496e697469616c697a61626c653a20636f6e747261637420697320616c72656160448201526d191e481a5b9a5d1a585b1a5e995960921b6064820152608490fd5b50303b1580156200007b5750600160ff8216146200007b565b50600160ff82161062000073565b600080fd5b634e487b7160e01b600052604160045260246000fd5b51906001600160a01b0382168203620001ac5756fe608060408181526004908136101561001657600080fd5b600092833560e01c9081633c889e6f14610dee57508063571a26a014610cc2578063572b6c0514610c6f5780635ccc397e14610c19578063625d8e7814610be057806370b4768e14610ba95780637765c52c14610b7b57806377df87aa146108e557806378bd7935146108085780637a88dece146107dd578063878227ed146105c95780638b633cbb14610596578063b8f4e5a5146102fa5763f2af09d4146100be57600080fd5b346102f65760603660031901126102f6576024928335604435946001600160a01b038087168097036102f2576101206100f5611047565b82167f0000000000000000000000000000000000000000000000000000000000000000831614610fc9565b61013261012c84610efd565b506110ea565b61013b84611205565b878110156102e05760010361028e575190855161015781611015565b87358152602081019286845287820190878252606083018881526080840191825260a084019288845260c08501968d88526066546801000000000000000081101561027b578060016101ac9201606655610eac565b969096610269575186555160018601555160028501556003840190516003811015610257579060069493929160ff80198354169116179055518a830155516005820155019151166001600160a01b0319825416179055606654906001821061024657506102409260209661023461022d948794600019019889968792610efd565b500161114d565b8152606787522061114d565b51908152f35b634e487b7160e01b84526011865283fd5b634e487b7160e01b8a5260218c52878afd5b50634e487b7160e01b8b528a8d52888bfd5b50634e487b7160e01b8b5260418d52888bfd5b855162461bcd60e51b81526020818901526027818501527f43616e206f6e6c7920636f6d6d697420647572696e672074686520636f6d6d696044820152667420706861736560c81b6064820152608490fd5b634e487b7160e01b8652602188528386fd5b8380fd5b8280fd5b50346102f65760803660031901126102f657604435916064359361035261031f611047565b6001600160a01b03807f000000000000000000000000000000000000000000000000000000000000000016911614610fc9565b4284106105405784156104ec5782519161036b83611015565b8035835260209586840193602494853581528682019788526060820192835260808201906060825260a083019186835260c08401948786526065549a6801000000000000000093848d10156104da576103cb60019d8e8101606555610efd565b9790976104c957518755518c870155516002860155516003850155858401905180519283116104b7578b90825484845580851061048d575b50019087528a87208a8c89935b8585106104775750505050505090600691516005820155019051828110156104655760ff80198354169116179055606554948510610455575050505190600019018152f35b634e487b7160e01b825260119052fd5b5050634e487b7160e01b825260219052fd5b90818392518555019201920191908c8c91610410565b838a528c85848c2092830192015b8281106104a9575050610403565b8b81558f94508e910161049b565b634e487b7160e01b8852604187528888fd5b634e487b7160e01b8b528a8a528b8bfd5b634e487b7160e01b8a52604189528a8afd5b506020608492519162461bcd60e51b8352820152602860248201527f41756374696f6e4d616e616765723a3a496e76616c69642061756374696f6e20604482015267323ab930ba34b7b760c11b6064820152fd5b506020608492519162461bcd60e51b8352820152602a60248201527f41756374696f6e4d616e616765723a3a496e76616c69642061756374696f6e2060448201526973746172742074696d6560b01b6064820152fd5b5090346102f657816003193601126102f6576105bd906105b761031f611047565b35610efd565b50600260243591015551f35b508290346107d95760203660031901126107d95782358151926060840184811067ffffffffffffffff8211176107c65783528084526020840181815283850192828452610614611047565b9261064d6001600160a01b039485807f000000000000000000000000000000000000000000000000000000000000000016911614610fc9565b61065682611205565b888110156107b35760020361074a57608061067361012c84610efd565b01805151988291825b8b81106106ec575050505060609750806106a7575b5050835194518552511660208401525190820152f35b60036106dc8260029360056106d460066106c089610efd565b50019760ff1998878a825416179055610efd565b500155610eac565b5001918254161790558680610691565b60016107026106fc8385516111f1565b51610eac565b5001548b518111610733575b5060001981146107205760010161067c565b634e487b7160e01b845260118352602484fd5b94506107408183516111f1565b51948b528c61070e565b855162461bcd60e51b81526020818a0152603060248201527f43616e206f6e6c792066696e616c697a6520616e2061756374696f6e20696e2060448201527f7468652072657665616c207374616765000000000000000000000000000000006064820152608490fd5b634e487b7160e01b825260218952602482fd5b634e487b7160e01b825260418652602482fd5b5080fd5b5090346102f65760203660031901126102f657602092506107fe8135610efd565b5001549051908152f35b5091346108e257602091826003193601126107d9578261085c61012c86938560c0865161083481611015565b82815282878201528288820152826060820152606060808201528260a0820152015235610efd565b92825192828452610100840190855184860152838601518186015285015160608501526060850151608085015260808501519260e060a086015283518092528061012086019401925b8281106108ce578580866108ca60c08b60a081015182860152015160e0840190610f38565b0390f35b8351855293810193928101926001016108a5565b80fd5b5090346102f65760a03660031901126102f6576064359060248035918035916001600160a01b0360843581811690819003610b7757610950610925611047565b83167f0000000000000000000000000000000000000000000000000000000000000000841614610fc9565b61096261095c88610eac565b50611189565b9161096e604435611205565b85811015610b6557600203610b135760c08301511603610ac45760608101516003811015610ab257610a705786519160208301908582528689850152888452606084019484861067ffffffffffffffff871117610a5f57505083885282519020905103610a08575050916109f89160039360016109ea84610eac565b50015560026106d483610eac565b5001805460ff1916600117905551f35b906c081c995d99585b195908189a59609a1b60c460849362461bcd60e51b845260206064820152602d858201527f436f6d6d69747465642062696420646f6573206e6f74206d617463682074686560a48201520152fd5b634e487b7160e01b8b526041905289fd5b865162461bcd60e51b8152602081850152601f818401527f43616e206f6e6c792072657665616c206120636f6d6d697474656420626964006044820152606490fd5b634e487b7160e01b8952602184528289fd5b865162461bcd60e51b81526020818501528083018390527f4f6e6c7920746865206269646465722063616e2072657665616c20746865697260448201526308189a5960e21b6064820152608490fd5b885162461bcd60e51b81526020818701526027818601527f43616e206f6e6c7920636f6d6d697420647572696e67207468652072657665616044820152666c20706861736560c81b6064820152608490fd5b634e487b7160e01b8b5260218652848bfd5b8880fd5b5082346108e25760203660031901126108e25750610ba7610b9e60209335611205565b91518092610f38565bf35b5082346108e25760203660031901126108e25750610bd582610bce6108ca9435610efd565b5001611087565b905191829182610f8e565b8382346107d95760203660031901126107d957610bd5816108ca936001600160a01b03610c0b610f5b565b168152606760205220611087565b8382346107d957806003193601126107d957610c33610f5b565b6001600160a01b031682526067602052808220805460243593908410156108e25750602092610c6191610f76565b91905490519160031b1c8152f35b8382346107d95760203660031901126107d957602090610c8d610f5b565b9051906001600160a01b03807f0000000000000000000000000000000000000000000000000000000000000000169116148152f35b5090346102f65760203660031901126102f657356065548110156102f6576007610ba791606560c095520291827f8ff97419363ffd7000167f130ef7168fbea05faf9251824ca5043f113cc6a7c70154927f8ff97419363ffd7000167f130ef7168fbea05faf9251824ca5043f113cc6a7c8810154917f8ff97419363ffd7000167f130ef7168fbea05faf9251824ca5043f113cc6a7c98201547f8ff97419363ffd7000167f130ef7168fbea05faf9251824ca5043f113cc6a7ca8301549160ff7f8ff97419363ffd7000167f130ef7168fbea05faf9251824ca5043f113cc6a7cd7f8ff97419363ffd7000167f130ef7168fbea05faf9251824ca5043f113cc6a7cc8601549501541694815197885260208801528601526060850152608084015260a0830190610f38565b849150346107d95760203660031901126107d95760c081610e0f8493611015565b82815282602082015282858201528260608201528260808201528260a08201520152610e3e61095c8435610eac565b90825192825184526020830151602085015280830151908401526060820151906003821015610e995760e0846001600160a01b0360c0868660608501526080810151608085015260a081015160a085015201511660c0820152f35b634e487b7160e01b815260218552602490fd5b606654811015610ee7576007906066600052027f46501879b8ca8525e8c2fd519e2fbfcfa2ebea26501294aa02cbfcfb12e943540190600090565b634e487b7160e01b600052603260045260246000fd5b606554811015610ee7576007906065600052027f8ff97419363ffd7000167f130ef7168fbea05faf9251824ca5043f113cc6a7c70190600090565b906004821015610f455752565b634e487b7160e01b600052602160045260246000fd5b600435906001600160a01b0382168203610f7157565b600080fd5b8054821015610ee75760005260206000200190600090565b6020908160408183019282815285518094520193019160005b828110610fb5575050505090565b835185529381019392810192600101610fa7565b15610fd057565b60405162461bcd60e51b815260206004820152601e60248201527f43616e206f6e6c792062652063616c6c656420627920726567697374727900006044820152606490fd5b60e0810190811067ffffffffffffffff82111761103157604052565b634e487b7160e01b600052604160045260246000fd5b337f00000000000000000000000000000000000000000000000000000000000000006001600160a01b0316036110835736601319013560601c90565b3390565b906040519180548084526020908185019260005281600020916000905b8282106110d35750505050829003601f01601f1916820167ffffffffffffffff81118382101761103157604052565b8354855293840193600193840193909101906110a4565b906040516110f781611015565b60ff600682948054845260018101546020850152600281015460408501526003810154606085015261112b60048201611087565b6080850152600581015460a0850152015416906004821015610f455760c00152565b8054680100000000000000008110156110315761116f91600182018155610f76565b819291549060031b600019811b9283911b16911916179055565b9060405161119681611015565b809280548252600181015460208301526002810154604083015260ff600382015416906003821015610f455760066001600160a01b039160c093606086015260048101546080860152600581015460a0860152015416910152565b8051821015610ee75760209160051b010190565b61121161012c82610efd565b9060408201519182421060001461123f57506006915061123090610efd565b5001805460ff19169055600090565b606001518019831161128c57600692014210156112715761125f90610efd565b5001600160ff19825416179055600190565b61127a90610efd565b5001600260ff19825416179055600290565b634e487b7160e01b600052601160045260246000fdfea264697066735822122085d480e7b00cbdd373e14d451350f95b8bbc315ac7fff634a3eb79a19ba5266a64736f6c634300080f0033",
  "linkReferences": {},
  "deployedLinkReferences": {}
}