{
  "contractName": "HarbergerTaxManager",
  "abi": [
    {
      "inputs": [
        {
          "internalType": "address",
          "name": "registry",
          "type": "address"
        },
        {
          "internalType": "address",
          "name": "trustedForwarder",
          "type": "address"
        }
      ],
      "stateMutability": "nonpayable",
      "type": "constructor"
    },
    {
      "anonymous": false,
      "inputs": [
        {
          "indexed": false,
          "internalType": "uint8",
          "name": "version",
          "type": "uint8"
        }
      ],
      "name": "Initialized",
      "type": "event"
    },
    {
      "inputs": [
        {
          "internalType": "address",
          "name": "forwarder",
          "type": "address"
        }
      ],
      "name": "isTrustedForwarder",
      "outputs": [
        {
          "internalType": "bool",
          "name": "",
          "type": "bool"
        }
      ],
      "stateMutability": "view",
      "type": "function"
    },
    {
      "inputs": [
        {
          "internalType": "uint256",
          "name": "",
          "type": "uint256"
        },
        {
          "internalType": "uint256",
          "name": "",
          "type": "uint256"
        }
      ],
      "name": "licenceTaxObjects",
      "outputs": [
        {
          "internalType": "uint256",
          "name": "",
          "type": "uint256"
        }
      ],
      "stateMutability": "view",
      "type": "function"
    },
    {
      "inputs": [
        {
          "internalType": "uint256",
          "name": "_licenceId",
          "type": "uint256"
        },
        {
          "internalType": "uint256",
          "name": "_currentAssignedValue",
          "type": "uint256"
        }
      ],
      "name": "createTaxObject",
      "outputs": [
        {
          "internalType": "uint256",
          "name": "",
          "type": "uint256"
        }
      ],
      "stateMutability": "nonpayable",
      "type": "function"
    },
    {
      "inputs": [
        {
          "internalType": "uint256",
          "name": "_taxObjectId",
          "type": "uint256"
        }
      ],
      "name": "calculateOutstandingTax",
      "outputs": [
        {
          "internalType": "uint256",
          "name": "",
          "type": "uint256"
        }
      ],
      "stateMutability": "view",
      "type": "function"
    },
    {
      "inputs": [
        {
          "internalType": "uint256",
          "name": "_taxObjectId",
          "type": "uint256"
        }
      ],
      "name": "calculateMinBuyOutPrice",
      "outputs": [
        {
          "internalType": "uint256",
          "name": "",
          "type": "uint256"
        }
      ],
      "stateMutability": "view",
      "type": "function"
    },
    {
      "inputs": [
        {
          "internalType": "uint256",
          "name": "_taxObjectId",
          "type": "uint256"
        }
      ],
      "name": "_updateTaxObjectLastPayment",
      "outputs": [],
      "stateMutability": "nonpayable",
      "type": "function"
    },
    {
      "inputs": [
        {
          "internalType": "uint256",
          "name": "_taxObjectId",
          "type": "uint256"
        },
        {
          "internalType": "uint256",
          "name": "_assignedValue",
          "type": "uint256"
        }
      ],
      "name": "_updateTaxObjectValuation",
      "outputs": [],
      "stateMutability": "nonpayable",
      "type": "function"
    },
    {
      "inputs": [
        {
          "internalType": "uint256",
          "name": "_taxObjectId",
          "type": "uint256"
        },
        {
          "internalType": "uint256",
          "name": "_offer",
          "type": "uint256"
        },
        {
          "internalType": "address",
          "name": "_buyOutOwnerAddress",
          "type": "address"
        }
      ],
      "name": "submitBuyOut",
      "outputs": [
        {
          "internalType": "uint256",
          "name": "",
          "type": "uint256"
        }
      ],
      "stateMutability": "nonpayable",
      "type": "function"
    },
    {
      "inputs": [
        {
          "internalType": "uint256",
          "name": "_buyOutId",
          "type": "uint256"
        }
      ],
      "name": "finalizeBuyOutOffer",
      "outputs": [
        {
          "internalType": "bool",
          "name": "",
          "type": "bool"
        }
      ],
      "stateMutability": "nonpayable",
      "type": "function"
    },
    {
      "inputs": [
        {
          "internalType": "uint256",
          "name": "_taxObjectId",
          "type": "uint256"
        }
      ],
      "name": "revokeTaxObject",
      "outputs": [],
      "stateMutability": "nonpayable",
      "type": "function"
    },
    {
      "inputs": [
        {
          "internalType": "uint256",
          "name": "_licenceId",
          "type": "uint256"
        }
      ],
      "name": "getLicenceTaxObjectId",
      "outputs": [
        {
          "internalType": "uint256",
          "name": "",
          "type": "uint256"
        }
      ],
      "stateMutability": "view",
      "type": "function"
    },
    {
      "inputs": [
        {
          "internalType": "uint256",
          "name": "_taxObjectId",
          "type": "uint256"
        }
      ],
      "name": "getTaxObject",
      "outputs": [
        {
          "components": [
            {
              "internalType": "uint256",
              "name": "licenceId",
              "type": "uint256"
            },
            {
              "internalType": "uint256",
              "name": "ratePerBlock",
              "type": "uint256"
            },
            {
              "internalType": "uint256",
              "name": "lastPayment",
              "type": "uint256"
            },
            {
              "internalType": "uint256",
              "name": "numberOfOutBids",
              "type": "uint256"
            },
            {
              "internalType": "uint256",
              "name": "currentAssignedValue",
              "type": "uint256"
            },
            {
              "internalType": "uint256[]",
              "name": "buyOuts",
              "type": "uint256[]"
            },
            {
              "internalType": "enum SharedStructures.TaxObjectStatus",
              "name": "status",
              "type": "uint8"
            }
          ],
          "internalType": "struct SharedStructures.TaxObject",
          "name": "",
          "type": "tuple"
        }
      ],
      "stateMutability": "view",
      "type": "function"
    },
    {
      "inputs": [
        {
          "internalType": "uint256",
          "name": "_buyOutId",
          "type": "uint256"
        }
      ],
      "name": "getBuyOutLicenceId",
      "outputs": [
        {
          "internalType": "uint256",
          "name": "",
          "type": "uint256"
        }
      ],
      "stateMutability": "view",
      "type": "function"
    },
    {
      "inputs": [
        {
          "internalType": "uint256",
          "name": "_buyOutId",
          "type": "uint256"
        }
      ],
      "name": "getBuyOutOwnerAddress",
      "outputs": [
        {
          "internalType": "address",
          "name": "",
          "type": "address"
        }
      ],
      "stateMutability": "view",
      "type": "function"
    },
    {
      "inputs": [],
      "name": "getTaxObjectLength",
      "outputs": [
        {
          "internalType": "uint256",
          "name": "",
          "type": "uint256"
        }
      ],
      "stateMutability": "view",
      "type": "function"
    },
    {
      "inputs": [
        {
          "internalType": "uint256",
          "name": "x",
          "type": "uint256"
        }
      ],
      "name": "optimalExp",
      "outputs": [
        {
          "internalType": "uint256",
          "name": "",
          "type": "uint256"
        }
      ],
      "stateMutability": "pure",
      "type": "function"
    },
    {
      "inputs": [
        {
          "internalType": "uint256",
          "name": "r",
          "type": "uint256"
        },
        {
          "internalType": "uint256",
          "name": "t1",
          "type": "uint256"
        },
        {
          "internalType": "uint256",
          "name": "t2",
          "type": "uint256"
        }
      ],
      "name": "capFunction",
      "outputs": [
        {
          "internalType": "uint256",
          "name": "",
          "type": "uint256"
        }
      ],
      "stateMutability": "pure",
      "type": "function"
    },
    {
      "inputs": [
        {
          "internalType": "uint256",
          "name": "N",
          "type": "uint256"
        },
        {
          "internalType": "uint256",
          "name": "r",
          "type": "uint256"
        },
        {
          "internalType": "uint256",
          "name": "t1",
          "type": "uint256"
        },
        {
          "internalType": "uint256",
          "name": "t2",
          "type": "uint256"
        }
      ],
      "name": "futureValue",
      "outputs": [
        {
          "internalType": "uint256",
          "name": "",
          "type": "uint256"
        }
      ],
      "stateMutability": "pure",
      "type": "function"
    }
  ],
  "bytecode": "0x60c034620000f957601f6200188238819003918201601f19168301916001600160401b03831184841017620000fe578084926040948552833981010312620000f9576200005a6020620000528362000114565b920162000114565b608052620000676200018d565b9081620000e4575b60a052620000a8575b6040516116af9081620001d382396080518181816109000152610e6d015260a0518181816103710152610a3d0152f35b61ff0019600054166000557f7f26b83ff96e1f2b6a682f133852f6798a09c465da95921460cefb3847402498602060405160018152a162000078565b61010061ff001960005416176000556200006f565b600080fd5b634e487b7160e01b600052604160045260246000fd5b51906001600160a01b0382168203620000f957565b156200013157565b60405162461bcd60e51b815260206004820152602e60248201527f496e697469616c697a61626c653a20636f6e747261637420697320616c72656160448201526d191e481a5b9a5d1a585b1a5e995960921b6064820152608490fd5b60005460ff8160081c16600014620001b25750620001ad303b1562000129565b600090565b80620001c5600160ff8194161062000129565b60ff19161760005560019056fe6040608081526004908136101561001557600080fd5b600091823560e01c90816321bd7594146109fc57816325c27472146109c957816338b36026146109a957816341107ff71461095e5781634142681314610929578163572b6c05146108d15781635859eec11461089e578163776c02481461057957816388b623c81461054d5781638a226e32146104e157816395050862146104ba578163b4c0bd9d14610412578163d78cd958146103de578163e1363b52146103a8578163e95b259014610341578163eb12cdc31461017e578163f26bb2f21461010a575063fd8446e9146100e957600080fd5b346101065781600319360112610106576020906065549051908152f35b5080fd5b82843461017b57608036600319011261017b5750670de0b6b3a764000061017360209361016b61016667d02ab486cedc000061016061015b610150604435606435610d57565b953595602435610e1b565b610de5565b046110b2565b610dfe565b607f1c610e1b565b049051908152f35b80fd5b82843461017b576020908160031936011261017b578060c084516101a181610db3565b82815282858201528286820152826060820152826080820152606060a082015201526101cd8435610d78565b509280516101da81610db3565b84548152600190818601549585820196875260028101548483019081526003820154606084019081528983015491608085019283526005840193875194858b82549182815201918b528b8b20908c8a8d915b83831061032d575050505050859003601f01601f1916850167ffffffffffffffff81118682101761031a57885260a086019485526006015460c08601979060ff16600281101561030757889a97969a5280519a878c526101008c019a51888d015251908b01525160608a01525160808901525160a0880152519460e060c08801528551809152826101208801960192855b8281106102f4575050505050519060028210156102e1575082935060e08301520390f35b634e487b7160e01b815260218552602490fd5b84518852968101969381019383016102bd565b634e487b7160e01b8a5260218d5260248afd5b634e487b7160e01b8a5260418d5260248afd5b845486529094019392830192018a8e61022c565b82843461017b57602036600319011261017b575061039f602092610399610366610e6a565b6001600160a01b03807f000000000000000000000000000000000000000000000000000000000000000016911614610d0b565b35610f19565b90519015158152f35b9050346103da5760203660031901126103da576103d0906103ca610366610e6a565b35610d78565b5060024291015551f35b8280fd5b9050346103da5760203660031901126103da576104026006916103ca610366610e6a565b5001805460ff1916600117905551f35b9050823461017b57602036600319011261017b5781358082526067602052838220549260018410610467576020856104598682878781526067865220906000190190610cdd565b91905490519160031b1c8152f35b608490602086519162461bcd60e51b8352820152602760248201527f5468657265206973206e6f20746178206f626a65637420666f722074686973206044820152666c6963656e636560c81b6064820152fd5b82843461017b57602036600319011261017b57506104da602092356110b2565b9051908152f35b82843461017b57602036600319011261017b57506104da61015b670de0b6b3a76400006105478561016b61016667d02ab486cedc000061016061052660209b35610d78565b50948501549785610541600260018c99015492015442610d57565b90610e1b565b04610d57565b9050346103da576105739061056136610cc2565b929061056e610366610e6a565b610d78565b50015551f35b8383346101065761058936610cc2565b610594610366610e6a565b801561085057818452602094606786528385205461077e575b83519186830183811067ffffffffffffffff82111761076b57855285835284516105d681610db3565b84815287810164046e07d0f681528682019442865260608301938985526080840190815260a0840191825260c08401948a8652606554976801000000000000000094858a10156107585761063160019a8b8101606555610d78565b97909761074657518755518987015551600286015551600385015551858401556005830190518051928311610733578a908254848455808510610709575b5001908952898920868b8b935b8585106106f357505050505050600601905160028110156106e05760ff801983541691161790556065549182106106cd575090826106c7926000190194859281526067875220610e2e565b51908152f35b634e487b7160e01b855260119052602484fd5b634e487b7160e01b875260218352602487fd5b90818392518555019201920191908b889161067c565b8885848e8781522092830192015b82811061072557505061066f565b8d81558e94508a9101610717565b634e487b7160e01b8a526041865260248afd5b634e487b7160e01b8e528d8a5260248efd5b634e487b7160e01b8d526041895260248dfd5b634e487b7160e01b875260418352602487fd5b83852080546001811061083d576107ad6107a160ff936006936000190190610cdd565b90549060031b1c610d78565b50015416600281101561082a576001146105ad57835162461bcd60e51b8152908101869052602e60248201527f43616e206f6e6c792063726561746520746178206f626a65637420696620707260448201527f6576696f7573207265766f6b65640000000000000000000000000000000000006064820152608490fd5b634e487b7160e01b865260218252602486fd5b634e487b7160e01b875260118352602487fd5b825162461bcd60e51b8152602081870152602260248201527f56616c7565206e6565647320746f206265206c6172676572207468616e207a65604482015261726f60f01b6064820152608490fd5b82843461017b57602036600319011261017b57506108c86108c160209335610ede565b5054610d78565b50549051908152f35b9050346103da5760203660031901126103da57356001600160a01b0391828216809203610925576020935051917f000000000000000000000000000000000000000000000000000000000000000016148152f35b8380fd5b82843461017b57602036600319011261017b57506001600160a01b03600161095360209435610ede565b500154169051908152f35b82843461017b57606036600319011261017b575061099f61016667d02ab486cedc000061016061015b602096610998602435604435610d57565b9035610e1b565b607f1c9051908152f35b82843461017b57602036600319011261017b57506104da60209235610eb6565b505034610106576109d936610cc2565b92908152606760205281812090815484101561017b575060209261045991610cdd565b83915034610106576060366003190112610106578035916024906001600160a01b0382356044358281169081900361092557610a64610a39610e6a565b84167f0000000000000000000000000000000000000000000000000000000000000000851614610d0b565b610a6d87610eb6565b8210610c5a5760ff6006610a8089610d78565b500154166002811015610c4857610be057620d2f00194211610bcd5787519160a0830183811067ffffffffffffffff821117610bbb578952878352602083019182528883019081526060830191620d2f0042018352608084019486865260665468010000000000000000811015610ba957806001610b019201606655610ede565b959095610b985790899594939291518555600185019151166001600160a01b03198254161790555160028301555160038201550190516003811015610b865760ff801983541691161790556066549260018410610b765760206000198501876106c7826005610b6f8b610d78565b5001610e2e565b634e487b7160e01b825260119052fd5b5050634e487b7160e01b815260218352fd5b634e487b7160e01b8852878a528888fd5b634e487b7160e01b885260418a528888fd5b634e487b7160e01b8652604188528686fd5b5050634e487b7160e01b82525060118352fd5b875162461bcd60e51b81526020818801526037818701527f43616e206f6e6c79207375626d69742061206275794f757420746f20616e206160448201527f63746976652061637469766520746178206f626a6563740000000000000000006064820152608490fd5b634e487b7160e01b8552602187528585fd5b875162461bcd60e51b81526020818801526030818701527f56616c75652073656e74206973206c657373207468616e20746865206d696e6960448201527f6d756d206275794f7574207072696365000000000000000000000000000000006064820152608490fd5b6040906003190112610cd8576004359060243590565b600080fd5b8054821015610cf55760005260206000200190600090565b634e487b7160e01b600052603260045260246000fd5b15610d1257565b60405162461bcd60e51b815260206004820152601e60248201527f43616e206f6e6c792062652063616c6c656420627920726567697374727900006044820152606490fd5b818110610d62570390565b634e487b7160e01b600052601160045260246000fd5b606554811015610cf5576007906065600052027f8ff97419363ffd7000167f130ef7168fbea05faf9251824ca5043f113cc6a7c70190600090565b60e0810190811067ffffffffffffffff821117610dcf57604052565b634e487b7160e01b600052604160045260246000fd5b80600019046001607f1b1181151516610d6257607f1b90565b670de0b6b3a7640000908060001904821181151516610d62570290565b8060001904821181151516610d62570290565b805468010000000000000000811015610dcf57610e5091600182018155610cdd565b819291549060031b600019811b9283911b16911916179055565b337f00000000000000000000000000000000000000000000000000000000000000006001600160a01b031603610ea65736601319013560601c90565b3390565b81198111610d62570190565b610ec1600491610d78565b500154806000190460691181151516610d62576069606491020490565b606654811015610cf5576005906066600052027f46501879b8ca8525e8c2fd519e2fbfcfa2ebea26501294aa02cbfcfb12e943540190600090565b610f2290610ede565b5090600491828101805460ff8116600381101561109d57611043576003830154421115610fd957600283015491835491610f5b83610eb6565b8410610fc75750805460ff191660011790558490610f7890610d78565b5001556003610f878254610d78565b50018054936001198511610fb257506001610fa6939401905554610d78565b50600242910155600190565b601190634e487b7160e01b6000525260246000fd5b60ff1916600217905550600093505050565b60405162461bcd60e51b8152602081870152603a60248201527f63616e206f6e6c792066696e616c697a65206275794f7574206966206974206960448201527f732070617374207468652065787069726174696f6e2074696d650000000000006064820152608490fd5b60405162461bcd60e51b8152602081870152602d60248201527f43616e206f6e6c792066696e616c697a65206275794f7574206966206275794f60448201526c75742069732070656e64696e6760981b6064820152608490fd5b602186634e487b7160e01b6000525260246000fd5b6000906f0fffffffffffffffffffffffffffffff8116906110d38280610e1b565b60001992906710e1b3be415a000090607f90811c80151581870484111661163d576110fe8482610e1b565b821c926705a0913f6b1e00008488048111851515166116655761113092869261112a9287029102610eaa565b93610e1b565b811c91670168244fdac780008387048111841515166116515761112a61115a928692860290610eaa565b811c91664807432bc180008387048111841515166116515761112a611183928692860290610eaa565b811c91660c0135dca040008387048111841515166116515761112a6111ac928692860290610eaa565b811c916601b707b1cdc0008387048111841515166116515761112a6111d5928692860290610eaa565b811c916536e0f639b8008387048111841515166116515761112a6111fd928692860290610eaa565b811c91650618fee9f8008387048111841515166116515761112a611225928692860290610eaa565b811c91649c197dcc008387048111841515166116515761112a61124c928692860290610eaa565b811c91640e30dce4008387048111841515166116515761112a611273928692860290610eaa565b811c9164012ebd13008387048111841515166116515761112a61129a928692860290610eaa565b811c916317499f008387048111841515166116515761112a6112c0928692860290610eaa565b811c916301a9d4808387048111841515166116515761112a6112e6928692860290610eaa565b811c91621c63808387048111841515166116515761112a61130b928692860290610eaa565b811c916201c6388387048111841515166116515761112a611330928692860290610eaa565b811c91611ab88387048111841515166116515761112a611354928692860290610eaa565b811c9161017c8387048111841515166116515761112a611378928692860290610eaa565b811c918286046014118315151661163d578361112a61139b926014860290610eaa565b901c9081850460011182151516611629576113c36113c993926721c3677c82b4000092610eaa565b04610eaa565b926f8000000000000000000000000000000019841161161557506001607f1b809301926f1000000000000000000000000000000082166115da575b6f20000000000000000000000000000000821661159f575b6f400000000000000000000000000000008216611565575b811661152c575b70010000000000000000000000000000000081166114f3575b70020000000000000000000000000000000081166114ba575b70040000000000000000000000000000000016611488575090565b816e2bf84208204f5977f9a8cf01fdc3079104811182151516610d62576d03c6ab775dd0b95b4cbee7e65d1191020490565b916f0960aadc109e7a3bf4578099615711d790808304821181151516610d62576e2bf84208204f5977f9a8cf01fdce3d9102049161146d565b916f454aaa8efe072e7f6ddbab84b40a55c5818304811182151516610d62576f0960aadc109e7a3bf4578099615711ea91020491611454565b916fbc5ab1b16779be3575bd8f0520a9f21e818304811182151516610d62576f454aaa8efe072e7f6ddbab84b40a55c99102049161143b565b927001368b2fc6f9609fe7aceb46aa619baed5818404811182151516610d62576fbc5ab1b16779be3575bd8f0520a9f21f91020492611434565b9270018ebef9eac820ae8682b9793ac6d1e778818404811182151516610d62577001368b2fc6f9609fe7aceb46aa619baed49102049261141c565b927001c3d6a24ed82218787d624d3e5eba95f9818404811182151516610d625770018ebef9eac820ae8682b9793ac6d1e77691020492611404565b634e487b7160e01b81526011600452602490fd5b634e487b7160e01b86526011600452602486fd5b634e487b7160e01b87526011600452602487fd5b634e487b7160e01b88526011600452602488fd5b634e487b7160e01b89526011600452602489fdfea2646970667358221220c4948a4c832ff48df0d6edd2bdbf4d508b91b9a8c616e4aea334d8964d13b8a764736f6c634300080f0033",
  "immutableReferences": {
    "141": [
      {
        "length": 32,
        "start": 2304
      },
      {
        "length": 32,
        "start": 3693
      }
    ],
    "4140": [
      {
        "length": 32,
        "start": 881
      },
      {
        "length": 32,
        "start": 2621
      }
    ]
  },
  "source": "// SPDX-License-Identifier: MIT\n\npragma solidity ^0.8.9;\n\nimport \"@openzeppelin/contracts-upgradeable/proxy/utils/Initializable.sol\";\n//import \"@openzeppelin/contracts-upgradeable/utils/CountersUpgradeable.sol\";\nimport \"@openzeppelin/contracts-upgradeable/metatx/ERC2771ContextUpgradeable.sol\";\n//import \"./patches/ERC2771ContextUpgradeable.sol\";\nimport \"./interfaces/IHarbergerTaxManager.sol\";\nimport \"./library/SharedStructures.sol\";\n\ncontract HarbergerTaxManager is Initializable, IHarbergerTaxManager, ERC2771ContextUpgradeable {\n    uint256 private constant FIXED_1 = 0x080000000000000000000000000000000;\n    //percentage increase over previous price that must be paid to buy Out the licence\n    uint256 constant MIN_BUYOUT_PRICE_INCREASE = 5;\n    //a buyOut has an expiratory of 10 days for the owner to raise the price or loose the licence\n    uint256 constant BUYOUT_TIMEOUT = 60 * 60 * 24 * 10;\n    // 4% compounding per block, scaled 1e18\n    uint256 constant FIXED_INTEREST_RATE_PER_BLOCK = 19025875190;\n\n    //using CountersUpgradeable for CountersUpgradeable.Counter;\n\n    address immutable _registry;\n\n    modifier onlyRegistry() {\n        require(_msgSender() == _registry, \"Can only be called by registry\");\n        _;\n    }\n\n    SharedStructures.TaxObject[] taxObjects;\n\n    SharedStructures.BuyOut[] buyOuts;\n\n    mapping(uint256 => uint256[]) public licenceTaxObjects;\n\n    // This contract is upgradeable, but we can use constructor instead of initializer for optimisation benefits for immutables.\n    constructor(address registry, address trustedForwarder) ERC2771ContextUpgradeable(trustedForwarder) initializer {\n        _registry = registry;\n    }\n\n    /** @notice Creates a new Harberger Tax associated with a given licence\n        @param _licenceId The licence with which to associate this tax\n        @param _currentAssignedValue The current Harberger Tax valuation of the licence\n        @return taxObjectId The ID of the newly created tax object\n     */\n    function createTaxObject(\n        uint256 _licenceId,\n        // uint256 _ratePerBlock,\n        uint256 _currentAssignedValue\n    ) public onlyRegistry returns (uint256) {\n        require(_currentAssignedValue > 0, \"Value needs to be larger than zero\");\n\n        //if there were previous tax objects then they must have been revoked\n        if (licenceTaxObjects[_licenceId].length > 0) {\n            require(\n                taxObjects[licenceTaxObjects[_licenceId][licenceTaxObjects[_licenceId].length - 1]].status ==\n                    SharedStructures.TaxObjectStatus.Revoked,\n                \"Can only create tax object if previous revoked\"\n            );\n        }\n\n       // BuyOut[] storage _buyOuts;\n\n        //TaxObject memory taxObject;\n\n        /*taxObject.licenceId = _licenceId;\n        taxObject.ratePerBlock = FIXED_INTEREST_RATE_PER_BLOCK;\n        taxObject.lastPayment = block.timestamp;\n        taxObject.numberOfOutBids = 0;\n        taxObject.currentAssignedValue = _currentAssignedValue;\n        taxObject.status = TaxObjectStatus.Active;        */\n\n        SharedStructures.TaxObject memory taxObject = SharedStructures.TaxObject(\n            _licenceId,\n            FIXED_INTEREST_RATE_PER_BLOCK,\n            block.timestamp,\n            0,\n            _currentAssignedValue,\n            new uint256[](0),//_buyOuts,\n            SharedStructures.TaxObjectStatus.Active\n        );\n\n        taxObjects.push(taxObject);\n\n        uint256 taxObjectId = taxObjects.length - 1;\n\n        //_taxObjectIds.increment();\n        //uint256 taxObjectId = _taxObjectIds.current();\n\n        licenceTaxObjects[_licenceId].push(taxObjectId);\n\n        return taxObjectId;\n    }\n\n    /** @notice Calculates the amount of Harberger tax due on a licence\n        @param _taxObjectId The valuation object on which the tax is to be calculated\n        @return interestOutstanding The tax amount due\n     */\n    function calculateOutstandingTax(uint256 _taxObjectId) public view returns (uint256) {\n        SharedStructures.TaxObject storage taxObject = taxObjects[_taxObjectId]; /*memory*/\n\n        uint256 _futureValue = futureValue(\n            taxObject.currentAssignedValue,\n            taxObject.ratePerBlock,\n            taxObject.lastPayment,\n            block.timestamp\n        );\n\n        uint256 interestOutstanding = _futureValue - taxObject.currentAssignedValue;\n        return interestOutstanding;\n    }\n\n    function calculateMinBuyOutPrice(uint256 _taxObjectId) public view returns (uint256) {\n        return (taxObjects[_taxObjectId].currentAssignedValue * (100 + MIN_BUYOUT_PRICE_INCREASE)) / 100;\n    }\n\n    function _updateTaxObjectLastPayment(uint256 _taxObjectId) public onlyRegistry {\n        taxObjects[_taxObjectId].lastPayment = block.timestamp;\n    }\n\n    /** @notice Updates the valuation associated with the current Harberger Tax\n        @param _taxObjectId ID of the Tax object\n        @param _assignedValue The new value to be used for taxing this licence\n     */\n    function _updateTaxObjectValuation(uint256 _taxObjectId, uint256 _assignedValue) public onlyRegistry {\n        taxObjects[_taxObjectId].currentAssignedValue = _assignedValue;\n    }\n\n    /** @notice Issue a bid to buy out a licence under Harberger Tax rules\n        @param _offer The buyout amount - must be greater the minimum buyout amount based on current valuation\n        @param _buyOutOwnerAddress The ID of the entity making the buyout offer.\n        @dev buyOutId The ID of the newly created buyout offer\n     */\n    function submitBuyOut(uint256 _taxObjectId, uint256 _offer, address _buyOutOwnerAddress)\n        public\n        onlyRegistry\n        returns (uint256)\n    {\n        require(_offer >= calculateMinBuyOutPrice(_taxObjectId), \"Value sent is less than the minimum buyOut price\");\n\n        require(\n            taxObjects[_taxObjectId].status == SharedStructures.TaxObjectStatus.Active,\n            \"Can only submit a buyOut to an active active tax object\"\n        );\n\n        SharedStructures.BuyOut memory buyOut = SharedStructures.BuyOut(\n            _taxObjectId,\n            _buyOutOwnerAddress,\n            _offer,\n            block.timestamp + BUYOUT_TIMEOUT,\n            SharedStructures.BuyOutStatus.Pending\n        );\n\n        //uint256 licenceId = taxObjects[_taxObjectId].licenceId;\n\n        //buyOuts[licenceId].push(buyOut);\n\n        buyOuts.push(buyOut);\n\n        uint256 buyOutId = buyOuts.length - 1;\n\n        //_buyoutIds.increment();\n        //uint256 buyOutId = _buyoutIds.current();\n\n        taxObjects[_taxObjectId].buyOuts.push(buyOutId);\n\n        return buyOutId;\n    }\n\n    /** @notice Called by the Unicoin registry to perform the finalisation steps of a buy out\n        @param _buyOutId The ID of the buyout being finalised\n        @return success Returns true if the buyout was successful\n        @dev Only valid for Pending buyouts, and where the buyout outbidding window has closed.\n     */\n    function finalizeBuyOutOffer(uint256 _buyOutId) public onlyRegistry returns (bool) {\n\n        SharedStructures.BuyOut storage buyOut = buyOuts[_buyOutId];\n\n        require(buyOut.status == SharedStructures.BuyOutStatus.Pending, \"Can only finalize buyOut if buyOut is pending\");\n        require(\n            buyOut.buyOutExpiration < block.timestamp,\n            \"can only finalize buyOut if it is past the expiration time\"\n        );\n\n        if (buyOut.buyOutAmount < calculateMinBuyOutPrice(buyOut.taxObjectId)) {\n            buyOut.status = SharedStructures.BuyOutStatus.OutBid;\n\n            return false; //the buyOut was not enough and so failed\n        }\n\n        buyOut.status = SharedStructures.BuyOutStatus.Successful;\n        taxObjects[buyOut.taxObjectId].currentAssignedValue = buyOut.buyOutAmount;\n        taxObjects[buyOut.taxObjectId].numberOfOutBids += 1;\n        taxObjects[buyOut.taxObjectId].lastPayment = block.timestamp;\n\n        return true;\n    }\n\n    function revokeTaxObject(uint256 _taxObjectId) public onlyRegistry {\n        taxObjects[_taxObjectId].status = SharedStructures.TaxObjectStatus.Revoked;\n    }\n\n    function getLicenceTaxObjectId(uint256 _licenceId) public view returns (uint256) {\n        uint256 numOfTaxObjects = licenceTaxObjects[_licenceId].length;\n        require(numOfTaxObjects >= 1, \"There is no tax object for this licence\");\n        return licenceTaxObjects[_licenceId][numOfTaxObjects - 1];\n    }\n\n    function getTaxObject(uint256 _taxObjectId)\n        public\n        view\n        returns (SharedStructures.TaxObject memory)\n    {\n        /*TaxObject memory taxObject = taxObjects[_taxObjectId];\n\n        return (\n            taxObject.licenceId,\n            taxObject.ratePerBlock,\n            taxObject.lastPayment,\n            taxObject.numberOfOutBids,\n            taxObject.currentAssignedValue,\n            taxObject.buyOutIds,\n            uint8(taxObject.status)\n        );*/\n\n        return taxObjects[_taxObjectId];\n    }\n\n    // taxObject_Id;\n    //     uint256 buyOutOwner_Id;\n    //     uint256 buyOutAmount;\n    //     uint256 buyOutExpiration;\n    //     BuyOutStatus status;\n\n    /*function getBuyOut(uint256 _buyOutId) public view returns (uint256, uint256, uint256, uint256, uint8) {\n        BuyOut memory buyOut = buyOuts[_buyOutId];\n        return (\n            buyOut.taxObjectId,\n            buyOut.buyOutOwnerId,\n            buyOut.buyOutAmount,\n            buyOut.buyOutExpiration,\n            uint8(buyOut.status)\n        );\n    }*/\n\n    function getBuyOutLicenceId(uint256 _buyOutId) public view returns (uint256) {\n        uint256 taxObject_Id = buyOuts[_buyOutId].taxObjectId;\n        return taxObjects[taxObject_Id].licenceId;\n    }\n\n    function getBuyOutOwnerAddress(uint256 _buyOutId) public view returns (address) {\n\n        return buyOuts[_buyOutId].buyOutOwnerAddress;\n\n        //return taxObjects[_taxObjectId].buyOuts[_buyOutId].buyOutOwnerAddress;\n\n        //return buyOuts[_buyOutId].buyOutOwnerId;\n    }\n\n    function getTaxObjectLength() public view returns (uint256) {\n        return taxObjects.length;\n    }\n\n\n    /* \n        @return taxObjectId_ Array of IDs of tax objects associated with each buyout\n        @return buyOutOwnerId_ Array of IDs of issuers of each buyout\n        @return buyOutAmount_ The amount at which each buyout was bid\n        @return buyOutExpiration_ The time at which each buyout became final\n        @return status_ The status of each buyout*/\n\n    /* @notice Provides details of all buyouts that have been made on this licence\n        @param _licenceId The ID of the license being queried\n        @return buyOuts Array of buyout objects associated with this licence\n    */\n    /*function getLicenceBuyOuts(uint256 _licenceId)\n        public\n        view\n        returns (BuyOut[] memory)\n    {\n        uint256 numberOfBuyOuts = licenceTaxObjects[_licenceId].length;\n\n        return buyOuts[_licenceId];\n\n        /*taxObjectId_ = new uint256[](numberOfBuyOuts);\n        buyOutOwnerId_ = new uint256[](numberOfBuyOuts);\n        buyOutAmount_ = new uint256[](numberOfBuyOuts);\n        buyOutExpiration_ = new uint256[](numberOfBuyOuts);\n        status_ = new BuyOutStatus[](numberOfBuyOuts);\n\n        for (uint256 i = 0; i < numberOfBuyOuts; i++) {\n            uint256 buyOutId = licenceTaxObjects[_licenceId][i];\n            taxObjectId_[i] = buyOuts[buyOutId].taxObjectId;\n            buyOutOwnerId_[i] = buyOuts[buyOutId].buyOutOwnerId;\n            buyOutAmount_[i] = buyOuts[buyOutId].buyOutAmount;\n            buyOutExpiration_[i] = buyOuts[buyOutId].buyOutExpiration;\n            status_[i] = buyOuts[buyOutId].status;\n        }\n\n        return (taxObjectId_, buyOutOwnerId_, buyOutAmount_, buyOutExpiration_, status_);\n    }*/\n\n    /**\n      * @dev computes e ^ (x / FIXED_1) * FIXED_1\n      * input range: 0 <= x <= OPT_EXP_MAX_VAL - 1\n      * Detailed description:\n      * - Rewrite the input as a sum of binary exponents and a single residual r, as small as possible\n      * - The exponentiation of each binary exponent is given (pre-calculated)\n      * - The exponentiation of r is calculated via Taylor series for e^x, where x = r\n      * - The exponentiation of the input is calculated by multiplying the intermediate results above\n      * - For example: e^5.521692859 = e^(4 + 1 + 0.5 + 0.021692859) = e^4 * e^1 * e^0.5 * e^0.021692859\n    */\n    function optimalExp(uint256 x) public pure returns (uint256) {\n        uint256 res = 0;\n\n        uint256 y;\n        uint256 z;\n\n        z = y = x % 0x10000000000000000000000000000000; // get the input modulo 2^(-3)\n        z = (z * y) / FIXED_1;\n        res += z * 0x10e1b3be415a0000; // add y^02 * (20! / 02!)\n        z = (z * y) / FIXED_1;\n        res += z * 0x05a0913f6b1e0000; // add y^03 * (20! / 03!)\n        z = (z * y) / FIXED_1;\n        res += z * 0x0168244fdac78000; // add y^04 * (20! / 04!)\n        z = (z * y) / FIXED_1;\n        res += z * 0x004807432bc18000; // add y^05 * (20! / 05!)\n        z = (z * y) / FIXED_1;\n        res += z * 0x000c0135dca04000; // add y^06 * (20! / 06!)\n        z = (z * y) / FIXED_1;\n        res += z * 0x0001b707b1cdc000; // add y^07 * (20! / 07!)\n        z = (z * y) / FIXED_1;\n        res += z * 0x000036e0f639b800; // add y^08 * (20! / 08!)\n        z = (z * y) / FIXED_1;\n        res += z * 0x00000618fee9f800; // add y^09 * (20! / 09!)\n        z = (z * y) / FIXED_1;\n        res += z * 0x0000009c197dcc00; // add y^10 * (20! / 10!)\n        z = (z * y) / FIXED_1;\n        res += z * 0x0000000e30dce400; // add y^11 * (20! / 11!)\n        z = (z * y) / FIXED_1;\n        res += z * 0x000000012ebd1300; // add y^12 * (20! / 12!)\n        z = (z * y) / FIXED_1;\n        res += z * 0x0000000017499f00; // add y^13 * (20! / 13!)\n        z = (z * y) / FIXED_1;\n        res += z * 0x0000000001a9d480; // add y^14 * (20! / 14!)\n        z = (z * y) / FIXED_1;\n        res += z * 0x00000000001c6380; // add y^15 * (20! / 15!)\n        z = (z * y) / FIXED_1;\n        res += z * 0x000000000001c638; // add y^16 * (20! / 16!)\n        z = (z * y) / FIXED_1;\n        res += z * 0x0000000000001ab8; // add y^17 * (20! / 17!)\n        z = (z * y) / FIXED_1;\n        res += z * 0x000000000000017c; // add y^18 * (20! / 18!)\n        z = (z * y) / FIXED_1;\n        res += z * 0x0000000000000014; // add y^19 * (20! / 19!)\n        z = (z * y) / FIXED_1;\n        res += z * 0x0000000000000001; // add y^20 * (20! / 20!)\n        res = res / 0x21c3677c82b40000 + y + FIXED_1; // divide by 20! and then add y^1 / 1! + y^0 / 0!\n\n        if ((x & 0x010000000000000000000000000000000) != 0)\n            res = (res * 0x1c3d6a24ed82218787d624d3e5eba95f9) / 0x18ebef9eac820ae8682b9793ac6d1e776; // multiply by e^2^(-3)\n        if ((x & 0x020000000000000000000000000000000) != 0)\n            res = (res * 0x18ebef9eac820ae8682b9793ac6d1e778) / 0x1368b2fc6f9609fe7aceb46aa619baed4; // multiply by e^2^(-2)\n        if ((x & 0x040000000000000000000000000000000) != 0)\n            res = (res * 0x1368b2fc6f9609fe7aceb46aa619baed5) / 0x0bc5ab1b16779be3575bd8f0520a9f21f; // multiply by e^2^(-1)\n        if ((x & 0x080000000000000000000000000000000) != 0)\n            res = (res * 0x0bc5ab1b16779be3575bd8f0520a9f21e) / 0x0454aaa8efe072e7f6ddbab84b40a55c9; // multiply by e^2^(+0)\n        if ((x & 0x100000000000000000000000000000000) != 0)\n            res = (res * 0x0454aaa8efe072e7f6ddbab84b40a55c5) / 0x00960aadc109e7a3bf4578099615711ea; // multiply by e^2^(+1)\n        if ((x & 0x200000000000000000000000000000000) != 0)\n            res = (res * 0x00960aadc109e7a3bf4578099615711d7) / 0x0002bf84208204f5977f9a8cf01fdce3d; // multiply by e^2^(+2)\n        if ((x & 0x400000000000000000000000000000000) != 0)\n            res = (res * 0x0002bf84208204f5977f9a8cf01fdc307) / 0x0000003c6ab775dd0b95b4cbee7e65d11; // multiply by e^2^(+3)\n\n        return res;\n    }\n\n    function capFunction(uint256 r, uint256 t1, uint256 t2) public pure returns (uint256) {\n        uint256 t = t2 - t1;\n        uint256 x = (r * t * FIXED_1) / (15 * 10**18);\n        uint256 c = (optimalExp(x) * 10**18) / FIXED_1;\n        return c;\n    }\n\n    function futureValue(uint256 N, uint256 r, uint256 t1, uint256 t2) public pure returns (uint256) {\n        return (capFunction(r, t1, t2) * N) / 10**18;\n    }\n}\n",
  "sourcePath": "/home/azureuser/unicoin/unicoin2.0/contracts/HarbergerTaxManager.sol",
  "compiler": {
    "name": "solc",
    "version": "0.8.15+commit.e14f2714.Emscripten.clang"
  },
  "schemaVersion": "3.4.6",
  "updatedAt": "2022-06-18T19:39:01.988Z",
  "devdoc": {
    "kind": "dev",
    "methods": {
      "_updateTaxObjectValuation(uint256,uint256)": {
        "params": {
          "_assignedValue": "The new value to be used for taxing this licence",
          "_taxObjectId": "ID of the Tax object"
        }
      },
      "calculateOutstandingTax(uint256)": {
        "params": {
          "_taxObjectId": "The valuation object on which the tax is to be calculated"
        },
        "returns": {
          "_0": "interestOutstanding The tax amount due"
        }
      },
      "createTaxObject(uint256,uint256)": {
        "params": {
          "_currentAssignedValue": "The current Harberger Tax valuation of the licence",
          "_licenceId": "The licence with which to associate this tax"
        },
        "returns": {
          "_0": "taxObjectId The ID of the newly created tax object"
        }
      },
      "finalizeBuyOutOffer(uint256)": {
        "details": "Only valid for Pending buyouts, and where the buyout outbidding window has closed.",
        "params": {
          "_buyOutId": "The ID of the buyout being finalised"
        },
        "returns": {
          "_0": "success Returns true if the buyout was successful"
        }
      },
      "optimalExp(uint256)": {
        "details": "computes e ^ (x / FIXED_1) * FIXED_1 input range: 0 <= x <= OPT_EXP_MAX_VAL - 1 Detailed description: - Rewrite the input as a sum of binary exponents and a single residual r, as small as possible - The exponentiation of each binary exponent is given (pre-calculated) - The exponentiation of r is calculated via Taylor series for e^x, where x = r - The exponentiation of the input is calculated by multiplying the intermediate results above - For example: e^5.521692859 = e^(4 + 1 + 0.5 + 0.021692859) = e^4 * e^1 * e^0.5 * e^0.021692859"
      },
      "submitBuyOut(uint256,uint256,address)": {
        "details": "buyOutId The ID of the newly created buyout offer",
        "params": {
          "_buyOutOwnerAddress": "The ID of the entity making the buyout offer.",
          "_offer": "The buyout amount - must be greater the minimum buyout amount based on current valuation"
        }
      }
    },
    "version": 1
  },
  "userdoc": {
    "kind": "user",
    "methods": {
      "_updateTaxObjectValuation(uint256,uint256)": {
        "notice": "Updates the valuation associated with the current Harberger Tax"
      },
      "calculateOutstandingTax(uint256)": {
        "notice": "Calculates the amount of Harberger tax due on a licence"
      },
      "createTaxObject(uint256,uint256)": {
        "notice": "Creates a new Harberger Tax associated with a given licence"
      },
      "finalizeBuyOutOffer(uint256)": {
        "notice": "Called by the Unicoin registry to perform the finalisation steps of a buy out"
      },
      "submitBuyOut(uint256,uint256,address)": {
        "notice": "Issue a bid to buy out a licence under Harberger Tax rules"
      }
    },
    "version": 1
  }
}