{
  "_format": "hh-sol-artifact-1",
  "contractName": "UnicoinRegistry",
  "sourceName": "contracts/UnicoinRegistry.sol",
  "abi": [
    {
      "inputs": [
        {
          "internalType": "address",
          "name": "trustedForwarder",
          "type": "address"
        }
      ],
      "stateMutability": "nonpayable",
      "type": "constructor"
    },
    {
      "anonymous": false,
      "inputs": [
        {
          "indexed": false,
          "internalType": "uint8",
          "name": "version",
          "type": "uint8"
        }
      ],
      "name": "Initialized",
      "type": "event"
    },
    {
      "inputs": [],
      "name": "buyLicenceFixedRate",
      "outputs": [],
      "stateMutability": "nonpayable",
      "type": "function"
    },
    {
      "inputs": [
        {
          "internalType": "address",
          "name": "userAddress",
          "type": "address"
        },
        {
          "internalType": "uint256",
          "name": "_amount",
          "type": "uint256"
        }
      ],
      "name": "canAddressPay",
      "outputs": [
        {
          "internalType": "bool",
          "name": "",
          "type": "bool"
        }
      ],
      "stateMutability": "view",
      "type": "function"
    },
    {
      "inputs": [
        {
          "internalType": "uint256",
          "name": "_publicationId",
          "type": "uint256"
        }
      ],
      "name": "claimHarbergerTax",
      "outputs": [
        {
          "internalType": "uint256",
          "name": "",
          "type": "uint256"
        }
      ],
      "stateMutability": "nonpayable",
      "type": "function"
    },
    {
      "inputs": [
        {
          "internalType": "bytes32",
          "name": "_bidHash",
          "type": "bytes32"
        },
        {
          "internalType": "uint256",
          "name": "_publicationId",
          "type": "uint256"
        }
      ],
      "name": "commitSealedBid",
      "outputs": [],
      "stateMutability": "nonpayable",
      "type": "function"
    },
    {
      "inputs": [
        {
          "internalType": "uint256",
          "name": "_licenceId",
          "type": "uint256"
        },
        {
          "internalType": "uint256",
          "name": "_buyOutAmount",
          "type": "uint256"
        }
      ],
      "name": "createHarbergerBuyOut",
      "outputs": [
        {
          "internalType": "uint256",
          "name": "",
          "type": "uint256"
        }
      ],
      "stateMutability": "nonpayable",
      "type": "function"
    },
    {
      "inputs": [
        {
          "internalType": "enum SharedStructures.PricingStrategy",
          "name": "_pricingStrategy",
          "type": "uint8"
        },
        {
          "internalType": "string",
          "name": "_publicationUri",
          "type": "string"
        },
        {
          "internalType": "uint256",
          "name": "_auctionFloor",
          "type": "uint256"
        },
        {
          "internalType": "uint256",
          "name": "_auctionStartTime",
          "type": "uint256"
        },
        {
          "internalType": "uint256",
          "name": "_auctionDuration",
          "type": "uint256"
        },
        {
          "internalType": "uint256",
          "name": "_fixedSellPrice",
          "type": "uint256"
        },
        {
          "internalType": "uint8",
          "name": "_maxNumberOfLicences",
          "type": "uint8"
        },
        {
          "components": [
            {
              "internalType": "address",
              "name": "contributorAddress",
              "type": "address"
            },
            {
              "internalType": "uint16",
              "name": "weighting",
              "type": "uint16"
            },
            {
              "internalType": "uint256",
              "name": "balance",
              "type": "uint256"
            },
            {
              "internalType": "uint256",
              "name": "lifetimeAllocations",
              "type": "uint256"
            }
          ],
          "internalType": "struct SharedStructures.Contribution[]",
          "name": "_contributors",
          "type": "tuple[]"
        },
        {
          "components": [
            {
              "internalType": "uint256",
              "name": "publicationId",
              "type": "uint256"
            },
            {
              "internalType": "uint16",
              "name": "weighting",
              "type": "uint16"
            }
          ],
          "internalType": "struct SharedStructures.Citation[]",
          "name": "_citations",
          "type": "tuple[]"
        }
      ],
      "name": "createPublication",
      "outputs": [],
      "stateMutability": "nonpayable",
      "type": "function"
    },
    {
      "inputs": [
        {
          "internalType": "uint256",
          "name": "_publicationId",
          "type": "uint256"
        },
        {
          "internalType": "uint256",
          "name": "_value",
          "type": "uint256"
        }
      ],
      "name": "donate",
      "outputs": [],
      "stateMutability": "nonpayable",
      "type": "function"
    },
    {
      "inputs": [
        {
          "internalType": "uint256",
          "name": "_auctionId",
          "type": "uint256"
        }
      ],
      "name": "finalizeAuction",
      "outputs": [
        {
          "internalType": "uint256",
          "name": "",
          "type": "uint256"
        }
      ],
      "stateMutability": "nonpayable",
      "type": "function"
    },
    {
      "inputs": [
        {
          "internalType": "uint256",
          "name": "_buyOutId",
          "type": "uint256"
        }
      ],
      "name": "finalizeBuyoutOffer",
      "outputs": [
        {
          "internalType": "bool",
          "name": "",
          "type": "bool"
        }
      ],
      "stateMutability": "nonpayable",
      "type": "function"
    },
    {
      "inputs": [
        {
          "internalType": "uint256",
          "name": "_auctionId",
          "type": "uint256"
        }
      ],
      "name": "getAuction",
      "outputs": [
        {
          "components": [
            {
              "internalType": "uint256",
              "name": "publicationId",
              "type": "uint256"
            },
            {
              "internalType": "uint256",
              "name": "auctionFloor",
              "type": "uint256"
            },
            {
              "internalType": "uint256",
              "name": "startingTime",
              "type": "uint256"
            },
            {
              "internalType": "uint256",
              "name": "duration",
              "type": "uint256"
            },
            {
              "internalType": "uint256[]",
              "name": "auctionBidIds",
              "type": "uint256[]"
            },
            {
              "internalType": "uint256",
              "name": "winningBidId",
              "type": "uint256"
            },
            {
              "internalType": "enum SharedStructures.AuctionStatus",
              "name": "status",
              "type": "uint8"
            }
          ],
          "internalType": "struct SharedStructures.Auction",
          "name": "",
          "type": "tuple"
        }
      ],
      "stateMutability": "view",
      "type": "function"
    },
    {
      "inputs": [
        {
          "internalType": "uint256",
          "name": "_auctionId",
          "type": "uint256"
        }
      ],
      "name": "getAuctionStatus",
      "outputs": [
        {
          "internalType": "uint256",
          "name": "",
          "type": "uint256"
        }
      ],
      "stateMutability": "nonpayable",
      "type": "function"
    },
    {
      "inputs": [
        {
          "internalType": "uint256",
          "name": "_bidId",
          "type": "uint256"
        }
      ],
      "name": "getBid",
      "outputs": [
        {
          "components": [
            {
              "internalType": "bytes32",
              "name": "commitBid",
              "type": "bytes32"
            },
            {
              "internalType": "uint256",
              "name": "revealedBid",
              "type": "uint256"
            },
            {
              "internalType": "uint256",
              "name": "revealedSalt",
              "type": "uint256"
            },
            {
              "internalType": "enum SharedStructures.BidStatus",
              "name": "status",
              "type": "uint8"
            },
            {
              "internalType": "uint256",
              "name": "publicationId",
              "type": "uint256"
            },
            {
              "internalType": "uint256",
              "name": "auctionId",
              "type": "uint256"
            },
            {
              "internalType": "address",
              "name": "bidderAddress",
              "type": "address"
            }
          ],
          "internalType": "struct SharedStructures.Bid",
          "name": "",
          "type": "tuple"
        }
      ],
      "stateMutability": "view",
      "type": "function"
    },
    {
      "inputs": [
        {
          "internalType": "address",
          "name": "bidderAddress",
          "type": "address"
        }
      ],
      "name": "getBidderBids",
      "outputs": [
        {
          "internalType": "uint256[]",
          "name": "",
          "type": "uint256[]"
        }
      ],
      "stateMutability": "view",
      "type": "function"
    },
    {
      "inputs": [
        {
          "internalType": "address",
          "name": "_address",
          "type": "address"
        }
      ],
      "name": "getBids",
      "outputs": [
        {
          "internalType": "uint256[]",
          "name": "",
          "type": "uint256[]"
        }
      ],
      "stateMutability": "view",
      "type": "function"
    },
    {
      "inputs": [],
      "name": "getBlockTime",
      "outputs": [
        {
          "internalType": "uint256",
          "name": "",
          "type": "uint256"
        }
      ],
      "stateMutability": "view",
      "type": "function"
    },
    {
      "inputs": [
        {
          "internalType": "uint256",
          "name": "_licenceId",
          "type": "uint256"
        }
      ],
      "name": "getLicence",
      "outputs": [
        {
          "components": [
            {
              "internalType": "address",
              "name": "ownerAddress",
              "type": "address"
            },
            {
              "internalType": "uint256",
              "name": "publicationId",
              "type": "uint256"
            },
            {
              "internalType": "uint256",
              "name": "publicationLicenceNo",
              "type": "uint256"
            },
            {
              "internalType": "enum SharedStructures.LicenceStatus",
              "name": "status",
              "type": "uint8"
            }
          ],
          "internalType": "struct SharedStructures.Licence",
          "name": "",
          "type": "tuple"
        }
      ],
      "stateMutability": "view",
      "type": "function"
    },
    {
      "inputs": [
        {
          "internalType": "address",
          "name": "_address",
          "type": "address"
        }
      ],
      "name": "getLicenceForAddress",
      "outputs": [
        {
          "internalType": "uint256[]",
          "name": "",
          "type": "uint256[]"
        }
      ],
      "stateMutability": "view",
      "type": "function"
    },
    {
      "inputs": [
        {
          "internalType": "uint256",
          "name": "_licenceId",
          "type": "uint256"
        }
      ],
      "name": "getLicenceTaxObjectId",
      "outputs": [
        {
          "internalType": "uint256",
          "name": "",
          "type": "uint256"
        }
      ],
      "stateMutability": "view",
      "type": "function"
    },
    {
      "inputs": [
        {
          "internalType": "uint256",
          "name": "_publicationId",
          "type": "uint256"
        }
      ],
      "name": "getMinBuyOutAmount",
      "outputs": [
        {
          "internalType": "uint256",
          "name": "",
          "type": "uint256"
        }
      ],
      "stateMutability": "view",
      "type": "function"
    },
    {
      "inputs": [
        {
          "internalType": "uint256",
          "name": "_taxObjectId",
          "type": "uint256"
        }
      ],
      "name": "getMinBuyOutPrice",
      "outputs": [
        {
          "internalType": "uint256",
          "name": "",
          "type": "uint256"
        }
      ],
      "stateMutability": "view",
      "type": "function"
    },
    {
      "inputs": [
        {
          "internalType": "uint256",
          "name": "_publicationId",
          "type": "uint256"
        }
      ],
      "name": "getMostRecentPublicationLicence",
      "outputs": [
        {
          "internalType": "uint256",
          "name": "",
          "type": "uint256"
        }
      ],
      "stateMutability": "view",
      "type": "function"
    },
    {
      "inputs": [
        {
          "internalType": "uint256",
          "name": "_taxObjectId",
          "type": "uint256"
        }
      ],
      "name": "getOutstandingTax",
      "outputs": [
        {
          "internalType": "uint256",
          "name": "",
          "type": "uint256"
        }
      ],
      "stateMutability": "view",
      "type": "function"
    },
    {
      "inputs": [
        {
          "internalType": "uint256",
          "name": "_publicationId",
          "type": "uint256"
        }
      ],
      "name": "getPublication",
      "outputs": [
        {
          "components": [
            {
              "internalType": "enum SharedStructures.PricingStrategy",
              "name": "pricingStrategy",
              "type": "uint8"
            },
            {
              "internalType": "string",
              "name": "publicationUri",
              "type": "string"
            },
            {
              "internalType": "enum SharedStructures.PublicationStatus",
              "name": "publicationStatus",
              "type": "uint8"
            },
            {
              "internalType": "address",
              "name": "ownerAddress",
              "type": "address"
            },
            {
              "internalType": "uint256",
              "name": "sellPrice",
              "type": "uint256"
            },
            {
              "internalType": "uint8",
              "name": "maxNumberOfLicences",
              "type": "uint8"
            },
            {
              "internalType": "uint256",
              "name": "licencesIssued",
              "type": "uint256"
            },
            {
              "internalType": "uint256",
              "name": "previousVersion",
              "type": "uint256"
            },
            {
              "internalType": "uint256[]",
              "name": "auctionIds",
              "type": "uint256[]"
            },
            {
              "internalType": "uint256",
              "name": "contributionsId",
              "type": "uint256"
            },
            {
              "internalType": "uint256[]",
              "name": "donations",
              "type": "uint256[]"
            },
            {
              "internalType": "uint256",
              "name": "citationsId",
              "type": "uint256"
            },
            {
              "internalType": "uint256",
              "name": "lifetimeEarnings",
              "type": "uint256"
            }
          ],
          "internalType": "struct SharedStructures.Publication",
          "name": "",
          "type": "tuple"
        }
      ],
      "stateMutability": "view",
      "type": "function"
    },
    {
      "inputs": [
        {
          "internalType": "uint256",
          "name": "_publicationId",
          "type": "uint256"
        }
      ],
      "name": "getPublicationAuctionBidLength",
      "outputs": [
        {
          "internalType": "uint256",
          "name": "",
          "type": "uint256"
        }
      ],
      "stateMutability": "view",
      "type": "function"
    },
    {
      "inputs": [
        {
          "internalType": "uint256",
          "name": "_publicationId",
          "type": "uint256"
        }
      ],
      "name": "getPublicationAuctions",
      "outputs": [
        {
          "internalType": "uint256[]",
          "name": "",
          "type": "uint256[]"
        }
      ],
      "stateMutability": "view",
      "type": "function"
    },
    {
      "inputs": [
        {
          "internalType": "uint256",
          "name": "_publicationId",
          "type": "uint256"
        }
      ],
      "name": "getPublicationBids",
      "outputs": [
        {
          "internalType": "uint256[]",
          "name": "",
          "type": "uint256[]"
        }
      ],
      "stateMutability": "view",
      "type": "function"
    },
    {
      "inputs": [],
      "name": "getPublicationLength",
      "outputs": [
        {
          "internalType": "uint256",
          "name": "",
          "type": "uint256"
        }
      ],
      "stateMutability": "view",
      "type": "function"
    },
    {
      "inputs": [
        {
          "internalType": "uint256",
          "name": "_publicationId",
          "type": "uint256"
        }
      ],
      "name": "getPublicationLicences",
      "outputs": [
        {
          "internalType": "uint256[]",
          "name": "",
          "type": "uint256[]"
        }
      ],
      "stateMutability": "view",
      "type": "function"
    },
    {
      "inputs": [
        {
          "internalType": "address",
          "name": "_address",
          "type": "address"
        }
      ],
      "name": "getPublicationsAuthorAddress",
      "outputs": [
        {
          "internalType": "uint256[]",
          "name": "",
          "type": "uint256[]"
        }
      ],
      "stateMutability": "view",
      "type": "function"
    },
    {
      "inputs": [
        {
          "internalType": "uint256",
          "name": "_taxObjectId",
          "type": "uint256"
        }
      ],
      "name": "getTaxObject",
      "outputs": [
        {
          "components": [
            {
              "internalType": "uint256",
              "name": "licenceId",
              "type": "uint256"
            },
            {
              "internalType": "uint256",
              "name": "ratePerBlock",
              "type": "uint256"
            },
            {
              "internalType": "uint256",
              "name": "lastPayment",
              "type": "uint256"
            },
            {
              "internalType": "uint256",
              "name": "numberOfOutBids",
              "type": "uint256"
            },
            {
              "internalType": "uint256",
              "name": "currentAssignedValue",
              "type": "uint256"
            },
            {
              "internalType": "uint256[]",
              "name": "buyOuts",
              "type": "uint256[]"
            },
            {
              "internalType": "enum SharedStructures.TaxObjectStatus",
              "name": "status",
              "type": "uint8"
            }
          ],
          "internalType": "struct SharedStructures.TaxObject",
          "name": "",
          "type": "tuple"
        }
      ],
      "stateMutability": "view",
      "type": "function"
    },
    {
      "inputs": [],
      "name": "getTaxObjectLength",
      "outputs": [
        {
          "internalType": "uint256",
          "name": "",
          "type": "uint256"
        }
      ],
      "stateMutability": "view",
      "type": "function"
    },
    {
      "inputs": [
        {
          "internalType": "address",
          "name": "_auctionManager",
          "type": "address"
        },
        {
          "internalType": "address",
          "name": "_licenceManager",
          "type": "address"
        },
        {
          "internalType": "address",
          "name": "_publicationManager",
          "type": "address"
        },
        {
          "internalType": "address",
          "name": "_userManager",
          "type": "address"
        },
        {
          "internalType": "address",
          "name": "_harbergerTaxManager",
          "type": "address"
        },
        {
          "internalType": "address",
          "name": "_vault",
          "type": "address"
        }
      ],
      "name": "initialize",
      "outputs": [],
      "stateMutability": "nonpayable",
      "type": "function"
    },
    {
      "inputs": [],
      "name": "isCallerRegistered",
      "outputs": [
        {
          "internalType": "bool",
          "name": "",
          "type": "bool"
        }
      ],
      "stateMutability": "view",
      "type": "function"
    },
    {
      "inputs": [
        {
          "internalType": "address",
          "name": "forwarder",
          "type": "address"
        }
      ],
      "name": "isTrustedForwarder",
      "outputs": [
        {
          "internalType": "bool",
          "name": "",
          "type": "bool"
        }
      ],
      "stateMutability": "view",
      "type": "function"
    },
    {
      "inputs": [
        {
          "internalType": "uint256",
          "name": "tokenId",
          "type": "uint256"
        }
      ],
      "name": "ownerOf",
      "outputs": [
        {
          "internalType": "address",
          "name": "",
          "type": "address"
        }
      ],
      "stateMutability": "view",
      "type": "function"
    },
    {
      "inputs": [
        {
          "internalType": "string",
          "name": "_profileUri",
          "type": "string"
        }
      ],
      "name": "registerUser",
      "outputs": [
        {
          "internalType": "uint256",
          "name": "",
          "type": "uint256"
        }
      ],
      "stateMutability": "nonpayable",
      "type": "function"
    },
    {
      "inputs": [
        {
          "internalType": "uint256",
          "name": "_bid",
          "type": "uint256"
        },
        {
          "internalType": "uint256",
          "name": "_salt",
          "type": "uint256"
        },
        {
          "internalType": "uint256",
          "name": "_publicationId",
          "type": "uint256"
        },
        {
          "internalType": "uint256",
          "name": "_bidId",
          "type": "uint256"
        }
      ],
      "name": "revealSealedBid",
      "outputs": [
        {
          "internalType": "uint256",
          "name": "",
          "type": "uint256"
        }
      ],
      "stateMutability": "nonpayable",
      "type": "function"
    },
    {
      "inputs": [
        {
          "internalType": "address",
          "name": "_owner",
          "type": "address"
        }
      ],
      "name": "setOwner",
      "outputs": [],
      "stateMutability": "nonpayable",
      "type": "function"
    },
    {
      "inputs": [
        {
          "internalType": "uint256",
          "name": "_publicationId",
          "type": "uint256"
        },
        {
          "internalType": "uint256",
          "name": "_newStartTime",
          "type": "uint256"
        }
      ],
      "name": "updateAuctionStartTime",
      "outputs": [],
      "stateMutability": "nonpayable",
      "type": "function"
    },
    {
      "inputs": [
        {
          "internalType": "uint256",
          "name": "_licenceId",
          "type": "uint256"
        },
        {
          "internalType": "uint256",
          "name": "_newValuation",
          "type": "uint256"
        }
      ],
      "name": "updateLicenceHarbergerValuation",
      "outputs": [
        {
          "internalType": "uint256",
          "name": "",
          "type": "uint256"
        }
      ],
      "stateMutability": "nonpayable",
      "type": "function"
    }
  ],
  "bytecode": "0x60a034620000df57601f6200354c38819003918201601f19168301916001600160401b03831184841017620000e457808492602094604052833981010312620000df57516001600160a01b0381168103620000df57608052620000616200015e565b80620000ca575b6200008e575b6040516133a89081620001a482396080518181816115eb015261257b0152f35b61ff0019600054166000557f7f26b83ff96e1f2b6a682f133852f6798a09c465da95921460cefb3847402498602060405160018152a16200006e565b61010061ff0019600054161760005562000068565b600080fd5b634e487b7160e01b600052604160045260246000fd5b156200010257565b60405162461bcd60e51b815260206004820152602e60248201527f496e697469616c697a61626c653a20636f6e747261637420697320616c72656160448201526d191e481a5b9a5d1a585b1a5e995960921b6064820152608490fd5b60005460ff8160081c166000146200018357506200017e303b15620000fa565b600090565b8062000196600160ff81941610620000fa565b60ff19161760005560019056fe6080806040526004361015610014575b600080fd5b600090813560e01c90816303b43c771461216e5750806304686b4a146121585780630cdd53f61461201a57806313af403514611f77578063207f293714611f1c5780632207fc6a14611e1f57806328260cf914611dcc5780632cedebee14611cb65780633c889e6f14611b545780633e76460414611a9257806346ac9a3614611a735780634beb8224146116c85780634cd541841461167557806351a3534914611612578063572b6c05146115c05780635bc2ff781461159b578063625d8e7814610f16578063628389131461157e5780636352211e146114ec578063704f1b94146114205780637765c52c1461137b57806378bd7935146111db5780637a3e00cd1461113f5780637ece03bb146110f357806387ceff09146110d85780639ae001ff14610f205780639dccae8214610f16578063a564e83c14610bc2578063a8020ee714610b5e578063b352c82d14610b0b578063b4c0bd9d14610ab8578063b7b668af14610898578063cc2a9a5b1461077b578063d74298df146106a1578063e80838631461067a578063eb12cdc3146104e1578063ec297be6146103e4578063fbd9d2eb14610356578063fd8446e9146102d75763ff42e879146101da57600080fd5b346102d457602090816003193601126102d45760246001600160a01b0383816067541660405193848092633630b3e360e11b825260043560048301525afa9182156102c9579084918493610298575b506065541691602460405180948193633d446f6760e11b835260048301525afa91821561028c579161025f575b50604051908152f35b90508181813d8311610285575b610276818361249f565b8101031261000f575138610256565b503d61026c565b604051903d90823e3d90fd5b8281939294503d83116102c2575b6102b0818361249f565b8101031261000f578390519138610229565b503d6102a6565b6040513d85823e3d90fd5b80fd5b50346102d457806003193601126102d45760049060206001600160a01b03606954166040519384809263fd8446e960e01b82525afa90811561028c5790610324575b602090604051908152f35b506020813d821161034e575b8161033d6020938361249f565b8101031261000f5760209051610319565b3d9150610330565b50346102d45760203660031901126102d4576024816001600160a01b03606654166040519283809263fbd9d2eb60e01b825260043560048301525afa9081156103d957826103b293926103b6575b50506040519182918261233b565b0390f35b6103d292503d8091833e6103ca818361249f565b8101906132eb565b38806103a4565b6040513d84823e3d90fd5b50346102d45760403660031901126102d4576001600160a01b038060675416906040518092633630b3e360e11b8252602435600483015281602460209586935afa80156104d657839185916104a7575b50606461043f612578565b918685606554166040519687958694633cabc27560e21b8652600435600487015260248601521660448401525af180156102c95761047e575b82604051f35b813d83116104a0575b610491818361249f565b8101031261000f573880610478565b503d610487565b82819392503d83116104cf575b6104be818361249f565b8101031261000f5782905138610434565b503d6104b4565b6040513d86823e3d90fd5b50346102d457602080600319360112610676576040519161050183612466565b80835280828401528060408401528060c060609482868201528260808201528560a082015201526024816001600160a01b03606954166040519283809263eb12cdc360e01b825260043560048301525afa91821561028c5780926105c4575b505060405192828493845282518185015282015160408401526040820151818401528101516080830152608081015160a083015260c06105af60a083015160e0838601526101008501906124dd565b9101516105bb81612376565b60e08301520390f35b9091503d8082843e6105d6818461249f565b8201838382031261067657825167ffffffffffffffff9384821161066e57019060e082820312610672576040519361060d85612466565b8251855285830151868601526040830151604086015286830151878601526080830151608086015260a083015190811161066e5782916106509160c0940161328d565b60a085015201519060028210156102d4575060c08201523880610560565b8380fd5b8280fd5b5080fd5b50346102d45760203660031901126102d4576020610699600435612887565b604051908152f35b50346102d4576106b03661230f565b60695460405163b4c0bd9d60e01b81526004810193909352602093926001600160a01b03929183168582602481845afa91821561077057869392918691829361073c575b509060649291610702612578565b96604051978896879563086f5d6560e21b8752600487015260248601521660448401525af191821561028c579161025f5750604051908152f35b925093905081813d8311610769575b610755818361249f565b8101031261000f57518592859060646106f4565b503d61074b565b6040513d87823e3d90fd5b50346102d45760c03660031901126102d457610795612325565b6024356001600160a01b039182821680920361000f5760443583811680910361000f5760643584811680910361000f576084359185831680930361000f5760a4359486861680960361000f576107e961262a565b9687610886575b806107f9612578565b16956001600160a01b03199687606b541617606b5516856065541617606555846066541617606655836067541617606755826068541617606855816069541617606955606a541617606a5561084d57604051f35b61ff001981541681557f7f26b83ff96e1f2b6a682f133852f6798a09c465da95921460cefb3847402498602060405160018152a1604051f35b885461ff0019166101001789556107f0565b50346102d457602090816003193601126102d4576004356001600160a01b039082848360695416602460405180948193630e95b25960e41b83528760048401525af19081156104d6578491610a8b575b506108f8575b5050604051908152f35b606954604051635859eec160e01b815260048101839052908316918582602481865afa918215610770579086918693610a5a575b50602460405180958193634142681360e01b835260048301525afa9182156104d6578492610a23575b508260665416604051926327eaf52960e21b84528260048501528684602481855afa938415610a185786946109e1575b50813b156109dd5791856064928682969560405198899788966301a6350560e51b885260048801521660248601521660448401525af180156103d957908291156108ee576109d290612420565b6102d45780386108ee565b8580fd5b9093508681813d8311610a11575b6109f9818361249f565b810103126109dd57610a0a90612679565b9238610985565b503d6109ef565b6040513d88823e3d90fd5b9091508481813d8311610a53575b610a3b818361249f565b8101031261066e57610a4c90612679565b9038610955565b503d610a31565b8281939294503d8311610a84575b610a72818361249f565b8101031261000f57859051913861092c565b503d610a68565b610aab9150853d8711610ab1575b610aa3818361249f565b81019061278b565b386108e8565b503d610a99565b50346102d457602090816003193601126102d4576024826001600160a01b03606954166040519283809263b4c0bd9d60e01b825260043560048301525afa91821561028c579161025f5750604051908152f35b50346102d457602090816003193601126102d4576024826001600160a01b036069541660405192838092634511371960e11b825260043560048301525afa91821561028c579161025f5750604051908152f35b50346102d45760203660031901126102d457610b78612325565b816001600160a01b03602481606654169360405194859384926334767e5760e21b84521660048301525afa9081156103d957826103b293926103b65750506040519182918261233b565b50346102d45760203660031901126102d45780610180604051610be481612482565b828152606060208201528260408201528260608201528260808201528260a08201528260c08201528260e082015260606101008201528261012082015260606101408201528261016082015201526024816001600160a01b0360675416604051928380926329593a0f60e21b825260043560048301525afa9081156103d9578291610d66575b506040519060208252610c81602083018251612511565b6020810151610c9e6101a0918260408601526101c0850190612553565b936040830151906006821015610d525750610d3d84956101809260608701526001600160a01b036060860151166080870152608085015160a087015260ff60a08601511660c087015260c085015160e087015260e0850151610100870152610d1a61010086015191601f199283898303016101208a01526124dd565b9061012086015161014088015261014086015190878303016101608801526124dd565b92610160810151828601520151908301520390f35b634e487b7160e01b81526021600452602490fd5b90503d8083833e610d77818361249f565b602082828101031261067257815167ffffffffffffffff811161066e576101a0818401838501031261066e5760405192610db084612482565b8181015160058110156109dd5784526020828201015167ffffffffffffffff81116109dd57838201601f82858501010112156109dd5780838301015190610df6826124c1565b91610e04604051938461249f565b8083528584016020828488880101010111610f1257610e2d91602080850191878701010161251e565b60208501526040828201015160068110156109dd576040850152610e55606083830101612679565b6060850152608082820101516080850152610e7460a083830101612879565b60a085015280820160c0818101519086015260e08082015190860152610100015167ffffffffffffffff81116109dd57610eb590848301908484010161328d565b610100850152808201610120818101519086015261014001519267ffffffffffffffff84116109dd5761018093610ef2918301908484010161328d565b610140850152016101608181015190840152015161018082015238610c6a565b8780fd5b505061000f612396565b50346102d457610f2f3661230f565b610f3a929192612578565b6001600160a01b03806067541660405192631baaa12b60e31b84528660048501526020938481602481865afa80156110cd5784908890611093575b8192501691160361103957828596602460405180948193633630b3e360e11b835260048301525afa928315610770578593611006575b50506065541691823b156110015760448492836040519586948593639ae001ff60e01b8552600485015260248401525af180156103d957610fed575b50604051f35b610ff690612420565b6102d4578038610fe7565b505050fd5b819550809293503d8311611032575b61101f818361249f565b8101031261000f57839251903880610fab565b503d611015565b60405162461bcd60e51b815260048101849052602c60248201527f4f6e6c7920746865207075626c69736865722063616e206d6f6469667920746860448201526b652073746172742074696d6560a01b6064820152608490fd5b50508481813d83116110c6575b6110aa818361249f565b810103126110c257836110bd8192612679565b610f75565b8680fd5b503d6110a0565b6040513d89823e3d90fd5b50346102d457806003193601126102d4576020604051428152f35b50346102d457806003193601126102d45760049060206001600160a01b036067541660405193848092637ece03bb60e01b82525afa90811561028c579061032457602090604051908152f35b50346102d45760403660031901126102d45761119f602061115e612325565b6001600160a01b03606a54166040518080958194637a3e00cd60e01b83526024359060048401602090939291936001600160a01b0360408201951681520152565b03915afa9081156103d957602092916111be575b506040519015158152f35b6111d59150823d8111610ab157610aa3818361249f565b386111b3565b50346102d4576020806003193601126106765760246040516111fc81612466565b83815283838201528360408201528360c060609282848201528360808201528260a08201520152836001600160a01b0360655416604051938480926378bd793560e01b825260043560048301525afa9182156104d65784926112d1575b50604051928084528251818501528201516040840152604082015181840152810151608083015260c061129c608083015160e060a08601526101008501906124dd565b9160a081015182850152015160048110156112bd5782935060e08301520390f35b634e487b7160e01b84526021600452602484fd5b9091503d8085833e6112e3818361249f565b8101838282031261137757815167ffffffffffffffff928382116110c2570160e0818303126109dd576040519261131984612466565b81518452858201518685015260408201516040850152848201518585015260808201519081116110c25760c09261135191830161328d565b608084015260a081015160a0840152015160048110156113775760c08201529038611259565b8480fd5b50346102d457602090816003193601126102d45780826001600160a01b0360655416602460405180958193631dd9714b60e21b835260043560048401525af19182156114135781926113db575b506004821015610d525750604051908152f35b9091508281813d831161140c575b6113f3818361249f565b81010312610676575160048110156106765790386113c8565b503d6113e9565b50604051903d90823e3d90fd5b50346102d457602090816003193601126102d45760043567ffffffffffffffff8111610676573660238201121561067657806004013561145f816124c1565b9161146d604051938461249f565b818352366024838301011161066e5781849260248793018386013783010152826001600160a01b0380606854166114cc856114a6612578565b9560405196879586948593636ec3877f60e01b8552604060048601526044850190612553565b9116602483015203925af191821561028c579161025f5750604051908152f35b50346102d457602090816003193601126102d4576001600160a01b036024838260665416604051928380926331a9108f60e11b825260043560048301525afa92831561028c578093611544575b505060405191168152f35b909192508382813d8311611577575b61155d818361249f565b810103126102d4575061156f90612679565b903880611539565b503d611553565b50346102d45760203660031901126102d457602090604051908152f35b50346102d457806003193601126102d45760206115b6613314565b6040519015158152f35b50346102d45760203660031901126102d45760206115dc612325565b604051906001600160a01b03807f0000000000000000000000000000000000000000000000000000000000000000169116148152f35b50346102d45760203660031901126102d45761162c612325565b816001600160a01b036024816067541693604051948593849262e07ba960e21b84521660048301525afa9081156103d957826103b293926103b65750506040519182918261233b565b50346102d457602090816003193601126102d4576024826001600160a01b036066541660405192838092631335506160e21b825260043560048301525afa91821561028c579161025f5750604051908152f35b50346102d4576101203660031901126102d457600560043510156102d45767ffffffffffffffff9081602435116102d4573660236024350112156102d45760243560040135828111610676573660248281350101116106765760c4359060ff821682036106725760e4359184831161066e573660238401121561066e57826004013590858211611377573660248360071b860101116113775761010435958087116109dd57366023880112156109dd5786600401359081116109dd573660248260061b890101116109dd5761179b613314565b15611a08576001600160a01b03926024610124856067541694836117bd612578565b60ff8a8d6101046040519d8e63261c62eb60e11b81526117e260048201600435612511565b60e08b8201528160e4820152818b80350184830137010152601f80199101168b01938a6101048601931660448d015260a43560648d01521660848b01526101008a84030160a48b01525201960190875b8181106119bb575050508385036003190160c485015280855260209485019660240190865b81811061199057505050828491818781819a03925af19182156104d657849261195e575b5060016004350361188d575b83604051f35b8383826065541660846040518094819363b8f4e5a560e01b835288600484015260443560248401526064356044840152833560648401525af193841561077057859461192b575b50506067541691823b156110015760448492836040519586948593637c14866f60e11b8552600485015260248401525af180156103d957611917575b8080611887565b61192090612420565b6102d4578038611910565b819550809294503d8311611957575b611944818361249f565b8101031261000f578392519138806118d4565b503d61193a565b935090508183813d8111611989575b611977818361249f565b8101031261000f57839251903861187b565b503d61196d565b90919760408060019261ffff6119ab8b8e803585520161266a565b16818b0152019901929101611857565b90919687359086821680920361000f576001918152602061ffff6119e0828c0161266a565b1690820152604089810135908201526060808a01359082015260809081019801929101611832565b60405162461bcd60e51b815260206004820152603460248201527f43616e2774206372656174652061207075626c69636174696f6e20696620796f60448201527f7520617265206e6f7420726567697374657265640000000000000000000000006064820152608490fd5b50346102d45760203660031901126102d4576020610699600435612cf3565b50346102d45760203660031901126102d4576024816001600160a01b036020816067541660405194858092633630b3e360e11b825260043560048301525afa9283156103d9578293611b1e575b50606554169160246040518094819363385a3b4760e11b835260048301525afa9081156103d957826103b293926103b65750506040519182918261233b565b915091506020813d8211611b4c575b81611b3a6020938361249f565b8101031261000f578290519138611adf565b3d9150611b2d565b50346102d457602080600319360112610676578160249260c0604051611b7981612466565b82815282858201528260408201528260608201528260808201528260a082015201526001600160a01b039060e0826065541660405195868092633c889e6f851b825260043560048301525afa938415611413578194611c27575b5060405192845184528085015190840152604084015160408401526060840151906003821015610d52575060e09360c09160608501526080810151608085015260a081015160a085015201511660c0820152f35b90935060e0813d60e011611cae575b81611c4360e0938361249f565b8101031261066e5760405190611c5882612466565b80518252838101518483015260408101516040830152606081015160038110156109dd57611ca29160c09160608501526080810151608085015260a081015160a085015201612679565b60c08201529238611bd3565b3d9150611c36565b50346102d457602090816003193601126102d457806060604051611cd98161244a565b828152828582015282604082015201526001600160a01b039060246080836066541660405192838092631676f5f760e11b825260043560048301525afa91821561028c578092611d58575b608084606085886040519382511684528082015190840152604081015160408401520151611d5181612376565b6060820152f35b9091506080823d8211611dc4575b81611d736080938361249f565b810103126102d457606060405192611d8a8461244a565b611d9381612679565b845285810151868501526040810151604085015201519060028210156102d457506060808301919091528390611d24565b3d9150611d66565b50346102d457602090816003193601126102d4576024826001600160a01b036069541660405192838092631c59b01360e11b825260043560048301525afa91821561028c579161025f5750604051908152f35b50346102d45760803660031901126102d4576001600160a01b038160246020836067541660405192838092633630b3e360e11b825260443560048301525afa9081156103d9578291611ee8575b50611e75612578565b90836065541690813b1561066e578360a49260405196879586946334d2d55760e21b865260043560048701526024356024870152604486015260643560648601521660848401525af180156103d957611ed4575b602082604051908152f35b611ede8291612420565b6102d45738611ec9565b9150506020813d8211611f14575b81611f036020938361249f565b8101031261000f5782905138611e6c565b3d9150611ef6565b50346102d45760203660031901126102d4576024816001600160a01b03606754166040519283809263207f293760e01b825260043560048301525afa9081156103d957826103b293926103b65750506040519182918261233b565b50346102d45760203660031901126102d457611f91612325565b606b54906001600160a01b039081611fa7612578565b1682841603611fc55716906001600160a01b03191617606b55604051f35b60405162461bcd60e51b815260206004820152602760248201527f4f6e6c79206f776e65722063616e206368616e676520746865206f776e6572206044820152666164647265737360c81b6064820152608490fd5b50346102d4576120293661230f565b6001600160a01b03806067541690604051631baaa12b60e31b8152846004820152856020958683602481885afa9283156103d9578293612121575b506024604051809681936310fb199760e31b835260048301525afa918215610a1857859387936120fd575b50606a5416908661209e612578565b6120be6040519788968795869463eabfa09960e01b8652600486016127a3565b03925af19081156102c9576120db9284926120e0575b505061282d565b604051f35b6120f69250803d10610ab157610aa3818361249f565b38806120d4565b61211a9193503d8089833e612112818361249f565b8101906126a5565b913861208f565b9092508681813d8311612151575b612139818361249f565b810103126106765761214a90612679565b9138612064565b503d61212f565b50346102d457806003193601126102d457604051f35b82346102d45761217d3661230f565b6001600160a01b038481606654166327eaf52960e21b825284600483015281602460209889935afa9081156107705785916122da575b5081806121be612578565b1691160361226f5760695416916040519063b4c0bd9d60e01b825260048201528481602481865afa9081156104d6578491612242575b50823b1561066e579060448492836040519586948593631116c47960e31b8552600485015260248401525af180156103d9576122335750604051908152f35b61223c90612420565b82610256565b90508481813d8311612268575b612259818361249f565b8101031261066e5751856121f4565b503d61224f565b60405162461bcd60e51b815260048101869052603860248201527f4f6e6c79207468652063757272656e74206c6963656e6365206f776e6572206360448201527f616e2075706461746520746865202076616c756174696f6e00000000000000006064820152608490fd5b90508581813d8311612308575b6122f1818361249f565b810103126113775761230290612679565b866121b3565b503d6122e7565b604090600319011261000f576004359060243590565b600435906001600160a01b038216820361000f57565b6020908160408183019282815285518094520193019160005b828110612362575050505090565b835185529381019392810192600101612354565b6002111561238057565b634e487b7160e01b600052602160045260246000fd5b503461000f57602036600319011261000f576123b0612325565b60006001600160a01b0360248160655416936040519485938492630c4bb1cf60e31b84521660048301525afa8015612414576103b2916000916123fb575b506040519182918261233b565b61240e913d8091833e6103ca818361249f565b386123ee565b6040513d6000823e3d90fd5b67ffffffffffffffff811161243457604052565b634e487b7160e01b600052604160045260246000fd5b6080810190811067ffffffffffffffff82111761243457604052565b60e0810190811067ffffffffffffffff82111761243457604052565b6101a0810190811067ffffffffffffffff82111761243457604052565b90601f8019910116810190811067ffffffffffffffff82111761243457604052565b67ffffffffffffffff811161243457601f01601f191660200190565b90815180825260208080930193019160005b8281106124fd575050505090565b8351855293810193928101926001016124ef565b9060058210156123805752565b918091926000905b82821061253e575011612537575050565b6000910152565b91508060209183015181860152018291612526565b9060209161256c8151809281855285808601910161251e565b601f01601f1916010190565b337f00000000000000000000000000000000000000000000000000000000000000006001600160a01b0316036125b45736601319013560601c90565b3390565b156125bf57565b60405162461bcd60e51b815260206004820152602e60248201527f496e697469616c697a61626c653a20636f6e747261637420697320616c72656160448201527f647920696e697469616c697a65640000000000000000000000000000000000006064820152608490fd5b60005460ff8160081c1660001461264c5750612647303b156125b8565b600090565b8061265d600160ff819416106125b8565b60ff191617600055600190565b359061ffff8216820361000f57565b51906001600160a01b038216820361000f57565b67ffffffffffffffff81116124345760051b60200190565b906020808383031261000f57825167ffffffffffffffff9384821161000f57019082601f8301121561000f5781516126dc8161268d565b946040946126ec8651978861249f565b828752838088019360071b8601019481861161000f578401925b858410612717575050505050505090565b608090818584031261000f5787519182018281108582111761277657885261273e85612679565b8252858501519061ffff8216820361000f57828792836080950152898701518a82015260608088015190820152815201930192612706565b60246000634e487b7160e01b81526041600452fd5b9081602091031261000f5751801515810361000f5790565b9493929091608090818701916001600160a01b03809516885284602092168289015260409080828a015284518094528260a08a019501956000925b8584106127f45750505050505060609150930152565b87518051831688528086015161ffff168887015280820151888301526060908101519088015296840196958201956001909301926127de565b1561283457565b60405162461bcd60e51b815260206004820152601e60248201527f42756c6b2061756374696f6e20736574746c656d656e74206661696c656400006044820152606490fd5b519060ff8216820361000f57565b6001600160a01b0380606554169060409283519363e808386360e01b8552600491828601526024916060868481600080995af1958615612ce9578596612c6c575b50855115612c63576020938487018181511615612c215783880190815115612bdf5782606754168251865190631baaa12b60e31b82528682015288818981855afa908115612b9c578a91612ba6575b50898451898951809581936310fb199760e31b83528b8301525afa918215612b9c579089918b93612b80575b5085606a54168c8c8961296f8a89511693518d519889978896879563eabfa09960e01b875286016127a3565b03925af1908115612b59578994939291612990918691612b63575b5061282d565b87836067541688845189519788938492631d57d4e360e21b84528b8401525af1938415612b59579088918a95612b24575b5060648480606654169251168b8551938a519889958694633fe4815560e01b86528c8601528d85015260448401525af1928315612aeb578893612af5575b508682606754169151878751809481936301854b3760e51b8352898301525afa908115612aeb578891612ab1575b5060ff16600214612a44575b505050505050505190565b859287604492606954168a5187519889968795630eed804960e31b87528601528401525af1908115612aa85750612a7f575b80808080612a39565b813d8311612aa1575b612a92818361249f565b810103126102d4578080612a76565b503d612a88565b513d85823e3d90fd5b90508681813d8311612ae4575b612ac8818361249f565b81010312610f125760ff612add600292612879565b9150612a2d565b503d612abe565b85513d8a823e3d90fd5b9092508681813d8311612b1d575b612b0d818361249f565b81010312610f12575191386129ff565b503d612b03565b8281939296503d8311612b52575b612b3c818361249f565b81010312612b4e5787905193386129c1565b8880fd5b503d612b32565b86513d8b823e3d90fd5b612b7a91508a3d8c11610ab157610aa3818361249f565b3861298a565b612b959193503d808d833e612112818361249f565b9138612943565b87513d8c823e3d90fd5b90508881813d8311612bd8575b612bbd818361249f565b81010312612bd457612bce90612679565b38612917565b8980fd5b503d612bb3565b845162461bcd60e51b81528085018890526016818801527f496e76616c6964207075626c69636174696f6e204964000000000000000000006044820152606490fd5b835162461bcd60e51b81528084018790526016818701527f496e76616c69642077696e6e696e6720626964204964000000000000000000006044820152606490fd5b50505050905090565b9095506060813d8211612ce1575b81612c876060938361249f565b81010312611377578151906060820182811067ffffffffffffffff821117612ccf578352805182528290612cbd60208201612679565b602084015201518282015294386128c8565b634e487b7160e01b8752604188528487fd5b3d9150612c7a565b82513d87823e3d90fd5b6000906001600160a01b03806066541691604091825193631335506160e21b8552600491838387015260209160249683818981855afa908115612fb6578991613260575b50606954875163b4c0bd9d60e01b81528681018390529290841685848b81845afa938415613148578a929187918d9661322c575b508a5193848092634511371960e11b8252888c8301525afa918215613148578a9187918d946131fa575b508a51928380926331a9108f60e11b8252878c8301525afa908115613148578b916131c1575b50606a548951637a3e00cd60e01b81526001600160a01b038316818a0190815260208101859052918716918890829081906040010381855afa9081156131b7578d9161319a575b50612fe3575050508260665416803b15612bd4578980918a8a5180948193633a7ae75d60e01b978884528c8401525af18015612fd9579185918b93612fc0575b50898560675416918a51948593849283528b8b8401525af18015612fb657908491612f8d575b5050816069541690813b15612b4e57889188839289519485938492631af19b2b60e31b84528a8401525af18015612f6f57908891612f79575b50828260655416608488518094819363b8f4e5a560e01b83528a8a840152818d84015242604484015262278d0060648401525af1928315612f6f578893612f3f575b50506067541690813b156110c257918660449281959487519889968795637c14866f60e11b87528601528401525af1908115612f365750908291612f2657505090565b612f2f90612420565b6102d45790565b513d84823e3d90fd5b9080929350813d8311612f68575b612f57818361249f565b8101031261000f5751903880612ee3565b503d612f4d565b86513d8a823e3d90fd5b612f8290612420565b6110c2578638612ea1565b813d8311612faf575b612fa0818361249f565b8101031261000f578238612e68565b503d612f96565b87513d8b823e3d90fd5b612fcc91939250612420565b612b4e5783899138612e42565b88513d8c823e3d90fd5b9092508460679b9a9694979998929b541692885192631baaa12b60e31b8452808b85015285848981885afa93841561319057908c918295613152575b50888c8c5197889384926310fb199760e31b84528301525afa93841561314857908b8b8e889695948398613128575b5061306d908d519889978896879563eabfa09960e01b875286016127a3565b03925af1908115612f6f57889161310b575b50156130cb57506069541693843b156109dd5790859291838551968794859363709b1da960e11b85528401525af1908115612f3657506130be57505090565b6130c790612420565b5090565b85818460649388519362461bcd60e51b85528401528201527f42756c6b2068617262657267657220736574746c656d656e74206661696c65646044820152fd5b6131229150823d8411610ab157610aa3818361249f565b3861307f565b61306d919850613141903d8086833e612112818361249f565b979061304e565b89513d8d823e3d90fd5b87809296508193503d8311613189575b61316c818361249f565b810103126131855761317e8c91612679565b933861301f565b8b80fd5b503d613162565b8a513d8e823e3d90fd5b6131b19150883d8a11610ab157610aa3818361249f565b38612e02565b8b513d8f823e3d90fd5b90508581813d83116131f3575b6131d8818361249f565b810103126131ef576131e990612679565b38612dbb565b8a80fd5b503d6131ce565b9250925081813d8311613225575b613212818361249f565b810103126131ef57858a91519238612d95565b503d613208565b929350945081813d8311613259575b613245818361249f565b810103126131ef5790858a92519438612d6b565b503d61323b565b90508381813d8311613286575b613277818361249f565b81010312612b4e575138612d37565b503d61326d565b81601f8201121561000f578051916132a48361268d565b926132b2604051948561249f565b808452602092838086019260051b82010192831161000f578301905b8282106132dc575050505090565b815181529083019083016132ce565b9060208282031261000f57815167ffffffffffffffff811161000f57613311920161328d565b90565b6001600160a01b036020816068541691602461332e612578565b60405194859384926338b6a3a160e01b84521660048301525afa9081156124145760009161335a575090565b613311915060203d8111610ab157610aa3818361249f56fea2646970667358221220149a4138e387d5b2a7433187d8e6f71cccadef702b9499f3e79ca4dab22c064164736f6c634300080f0033",
  "linkReferences": {},
  "deployedLinkReferences": {}
}