{
  "_format": "hh-sol-artifact-1",
  "contractName": "LicenceManager",
  "sourceName": "contracts/LicenceManager.sol",
  "abi": [
    {
      "inputs": [
        {
          "internalType": "address",
          "name": "unicoinRegistry",
          "type": "address"
        },
        {
          "internalType": "address",
          "name": "trustedForwarder",
          "type": "address"
        }
      ],
      "stateMutability": "nonpayable",
      "type": "constructor"
    },
    {
      "anonymous": false,
      "inputs": [
        {
          "indexed": true,
          "internalType": "address",
          "name": "owner",
          "type": "address"
        },
        {
          "indexed": true,
          "internalType": "address",
          "name": "approved",
          "type": "address"
        },
        {
          "indexed": true,
          "internalType": "uint256",
          "name": "tokenId",
          "type": "uint256"
        }
      ],
      "name": "Approval",
      "type": "event"
    },
    {
      "anonymous": false,
      "inputs": [
        {
          "indexed": true,
          "internalType": "address",
          "name": "owner",
          "type": "address"
        },
        {
          "indexed": true,
          "internalType": "address",
          "name": "operator",
          "type": "address"
        },
        {
          "indexed": false,
          "internalType": "bool",
          "name": "approved",
          "type": "bool"
        }
      ],
      "name": "ApprovalForAll",
      "type": "event"
    },
    {
      "anonymous": false,
      "inputs": [
        {
          "indexed": false,
          "internalType": "uint8",
          "name": "version",
          "type": "uint8"
        }
      ],
      "name": "Initialized",
      "type": "event"
    },
    {
      "anonymous": false,
      "inputs": [
        {
          "indexed": true,
          "internalType": "address",
          "name": "from",
          "type": "address"
        },
        {
          "indexed": true,
          "internalType": "address",
          "name": "to",
          "type": "address"
        },
        {
          "indexed": true,
          "internalType": "uint256",
          "name": "tokenId",
          "type": "uint256"
        }
      ],
      "name": "Transfer",
      "type": "event"
    },
    {
      "inputs": [
        {
          "internalType": "uint256",
          "name": "licenceId",
          "type": "uint256"
        },
        {
          "internalType": "address",
          "name": "_oldOwnerAddress",
          "type": "address"
        },
        {
          "internalType": "address",
          "name": "_newOwnerAddress",
          "type": "address"
        }
      ],
      "name": "_allocateLicenceToNewOwner",
      "outputs": [],
      "stateMutability": "nonpayable",
      "type": "function"
    },
    {
      "inputs": [
        {
          "internalType": "address",
          "name": "ownerAddress",
          "type": "address"
        },
        {
          "internalType": "uint256",
          "name": "publicationId",
          "type": "uint256"
        },
        {
          "internalType": "uint256",
          "name": "publicationLicenceNo",
          "type": "uint256"
        }
      ],
      "name": "_registerNewLicence",
      "outputs": [
        {
          "internalType": "uint256",
          "name": "",
          "type": "uint256"
        }
      ],
      "stateMutability": "nonpayable",
      "type": "function"
    },
    {
      "inputs": [
        {
          "internalType": "uint256",
          "name": "licenceId",
          "type": "uint256"
        }
      ],
      "name": "_revokeLicence",
      "outputs": [],
      "stateMutability": "nonpayable",
      "type": "function"
    },
    {
      "inputs": [
        {
          "internalType": "address",
          "name": "to",
          "type": "address"
        },
        {
          "internalType": "uint256",
          "name": "tokenId",
          "type": "uint256"
        }
      ],
      "name": "approve",
      "outputs": [],
      "stateMutability": "nonpayable",
      "type": "function"
    },
    {
      "inputs": [
        {
          "internalType": "address",
          "name": "owner",
          "type": "address"
        }
      ],
      "name": "balanceOf",
      "outputs": [
        {
          "internalType": "uint256",
          "name": "",
          "type": "uint256"
        }
      ],
      "stateMutability": "view",
      "type": "function"
    },
    {
      "inputs": [
        {
          "internalType": "uint256",
          "name": "tokenId",
          "type": "uint256"
        }
      ],
      "name": "getApproved",
      "outputs": [
        {
          "internalType": "address",
          "name": "",
          "type": "address"
        }
      ],
      "stateMutability": "view",
      "type": "function"
    },
    {
      "inputs": [
        {
          "internalType": "uint256",
          "name": "licenceId",
          "type": "uint256"
        }
      ],
      "name": "getLicence",
      "outputs": [
        {
          "components": [
            {
              "internalType": "address",
              "name": "ownerAddress",
              "type": "address"
            },
            {
              "internalType": "uint256",
              "name": "publicationId",
              "type": "uint256"
            },
            {
              "internalType": "uint256",
              "name": "publicationLicenceNo",
              "type": "uint256"
            },
            {
              "internalType": "enum SharedStructures.LicenceStatus",
              "name": "status",
              "type": "uint8"
            }
          ],
          "internalType": "struct SharedStructures.Licence",
          "name": "",
          "type": "tuple"
        }
      ],
      "stateMutability": "view",
      "type": "function"
    },
    {
      "inputs": [
        {
          "internalType": "address",
          "name": "_userAddress",
          "type": "address"
        }
      ],
      "name": "getLicenceForUser",
      "outputs": [
        {
          "internalType": "uint256[]",
          "name": "",
          "type": "uint256[]"
        }
      ],
      "stateMutability": "view",
      "type": "function"
    },
    {
      "inputs": [
        {
          "internalType": "uint256",
          "name": "licenceId",
          "type": "uint256"
        }
      ],
      "name": "getLicenceOwnerAddress",
      "outputs": [
        {
          "internalType": "address",
          "name": "",
          "type": "address"
        }
      ],
      "stateMutability": "view",
      "type": "function"
    },
    {
      "inputs": [
        {
          "internalType": "uint256",
          "name": "publicationId",
          "type": "uint256"
        }
      ],
      "name": "getMostRecentPublicationLicence",
      "outputs": [
        {
          "internalType": "uint256",
          "name": "",
          "type": "uint256"
        }
      ],
      "stateMutability": "view",
      "type": "function"
    },
    {
      "inputs": [
        {
          "internalType": "uint256",
          "name": "publicationId",
          "type": "uint256"
        }
      ],
      "name": "getPublicationLicences",
      "outputs": [
        {
          "internalType": "uint256[]",
          "name": "",
          "type": "uint256[]"
        }
      ],
      "stateMutability": "view",
      "type": "function"
    },
    {
      "inputs": [
        {
          "internalType": "string",
          "name": "_name",
          "type": "string"
        },
        {
          "internalType": "string",
          "name": "_symbol",
          "type": "string"
        }
      ],
      "name": "initialize",
      "outputs": [],
      "stateMutability": "nonpayable",
      "type": "function"
    },
    {
      "inputs": [
        {
          "internalType": "address",
          "name": "owner",
          "type": "address"
        },
        {
          "internalType": "address",
          "name": "operator",
          "type": "address"
        }
      ],
      "name": "isApprovedForAll",
      "outputs": [
        {
          "internalType": "bool",
          "name": "",
          "type": "bool"
        }
      ],
      "stateMutability": "view",
      "type": "function"
    },
    {
      "inputs": [
        {
          "internalType": "address",
          "name": "forwarder",
          "type": "address"
        }
      ],
      "name": "isTrustedForwarder",
      "outputs": [
        {
          "internalType": "bool",
          "name": "",
          "type": "bool"
        }
      ],
      "stateMutability": "view",
      "type": "function"
    },
    {
      "inputs": [
        {
          "internalType": "address",
          "name": "",
          "type": "address"
        },
        {
          "internalType": "uint256",
          "name": "",
          "type": "uint256"
        }
      ],
      "name": "licenceOwners",
      "outputs": [
        {
          "internalType": "uint256",
          "name": "",
          "type": "uint256"
        }
      ],
      "stateMutability": "view",
      "type": "function"
    },
    {
      "inputs": [
        {
          "internalType": "uint256",
          "name": "",
          "type": "uint256"
        }
      ],
      "name": "licences",
      "outputs": [
        {
          "internalType": "address",
          "name": "ownerAddress",
          "type": "address"
        },
        {
          "internalType": "uint256",
          "name": "publicationId",
          "type": "uint256"
        },
        {
          "internalType": "uint256",
          "name": "publicationLicenceNo",
          "type": "uint256"
        },
        {
          "internalType": "enum SharedStructures.LicenceStatus",
          "name": "status",
          "type": "uint8"
        }
      ],
      "stateMutability": "view",
      "type": "function"
    },
    {
      "inputs": [],
      "name": "name",
      "outputs": [
        {
          "internalType": "string",
          "name": "",
          "type": "string"
        }
      ],
      "stateMutability": "view",
      "type": "function"
    },
    {
      "inputs": [
        {
          "internalType": "uint256",
          "name": "tokenId",
          "type": "uint256"
        }
      ],
      "name": "ownerOf",
      "outputs": [
        {
          "internalType": "address",
          "name": "",
          "type": "address"
        }
      ],
      "stateMutability": "view",
      "type": "function"
    },
    {
      "inputs": [
        {
          "internalType": "uint256",
          "name": "",
          "type": "uint256"
        },
        {
          "internalType": "uint256",
          "name": "",
          "type": "uint256"
        }
      ],
      "name": "publicationLicences",
      "outputs": [
        {
          "internalType": "uint256",
          "name": "",
          "type": "uint256"
        }
      ],
      "stateMutability": "view",
      "type": "function"
    },
    {
      "inputs": [
        {
          "internalType": "address",
          "name": "from",
          "type": "address"
        },
        {
          "internalType": "address",
          "name": "to",
          "type": "address"
        },
        {
          "internalType": "uint256",
          "name": "tokenId",
          "type": "uint256"
        }
      ],
      "name": "safeTransferFrom",
      "outputs": [],
      "stateMutability": "nonpayable",
      "type": "function"
    },
    {
      "inputs": [
        {
          "internalType": "address",
          "name": "from",
          "type": "address"
        },
        {
          "internalType": "address",
          "name": "to",
          "type": "address"
        },
        {
          "internalType": "uint256",
          "name": "tokenId",
          "type": "uint256"
        },
        {
          "internalType": "bytes",
          "name": "data",
          "type": "bytes"
        }
      ],
      "name": "safeTransferFrom",
      "outputs": [],
      "stateMutability": "nonpayable",
      "type": "function"
    },
    {
      "inputs": [
        {
          "internalType": "address",
          "name": "operator",
          "type": "address"
        },
        {
          "internalType": "bool",
          "name": "approved",
          "type": "bool"
        }
      ],
      "name": "setApprovalForAll",
      "outputs": [],
      "stateMutability": "nonpayable",
      "type": "function"
    },
    {
      "inputs": [
        {
          "internalType": "bytes4",
          "name": "interfaceId",
          "type": "bytes4"
        }
      ],
      "name": "supportsInterface",
      "outputs": [
        {
          "internalType": "bool",
          "name": "",
          "type": "bool"
        }
      ],
      "stateMutability": "view",
      "type": "function"
    },
    {
      "inputs": [],
      "name": "symbol",
      "outputs": [
        {
          "internalType": "string",
          "name": "",
          "type": "string"
        }
      ],
      "stateMutability": "view",
      "type": "function"
    },
    {
      "inputs": [
        {
          "internalType": "uint256",
          "name": "tokenId",
          "type": "uint256"
        }
      ],
      "name": "tokenURI",
      "outputs": [
        {
          "internalType": "string",
          "name": "",
          "type": "string"
        }
      ],
      "stateMutability": "view",
      "type": "function"
    },
    {
      "inputs": [
        {
          "internalType": "address",
          "name": "from",
          "type": "address"
        },
        {
          "internalType": "address",
          "name": "to",
          "type": "address"
        },
        {
          "internalType": "uint256",
          "name": "tokenId",
          "type": "uint256"
        }
      ],
      "name": "transferFrom",
      "outputs": [],
      "stateMutability": "nonpayable",
      "type": "function"
    }
  ],
  "bytecode": "0x60c034620001a657601f620020ac38819003918201601f19168301916001600160401b03831184841017620001ab578084926040948552833981010312620001a6576200005a60206200005283620001c1565b9201620001c1565b6080526000549060ff8260081c16159182809362000198575b80156200017f575b15620001235760ff1981166001176000558262000110575b5060a052620000d4575b604051611ed59081620001d78239608051818181610bcd0152611dda015260a05181818161023c015281816102da01526108560152f35b61ff0019600054166000557f7f26b83ff96e1f2b6a682f133852f6798a09c465da95921460cefb3847402498602060405160018152a16200009d565b61ffff1916610101176000553862000093565b60405162461bcd60e51b815260206004820152602e60248201527f496e697469616c697a61626c653a20636f6e747261637420697320616c72656160448201526d191e481a5b9a5d1a585b1a5e995960921b6064820152608490fd5b50303b1580156200007b5750600160ff8216146200007b565b50600160ff82161062000073565b600080fd5b634e487b7160e01b600052604160045260246000fd5b51906001600160a01b0382168203620001a65756fe608060408181526004908136101561001657600080fd5b600092833560e01c90816301ffc9a71461138a5750806306fdde03146112e0578063081812fc146112b8578063095ea7b31461129257806323b872dd1461126f5780632cedebee146111ac57806342842e0e146111605780634cd54184146110175780634cd88b7614610bf4578063572b6c0514610ba15780636352211e14610b7157806370a0823114610adb5780638fc8377414610a9357806395d89b41146109ae5780639fabd4a41461097c578063a22cb465146108a3578063ab2a766114610808578063b88d4fde14610778578063bb44aee314610694578063c87b56dd14610627578063d1d9f95c146105b3578063d628d5401461056a578063d6e7af35146102ac578063d804c0d71461020c578063e985e9c5146101ba5763fbd9d2eb1461014257600080fd5b346101b657602091826003193601126101b25735835260cb82528083209281518093808654928381520195835280832092905b82821061019b57610197868661018d828b038361151e565b5191829182611619565b0390f35b835487529586019560019384019390910190610175565b8380fd5b8280fd5b83823461020857806003193601126102085760ff816020936101da611447565b6101e2611462565b6001600160a01b039182168352606a875283832091168252855220549151911615158152f35b5080fd5b5090346101b65760203660031901126101b65760026102818235610264610231611dd7565b6001600160a01b03807f000000000000000000000000000000000000000000000000000000000000000016911614611e17565b600361026f826115df565b5001805460ff191660011790556115df565b50019081549060018210610299575060001901905551f35b634e487b7160e01b855260119052602484fd5b50829034610208576060366003190112610208576102c8611447565b916024938435936102d7611dd7565b957f0000000000000000000000000000000000000000000000000000000000000000936103126001600160a01b039889808816911614611e17565b855161031d816114d0565b888416928382526020998a8301928a84528981016044358152606082019286845260c9546801000000000000000081101561055857806001610362920160c9556115df565b939093610547579060039392915116956001600160a01b0319968784541617835551600183015551600282015501905160028110156105355760ff8019835416911617905560c9546001811061052357600019019884845260ca8b526103ca8a8a8620611e63565b835260cb8a526103dc89898520611e63565b8751956103e887611502565b83875284156104e4576104118a60005260676020526001600160a01b0360406000205416151590565b6104a45784845260688b528884209182549160011983116104935750509489610488956104839582999560678f8597600161048d9f9d01905585845252828d8320918254161790557fddf252ad1be2c89b69c2b068fc378daa952ba7f163c4a11628f55a4df523b3ef818d51a4611b95565b611917565b6116fc565b51908152f35b634e487b7160e01b86526011905284fd5b601c6064928c8b519362461bcd60e51b85528401528201527f4552433732313a20746f6b656e20616c7265616479206d696e746564000000006044820152fd5b8a606492818b519362461bcd60e51b85528401528201527f4552433732313a206d696e7420746f20746865207a65726f20616464726573736044820152fd5b50634e487b7160e01b83526011865282fd5b634e487b7160e01b8552602188528285fd5b634e487b7160e01b8852878b528588fd5b634e487b7160e01b885260418b528588fd5b5082346105b057816003193601126105b0576024359235815260cb6020528181209081548410156105b057506020926105a2916115b1565b91905490519160031b1c8152f35b80fd5b83823461020857602090816003193601126101b6576001600160a01b036105d8611447565b16835260ca82528083209281518093808654928381520195835280832092905b82821061061057610197868661018d828b038361151e565b8354875295860195600193840193909101906105f8565b5082903461020857602036600319011261020857610667610662610197943560005260676020526001600160a01b0360406000205416151590565b611654565b81815161067381611502565b5280519161068083611502565b8252519182916020835260208301906113f6565b5090346101b65760203660031901126101b6573560c9548110156101b6576107769060c96080945260021b916001600160a01b03837f66be4f155c5ef2ebd3772b228f2f00681e4ed5826cdb3b1943cc11ad15ad1d28015416927f66be4f155c5ef2ebd3772b228f2f00681e4ed5826cdb3b1943cc11ad15ad1d298101549160ff7f66be4f155c5ef2ebd3772b228f2f00681e4ed5826cdb3b1943cc11ad15ad1d2b7f66be4f155c5ef2ebd3772b228f2f00681e4ed5826cdb3b1943cc11ad15ad1d2a84015493015416928151958652602086015284015260608301906114ad565bf35b5090346101b65760803660031901126101b657610793611447565b9061079c611462565b916044356064359367ffffffffffffffff85116108045736602386011215610804576107d7610483948660246108019836930135910161155c565b926107f16107ec846107e7611dd7565b61197e565b6118a5565b6107fc8383836119ec565b611d05565b51f35b8680fd5b5090346101b65760603660031901126101b65735610824611462565b906044356001600160a01b0392838216808303610804576107ec846108019661089e9361087f610852611dd7565b92807f00000000000000000000000000000000000000000000000000000000000000001690841614611e17565b610888836115df565b50906001600160a01b031982541617905561197e565b6119ec565b5090346101b657816003193601126101b6576108bd611447565b90602435801515809103610978576108d3611dd7565b6001600160a01b03938416931691828414610935575060207f17307eab39ab6107e8899845ad3d59bd9653f200f220920489ca2b5937696c3191838752606a8252858720858852825285872060ff1981541660ff83161790558551908152a351f35b606490602086519162461bcd60e51b8352820152601960248201527f4552433732313a20617070726f766520746f2063616c6c6572000000000000006044820152fd5b8480fd5b5082346105b05760203660031901126105b057506001600160a01b036109a4602093356115df565b5054169051908152f35b838234610208578160031936011261020857805190826066546109d0816116c2565b80855291600191808316908115610a6b5750600114610a0e575b5050506109fc8261019794038361151e565b519182916020835260208301906113f6565b9450606685527f46501879b8ca8525e8c2fd519e2fbfcfa2ebea26501294aa02cbfcfb12e943545b828610610a53575050506109fc82602061019795820101946109ea565b80546020878701810191909152909501948101610a36565b6101979750869350602092506109fc94915060ff191682840152151560051b820101946109ea565b838234610208578060031936011261020857610aad611447565b6001600160a01b0316825260ca602052808220805460243593908410156105b057506020926105a2916115b1565b50919034610208576020366003190112610208576001600160a01b03610aff611447565b16908115610b1c5760208480858581526068845220549051908152f35b608490602085519162461bcd60e51b8352820152602960248201527f4552433732313a2061646472657373207a65726f206973206e6f7420612076616044820152683634b21037bbb732b960b91b6064820152fd5b5082346105b05760203660031901126105b057506001600160a01b03610b99602093356116a0565b915191168152f35b83823461020857602036600319011261020857602090610bbf611447565b9051906001600160a01b03807f0000000000000000000000000000000000000000000000000000000000000000169116148152f35b5090346101b657816003193601126101b65767ffffffffffffffff90803582811161097857610c269036908301611593565b9160243581811161101357610c3e9036908401611593565b9285549360ff8560081c161593848095611006575b8015610fef575b15610f8657600195858760ff198316178a55610f75575b50610c8b60ff895460081c16610c8681611d77565b611d77565b8251848111610f625780610ca06065546116c2565b94601f95868111610ef4575b50602090868311600114610e75578b92610e6a575b5050600019600383901b1c191690871b176065555b8151938411610e575750908291610cee6066546116c2565b828111610de7575b506020918311600114610d68578792610d5d575b5050600019600383901b1c191690831b176066555b610d27575051f35b60207f7f26b83ff96e1f2b6a682f133852f6798a09c465da95921460cefb38474024989161ff001985541685558351908152a151f35b015190503880610d0a565b606688528593507f46501879b8ca8525e8c2fd519e2fbfcfa2ebea26501294aa02cbfcfb12e943549190601f198416895b818110610dcf57508411610db6575b505050811b01606655610d1f565b015160001960f88460031b161c19169055388080610da8565b82840151855588969094019360209384019301610d99565b90919250606688527f46501879b8ca8525e8c2fd519e2fbfcfa2ebea26501294aa02cbfcfb12e943548380860160051c82019260208710610e4e575b91869589929594930160051c01915b828110610e40575050610cf6565b8a8155869550889101610e32565b92508192610e23565b634e487b7160e01b885260419052602487fd5b015190503880610cc1565b60658c528993507f8ff97419363ffd7000167f130ef7168fbea05faf9251824ca5043f113cc6a7c79190601f1984168d5b818110610edc57508411610ec3575b505050811b01606555610cd6565b015160001960f88460031b161c19169055388080610eb5565b8284015185558c969094019360209384019301610ea6565b90915060658b527f8ff97419363ffd7000167f130ef7168fbea05faf9251824ca5043f113cc6a7c78680850160051c82019260208610610f59575b918b91869594930160051c01915b828110610f4b575050610cac565b8d81558594508b9101610f3d565b92508192610f2f565b634e487b7160e01b895260418252602489fd5b61ffff191661010117885538610c71565b608490602088519162461bcd60e51b8352820152602e60248201527f496e697469616c697a61626c653a20636f6e747261637420697320616c72656160448201527f647920696e697469616c697a65640000000000000000000000000000000000006064820152fd5b50303b158015610c5a5750600160ff871614610c5a565b50600160ff871610610c53565b8580fd5b5082346105b057602092836003193601126102085780359182815260cb85528381208451808288829454938481520190855288852092855b8a82821061114a575050506110669250038261151e565b5192831561110757815260cb8552838120928451808588829754938481520190855288852092855b8a8282106110f1575050506110a59250038561151e565b600181106110de57600019019183518310156110cb57505060051b018201519051908152f35b634e487b7160e01b825260329052602490fd5b506011602492634e487b7160e01b835252fd5b855484526001958601958a95509301920161108e565b845162461bcd60e51b8152808401879052601160248201527f6e6f206c6963656e63657320666f756e640000000000000000000000000000006044820152606490fd5b855484526001958601958795509301920161104f565b5090346101b65761117036611478565b91845193602085019085821067ffffffffffffffff831117610e575750916104839391610801959387528784526107f16107ec846107e7611dd7565b5082346105b05760203660031901126105b05780606083516111cd816114d0565b828152826020820152828582015201526111e783356115df565b50918051926111f5846114d0565b6001600160a01b038082541685526001820154906020860191825260ff60036002850154948689019586520154166060870195600282101561125c5760808861077689898989898985528351965116865251602086015251908401525160608301906114ad565b634e487b7160e01b815260218952602490fd5b8382346102085761080161128236611478565b9161089e6107ec846107e7611dd7565b8382346102085780600319360112610208576108016112af611447565b602435906116fc565b5082346105b05760203660031901126105b057506001600160a01b03610b9960209335611868565b83823461020857816003193601126102085780519082606554611302816116c2565b80855291600191808316908115610a6b575060011461132d575050506109fc8261019794038361151e565b9450606585527f8ff97419363ffd7000167f130ef7168fbea05faf9251824ca5043f113cc6a7c75b828610611372575050506109fc82602061019795820101946109ea565b80546020878701810191909152909501948101611355565b849084346101b65760203660031901126101b6573563ffffffff60e01b81168091036101b657602092506380ac58cd60e01b81149081156113e5575b81156113d4575b5015158152f35b6301ffc9a760e01b149050836113cd565b635b5e139f60e01b811491506113c6565b91908251928382526000905b84821061142f575092806020939411611422575b601f01601f1916010190565b6000838284010152611416565b90602090818082850101519082860101520190611402565b600435906001600160a01b038216820361145d57565b600080fd5b602435906001600160a01b038216820361145d57565b606090600319011261145d576001600160a01b0390600435828116810361145d5791602435908116810361145d579060443590565b9060028210156114ba5752565b634e487b7160e01b600052602160045260246000fd5b6080810190811067ffffffffffffffff8211176114ec57604052565b634e487b7160e01b600052604160045260246000fd5b6020810190811067ffffffffffffffff8211176114ec57604052565b90601f8019910116810190811067ffffffffffffffff8211176114ec57604052565b67ffffffffffffffff81116114ec57601f01601f191660200190565b92919261156882611540565b91611576604051938461151e565b82948184528183011161145d578281602093846000960137010152565b9080601f8301121561145d578160206115ae9335910161155c565b90565b80548210156115c95760005260206000200190600090565b634e487b7160e01b600052603260045260246000fd5b60c9548110156115c95760c960005260021b7f66be4f155c5ef2ebd3772b228f2f00681e4ed5826cdb3b1943cc11ad15ad1d280190600090565b6020908160408183019282815285518094520193019160005b828110611640575050505090565b835185529381019392810192600101611632565b1561165b57565b60405162461bcd60e51b815260206004820152601860248201527f4552433732313a20696e76616c696420746f6b656e20494400000000000000006044820152606490fd5b60005260676020526001600160a01b03604060002054166115ae811515611654565b90600182811c921680156116f2575b60208310146116dc57565b634e487b7160e01b600052602260045260246000fd5b91607f16916116d1565b6001600160a01b03808061170f856116a0565b169216918083146118195781611723611dd7565b168181149182156117f2575b505015611787578260005260696020526040600020826001600160a01b031982541617905561175d836116a0565b167f8c5be1e5ebec7d5bd14f71427d1e84f3dd0314c0f7b2291e5b200ac8c7c3b9256000604051a4565b60405162461bcd60e51b815260206004820152603e60248201527f4552433732313a20617070726f76652063616c6c6572206973206e6f7420746f60448201527f6b656e206f776e6572206e6f7220617070726f76656420666f7220616c6c00006064820152608490fd5b909150600052606a60205260406000209060005260205260ff60406000205416388061172f565b60405162461bcd60e51b815260206004820152602160248201527f4552433732313a20617070726f76616c20746f2063757272656e74206f776e656044820152603960f91b6064820152608490fd5b61188b6106628260005260676020526001600160a01b0360406000205416151590565b60005260696020526001600160a01b036040600020541690565b156118ac57565b60405162461bcd60e51b815260206004820152602e60248201527f4552433732313a2063616c6c6572206973206e6f7420746f6b656e206f776e6560448201527f72206e6f7220617070726f7665640000000000000000000000000000000000006064820152608490fd5b1561191e57565b60405162461bcd60e51b815260206004820152603260248201527f4552433732313a207472616e7366657220746f206e6f6e20455243373231526560448201527131b2b4bb32b91034b6b83632b6b2b73a32b960711b6064820152608490fd5b906001600160a01b038080611992846116a0565b169316918383149384156119c5575b5083156119af575b50505090565b6119bb91929350611868565b16143880806119a9565b909350600052606a60205260406000208260005260205260ff6040600020541692386119a1565b6119f5836116a0565b916001600160a01b0392838093169283911603611b42578216918215611af157600090848252606960205260408220906001600160a01b031991828154169055611a3e866116a0565b16908583604051937f8c5be1e5ebec7d5bd14f71427d1e84f3dd0314c0f7b2291e5b200ac8c7c3b9258286a4838352606860205260408320805460018110611add5760001901905584835260686020526040832080546001198111611add5760010190558583526067602052604083208054909116851790557fddf252ad1be2c89b69c2b068fc378daa952ba7f163c4a11628f55a4df523b3ef9190a4565b634e487b7160e01b85526011600452602485fd5b60405162461bcd60e51b8152602060048201526024808201527f4552433732313a207472616e7366657220746f20746865207a65726f206164646044820152637265737360e01b6064820152608490fd5b60405162461bcd60e51b815260206004820152602560248201527f4552433732313a207472616e736665722066726f6d20696e636f72726563742060448201526437bbb732b960d91b6064820152608490fd5b9192600092909190803b15611cfb57611bf8948491611bb2611dd7565b9060405180948193630a85bd0160e11b978884526001600160a01b0380921660048501528260248501526044840152608060648401528260209b8c9760848301906113f6565b0393165af1849181611cbb575b50611caa575050503d600014611ca2573d611c1f81611540565b90611c2d604051928361151e565b81528091833d92013e5b80519182611c9f5760405162461bcd60e51b815260206004820152603260248201527f4552433732313a207472616e7366657220746f206e6f6e20455243373231526560448201527131b2b4bb32b91034b6b83632b6b2b73a32b960711b6064820152608490fd5b01fd5b506060611c37565b6001600160e01b0319161492509050565b9091508581813d8311611cf4575b611cd3818361151e565b8101031261097857516001600160e01b031981168103610978579038611c05565b503d611cc9565b5050915050600190565b9293600093909291803b15611d6c57948491611bf896611d23611dd7565b946040519485938492630a85bd0160e11b988985526001600160a01b03928380921660048701521660248501526044840152608060648401528260209b8c9760848301906113f6565b505050915050600190565b15611d7e57565b60405162461bcd60e51b815260206004820152602b60248201527f496e697469616c697a61626c653a20636f6e7472616374206973206e6f74206960448201526a6e697469616c697a696e6760a81b6064820152608490fd5b337f00000000000000000000000000000000000000000000000000000000000000006001600160a01b031603611e135736601319013560601c90565b3390565b15611e1e57565b60405162461bcd60e51b815260206004820152601e60248201527f43616e206f6e6c792062652063616c6c656420627920726567697374727900006044820152606490fd5b8054680100000000000000008110156114ec57611e85916001820181556115b1565b819291549060031b600019811b9283911b1691191617905556fea264697066735822122016288e8110d495cb5ec52d03dc8f0173674040bd3ea5464cde702da169d9847864736f6c634300080f0033",
  "linkReferences": {},
  "deployedLinkReferences": {}
}