{
  "_format": "hh-sol-artifact-1",
  "contractName": "UserManager",
  "sourceName": "contracts/UserManager.sol",
  "abi": [
    {
      "inputs": [
        {
          "internalType": "address",
          "name": "unicoinRegistry",
          "type": "address"
        },
        {
          "internalType": "address",
          "name": "trustedForwarder",
          "type": "address"
        }
      ],
      "stateMutability": "nonpayable",
      "type": "constructor"
    },
    {
      "anonymous": false,
      "inputs": [
        {
          "indexed": false,
          "internalType": "uint8",
          "name": "version",
          "type": "uint8"
        }
      ],
      "name": "Initialized",
      "type": "event"
    },
    {
      "inputs": [
        {
          "internalType": "string",
          "name": "profileUri",
          "type": "string"
        },
        {
          "internalType": "address",
          "name": "userAddress",
          "type": "address"
        }
      ],
      "name": "_registerUser",
      "outputs": [
        {
          "internalType": "uint256",
          "name": "",
          "type": "uint256"
        }
      ],
      "stateMutability": "nonpayable",
      "type": "function"
    },
    {
      "inputs": [
        {
          "internalType": "address",
          "name": "userAddress",
          "type": "address"
        }
      ],
      "name": "getUserId",
      "outputs": [
        {
          "internalType": "uint256",
          "name": "",
          "type": "uint256"
        }
      ],
      "stateMutability": "view",
      "type": "function"
    },
    {
      "inputs": [
        {
          "internalType": "address",
          "name": "userAddress",
          "type": "address"
        }
      ],
      "name": "getUserProfileUri",
      "outputs": [
        {
          "internalType": "string",
          "name": "",
          "type": "string"
        }
      ],
      "stateMutability": "view",
      "type": "function"
    },
    {
      "inputs": [],
      "name": "initialize",
      "outputs": [],
      "stateMutability": "nonpayable",
      "type": "function"
    },
    {
      "inputs": [
        {
          "internalType": "address",
          "name": "userAddress",
          "type": "address"
        }
      ],
      "name": "isAddressRegistered",
      "outputs": [
        {
          "internalType": "bool",
          "name": "",
          "type": "bool"
        }
      ],
      "stateMutability": "view",
      "type": "function"
    },
    {
      "inputs": [
        {
          "internalType": "address",
          "name": "forwarder",
          "type": "address"
        }
      ],
      "name": "isTrustedForwarder",
      "outputs": [
        {
          "internalType": "bool",
          "name": "",
          "type": "bool"
        }
      ],
      "stateMutability": "view",
      "type": "function"
    },
    {
      "inputs": [
        {
          "internalType": "address",
          "name": "",
          "type": "address"
        }
      ],
      "name": "users",
      "outputs": [
        {
          "internalType": "bool",
          "name": "valid",
          "type": "bool"
        },
        {
          "internalType": "uint256",
          "name": "userId",
          "type": "uint256"
        },
        {
          "internalType": "string",
          "name": "profileUri",
          "type": "string"
        }
      ],
      "stateMutability": "view",
      "type": "function"
    }
  ],
  "bytecode": "0x60c03461018557601f610a5a38819003918201601f19168301916001600160401b0383118484101761018a57808492604094855283398101031261018557610052602061004b836101a0565b92016101a0565b6080526000549060ff8260081c161591828093610178575b8015610161575b156101055760ff198116600117600055826100f3575b5060a0526100b8575b6040516108a590816101b582396080518181816106110152610832015260a051816102d10152f35b61ff0019600054166000557f7f26b83ff96e1f2b6a682f133852f6798a09c465da95921460cefb3847402498602060405160018152a1610090565b61ffff19166101011760005538610087565b60405162461bcd60e51b815260206004820152602e60248201527f496e697469616c697a61626c653a20636f6e747261637420697320616c72656160448201526d191e481a5b9a5d1a585b1a5e995960921b6064820152608490fd5b50303b1580156100715750600160ff821614610071565b50600160ff82161061006a565b600080fd5b634e487b7160e01b600052604160045260246000fd5b51906001600160a01b03821682036101855756fe608080604052600436101561001357600080fd5b60003560e01c9081632b956ff7146106775750806338b6a3a114610638578063572b6c05146105e75780636ec3877f146102595780638129fc1c1461012e578063a87430ba146100c65763ef257a321461006c57600080fd5b346100c15760203660031901126100c1576001600160a01b0361008d6106b0565b1660005260666020526100bd6100a96002604060002001610738565b6040519182916020835260208301906107de565b0390f35b600080fd5b346100c15760203660031901126100c1576001600160a01b036100e76106b0565b166000526066602052604060002060ff8154166100bd61010e600260018501549401610738565b6040519384931515845260208401526060604084015260608301906107de565b346100c15760003660031901126100c15760005460ff8160081c16159081809261024c575b8015610235575b156101ca5760ff198116600117600055816101b8575b5060016065540160655561018057005b61ff0019600054166000557f7f26b83ff96e1f2b6a682f133852f6798a09c465da95921460cefb3847402498602060405160018152a1005b61ffff19166101011760005581610170565b60405162461bcd60e51b815260206004820152602e60248201527f496e697469616c697a61626c653a20636f6e747261637420697320616c72656160448201527f647920696e697469616c697a65640000000000000000000000000000000000006064820152608490fd5b50303b15801561015a5750600160ff82161461015a565b50600160ff821610610153565b346100c15760403660031901126100c15767ffffffffffffffff600435116100c1573660236004350112156100c15767ffffffffffffffff60043560040135116100c15760243681600435600401356004350101116100c15780356001600160a01b0380821682036100c1576102cd61082f565b81807f0000000000000000000000000000000000000000000000000000000000000000169116036105a357600435600401351561055f57808216600052606660205260ff604060002054166105055760655490604051606081019080821067ffffffffffffffff8311176104f057600291604052600181526020810184815260405193601f199661036c602089601f6004356004013501160187610700565b6004803590810135808852908a0160208801376000602060043560040135880101526040840195865216600052606660205260406000209151151560ff801984541691161782555160018201550190519384519067ffffffffffffffff82116104dc57506103da82546106c6565b94601f8611610494575b602095508594601f831160011461043457509381929394600092610429575b50508160011b916000199060031b1c19161790555b600160655401606555604051908152f35b015190508580610403565b82169483600052866000209160005b87811061047d575083600195969710610464575b505050811b019055610418565b015160001960f88460031b161c19169055858080610457565b919288600181928685015181550194019201610443565b826000526020600020601f830160051c810196602084106104d2575b601f0160051c01955b8681106104c657506103e4565b600081556001016104b9565b90965086906104b0565b634e487b7160e01b60009081526041600452fd5b85634e487b7160e01b60005260416004526000fd5b60405162461bcd60e51b815260206004820152602d818501527f41207573657220697320616c7265616479207265676973746572656420746f2060448201526c3a3434b99030b2323932b9b99760991b6064820152608490fd5b60405162461bcd60e51b8152602060048201819052818501527f50726f66696c65205552492073686f756c64206e6f7420626520656d7074792e6044820152606490fd5b60405162461bcd60e51b815260206004820152601e818501527f43616e206f6e6c792062652063616c6c656420627920726567697374727900006044820152606490fd5b346100c15760203660031901126100c15760206106026106b0565b604051906001600160a01b03807f0000000000000000000000000000000000000000000000000000000000000000169116148152f35b346100c15760203660031901126100c1576001600160a01b036106596106b0565b166000526066602052602060ff604060002054166040519015158152f35b346100c15760203660031901126100c1576020906001600160a01b0361069b6106b0565b16600052606682526001604060002001548152f35b600435906001600160a01b03821682036100c157565b90600182811c921680156106f6575b60208310146106e057565b634e487b7160e01b600052602260045260246000fd5b91607f16916106d5565b90601f8019910116810190811067ffffffffffffffff82111761072257604052565b634e487b7160e01b600052604160045260246000fd5b906040519182600082549261074c846106c6565b9081845260019485811690816000146107bb5750600114610778575b505061077692500383610700565b565b9093915060005260209081600020936000915b8183106107a357505061077693508201013880610768565b8554888401850152948501948794509183019161078b565b91505061077694506020925060ff191682840152151560051b8201013880610768565b91908251928382526000905b84821061081757509280602093941161080a575b601f01601f1916010190565b60008382840101526107fe565b906020908180828501015190828601015201906107ea565b337f00000000000000000000000000000000000000000000000000000000000000006001600160a01b03160361086b5736601319013560601c90565b339056fea2646970667358221220a739b91a0455c82e4c3d98089ef53d92febed48ed4d03c25450f8da9a073789364736f6c634300080f0033",
  "linkReferences": {},
  "deployedLinkReferences": {}
}