{
  "contractName": "AuctionManager",
  "abi": [
    {
      "constant": true,
      "inputs": [
        {
          "internalType": "uint256",
          "name": "",
          "type": "uint256"
        }
      ],
      "name": "auctions",
      "outputs": [
        {
          "internalType": "uint256",
          "name": "publication_Id",
          "type": "uint256"
        },
        {
          "internalType": "uint256",
          "name": "auctionFloor",
          "type": "uint256"
        },
        {
          "internalType": "uint256",
          "name": "starting_time",
          "type": "uint256"
        },
        {
          "internalType": "uint256",
          "name": "duration",
          "type": "uint256"
        },
        {
          "internalType": "uint256",
          "name": "winning_bid_Id",
          "type": "uint256"
        },
        {
          "internalType": "enum AuctionManager.AuctionStatus",
          "name": "status",
          "type": "uint8"
        }
      ],
      "payable": false,
      "stateMutability": "view",
      "type": "function"
    },
    {
      "constant": true,
      "inputs": [
        {
          "internalType": "uint256",
          "name": "",
          "type": "uint256"
        },
        {
          "internalType": "uint256",
          "name": "",
          "type": "uint256"
        }
      ],
      "name": "bidOwners",
      "outputs": [
        {
          "internalType": "uint256",
          "name": "",
          "type": "uint256"
        }
      ],
      "payable": false,
      "stateMutability": "view",
      "type": "function"
    },
    {
      "constant": false,
      "inputs": [
        {
          "internalType": "address",
          "name": "_unicoinRegistry",
          "type": "address"
        }
      ],
      "name": "initialize",
      "outputs": [],
      "payable": false,
      "stateMutability": "nonpayable",
      "type": "function"
    },
    {
      "constant": false,
      "inputs": [
        {
          "internalType": "uint256",
          "name": "_publication_Id",
          "type": "uint256"
        },
        {
          "internalType": "uint256",
          "name": "_auctionFloor",
          "type": "uint256"
        },
        {
          "internalType": "uint256",
          "name": "_auctionStartTime",
          "type": "uint256"
        },
        {
          "internalType": "uint256",
          "name": "_auctionDuration",
          "type": "uint256"
        }
      ],
      "name": "_createAuction",
      "outputs": [
        {
          "internalType": "uint256",
          "name": "",
          "type": "uint256"
        }
      ],
      "payable": false,
      "stateMutability": "nonpayable",
      "type": "function"
    },
    {
      "constant": false,
      "inputs": [
        {
          "internalType": "bytes32",
          "name": "_bidHash",
          "type": "bytes32"
        },
        {
          "internalType": "uint256",
          "name": "_auction_Id",
          "type": "uint256"
        },
        {
          "internalType": "uint256",
          "name": "_bidder_Id",
          "type": "uint256"
        }
      ],
      "name": "commitSealedBid",
      "outputs": [
        {
          "internalType": "uint256",
          "name": "",
          "type": "uint256"
        }
      ],
      "payable": false,
      "stateMutability": "nonpayable",
      "type": "function"
    },
    {
      "constant": false,
      "inputs": [
        {
          "internalType": "uint256",
          "name": "_bid",
          "type": "uint256"
        },
        {
          "internalType": "uint256",
          "name": "_salt",
          "type": "uint256"
        },
        {
          "internalType": "uint256",
          "name": "_auction_Id",
          "type": "uint256"
        },
        {
          "internalType": "uint256",
          "name": "_bid_Id",
          "type": "uint256"
        },
        {
          "internalType": "uint256",
          "name": "_bidder_Id",
          "type": "uint256"
        }
      ],
      "name": "revealSealedBid",
      "outputs": [],
      "payable": false,
      "stateMutability": "nonpayable",
      "type": "function"
    },
    {
      "constant": false,
      "inputs": [
        {
          "internalType": "uint256",
          "name": "_auction_Id",
          "type": "uint256"
        }
      ],
      "name": "finalizeAuction",
      "outputs": [
        {
          "internalType": "uint256",
          "name": "",
          "type": "uint256"
        },
        {
          "internalType": "uint256",
          "name": "",
          "type": "uint256"
        },
        {
          "internalType": "uint256",
          "name": "",
          "type": "uint256"
        }
      ],
      "payable": false,
      "stateMutability": "nonpayable",
      "type": "function"
    },
    {
      "constant": false,
      "inputs": [
        {
          "internalType": "uint256",
          "name": "_auction_Id",
          "type": "uint256"
        }
      ],
      "name": "getAuctionStatus",
      "outputs": [
        {
          "internalType": "enum AuctionManager.AuctionStatus",
          "name": "",
          "type": "uint8"
        }
      ],
      "payable": false,
      "stateMutability": "nonpayable",
      "type": "function"
    },
    {
      "constant": true,
      "inputs": [
        {
          "internalType": "uint256",
          "name": "_bidder_Id",
          "type": "uint256"
        }
      ],
      "name": "getBidderBids",
      "outputs": [
        {
          "internalType": "uint256[]",
          "name": "",
          "type": "uint256[]"
        }
      ],
      "payable": false,
      "stateMutability": "view",
      "type": "function"
    }
  ],
  "bytecode": "0x608060405234801561001057600080fd5b50611900806100206000396000f3fe608060405234801561001057600080fd5b50600436106100935760003560e01c806394d0f15e1161006657806394d0f15e14610234578063b8f4e5a51461028a578063c4d66de8146102ea578063dc05d9521461032e578063e80838631461037a57610093565b80633288895a14610098578063571a26a0146100ee5780637765c52c14610161578063897f1e4a146101b1575b600080fd5b6100d8600480360360608110156100ae57600080fd5b810190808035906020019092919080359060200190929190803590602001909291905050506103ca565b6040518082815260200191505060405180910390f35b61011a6004803603602081101561010457600080fd5b8101908080359060200190929190505050610766565b6040518087815260200186815260200185815260200184815260200183815260200182600381111561014857fe5b60ff168152602001965050505050505060405180910390f35b61018d6004803603602081101561017757600080fd5b81019080803590602001909291905050506107bc565b6040518082600381111561019d57fe5b60ff16815260200191505060405180910390f35b6101dd600480360360208110156101c757600080fd5b81019080803590602001909291905050506109c9565b6040518080602001828103825283818151815260200191508051906020019060200280838360005b83811015610220578082015181840152602081019050610205565b505050509050019250505060405180910390f35b610288600480360360a081101561024a57600080fd5b810190808035906020019092919080359060200190929190803590602001909291908035906020019092919080359060200190929190505050610a34565b005b6102d4600480360360808110156102a057600080fd5b8101908080359060200190929190803590602001909291908035906020019092919080359060200190929190505050610e11565b6040518082815260200191505060405180910390f35b61032c6004803603602081101561030057600080fd5b81019080803573ffffffffffffffffffffffffffffffffffffffff169060200190929190505050611092565b005b6103646004803603604081101561034457600080fd5b810190808035906020019092919080359060200190929190505050611214565b6040518082815260200191505060405180910390f35b6103a66004803603602081101561039057600080fd5b8101908080359060200190929190505050611242565b60405180848152602001838152602001828152602001935050505060405180910390f35b6000603660009054906101000a900473ffffffffffffffffffffffffffffffffffffffff1673ffffffffffffffffffffffffffffffffffffffff163373ffffffffffffffffffffffffffffffffffffffff161461048f576040517f08c379a000000000000000000000000000000000000000000000000000000000815260040180806020018281038252601e8152602001807f43616e206f6e6c792062652063616c6c6564206279207265676973747279000081525060200191505060405180910390fd5b61049761169e565b603384815481106104a457fe5b90600052602060002090600702016040518060e0016040529081600082015481526020016001820154815260200160028201548152602001600382015481526020016004820180548060200260200160405190810160405280929190818152602001828054801561053457602002820191906000526020600020905b815481526020019060010190808311610520575b50505050508152602001600582015481526020016006820160009054906101000a900460ff16600381111561056557fe5b600381111561057057fe5b8152505090506001600381111561058357fe5b8160c00151600381111561059357fe5b146105e9576040517f08c379a00000000000000000000000000000000000000000000000000000000081526004018080602001828103825260278152602001806117ce6027913960400191505060405180910390fd5b6105f16116e6565b6040518060e0016040528087815260200160008152602001600081526020016000600281111561061d57fe5b815260200183600001518152602001868152602001858152509050600060016034839080600181540180825580915050906001820390600052602060002090600702016000909192909190915060008201518160000155602082015181600101556040820151816002015560608201518160030160006101000a81548160ff021916908360028111156106ac57fe5b02179055506080820151816004015560a0820151816005015560c082015181600601555050039050603386815481106106e157fe5b9060005260206000209060070201600401819080600181540180825580915050906001820390600052602060002001600090919290919091505550603560008681526020019081526020016000208590806001815401808255809150509060018203906000526020600020016000909192909190915055508093505050509392505050565b6033818154811061077357fe5b90600052602060002090600702016000915090508060000154908060010154908060020154908060030154908060050154908060060160009054906101000a900460ff16905086565b60006107c661169e565b603383815481106107d357fe5b90600052602060002090600702016040518060e0016040529081600082015481526020016001820154815260200160028201548152602001600382015481526020016004820180548060200260200160405190810160405280929190818152602001828054801561086357602002820191906000526020600020905b81548152602001906001019080831161084f575b50505050508152602001600582015481526020016006820160009054906101000a900460ff16600381111561089457fe5b600381111561089f57fe5b81525050905080604001514210156108fb576000603384815481106108c057fe5b906000526020600020906007020160060160006101000a81548160ff021916908360038111156108ec57fe5b021790555060009150506109c4565b8060400151421180156109175750806060015181604001510142105b156109665760016033848154811061092b57fe5b906000526020600020906007020160060160006101000a81548160ff0219169083600381111561095757fe5b021790555060019150506109c4565b80606001518160400151014211156109c25760026033848154811061098757fe5b906000526020600020906007020160060160006101000a81548160ff021916908360038111156109b357fe5b021790555060029150506109c4565b505b919050565b606060356000838152602001908152602001600020805480602002602001604051908101604052809291908181526020018280548015610a2857602002820191906000526020600020905b815481526020019060010190808311610a14575b50505050509050919050565b603660009054906101000a900473ffffffffffffffffffffffffffffffffffffffff1673ffffffffffffffffffffffffffffffffffffffff163373ffffffffffffffffffffffffffffffffffffffff1614610af7576040517f08c379a000000000000000000000000000000000000000000000000000000000815260040180806020018281038252601e8152602001807f43616e206f6e6c792062652063616c6c6564206279207265676973747279000081525060200191505060405180910390fd5b610aff6116e6565b60348381548110610b0c57fe5b90600052602060002090600702016040518060e00160405290816000820154815260200160018201548152602001600282015481526020016003820160009054906101000a900460ff166002811115610b6157fe5b6002811115610b6c57fe5b81526020016004820154815260200160058201548152602001600682015481525050905060026003811115610b9d57fe5b610ba6856107bc565b6003811115610bb157fe5b14610c07576040517f08c379a00000000000000000000000000000000000000000000000000000000081526004018080602001828103825260278152602001806117ce6027913960400191505060405180910390fd5b818160c0015114610c63576040517f08c379a00000000000000000000000000000000000000000000000000000000081526004018080602001828103825260248152602001806118226024913960400191505060405180910390fd5b60006002811115610c7057fe5b81606001516002811115610c8057fe5b14610cf3576040517f08c379a000000000000000000000000000000000000000000000000000000000815260040180806020018281038252601f8152602001807f43616e206f6e6c792072657665616c206120636f6d6d6974746564206269640081525060200191505060405180910390fd5b60008686604051602001808381526020018281526020019250505060405160208183030381529060405280519060200120905080826000015114610d82576040517f08c379a000000000000000000000000000000000000000000000000000000000815260040180806020018281038252602d8152602001806117f5602d913960400191505060405180910390fd5b8660348581548110610d9057fe5b9060005260206000209060070201600101819055508560348581548110610db357fe5b906000526020600020906007020160020181905550600160348581548110610dd757fe5b906000526020600020906007020160030160006101000a81548160ff02191690836002811115610e0357fe5b021790555050505050505050565b6000603660009054906101000a900473ffffffffffffffffffffffffffffffffffffffff1673ffffffffffffffffffffffffffffffffffffffff163373ffffffffffffffffffffffffffffffffffffffff1614610ed6576040517f08c379a000000000000000000000000000000000000000000000000000000000815260040180806020018281038252601e8152602001807f43616e206f6e6c792062652063616c6c6564206279207265676973747279000081525060200191505060405180910390fd5b42831015610f2f576040517f08c379a000000000000000000000000000000000000000000000000000000000815260040180806020018281038252602a8152602001806117a4602a913960400191505060405180910390fd5b6000821015610f89576040517f08c379a00000000000000000000000000000000000000000000000000000000081526004018080602001828103825260288152602001806118a46028913960400191505060405180910390fd5b6060610f9361169e565b6040518060e001604052808881526020018781526020018681526020018581526020018381526020016000815260200160006003811115610fd057fe5b8152509050600060016033839080600181540180825580915050906001820390600052602060002090600702016000909192909190915060008201518160000155602082015181600101556040820151816002015560608201518160030155608082015181600401908051906020019061104b929190611731565b5060a0820151816005015560c08201518160060160006101000a81548160ff0219169083600381111561107a57fe5b02179055505050039050809350505050949350505050565b600060019054906101000a900460ff16806110b157506110b061168d565b5b806110c857506000809054906101000a900460ff16155b61111d576040517f08c379a000000000000000000000000000000000000000000000000000000000815260040180806020018281038252602e815260200180611876602e913960400191505060405180910390fd5b60008060019054906101000a900460ff16159050801561116d576001600060016101000a81548160ff02191690831515021790555060016000806101000a81548160ff0219169083151502179055505b81603660006101000a81548173ffffffffffffffffffffffffffffffffffffffff021916908373ffffffffffffffffffffffffffffffffffffffff16021790555081603760006101000a81548173ffffffffffffffffffffffffffffffffffffffff021916908373ffffffffffffffffffffffffffffffffffffffff16021790555080156112105760008060016101000a81548160ff0219169083151502179055505b5050565b6035602052816000526040600020818154811061122d57fe5b90600052602060002001600091509150505481565b6000806000603660009054906101000a900473ffffffffffffffffffffffffffffffffffffffff1673ffffffffffffffffffffffffffffffffffffffff163373ffffffffffffffffffffffffffffffffffffffff161461130a576040517f08c379a000000000000000000000000000000000000000000000000000000000815260040180806020018281038252601e8152602001807f43616e206f6e6c792062652063616c6c6564206279207265676973747279000081525060200191505060405180910390fd5b6002600381111561131757fe5b611320856107bc565b600381111561132b57fe5b14611381576040517f08c379a00000000000000000000000000000000000000000000000000000000081526004018080602001828103825260308152602001806118466030913960400191505060405180910390fd5b61138961169e565b6033858154811061139657fe5b90600052602060002090600702016040518060e0016040529081600082015481526020016001820154815260200160028201548152602001600382015481526020016004820180548060200260200160405190810160405280929190818152602001828054801561142657602002820191906000526020600020905b815481526020019060010190808311611412575b50505050508152602001600582015481526020016006820160009054906101000a900460ff16600381111561145757fe5b600381111561146257fe5b815250509050600081608001515190506000809050600080905060008090505b838110156115e957600060348660800151838151811061149e57fe5b6020026020010151815481106114b057fe5b9060005260206000209060070201600101549050828111156115db57603760009054906101000a900473ffffffffffffffffffffffffffffffffffffffff1673ffffffffffffffffffffffffffffffffffffffff166368c5051f60348860800151858151811061151c57fe5b60200260200101518154811061152e57fe5b906000526020600020906007020160060154836040518363ffffffff1660e01b8152600401808381526020018281526020019250505060206040518083038186803b15801561157c57600080fd5b505afa158015611590573d6000803e3d6000fd5b505050506040513d60208110156115a657600080fd5b8101908080519060200190929190505050156115da57856080015182815181106115cc57fe5b602002602001015193508092505b5b508080600101915050611482565b5060008211156116575760036033898154811061160257fe5b906000526020600020906007020160060160006101000a81548160ff0219169083600381111561162e57fe5b0217905550816033898154811061164157fe5b9060005260206000209060070201600501819055505b806034838154811061166557fe5b9060005260206000209060070201600601548560000151965096509650505050509193909250565b600080303b90506000811491505090565b6040518060e00160405280600081526020016000815260200160008152602001600081526020016060815260200160008152602001600060038111156116e057fe5b81525090565b6040518060e001604052806000801916815260200160008152602001600081526020016000600281111561171657fe5b81526020016000815260200160008152602001600081525090565b82805482825590600052602060002090810192821561176d579160200282015b8281111561176c578251825591602001919060010190611751565b5b50905061177a919061177e565b5090565b6117a091905b8082111561179c576000816000905550600101611784565b5090565b9056fe41756374696f6e4d616e616765723a3a496e76616c69642061756374696f6e2073746172742074696d6543616e206f6e6c7920636f6d6d697420647572696e672074686520636f6d6d6974207068617365436f6d6d69747465642062696420646f6573206e6f74206d61746368207468652072657665616c6564206269644f6e6c7920746865206269646465722063616e2072657665616c2074686569722062696443616e206f6e6c792066696e616c697a6520616e2061756374696f6e20696e207468652072657665616c207374616765436f6e747261637420696e7374616e63652068617320616c7265616479206265656e20696e697469616c697a656441756374696f6e4d616e616765723a3a496e76616c69642061756374696f6e206475726174696f6ea265627a7a72315820f2303a202322205768c7cdf124c19ebfdac7f568d440ef0d021f98d7789a6d5964736f6c634300050c0032",
  "source": "pragma solidity ^0.5.12;\n\nimport \"@openzeppelin/contracts-ethereum-package/contracts/token/ERC20/ERC20.sol\";\n\nimport \"@openzeppelin/upgrades/contracts/Initializable.sol\";\n\nimport \"./UnicoinRegistry.sol\";\n\ncontract AuctionManager is Initializable {\n    enum BidStatus {Committed, Revealed, Winner}\n\n    enum AuctionStatus {Pending, Commit, Reveal, Finalized}\n\n    struct Auction {\n        uint256 publication_Id;\n        uint256 auctionFloor;\n        uint256 starting_time;\n        uint256 duration;\n        uint256[] auction_bid_ids;\n        uint256 winning_bid_Id;\n        AuctionStatus status;\n    }\n\n    Auction[] public auctions;\n\n    struct Bid {\n        bytes32 commitBid;\n        uint256 revealedBid;\n        uint256 revealedSalt;\n        BidStatus status;\n        uint256 publication_Id;\n        uint256 auction_Id;\n        uint256 bidder_Id; // owner of the bid\n    }\n\n    Bid[] bids;\n\n    // Maps all bidders' IDs to their userID\n    mapping(uint256 => uint256[]) public bidOwners;\n\n    address registry;\n\n    UnicoinRegistry unicoinRegistry;\n\n    modifier onlyRegistry() {\n        require(msg.sender == registry, \"Can only be called by registry\");\n        _;\n    }\n\n    function initialize(address _unicoinRegistry) public initializer {\n        registry = _unicoinRegistry;\n        unicoinRegistry = UnicoinRegistry(_unicoinRegistry);\n    }\n\n    function _createAuction(\n        uint256 _publication_Id,\n        uint256 _auctionFloor,\n        uint256 _auctionStartTime,\n        uint256 _auctionDuration\n    ) public onlyRegistry returns (uint256) {\n        require(\n            _auctionStartTime >= now,\n            \"AuctionManager::Invalid auction start time\"\n        );\n        require(\n            _auctionDuration >= 0,\n            \"AuctionManager::Invalid auction duration\"\n        );\n\n        uint256[] memory auction_bid_ids;\n        Auction memory auction = Auction(\n            _publication_Id,\n            _auctionFloor,\n            _auctionStartTime,\n            _auctionDuration,\n            auction_bid_ids,\n            0, //No winning bid in the begining\n            AuctionStatus.Pending\n        );\n\n        uint256 auctionId = auctions.push(auction) - 1;\n        return auctionId;\n    }\n\n    function commitSealedBid(\n        bytes32 _bidHash,\n        uint256 _auction_Id,\n        uint256 _bidder_Id\n    ) public onlyRegistry returns (uint256) {\n        Auction memory auction = auctions[_auction_Id];\n        require(\n            auction.status == AuctionStatus.Commit,\n            \"Can only commit during the commit phase\"\n        );\n        Bid memory bid = Bid(\n            _bidHash,\n            0,\n            0,\n            BidStatus.Committed,\n            auction.publication_Id,\n            _auction_Id,\n            _bidder_Id\n        );\n        uint256 bidId = bids.push(bid) - 1;\n        auctions[_auction_Id].auction_bid_ids.push(bidId);\n        bidOwners[_bidder_Id].push(_bidder_Id);\n\n        return bidId;\n    }\n\n    function revealSealedBid(\n        uint256 _bid,\n        uint256 _salt,\n        uint256 _auction_Id,\n        uint256 _bid_Id,\n        uint256 _bidder_Id\n    ) public onlyRegistry {\n        Bid memory bid = bids[_bid_Id];\n        require(\n            getAuctionStatus(_auction_Id) == AuctionStatus.Reveal,\n            \"Can only commit during the commit phase\"\n        );\n        require(\n            bid.bidder_Id == _bidder_Id,\n            \"Only the bidder can reveal their bid\"\n        );\n        require(\n            bid.status == BidStatus.Committed,\n            \"Can only reveal a committed bid\"\n        );\n\n        bytes32 revealedBidHash = keccak256(abi.encode(_bid, _salt));\n\n        require(\n            bid.commitBid == revealedBidHash,\n            \"Committed bid does not match the revealed bid\"\n        );\n\n        bids[_bid_Id].revealedBid = _bid;\n        bids[_bid_Id].revealedSalt = _salt;\n        bids[_bid_Id].status = BidStatus.Revealed;\n    }\n\n    function finalizeAuction(uint256 _auction_Id)\n        public\n        onlyRegistry\n        returns (uint256, uint256, uint256)\n    {\n        require(\n            getAuctionStatus(_auction_Id) == AuctionStatus.Reveal,\n            \"Can only finalize an auction in the reveal stage\"\n        );\n\n        Auction memory auction = auctions[_auction_Id];\n\n        uint256 numOfBids = auction.auction_bid_ids.length;\n\n        uint256 leadingBid = 0;\n        uint256 leadingBidAmount = 0;\n\n        for (uint256 i = 0; i < numOfBids; i++) {\n            uint256 bidAmount = bids[auction.auction_bid_ids[i]].revealedBid;\n            if (bidAmount > leadingBidAmount) {\n                //need to check that the bidder has enough balance and enough allowance to be able to\n                // win the auction. Ask the vault via the registrey for this information.\n                if (\n                    unicoinRegistry.canBidderPay(\n                        bids[auction.auction_bid_ids[i]].bidder_Id,\n                        bidAmount\n                    )\n                ) {\n                    leadingBid = auction.auction_bid_ids[i];\n                    leadingBidAmount = bidAmount;\n                }\n            }\n        }\n\n        if (leadingBid > 0) {\n            auctions[_auction_Id].status = AuctionStatus.Finalized;\n            auctions[_auction_Id].winning_bid_Id = leadingBid;\n        }\n\n        return (\n            leadingBidAmount,\n            bids[leadingBid].bidder_Id,\n            auction.publication_Id\n        );\n    }\n\n    function getAuctionStatus(uint256 _auction_Id)\n        public\n        returns (AuctionStatus)\n    {\n        Auction memory auction = auctions[_auction_Id];\n        if (now < auction.starting_time) {\n            auctions[_auction_Id].status = AuctionStatus.Pending;\n            return AuctionStatus.Pending;\n        }\n\n        if (\n            now > auction.starting_time &&\n            now < (auction.starting_time + auction.duration)\n        ) {\n            auctions[_auction_Id].status = AuctionStatus.Commit;\n            return AuctionStatus.Commit;\n        }\n\n        if (now > (auction.starting_time + auction.duration)) {\n            auctions[_auction_Id].status = AuctionStatus.Reveal;\n            return AuctionStatus.Reveal;\n        }\n    }\n\n    function getBidderBids(uint256 _bidder_Id)\n        public\n        view\n        returns (uint256[] memory)\n    {\n        return bidOwners[_bidder_Id];\n    }\n}\n",
  "sourcePath": "/Users/chris/Projects/unicoindapp/contracts/AuctionManager.sol",
  "compiler": {
    "name": "solc",
    "version": "0.5.12+commit.7709ece9.Emscripten.clang"
  },
  "schemaVersion": "3.0.16",
  "updatedAt": "2019-11-27T09:23:05.755Z",
  "devdoc": {
    "methods": {}
  },
  "userdoc": {
    "methods": {}
  }
}