{
  "contractName": "AuctionManager",
  "abi": [
    {
      "constant": true,
      "inputs": [
        {
          "internalType": "uint256",
          "name": "",
          "type": "uint256"
        }
      ],
      "name": "auctions",
      "outputs": [
        {
          "internalType": "uint256",
          "name": "publication_Id",
          "type": "uint256"
        },
        {
          "internalType": "uint256",
          "name": "auctionFloor",
          "type": "uint256"
        },
        {
          "internalType": "uint256",
          "name": "starting_time",
          "type": "uint256"
        },
        {
          "internalType": "uint256",
          "name": "duration",
          "type": "uint256"
        },
        {
          "internalType": "uint256",
          "name": "winning_bid_Id",
          "type": "uint256"
        },
        {
          "internalType": "enum AuctionManager.AuctionStatus",
          "name": "status",
          "type": "uint8"
        }
      ],
      "payable": false,
      "stateMutability": "view",
      "type": "function"
    },
    {
      "constant": true,
      "inputs": [
        {
          "internalType": "uint256",
          "name": "",
          "type": "uint256"
        },
        {
          "internalType": "uint256",
          "name": "",
          "type": "uint256"
        }
      ],
      "name": "bidOwners",
      "outputs": [
        {
          "internalType": "uint256",
          "name": "",
          "type": "uint256"
        }
      ],
      "payable": false,
      "stateMutability": "view",
      "type": "function"
    },
    {
      "constant": false,
      "inputs": [
        {
          "internalType": "address",
          "name": "_unicoinRegistry",
          "type": "address"
        }
      ],
      "name": "initialize",
      "outputs": [],
      "payable": false,
      "stateMutability": "nonpayable",
      "type": "function"
    },
    {
      "constant": false,
      "inputs": [
        {
          "internalType": "uint256",
          "name": "_publication_Id",
          "type": "uint256"
        },
        {
          "internalType": "uint256",
          "name": "_auctionFloor",
          "type": "uint256"
        },
        {
          "internalType": "uint256",
          "name": "_auctionStartTime",
          "type": "uint256"
        },
        {
          "internalType": "uint256",
          "name": "_auctionDuration",
          "type": "uint256"
        }
      ],
      "name": "_createAuction",
      "outputs": [
        {
          "internalType": "uint256",
          "name": "",
          "type": "uint256"
        }
      ],
      "payable": false,
      "stateMutability": "nonpayable",
      "type": "function"
    },
    {
      "constant": false,
      "inputs": [
        {
          "internalType": "bytes32",
          "name": "_bidHash",
          "type": "bytes32"
        },
        {
          "internalType": "uint256",
          "name": "_auction_Id",
          "type": "uint256"
        },
        {
          "internalType": "uint256",
          "name": "_bidder_Id",
          "type": "uint256"
        }
      ],
      "name": "_commitSealedBid",
      "outputs": [
        {
          "internalType": "uint256",
          "name": "",
          "type": "uint256"
        }
      ],
      "payable": false,
      "stateMutability": "nonpayable",
      "type": "function"
    },
    {
      "constant": false,
      "inputs": [
        {
          "internalType": "uint256",
          "name": "_bid",
          "type": "uint256"
        },
        {
          "internalType": "uint256",
          "name": "_salt",
          "type": "uint256"
        },
        {
          "internalType": "uint256",
          "name": "_auction_Id",
          "type": "uint256"
        },
        {
          "internalType": "uint256",
          "name": "_bid_Id",
          "type": "uint256"
        },
        {
          "internalType": "uint256",
          "name": "_bidder_Id",
          "type": "uint256"
        }
      ],
      "name": "revealSealedBid",
      "outputs": [],
      "payable": false,
      "stateMutability": "nonpayable",
      "type": "function"
    },
    {
      "constant": false,
      "inputs": [
        {
          "internalType": "uint256",
          "name": "_auction_Id",
          "type": "uint256"
        }
      ],
      "name": "finalizeAuction",
      "outputs": [
        {
          "internalType": "uint256",
          "name": "",
          "type": "uint256"
        },
        {
          "internalType": "uint256",
          "name": "",
          "type": "uint256"
        },
        {
          "internalType": "uint256",
          "name": "",
          "type": "uint256"
        }
      ],
      "payable": false,
      "stateMutability": "nonpayable",
      "type": "function"
    },
    {
      "constant": false,
      "inputs": [
        {
          "internalType": "uint256",
          "name": "_auction_Id",
          "type": "uint256"
        }
      ],
      "name": "getAuctionStatus",
      "outputs": [
        {
          "internalType": "enum AuctionManager.AuctionStatus",
          "name": "",
          "type": "uint8"
        }
      ],
      "payable": false,
      "stateMutability": "nonpayable",
      "type": "function"
    },
    {
      "constant": true,
      "inputs": [
        {
          "internalType": "uint256",
          "name": "_bidder_Id",
          "type": "uint256"
        }
      ],
      "name": "getBidderBids",
      "outputs": [
        {
          "internalType": "uint256[]",
          "name": "",
          "type": "uint256[]"
        }
      ],
      "payable": false,
      "stateMutability": "view",
      "type": "function"
    },
    {
      "constant": false,
      "inputs": [
        {
          "internalType": "uint256",
          "name": "_auction_Id",
          "type": "uint256"
        },
        {
          "internalType": "uint256",
          "name": "_newStartTime",
          "type": "uint256"
        }
      ],
      "name": "updateAuctionStartTime",
      "outputs": [],
      "payable": false,
      "stateMutability": "nonpayable",
      "type": "function"
    },
    {
      "constant": true,
      "inputs": [
        {
          "internalType": "uint256",
          "name": "_auction_Id",
          "type": "uint256"
        }
      ],
      "name": "getAuctionBids",
      "outputs": [
        {
          "internalType": "uint256[]",
          "name": "",
          "type": "uint256[]"
        }
      ],
      "payable": false,
      "stateMutability": "view",
      "type": "function"
    },
    {
      "constant": true,
      "inputs": [
        {
          "internalType": "uint256",
          "name": "_bid_Id",
          "type": "uint256"
        }
      ],
      "name": "getBid",
      "outputs": [
        {
          "internalType": "bytes32",
          "name": "",
          "type": "bytes32"
        },
        {
          "internalType": "uint256",
          "name": "",
          "type": "uint256"
        },
        {
          "internalType": "uint256",
          "name": "",
          "type": "uint256"
        },
        {
          "internalType": "uint8",
          "name": "",
          "type": "uint8"
        },
        {
          "internalType": "uint256",
          "name": "",
          "type": "uint256"
        },
        {
          "internalType": "uint256",
          "name": "",
          "type": "uint256"
        },
        {
          "internalType": "uint256",
          "name": "",
          "type": "uint256"
        }
      ],
      "payable": false,
      "stateMutability": "view",
      "type": "function"
    },
    {
      "constant": true,
      "inputs": [
        {
          "internalType": "uint256",
          "name": "_auction_Id",
          "type": "uint256"
        }
      ],
      "name": "getNumberOfBidsInAuction",
      "outputs": [
        {
          "internalType": "uint256",
          "name": "",
          "type": "uint256"
        }
      ],
      "payable": false,
      "stateMutability": "view",
      "type": "function"
    },
    {
      "constant": true,
      "inputs": [
        {
          "internalType": "uint256",
          "name": "_auction_Id",
          "type": "uint256"
        }
      ],
      "name": "getAuction",
      "outputs": [
        {
          "internalType": "uint256",
          "name": "",
          "type": "uint256"
        },
        {
          "internalType": "uint256",
          "name": "",
          "type": "uint256"
        },
        {
          "internalType": "uint256",
          "name": "",
          "type": "uint256"
        },
        {
          "internalType": "uint256",
          "name": "",
          "type": "uint256"
        },
        {
          "internalType": "uint256[]",
          "name": "",
          "type": "uint256[]"
        },
        {
          "internalType": "uint256",
          "name": "",
          "type": "uint256"
        },
        {
          "internalType": "uint8",
          "name": "",
          "type": "uint8"
        }
      ],
      "payable": false,
      "stateMutability": "view",
      "type": "function"
    }
  ],
  "bytecode": "0x608060405234801561001057600080fd5b50611932806100206000396000f3fe608060405234801561001057600080fd5b50600436106100ea5760003560e01c8063908e27eb1161008c578063b8f4e5a511610066578063b8f4e5a5146103c8578063c4d66de8146103f7578063dc05d9521461041d578063e808386314610440576100ea565b8063908e27eb1461034557806394d0f15e1461036e5780639ae001ff146103a5576100ea565b80637765c52c116100c85780637765c52c1461021757806378bd7935146102585780637a88dece146102f9578063897f1e4a14610328576100ea565b80633c889e6f146100ef578063571a26a01461014657806370b4768e146101aa575b600080fd5b61010c6004803603602081101561010557600080fd5b503561047b565b6040805197885260208801969096528686019490945260ff9092166060860152608085015260a084015260c0830152519081900360e00190f35b6101636004803603602081101561015c57600080fd5b5035610564565b6040518087815260200186815260200185815260200184815260200183815260200182600381111561019157fe5b60ff168152602001965050505050505060405180910390f35b6101c7600480360360208110156101c057600080fd5b50356105aa565b60408051602080825283518183015283519192839290830191858101910280838360005b838110156102035781810151838201526020016101eb565b505050509050019250505060405180910390f35b6102346004803603602081101561022d57600080fd5b5035610621565b6040518082600381111561024457fe5b60ff16815260200191505060405180910390f35b6102756004803603602081101561026e57600080fd5b5035610818565b60405180888152602001878152602001868152602001858152602001806020018481526020018360ff1660ff168152602001828103825285818151815260200191508051906020019060200280838360005b838110156102df5781810151838201526020016102c7565b505050509050019850505050505050505060405180910390f35b6103166004803603602081101561030f57600080fd5b503561094a565b60408051918252519081900360200190f35b6101c76004803603602081101561033e57600080fd5b5035610973565b6103166004803603606081101561035b57600080fd5b50803590602081013590604001356109d3565b6103a3600480360360a081101561038457600080fd5b5080359060208101359060408101359060608101359060800135610d11565b005b6103a3600480360360408110156103bb57600080fd5b5080359060200135610ff2565b610316600480360360808110156103de57600080fd5b5080359060208101359060408101359060600135611078565b6103a36004803603602081101561040d57600080fd5b50356001600160a01b03166112d9565b6103166004803603604081101561043357600080fd5b50803590602001356113a4565b61045d6004803603602081101561045657600080fd5b50356113d2565b60408051938452602084019290925282820152519081900360600190f35b600080600080600080600061048e6116c5565b6034898154811061049b57fe5b90600052602060002090600702016040518060e00160405290816000820154815260200160018201548152602001600282015481526020016003820160009054906101000a900460ff1660028111156104f057fe5b60028111156104fb57fe5b8152602001600482015481526020016005820154815260200160068201548152505090508060000151816020015182604001518360600151600281111561053e57fe5b608085015160a086015160c090960151949e939d50919b50995097509195509350915050565b6033818154811061057157fe5b60009182526020909120600790910201805460018201546002830154600384015460058501546006909501549395509193909260ff1686565b6060603382815481106105b957fe5b906000526020600020906007020160040180548060200260200160405190810160405280929190818152602001828054801561061457602002820191906000526020600020905b815481526020019060010190808311610600575b505050505090505b919050565b600061062b611702565b6033838154811061063857fe5b90600052602060002090600702016040518060e001604052908160008201548152602001600182015481526020016002820154815260200160038201548152602001600482018054806020026020016040519081016040528092919081815260200182805480156106c857602002820191906000526020600020905b8154815260200190600101908083116106b4575b505050918352505060058201546020820152600682015460409091019060ff1660038111156106f357fe5b60038111156106fe57fe5b81525050905080604001514210156107555760006033848154811061071f57fe5b60009182526020909120600660079092020101805460ff1916600183600381111561074657fe5b0217905550600091505061061c565b8060400151421180156107715750806060015181604001510142105b156107bb5760016033848154811061078557fe5b60009182526020909120600660079092020101805460ff191660018360038111156107ac57fe5b0217905550600191505061061c565b8060600151816040015101421115610812576002603384815481106107dc57fe5b60009182526020909120600660079092020101805460ff1916600183600381111561080357fe5b0217905550600291505061061c565b50919050565b600080600080606060008061082b611702565b6033898154811061083857fe5b90600052602060002090600702016040518060e001604052908160008201548152602001600182015481526020016002820154815260200160038201548152602001600482018054806020026020016040519081016040528092919081815260200182805480156108c857602002820191906000526020600020905b8154815260200190600101908083116108b4575b505050918352505060058201546020820152600682015460409091019060ff1660038111156108f357fe5b60038111156108fe57fe5b815250509050806000015181602001518260400151836060015184608001518560a001518660c00151600381111561093257fe5b959f949e50929c50909a509850965090945092505050565b60006033828154811061095957fe5b600091825260209091206004600790920201015492915050565b60008181526035602090815260409182902080548351818402810184019094528084526060939283018282801561061457602002820191906000526020600020908154815260200190600101908083116106005750505050509050919050565b6036546000906001600160a01b03163314610a35576040805162461bcd60e51b815260206004820152601e60248201527f43616e206f6e6c792062652063616c6c65642062792072656769737472790000604482015290519081900360640190fd5b610a3d611702565b60338481548110610a4a57fe5b90600052602060002090600702016040518060e00160405290816000820154815260200160018201548152602001600282015481526020016003820154815260200160048201805480602002602001604051908101604052809291908181526020018280548015610ada57602002820191906000526020600020905b815481526020019060010190808311610ac6575b505050918352505060058201546020820152600682015460409091019060ff166003811115610b0557fe5b6003811115610b1057fe5b90525090506001610b2085610621565b6003811115610b2b57fe5b14610b675760405162461bcd60e51b81526004018080602001828103825260278152602001806118006027913960400191505060405180910390fd5b610b6f6116c5565b6040518060e00160405280878152602001600081526020016000815260200160006002811115610b9b57fe5b81528351602080830191909152604080830189905260609283018890526034805460018181018084556000938452875160079093027f46bddb1178e94d7f2892ff5f366840eb658911794f2c3a44c450aa2c505186c18101938455958801517f46bddb1178e94d7f2892ff5f366840eb658911794f2c3a44c450aa2c505186c2870155938701517f46bddb1178e94d7f2892ff5f366840eb658911794f2c3a44c450aa2c505186c3860155948601517f46bddb1178e94d7f2892ff5f366840eb658911794f2c3a44c450aa2c505186c490940180549697509195929387939192909160ff191686836002811115610c8e57fe5b02179055506080820151816004015560a0820151816005015560c08201518160060155505003905060338681548110610cc357fe5b60009182526020808320600460079093020191909101805460018181018355918452828420018490558783526035825260408320805491820181558352912001819055925050509392505050565b6036546001600160a01b03163314610d70576040805162461bcd60e51b815260206004820152601e60248201527f43616e206f6e6c792062652063616c6c65642062792072656769737472790000604482015290519081900360640190fd5b610d786116c5565b60348381548110610d8557fe5b90600052602060002090600702016040518060e00160405290816000820154815260200160018201548152602001600282015481526020016003820160009054906101000a900460ff166002811115610dda57fe5b6002811115610de557fe5b8152600482015460208201526005820154604082015260069091015460609091015290506002610e1485610621565b6003811115610e1f57fe5b14610e5b5760405162461bcd60e51b81526004018080602001828103825260278152602001806117d96027913960400191505060405180910390fd5b818160c0015114610e9d5760405162461bcd60e51b81526004018080602001828103825260248152602001806118546024913960400191505060405180910390fd5b600081606001516002811115610eaf57fe5b14610f01576040805162461bcd60e51b815260206004820152601f60248201527f43616e206f6e6c792072657665616c206120636f6d6d69747465642062696400604482015290519081900360640190fd5b6040805160208082018990528183018890528251808303840181526060909201909252805191012081518114610f685760405162461bcd60e51b815260040180806020018281038252602d815260200180611827602d913960400191505060405180910390fd5b8660348581548110610f7657fe5b9060005260206000209060070201600101819055508560348581548110610f9957fe5b906000526020600020906007020160020181905550600160348581548110610fbd57fe5b60009182526020909120600360079092020101805460ff19166001836002811115610fe457fe5b021790555050505050505050565b6036546001600160a01b03163314611051576040805162461bcd60e51b815260206004820152601e60248201527f43616e206f6e6c792062652063616c6c65642062792072656769737472790000604482015290519081900360640190fd5b806033838154811061105f57fe5b9060005260206000209060070201600201819055505050565b6036546000906001600160a01b031633146110da576040805162461bcd60e51b815260206004820152601e60248201527f43616e206f6e6c792062652063616c6c65642062792072656769737472790000604482015290519081900360640190fd5b428310156111195760405162461bcd60e51b815260040180806020018281038252602a8152602001806117af602a913960400191505060405180910390fd5b600082116111585760405162461bcd60e51b81526004018080602001828103825260288152602001806118d66028913960400191505060405180910390fd5b6060611162611702565b6040518060e00160405280888152602001878152602001868152602001858152602001838152602001600081526020016000600381111561119f57fe5b90526033805460018181018084556000938452845160079093027f82a75bdeeae8604d839476ae9efd8b0e15aa447e21bfd7f41283bb54e22c9a8281019384556020808701517f82a75bdeeae8604d839476ae9efd8b0e15aa447e21bfd7f41283bb54e22c9a8383015560408701517f82a75bdeeae8604d839476ae9efd8b0e15aa447e21bfd7f41283bb54e22c9a8483015560608701517f82a75bdeeae8604d839476ae9efd8b0e15aa447e21bfd7f41283bb54e22c9a85830155608087015180519798509596939592948894909361129d937f82a75bdeeae8604d839476ae9efd8b0e15aa447e21bfd7f41283bb54e22c9a8601920190611749565b5060a0820151600582015560c082015160068201805460ff191660018360038111156112c557fe5b021790555050500398975050505050505050565b600054610100900460ff16806112f257506112f26116be565b80611300575060005460ff16155b61133b5760405162461bcd60e51b815260040180806020018281038252602e8152602001806118a8602e913960400191505060405180910390fd5b600054610100900460ff16158015611366576000805460ff1961ff0019909116610100171660011790555b6036805473ffffffffffffffffffffffffffffffffffffffff19166001600160a01b03841617905580156113a0576000805461ff00191690555b5050565b603560205281600052604060002081815481106113bd57fe5b90600052602060002001600091509150505481565b603654600090819081906001600160a01b03163314611438576040805162461bcd60e51b815260206004820152601e60248201527f43616e206f6e6c792062652063616c6c65642062792072656769737472790000604482015290519081900360640190fd5b600261144385610621565b600381111561144e57fe5b1461148a5760405162461bcd60e51b81526004018080602001828103825260308152602001806118786030913960400191505060405180910390fd5b611492611702565b6033858154811061149f57fe5b90600052602060002090600702016040518060e0016040529081600082015481526020016001820154815260200160028201548152602001600382015481526020016004820180548060200260200160405190810160405280929190818152602001828054801561152f57602002820191906000526020600020905b81548152602001906001019080831161151b575b505050918352505060058201546020820152600682015460409091019060ff16600381111561155a57fe5b600381111561156557fe5b905250608081015151909150600080805b838110156115e757600060348660800151838151811061159257fe5b6020026020010151815481106115a457fe5b9060005260206000209060070201600101549050828111156115de57856080015182815181106115d057fe5b602002602001015193508092505b50600101611576565b508115611688576003603389815481106115fd57fe5b60009182526020909120600660079092020101805460ff1916600183600381111561162457fe5b0217905550816033898154811061163757fe5b90600052602060002090600702016005018190555060026034838154811061165b57fe5b60009182526020909120600360079092020101805460ff1916600183600281111561168257fe5b02179055505b806034838154811061169657fe5b9060005260206000209060070201600601548560000151965096509650505050509193909250565b303b155b90565b6040805160e08101825260008082526020820181905291810182905290606082019081526020016000815260200160008152602001600081525090565b6040518060e001604052806000815260200160008152602001600081526020016000815260200160608152602001600081526020016000600381111561174457fe5b905290565b828054828255906000526020600020908101928215611784579160200282015b82811115611784578251825591602001919060010190611769565b50611790929150611794565b5090565b6116c291905b80821115611790576000815560010161179a56fe41756374696f6e4d616e616765723a3a496e76616c69642061756374696f6e2073746172742074696d6543616e206f6e6c7920636f6d6d697420647572696e67207468652072657665616c20706861736543616e206f6e6c7920636f6d6d697420647572696e672074686520636f6d6d6974207068617365436f6d6d69747465642062696420646f6573206e6f74206d61746368207468652072657665616c6564206269644f6e6c7920746865206269646465722063616e2072657665616c2074686569722062696443616e206f6e6c792066696e616c697a6520616e2061756374696f6e20696e207468652072657665616c207374616765436f6e747261637420696e7374616e63652068617320616c7265616479206265656e20696e697469616c697a656441756374696f6e4d616e616765723a3a496e76616c69642061756374696f6e206475726174696f6ea265627a7a723158207ec45de8d28c870546282281010e6b39484272ce33119a87a214f58debf119bc64736f6c634300050c0032",
  "source": "pragma solidity ^0.5.12;\n\nimport \"@openzeppelin/contracts-ethereum-package/contracts/token/ERC20/ERC20.sol\";\n\nimport \"@openzeppelin/upgrades/contracts/Initializable.sol\";\n\n// import \"./UnicoinRegistry.sol\";\n\ncontract AuctionManager is Initializable {\n    enum BidStatus {Committed, Revealed, Winner}\n\n    enum AuctionStatus {Pending, Commit, Reveal, Finalized}\n\n    struct Auction {\n        uint256 publication_Id;\n        uint256 auctionFloor;\n        uint256 starting_time;\n        uint256 duration;\n        uint256[] auction_bid_ids;\n        uint256 winning_bid_Id;\n        AuctionStatus status;\n    }\n\n    Auction[] public auctions;\n\n    struct Bid {\n        bytes32 commitBid;\n        uint256 revealedBid;\n        uint256 revealedSalt;\n        BidStatus status;\n        uint256 publication_Id;\n        uint256 auction_Id;\n        uint256 bidder_Id; // owner of the bid\n    }\n\n    Bid[] bids;\n\n    // Maps all bidders' IDs to their bids\n    mapping(uint256 => uint256[]) public bidOwners;\n\n    address registry;\n\n    // UnicoinRegistry unicoinRegistry;\n\n    modifier onlyRegistry() {\n        require(msg.sender == registry, \"Can only be called by registry\");\n        _;\n    }\n\n    function initialize(address _unicoinRegistry) public initializer {\n        registry = _unicoinRegistry;\n        // unicoinRegistry = UnicoinRegistry(_unicoinRegistry);\n    }\n\n    function _createAuction(\n        uint256 _publication_Id,\n        uint256 _auctionFloor,\n        uint256 _auctionStartTime,\n        uint256 _auctionDuration\n    ) public onlyRegistry returns (uint256) {\n        require(\n            _auctionStartTime >= now,\n            \"AuctionManager::Invalid auction start time\"\n        );\n        require(\n            _auctionDuration > 0,\n            \"AuctionManager::Invalid auction duration\"\n        );\n\n        uint256[] memory auction_bid_ids;\n        Auction memory auction = Auction(\n            _publication_Id,\n            _auctionFloor,\n            _auctionStartTime,\n            _auctionDuration,\n            auction_bid_ids,\n            0, //No winning bid in the begining\n            AuctionStatus.Pending\n        );\n\n        uint256 auctionId = auctions.push(auction) - 1;\n        return auctionId;\n    }\n\n    function _commitSealedBid(\n        bytes32 _bidHash,\n        uint256 _auction_Id,\n        uint256 _bidder_Id\n    ) public onlyRegistry returns (uint256) {\n        Auction memory auction = auctions[_auction_Id];\n        require(\n            getAuctionStatus(_auction_Id) == AuctionStatus.Commit,\n            \"Can only commit during the commit phase\"\n        );\n        Bid memory bid = Bid(\n            _bidHash,\n            0,\n            0,\n            BidStatus.Committed,\n            auction.publication_Id,\n            _auction_Id,\n            _bidder_Id\n        );\n        uint256 bidId = bids.push(bid) - 1;\n        auctions[_auction_Id].auction_bid_ids.push(bidId);\n        bidOwners[_bidder_Id].push(bidId);\n\n        return bidId;\n    }\n\n    function revealSealedBid(\n        uint256 _bid,\n        uint256 _salt,\n        uint256 _auction_Id,\n        uint256 _bid_Id,\n        uint256 _bidder_Id\n    ) public onlyRegistry {\n        Bid memory bid = bids[_bid_Id];\n        require(\n            getAuctionStatus(_auction_Id) == AuctionStatus.Reveal,\n            \"Can only commit during the reveal phase\"\n        );\n        require(\n            bid.bidder_Id == _bidder_Id,\n            \"Only the bidder can reveal their bid\"\n        );\n        require(\n            bid.status == BidStatus.Committed,\n            \"Can only reveal a committed bid\"\n        );\n\n        bytes32 revealedBidHash = keccak256(abi.encode(_bid, _salt));\n\n        require(\n            bid.commitBid == revealedBidHash,\n            \"Committed bid does not match the revealed bid\"\n        );\n\n        bids[_bid_Id].revealedBid = _bid;\n        bids[_bid_Id].revealedSalt = _salt;\n        bids[_bid_Id].status = BidStatus.Revealed;\n    }\n\n    function finalizeAuction(uint256 _auction_Id)\n        public\n        onlyRegistry\n        returns (uint256, uint256, uint256)\n    {\n        require(\n            getAuctionStatus(_auction_Id) == AuctionStatus.Reveal,\n            \"Can only finalize an auction in the reveal stage\"\n        );\n\n        Auction memory auction = auctions[_auction_Id];\n\n        uint256 numOfBids = auction.auction_bid_ids.length;\n\n        uint256 leadingBid = 0;\n        uint256 leadingBidAmount = 0;\n\n        for (uint256 i = 0; i < numOfBids; i++) {\n            uint256 bidAmount = bids[auction.auction_bid_ids[i]].revealedBid;\n            if (bidAmount > leadingBidAmount) {\n                //need to check that the bidder has enough balance and enough allowance to be able to\n                // win the auction. Ask the vault via the registrey for this information.\n                // if (\n                //     // unicoinRegistry.canAddressPay(\n                //         bids[auction.auction_bid_ids[i]].bidder_Id,\n                //         bidAmount\n                //     )\n                // ) {\n                leadingBid = auction.auction_bid_ids[i];\n                leadingBidAmount = bidAmount;\n                // }\n            }\n        }\n\n        if (leadingBid > 0) {\n            auctions[_auction_Id].status = AuctionStatus.Finalized;\n            auctions[_auction_Id].winning_bid_Id = leadingBid;\n            bids[leadingBid].status = BidStatus.Winner;\n        }\n\n        return (\n            leadingBidAmount,\n            bids[leadingBid].bidder_Id,\n            auction.publication_Id\n        );\n    }\n\n    function getAuctionStatus(uint256 _auction_Id)\n        public\n        returns (AuctionStatus)\n    {\n        Auction memory auction = auctions[_auction_Id];\n        if (now < auction.starting_time) {\n            auctions[_auction_Id].status = AuctionStatus.Pending;\n            return AuctionStatus.Pending;\n        }\n\n        if (\n            now > auction.starting_time &&\n            now < (auction.starting_time + auction.duration)\n        ) {\n            auctions[_auction_Id].status = AuctionStatus.Commit;\n            return AuctionStatus.Commit;\n        }\n\n        if (now > (auction.starting_time + auction.duration)) {\n            auctions[_auction_Id].status = AuctionStatus.Reveal;\n            return AuctionStatus.Reveal;\n        }\n    }\n\n    function getBidderBids(uint256 _bidder_Id)\n        public\n        view\n        returns (uint256[] memory)\n    {\n        return bidOwners[_bidder_Id];\n    }\n\n    function updateAuctionStartTime(uint256 _auction_Id, uint256 _newStartTime)\n        public\n        onlyRegistry\n    {\n        auctions[_auction_Id].starting_time = _newStartTime;\n    }\n\n    function getAuctionBids(uint256 _auction_Id)\n        public\n        view\n        returns (uint256[] memory)\n    {\n        return auctions[_auction_Id].auction_bid_ids;\n    }\n\n    function getBid(uint256 _bid_Id)\n        public\n        view\n        returns (bytes32, uint256, uint256, uint8, uint256, uint256, uint256)\n    {\n        Bid memory bid = bids[_bid_Id];\n        return (\n            bid.commitBid,\n            bid.revealedBid,\n            bid.revealedSalt,\n            uint8(bid.status),\n            bid.publication_Id,\n            bid.auction_Id,\n            bid.bidder_Id\n        );\n    }\n\n    function getNumberOfBidsInAuction(uint256 _auction_Id)\n        public\n        view\n        returns (uint256)\n    {\n        return auctions[_auction_Id].auction_bid_ids.length;\n    }\n\n    function getAuction(uint256 _auction_Id)\n        public\n        view\n        returns (\n            uint256,\n            uint256,\n            uint256,\n            uint256,\n            uint256[] memory,\n            uint256,\n            uint8\n        )\n    {\n        Auction memory auction = auctions[_auction_Id];\n        return (\n            auction.publication_Id,\n            auction.auctionFloor,\n            auction.starting_time,\n            auction.duration,\n            auction.auction_bid_ids,\n            auction.winning_bid_Id,\n            uint8(auction.status)\n        );\n    }\n}\n",
  "sourcePath": "/Users/chris/Projects/unicoin2.0/contracts/AuctionManager.sol",
  "compiler": {
    "name": "solc",
    "version": "0.5.12+commit.7709ece9.Emscripten.clang"
  },
  "schemaVersion": "3.0.16",
  "updatedAt": "2020-01-07T06:12:49.775Z",
  "devdoc": {
    "methods": {}
  },
  "userdoc": {
    "methods": {}
  }
}