{
  "contractName": "AuctionManager",
  "abi": [
    {
      "constant": true,
      "inputs": [
        {
          "name": "",
          "type": "uint256"
        }
      ],
      "name": "auctions",
      "outputs": [
        {
          "name": "publicationId",
          "type": "uint256"
        },
        {
          "name": "auctionType",
          "type": "uint8"
        },
        {
          "name": "auctionFloor",
          "type": "uint256"
        },
        {
          "name": "starting_time",
          "type": "uint256"
        },
        {
          "name": "duration",
          "type": "uint256"
        },
        {
          "name": "status",
          "type": "uint8"
        }
      ],
      "payable": false,
      "stateMutability": "view",
      "type": "function"
    },
    {
      "constant": false,
      "inputs": [
        {
          "name": "_daiContractAddress",
          "type": "address"
        },
        {
          "name": "_unicoinRegistry",
          "type": "address"
        }
      ],
      "name": "initialize",
      "outputs": [],
      "payable": false,
      "stateMutability": "nonpayable",
      "type": "function"
    },
    {
      "constant": false,
      "inputs": [
        {
          "name": "_publicationId",
          "type": "uint256"
        },
        {
          "name": "_auctionType",
          "type": "uint8"
        },
        {
          "name": "_auctionFloor",
          "type": "uint256"
        },
        {
          "name": "_auctionStartTime",
          "type": "uint256"
        },
        {
          "name": "_auctionDuration",
          "type": "uint256"
        }
      ],
      "name": "_createAuction",
      "outputs": [
        {
          "name": "",
          "type": "uint256"
        }
      ],
      "payable": false,
      "stateMutability": "nonpayable",
      "type": "function"
    },
    {
      "constant": false,
      "inputs": [
        {
          "name": "offer",
          "type": "uint256"
        }
      ],
      "name": "makeBidPublicBid",
      "outputs": [
        {
          "name": "",
          "type": "uint256"
        }
      ],
      "payable": false,
      "stateMutability": "nonpayable",
      "type": "function"
    }
  ],
  "bytecode": "0x608060405234801561001057600080fd5b506107d8806100206000396000f3fe608060405234801561001057600080fd5b506004361061004c5760003560e01c80632363860914610051578063485cc95514610093578063571a26a0146100f757806365fc761214610178575b600080fd5b61007d6004803603602081101561006757600080fd5b81019080803590602001909291905050506101e5565b6040518082815260200191505060405180910390f35b6100f5600480360360408110156100a957600080fd5b81019080803573ffffffffffffffffffffffffffffffffffffffff169060200190929190803573ffffffffffffffffffffffffffffffffffffffff1690602001909291905050506101ef565b005b6101236004803603602081101561010d57600080fd5b8101908080359060200190929190505050610372565b6040518087815260200186600181111561013957fe5b60ff16815260200185815260200184815260200183815260200182600581111561015f57fe5b60ff168152602001965050505050505060405180910390f35b6101cf600480360360a081101561018e57600080fd5b8101908080359060200190929190803560ff1690602001909291908035906020019092919080359060200190929190803590602001909291905050506103d5565b6040518082815260200191505060405180910390f35b6000809050919050565b600060019054906101000a900460ff168061020e575061020d610628565b5b8061022557506000809054906101000a900460ff16155b61027a576040517f08c379a000000000000000000000000000000000000000000000000000000000815260040180806020018281038252602e815260200180610757602e913960400191505060405180910390fd5b60008060019054906101000a900460ff1615905080156102ca576001600060016101000a81548160ff02191690831515021790555060016000806101000a81548160ff0219169083151502179055505b82603360006101000a81548173ffffffffffffffffffffffffffffffffffffffff021916908373ffffffffffffffffffffffffffffffffffffffff16021790555081603560006101000a81548173ffffffffffffffffffffffffffffffffffffffff021916908373ffffffffffffffffffffffffffffffffffffffff160217905550801561036d5760008060016101000a81548160ff0219169083151502179055505b505050565b6034818154811061037f57fe5b90600052602060002090600702016000915090508060000154908060010160009054906101000a900460ff16908060020154908060030154908060040154908060060160009054906101000a900460ff16905086565b600060018560ff161115610434576040517f08c379a000000000000000000000000000000000000000000000000000000000815260040180806020018281038252602e815260200180610729602e913960400191505060405180910390fd5b4283101561048d576040517f08c379a000000000000000000000000000000000000000000000000000000000815260040180806020018281038252602a8152602001806106ff602a913960400191505060405180910390fd5b60008210156104e7576040517f08c379a00000000000000000000000000000000000000000000000000000000081526004018080602001828103825260288152602001806107856028913960400191505060405180910390fd5b60606104f1610639565b6040518060e001604052808981526020018860ff16600181111561051157fe5b600181111561051c57fe5b81526020018781526020018681526020018581526020018381526020016000600581111561054657fe5b815250905060006001603483908060018154018082558091505090600182039060005260206000209060070201600090919290919091506000820151816000015560208201518160010160006101000a81548160ff021916908360018111156105ab57fe5b021790555060408201518160020155606082015181600301556080820151816004015560a08201518160050190805190602001906105ea92919061068c565b5060c08201518160060160006101000a81548160ff0219169083600581111561060f57fe5b0217905550505003905080935050505095945050505050565b600080303b90506000811491505090565b6040518060e00160405280600081526020016000600181111561065857fe5b8152602001600081526020016000815260200160008152602001606081526020016000600581111561068657fe5b81525090565b8280548282559060005260206000209081019282156106c8579160200282015b828111156106c75782518255916020019190600101906106ac565b5b5090506106d591906106d9565b5090565b6106fb91905b808211156106f75760008160009055506001016106df565b5090565b9056fe41756374696f6e4d616e616765723a3a496e76616c69642061756374696f6e2073746172742074696d6541756374696f6e4d616e616765723a3a496e76616c69642061756374696f6e207479706520737065736966696564436f6e747261637420696e7374616e63652068617320616c7265616479206265656e20696e697469616c697a656441756374696f6e4d616e616765723a3a496e76616c69642061756374696f6e206475726174696f6ea165627a7a7230582012f475cd193e6cc7b610a190803d02dbb5bab7416fe8e69530b7e8aa284da41b0029",
  "source": "pragma solidity ^0.5.0;\n\nimport \"@openzeppelin/contracts-ethereum-package/contracts/token/ERC20/ERC20.sol\";\n\nimport \"@openzeppelin/upgrades/contracts/Initializable.sol\";\n\ncontract AuctionManager is Initializable {\n    ERC20 daiContract;\n\n    enum AuctionType {controlledAuction, privateAuction}\n\n    enum BidStatus {\n        committed,\n        revealed,\n        winner,\n        pending,\n        accepted,\n        rejected,\n        sale,\n        cancelled\n    }\n\n    enum AuctionStatus {pending, commit, reveal, finalized, open, closed}\n\n    struct Auction {\n        uint256 publicationId;\n        AuctionType auctionType;\n        uint256 auctionFloor;\n        uint256 starting_time;\n        uint256 duration;\n        uint256[] auction_bid_ids;\n        AuctionStatus status;\n    }\n\n    Auction[] public auctions;\n\n    address registry;\n\n    modifier onlyRegistry() {\n        require(msg.sender == registry, \"Can only be called by registry\");\n        _;\n    }\n\n    function initialize(address _daiContractAddress, address _unicoinRegistry)\n        public\n        initializer\n    {\n        daiContract = ERC20(_daiContractAddress);\n        registry = _unicoinRegistry;\n    }\n\n    function _createAuction(\n        uint256 _publicationId,\n        uint8 _auctionType,\n        uint256 _auctionFloor,\n        uint256 _auctionStartTime,\n        uint256 _auctionDuration\n    ) public returns (uint256) {\n        require(\n            _auctionType <= 1,\n            \"AuctionManager::Invalid auction type spesified\"\n        );\n        require(\n            _auctionStartTime >= now,\n            \"AuctionManager::Invalid auction start time\"\n        );\n        require(\n            _auctionDuration >= 0,\n            \"AuctionManager::Invalid auction duration\"\n        );\n\n        uint256[] memory auction_bid_ids;\n        Auction memory auction = Auction(\n            _publicationId,\n            AuctionType(_auctionType),\n            _auctionFloor,\n            _auctionStartTime,\n            _auctionDuration,\n            auction_bid_ids,\n            AuctionStatus.pending\n        );\n\n        uint256 auctionId = auctions.push(auction) - 1;\n        return auctionId;\n    }\n\n    function makeBidPublicBid(uint256 offer) public returns (uint256) {\n        return 0;\n    }\n}\n",
  "sourcePath": "/Users/chris/Projects/unicoindapp/contracts/AuctionManager.sol",
  "compiler": {
    "name": "solc",
    "version": "0.5.8+commit.23d335f2.Emscripten.clang"
  },
  "schemaVersion": "3.0.16",
  "updatedAt": "2019-11-21T16:45:30.604Z",
  "devdoc": {
    "methods": {}
  },
  "userdoc": {
    "methods": {}
  }
}