{
  "contractName": "AuctionManager",
  "abi": [
    {
      "constant": true,
      "inputs": [
        {
          "internalType": "uint256",
          "name": "",
          "type": "uint256"
        }
      ],
      "name": "auctions",
      "outputs": [
        {
          "internalType": "uint256",
          "name": "publication_Id",
          "type": "uint256"
        },
        {
          "internalType": "uint256",
          "name": "auctionFloor",
          "type": "uint256"
        },
        {
          "internalType": "uint256",
          "name": "starting_time",
          "type": "uint256"
        },
        {
          "internalType": "uint256",
          "name": "duration",
          "type": "uint256"
        },
        {
          "internalType": "uint256",
          "name": "winning_bid_Id",
          "type": "uint256"
        },
        {
          "internalType": "enum AuctionManager.AuctionStatus",
          "name": "status",
          "type": "uint8"
        }
      ],
      "payable": false,
      "stateMutability": "view",
      "type": "function"
    },
    {
      "constant": true,
      "inputs": [
        {
          "internalType": "uint256",
          "name": "",
          "type": "uint256"
        },
        {
          "internalType": "uint256",
          "name": "",
          "type": "uint256"
        }
      ],
      "name": "bidOwners",
      "outputs": [
        {
          "internalType": "uint256",
          "name": "",
          "type": "uint256"
        }
      ],
      "payable": false,
      "stateMutability": "view",
      "type": "function"
    },
    {
      "constant": false,
      "inputs": [
        {
          "internalType": "address",
          "name": "_unicoinRegistry",
          "type": "address"
        }
      ],
      "name": "initialize",
      "outputs": [],
      "payable": false,
      "stateMutability": "nonpayable",
      "type": "function"
    },
    {
      "constant": false,
      "inputs": [
        {
          "internalType": "uint256",
          "name": "_publication_Id",
          "type": "uint256"
        },
        {
          "internalType": "uint256",
          "name": "_auctionFloor",
          "type": "uint256"
        },
        {
          "internalType": "uint256",
          "name": "_auctionStartTime",
          "type": "uint256"
        },
        {
          "internalType": "uint256",
          "name": "_auctionDuration",
          "type": "uint256"
        }
      ],
      "name": "_createAuction",
      "outputs": [
        {
          "internalType": "uint256",
          "name": "",
          "type": "uint256"
        }
      ],
      "payable": false,
      "stateMutability": "nonpayable",
      "type": "function"
    },
    {
      "constant": false,
      "inputs": [
        {
          "internalType": "bytes32",
          "name": "_bidHash",
          "type": "bytes32"
        },
        {
          "internalType": "uint256",
          "name": "_auction_Id",
          "type": "uint256"
        },
        {
          "internalType": "uint256",
          "name": "_bidder_Id",
          "type": "uint256"
        }
      ],
      "name": "_commitSealedBid",
      "outputs": [
        {
          "internalType": "uint256",
          "name": "",
          "type": "uint256"
        }
      ],
      "payable": false,
      "stateMutability": "nonpayable",
      "type": "function"
    },
    {
      "constant": false,
      "inputs": [
        {
          "internalType": "uint256",
          "name": "_bid",
          "type": "uint256"
        },
        {
          "internalType": "uint256",
          "name": "_salt",
          "type": "uint256"
        },
        {
          "internalType": "uint256",
          "name": "_auction_Id",
          "type": "uint256"
        },
        {
          "internalType": "uint256",
          "name": "_bid_Id",
          "type": "uint256"
        },
        {
          "internalType": "uint256",
          "name": "_bidder_Id",
          "type": "uint256"
        }
      ],
      "name": "revealSealedBid",
      "outputs": [],
      "payable": false,
      "stateMutability": "nonpayable",
      "type": "function"
    },
    {
      "constant": false,
      "inputs": [
        {
          "internalType": "uint256",
          "name": "_auction_Id",
          "type": "uint256"
        }
      ],
      "name": "finalizeAuction",
      "outputs": [
        {
          "internalType": "uint256",
          "name": "",
          "type": "uint256"
        },
        {
          "internalType": "uint256",
          "name": "",
          "type": "uint256"
        },
        {
          "internalType": "uint256",
          "name": "",
          "type": "uint256"
        }
      ],
      "payable": false,
      "stateMutability": "nonpayable",
      "type": "function"
    },
    {
      "constant": false,
      "inputs": [
        {
          "internalType": "uint256",
          "name": "_auction_Id",
          "type": "uint256"
        }
      ],
      "name": "getAuctionStatus",
      "outputs": [
        {
          "internalType": "enum AuctionManager.AuctionStatus",
          "name": "",
          "type": "uint8"
        }
      ],
      "payable": false,
      "stateMutability": "nonpayable",
      "type": "function"
    },
    {
      "constant": true,
      "inputs": [
        {
          "internalType": "uint256",
          "name": "_bidder_Id",
          "type": "uint256"
        }
      ],
      "name": "getBidderBids",
      "outputs": [
        {
          "internalType": "uint256[]",
          "name": "",
          "type": "uint256[]"
        }
      ],
      "payable": false,
      "stateMutability": "view",
      "type": "function"
    },
    {
      "constant": false,
      "inputs": [
        {
          "internalType": "uint256",
          "name": "_auction_Id",
          "type": "uint256"
        },
        {
          "internalType": "uint256",
          "name": "_newStartTime",
          "type": "uint256"
        }
      ],
      "name": "updateAuctionStartTime",
      "outputs": [],
      "payable": false,
      "stateMutability": "nonpayable",
      "type": "function"
    },
    {
      "constant": true,
      "inputs": [
        {
          "internalType": "uint256",
          "name": "_auction_Id",
          "type": "uint256"
        }
      ],
      "name": "getAuctionBids",
      "outputs": [
        {
          "internalType": "uint256[]",
          "name": "",
          "type": "uint256[]"
        }
      ],
      "payable": false,
      "stateMutability": "view",
      "type": "function"
    },
    {
      "constant": true,
      "inputs": [
        {
          "internalType": "uint256",
          "name": "_bid_Id",
          "type": "uint256"
        }
      ],
      "name": "getBid",
      "outputs": [
        {
          "internalType": "bytes32",
          "name": "",
          "type": "bytes32"
        },
        {
          "internalType": "uint256",
          "name": "",
          "type": "uint256"
        },
        {
          "internalType": "uint256",
          "name": "",
          "type": "uint256"
        },
        {
          "internalType": "uint8",
          "name": "",
          "type": "uint8"
        },
        {
          "internalType": "uint256",
          "name": "",
          "type": "uint256"
        },
        {
          "internalType": "uint256",
          "name": "",
          "type": "uint256"
        },
        {
          "internalType": "uint256",
          "name": "",
          "type": "uint256"
        }
      ],
      "payable": false,
      "stateMutability": "view",
      "type": "function"
    },
    {
      "constant": true,
      "inputs": [
        {
          "internalType": "uint256",
          "name": "_auction_Id",
          "type": "uint256"
        }
      ],
      "name": "getNumberOfBidsInAuction",
      "outputs": [
        {
          "internalType": "uint256",
          "name": "",
          "type": "uint256"
        }
      ],
      "payable": false,
      "stateMutability": "view",
      "type": "function"
    }
  ],
  "bytecode": "0x608060405234801561001057600080fd5b50611c5b806100206000396000f3fe608060405234801561001057600080fd5b50600436106100cf5760003560e01c8063908e27eb1161008c578063b8f4e5a511610066578063b8f4e5a514610435578063c4d66de814610495578063dc05d952146104d9578063e808386314610525576100cf565b8063908e27eb1461035157806394d0f15e146103a75780639ae001ff146103fd576100cf565b80633c889e6f146100d4578063571a26a01461014657806370b4768e146101b95780637765c52c1461023c5780637a88dece1461028c578063897f1e4a146102ce575b600080fd5b610100600480360360208110156100ea57600080fd5b8101908080359060200190929190505050610575565b604051808881526020018781526020018681526020018560ff1660ff16815260200184815260200183815260200182815260200197505050505050505060405180910390f35b6101726004803603602081101561015c57600080fd5b8101908080359060200190929190505050610661565b604051808781526020018681526020018581526020018481526020018381526020018260038111156101a057fe5b60ff168152602001965050505050505060405180910390f35b6101e5600480360360208110156101cf57600080fd5b81019080803590602001909291905050506106b7565b6040518080602001828103825283818151815260200191508051906020019060200280838360005b8381101561022857808201518184015260208101905061020d565b505050509050019250505060405180910390f35b6102686004803603602081101561025257600080fd5b810190808035906020019092919050505061072d565b6040518082600381111561027857fe5b60ff16815260200191505060405180910390f35b6102b8600480360360208110156102a257600080fd5b810190808035906020019092919050505061093a565b6040518082815260200191505060405180910390f35b6102fa600480360360208110156102e457600080fd5b8101908080359060200190929190505050610965565b6040518080602001828103825283818151815260200191508051906020019060200280838360005b8381101561033d578082015181840152602081019050610322565b505050509050019250505060405180910390f35b6103916004803603606081101561036757600080fd5b810190808035906020019092919080359060200190929190803590602001909291905050506109d0565b6040518082815260200191505060405180910390f35b6103fb600480360360a08110156103bd57600080fd5b810190808035906020019092919080359060200190929190803590602001909291908035906020019092919080359060200190929190505050610d70565b005b6104336004803603604081101561041357600080fd5b81019080803590602001909291908035906020019092919050505061114d565b005b61047f6004803603608081101561044b57600080fd5b8101908080359060200190929190803590602001909291908035906020019092919080359060200190929190505050611237565b6040518082815260200191505060405180910390f35b6104d7600480360360208110156104ab57600080fd5b81019080803573ffffffffffffffffffffffffffffffffffffffff1690602001909291905050506114b8565b005b61050f600480360360408110156104ef57600080fd5b8101908080359060200190929190803590602001909291905050506115f9565b6040518082815260200191505060405180910390f35b6105516004803603602081101561053b57600080fd5b8101908080359060200190929190505050611627565b60405180848152602001838152602001828152602001935050505060405180910390f35b60008060008060008060006105886119d2565b6034898154811061059557fe5b90600052602060002090600702016040518060e00160405290816000820154815260200160018201548152602001600282015481526020016003820160009054906101000a900460ff1660028111156105ea57fe5b60028111156105f557fe5b8152602001600482015481526020016005820154815260200160068201548152505090508060000151816020015182604001518360600151600281111561063857fe5b84608001518560a001518660c00151975097509750975097509750975050919395979092949650565b6033818154811061066e57fe5b90600052602060002090600702016000915090508060000154908060010154908060020154908060030154908060050154908060060160009054906101000a900460ff16905086565b6060603382815481106106c657fe5b906000526020600020906007020160040180548060200260200160405190810160405280929190818152602001828054801561072157602002820191906000526020600020905b81548152602001906001019080831161070d575b50505050509050919050565b6000610737611a1d565b6033838154811061074457fe5b90600052602060002090600702016040518060e001604052908160008201548152602001600182015481526020016002820154815260200160038201548152602001600482018054806020026020016040519081016040528092919081815260200182805480156107d457602002820191906000526020600020905b8154815260200190600101908083116107c0575b50505050508152602001600582015481526020016006820160009054906101000a900460ff16600381111561080557fe5b600381111561081057fe5b815250509050806040015142101561086c5760006033848154811061083157fe5b906000526020600020906007020160060160006101000a81548160ff0219169083600381111561085d57fe5b02179055506000915050610935565b8060400151421180156108885750806060015181604001510142105b156108d75760016033848154811061089c57fe5b906000526020600020906007020160060160006101000a81548160ff021916908360038111156108c857fe5b02179055506001915050610935565b8060600151816040015101421115610933576002603384815481106108f857fe5b906000526020600020906007020160060160006101000a81548160ff0219169083600381111561092457fe5b02179055506002915050610935565b505b919050565b60006033828154811061094957fe5b9060005260206000209060070201600401805490509050919050565b6060603560008381526020019081526020016000208054806020026020016040519081016040528092919081815260200182805480156109c457602002820191906000526020600020905b8154815260200190600101908083116109b0575b50505050509050919050565b6000603660009054906101000a900473ffffffffffffffffffffffffffffffffffffffff1673ffffffffffffffffffffffffffffffffffffffff163373ffffffffffffffffffffffffffffffffffffffff1614610a95576040517f08c379a000000000000000000000000000000000000000000000000000000000815260040180806020018281038252601e8152602001807f43616e206f6e6c792062652063616c6c6564206279207265676973747279000081525060200191505060405180910390fd5b610a9d611a1d565b60338481548110610aaa57fe5b90600052602060002090600702016040518060e00160405290816000820154815260200160018201548152602001600282015481526020016003820154815260200160048201805480602002602001604051908101604052809291908181526020018280548015610b3a57602002820191906000526020600020905b815481526020019060010190808311610b26575b50505050508152602001600582015481526020016006820160009054906101000a900460ff166003811115610b6b57fe5b6003811115610b7657fe5b81525050905060016003811115610b8957fe5b610b928561072d565b6003811115610b9d57fe5b14610bf3576040517f08c379a0000000000000000000000000000000000000000000000000000000008152600401808060200182810382526027815260200180611b296027913960400191505060405180910390fd5b610bfb6119d2565b6040518060e00160405280878152602001600081526020016000815260200160006002811115610c2757fe5b815260200183600001518152602001868152602001858152509050600060016034839080600181540180825580915050906001820390600052602060002090600702016000909192909190915060008201518160000155602082015181600101556040820151816002015560608201518160030160006101000a81548160ff02191690836002811115610cb657fe5b02179055506080820151816004015560a0820151816005015560c08201518160060155505003905060338681548110610ceb57fe5b9060005260206000209060070201600401819080600181540180825580915050906001820390600052602060002001600090919290919091505550603560008681526020019081526020016000208190806001815401808255809150509060018203906000526020600020016000909192909190915055508093505050509392505050565b603660009054906101000a900473ffffffffffffffffffffffffffffffffffffffff1673ffffffffffffffffffffffffffffffffffffffff163373ffffffffffffffffffffffffffffffffffffffff1614610e33576040517f08c379a000000000000000000000000000000000000000000000000000000000815260040180806020018281038252601e8152602001807f43616e206f6e6c792062652063616c6c6564206279207265676973747279000081525060200191505060405180910390fd5b610e3b6119d2565b60348381548110610e4857fe5b90600052602060002090600702016040518060e00160405290816000820154815260200160018201548152602001600282015481526020016003820160009054906101000a900460ff166002811115610e9d57fe5b6002811115610ea857fe5b81526020016004820154815260200160058201548152602001600682015481525050905060026003811115610ed957fe5b610ee28561072d565b6003811115610eed57fe5b14610f43576040517f08c379a0000000000000000000000000000000000000000000000000000000008152600401808060200182810382526027815260200180611b026027913960400191505060405180910390fd5b818160c0015114610f9f576040517f08c379a0000000000000000000000000000000000000000000000000000000008152600401808060200182810382526024815260200180611b7d6024913960400191505060405180910390fd5b60006002811115610fac57fe5b81606001516002811115610fbc57fe5b1461102f576040517f08c379a000000000000000000000000000000000000000000000000000000000815260040180806020018281038252601f8152602001807f43616e206f6e6c792072657665616c206120636f6d6d6974746564206269640081525060200191505060405180910390fd5b600086866040516020018083815260200182815260200192505050604051602081830303815290604052805190602001209050808260000151146110be576040517f08c379a000000000000000000000000000000000000000000000000000000000815260040180806020018281038252602d815260200180611b50602d913960400191505060405180910390fd5b86603485815481106110cc57fe5b90600052602060002090600702016001018190555085603485815481106110ef57fe5b90600052602060002090600702016002018190555060016034858154811061111357fe5b906000526020600020906007020160030160006101000a81548160ff0219169083600281111561113f57fe5b021790555050505050505050565b603660009054906101000a900473ffffffffffffffffffffffffffffffffffffffff1673ffffffffffffffffffffffffffffffffffffffff163373ffffffffffffffffffffffffffffffffffffffff1614611210576040517f08c379a000000000000000000000000000000000000000000000000000000000815260040180806020018281038252601e8152602001807f43616e206f6e6c792062652063616c6c6564206279207265676973747279000081525060200191505060405180910390fd5b806033838154811061121e57fe5b9060005260206000209060070201600201819055505050565b6000603660009054906101000a900473ffffffffffffffffffffffffffffffffffffffff1673ffffffffffffffffffffffffffffffffffffffff163373ffffffffffffffffffffffffffffffffffffffff16146112fc576040517f08c379a000000000000000000000000000000000000000000000000000000000815260040180806020018281038252601e8152602001807f43616e206f6e6c792062652063616c6c6564206279207265676973747279000081525060200191505060405180910390fd5b42831015611355576040517f08c379a000000000000000000000000000000000000000000000000000000000815260040180806020018281038252602a815260200180611ad8602a913960400191505060405180910390fd5b60008210156113af576040517f08c379a0000000000000000000000000000000000000000000000000000000008152600401808060200182810382526028815260200180611bff6028913960400191505060405180910390fd5b60606113b9611a1d565b6040518060e0016040528088815260200187815260200186815260200185815260200183815260200160008152602001600060038111156113f657fe5b81525090506000600160338390806001815401808255809150509060018203906000526020600020906007020160009091929091909150600082015181600001556020820151816001015560408201518160020155606082015181600301556080820151816004019080519060200190611471929190611a65565b5060a0820151816005015560c08201518160060160006101000a81548160ff021916908360038111156114a057fe5b02179055505050039050809350505050949350505050565b600060019054906101000a900460ff16806114d757506114d66119c1565b5b806114ee57506000809054906101000a900460ff16155b611543576040517f08c379a000000000000000000000000000000000000000000000000000000000815260040180806020018281038252602e815260200180611bd1602e913960400191505060405180910390fd5b60008060019054906101000a900460ff161590508015611593576001600060016101000a81548160ff02191690831515021790555060016000806101000a81548160ff0219169083151502179055505b81603660006101000a81548173ffffffffffffffffffffffffffffffffffffffff021916908373ffffffffffffffffffffffffffffffffffffffff16021790555080156115f55760008060016101000a81548160ff0219169083151502179055505b5050565b6035602052816000526040600020818154811061161257fe5b90600052602060002001600091509150505481565b6000806000603660009054906101000a900473ffffffffffffffffffffffffffffffffffffffff1673ffffffffffffffffffffffffffffffffffffffff163373ffffffffffffffffffffffffffffffffffffffff16146116ef576040517f08c379a000000000000000000000000000000000000000000000000000000000815260040180806020018281038252601e8152602001807f43616e206f6e6c792062652063616c6c6564206279207265676973747279000081525060200191505060405180910390fd5b600260038111156116fc57fe5b6117058561072d565b600381111561171057fe5b14611766576040517f08c379a0000000000000000000000000000000000000000000000000000000008152600401808060200182810382526030815260200180611ba16030913960400191505060405180910390fd5b61176e611a1d565b6033858154811061177b57fe5b90600052602060002090600702016040518060e0016040529081600082015481526020016001820154815260200160028201548152602001600382015481526020016004820180548060200260200160405190810160405280929190818152602001828054801561180b57602002820191906000526020600020905b8154815260200190600101908083116117f7575b50505050508152602001600582015481526020016006820160009054906101000a900460ff16600381111561183c57fe5b600381111561184757fe5b815250509050600081608001515190506000809050600080905060008090505b838110156118dd57600060348660800151838151811061188357fe5b60200260200101518154811061189557fe5b9060005260206000209060070201600101549050828111156118cf57856080015182815181106118c157fe5b602002602001015193508092505b508080600101915050611867565b50600082111561198b576003603389815481106118f657fe5b906000526020600020906007020160060160006101000a81548160ff0219169083600381111561192257fe5b0217905550816033898154811061193557fe5b90600052602060002090600702016005018190555060026034838154811061195957fe5b906000526020600020906007020160030160006101000a81548160ff0219169083600281111561198557fe5b02179055505b806034838154811061199957fe5b9060005260206000209060070201600601548560000151965096509650505050509193909250565b600080303b90506000811491505090565b6040518060e0016040528060008019168152602001600081526020016000815260200160006002811115611a0257fe5b81526020016000815260200160008152602001600081525090565b6040518060e0016040528060008152602001600081526020016000815260200160008152602001606081526020016000815260200160006003811115611a5f57fe5b81525090565b828054828255906000526020600020908101928215611aa1579160200282015b82811115611aa0578251825591602001919060010190611a85565b5b509050611aae9190611ab2565b5090565b611ad491905b80821115611ad0576000816000905550600101611ab8565b5090565b9056fe41756374696f6e4d616e616765723a3a496e76616c69642061756374696f6e2073746172742074696d6543616e206f6e6c7920636f6d6d697420647572696e67207468652072657665616c20706861736543616e206f6e6c7920636f6d6d697420647572696e672074686520636f6d6d6974207068617365436f6d6d69747465642062696420646f6573206e6f74206d61746368207468652072657665616c6564206269644f6e6c7920746865206269646465722063616e2072657665616c2074686569722062696443616e206f6e6c792066696e616c697a6520616e2061756374696f6e20696e207468652072657665616c207374616765436f6e747261637420696e7374616e63652068617320616c7265616479206265656e20696e697469616c697a656441756374696f6e4d616e616765723a3a496e76616c69642061756374696f6e206475726174696f6ea265627a7a7231582082dc5468e501565c0657d61d1f39cb37770ea32521ce741a03864e8baa65398c64736f6c634300050c0032",
  "source": "pragma solidity ^0.5.12;\n\nimport \"@openzeppelin/contracts-ethereum-package/contracts/token/ERC20/ERC20.sol\";\n\nimport \"@openzeppelin/upgrades/contracts/Initializable.sol\";\n\n// import \"./UnicoinRegistry.sol\";\n\ncontract AuctionManager is Initializable {\n    enum BidStatus {Committed, Revealed, Winner}\n\n    enum AuctionStatus {Pending, Commit, Reveal, Finalized}\n\n    struct Auction {\n        uint256 publication_Id;\n        uint256 auctionFloor;\n        uint256 starting_time;\n        uint256 duration;\n        uint256[] auction_bid_ids;\n        uint256 winning_bid_Id;\n        AuctionStatus status;\n    }\n\n    Auction[] public auctions;\n\n    struct Bid {\n        bytes32 commitBid;\n        uint256 revealedBid;\n        uint256 revealedSalt;\n        BidStatus status;\n        uint256 publication_Id;\n        uint256 auction_Id;\n        uint256 bidder_Id; // owner of the bid\n    }\n\n    Bid[] bids;\n\n    // Maps all bidders' IDs to their bids\n    mapping(uint256 => uint256[]) public bidOwners;\n\n    address registry;\n\n    // UnicoinRegistry unicoinRegistry;\n\n    modifier onlyRegistry() {\n        require(msg.sender == registry, \"Can only be called by registry\");\n        _;\n    }\n\n    function initialize(address _unicoinRegistry) public initializer {\n        registry = _unicoinRegistry;\n        // unicoinRegistry = UnicoinRegistry(_unicoinRegistry);\n    }\n\n    function _createAuction(\n        uint256 _publication_Id,\n        uint256 _auctionFloor,\n        uint256 _auctionStartTime,\n        uint256 _auctionDuration\n    ) public onlyRegistry returns (uint256) {\n        require(\n            _auctionStartTime >= now,\n            \"AuctionManager::Invalid auction start time\"\n        );\n        require(\n            _auctionDuration >= 0,\n            \"AuctionManager::Invalid auction duration\"\n        );\n\n        uint256[] memory auction_bid_ids;\n        Auction memory auction = Auction(\n            _publication_Id,\n            _auctionFloor,\n            _auctionStartTime,\n            _auctionDuration,\n            auction_bid_ids,\n            0, //No winning bid in the begining\n            AuctionStatus.Pending\n        );\n\n        uint256 auctionId = auctions.push(auction) - 1;\n        return auctionId;\n    }\n\n    function _commitSealedBid(\n        bytes32 _bidHash,\n        uint256 _auction_Id,\n        uint256 _bidder_Id\n    ) public onlyRegistry returns (uint256) {\n        Auction memory auction = auctions[_auction_Id];\n        require(\n            getAuctionStatus(_auction_Id) == AuctionStatus.Commit,\n            \"Can only commit during the commit phase\"\n        );\n        Bid memory bid = Bid(\n            _bidHash,\n            0,\n            0,\n            BidStatus.Committed,\n            auction.publication_Id,\n            _auction_Id,\n            _bidder_Id\n        );\n        uint256 bidId = bids.push(bid) - 1;\n        auctions[_auction_Id].auction_bid_ids.push(bidId);\n        bidOwners[_bidder_Id].push(bidId);\n\n        return bidId;\n    }\n\n    function revealSealedBid(\n        uint256 _bid,\n        uint256 _salt,\n        uint256 _auction_Id,\n        uint256 _bid_Id,\n        uint256 _bidder_Id\n    ) public onlyRegistry {\n        Bid memory bid = bids[_bid_Id];\n        require(\n            getAuctionStatus(_auction_Id) == AuctionStatus.Reveal,\n            \"Can only commit during the reveal phase\"\n        );\n        require(\n            bid.bidder_Id == _bidder_Id,\n            \"Only the bidder can reveal their bid\"\n        );\n        require(\n            bid.status == BidStatus.Committed,\n            \"Can only reveal a committed bid\"\n        );\n\n        bytes32 revealedBidHash = keccak256(abi.encode(_bid, _salt));\n\n        require(\n            bid.commitBid == revealedBidHash,\n            \"Committed bid does not match the revealed bid\"\n        );\n\n        bids[_bid_Id].revealedBid = _bid;\n        bids[_bid_Id].revealedSalt = _salt;\n        bids[_bid_Id].status = BidStatus.Revealed;\n    }\n\n    function finalizeAuction(uint256 _auction_Id)\n        public\n        onlyRegistry\n        returns (uint256, uint256, uint256)\n    {\n        require(\n            getAuctionStatus(_auction_Id) == AuctionStatus.Reveal,\n            \"Can only finalize an auction in the reveal stage\"\n        );\n\n        Auction memory auction = auctions[_auction_Id];\n\n        uint256 numOfBids = auction.auction_bid_ids.length;\n\n        uint256 leadingBid = 0;\n        uint256 leadingBidAmount = 0;\n\n        for (uint256 i = 0; i < numOfBids; i++) {\n            uint256 bidAmount = bids[auction.auction_bid_ids[i]].revealedBid;\n            if (bidAmount > leadingBidAmount) {\n                //need to check that the bidder has enough balance and enough allowance to be able to\n                // win the auction. Ask the vault via the registrey for this information.\n                // if (\n                //     // unicoinRegistry.canAddressPay(\n                //         bids[auction.auction_bid_ids[i]].bidder_Id,\n                //         bidAmount\n                //     )\n                // ) {\n                leadingBid = auction.auction_bid_ids[i];\n                leadingBidAmount = bidAmount;\n                // }\n            }\n        }\n\n        if (leadingBid > 0) {\n            auctions[_auction_Id].status = AuctionStatus.Finalized;\n            auctions[_auction_Id].winning_bid_Id = leadingBid;\n            bids[leadingBid].status = BidStatus.Winner;\n        }\n\n        return (\n            leadingBidAmount,\n            bids[leadingBid].bidder_Id,\n            auction.publication_Id\n        );\n    }\n\n    function getAuctionStatus(uint256 _auction_Id)\n        public\n        returns (AuctionStatus)\n    {\n        Auction memory auction = auctions[_auction_Id];\n        if (now < auction.starting_time) {\n            auctions[_auction_Id].status = AuctionStatus.Pending;\n            return AuctionStatus.Pending;\n        }\n\n        if (\n            now > auction.starting_time &&\n            now < (auction.starting_time + auction.duration)\n        ) {\n            auctions[_auction_Id].status = AuctionStatus.Commit;\n            return AuctionStatus.Commit;\n        }\n\n        if (now > (auction.starting_time + auction.duration)) {\n            auctions[_auction_Id].status = AuctionStatus.Reveal;\n            return AuctionStatus.Reveal;\n        }\n    }\n\n    function getBidderBids(uint256 _bidder_Id)\n        public\n        view\n        returns (uint256[] memory)\n    {\n        return bidOwners[_bidder_Id];\n    }\n\n    function updateAuctionStartTime(uint256 _auction_Id, uint256 _newStartTime)\n        public\n        onlyRegistry\n    {\n        auctions[_auction_Id].starting_time = _newStartTime;\n    }\n\n    function getAuctionBids(uint256 _auction_Id)\n        public\n        view\n        returns (uint256[] memory)\n    {\n        return auctions[_auction_Id].auction_bid_ids;\n    }\n\n    function getBid(uint256 _bid_Id)\n        public\n        view\n        returns (bytes32, uint256, uint256, uint8, uint256, uint256, uint256)\n    {\n        Bid memory bid = bids[_bid_Id];\n        return (\n            bid.commitBid,\n            bid.revealedBid,\n            bid.revealedSalt,\n            uint8(bid.status),\n            bid.publication_Id,\n            bid.auction_Id,\n            bid.bidder_Id\n        );\n    }\n\n    function getNumberOfBidsInAuction(uint256 _auction_Id)\n        public\n        view\n        returns (uint256)\n    {\n        return auctions[_auction_Id].auction_bid_ids.length;\n    }\n}\n",
  "sourcePath": "/Users/chris/Projects/unicoindapp/contracts/AuctionManager.sol",
  "compiler": {
    "name": "solc",
    "version": "0.5.12+commit.7709ece9.Emscripten.clang"
  },
  "schemaVersion": "3.0.16",
  "updatedAt": "2019-12-01T05:16:04.472Z",
  "devdoc": {
    "methods": {}
  },
  "userdoc": {
    "methods": {}
  }
}