{
  "contractName": "AuctionManager",
  "abi": [
    {
      "inputs": [
        {
          "internalType": "uint256",
          "name": "",
          "type": "uint256"
        }
      ],
      "name": "auctions",
      "outputs": [
        {
          "internalType": "uint256",
          "name": "publicationId",
          "type": "uint256"
        },
        {
          "internalType": "uint256",
          "name": "auctionFloor",
          "type": "uint256"
        },
        {
          "internalType": "uint256",
          "name": "startingTime",
          "type": "uint256"
        },
        {
          "internalType": "uint256",
          "name": "duration",
          "type": "uint256"
        },
        {
          "internalType": "uint256",
          "name": "winningBidId",
          "type": "uint256"
        },
        {
          "internalType": "enum IAuctionManager.AuctionStatus",
          "name": "status",
          "type": "uint8"
        }
      ],
      "stateMutability": "view",
      "type": "function"
    },
    {
      "inputs": [
        {
          "internalType": "uint256",
          "name": "",
          "type": "uint256"
        },
        {
          "internalType": "uint256",
          "name": "",
          "type": "uint256"
        }
      ],
      "name": "bidOwners",
      "outputs": [
        {
          "internalType": "uint256",
          "name": "",
          "type": "uint256"
        }
      ],
      "stateMutability": "view",
      "type": "function"
    },
    {
      "inputs": [
        {
          "internalType": "address",
          "name": "forwarder",
          "type": "address"
        }
      ],
      "name": "isTrustedForwarder",
      "outputs": [
        {
          "internalType": "bool",
          "name": "",
          "type": "bool"
        }
      ],
      "stateMutability": "view",
      "type": "function"
    },
    {
      "inputs": [
        {
          "internalType": "address",
          "name": "_unicoinRegistry",
          "type": "address"
        },
        {
          "internalType": "address",
          "name": "_trustedForwarder",
          "type": "address"
        }
      ],
      "name": "initialize",
      "outputs": [],
      "stateMutability": "nonpayable",
      "type": "function"
    },
    {
      "inputs": [
        {
          "internalType": "uint256",
          "name": "_publicationId",
          "type": "uint256"
        },
        {
          "internalType": "uint256",
          "name": "_auctionFloor",
          "type": "uint256"
        },
        {
          "internalType": "uint256",
          "name": "_auctionStartTime",
          "type": "uint256"
        },
        {
          "internalType": "uint256",
          "name": "_auctionDuration",
          "type": "uint256"
        }
      ],
      "name": "_createAuction",
      "outputs": [
        {
          "internalType": "uint256",
          "name": "",
          "type": "uint256"
        }
      ],
      "stateMutability": "nonpayable",
      "type": "function"
    },
    {
      "inputs": [
        {
          "internalType": "bytes32",
          "name": "_bidHash",
          "type": "bytes32"
        },
        {
          "internalType": "uint256",
          "name": "_auctionId",
          "type": "uint256"
        },
        {
          "internalType": "uint256",
          "name": "_bidderId",
          "type": "uint256"
        }
      ],
      "name": "_commitSealedBid",
      "outputs": [
        {
          "internalType": "uint256",
          "name": "",
          "type": "uint256"
        }
      ],
      "stateMutability": "nonpayable",
      "type": "function"
    },
    {
      "inputs": [
        {
          "internalType": "uint256",
          "name": "_bid",
          "type": "uint256"
        },
        {
          "internalType": "uint256",
          "name": "_salt",
          "type": "uint256"
        },
        {
          "internalType": "uint256",
          "name": "_auctionId",
          "type": "uint256"
        },
        {
          "internalType": "uint256",
          "name": "_bidId",
          "type": "uint256"
        },
        {
          "internalType": "uint256",
          "name": "_bidderId",
          "type": "uint256"
        }
      ],
      "name": "revealSealedBid",
      "outputs": [],
      "stateMutability": "nonpayable",
      "type": "function"
    },
    {
      "inputs": [
        {
          "internalType": "uint256",
          "name": "_auctionId",
          "type": "uint256"
        }
      ],
      "name": "finalizeAuction",
      "outputs": [
        {
          "internalType": "uint256",
          "name": "",
          "type": "uint256"
        },
        {
          "internalType": "uint256",
          "name": "",
          "type": "uint256"
        },
        {
          "internalType": "uint256",
          "name": "",
          "type": "uint256"
        }
      ],
      "stateMutability": "nonpayable",
      "type": "function"
    },
    {
      "inputs": [
        {
          "internalType": "uint256",
          "name": "_auctionId",
          "type": "uint256"
        }
      ],
      "name": "getAuctionStatus",
      "outputs": [
        {
          "internalType": "enum IAuctionManager.AuctionStatus",
          "name": "",
          "type": "uint8"
        }
      ],
      "stateMutability": "nonpayable",
      "type": "function"
    },
    {
      "inputs": [
        {
          "internalType": "uint256",
          "name": "_bidderId",
          "type": "uint256"
        }
      ],
      "name": "getBidderBids",
      "outputs": [
        {
          "internalType": "uint256[]",
          "name": "",
          "type": "uint256[]"
        }
      ],
      "stateMutability": "view",
      "type": "function"
    },
    {
      "inputs": [
        {
          "internalType": "uint256",
          "name": "_auctionId",
          "type": "uint256"
        },
        {
          "internalType": "uint256",
          "name": "_newStartTime",
          "type": "uint256"
        }
      ],
      "name": "updateAuctionStartTime",
      "outputs": [],
      "stateMutability": "nonpayable",
      "type": "function"
    },
    {
      "inputs": [
        {
          "internalType": "uint256",
          "name": "_auctionId",
          "type": "uint256"
        }
      ],
      "name": "getAuctionBids",
      "outputs": [
        {
          "internalType": "uint256[]",
          "name": "",
          "type": "uint256[]"
        }
      ],
      "stateMutability": "view",
      "type": "function"
    },
    {
      "inputs": [
        {
          "internalType": "uint256",
          "name": "_bidId",
          "type": "uint256"
        }
      ],
      "name": "getBid",
      "outputs": [
        {
          "internalType": "bytes32",
          "name": "",
          "type": "bytes32"
        },
        {
          "internalType": "uint256",
          "name": "",
          "type": "uint256"
        },
        {
          "internalType": "uint256",
          "name": "",
          "type": "uint256"
        },
        {
          "internalType": "uint8",
          "name": "",
          "type": "uint8"
        },
        {
          "internalType": "uint256",
          "name": "",
          "type": "uint256"
        },
        {
          "internalType": "uint256",
          "name": "",
          "type": "uint256"
        },
        {
          "internalType": "uint256",
          "name": "",
          "type": "uint256"
        }
      ],
      "stateMutability": "view",
      "type": "function"
    },
    {
      "inputs": [
        {
          "internalType": "uint256",
          "name": "_auctionId",
          "type": "uint256"
        }
      ],
      "name": "getNumberOfBidsInAuction",
      "outputs": [
        {
          "internalType": "uint256",
          "name": "",
          "type": "uint256"
        }
      ],
      "stateMutability": "view",
      "type": "function"
    },
    {
      "inputs": [
        {
          "internalType": "uint256",
          "name": "_auctionId",
          "type": "uint256"
        }
      ],
      "name": "getAuction",
      "outputs": [
        {
          "internalType": "uint256",
          "name": "",
          "type": "uint256"
        },
        {
          "internalType": "uint256",
          "name": "",
          "type": "uint256"
        },
        {
          "internalType": "uint256",
          "name": "",
          "type": "uint256"
        },
        {
          "internalType": "uint256",
          "name": "",
          "type": "uint256"
        },
        {
          "internalType": "uint256[]",
          "name": "",
          "type": "uint256[]"
        },
        {
          "internalType": "uint256",
          "name": "",
          "type": "uint256"
        },
        {
          "internalType": "uint8",
          "name": "",
          "type": "uint8"
        }
      ],
      "stateMutability": "view",
      "type": "function"
    }
  ],
  "bytecode": "0x608060405234801561001057600080fd5b50611c89806100206000396000f3fe608060405234801561001057600080fd5b50600436106100f55760003560e01c80637a88dece116100975780639ae001ff116100665780639ae001ff14610275578063b8f4e5a514610288578063dc05d9521461029b578063e8083863146102ae57600080fd5b80637a88dece1461021b578063897f1e4a1461023c578063908e27eb1461024f57806394d0f15e1461026257600080fd5b8063572b6c05116100d3578063572b6c051461018357806370b4768e146101b55780637765c52c146101d557806378bd7935146101f557600080fd5b80633c889e6f146100fa578063485cc95514610149578063571a26a01461015e575b600080fd5b61010d610108366004611986565b6102dc565b6040805197885260208801969096529486019390935260ff9091166060850152608084015260a083015260c082015260e0015b60405180910390f35b61015c6101573660046119bb565b6103d6565b005b61017161016c366004611986565b6104d6565b60405161014096959493929190611a26565b6101a5610191366004611a56565b6033546001600160a01b0391821691161490565b6040519015158152602001610140565b6101c86101c3366004611986565b61051f565b6040516101409190611ab3565b6101e86101e3366004611986565b61059b565b6040516101409190611ac6565b610208610203366004611986565b6107b0565b6040516101409796959493929190611ada565b61022e610229366004611986565b6108f4565b604051908152602001610140565b6101c861024a366004611986565b610923565b61022e61025d366004611b22565b610983565b61015c610270366004611b4e565b610cf5565b61015c610283366004611b89565b611071565b61022e610296366004611bab565b611108565b61022e6102a9366004611b89565b6113c7565b6102c16102bc366004611986565b6113f8565b60408051938452602084019290925290820152606001610140565b600080600080600080600080606889815481106102fb576102fb611bdd565b90600052602060002090600702016040518060e00160405290816000820154815260200160018201548152602001600282015481526020016003820160009054906101000a900460ff166002811115610356576103566119ee565b6002811115610367576103676119ee565b815260200160048201548152602001600582015481526020016006820154815250509050806000015181602001518260400151836060015160028111156103b0576103b06119ee565b608085015160a086015160c090960151949e939d50919b50995097509195509350915050565b600054610100900460ff166103f15760005460ff16156103f5565b303b155b61046c5760405162461bcd60e51b815260206004820152602e60248201527f496e697469616c697a61626c653a20636f6e747261637420697320616c72656160448201527f647920696e697469616c697a656400000000000000000000000000000000000060648201526084015b60405180910390fd5b600054610100900460ff1615801561048e576000805461ffff19166101011790555b61049782611778565b6066805473ffffffffffffffffffffffffffffffffffffffff19166001600160a01b03851617905580156104d1576000805461ff00191690555b505050565b606781815481106104e657600080fd5b60009182526020909120600790910201805460018201546002830154600384015460058501546006909501549395509193909260ff1686565b60606067828154811061053457610534611bdd565b906000526020600020906007020160040180548060200260200160405190810160405280929190818152602001828054801561058f57602002820191906000526020600020905b81548152602001906001019080831161057b575b50505050509050919050565b600080606783815481106105b1576105b1611bdd565b90600052602060002090600702016040518060e0016040529081600082015481526020016001820154815260200160028201548152602001600382015481526020016004820180548060200260200160405190810160405280929190818152602001828054801561064157602002820191906000526020600020905b81548152602001906001019080831161062d575b505050918352505060058201546020820152600682015460409091019060ff166003811115610672576106726119ee565b6003811115610683576106836119ee565b81525050905080604001514210156106e5576000606784815481106106aa576106aa611bdd565b60009182526020909120600660079092020101805460ff191660018360038111156106d7576106d76119ee565b021790555060009392505050565b8060400151421015801561070b5750806060015181604001516107089190611c09565b42105b156107605760016067848154811061072557610725611bdd565b60009182526020909120600660079092020101805460ff19166001836003811115610752576107526119ee565b021790555060019392505050565b60026067848154811061077557610775611bdd565b60009182526020909120600660079092020101805460ff191660018360038111156107a2576107a26119ee565b021790555060029392505050565b60008060008060606000806000606789815481106107d0576107d0611bdd565b90600052602060002090600702016040518060e0016040529081600082015481526020016001820154815260200160028201548152602001600382015481526020016004820180548060200260200160405190810160405280929190818152602001828054801561086057602002820191906000526020600020905b81548152602001906001019080831161084c575b505050918352505060058201546020820152600682015460409091019060ff166003811115610891576108916119ee565b60038111156108a2576108a26119ee565b815250509050806000015181602001518260400151836060015184608001518560a001518660c0015160038111156108dc576108dc6119ee565b959f949e50929c50909a509850965090945092505050565b60006067828154811061090957610909611bdd565b600091825260209091206004600790920201015492915050565b60008181526069602090815260409182902080548351818402810184019094528084526060939283018282801561058f576020028201919060005260206000209081548152602001906001019080831161057b5750505050509050919050565b6066546000906001600160a01b031661099a6117f7565b6001600160a01b0316146109f05760405162461bcd60e51b815260206004820152601e60248201527f43616e206f6e6c792062652063616c6c656420627920726567697374727900006044820152606401610463565b600060678481548110610a0557610a05611bdd565b90600052602060002090600702016040518060e00160405290816000820154815260200160018201548152602001600282015481526020016003820154815260200160048201805480602002602001604051908101604052809291908181526020018280548015610a9557602002820191906000526020600020905b815481526020019060010190808311610a81575b505050918352505060058201546020820152600682015460409091019060ff166003811115610ac657610ac66119ee565b6003811115610ad757610ad76119ee565b90525090506001610ae78561059b565b6003811115610af857610af86119ee565b14610b555760405162461bcd60e51b815260206004820152602760248201527f43616e206f6e6c7920636f6d6d697420647572696e672074686520636f6d6d696044820152667420706861736560c81b6064820152608401610463565b6040805160e081018252868152600060208201818152928201818152606083018281528551608085015260a0840189905260c08401889052606880546001808201835591909452845160079094027fa2153420d844928b4421650203c77babc8b33d7f2e7b450e2966db0c22097753810194855595517fa2153420d844928b4421650203c77babc8b33d7f2e7b450e2966db0c2209775487015591517fa2153420d844928b4421650203c77babc8b33d7f2e7b450e2966db0c22097755860155517fa2153420d844928b4421650203c77babc8b33d7f2e7b450e2966db0c22097756909401805493948594909260ff1990911690836002811115610c5b57610c5b6119ee565b02179055506080820151600482015560a0820151600582015560c090910151600690910155606854600090610c9290600190611c21565b905060678681548110610ca757610ca7611bdd565b60009182526020808320600460079093020191909101805460018181018355918452828420018490558783526069825260408320805491820181558352912001819055925050509392505050565b6066546001600160a01b0316610d096117f7565b6001600160a01b031614610d5f5760405162461bcd60e51b815260206004820152601e60248201527f43616e206f6e6c792062652063616c6c656420627920726567697374727900006044820152606401610463565b600060688381548110610d7457610d74611bdd565b90600052602060002090600702016040518060e00160405290816000820154815260200160018201548152602001600282015481526020016003820160009054906101000a900460ff166002811115610dcf57610dcf6119ee565b6002811115610de057610de06119ee565b8152600482015460208201526005820154604082015260069091015460609091015290506002610e0f8561059b565b6003811115610e2057610e206119ee565b14610e7d5760405162461bcd60e51b815260206004820152602760248201527f43616e206f6e6c7920636f6d6d697420647572696e67207468652072657665616044820152666c20706861736560c81b6064820152608401610463565b818160c0015114610edc5760405162461bcd60e51b8152602060048201526024808201527f4f6e6c7920746865206269646465722063616e2072657665616c20746865697260448201526308189a5960e21b6064820152608401610463565b600081606001516002811115610ef457610ef46119ee565b14610f415760405162461bcd60e51b815260206004820152601f60248201527f43616e206f6e6c792072657665616c206120636f6d6d697474656420626964006044820152606401610463565b6040805160208082018990528183018890528251808303840181526060909201909252805191012081518114610fcf5760405162461bcd60e51b815260206004820152602d60248201527f436f6d6d69747465642062696420646f6573206e6f74206d617463682074686560448201526c081c995d99585b195908189a59609a1b6064820152608401610463565b8660688581548110610fe357610fe3611bdd565b906000526020600020906007020160010181905550856068858154811061100c5761100c611bdd565b90600052602060002090600702016002018190555060016068858154811061103657611036611bdd565b60009182526020909120600360079092020101805460ff19166001836002811115611063576110636119ee565b021790555050505050505050565b6066546001600160a01b03166110856117f7565b6001600160a01b0316146110db5760405162461bcd60e51b815260206004820152601e60248201527f43616e206f6e6c792062652063616c6c656420627920726567697374727900006044820152606401610463565b80606783815481106110ef576110ef611bdd565b9060005260206000209060070201600201819055505050565b6066546000906001600160a01b031661111f6117f7565b6001600160a01b0316146111755760405162461bcd60e51b815260206004820152601e60248201527f43616e206f6e6c792062652063616c6c656420627920726567697374727900006044820152606401610463565b428310156111d85760405162461bcd60e51b815260206004820152602a60248201527f41756374696f6e4d616e616765723a3a496e76616c69642061756374696f6e2060448201526973746172742074696d6560b01b6064820152608401610463565b600082116112395760405162461bcd60e51b815260206004820152602860248201527f41756374696f6e4d616e616765723a3a496e76616c69642061756374696f6e20604482015267323ab930ba34b7b760c11b6064820152608401610463565b606060006040518060e001604052808881526020018781526020018681526020018581526020018381526020016000815260200160006003811115611280576112806119ee565b905260678054600181018255600091909152815160079091027f9787eeb91fe3101235e4a76063c7023ecb40f923f97916639c598592fa30d6ae81019182556020808401517f9787eeb91fe3101235e4a76063c7023ecb40f923f97916639c598592fa30d6af83015560408401517f9787eeb91fe3101235e4a76063c7023ecb40f923f97916639c598592fa30d6b083015560608401517f9787eeb91fe3101235e4a76063c7023ecb40f923f97916639c598592fa30d6b1830155608084015180519495508594611378937f9787eeb91fe3101235e4a76063c7023ecb40f923f97916639c598592fa30d6b201929190910190611926565b5060a0820151600582015560c082015160068201805460ff191660018360038111156113a6576113a66119ee565b0217905550506067546113bc9150600190611c21565b979650505050505050565b606960205281600052604060002081815481106113e357600080fd5b90600052602060002001600091509150505481565b606654600090819081906001600160a01b03166114136117f7565b6001600160a01b0316146114695760405162461bcd60e51b815260206004820152601e60248201527f43616e206f6e6c792062652063616c6c656420627920726567697374727900006044820152606401610463565b60026114748561059b565b6003811115611485576114856119ee565b146114f85760405162461bcd60e51b815260206004820152603060248201527f43616e206f6e6c792066696e616c697a6520616e2061756374696f6e20696e2060448201527f7468652072657665616c207374616765000000000000000000000000000000006064820152608401610463565b60006067858154811061150d5761150d611bdd565b90600052602060002090600702016040518060e0016040529081600082015481526020016001820154815260200160028201548152602001600382015481526020016004820180548060200260200160405190810160405280929190818152602001828054801561159d57602002820191906000526020600020905b815481526020019060010190808311611589575b505050918352505060058201546020820152600682015460409091019060ff1660038111156115ce576115ce6119ee565b60038111156115df576115df6119ee565b905250608081015151909150600080805b8381101561167d57600060688660800151838151811061161257611612611bdd565b60200260200101518154811061162a5761162a611bdd565b90600052602060002090600702016001015490508281111561166a578560800151828151811061165c5761165c611bdd565b602002602001015193508092505b508061167581611c38565b9150506115f0565b50811561173c5760036067898154811061169957611699611bdd565b60009182526020909120600660079092020101805460ff191660018360038111156116c6576116c66119ee565b021790555081606789815481106116df576116df611bdd565b90600052602060002090600702016005018190555060026068838154811061170957611709611bdd565b60009182526020909120600360079092020101805460ff19166001836002811115611736576117366119ee565b02179055505b806068838154811061175057611750611bdd565b9060005260206000209060070201600601548560000151965096509650505050509193909250565b600054610100900460ff166117e35760405162461bcd60e51b815260206004820152602b60248201527f496e697469616c697a61626c653a20636f6e7472616374206973206e6f74206960448201526a6e697469616c697a696e6760a81b6064820152608401610463565b6117eb61181f565b6117f48161188c565b50565b6033546000906001600160a01b031633141561181a575060131936013560601c90565b503390565b600054610100900460ff1661188a5760405162461bcd60e51b815260206004820152602b60248201527f496e697469616c697a61626c653a20636f6e7472616374206973206e6f74206960448201526a6e697469616c697a696e6760a81b6064820152608401610463565b565b600054610100900460ff166118f75760405162461bcd60e51b815260206004820152602b60248201527f496e697469616c697a61626c653a20636f6e7472616374206973206e6f74206960448201526a6e697469616c697a696e6760a81b6064820152608401610463565b6033805473ffffffffffffffffffffffffffffffffffffffff19166001600160a01b0392909216919091179055565b828054828255906000526020600020908101928215611961579160200282015b82811115611961578251825591602001919060010190611946565b5061196d929150611971565b5090565b5b8082111561196d5760008155600101611972565b60006020828403121561199857600080fd5b5035919050565b80356001600160a01b03811681146119b657600080fd5b919050565b600080604083850312156119ce57600080fd5b6119d78361199f565b91506119e56020840161199f565b90509250929050565b634e487b7160e01b600052602160045260246000fd5b60048110611a2257634e487b7160e01b600052602160045260246000fd5b9052565b600060c0820190508782528660208301528560408301528460608301528360808301526113bc60a0830184611a04565b600060208284031215611a6857600080fd5b611a718261199f565b9392505050565b600081518084526020808501945080840160005b83811015611aa857815187529582019590820190600101611a8c565b509495945050505050565b602081526000611a716020830184611a78565b60208101611ad48284611a04565b92915050565b87815286602082015285604082015284606082015260e060808201526000611b0560e0830186611a78565b90508360a083015260ff831660c083015298975050505050505050565b600080600060608486031215611b3757600080fd5b505081359360208301359350604090920135919050565b600080600080600060a08688031215611b6657600080fd5b505083359560208501359550604085013594606081013594506080013592509050565b60008060408385031215611b9c57600080fd5b50508035926020909101359150565b60008060008060808587031215611bc157600080fd5b5050823594602084013594506040840135936060013592509050565b634e487b7160e01b600052603260045260246000fd5b634e487b7160e01b600052601160045260246000fd5b60008219821115611c1c57611c1c611bf3565b500190565b600082821015611c3357611c33611bf3565b500390565b6000600019821415611c4c57611c4c611bf3565b506001019056fea26469706673582212205fc44862ffa465b0da4e387fdf45aacc4a7a68ae6fd6325c49cfc1d0e924a98a64736f6c634300080c0033",
  "immutableReferences": {},
  "source": "// SPDX-License-Identifier: MIT\n\npragma solidity ^0.8.12;\n\nimport \"@openzeppelin/contracts-upgradeable/token/ERC20/ERC20Upgradeable.sol\";\nimport \"@openzeppelin/contracts-upgradeable/proxy/utils/Initializable.sol\";\nimport \"./patches/ERC2771ContextUpgradeable.sol\";\nimport \"./interfaces/IAuctionManager.sol\";\n// import \"./UnicoinRegistry.sol\";\n\ncontract AuctionManager is Initializable, IAuctionManager, ERC2771ContextUpgradeable {\n    enum BidStatus { Committed, Revealed, Winner }\n\n    struct Auction {\n        uint256 publicationId;\n        uint256 auctionFloor;\n        uint256 startingTime;\n        uint256 duration;\n        uint256[] auctionBidIds;\n        uint256 winningBidId;\n        AuctionStatus status;\n    }\n\n    address registry;\n\n    modifier onlyRegistry() {\n        require(_msgSender() == registry, \"Can only be called by registry\");\n        _;\n    }\n\n    Auction[] public auctions;\n\n    struct Bid {\n        bytes32 commitBid;\n        uint256 revealedBid;\n        uint256 revealedSalt;\n        BidStatus status;\n        uint256 publicationId;\n        uint256 auctionId;\n        uint256 bidderId; // owner of the bid\n    }\n\n    Bid[] bids;\n\n    // Maps all bidders' IDs to their bids\n    mapping(uint256 => uint256[]) public bidOwners;\n\n    function initialize(address _unicoinRegistry, address _trustedForwarder) public initializer {\n        __ERC2771Context_init(_trustedForwarder);\n\n        registry = _unicoinRegistry;\n        // unicoinRegistry = UnicoinRegistry(_unicoinRegistry);\n    }\n\n    function _createAuction(\n        uint256 _publicationId,\n        uint256 _auctionFloor,\n        uint256 _auctionStartTime,\n        uint256 _auctionDuration\n    ) public onlyRegistry returns (uint256) {\n        require(_auctionStartTime >= block.timestamp, \"AuctionManager::Invalid auction start time\");\n        require(_auctionDuration > 0, \"AuctionManager::Invalid auction duration\");\n\n        uint256[] memory auctionBidIds;\n        Auction memory auction = Auction(\n            _publicationId,\n            _auctionFloor,\n            _auctionStartTime,\n            _auctionDuration,\n            auctionBidIds,\n            0, //No winning bid in the begining\n            AuctionStatus.Pending\n        );\n\n        auctions.push(auction);\n\n        return auctions.length - 1; // new auction Id\n    }\n\n    function _commitSealedBid(bytes32 _bidHash, uint256 _auctionId, uint256 _bidderId)\n        public\n        onlyRegistry\n        returns (uint256)\n    {\n        Auction memory auction = auctions[_auctionId];\n\n        require(getAuctionStatus(_auctionId) == AuctionStatus.Commit, \"Can only commit during the commit phase\");\n\n        Bid memory bid = Bid(_bidHash, 0, 0, BidStatus.Committed, auction.publicationId, _auctionId, _bidderId);\n\n        bids.push(bid);\n        uint256 bidId = bids.length - 1;\n\n        auctions[_auctionId].auctionBidIds.push(bidId);\n\n        bidOwners[_bidderId].push(bidId);\n\n        return bidId;\n    }\n\n    function revealSealedBid(uint256 _bid, uint256 _salt, uint256 _auctionId, uint256 _bidId, uint256 _bidderId)\n        public\n        onlyRegistry\n    {\n        Bid memory bid = bids[_bidId];\n\n        require(getAuctionStatus(_auctionId) == AuctionStatus.Reveal, \"Can only commit during the reveal phase\");\n        require(bid.bidderId == _bidderId, \"Only the bidder can reveal their bid\");\n        require(bid.status == BidStatus.Committed, \"Can only reveal a committed bid\");\n\n        bytes32 revealedBidHash = keccak256(abi.encode(_bid, _salt));\n\n        require(bid.commitBid == revealedBidHash, \"Committed bid does not match the revealed bid\");\n\n        bids[_bidId].revealedBid = _bid;\n        bids[_bidId].revealedSalt = _salt;\n        bids[_bidId].status = BidStatus.Revealed;\n    }\n\n    function finalizeAuction(uint256 _auctionId) public onlyRegistry returns (uint256, uint256, uint256) {\n        require(\n            getAuctionStatus(_auctionId) == AuctionStatus.Reveal,\n            \"Can only finalize an auction in the reveal stage\"\n        );\n\n        Auction memory auction = auctions[_auctionId];\n\n        uint256 numOfBids = auction.auctionBidIds.length;\n\n        uint256 leadingBid = 0;\n        uint256 leadingBidAmount = 0;\n\n        for (uint256 i = 0; i < numOfBids; i++) {\n            uint256 bidAmount = bids[auction.auctionBidIds[i]].revealedBid;\n            if (bidAmount > leadingBidAmount) {\n                //need to check that the bidder has enough balance and enough allowance to be able to\n                // win the auction. Ask the vault via the registry for this information.\n                // if (\n                //     // unicoinRegistry.canAddressPay(\n                //         bids[auction.auction_bid_ids[i]].bidder_Id,\n                //         bidAmount\n                //     )\n                // ) {\n                leadingBid = auction.auctionBidIds[i];\n                leadingBidAmount = bidAmount;\n                // }\n            }\n        }\n\n        if (leadingBid > 0) {\n            auctions[_auctionId].status = AuctionStatus.Finalized;\n            auctions[_auctionId].winningBidId = leadingBid;\n            bids[leadingBid].status = BidStatus.Winner;\n        }\n\n        return (leadingBidAmount, bids[leadingBid].bidderId, auction.publicationId);\n    }\n\n    function getAuctionStatus(uint256 _auctionId) public returns (AuctionStatus) {\n        Auction memory auction = auctions[_auctionId];\n        if (block.timestamp < auction.startingTime) {\n            auctions[_auctionId].status = AuctionStatus.Pending;\n            return AuctionStatus.Pending;\n        } else if (\n            block.timestamp >= auction.startingTime && block.timestamp < (auction.startingTime + auction.duration)\n        ) {\n            auctions[_auctionId].status = AuctionStatus.Commit;\n            return AuctionStatus.Commit;\n        } else {\n            auctions[_auctionId].status = AuctionStatus.Reveal;\n            return AuctionStatus.Reveal;\n        }\n    }\n\n    function getBidderBids(uint256 _bidderId) public view returns (uint256[] memory) {\n        return bidOwners[_bidderId];\n    }\n\n    function updateAuctionStartTime(uint256 _auctionId, uint256 _newStartTime) public onlyRegistry {\n        auctions[_auctionId].startingTime = _newStartTime;\n    }\n\n    function getAuctionBids(uint256 _auctionId) public view returns (uint256[] memory) {\n        return auctions[_auctionId].auctionBidIds;\n    }\n\n    function getBid(uint256 _bidId) public view returns (bytes32, uint256, uint256, uint8, uint256, uint256, uint256) {\n        Bid memory bid = bids[_bidId];\n        return (\n            bid.commitBid,\n            bid.revealedBid,\n            bid.revealedSalt,\n            uint8(bid.status),\n            bid.publicationId,\n            bid.auctionId,\n            bid.bidderId\n        );\n    }\n\n    function getNumberOfBidsInAuction(uint256 _auctionId) public view returns (uint256) {\n        return auctions[_auctionId].auctionBidIds.length;\n    }\n\n    function getAuction(uint256 _auctionId)\n        public\n        view\n        returns (uint256, uint256, uint256, uint256, uint256[] memory, uint256, uint8)\n    {\n        Auction memory auction = auctions[_auctionId];\n        return (\n            auction.publicationId,\n            auction.auctionFloor,\n            auction.startingTime,\n            auction.duration,\n            auction.auctionBidIds,\n            auction.winningBidId,\n            uint8(auction.status)\n        );\n    }\n}\n",
  "sourcePath": "/home/azureuser/unicoin/unicoin2.0/contracts/AuctionManager.sol",
  "compiler": {
    "name": "solc",
    "version": "0.8.12+commit.f00d7308.Emscripten.clang"
  },
  "schemaVersion": "3.4.6",
  "updatedAt": "2022-03-16T11:23:44.700Z",
  "devdoc": {
    "kind": "dev",
    "methods": {},
    "version": 1
  },
  "userdoc": {
    "kind": "user",
    "methods": {},
    "version": 1
  }
}