{
  "contractName": "AuctionManager",
  "abi": [
    {
      "inputs": [
        {
          "internalType": "address",
          "name": "unicoinRegistry",
          "type": "address"
        },
        {
          "internalType": "address",
          "name": "trustedForwarder",
          "type": "address"
        }
      ],
      "stateMutability": "nonpayable",
      "type": "constructor"
    },
    {
      "anonymous": false,
      "inputs": [
        {
          "indexed": false,
          "internalType": "uint8",
          "name": "version",
          "type": "uint8"
        }
      ],
      "name": "Initialized",
      "type": "event"
    },
    {
      "inputs": [
        {
          "internalType": "uint256",
          "name": "",
          "type": "uint256"
        }
      ],
      "name": "auctions",
      "outputs": [
        {
          "internalType": "uint256",
          "name": "publicationId",
          "type": "uint256"
        },
        {
          "internalType": "uint256",
          "name": "auctionFloor",
          "type": "uint256"
        },
        {
          "internalType": "uint256",
          "name": "startingTime",
          "type": "uint256"
        },
        {
          "internalType": "uint256",
          "name": "duration",
          "type": "uint256"
        },
        {
          "internalType": "uint256",
          "name": "winningBidId",
          "type": "uint256"
        },
        {
          "internalType": "enum SharedStructures.AuctionStatus",
          "name": "status",
          "type": "uint8"
        }
      ],
      "stateMutability": "view",
      "type": "function"
    },
    {
      "inputs": [
        {
          "internalType": "address",
          "name": "",
          "type": "address"
        },
        {
          "internalType": "uint256",
          "name": "",
          "type": "uint256"
        }
      ],
      "name": "bidOwners",
      "outputs": [
        {
          "internalType": "uint256",
          "name": "",
          "type": "uint256"
        }
      ],
      "stateMutability": "view",
      "type": "function"
    },
    {
      "inputs": [
        {
          "internalType": "address",
          "name": "forwarder",
          "type": "address"
        }
      ],
      "name": "isTrustedForwarder",
      "outputs": [
        {
          "internalType": "bool",
          "name": "",
          "type": "bool"
        }
      ],
      "stateMutability": "view",
      "type": "function"
    },
    {
      "inputs": [
        {
          "internalType": "uint256",
          "name": "_publicationId",
          "type": "uint256"
        },
        {
          "internalType": "uint256",
          "name": "_auctionFloor",
          "type": "uint256"
        },
        {
          "internalType": "uint256",
          "name": "_auctionStartTime",
          "type": "uint256"
        },
        {
          "internalType": "uint256",
          "name": "_auctionDuration",
          "type": "uint256"
        }
      ],
      "name": "_createAuction",
      "outputs": [
        {
          "internalType": "uint256",
          "name": "",
          "type": "uint256"
        }
      ],
      "stateMutability": "nonpayable",
      "type": "function"
    },
    {
      "inputs": [
        {
          "internalType": "bytes32",
          "name": "_bidHash",
          "type": "bytes32"
        },
        {
          "internalType": "uint256",
          "name": "_auctionId",
          "type": "uint256"
        },
        {
          "internalType": "address",
          "name": "_bidderAddress",
          "type": "address"
        }
      ],
      "name": "_commitSealedBid",
      "outputs": [
        {
          "internalType": "uint256",
          "name": "",
          "type": "uint256"
        }
      ],
      "stateMutability": "nonpayable",
      "type": "function"
    },
    {
      "inputs": [
        {
          "internalType": "uint256",
          "name": "_bid",
          "type": "uint256"
        },
        {
          "internalType": "uint256",
          "name": "_salt",
          "type": "uint256"
        },
        {
          "internalType": "uint256",
          "name": "_auctionId",
          "type": "uint256"
        },
        {
          "internalType": "uint256",
          "name": "_bidId",
          "type": "uint256"
        },
        {
          "internalType": "address",
          "name": "_bidderAddress",
          "type": "address"
        }
      ],
      "name": "revealSealedBid",
      "outputs": [],
      "stateMutability": "nonpayable",
      "type": "function"
    },
    {
      "inputs": [
        {
          "internalType": "uint256",
          "name": "_auctionId",
          "type": "uint256"
        }
      ],
      "name": "finalizeAuction",
      "outputs": [
        {
          "components": [
            {
              "internalType": "uint256",
              "name": "winningAmount",
              "type": "uint256"
            },
            {
              "internalType": "address",
              "name": "winnerAddress",
              "type": "address"
            },
            {
              "internalType": "uint256",
              "name": "publicationId",
              "type": "uint256"
            }
          ],
          "internalType": "struct SharedStructures.AuctionResult",
          "name": "result",
          "type": "tuple"
        }
      ],
      "stateMutability": "nonpayable",
      "type": "function"
    },
    {
      "inputs": [
        {
          "internalType": "uint256",
          "name": "_auctionId",
          "type": "uint256"
        }
      ],
      "name": "getAuctionStatus",
      "outputs": [
        {
          "internalType": "enum SharedStructures.AuctionStatus",
          "name": "",
          "type": "uint8"
        }
      ],
      "stateMutability": "nonpayable",
      "type": "function"
    },
    {
      "inputs": [
        {
          "internalType": "address",
          "name": "_bidderAddress",
          "type": "address"
        }
      ],
      "name": "getBidderBids",
      "outputs": [
        {
          "internalType": "uint256[]",
          "name": "",
          "type": "uint256[]"
        }
      ],
      "stateMutability": "view",
      "type": "function"
    },
    {
      "inputs": [
        {
          "internalType": "uint256",
          "name": "_auctionId",
          "type": "uint256"
        },
        {
          "internalType": "uint256",
          "name": "_newStartTime",
          "type": "uint256"
        }
      ],
      "name": "updateAuctionStartTime",
      "outputs": [],
      "stateMutability": "nonpayable",
      "type": "function"
    },
    {
      "inputs": [
        {
          "internalType": "uint256",
          "name": "_auctionId",
          "type": "uint256"
        }
      ],
      "name": "getAuctionBids",
      "outputs": [
        {
          "internalType": "uint256[]",
          "name": "",
          "type": "uint256[]"
        }
      ],
      "stateMutability": "view",
      "type": "function"
    },
    {
      "inputs": [
        {
          "internalType": "uint256",
          "name": "_bidId",
          "type": "uint256"
        }
      ],
      "name": "getBid",
      "outputs": [
        {
          "components": [
            {
              "internalType": "bytes32",
              "name": "commitBid",
              "type": "bytes32"
            },
            {
              "internalType": "uint256",
              "name": "revealedBid",
              "type": "uint256"
            },
            {
              "internalType": "uint256",
              "name": "revealedSalt",
              "type": "uint256"
            },
            {
              "internalType": "enum SharedStructures.BidStatus",
              "name": "status",
              "type": "uint8"
            },
            {
              "internalType": "uint256",
              "name": "publicationId",
              "type": "uint256"
            },
            {
              "internalType": "uint256",
              "name": "auctionId",
              "type": "uint256"
            },
            {
              "internalType": "address",
              "name": "bidderAddress",
              "type": "address"
            }
          ],
          "internalType": "struct SharedStructures.Bid",
          "name": "",
          "type": "tuple"
        }
      ],
      "stateMutability": "view",
      "type": "function"
    },
    {
      "inputs": [
        {
          "internalType": "uint256",
          "name": "_auctionId",
          "type": "uint256"
        }
      ],
      "name": "getNumberOfBidsInAuction",
      "outputs": [
        {
          "internalType": "uint256",
          "name": "",
          "type": "uint256"
        }
      ],
      "stateMutability": "view",
      "type": "function"
    },
    {
      "inputs": [
        {
          "internalType": "uint256",
          "name": "_auctionId",
          "type": "uint256"
        }
      ],
      "name": "getAuction",
      "outputs": [
        {
          "components": [
            {
              "internalType": "uint256",
              "name": "publicationId",
              "type": "uint256"
            },
            {
              "internalType": "uint256",
              "name": "auctionFloor",
              "type": "uint256"
            },
            {
              "internalType": "uint256",
              "name": "startingTime",
              "type": "uint256"
            },
            {
              "internalType": "uint256",
              "name": "duration",
              "type": "uint256"
            },
            {
              "internalType": "uint256[]",
              "name": "auctionBidIds",
              "type": "uint256[]"
            },
            {
              "internalType": "uint256",
              "name": "winningBidId",
              "type": "uint256"
            },
            {
              "internalType": "enum SharedStructures.AuctionStatus",
              "name": "status",
              "type": "uint8"
            }
          ],
          "internalType": "struct SharedStructures.Auction",
          "name": "",
          "type": "tuple"
        }
      ],
      "stateMutability": "view",
      "type": "function"
    }
  ],
  "bytecode": "0x60c0346200010657601f620014b838819003918201601f19168301916001600160401b038311848410176200010b57808492604094855283398101031262000106576200005a6020620000528362000121565b920162000121565b608052620000676200019a565b9081620000f1575b60a052620000b5575b6040516112d89081620001e08239608051818181610c9b015261104a015260a05181818160f9015281816103560152818161055201526107d40152f35b61ff0019600054166000557f7f26b83ff96e1f2b6a682f133852f6798a09c465da95921460cefb3847402498602060405160018152a162000078565b61010061ff001960005416176000556200006f565b600080fd5b634e487b7160e01b600052604160045260246000fd5b51906001600160a01b03821682036200010657565b156200013e57565b60405162461bcd60e51b815260206004820152602e60248201527f496e697469616c697a61626c653a20636f6e747261637420697320616c72656160448201526d191e481a5b9a5d1a585b1a5e995960921b6064820152608490fd5b60005460ff8160081c16600014620001bf5750620001ba303b1562000136565b600090565b80620001d2600160ff8194161062000136565b60ff19161760005560019056fe608060408181526004908136101561001657600080fd5b600092833560e01c9081633c889e6f14610dee57508063571a26a014610cc2578063572b6c0514610c6f5780635ccc397e14610c19578063625d8e7814610be057806370b4768e14610ba95780637765c52c14610b7b57806378bd793514610a9e5780637a88dece14610a735780639ae001ff14610a40578063b8f4e5a5146107a4578063d34b555c1461050e578063e8083863146102fa5763f2af09d4146100be57600080fd5b346102f65760603660031901126102f6576024928335604435946001600160a01b038087168097036102f2576101206100f5611047565b82167f0000000000000000000000000000000000000000000000000000000000000000831614610fc9565b61013261012c84610efd565b506110ea565b61013b84611205565b878110156102e05760010361028e575190855161015781611015565b87358152602081019286845287820190878252606083018881526080840191825260a084019288845260c08501968d88526066546801000000000000000081101561027b578060016101ac9201606655610eac565b969096610269575186555160018601555160028501556003840190516003811015610257579060069493929160ff80198354169116179055518a830155516005820155019151166001600160a01b0319825416179055606654906001821061024657506102409260209661023461022d948794600019019889968792610efd565b500161114d565b8152606787522061114d565b51908152f35b634e487b7160e01b84526011865283fd5b634e487b7160e01b8a5260218c52878afd5b50634e487b7160e01b8b528a8d52888bfd5b50634e487b7160e01b8b5260418d52888bfd5b855162461bcd60e51b81526020818901526027818501527f43616e206f6e6c7920636f6d6d697420647572696e672074686520636f6d6d696044820152667420706861736560c81b6064820152608490fd5b634e487b7160e01b8652602188528386fd5b8380fd5b8280fd5b5082903461050a57602036600319011261050a5782358151926060840184811067ffffffffffffffff8211176104f75783528084526020840181815283850192828452610345611047565b9261037e6001600160a01b039485807f000000000000000000000000000000000000000000000000000000000000000016911614610fc9565b61038782611205565b888110156104e45760020361047b5760806103a461012c84610efd565b01805151988291825b8b811061041d575050505060609750806103d8575b5050835194518552511660208401525190820152f35b600361040d82600293600561040560066103f189610efd565b50019760ff1998878a825416179055610efd565b500155610eac565b50019182541617905586806103c2565b600161043361042d8385516111f1565b51610eac565b5001548b518111610464575b506000198114610451576001016103ad565b634e487b7160e01b845260118352602484fd5b94506104718183516111f1565b51948b528c61043f565b855162461bcd60e51b81526020818a0152603060248201527f43616e206f6e6c792066696e616c697a6520616e2061756374696f6e20696e2060448201527f7468652072657665616c207374616765000000000000000000000000000000006064820152608490fd5b634e487b7160e01b825260218952602482fd5b634e487b7160e01b825260418652602482fd5b5080fd5b5090346102f65760a03660031901126102f6576064359060248035918035916001600160a01b03608435818116908190036107a05761057961054e611047565b83167f0000000000000000000000000000000000000000000000000000000000000000841614610fc9565b61058b61058588610eac565b50611189565b91610597604435611205565b8581101561078e5760020361073c5760c083015116036106ed57606081015160038110156106db576106995786519160208301908582528689850152888452606084019484861067ffffffffffffffff871117610688575050838852825190209051036106315750509161062191600393600161061384610eac565b500155600261040583610eac565b5001805460ff1916600117905551f35b906c081c995d99585b195908189a59609a1b60c460849362461bcd60e51b845260206064820152602d858201527f436f6d6d69747465642062696420646f6573206e6f74206d617463682074686560a48201520152fd5b634e487b7160e01b8b526041905289fd5b865162461bcd60e51b8152602081850152601f818401527f43616e206f6e6c792072657665616c206120636f6d6d697474656420626964006044820152606490fd5b634e487b7160e01b8952602184528289fd5b865162461bcd60e51b81526020818501528083018390527f4f6e6c7920746865206269646465722063616e2072657665616c20746865697260448201526308189a5960e21b6064820152608490fd5b885162461bcd60e51b81526020818701526027818601527f43616e206f6e6c7920636f6d6d697420647572696e67207468652072657665616044820152666c20706861736560c81b6064820152608490fd5b634e487b7160e01b8b5260218652848bfd5b8880fd5b50346102f65760803660031901126102f65760443591606435936107fc6107c9611047565b6001600160a01b03807f000000000000000000000000000000000000000000000000000000000000000016911614610fc9565b4284106109ea5784156109965782519161081583611015565b8035835260209586840193602494853581528682019788526060820192835260808201906060825260a083019186835260c08401948786526065549a6801000000000000000093848d10156109845761087560019d8e8101606555610efd565b97909761097357518755518c87015551600286015551600385015585840190518051928311610961578b908254848455808510610937575b50019087528a87208a8c89935b85851061092157505050505050906006915160058201550190518281101561090f5760ff801983541691161790556065549485106108ff575050505190600019018152f35b634e487b7160e01b825260119052fd5b5050634e487b7160e01b825260219052fd5b90818392518555019201920191908c8c916108ba565b838a528c85848c2092830192015b8281106109535750506108ad565b8b81558f94508e9101610945565b634e487b7160e01b8852604187528888fd5b634e487b7160e01b8b528a8a528b8bfd5b634e487b7160e01b8a52604189528a8afd5b506020608492519162461bcd60e51b8352820152602860248201527f41756374696f6e4d616e616765723a3a496e76616c69642061756374696f6e20604482015267323ab930ba34b7b760c11b6064820152fd5b506020608492519162461bcd60e51b8352820152602a60248201527f41756374696f6e4d616e616765723a3a496e76616c69642061756374696f6e2060448201526973746172742074696d6560b01b6064820152fd5b5090346102f657816003193601126102f657610a6790610a616107c9611047565b35610efd565b50600260243591015551f35b5090346102f65760203660031901126102f65760209250610a948135610efd565b5001549051908152f35b509134610b78576020918260031936011261050a5782610af261012c86938560c08651610aca81611015565b82815282878201528288820152826060820152606060808201528260a0820152015235610efd565b92825192828452610100840190855184860152838601518186015285015160608501526060850151608085015260808501519260e060a086015283518092528061012086019401925b828110610b6457858086610b6060c08b60a081015182860152015160e0840190610f38565b0390f35b835185529381019392810192600101610b3b565b80fd5b508234610b78576020366003190112610b785750610ba7610b9e60209335611205565b91518092610f38565bf35b508234610b78576020366003190112610b785750610bd582610bce610b609435610efd565b5001611087565b905191829182610f8e565b83823461050a57602036600319011261050a57610bd581610b60936001600160a01b03610c0b610f5b565b168152606760205220611087565b83823461050a578060031936011261050a57610c33610f5b565b6001600160a01b03168252606760205280822080546024359390841015610b785750602092610c6191610f76565b91905490519160031b1c8152f35b83823461050a57602036600319011261050a57602090610c8d610f5b565b9051906001600160a01b03807f0000000000000000000000000000000000000000000000000000000000000000169116148152f35b5090346102f65760203660031901126102f657356065548110156102f6576007610ba791606560c095520291827f8ff97419363ffd7000167f130ef7168fbea05faf9251824ca5043f113cc6a7c70154927f8ff97419363ffd7000167f130ef7168fbea05faf9251824ca5043f113cc6a7c8810154917f8ff97419363ffd7000167f130ef7168fbea05faf9251824ca5043f113cc6a7c98201547f8ff97419363ffd7000167f130ef7168fbea05faf9251824ca5043f113cc6a7ca8301549160ff7f8ff97419363ffd7000167f130ef7168fbea05faf9251824ca5043f113cc6a7cd7f8ff97419363ffd7000167f130ef7168fbea05faf9251824ca5043f113cc6a7cc8601549501541694815197885260208801528601526060850152608084015260a0830190610f38565b8491503461050a57602036600319011261050a5760c081610e0f8493611015565b82815282602082015282858201528260608201528260808201528260a08201520152610e3e6105858435610eac565b90825192825184526020830151602085015280830151908401526060820151906003821015610e995760e0846001600160a01b0360c0868660608501526080810151608085015260a081015160a085015201511660c0820152f35b634e487b7160e01b815260218552602490fd5b606654811015610ee7576007906066600052027f46501879b8ca8525e8c2fd519e2fbfcfa2ebea26501294aa02cbfcfb12e943540190600090565b634e487b7160e01b600052603260045260246000fd5b606554811015610ee7576007906065600052027f8ff97419363ffd7000167f130ef7168fbea05faf9251824ca5043f113cc6a7c70190600090565b906004821015610f455752565b634e487b7160e01b600052602160045260246000fd5b600435906001600160a01b0382168203610f7157565b600080fd5b8054821015610ee75760005260206000200190600090565b6020908160408183019282815285518094520193019160005b828110610fb5575050505090565b835185529381019392810192600101610fa7565b15610fd057565b60405162461bcd60e51b815260206004820152601e60248201527f43616e206f6e6c792062652063616c6c656420627920726567697374727900006044820152606490fd5b60e0810190811067ffffffffffffffff82111761103157604052565b634e487b7160e01b600052604160045260246000fd5b337f00000000000000000000000000000000000000000000000000000000000000006001600160a01b0316036110835736601319013560601c90565b3390565b906040519180548084526020908185019260005281600020916000905b8282106110d35750505050829003601f01601f1916820167ffffffffffffffff81118382101761103157604052565b8354855293840193600193840193909101906110a4565b906040516110f781611015565b60ff600682948054845260018101546020850152600281015460408501526003810154606085015261112b60048201611087565b6080850152600581015460a0850152015416906004821015610f455760c00152565b8054680100000000000000008110156110315761116f91600182018155610f76565b819291549060031b600019811b9283911b16911916179055565b9060405161119681611015565b809280548252600181015460208301526002810154604083015260ff600382015416906003821015610f455760066001600160a01b039160c093606086015260048101546080860152600581015460a0860152015416910152565b8051821015610ee75760209160051b010190565b61121161012c82610efd565b9060408201519182421060001461123f57506006915061123090610efd565b5001805460ff19169055600090565b606001518019831161128c57600692014210156112715761125f90610efd565b5001600160ff19825416179055600190565b61127a90610efd565b5001600260ff19825416179055600290565b634e487b7160e01b600052601160045260246000fdfea2646970667358221220ecac5dba2cb36090ca57001a8f7a2c9daa70dd3ccaa4dee68e12a66b6a6d5e4d64736f6c634300080f0033",
  "immutableReferences": {
    "1508": [
      {
        "length": 32,
        "start": 3227
      },
      {
        "length": 32,
        "start": 4170
      }
    ],
    "5326": [
      {
        "length": 32,
        "start": 249
      },
      {
        "length": 32,
        "start": 854
      },
      {
        "length": 32,
        "start": 1362
      },
      {
        "length": 32,
        "start": 2004
      }
    ]
  },
  "source": "// SPDX-License-Identifier: MIT\r\n\r\npragma solidity ^0.8.12;\r\n\r\nimport \"@openzeppelin/contracts-upgradeable/token/ERC20/ERC20Upgradeable.sol\";\r\nimport \"@openzeppelin/contracts-upgradeable/proxy/utils/Initializable.sol\";\r\n//import \"./patches/ERC2771ContextUpgradeable.sol\";\r\nimport \"@openzeppelin/contracts-upgradeable/metatx/ERC2771ContextUpgradeable.sol\";\r\nimport \"./interfaces/IAuctionManager.sol\";\r\nimport \"./library/SharedStructures.sol\";\r\n\r\n// import \"./UnicoinRegistry.sol\";\r\n\r\ncontract AuctionManager is Initializable, IAuctionManager, ERC2771ContextUpgradeable {\r\n\r\n    address immutable _registry;\r\n\r\n    modifier onlyRegistry() {\r\n        require(_msgSender() == _registry, \"Can only be called by registry\");\r\n        _;\r\n    }\r\n\r\n    SharedStructures.Auction[] public auctions;\r\n\r\n    SharedStructures.Bid[] bids;\r\n\r\n    // Maps all bidders' IDs to their bids\r\n    mapping(address => uint256[]) public bidOwners;\r\n\r\n    // This contract is upgradeable, but we're not doing anything with mutables at initialization so we can use constructor instead for optimisation benefits.\r\n    constructor (address unicoinRegistry, address trustedForwarder) ERC2771ContextUpgradeable(trustedForwarder) initializer {\r\n        _registry = unicoinRegistry;\r\n    }\r\n\r\n    function _createAuction(\r\n        uint256 _publicationId,\r\n        uint256 _auctionFloor,\r\n        uint256 _auctionStartTime,\r\n        uint256 _auctionDuration\r\n    ) public onlyRegistry returns (uint256) {\r\n        require(_auctionStartTime >= block.timestamp, \"AuctionManager::Invalid auction start time\");\r\n        require(_auctionDuration > 0, \"AuctionManager::Invalid auction duration\");\r\n\r\n        uint256[] memory auctionBidIds;\r\n        SharedStructures.Auction memory auction = SharedStructures.Auction(\r\n            _publicationId,\r\n            _auctionFloor,\r\n            _auctionStartTime,\r\n            _auctionDuration,\r\n            auctionBidIds,\r\n            0, //No winning bid in the begining\r\n            SharedStructures.AuctionStatus.Pending\r\n        );\r\n\r\n        auctions.push(auction);\r\n\r\n        return auctions.length - 1; // new auction Id\r\n    }\r\n\r\n    function _commitSealedBid(bytes32 _bidHash, uint256 _auctionId, address _bidderAddress)\r\n        public\r\n        onlyRegistry\r\n        returns (uint256)\r\n    {\r\n        SharedStructures.Auction memory auction = auctions[_auctionId];\r\n\r\n        require(getAuctionStatus(_auctionId) == SharedStructures.AuctionStatus.Commit, \"Can only commit during the commit phase\");\r\n\r\n        SharedStructures.Bid memory bid = SharedStructures.Bid(_bidHash, 0, 0, SharedStructures.BidStatus.Committed, auction.publicationId, _auctionId, _bidderAddress);\r\n\r\n        bids.push(bid);\r\n        uint256 bidId = bids.length - 1;\r\n\r\n        auctions[_auctionId].auctionBidIds.push(bidId);\r\n\r\n        bidOwners[_bidderAddress].push(bidId);\r\n\r\n        return bidId;\r\n    }\r\n\r\n    function revealSealedBid(uint256 _bid, uint256 _salt, uint256 _auctionId, uint256 _bidId, address _bidderAddress)\r\n        public\r\n        onlyRegistry\r\n    {\r\n        SharedStructures.Bid memory bid = bids[_bidId];\r\n\r\n        require(getAuctionStatus(_auctionId) == SharedStructures.AuctionStatus.Reveal, \"Can only commit during the reveal phase\");\r\n        require(bid.bidderAddress == _bidderAddress, \"Only the bidder can reveal their bid\");\r\n        require(bid.status == SharedStructures.BidStatus.Committed, \"Can only reveal a committed bid\");\r\n\r\n        bytes32 revealedBidHash = keccak256(abi.encode(_bid, _salt));\r\n\r\n        require(bid.commitBid == revealedBidHash, \"Committed bid does not match the revealed bid\");\r\n\r\n        bids[_bidId].revealedBid = _bid;\r\n        bids[_bidId].revealedSalt = _salt;\r\n        bids[_bidId].status = SharedStructures.BidStatus.Revealed;\r\n    }\r\n\r\n    /** @notice After reveal, this determines which bid won the auction\r\n        @param _auctionId Specifies which auction to finalise\r\n        @return result An AuctionResult struct containing the details of the winning bid\r\n     */\r\n\r\n    function finalizeAuction(uint256 _auctionId) \r\n        public \r\n        onlyRegistry \r\n        returns (SharedStructures.AuctionResult memory result) {\r\n        require(\r\n            getAuctionStatus(_auctionId) == SharedStructures.AuctionStatus.Reveal,\r\n            \"Can only finalize an auction in the reveal stage\"\r\n        );\r\n\r\n        SharedStructures.Auction memory auction = auctions[_auctionId];\r\n\r\n        uint256 numOfBids = auction.auctionBidIds.length;\r\n\r\n        uint256 leadingBid = 0;\r\n        //uint256 leadingBidAmount = 0;\r\n\r\n        for (uint256 i = 0; i < numOfBids; i++) {\r\n            uint256 bidAmount = bids[auction.auctionBidIds[i]].revealedBid;\r\n            if (bidAmount > result.winningAmount) {\r\n                //need to check that the bidder has enough balance and enough allowance to be able to\r\n                // win the auction. Ask the vault via the registry for this information.\r\n                // if (\r\n                //     // unicoinRegistry.canAddressPay(\r\n                //         bids[auction.auction_bid_ids[i]].bidder_Id,\r\n                //         bidAmount\r\n                //     )\r\n                // ) {\r\n                leadingBid = auction.auctionBidIds[i];\r\n                result.winningAmount = bidAmount;\r\n                // }\r\n            }\r\n        }\r\n\r\n        if (leadingBid > 0) {\r\n            auctions[_auctionId].status = SharedStructures.AuctionStatus.Finalized;\r\n            auctions[_auctionId].winningBidId = leadingBid;\r\n            bids[leadingBid].status = SharedStructures.BidStatus.Winner;\r\n        }\r\n    }\r\n\r\n    function getAuctionStatus(uint256 _auctionId) public returns (SharedStructures.AuctionStatus) {\r\n        SharedStructures.Auction memory auction = auctions[_auctionId];\r\n        if (block.timestamp < auction.startingTime) {\r\n            auctions[_auctionId].status = SharedStructures.AuctionStatus.Pending;\r\n            return SharedStructures.AuctionStatus.Pending;\r\n        } else if (\r\n            block.timestamp >= auction.startingTime && block.timestamp < (auction.startingTime + auction.duration)\r\n        ) {\r\n            auctions[_auctionId].status = SharedStructures.AuctionStatus.Commit;\r\n            return SharedStructures.AuctionStatus.Commit;\r\n        } else {\r\n            auctions[_auctionId].status = SharedStructures.AuctionStatus.Reveal;\r\n            return SharedStructures.AuctionStatus.Reveal;\r\n        }\r\n    }\r\n\r\n    function getBidderBids(address _bidderAddress) public view returns (uint256[] memory) {\r\n        return bidOwners[_bidderAddress];\r\n    }\r\n\r\n    function updateAuctionStartTime(uint256 _auctionId, uint256 _newStartTime) public onlyRegistry {\r\n        auctions[_auctionId].startingTime = _newStartTime;\r\n    }\r\n\r\n    function getAuctionBids(uint256 _auctionId) public view returns (uint256[] memory) {\r\n        return auctions[_auctionId].auctionBidIds;\r\n    }\r\n\r\n    function getBid(uint256 _bidId) \r\n        public \r\n        view \r\n        //returns (bytes32, uint256, uint256, uint8, uint256, uint256, uint256)\r\n        returns (SharedStructures.Bid memory)\r\n        {\r\n        return bids[_bidId];    \r\n\r\n        /*Bid memory bid = bids[_bidId];\r\n        return (\r\n            bid.commitBid,\r\n            bid.revealedBid,\r\n            bid.revealedSalt,\r\n            uint8(bid.status),\r\n            bid.publicationId,\r\n            bid.auctionId,\r\n            bid.bidderId\r\n        );*/\r\n    }\r\n\r\n    function getNumberOfBidsInAuction(uint256 _auctionId) public view returns (uint256) {\r\n        return auctions[_auctionId].auctionBidIds.length;\r\n    }\r\n\r\n    function getAuction(uint256 _auctionId)\r\n        public\r\n        view\r\n        //returns (uint256, uint256, uint256, uint256, uint256[] memory, uint256, uint8)\r\n        returns (SharedStructures.Auction memory)\r\n    {\r\n        //Auction memory _auction = auctions[_auctionId];\r\n\r\n        //return _auction;\r\n\r\n        return auctions[_auctionId];\r\n        //Auction memory auction = auctions[_auctionId];\r\n        /*return (\r\n            auction.publicationId,\r\n            auction.auctionFloor,\r\n            auction.startingTime,\r\n            auction.duration,\r\n            auction.auctionBidIds,\r\n            auction.winningBidId,\r\n            uint8(auction.status)\r\n        );*/\r\n    }\r\n}\r\n",
  "sourcePath": "E:\\Masters thesis\\Unicoin\\contracts\\AuctionManager.sol",
  "compiler": {
    "name": "solc",
    "version": "0.8.15+commit.e14f2714.Emscripten.clang"
  },
  "schemaVersion": "3.4.5",
  "updatedAt": "2022-06-16T13:48:24.253Z",
  "devdoc": {
    "kind": "dev",
    "methods": {
      "finalizeAuction(uint256)": {
        "params": {
          "_auctionId": "Specifies which auction to finalise"
        },
        "returns": {
          "result": "An AuctionResult struct containing the details of the winning bid"
        }
      }
    },
    "version": 1
  },
  "userdoc": {
    "kind": "user",
    "methods": {
      "finalizeAuction(uint256)": {
        "notice": "After reveal, this determines which bid won the auction"
      }
    },
    "version": 1
  }
}