{
  "contractName": "AuctionManager",
  "abi": [
    {
      "constant": false,
      "inputs": [
        {
          "name": "_daiContractAddress",
          "type": "address"
        },
        {
          "name": "_unicoinRegistry",
          "type": "address"
        }
      ],
      "name": "initialize",
      "outputs": [],
      "payable": false,
      "stateMutability": "nonpayable",
      "type": "function"
    },
    {
      "constant": false,
      "inputs": [
        {
          "name": "_auctionType",
          "type": "uint8"
        },
        {
          "name": "_auctionFloor",
          "type": "uint256"
        },
        {
          "name": "_auctionStartTime",
          "type": "uint256"
        }
      ],
      "name": "createAuction",
      "outputs": [
        {
          "name": "",
          "type": "uint256"
        }
      ],
      "payable": false,
      "stateMutability": "nonpayable",
      "type": "function"
    }
  ],
  "bytecode": "0x608060405234801561001057600080fd5b506102f2806100206000396000f3fe608060405234801561001057600080fd5b50600436106100365760003560e01c8063485cc9551461003b578063c7b8fdc41461009f575b600080fd5b61009d6004803603604081101561005157600080fd5b81019080803573ffffffffffffffffffffffffffffffffffffffff169060200190929190803573ffffffffffffffffffffffffffffffffffffffff1690602001909291905050506100f8565b005b6100e2600480360360608110156100b557600080fd5b81019080803560ff169060200190929190803590602001909291908035906020019092919050505061027b565b6040518082815260200191505060405180910390f35b600060019054906101000a900460ff16806101175750610116610287565b5b8061012e57506000809054906101000a900460ff16155b610183576040517f08c379a000000000000000000000000000000000000000000000000000000000815260040180806020018281038252602e815260200180610299602e913960400191505060405180910390fd5b60008060019054906101000a900460ff1615905080156101d3576001600060016101000a81548160ff02191690831515021790555060016000806101000a81548160ff0219169083151502179055505b82603360006101000a81548173ffffffffffffffffffffffffffffffffffffffff021916908373ffffffffffffffffffffffffffffffffffffffff16021790555081603460006101000a81548173ffffffffffffffffffffffffffffffffffffffff021916908373ffffffffffffffffffffffffffffffffffffffff16021790555080156102765760008060016101000a81548160ff0219169083151502179055505b505050565b60008090509392505050565b600080303b9050600081149150509056fe436f6e747261637420696e7374616e63652068617320616c7265616479206265656e20696e697469616c697a6564a165627a7a72305820552b3542824f2f53bb407df22afc6e1c8a4a4ff56dbbd331771f5dc2e3dda4920029",
  "source": "pragma solidity ^0.5.0;\n\nimport \"@openzeppelin/contracts-ethereum-package/contracts/token/ERC20/ERC20.sol\";\n\nimport \"@openzeppelin/upgrades/contracts/Initializable.sol\";\n\ncontract AuctionManager is Initializable {\n\n    ERC20 daiContract;\n\n    enum AuctionType {controlledAuction, privateAuction}\n    \n    enum BidStatus {committed, revealed, winner,pending, accepted, rejected, sale, cancelled}\n\n    enum AuctionStatus {commit, reveal, finalized, open, closed}\n\n    struct Auction {\n        uint256 publication_Id;\n        uint256[] auction_bid_ids;\n        AuctionStatus status;\n    }\n\n    address registry;\n\n    modifier onlyRegistry(){\n        require(msg.sender == registry,\"Can only be called by registry\");\n        _;\n    }\n\n    function initialize(address _daiContractAddress, address _unicoinRegistry)\n        public\n        initializer\n    {\n        daiContract = ERC20(_daiContractAddress);\n        registry = _unicoinRegistry;\n    }\n\n    function createAuction(AuctionType _auctionType, uint256 _auctionFloor, uint256 _auctionStartTime) public returns (uint256){\n        return 0;\n    }\n}",
  "sourcePath": "/Users/chris/Projects/unicoindapp/contracts/AuctionManager.sol",
  "compiler": {
    "name": "solc",
    "version": "0.5.8+commit.23d335f2.Emscripten.clang"
  },
  "schemaVersion": "3.0.16",
  "updatedAt": "2019-11-21T13:46:52.107Z",
  "devdoc": {
    "methods": {}
  },
  "userdoc": {
    "methods": {}
  }
}