{
  "contractName": "ERC721Mintable",
  "abi": [
    {
      "anonymous": false,
      "inputs": [
        {
          "indexed": true,
          "internalType": "address",
          "name": "owner",
          "type": "address"
        },
        {
          "indexed": true,
          "internalType": "address",
          "name": "approved",
          "type": "address"
        },
        {
          "indexed": true,
          "internalType": "uint256",
          "name": "tokenId",
          "type": "uint256"
        }
      ],
      "name": "Approval",
      "type": "event"
    },
    {
      "anonymous": false,
      "inputs": [
        {
          "indexed": true,
          "internalType": "address",
          "name": "owner",
          "type": "address"
        },
        {
          "indexed": true,
          "internalType": "address",
          "name": "operator",
          "type": "address"
        },
        {
          "indexed": false,
          "internalType": "bool",
          "name": "approved",
          "type": "bool"
        }
      ],
      "name": "ApprovalForAll",
      "type": "event"
    },
    {
      "anonymous": false,
      "inputs": [
        {
          "indexed": true,
          "internalType": "address",
          "name": "account",
          "type": "address"
        }
      ],
      "name": "MinterAdded",
      "type": "event"
    },
    {
      "anonymous": false,
      "inputs": [
        {
          "indexed": true,
          "internalType": "address",
          "name": "account",
          "type": "address"
        }
      ],
      "name": "MinterRemoved",
      "type": "event"
    },
    {
      "anonymous": false,
      "inputs": [
        {
          "indexed": true,
          "internalType": "address",
          "name": "from",
          "type": "address"
        },
        {
          "indexed": true,
          "internalType": "address",
          "name": "to",
          "type": "address"
        },
        {
          "indexed": true,
          "internalType": "uint256",
          "name": "tokenId",
          "type": "uint256"
        }
      ],
      "name": "Transfer",
      "type": "event"
    },
    {
      "constant": false,
      "inputs": [
        {
          "internalType": "address",
          "name": "account",
          "type": "address"
        }
      ],
      "name": "addMinter",
      "outputs": [],
      "payable": false,
      "stateMutability": "nonpayable",
      "type": "function"
    },
    {
      "constant": false,
      "inputs": [
        {
          "internalType": "address",
          "name": "to",
          "type": "address"
        },
        {
          "internalType": "uint256",
          "name": "tokenId",
          "type": "uint256"
        }
      ],
      "name": "approve",
      "outputs": [],
      "payable": false,
      "stateMutability": "nonpayable",
      "type": "function"
    },
    {
      "constant": true,
      "inputs": [
        {
          "internalType": "address",
          "name": "owner",
          "type": "address"
        }
      ],
      "name": "balanceOf",
      "outputs": [
        {
          "internalType": "uint256",
          "name": "",
          "type": "uint256"
        }
      ],
      "payable": false,
      "stateMutability": "view",
      "type": "function"
    },
    {
      "constant": true,
      "inputs": [
        {
          "internalType": "uint256",
          "name": "tokenId",
          "type": "uint256"
        }
      ],
      "name": "getApproved",
      "outputs": [
        {
          "internalType": "address",
          "name": "",
          "type": "address"
        }
      ],
      "payable": false,
      "stateMutability": "view",
      "type": "function"
    },
    {
      "constant": true,
      "inputs": [
        {
          "internalType": "address",
          "name": "owner",
          "type": "address"
        },
        {
          "internalType": "address",
          "name": "operator",
          "type": "address"
        }
      ],
      "name": "isApprovedForAll",
      "outputs": [
        {
          "internalType": "bool",
          "name": "",
          "type": "bool"
        }
      ],
      "payable": false,
      "stateMutability": "view",
      "type": "function"
    },
    {
      "constant": true,
      "inputs": [
        {
          "internalType": "address",
          "name": "account",
          "type": "address"
        }
      ],
      "name": "isMinter",
      "outputs": [
        {
          "internalType": "bool",
          "name": "",
          "type": "bool"
        }
      ],
      "payable": false,
      "stateMutability": "view",
      "type": "function"
    },
    {
      "constant": true,
      "inputs": [
        {
          "internalType": "uint256",
          "name": "tokenId",
          "type": "uint256"
        }
      ],
      "name": "ownerOf",
      "outputs": [
        {
          "internalType": "address",
          "name": "",
          "type": "address"
        }
      ],
      "payable": false,
      "stateMutability": "view",
      "type": "function"
    },
    {
      "constant": false,
      "inputs": [],
      "name": "renounceMinter",
      "outputs": [],
      "payable": false,
      "stateMutability": "nonpayable",
      "type": "function"
    },
    {
      "constant": false,
      "inputs": [
        {
          "internalType": "address",
          "name": "from",
          "type": "address"
        },
        {
          "internalType": "address",
          "name": "to",
          "type": "address"
        },
        {
          "internalType": "uint256",
          "name": "tokenId",
          "type": "uint256"
        }
      ],
      "name": "safeTransferFrom",
      "outputs": [],
      "payable": false,
      "stateMutability": "nonpayable",
      "type": "function"
    },
    {
      "constant": false,
      "inputs": [
        {
          "internalType": "address",
          "name": "from",
          "type": "address"
        },
        {
          "internalType": "address",
          "name": "to",
          "type": "address"
        },
        {
          "internalType": "uint256",
          "name": "tokenId",
          "type": "uint256"
        },
        {
          "internalType": "bytes",
          "name": "_data",
          "type": "bytes"
        }
      ],
      "name": "safeTransferFrom",
      "outputs": [],
      "payable": false,
      "stateMutability": "nonpayable",
      "type": "function"
    },
    {
      "constant": false,
      "inputs": [
        {
          "internalType": "address",
          "name": "to",
          "type": "address"
        },
        {
          "internalType": "bool",
          "name": "approved",
          "type": "bool"
        }
      ],
      "name": "setApprovalForAll",
      "outputs": [],
      "payable": false,
      "stateMutability": "nonpayable",
      "type": "function"
    },
    {
      "constant": true,
      "inputs": [
        {
          "internalType": "bytes4",
          "name": "interfaceId",
          "type": "bytes4"
        }
      ],
      "name": "supportsInterface",
      "outputs": [
        {
          "internalType": "bool",
          "name": "",
          "type": "bool"
        }
      ],
      "payable": false,
      "stateMutability": "view",
      "type": "function"
    },
    {
      "constant": false,
      "inputs": [
        {
          "internalType": "address",
          "name": "from",
          "type": "address"
        },
        {
          "internalType": "address",
          "name": "to",
          "type": "address"
        },
        {
          "internalType": "uint256",
          "name": "tokenId",
          "type": "uint256"
        }
      ],
      "name": "transferFrom",
      "outputs": [],
      "payable": false,
      "stateMutability": "nonpayable",
      "type": "function"
    },
    {
      "constant": false,
      "inputs": [],
      "name": "initialize",
      "outputs": [],
      "payable": false,
      "stateMutability": "nonpayable",
      "type": "function"
    },
    {
      "constant": false,
      "inputs": [
        {
          "internalType": "address",
          "name": "sender",
          "type": "address"
        }
      ],
      "name": "initialize",
      "outputs": [],
      "payable": false,
      "stateMutability": "nonpayable",
      "type": "function"
    },
    {
      "constant": false,
      "inputs": [
        {
          "internalType": "address",
          "name": "to",
          "type": "address"
        },
        {
          "internalType": "uint256",
          "name": "tokenId",
          "type": "uint256"
        }
      ],
      "name": "mint",
      "outputs": [
        {
          "internalType": "bool",
          "name": "",
          "type": "bool"
        }
      ],
      "payable": false,
      "stateMutability": "nonpayable",
      "type": "function"
    },
    {
      "constant": false,
      "inputs": [
        {
          "internalType": "address",
          "name": "to",
          "type": "address"
        },
        {
          "internalType": "uint256",
          "name": "tokenId",
          "type": "uint256"
        },
        {
          "internalType": "bytes",
          "name": "_data",
          "type": "bytes"
        }
      ],
      "name": "safeMint",
      "outputs": [
        {
          "internalType": "bool",
          "name": "",
          "type": "bool"
        }
      ],
      "payable": false,
      "stateMutability": "nonpayable",
      "type": "function"
    },
    {
      "constant": false,
      "inputs": [
        {
          "internalType": "address",
          "name": "to",
          "type": "address"
        },
        {
          "internalType": "uint256",
          "name": "tokenId",
          "type": "uint256"
        }
      ],
      "name": "safeMint",
      "outputs": [
        {
          "internalType": "bool",
          "name": "",
          "type": "bool"
        }
      ],
      "payable": false,
      "stateMutability": "nonpayable",
      "type": "function"
    }
  ],
  "bytecode": "0x60806040526119ad806100136000396000f3fe608060405234801561001057600080fd5b50600436106101165760003560e01c80638832e6e3116100a2578063a22cb46511610071578063a22cb465146103c7578063aa271e1a146103f5578063b88d4fde1461041b578063c4d66de8146104e1578063e985e9c51461050757610116565b80638832e6e3146102b2578063983b2d561461036d5780639865027514610393578063a14481941461039b57610116565b806340c10f19116100e957806340c10f19146101f357806342842e0e1461021f5780636352211e1461025557806370a08231146102725780638129fc1c146102aa57610116565b806301ffc9a71461011b578063081812fc14610156578063095ea7b31461018f57806323b872dd146101bd575b600080fd5b6101426004803603602081101561013157600080fd5b50356001600160e01b031916610535565b604080519115158252519081900360200190f35b6101736004803603602081101561016c57600080fd5b5035610554565b604080516001600160a01b039092168252519081900360200190f35b6101bb600480360360408110156101a557600080fd5b506001600160a01b0381351690602001356105b6565b005b6101bb600480360360608110156101d357600080fd5b506001600160a01b038135811691602081013590911690604001356106de565b6101426004803603604081101561020957600080fd5b506001600160a01b03813516906020013561073a565b6101bb6004803603606081101561023557600080fd5b506001600160a01b0381358116916020810135909116906040013561079a565b6101736004803603602081101561026b57600080fd5b50356107b5565b6102986004803603602081101561028857600080fd5b50356001600160a01b031661080f565b60408051918252519081900360200190f35b6101bb610877565b610142600480360360608110156102c857600080fd5b6001600160a01b03823516916020810135918101906060810160408201356401000000008111156102f857600080fd5b82018360208201111561030a57600080fd5b8035906020019184600183028401116401000000008311171561032c57600080fd5b91908080601f016020809104026020016040519081016040528093929190818152602001838380828437600092019190915250929550610931945050505050565b6101bb6004803603602081101561038357600080fd5b50356001600160a01b031661098e565b6101bb6109dd565b610142600480360360408110156103b157600080fd5b506001600160a01b0381351690602001356109ef565b6101bb600480360360408110156103dd57600080fd5b506001600160a01b0381351690602001351515610a41565b6101426004803603602081101561040b57600080fd5b50356001600160a01b0316610b46565b6101bb6004803603608081101561043157600080fd5b6001600160a01b0382358116926020810135909116916040820135919081019060808101606082013564010000000081111561046c57600080fd5b82018360208201111561047e57600080fd5b803590602001918460018302840111640100000000831117156104a057600080fd5b91908080601f016020809104026020016040519081016040528093929190818152602001838380828437600092019190915250929550610b59945050505050565b6101bb600480360360208110156104f757600080fd5b50356001600160a01b0316610bb7565b6101426004803603604081101561051d57600080fd5b506001600160a01b0381358116916020013516610c74565b6001600160e01b03191660009081526033602052604090205460ff1690565b600061055f82610ca2565b61059a5760405162461bcd60e51b815260040180806020018281038252602c815260200180611882602c913960400191505060405180910390fd5b506000908152606760205260409020546001600160a01b031690565b60006105c1826107b5565b9050806001600160a01b0316836001600160a01b031614156106145760405162461bcd60e51b81526004018080602001828103825260218152602001806119276021913960400191505060405180910390fd5b806001600160a01b0316610626610cbf565b6001600160a01b03161480610647575061064781610642610cbf565b610c74565b6106825760405162461bcd60e51b81526004018080602001828103825260388152602001806117a66038913960400191505060405180910390fd5b60008281526067602052604080822080546001600160a01b0319166001600160a01b0387811691821790925591518593918516917f8c5be1e5ebec7d5bd14f71427d1e84f3dd0314c0f7b2291e5b200ac8c7c3b92591a4505050565b6106ef6106e9610cbf565b82610cc3565b61072a5760405162461bcd60e51b81526004018080602001828103825260318152602001806119486031913960400191505060405180910390fd5b610735838383610d67565b505050565b600061074c610747610cbf565b610b46565b6107875760405162461bcd60e51b81526004018080602001828103825260308152602001806118316030913960400191505060405180910390fd5b6107918383610eab565b50600192915050565b61073583838360405180602001604052806000815250610b59565b6000818152606660205260408120546001600160a01b0316806108095760405162461bcd60e51b81526004018080602001828103825260298152602001806118086029913960400191505060405180910390fd5b92915050565b60006001600160a01b0382166108565760405162461bcd60e51b815260040180806020018281038252602a8152602001806117de602a913960400191505060405180910390fd5b6001600160a01b038216600090815260686020526040902061080990610fdc565b600054610100900460ff16806108905750610890610fe0565b8061089e575060005460ff16155b6108d95760405162461bcd60e51b815260040180806020018281038252602e8152602001806118d0602e913960400191505060405180910390fd5b600054610100900460ff16158015610904576000805460ff1961ff0019909116610100171660011790555b61090c610fe6565b61091c6380ac58cd60e01b61107f565b801561092e576000805461ff00191690555b50565b600061093e610747610cbf565b6109795760405162461bcd60e51b81526004018080602001828103825260308152602001806118316030913960400191505060405180910390fd5b610984848484611103565b5060019392505050565b610999610747610cbf565b6109d45760405162461bcd60e51b81526004018080602001828103825260308152602001806118316030913960400191505060405180910390fd5b61092e81611155565b6109ed6109e8610cbf565b61119d565b565b60006109fc610747610cbf565b610a375760405162461bcd60e51b81526004018080602001828103825260308152602001806118316030913960400191505060405180910390fd5b61079183836111e5565b610a49610cbf565b6001600160a01b0316826001600160a01b03161415610aaf576040805162461bcd60e51b815260206004820152601960248201527f4552433732313a20617070726f766520746f2063616c6c657200000000000000604482015290519081900360640190fd5b8060696000610abc610cbf565b6001600160a01b03908116825260208083019390935260409182016000908120918716808252919093529120805460ff191692151592909217909155610b00610cbf565b60408051841515815290516001600160a01b0392909216917f17307eab39ab6107e8899845ad3d59bd9653f200f220920489ca2b5937696c319181900360200190a35050565b6000610809609c8363ffffffff6111ff16565b610b6a610b64610cbf565b83610cc3565b610ba55760405162461bcd60e51b81526004018080602001828103825260318152602001806119486031913960400191505060405180910390fd5b610bb184848484611266565b50505050565b600054610100900460ff1680610bd05750610bd0610fe0565b80610bde575060005460ff16155b610c195760405162461bcd60e51b815260040180806020018281038252602e8152602001806118d0602e913960400191505060405180910390fd5b600054610100900460ff16158015610c44576000805460ff1961ff0019909116610100171660011790555b610c4c6112b8565b610c5557600080fd5b610c5e826112cf565b8015610c70576000805461ff00191690555b5050565b6001600160a01b03918216600090815260696020908152604080832093909416825291909152205460ff1690565b6000908152606660205260409020546001600160a01b0316151590565b3390565b6000610cce82610ca2565b610d095760405162461bcd60e51b815260040180806020018281038252602c81526020018061177a602c913960400191505060405180910390fd5b6000610d14836107b5565b9050806001600160a01b0316846001600160a01b03161480610d4f5750836001600160a01b0316610d4484610554565b6001600160a01b0316145b80610d5f5750610d5f8185610c74565b949350505050565b826001600160a01b0316610d7a826107b5565b6001600160a01b031614610dbf5760405162461bcd60e51b81526004018080602001828103825260298152602001806118fe6029913960400191505060405180910390fd5b6001600160a01b038216610e045760405162461bcd60e51b81526004018080602001828103825260248152602001806117566024913960400191505060405180910390fd5b610e0d81611372565b6001600160a01b0383166000908152606860205260409020610e2e906113ad565b6001600160a01b0382166000908152606860205260409020610e4f906113c4565b60008181526066602052604080822080546001600160a01b0319166001600160a01b0386811691821790925591518493918716917fddf252ad1be2c89b69c2b068fc378daa952ba7f163c4a11628f55a4df523b3ef91a4505050565b6001600160a01b038216610f06576040805162461bcd60e51b815260206004820181905260248201527f4552433732313a206d696e7420746f20746865207a65726f2061646472657373604482015290519081900360640190fd5b610f0f81610ca2565b15610f61576040805162461bcd60e51b815260206004820152601c60248201527f4552433732313a20746f6b656e20616c7265616479206d696e74656400000000604482015290519081900360640190fd5b600081815260666020908152604080832080546001600160a01b0319166001600160a01b038716908117909155835260689091529020610fa0906113c4565b60405181906001600160a01b038416906000907fddf252ad1be2c89b69c2b068fc378daa952ba7f163c4a11628f55a4df523b3ef908290a45050565b5490565b303b1590565b600054610100900460ff1680610fff5750610fff610fe0565b8061100d575060005460ff16155b6110485760405162461bcd60e51b815260040180806020018281038252602e8152602001806118d0602e913960400191505060405180910390fd5b600054610100900460ff16158015611073576000805460ff1961ff0019909116610100171660011790555b61091c6301ffc9a760e01b5b6001600160e01b031980821614156110de576040805162461bcd60e51b815260206004820152601c60248201527f4552433136353a20696e76616c696420696e7465726661636520696400000000604482015290519081900360640190fd5b6001600160e01b0319166000908152603360205260409020805460ff19166001179055565b61110d8383610eab565b61111a60008484846113cd565b6107355760405162461bcd60e51b81526004018080602001828103825260328152602001806117246032913960400191505060405180910390fd5b611166609c8263ffffffff61152416565b6040516001600160a01b038216907f6ae172837ea30b801fbfcdd4108aa1d5bf8ff775444fd70256b44e6bf3dfc3f690600090a250565b6111ae609c8263ffffffff6115a516565b6040516001600160a01b038216907fe94479a9f7e1952cc78f2d6baab678adc1b772d936c6583def489e524cb6669290600090a250565b610c70828260405180602001604052806000815250611103565b60006001600160a01b0382166112465760405162461bcd60e51b81526004018080602001828103825260228152602001806118ae6022913960400191505060405180910390fd5b506001600160a01b03166000908152602091909152604090205460ff1690565b611271848484610d67565b61127d848484846113cd565b610bb15760405162461bcd60e51b81526004018080602001828103825260328152602001806117246032913960400191505060405180910390fd5b60006112ca6380ac58cd60e01b610535565b905090565b600054610100900460ff16806112e857506112e8610fe0565b806112f6575060005460ff16155b6113315760405162461bcd60e51b815260040180806020018281038252602e8152602001806118d0602e913960400191505060405180910390fd5b600054610100900460ff1615801561135c576000805460ff1961ff0019909116610100171660011790555b61136582610b46565b610c5e57610c5e82611155565b6000818152606760205260409020546001600160a01b03161561092e57600090815260676020526040902080546001600160a01b0319169055565b80546113c090600163ffffffff61160c16565b9055565b80546001019055565b60006113e1846001600160a01b0316611655565b6113ed57506001610d5f565b6000846001600160a01b031663150b7a02611406610cbf565b8887876040518563ffffffff1660e01b815260040180856001600160a01b03166001600160a01b03168152602001846001600160a01b03166001600160a01b0316815260200183815260200180602001828103825283818151815260200191508051906020019080838360005b8381101561148b578181015183820152602001611473565b50505050905090810190601f1680156114b85780820380516001836020036101000a031916815260200191505b5095505050505050602060405180830381600087803b1580156114da57600080fd5b505af11580156114ee573d6000803e3d6000fd5b505050506040513d602081101561150457600080fd5b50516001600160e01b031916630a85bd0160e11b14915050949350505050565b61152e82826111ff565b15611580576040805162461bcd60e51b815260206004820152601f60248201527f526f6c65733a206163636f756e7420616c72656164792068617320726f6c6500604482015290519081900360640190fd5b6001600160a01b0316600090815260209190915260409020805460ff19166001179055565b6115af82826111ff565b6115ea5760405162461bcd60e51b81526004018080602001828103825260218152602001806118616021913960400191505060405180910390fd5b6001600160a01b0316600090815260209190915260409020805460ff19169055565b600061164e83836040518060400160405280601e81526020017f536166654d6174683a207375627472616374696f6e206f766572666c6f77000081525061168c565b9392505050565b6000813f7fc5d2460186f7233c927e7db2dcc703c0e500b653ca82273b7bfad8045d85a4708115801590610d5f5750141592915050565b6000818484111561171b5760405162461bcd60e51b81526004018080602001828103825283818151815260200191508051906020019080838360005b838110156116e05781810151838201526020016116c8565b50505050905090810190601f16801561170d5780820380516001836020036101000a031916815260200191505b509250505060405180910390fd5b50505090039056fe4552433732313a207472616e7366657220746f206e6f6e20455243373231526563656976657220696d706c656d656e7465724552433732313a207472616e7366657220746f20746865207a65726f20616464726573734552433732313a206f70657261746f7220717565727920666f72206e6f6e6578697374656e7420746f6b656e4552433732313a20617070726f76652063616c6c6572206973206e6f74206f776e6572206e6f7220617070726f76656420666f7220616c6c4552433732313a2062616c616e636520717565727920666f7220746865207a65726f20616464726573734552433732313a206f776e657220717565727920666f72206e6f6e6578697374656e7420746f6b656e4d696e746572526f6c653a2063616c6c657220646f6573206e6f74206861766520746865204d696e74657220726f6c65526f6c65733a206163636f756e7420646f6573206e6f74206861766520726f6c654552433732313a20617070726f76656420717565727920666f72206e6f6e6578697374656e7420746f6b656e526f6c65733a206163636f756e7420697320746865207a65726f2061646472657373436f6e747261637420696e7374616e63652068617320616c7265616479206265656e20696e697469616c697a65644552433732313a207472616e73666572206f6620746f6b656e2074686174206973206e6f74206f776e4552433732313a20617070726f76616c20746f2063757272656e74206f776e65724552433732313a207472616e736665722063616c6c6572206973206e6f74206f776e6572206e6f7220617070726f766564a265627a7a72315820fc801dc9b2b3dd4deecfe7dc1d5242b8275e37245a41b99b1c26b45f7aa91fc064736f6c634300050c0032",
  "source": "pragma solidity ^0.5.0;\n\nimport \"@openzeppelin/upgrades/contracts/Initializable.sol\";\nimport \"./ERC721.sol\";\nimport \"../../access/roles/MinterRole.sol\";\n\n/**\n * @title ERC721Mintable\n * @dev ERC721 minting logic.\n */\ncontract ERC721Mintable is Initializable, ERC721, MinterRole {\n    function initialize(address sender) public initializer {\n        require(ERC721._hasBeenInitialized());\n        MinterRole.initialize(sender);\n    }\n\n    /**\n     * @dev Function to mint tokens.\n     * @param to The address that will receive the minted token.\n     * @param tokenId The token id to mint.\n     * @return A boolean that indicates if the operation was successful.\n     */\n    function mint(address to, uint256 tokenId) public onlyMinter returns (bool) {\n        _mint(to, tokenId);\n        return true;\n    }\n\n    /**\n     * @dev Function to safely mint tokens.\n     * @param to The address that will receive the minted token.\n     * @param tokenId The token id to mint.\n     * @return A boolean that indicates if the operation was successful.\n     */\n    function safeMint(address to, uint256 tokenId) public onlyMinter returns (bool) {\n        _safeMint(to, tokenId);\n        return true;\n    }\n\n    /**\n     * @dev Function to safely mint tokens.\n     * @param to The address that will receive the minted token.\n     * @param tokenId The token id to mint.\n     * @param _data bytes data to send along with a safe transfer check.\n     * @return A boolean that indicates if the operation was successful.\n     */\n    function safeMint(address to, uint256 tokenId, bytes memory _data) public onlyMinter returns (bool) {\n        _safeMint(to, tokenId, _data);\n        return true;\n    }\n\n    uint256[50] private ______gap;\n}\n",
  "sourcePath": "@openzeppelin/contracts-ethereum-package/contracts/token/ERC721/ERC721Mintable.sol",
  "compiler": {
    "name": "solc",
    "version": "0.5.12+commit.7709ece9.Emscripten.clang"
  },
  "schemaVersion": "3.0.16",
  "updatedAt": "2022-03-14T19:14:46.215Z",
  "devdoc": {
    "details": "ERC721 minting logic.",
    "methods": {
      "approve(address,uint256)": {
        "details": "Approves another address to transfer the given token ID The zero address indicates there is no approved address. There can only be one approved address per token at a given time. Can only be called by the token owner or an approved operator.",
        "params": {
          "to": "address to be approved for the given token ID",
          "tokenId": "uint256 ID of the token to be approved"
        }
      },
      "balanceOf(address)": {
        "details": "Gets the balance of the specified address.",
        "params": {
          "owner": "address to query the balance of"
        },
        "return": "uint256 representing the amount owned by the passed address"
      },
      "getApproved(uint256)": {
        "details": "Gets the approved address for a token ID, or zero if no address set Reverts if the token ID does not exist.",
        "params": {
          "tokenId": "uint256 ID of the token to query the approval of"
        },
        "return": "address currently approved for the given token ID"
      },
      "isApprovedForAll(address,address)": {
        "details": "Tells whether an operator is approved by a given owner.",
        "params": {
          "operator": "operator address which you want to query the approval of",
          "owner": "owner address which you want to query the approval of"
        },
        "return": "bool whether the given operator is approved by the given owner"
      },
      "mint(address,uint256)": {
        "details": "Function to mint tokens.",
        "params": {
          "to": "The address that will receive the minted token.",
          "tokenId": "The token id to mint."
        },
        "return": "A boolean that indicates if the operation was successful."
      },
      "ownerOf(uint256)": {
        "details": "Gets the owner of the specified token ID.",
        "params": {
          "tokenId": "uint256 ID of the token to query the owner of"
        },
        "return": "address currently marked as the owner of the given token ID"
      },
      "safeMint(address,uint256)": {
        "details": "Function to safely mint tokens.",
        "params": {
          "to": "The address that will receive the minted token.",
          "tokenId": "The token id to mint."
        },
        "return": "A boolean that indicates if the operation was successful."
      },
      "safeMint(address,uint256,bytes)": {
        "details": "Function to safely mint tokens.",
        "params": {
          "_data": "bytes data to send along with a safe transfer check.",
          "to": "The address that will receive the minted token.",
          "tokenId": "The token id to mint."
        },
        "return": "A boolean that indicates if the operation was successful."
      },
      "safeTransferFrom(address,address,uint256)": {
        "details": "Safely transfers the ownership of a given token ID to another address If the target address is a contract, it must implement {IERC721Receiver-onERC721Received}, which is called upon a safe transfer, and return the magic value `bytes4(keccak256(\"onERC721Received(address,address,uint256,bytes)\"))`; otherwise, the transfer is reverted. Requires the msg.sender to be the owner, approved, or operator",
        "params": {
          "from": "current owner of the token",
          "to": "address to receive the ownership of the given token ID",
          "tokenId": "uint256 ID of the token to be transferred"
        }
      },
      "safeTransferFrom(address,address,uint256,bytes)": {
        "details": "Safely transfers the ownership of a given token ID to another address If the target address is a contract, it must implement {IERC721Receiver-onERC721Received}, which is called upon a safe transfer, and return the magic value `bytes4(keccak256(\"onERC721Received(address,address,uint256,bytes)\"))`; otherwise, the transfer is reverted. Requires the _msgSender() to be the owner, approved, or operator",
        "params": {
          "_data": "bytes data to send along with a safe transfer check",
          "from": "current owner of the token",
          "to": "address to receive the ownership of the given token ID",
          "tokenId": "uint256 ID of the token to be transferred"
        }
      },
      "setApprovalForAll(address,bool)": {
        "details": "Sets or unsets the approval of a given operator An operator is allowed to transfer all tokens of the sender on their behalf.",
        "params": {
          "approved": "representing the status of the approval to be set",
          "to": "operator address to set the approval"
        }
      },
      "supportsInterface(bytes4)": {
        "details": "See {IERC165-supportsInterface}.     * Time complexity O(1), guaranteed to always use less than 30 000 gas."
      },
      "transferFrom(address,address,uint256)": {
        "details": "Transfers the ownership of a given token ID to another address. Usage of this method is discouraged, use {safeTransferFrom} whenever possible. Requires the msg.sender to be the owner, approved, or operator.",
        "params": {
          "from": "current owner of the token",
          "to": "address to receive the ownership of the given token ID",
          "tokenId": "uint256 ID of the token to be transferred"
        }
      }
    },
    "title": "ERC721Mintable"
  },
  "userdoc": {
    "methods": {}
  }
}