{
  "contractName": "GsnEip712Library",
  "abi": [
    {
      "inputs": [],
      "name": "EIP712DOMAIN_TYPEHASH",
      "outputs": [
        {
          "internalType": "bytes32",
          "name": "",
          "type": "bytes32"
        }
      ],
      "stateMutability": "view",
      "type": "function"
    },
    {
      "inputs": [],
      "name": "GENERIC_PARAMS",
      "outputs": [
        {
          "internalType": "string",
          "name": "",
          "type": "string"
        }
      ],
      "stateMutability": "view",
      "type": "function"
    },
    {
      "inputs": [],
      "name": "RELAYDATA_TYPE",
      "outputs": [
        {
          "internalType": "bytes",
          "name": "",
          "type": "bytes"
        }
      ],
      "stateMutability": "view",
      "type": "function"
    },
    {
      "inputs": [],
      "name": "RELAYDATA_TYPEHASH",
      "outputs": [
        {
          "internalType": "bytes32",
          "name": "",
          "type": "bytes32"
        }
      ],
      "stateMutability": "view",
      "type": "function"
    },
    {
      "inputs": [],
      "name": "RELAY_REQUEST_NAME",
      "outputs": [
        {
          "internalType": "string",
          "name": "",
          "type": "string"
        }
      ],
      "stateMutability": "view",
      "type": "function"
    },
    {
      "inputs": [],
      "name": "RELAY_REQUEST_SUFFIX",
      "outputs": [
        {
          "internalType": "string",
          "name": "",
          "type": "string"
        }
      ],
      "stateMutability": "view",
      "type": "function"
    },
    {
      "inputs": [],
      "name": "RELAY_REQUEST_TYPE",
      "outputs": [
        {
          "internalType": "bytes",
          "name": "",
          "type": "bytes"
        }
      ],
      "stateMutability": "view",
      "type": "function"
    },
    {
      "inputs": [],
      "name": "RELAY_REQUEST_TYPEHASH",
      "outputs": [
        {
          "internalType": "bytes32",
          "name": "",
          "type": "bytes32"
        }
      ],
      "stateMutability": "view",
      "type": "function"
    }
  ],
  "bytecode": "0x6080806040523461001a5761050a9081610020823930815050f35b600080fdfe604060808152600436101561001357600080fd5b600090813560e01c8063066a310c1461018f5780636225e61b14610177578063931cd38f1461015f578063987673f714610119578063abf0d3f414610102578063c46cf83f146100d3578063c49f91d31461009e5763cc0c62b21461007757600080fd5b8160031936011261009a5760209061008d6102eb565b8281519101209051908152f35b5080fd5b508160031936011261009a57602090517f8b73c3c69bb8fe3d512ecc4cf759cc79239f7b179b0ffacaa9a75d522b39400f8152f35b508160031936011261009a576100fe906100eb6102eb565b90519182916020835260208301906102c6565b0390f35b508160031936011261009a5760209061008d610435565b508160031936011261009a5780516100fe91610134826101a7565b600c82526b14995b185e54995c5d595cdd60a21b6020830152519182916020835260208301906102c6565b508160031936011261009a576100fe906100eb6103d7565b508160031936011261009a576100fe906100eb610435565b508160031936011261009a576100fe906100eb6101fb565b6040810190811067ffffffffffffffff8211176101c357604052565b634e487b7160e01b600052604160045260246000fd5b90601f8019910116810190811067ffffffffffffffff8211176101c357604052565b604051906080820182811067ffffffffffffffff8211176101c357604052605d82527f627974657320646174612c75696e743235362076616c6964556e74696c0000006060837f616464726573732066726f6d2c6164647265737320746f2c75696e743235362060208201527f76616c75652c75696e74323536206761732c75696e74323536206e6f6e63652c60408201520152565b918091926000905b8282106102b15750116102aa575050565b6000910152565b91508060209183015181860152018291610299565b906020916102df81518092818552858086019101610291565b601f01601f1916010190565b6040519060e0820182811067ffffffffffffffff8211176101c35760405260a18252602960f81b60c0837f52656c6179446174612875696e743235362067617350726963652c75696e743260208201527f35362070637452656c61794665652c75696e74323536206261736552656c617960408201527f4665652c616464726573732072656c6179576f726b65722c616464726573732060608201527f7061796d61737465722c6164647265737320666f727761726465722c6279746560808201527f73207061796d6173746572446174612c75696e7432353620636c69656e74496460a08201520152565b6103df6102eb565b610432603460405180937f52656c6179446174612072656c6179446174612900000000000000000000000060208301526104228151809260208686019101610291565b81010360148101845201826101d9565b90565b6104876104326022604051610449816101a7565b600c8152602081016b14995b185e54995c5d595cdd60a21b815261046b6101fb565b6104736103d7565b916040519687945180926020870190610291565b8301600560fb1b60208201526104a7825180936020602185019101610291565b01600b60fa1b60218201526104c58251809360208785019101610291565b010360028101845201826101d956fea2646970667358221220360fba63967307293a7e4a9f8b2201b576ba839f7cbeea9c4ce5c9d3c497e8d364736f6c634300080f0033",
  "immutableReferences": {},
  "source": "// SPDX-License-Identifier: GPL-3.0-only\npragma solidity ^0.8.0;\npragma abicoder v2;\n\nimport \"../utils/GsnTypes.sol\";\nimport \"../interfaces/IRelayRecipient.sol\";\nimport \"../forwarder/IForwarder.sol\";\n\nimport \"./GsnUtils.sol\";\n\n/**\n * Bridge Library to map GSN RelayRequest into a call of a Forwarder\n */\nlibrary GsnEip712Library {\n    // maximum length of return value/revert reason for 'execute' method. Will truncate result if exceeded.\n    uint256 private constant MAX_RETURN_SIZE = 1024;\n\n    //copied from Forwarder (can't reference string constants even from another library)\n    string public constant GENERIC_PARAMS = \"address from,address to,uint256 value,uint256 gas,uint256 nonce,bytes data,uint256 validUntil\";\n\n    bytes public constant RELAYDATA_TYPE = \"RelayData(uint256 gasPrice,uint256 pctRelayFee,uint256 baseRelayFee,address relayWorker,address paymaster,address forwarder,bytes paymasterData,uint256 clientId)\";\n\n    string public constant RELAY_REQUEST_NAME = \"RelayRequest\";\n    string public constant RELAY_REQUEST_SUFFIX = string(abi.encodePacked(\"RelayData relayData)\", RELAYDATA_TYPE));\n\n    bytes public constant RELAY_REQUEST_TYPE = abi.encodePacked(\n        RELAY_REQUEST_NAME,\"(\",GENERIC_PARAMS,\",\", RELAY_REQUEST_SUFFIX);\n\n    bytes32 public constant RELAYDATA_TYPEHASH = keccak256(RELAYDATA_TYPE);\n    bytes32 public constant RELAY_REQUEST_TYPEHASH = keccak256(RELAY_REQUEST_TYPE);\n\n\n    struct EIP712Domain {\n        string name;\n        string version;\n        uint256 chainId;\n        address verifyingContract;\n    }\n\n    bytes32 public constant EIP712DOMAIN_TYPEHASH = keccak256(\n        \"EIP712Domain(string name,string version,uint256 chainId,address verifyingContract)\"\n    );\n\n    function splitRequest(\n        GsnTypes.RelayRequest calldata req\n    )\n    internal\n    pure\n    returns (\n        bytes memory suffixData\n    ) {\n        suffixData = abi.encode(\n            hashRelayData(req.relayData));\n    }\n\n    //verify that the recipient trusts the given forwarder\n    // MUST be called by paymaster\n    function verifyForwarderTrusted(GsnTypes.RelayRequest calldata relayRequest) internal view {\n        (bool success, bytes memory ret) = relayRequest.request.to.staticcall(\n            abi.encodeWithSelector(\n                IRelayRecipient.isTrustedForwarder.selector, relayRequest.relayData.forwarder\n            )\n        );\n        require(success, \"isTrustedForwarder: reverted\");\n        require(ret.length == 32, \"isTrustedForwarder: bad response\");\n        require(abi.decode(ret, (bool)), \"invalid forwarder for recipient\");\n    }\n\n    function verifySignature(GsnTypes.RelayRequest calldata relayRequest, bytes calldata signature) internal view {\n        (bytes memory suffixData) = splitRequest(relayRequest);\n        bytes32 _domainSeparator = domainSeparator(relayRequest.relayData.forwarder);\n        IForwarder forwarder = IForwarder(payable(relayRequest.relayData.forwarder));\n        forwarder.verify(relayRequest.request, _domainSeparator, RELAY_REQUEST_TYPEHASH, suffixData, signature);\n    }\n\n    function verify(GsnTypes.RelayRequest calldata relayRequest, bytes calldata signature) internal view {\n        verifyForwarderTrusted(relayRequest);\n        verifySignature(relayRequest, signature);\n    }\n\n    function execute(GsnTypes.RelayRequest calldata relayRequest, bytes calldata signature) internal returns (bool forwarderSuccess, bool callSuccess, bytes memory ret) {\n        (bytes memory suffixData) = splitRequest(relayRequest);\n        bytes32 _domainSeparator = domainSeparator(relayRequest.relayData.forwarder);\n        /* solhint-disable-next-line avoid-low-level-calls */\n        (forwarderSuccess, ret) = relayRequest.relayData.forwarder.call(\n            abi.encodeWithSelector(IForwarder.execute.selector,\n            relayRequest.request, _domainSeparator, RELAY_REQUEST_TYPEHASH, suffixData, signature\n        ));\n        if ( forwarderSuccess ) {\n\n          //decode return value of execute:\n          (callSuccess, ret) = abi.decode(ret, (bool, bytes));\n        }\n        truncateInPlace(ret);\n    }\n\n    //truncate the given parameter (in-place) if its length is above the given maximum length\n    // do nothing otherwise.\n    //NOTE: solidity warns unless the method is marked \"pure\", but it DOES modify its parameter.\n    function truncateInPlace(bytes memory data) internal pure {\n        MinLibBytes.truncateInPlace(data, MAX_RETURN_SIZE);\n    }\n\n    function domainSeparator(address forwarder) internal view returns (bytes32) {\n        return hashDomain(EIP712Domain({\n            name : \"GSN Relayed Transaction\",\n            version : \"2\",\n            chainId : getChainID(),\n            verifyingContract : forwarder\n            }));\n    }\n\n    function getChainID() internal view returns (uint256 id) {\n        /* solhint-disable no-inline-assembly */\n        assembly {\n            id := chainid()\n        }\n    }\n\n    function hashDomain(EIP712Domain memory req) internal pure returns (bytes32) {\n        return keccak256(abi.encode(\n                EIP712DOMAIN_TYPEHASH,\n                keccak256(bytes(req.name)),\n                keccak256(bytes(req.version)),\n                req.chainId,\n                req.verifyingContract));\n    }\n\n    function hashRelayData(GsnTypes.RelayData calldata req) internal pure returns (bytes32) {\n        return keccak256(abi.encode(\n                RELAYDATA_TYPEHASH,\n                req.gasPrice,\n                req.pctRelayFee,\n                req.baseRelayFee,\n                req.relayWorker,\n                req.paymaster,\n                req.forwarder,\n                keccak256(req.paymasterData),\n                req.clientId\n            ));\n    }\n}\n",
  "sourcePath": "@opengsn/contracts/src/utils/GsnEip712Library.sol",
  "compiler": {
    "name": "solc",
    "version": "0.8.15+commit.e14f2714.Emscripten.clang"
  },
  "schemaVersion": "3.4.6",
  "updatedAt": "2022-06-17T17:16:54.269Z",
  "devdoc": {
    "kind": "dev",
    "methods": {},
    "version": 1
  },
  "userdoc": {
    "kind": "user",
    "methods": {},
    "notice": "Bridge Library to map GSN RelayRequest into a call of a Forwarder",
    "version": 1
  }
}