{
  "contractName": "HarbergerTaxManager",
  "abi": [
    {
      "constant": true,
      "inputs": [
        {
          "internalType": "uint256",
          "name": "",
          "type": "uint256"
        },
        {
          "internalType": "uint256",
          "name": "",
          "type": "uint256"
        }
      ],
      "name": "buyOutOwners",
      "outputs": [
        {
          "internalType": "uint256",
          "name": "",
          "type": "uint256"
        }
      ],
      "payable": false,
      "stateMutability": "view",
      "type": "function"
    },
    {
      "constant": true,
      "inputs": [
        {
          "internalType": "uint256",
          "name": "",
          "type": "uint256"
        }
      ],
      "name": "licenceTaxObjects",
      "outputs": [
        {
          "internalType": "uint256",
          "name": "",
          "type": "uint256"
        }
      ],
      "payable": false,
      "stateMutability": "view",
      "type": "function"
    },
    {
      "constant": false,
      "inputs": [
        {
          "internalType": "address",
          "name": "_unicoinRegistry",
          "type": "address"
        }
      ],
      "name": "initialize",
      "outputs": [],
      "payable": false,
      "stateMutability": "nonpayable",
      "type": "function"
    },
    {
      "constant": false,
      "inputs": [
        {
          "internalType": "uint256",
          "name": "_licenceId",
          "type": "uint256"
        },
        {
          "internalType": "uint256",
          "name": "_currentAssignedValue",
          "type": "uint256"
        }
      ],
      "name": "createTaxObject",
      "outputs": [
        {
          "internalType": "uint256",
          "name": "",
          "type": "uint256"
        }
      ],
      "payable": false,
      "stateMutability": "nonpayable",
      "type": "function"
    },
    {
      "constant": true,
      "inputs": [
        {
          "internalType": "uint256",
          "name": "_taxObject_Id",
          "type": "uint256"
        }
      ],
      "name": "calculateOutstandingTax",
      "outputs": [
        {
          "internalType": "uint256",
          "name": "",
          "type": "uint256"
        }
      ],
      "payable": false,
      "stateMutability": "view",
      "type": "function"
    },
    {
      "constant": true,
      "inputs": [
        {
          "internalType": "uint256",
          "name": "_taxObject_Id",
          "type": "uint256"
        }
      ],
      "name": "calculateMinBuyOutPrice",
      "outputs": [
        {
          "internalType": "uint256",
          "name": "",
          "type": "uint256"
        }
      ],
      "payable": false,
      "stateMutability": "view",
      "type": "function"
    },
    {
      "constant": false,
      "inputs": [
        {
          "internalType": "uint256",
          "name": "_taxObject_Id",
          "type": "uint256"
        }
      ],
      "name": "updateTaxObjectLastPayment",
      "outputs": [],
      "payable": false,
      "stateMutability": "nonpayable",
      "type": "function"
    },
    {
      "constant": false,
      "inputs": [
        {
          "internalType": "uint256",
          "name": "_taxObject_Id",
          "type": "uint256"
        },
        {
          "internalType": "uint256",
          "name": "_assignedValue",
          "type": "uint256"
        }
      ],
      "name": "updateTaxObjectPrivateValuation",
      "outputs": [],
      "payable": false,
      "stateMutability": "nonpayable",
      "type": "function"
    },
    {
      "constant": false,
      "inputs": [
        {
          "internalType": "uint256",
          "name": "_taxObject",
          "type": "uint256"
        },
        {
          "internalType": "uint256",
          "name": "_offer",
          "type": "uint256"
        },
        {
          "internalType": "uint256",
          "name": "_buyOutOwner_Id",
          "type": "uint256"
        }
      ],
      "name": "submitBuyOut",
      "outputs": [
        {
          "internalType": "uint256",
          "name": "",
          "type": "uint256"
        }
      ],
      "payable": false,
      "stateMutability": "nonpayable",
      "type": "function"
    },
    {
      "constant": false,
      "inputs": [
        {
          "internalType": "uint256",
          "name": "_buyOut_Id",
          "type": "uint256"
        }
      ],
      "name": "finalizeBuyOutOffer",
      "outputs": [
        {
          "internalType": "bool",
          "name": "",
          "type": "bool"
        }
      ],
      "payable": false,
      "stateMutability": "nonpayable",
      "type": "function"
    },
    {
      "constant": true,
      "inputs": [
        {
          "internalType": "uint256",
          "name": "_licence_Id",
          "type": "uint256"
        }
      ],
      "name": "getLicenceTaxObjectId",
      "outputs": [
        {
          "internalType": "uint256",
          "name": "",
          "type": "uint256"
        }
      ],
      "payable": false,
      "stateMutability": "view",
      "type": "function"
    },
    {
      "constant": true,
      "inputs": [
        {
          "internalType": "uint256",
          "name": "_taxObject_Id",
          "type": "uint256"
        }
      ],
      "name": "getTaxObject",
      "outputs": [
        {
          "internalType": "uint256",
          "name": "",
          "type": "uint256"
        },
        {
          "internalType": "uint256",
          "name": "",
          "type": "uint256"
        },
        {
          "internalType": "uint256",
          "name": "",
          "type": "uint256"
        },
        {
          "internalType": "uint256",
          "name": "",
          "type": "uint256"
        },
        {
          "internalType": "uint256",
          "name": "",
          "type": "uint256"
        },
        {
          "internalType": "uint256[]",
          "name": "",
          "type": "uint256[]"
        }
      ],
      "payable": false,
      "stateMutability": "view",
      "type": "function"
    },
    {
      "constant": true,
      "inputs": [
        {
          "internalType": "uint256",
          "name": "x",
          "type": "uint256"
        }
      ],
      "name": "optimalExp",
      "outputs": [
        {
          "internalType": "uint256",
          "name": "",
          "type": "uint256"
        }
      ],
      "payable": false,
      "stateMutability": "pure",
      "type": "function"
    },
    {
      "constant": true,
      "inputs": [
        {
          "internalType": "uint256",
          "name": "r",
          "type": "uint256"
        },
        {
          "internalType": "uint256",
          "name": "t1",
          "type": "uint256"
        },
        {
          "internalType": "uint256",
          "name": "t2",
          "type": "uint256"
        }
      ],
      "name": "capFunction",
      "outputs": [
        {
          "internalType": "uint256",
          "name": "",
          "type": "uint256"
        }
      ],
      "payable": false,
      "stateMutability": "pure",
      "type": "function"
    },
    {
      "constant": true,
      "inputs": [
        {
          "internalType": "uint256",
          "name": "N",
          "type": "uint256"
        },
        {
          "internalType": "uint256",
          "name": "r",
          "type": "uint256"
        },
        {
          "internalType": "uint256",
          "name": "t1",
          "type": "uint256"
        },
        {
          "internalType": "uint256",
          "name": "t2",
          "type": "uint256"
        }
      ],
      "name": "futureValue",
      "outputs": [
        {
          "internalType": "uint256",
          "name": "",
          "type": "uint256"
        }
      ],
      "payable": false,
      "stateMutability": "pure",
      "type": "function"
    }
  ],
  "bytecode": "0x60806040526005603355620d2f0060345564046e07d0f660355534801561002557600080fd5b50611b5e806100356000396000f3fe608060405234801561001057600080fd5b50600436106100f55760003560e01c80638a226e3211610097578063c4d66de811610066578063c4d66de8146103ee578063e95b259014610432578063eb12cdc314610478578063f26bb2f21461051e576100f5565b80638a226e32146102f05780639505086214610332578063b4b5732f14610374578063b4c0bd9d146103ac576100f5565b806334c873b2116100d357806334c873b2146101de57806338b360261461020c57806341107ff71461024e578063776c0248146102a4576100f5565b806326ee5f2a146100fa57806328bc2665146101505780633052789a14610192575b600080fd5b61013a6004803603606081101561011057600080fd5b8101908080359060200190929190803590602001909291908035906020019092919050505061057e565b6040518082815260200191505060405180910390f35b61017c6004803603602081101561016657600080fd5b8101908080359060200190929190505050610819565b6040518082815260200191505060405180910390f35b6101c8600480360360408110156101a857600080fd5b810190808035906020019092919080359060200190929190505050610831565b6040518082815260200191505060405180910390f35b61020a600480360360208110156101f457600080fd5b810190808035906020019092919050505061085f565b005b6102386004803603602081101561022257600080fd5b8101908080359060200190929190505050610948565b6040518082815260200191505060405180910390f35b61028e6004803603606081101561026457600080fd5b81019080803590602001909291908035906020019092919080359060200190929190505050610981565b6040518082815260200191505060405180910390f35b6102da600480360360408110156102ba57600080fd5b8101908080359060200190929190803590602001909291905050506109f0565b6040518082815260200191505060405180910390f35b61031c6004803603602081101561030657600080fd5b8101908080359060200190929190505050610b9b565b6040518082815260200191505060405180910390f35b61035e6004803603602081101561034857600080fd5b8101908080359060200190929190505050610c89565b6040518082815260200191505060405180910390f35b6103aa6004803603604081101561038a57600080fd5b810190808035906020019092919080359060200190929190505050611203565b005b6103d8600480360360208110156103c257600080fd5b81019080803590602001909291905050506112ed565b6040518082815260200191505060405180910390f35b6104306004803603602081101561040457600080fd5b81019080803573ffffffffffffffffffffffffffffffffffffffff16906020019092919050505061130a565b005b61045e6004803603602081101561044857600080fd5b810190808035906020019092919050505061144b565b604051808215151515815260200191505060405180910390f35b6104a46004803603602081101561048e57600080fd5b810190808035906020019092919050505061184c565b6040518087815260200186815260200185815260200184815260200183815260200180602001828103825283818151815260200191508051906020019060200280838360005b838110156105055780820151818401526020810190506104ea565b5050505090500197505050505050505060405180910390f35b6105686004803603608081101561053457600080fd5b8101908080359060200190929190803590602001909291908035906020019092919080359060200190929190505050611947565b6040518082815260200191505060405180910390f35b6000603660009054906101000a900473ffffffffffffffffffffffffffffffffffffffff1673ffffffffffffffffffffffffffffffffffffffff163373ffffffffffffffffffffffffffffffffffffffff1614610643576040517f08c379a000000000000000000000000000000000000000000000000000000000815260040180806020018281038252601e8152602001807f43616e206f6e6c792062652063616c6c6564206279207265676973747279000081525060200191505060405180910390fd5b61066a6037858154811061065357fe5b906000526020600020906006020160040154610948565b8310156106c2576040517f08c379a0000000000000000000000000000000000000000000000000000000008152600401808060200182810382526030815260200180611acd6030913960400191505060405180910390fd5b6106ca611982565b6040518060a0016040528086815260200184815260200185815260200160345442018152602001600060028111156106fe57fe5b815250905060006001603883908060018154018082558091505090600182039060005260206000209060050201600090919290919091506000820151816000015560208201518160010155604082015181600201556060820151816003015560808201518160040160006101000a81548160ff0219169083600281111561078157fe5b0217905550505003905060396000858152602001908152602001600020819080600181540180825580915050906001820390600052602060002001600090919290919091505550603786815481106107d557fe5b906000526020600020906006020160050181908060018154018082558091505090600182039060005260206000200160009091929091909150555050509392505050565b603a6020528060005260406000206000915090505481565b6039602052816000526040600020818154811061084a57fe5b90600052602060002001600091509150505481565b603660009054906101000a900473ffffffffffffffffffffffffffffffffffffffff1673ffffffffffffffffffffffffffffffffffffffff163373ffffffffffffffffffffffffffffffffffffffff1614610922576040517f08c379a000000000000000000000000000000000000000000000000000000000815260040180806020018281038252601e8152602001807f43616e206f6e6c792062652063616c6c6564206279207265676973747279000081525060200191505060405180910390fd5b426037828154811061093057fe5b90600052602060002090600602016002018190555050565b600060646033546064016037848154811061095f57fe5b906000526020600020906006020160040154028161097957fe5b049050919050565b6000808383039050600067d02ab486cedc00006f8000000000000000000000000000000083880202816109b057fe5b04905060006f80000000000000000000000000000000670de0b6b3a76400006109d884610c89565b02816109e057fe5b0490508093505050509392505050565b6000603660009054906101000a900473ffffffffffffffffffffffffffffffffffffffff1673ffffffffffffffffffffffffffffffffffffffff163373ffffffffffffffffffffffffffffffffffffffff1614610ab5576040517f08c379a000000000000000000000000000000000000000000000000000000000815260040180806020018281038252601e8152602001807f43616e206f6e6c792062652063616c6c6564206279207265676973747279000081525060200191505060405180910390fd5b6060610abf6119bc565b6040518060c001604052808681526020016035548152602001428152602001600081526020018581526020018381525090506000600160378390806001815401808255809150509060018203906000526020600020906006020160009091929091909150600082015181600001556020820151816001015560408201518160020155606082015181600301556080820151816004015560a0820151816005019080519060200190610b719291906119f2565b50505003905080603a60008881526020019081526020016000208190555080935050505092915050565b6000610ba56119bc565b60378381548110610bb257fe5b90600052602060002090600602016040518060c0016040529081600082015481526020016001820154815260200160028201548152602001600382015481526020016004820154815260200160058201805480602002602001604051908101604052809291908181526020018280548015610c4c57602002820191906000526020600020905b815481526020019060010190808311610c38575b50505050508152505090506000610c7182608001518360200151846040015142611947565b90506000826080015182039050809350505050919050565b600080600090506000806f100000000000000000000000000000008581610cac57fe5b0691508190506f8000000000000000000000000000000082820281610ccd57fe5b0490506710e1b3be415a00008102830192506f8000000000000000000000000000000082820281610cfa57fe5b0490506705a0913f6b1e00008102830192506f8000000000000000000000000000000082820281610d2757fe5b049050670168244fdac780008102830192506f8000000000000000000000000000000082820281610d5457fe5b049050664807432bc180008102830192506f8000000000000000000000000000000082820281610d8057fe5b049050660c0135dca040008102830192506f8000000000000000000000000000000082820281610dac57fe5b0490506601b707b1cdc0008102830192506f8000000000000000000000000000000082820281610dd857fe5b0490506536e0f639b8008102830192506f8000000000000000000000000000000082820281610e0357fe5b049050650618fee9f8008102830192506f8000000000000000000000000000000082820281610e2e57fe5b049050649c197dcc008102830192506f8000000000000000000000000000000082820281610e5857fe5b049050640e30dce4008102830192506f8000000000000000000000000000000082820281610e8257fe5b04905064012ebd13008102830192506f8000000000000000000000000000000082820281610eac57fe5b0490506317499f008102830192506f8000000000000000000000000000000082820281610ed557fe5b0490506301a9d4808102830192506f8000000000000000000000000000000082820281610efe57fe5b049050621c63808102830192506f8000000000000000000000000000000082820281610f2657fe5b0490506201c6388102830192506f8000000000000000000000000000000082820281610f4e57fe5b049050611ab88102830192506f8000000000000000000000000000000082820281610f7557fe5b04905061017c8102830192506f8000000000000000000000000000000082820281610f9c57fe5b04905060148102830192506f8000000000000000000000000000000082820281610fc257fe5b04905060018102830192506f80000000000000000000000000000000826721c3677c82b400008581610ff057fe5b040101925060006f100000000000000000000000000000008616146110405770018ebef9eac820ae8682b9793ac6d1e7767001c3d6a24ed82218787d624d3e5eba95f984028161103c57fe5b0492505b60006f2000000000000000000000000000000086161461108b577001368b2fc6f9609fe7aceb46aa619baed470018ebef9eac820ae8682b9793ac6d1e77884028161108757fe5b0492505b60006f400000000000000000000000000000008616146110d5576fbc5ab1b16779be3575bd8f0520a9f21f7001368b2fc6f9609fe7aceb46aa619baed58402816110d157fe5b0492505b60006f8000000000000000000000000000000086161461111e576f454aaa8efe072e7f6ddbab84b40a55c96fbc5ab1b16779be3575bd8f0520a9f21e84028161111a57fe5b0492505b6000700100000000000000000000000000000000861614611168576f0960aadc109e7a3bf4578099615711ea6f454aaa8efe072e7f6ddbab84b40a55c584028161116457fe5b0492505b60007002000000000000000000000000000000008616146111b1576e2bf84208204f5977f9a8cf01fdce3d6f0960aadc109e7a3bf4578099615711d78402816111ad57fe5b0492505b60007004000000000000000000000000000000008616146111f8576d03c6ab775dd0b95b4cbee7e65d116e2bf84208204f5977f9a8cf01fdc3078402816111f457fe5b0492505b829350505050919050565b603660009054906101000a900473ffffffffffffffffffffffffffffffffffffffff1673ffffffffffffffffffffffffffffffffffffffff163373ffffffffffffffffffffffffffffffffffffffff16146112c6576040517f08c379a000000000000000000000000000000000000000000000000000000000815260040180806020018281038252601e8152602001807f43616e206f6e6c792062652063616c6c6564206279207265676973747279000081525060200191505060405180910390fd5b80603783815481106112d457fe5b9060005260206000209060060201600401819055505050565b6000603a6000838152602001908152602001600020549050919050565b600060019054906101000a900460ff16806113295750611328611971565b5b8061134057506000809054906101000a900460ff16155b611395576040517f08c379a000000000000000000000000000000000000000000000000000000000815260040180806020018281038252602e815260200180611a9f602e913960400191505060405180910390fd5b60008060019054906101000a900460ff1615905080156113e5576001600060016101000a81548160ff02191690831515021790555060016000806101000a81548160ff0219169083151502179055505b81603660006101000a81548173ffffffffffffffffffffffffffffffffffffffff021916908373ffffffffffffffffffffffffffffffffffffffff16021790555080156114475760008060016101000a81548160ff0219169083151502179055505b5050565b6000603660009054906101000a900473ffffffffffffffffffffffffffffffffffffffff1673ffffffffffffffffffffffffffffffffffffffff163373ffffffffffffffffffffffffffffffffffffffff1614611510576040517f08c379a000000000000000000000000000000000000000000000000000000000815260040180806020018281038252601e8152602001807f43616e206f6e6c792062652063616c6c6564206279207265676973747279000081525060200191505060405180910390fd5b611518611982565b6038838154811061152557fe5b90600052602060002090600502016040518060a0016040529081600082015481526020016001820154815260200160028201548152602001600382015481526020016004820160009054906101000a900460ff16600281111561158457fe5b600281111561158f57fe5b81525050905061159d6119bc565b60378260000151815481106115ae57fe5b90600052602060002090600602016040518060c001604052908160008201548152602001600182015481526020016002820154815260200160038201548152602001600482015481526020016005820180548060200260200160405190810160405280929190818152602001828054801561164857602002820191906000526020600020905b815481526020019060010190808311611634575b50505050508152505090506000600281111561166057fe5b8260800151600281111561167057fe5b146116c6576040517f08c379a000000000000000000000000000000000000000000000000000000000815260040180806020018281038252602d815260200180611afd602d913960400191505060405180910390fd5b42826060015110611722576040517f08c379a000000000000000000000000000000000000000000000000000000000815260040180806020018281038252603a815260200180611a65603a913960400191505060405180910390fd5b61172f8160800151610948565b826040015110156117855760026038858154811061174957fe5b906000526020600020906005020160040160006101000a81548160ff0219169083600281111561177557fe5b0217905550600092505050611847565b6117928160800151610948565b82604001511115611844576001603885815481106117ac57fe5b906000526020600020906005020160040160006101000a81548160ff021916908360028111156117d857fe5b0217905550816040015160378360000151815481106117f357fe5b9060005260206000209060060201600401819055506001603783600001518154811061181b57fe5b906000526020600020906006020160030160008282540192505081905550600192505050611847565b50505b919050565b6000806000806000606061185e6119bc565b6037888154811061186b57fe5b90600052602060002090600602016040518060c001604052908160008201548152602001600182015481526020016002820154815260200160038201548152602001600482015481526020016005820180548060200260200160405190810160405280929190818152602001828054801561190557602002820191906000526020600020905b8154815260200190600101908083116118f1575b5050505050815250509050806000015181602001518260400151836060015184608001518560a001518090509650965096509650965096505091939550919395565b6000670de0b6b3a76400008561195e868686610981565b028161196657fe5b049050949350505050565b600080303b90506000811491505090565b6040518060a0016040528060008152602001600081526020016000815260200160008152602001600060028111156119b657fe5b81525090565b6040518060c001604052806000815260200160008152602001600081526020016000815260200160008152602001606081525090565b828054828255906000526020600020908101928215611a2e579160200282015b82811115611a2d578251825591602001919060010190611a12565b5b509050611a3b9190611a3f565b5090565b611a6191905b80821115611a5d576000816000905550600101611a45565b5090565b9056fe63616e206f6e6c792066696e616c697a65206275796f75742069662069742069732070617374207468652065787069726174696f6e2074696d65436f6e747261637420696e7374616e63652068617320616c7265616479206265656e20696e697469616c697a656456616c75652073656e74206973206c657373207468616e20746865206d696e696d756d206275796f757420707269636543616e206f6e6c792066696e616c697a65206275796f7574206966206275796f75742069732070656e64696e67a265627a7a72315820668e5cc8ac94bcc819ca43071fcf28c3f5e55ad77d8bee49ca914ec719e03ca364736f6c634300050c0032",
  "source": "pragma solidity ^0.5.12;\n\nimport \"@openzeppelin/upgrades/contracts/Initializable.sol\";\n\ncontract HarbergerTaxManager is Initializable {\n    uint256 private constant FIXED_1 = 0x080000000000000000000000000000000;\n    //percentage increase over previous price that must be paid to buy out the licence\n    uint256 MIN_BUYOUT_PRICE_INCREASE = 5;\n    //a buyout has an expiratory of 10 days for the owner to raize the price or loose the licence\n    uint256 BUYOUT_TIMEOUT = 60 * 60 * 24 * 10;\n    // 4% compounding per block, scaled 1e18\n    uint256 FIXED_INTEREST_RATE_PER_BLOCK = 19025875190;\n\n    address registry;\n\n    struct TaxObject {\n        uint256 licenceId;\n        uint256 ratePerBlock;\n        uint256 lastPayment;\n        uint256 numberOfOutBids;\n        uint256 currentAssignedValue;\n        uint256[] buyout_Ids;\n    }\n\n    TaxObject[] taxObjects;\n\n    enum BuyoutStatus {Pending, Successful, OutBid}\n\n    struct BuyOut {\n        uint256 taxObject_Id;\n        uint256 buyoutOwner_Id;\n        uint256 buyoutAmount;\n        uint256 buyOutExpiration;\n        BuyoutStatus status;\n    }\n\n    BuyOut[] buyOuts;\n\n    mapping(uint256 => uint256[]) public buyOutOwners;\n\n    mapping(uint256 => uint256) public licenceTaxObjects;\n\n    modifier onlyRegistry() {\n        require(msg.sender == registry, \"Can only be called by registry\");\n        _;\n    }\n\n    function initialize(address _unicoinRegistry) public initializer {\n        registry = _unicoinRegistry;\n\n    }\n\n    function createTaxObject(\n        uint256 _licenceId,\n        // uint256 _ratePerBlock,\n        uint256 _currentAssignedValue\n    ) public onlyRegistry returns (uint256) {\n        uint256[] memory buyOutIds;\n        TaxObject memory taxObject = TaxObject(\n            _licenceId,\n            FIXED_INTEREST_RATE_PER_BLOCK,\n            now,\n            0,\n            _currentAssignedValue,\n            buyOutIds\n        );\n\n        uint256 taxObjectId = taxObjects.push(taxObject) - 1;\n\n        licenceTaxObjects[_licenceId] = taxObjectId;\n\n        return taxObjectId;\n    }\n\n    function calculateOutstandingTax(uint256 _taxObject_Id)\n        public\n        view\n        returns (uint256)\n    {\n        TaxObject memory taxObject = taxObjects[_taxObject_Id];\n        uint256 futureValue = futureValue(\n            taxObject.currentAssignedValue,\n            taxObject.ratePerBlock,\n            taxObject.lastPayment,\n            now\n        );\n\n        uint256 interestOutstanding = futureValue -\n            taxObject.currentAssignedValue;\n        return interestOutstanding;\n    }\n\n    function calculateMinBuyOutPrice(uint256 _taxObject_Id)\n        public\n        view\n        returns (uint256)\n    {\n        return\n            (taxObjects[_taxObject_Id].currentAssignedValue *\n                (100 + MIN_BUYOUT_PRICE_INCREASE)) /\n            100;\n    }\n\n    function updateTaxObjectLastPayment(uint256 _taxObject_Id)\n        public\n        onlyRegistry\n    {\n        taxObjects[_taxObject_Id].lastPayment = now;\n    }\n\n    function updateTaxObjectPrivateValuation(\n        uint256 _taxObject_Id,\n        uint256 _assignedValue\n    ) public onlyRegistry {\n        taxObjects[_taxObject_Id].currentAssignedValue = _assignedValue;\n    }\n\n    function submitBuyOut(\n        uint256 _taxObject,\n        uint256 _offer,\n        uint256 _buyOutOwner_Id\n    ) public onlyRegistry returns (uint256) {\n        require(\n            _offer >=\n                calculateMinBuyOutPrice(\n                    taxObjects[_taxObject].currentAssignedValue\n                ),\n            \"Value sent is less than the minimum buyout price\"\n        );\n\n        BuyOut memory buyOut = BuyOut(\n            _taxObject,\n            _buyOutOwner_Id,\n            _offer,\n            now + BUYOUT_TIMEOUT,\n            BuyoutStatus.Pending\n        );\n\n        uint256 buyOut_Id = buyOuts.push(buyOut) - 1;\n        buyOutOwners[_buyOutOwner_Id].push(buyOut_Id);\n        taxObjects[_taxObject].buyout_Ids.push(buyOut_Id);\n    }\n\n    function finalizeBuyOutOffer(uint256 _buyOut_Id)\n        public\n        onlyRegistry\n        returns (bool)\n    {\n        BuyOut memory buyOut = buyOuts[_buyOut_Id];\n        TaxObject memory taxObject = taxObjects[buyOut.taxObject_Id];\n        require(\n            buyOut.status == BuyoutStatus.Pending,\n            \"Can only finalize buyout if buyout is pending\"\n        );\n        require(\n            buyOut.buyOutExpiration < now,\n            \"can only finalize buyout if it is past the expiration time\"\n        );\n        if (\n            buyOut.buyoutAmount <\n            calculateMinBuyOutPrice(taxObject.currentAssignedValue)\n        ) {\n            buyOuts[_buyOut_Id].status = BuyoutStatus.OutBid;\n            return false; //the buyout was not enough and so failed\n        }\n        if (\n            buyOut.buyoutAmount >\n            calculateMinBuyOutPrice(taxObject.currentAssignedValue)\n        ) {\n            buyOuts[_buyOut_Id].status = BuyoutStatus.Successful;\n            taxObjects[buyOut.taxObject_Id].currentAssignedValue = buyOut\n                .buyoutAmount;\n            taxObjects[buyOut.taxObject_Id].numberOfOutBids += 1;\n            return true;\n        }\n    }\n\n    function getLicenceTaxObjectId(uint256 _licence_Id)\n        public\n        view\n        returns (uint256)\n    {\n        return licenceTaxObjects[_licence_Id];\n    }\n\n    function getTaxObject(uint256 _taxObject_Id)\n        public\n        view\n        returns (uint256, uint256, uint256, uint256, uint256, uint256[] memory)\n    {\n        TaxObject memory taxObject = taxObjects[_taxObject_Id];\n        return (\n            taxObject.licenceId,\n            taxObject.ratePerBlock,\n            taxObject.lastPayment,\n            taxObject.numberOfOutBids,\n            taxObject.currentAssignedValue,\n            taxObject.buyout_Ids\n        );\n    }\n\n    /**\n      * @dev computes e ^ (x / FIXED_1) * FIXED_1\n      * input range: 0 <= x <= OPT_EXP_MAX_VAL - 1\n      * Detailed description:\n      * - Rewrite the input as a sum of binary exponents and a single residual r, as small as possible\n      * - The exponentiation of each binary exponent is given (pre-calculated)\n      * - The exponentiation of r is calculated via Taylor series for e^x, where x = r\n      * - The exponentiation of the input is calculated by multiplying the intermediate results above\n      * - For example: e^5.521692859 = e^(4 + 1 + 0.5 + 0.021692859) = e^4 * e^1 * e^0.5 * e^0.021692859\n    */\n    function optimalExp(uint256 x) public pure returns (uint256) {\n        uint256 res = 0;\n\n        uint256 y;\n        uint256 z;\n\n        z = y = x % 0x10000000000000000000000000000000; // get the input modulo 2^(-3)\n        z = (z * y) / FIXED_1;\n        res += z * 0x10e1b3be415a0000; // add y^02 * (20! / 02!)\n        z = (z * y) / FIXED_1;\n        res += z * 0x05a0913f6b1e0000; // add y^03 * (20! / 03!)\n        z = (z * y) / FIXED_1;\n        res += z * 0x0168244fdac78000; // add y^04 * (20! / 04!)\n        z = (z * y) / FIXED_1;\n        res += z * 0x004807432bc18000; // add y^05 * (20! / 05!)\n        z = (z * y) / FIXED_1;\n        res += z * 0x000c0135dca04000; // add y^06 * (20! / 06!)\n        z = (z * y) / FIXED_1;\n        res += z * 0x0001b707b1cdc000; // add y^07 * (20! / 07!)\n        z = (z * y) / FIXED_1;\n        res += z * 0x000036e0f639b800; // add y^08 * (20! / 08!)\n        z = (z * y) / FIXED_1;\n        res += z * 0x00000618fee9f800; // add y^09 * (20! / 09!)\n        z = (z * y) / FIXED_1;\n        res += z * 0x0000009c197dcc00; // add y^10 * (20! / 10!)\n        z = (z * y) / FIXED_1;\n        res += z * 0x0000000e30dce400; // add y^11 * (20! / 11!)\n        z = (z * y) / FIXED_1;\n        res += z * 0x000000012ebd1300; // add y^12 * (20! / 12!)\n        z = (z * y) / FIXED_1;\n        res += z * 0x0000000017499f00; // add y^13 * (20! / 13!)\n        z = (z * y) / FIXED_1;\n        res += z * 0x0000000001a9d480; // add y^14 * (20! / 14!)\n        z = (z * y) / FIXED_1;\n        res += z * 0x00000000001c6380; // add y^15 * (20! / 15!)\n        z = (z * y) / FIXED_1;\n        res += z * 0x000000000001c638; // add y^16 * (20! / 16!)\n        z = (z * y) / FIXED_1;\n        res += z * 0x0000000000001ab8; // add y^17 * (20! / 17!)\n        z = (z * y) / FIXED_1;\n        res += z * 0x000000000000017c; // add y^18 * (20! / 18!)\n        z = (z * y) / FIXED_1;\n        res += z * 0x0000000000000014; // add y^19 * (20! / 19!)\n        z = (z * y) / FIXED_1;\n        res += z * 0x0000000000000001; // add y^20 * (20! / 20!)\n        res = res / 0x21c3677c82b40000 + y + FIXED_1; // divide by 20! and then add y^1 / 1! + y^0 / 0!\n\n        if ((x & 0x010000000000000000000000000000000) != 0)\n            res =\n                (res * 0x1c3d6a24ed82218787d624d3e5eba95f9) /\n                0x18ebef9eac820ae8682b9793ac6d1e776; // multiply by e^2^(-3)\n        if ((x & 0x020000000000000000000000000000000) != 0)\n            res =\n                (res * 0x18ebef9eac820ae8682b9793ac6d1e778) /\n                0x1368b2fc6f9609fe7aceb46aa619baed4; // multiply by e^2^(-2)\n        if ((x & 0x040000000000000000000000000000000) != 0)\n            res =\n                (res * 0x1368b2fc6f9609fe7aceb46aa619baed5) /\n                0x0bc5ab1b16779be3575bd8f0520a9f21f; // multiply by e^2^(-1)\n        if ((x & 0x080000000000000000000000000000000) != 0)\n            res =\n                (res * 0x0bc5ab1b16779be3575bd8f0520a9f21e) /\n                0x0454aaa8efe072e7f6ddbab84b40a55c9; // multiply by e^2^(+0)\n        if ((x & 0x100000000000000000000000000000000) != 0)\n            res =\n                (res * 0x0454aaa8efe072e7f6ddbab84b40a55c5) /\n                0x00960aadc109e7a3bf4578099615711ea; // multiply by e^2^(+1)\n        if ((x & 0x200000000000000000000000000000000) != 0)\n            res =\n                (res * 0x00960aadc109e7a3bf4578099615711d7) /\n                0x0002bf84208204f5977f9a8cf01fdce3d; // multiply by e^2^(+2)\n        if ((x & 0x400000000000000000000000000000000) != 0)\n            res =\n                (res * 0x0002bf84208204f5977f9a8cf01fdc307) /\n                0x0000003c6ab775dd0b95b4cbee7e65d11; // multiply by e^2^(+3)\n\n        return res;\n    }\n\n    function capFunction(uint256 r, uint256 t1, uint256 t2)\n        public\n        pure\n        returns (uint256)\n    {\n        uint256 t = t2 - t1;\n        uint256 x = (r * t * FIXED_1) / (15 * 10**18);\n        uint256 c = (optimalExp(x) * 10**18) / FIXED_1;\n        return c;\n    }\n\n    function futureValue(uint256 N, uint256 r, uint256 t1, uint256 t2)\n        public\n        pure\n        returns (uint256)\n    {\n        return (capFunction(r, t1, t2) * N) / 10**18;\n    }\n}\n",
  "sourcePath": "/Users/chris/Projects/unicoindapp/contracts/HarbergerTaxManager.sol",
  "compiler": {
    "name": "solc",
    "version": "0.5.12+commit.7709ece9.Emscripten.clang"
  },
  "schemaVersion": "3.0.16",
  "updatedAt": "2019-12-01T06:31:39.134Z",
  "devdoc": {
    "methods": {
      "optimalExp(uint256)": {
        "details": "computes e ^ (x / FIXED_1) * FIXED_1 input range: 0 <= x <= OPT_EXP_MAX_VAL - 1 Detailed description: - Rewrite the input as a sum of binary exponents and a single residual r, as small as possible - The exponentiation of each binary exponent is given (pre-calculated) - The exponentiation of r is calculated via Taylor series for e^x, where x = r - The exponentiation of the input is calculated by multiplying the intermediate results above - For example: e^5.521692859 = e^(4 + 1 + 0.5 + 0.021692859) = e^4 * e^1 * e^0.5 * e^0.021692859"
      }
    }
  },
  "userdoc": {
    "methods": {}
  }
}