{
  "contractName": "HarbergerTaxManager",
  "abi": [
    {
      "inputs": [
        {
          "internalType": "uint256",
          "name": "",
          "type": "uint256"
        },
        {
          "internalType": "uint256",
          "name": "",
          "type": "uint256"
        }
      ],
      "name": "buyOutOwners",
      "outputs": [
        {
          "internalType": "uint256",
          "name": "",
          "type": "uint256"
        }
      ],
      "stateMutability": "view",
      "type": "function"
    },
    {
      "inputs": [
        {
          "internalType": "address",
          "name": "forwarder",
          "type": "address"
        }
      ],
      "name": "isTrustedForwarder",
      "outputs": [
        {
          "internalType": "bool",
          "name": "",
          "type": "bool"
        }
      ],
      "stateMutability": "view",
      "type": "function"
    },
    {
      "inputs": [
        {
          "internalType": "uint256",
          "name": "",
          "type": "uint256"
        },
        {
          "internalType": "uint256",
          "name": "",
          "type": "uint256"
        }
      ],
      "name": "licenceTaxObjects",
      "outputs": [
        {
          "internalType": "uint256",
          "name": "",
          "type": "uint256"
        }
      ],
      "stateMutability": "view",
      "type": "function"
    },
    {
      "inputs": [
        {
          "internalType": "address",
          "name": "_registry",
          "type": "address"
        },
        {
          "internalType": "address",
          "name": "_trustedForwarder",
          "type": "address"
        }
      ],
      "name": "initialize",
      "outputs": [],
      "stateMutability": "nonpayable",
      "type": "function"
    },
    {
      "inputs": [
        {
          "internalType": "uint256",
          "name": "_licenceId",
          "type": "uint256"
        },
        {
          "internalType": "uint256",
          "name": "_currentAssignedValue",
          "type": "uint256"
        }
      ],
      "name": "createTaxObject",
      "outputs": [
        {
          "internalType": "uint256",
          "name": "",
          "type": "uint256"
        }
      ],
      "stateMutability": "nonpayable",
      "type": "function"
    },
    {
      "inputs": [
        {
          "internalType": "uint256",
          "name": "_taxObjectId",
          "type": "uint256"
        }
      ],
      "name": "calculateOutstandingTax",
      "outputs": [
        {
          "internalType": "uint256",
          "name": "",
          "type": "uint256"
        }
      ],
      "stateMutability": "view",
      "type": "function"
    },
    {
      "inputs": [
        {
          "internalType": "uint256",
          "name": "_taxObjectId",
          "type": "uint256"
        }
      ],
      "name": "calculateMinBuyOutPrice",
      "outputs": [
        {
          "internalType": "uint256",
          "name": "",
          "type": "uint256"
        }
      ],
      "stateMutability": "view",
      "type": "function"
    },
    {
      "inputs": [
        {
          "internalType": "uint256",
          "name": "_taxObjectId",
          "type": "uint256"
        }
      ],
      "name": "_updateTaxObjectLastPayment",
      "outputs": [],
      "stateMutability": "nonpayable",
      "type": "function"
    },
    {
      "inputs": [
        {
          "internalType": "uint256",
          "name": "_taxObjectId",
          "type": "uint256"
        },
        {
          "internalType": "uint256",
          "name": "_assignedValue",
          "type": "uint256"
        }
      ],
      "name": "_updateTaxObjectValuation",
      "outputs": [],
      "stateMutability": "nonpayable",
      "type": "function"
    },
    {
      "inputs": [
        {
          "internalType": "uint256",
          "name": "_taxObjectId",
          "type": "uint256"
        },
        {
          "internalType": "uint256",
          "name": "_offer",
          "type": "uint256"
        },
        {
          "internalType": "uint256",
          "name": "_buyOutOwnerId",
          "type": "uint256"
        }
      ],
      "name": "submitBuyOut",
      "outputs": [
        {
          "internalType": "uint256",
          "name": "",
          "type": "uint256"
        }
      ],
      "stateMutability": "nonpayable",
      "type": "function"
    },
    {
      "inputs": [
        {
          "internalType": "uint256",
          "name": "_buyOutId",
          "type": "uint256"
        }
      ],
      "name": "finalizeBuyOutOffer",
      "outputs": [
        {
          "internalType": "bool",
          "name": "",
          "type": "bool"
        }
      ],
      "stateMutability": "nonpayable",
      "type": "function"
    },
    {
      "inputs": [
        {
          "internalType": "uint256",
          "name": "_taxObjectId",
          "type": "uint256"
        }
      ],
      "name": "revokeTaxObject",
      "outputs": [],
      "stateMutability": "nonpayable",
      "type": "function"
    },
    {
      "inputs": [
        {
          "internalType": "uint256",
          "name": "_licenceId",
          "type": "uint256"
        }
      ],
      "name": "getLicenceTaxObjectId",
      "outputs": [
        {
          "internalType": "uint256",
          "name": "",
          "type": "uint256"
        }
      ],
      "stateMutability": "view",
      "type": "function"
    },
    {
      "inputs": [
        {
          "internalType": "uint256",
          "name": "_taxObjectId",
          "type": "uint256"
        }
      ],
      "name": "getTaxObject",
      "outputs": [
        {
          "internalType": "uint256",
          "name": "",
          "type": "uint256"
        },
        {
          "internalType": "uint256",
          "name": "",
          "type": "uint256"
        },
        {
          "internalType": "uint256",
          "name": "",
          "type": "uint256"
        },
        {
          "internalType": "uint256",
          "name": "",
          "type": "uint256"
        },
        {
          "internalType": "uint256",
          "name": "",
          "type": "uint256"
        },
        {
          "internalType": "uint256[]",
          "name": "",
          "type": "uint256[]"
        },
        {
          "internalType": "uint8",
          "name": "",
          "type": "uint8"
        }
      ],
      "stateMutability": "view",
      "type": "function"
    },
    {
      "inputs": [
        {
          "internalType": "uint256",
          "name": "_buyOutId",
          "type": "uint256"
        }
      ],
      "name": "getBuyOut",
      "outputs": [
        {
          "internalType": "uint256",
          "name": "",
          "type": "uint256"
        },
        {
          "internalType": "uint256",
          "name": "",
          "type": "uint256"
        },
        {
          "internalType": "uint256",
          "name": "",
          "type": "uint256"
        },
        {
          "internalType": "uint256",
          "name": "",
          "type": "uint256"
        },
        {
          "internalType": "uint8",
          "name": "",
          "type": "uint8"
        }
      ],
      "stateMutability": "view",
      "type": "function"
    },
    {
      "inputs": [
        {
          "internalType": "uint256",
          "name": "_buyOutId",
          "type": "uint256"
        }
      ],
      "name": "getBuyOutLicenceId",
      "outputs": [
        {
          "internalType": "uint256",
          "name": "",
          "type": "uint256"
        }
      ],
      "stateMutability": "view",
      "type": "function"
    },
    {
      "inputs": [
        {
          "internalType": "uint256",
          "name": "_buyOutId",
          "type": "uint256"
        }
      ],
      "name": "getBuyOutOwnerId",
      "outputs": [
        {
          "internalType": "uint256",
          "name": "",
          "type": "uint256"
        }
      ],
      "stateMutability": "view",
      "type": "function"
    },
    {
      "inputs": [],
      "name": "getTaxObjectLength",
      "outputs": [
        {
          "internalType": "uint256",
          "name": "",
          "type": "uint256"
        }
      ],
      "stateMutability": "view",
      "type": "function"
    },
    {
      "inputs": [
        {
          "internalType": "uint256",
          "name": "_licenceId",
          "type": "uint256"
        }
      ],
      "name": "getLicenceBuyOuts",
      "outputs": [
        {
          "internalType": "uint256[]",
          "name": "taxObjectId_",
          "type": "uint256[]"
        },
        {
          "internalType": "uint256[]",
          "name": "buyOutOwnerId_",
          "type": "uint256[]"
        },
        {
          "internalType": "uint256[]",
          "name": "buyOutAmount_",
          "type": "uint256[]"
        },
        {
          "internalType": "uint256[]",
          "name": "buyOutExpiration_",
          "type": "uint256[]"
        },
        {
          "internalType": "enum IHarbergerTaxManager.BuyOutStatus[]",
          "name": "status_",
          "type": "uint8[]"
        }
      ],
      "stateMutability": "view",
      "type": "function"
    },
    {
      "inputs": [
        {
          "internalType": "uint256",
          "name": "x",
          "type": "uint256"
        }
      ],
      "name": "optimalExp",
      "outputs": [
        {
          "internalType": "uint256",
          "name": "",
          "type": "uint256"
        }
      ],
      "stateMutability": "pure",
      "type": "function"
    },
    {
      "inputs": [
        {
          "internalType": "uint256",
          "name": "r",
          "type": "uint256"
        },
        {
          "internalType": "uint256",
          "name": "t1",
          "type": "uint256"
        },
        {
          "internalType": "uint256",
          "name": "t2",
          "type": "uint256"
        }
      ],
      "name": "capFunction",
      "outputs": [
        {
          "internalType": "uint256",
          "name": "",
          "type": "uint256"
        }
      ],
      "stateMutability": "pure",
      "type": "function"
    },
    {
      "inputs": [
        {
          "internalType": "uint256",
          "name": "N",
          "type": "uint256"
        },
        {
          "internalType": "uint256",
          "name": "r",
          "type": "uint256"
        },
        {
          "internalType": "uint256",
          "name": "t1",
          "type": "uint256"
        },
        {
          "internalType": "uint256",
          "name": "t2",
          "type": "uint256"
        }
      ],
      "name": "futureValue",
      "outputs": [
        {
          "internalType": "uint256",
          "name": "",
          "type": "uint256"
        }
      ],
      "stateMutability": "pure",
      "type": "function"
    }
  ],
  "bytecode": "0x608060405234801561001057600080fd5b50612493806100206000396000f3fe608060405234801561001057600080fd5b50600436106101625760003560e01c80638a226e32116100c8578063e1363b521161008c578063eb9c6e8111610066578063eb9c6e8114610342578063f26bb2f214610366578063fd8446e91461037957600080fd5b8063e1363b52146102f6578063e95b259014610309578063eb12cdc31461031c57600080fd5b80638a226e321461026c578063950508621461027f578063b4c0bd9d14610292578063c9603311146102a5578063d78cd958146102e357600080fd5b8063485cc9551161012a57806372d8e8191161010457806372d8e81914610233578063776c02481461024657806388b623c81461025957600080fd5b8063485cc955146101d9578063572b6c05146101ee5780635859eec11461022057600080fd5b806325c274721461016757806326ee5f2a1461018d5780633052789a146101a057806338b36026146101b357806341107ff7146101c6575b600080fd5b61017a610175366004612125565b610381565b6040519081526020015b60405180910390f35b61017a61019b366004612147565b6103b2565b61017a6101ae366004612125565b6106f3565b61017a6101c1366004612173565b61070f565b61017a6101d4366004612147565b61075d565b6101ec6101e73660046121a3565b6107d3565b005b6102106101fc3660046121d6565b6033546001600160a01b0391821691161490565b6040519015158152602001610184565b61017a61022e366004612173565b6108ce565b61017a610241366004612173565b610925565b61017a610254366004612125565b610953565b6101ec610267366004612125565b610cf3565b61017a61027a366004612173565b610d8a565b61017a61028d366004612173565b610de7565b61017a6102a0366004612173565b611451565b6102b86102b3366004612173565b6114fd565b60408051958652602086019490945292840191909152606083015260ff16608082015260a001610184565b6101ec6102f1366004612173565b6115d2565b6101ec610304366004612173565b611685565b610210610317366004612173565b61171b565b61032f61032a366004612173565b611a5f565b6040516101849796959493929190612233565b610355610350366004612173565b611ba3565b604051610184959493929190612291565b61017a610374366004612342565b611eec565b60695461017a565b606c602052816000526040600020818154811061039d57600080fd5b90600052602060002001600091509150505481565b6066546000906001600160a01b03166103c9611f17565b6001600160a01b0316146104245760405162461bcd60e51b815260206004820152601e60248201527f43616e206f6e6c792062652063616c6c6564206279207265676973747279000060448201526064015b60405180910390fd5b61042d8461070f565b8310156104a25760405162461bcd60e51b815260206004820152603060248201527f56616c75652073656e74206973206c657373207468616e20746865206d696e6960448201527f6d756d206275794f757420707269636500000000000000000000000000000000606482015260840161041b565b6000606985815481106104b7576104b7612374565b600091825260209091206006600790920201015460ff1660018111156104df576104df61227b565b146105525760405162461bcd60e51b815260206004820152603760248201527f43616e206f6e6c79207375626d69742061206275794f757420746f20616e206160448201527f63746976652061637469766520746178206f626a656374000000000000000000606482015260840161041b565b60006040518060a00160405280868152602001848152602001858152602001620d2f004261058091906123a0565b815260200160009052606a80546001808201835560009290925282517f116fea137db6e131133e7f2bab296045d8f41cc5607279db17b218cab0929a51600590920291820190815560208401517f116fea137db6e131133e7f2bab296045d8f41cc5607279db17b218cab0929a5283015560408401517f116fea137db6e131133e7f2bab296045d8f41cc5607279db17b218cab0929a5383015560608401517f116fea137db6e131133e7f2bab296045d8f41cc5607279db17b218cab0929a5483015560808401517f116fea137db6e131133e7f2bab296045d8f41cc5607279db17b218cab0929a55909201805494955085949193909160ff19169083600281111561068e5761068e61227b565b021790555050506106a3606880546001019055565b60006106ae60685490565b9050606986815481106106c3576106c3612374565b60009182526020808320600792909202909101600501805460018101825590835291200181905595945050505050565b606b602052816000526040600020818154811061039d57600080fd5b6000606461071e6005826123a0565b6069848154811061073157610731612374565b90600052602060002090600702016004015461074d91906123b8565b61075791906123ed565b92915050565b60008061076a8484612401565b9050600067d02ab486cedc00006001607f1b61078684896123b8565b61079091906123b8565b61079a91906123ed565b905060006001607f1b6107ac83610de7565b6107be90670de0b6b3a76400006123b8565b6107c891906123ed565b979650505050505050565b600054610100900460ff166107ee5760005460ff16156107f2565b303b155b6108645760405162461bcd60e51b815260206004820152602e60248201527f496e697469616c697a61626c653a20636f6e747261637420697320616c72656160448201527f647920696e697469616c697a6564000000000000000000000000000000000000606482015260840161041b565b600054610100900460ff16158015610886576000805461ffff19166101011790555b61088f82611f3f565b6066805473ffffffffffffffffffffffffffffffffffffffff19166001600160a01b03851617905580156108c9576000805461ff00191690555b505050565b600080606a83815481106108e4576108e4612374565b90600052602060002090600502016000015490506069818154811061090b5761090b612374565b906000526020600020906007020160000154915050919050565b6000606a828154811061093a5761093a612374565b9060005260206000209060050201600101549050919050565b6066546000906001600160a01b031661096a611f17565b6001600160a01b0316146109c05760405162461bcd60e51b815260206004820152601e60248201527f43616e206f6e6c792062652063616c6c65642062792072656769737472790000604482015260640161041b565b60008211610a1b5760405162461bcd60e51b815260206004820152602260248201527f56616c7565206e6565647320746f206265206c6172676572207468616e207a65604482015261726f60f01b606482015260840161041b565b6000838152606c602052604090205415610b175760016000848152606c60205260409020805460699190610a5190600190612401565b81548110610a6157610a61612374565b906000526020600020015481548110610a7c57610a7c612374565b600091825260209091206006600790920201015460ff166001811115610aa457610aa461227b565b14610b175760405162461bcd60e51b815260206004820152602e60248201527f43616e206f6e6c792063726561746520746178206f626a65637420696620707260448201527f6576696f7573207265766f6b6564000000000000000000000000000000000000606482015260840161041b565b606060006040518060e0016040528086815260200164046e07d0f681526020014281526020016000815260200185815260200183815260200160006001811115610b6357610b6361227b565b905260698054600181018255600091909152815160079091027f7fb4302e8e91f9110a6554c2c0a24601252c2a42c2220ca988efcfe39991430881019182556020808401517f7fb4302e8e91f9110a6554c2c0a24601252c2a42c2220ca988efcfe39991430983015560408401517f7fb4302e8e91f9110a6554c2c0a24601252c2a42c2220ca988efcfe39991430a83015560608401517f7fb4302e8e91f9110a6554c2c0a24601252c2a42c2220ca988efcfe39991430b83015560808401517f7fb4302e8e91f9110a6554c2c0a24601252c2a42c2220ca988efcfe39991430c83015560a084015180519495508594610c84937f7fb4302e8e91f9110a6554c2c0a24601252c2a42c2220ca988efcfe39991430d019291909101906120c5565b5060c082015160068201805460ff191660018381811115610ca757610ca761227b565b02179055505050610cbc606780546001019055565b6000610cc760675490565b6000878152606c6020908152604082208054600181018255908352912001819055935050505092915050565b6066546001600160a01b0316610d07611f17565b6001600160a01b031614610d5d5760405162461bcd60e51b815260206004820152601e60248201527f43616e206f6e6c792062652063616c6c65642062792072656769737472790000604482015260640161041b565b8060698381548110610d7157610d71612374565b9060005260206000209060070201600401819055505050565b60008060698381548110610da057610da0612374565b906000526020600020906007020190506000610dca82600401548360010154846002015442611eec565b90506000826004015482610dde9190612401565b95945050505050565b6000808080610dfa6001607c1b86612418565b91508190506001607f1b610e0e82806123b8565b610e1891906123ed565b9050610e2c816710e1b3be415a00006123b8565b610e3690846123a0565b92506001607f1b610e4783836123b8565b610e5191906123ed565b9050610e65816705a0913f6b1e00006123b8565b610e6f90846123a0565b92506001607f1b610e8083836123b8565b610e8a91906123ed565b9050610e9e81670168244fdac780006123b8565b610ea890846123a0565b92506001607f1b610eb983836123b8565b610ec391906123ed565b9050610ed681664807432bc180006123b8565b610ee090846123a0565b92506001607f1b610ef183836123b8565b610efb91906123ed565b9050610f0e81660c0135dca040006123b8565b610f1890846123a0565b92506001607f1b610f2983836123b8565b610f3391906123ed565b9050610f46816601b707b1cdc0006123b8565b610f5090846123a0565b92506001607f1b610f6183836123b8565b610f6b91906123ed565b9050610f7d816536e0f639b8006123b8565b610f8790846123a0565b92506001607f1b610f9883836123b8565b610fa291906123ed565b9050610fb481650618fee9f8006123b8565b610fbe90846123a0565b92506001607f1b610fcf83836123b8565b610fd991906123ed565b9050610fea81649c197dcc006123b8565b610ff490846123a0565b92506001607f1b61100583836123b8565b61100f91906123ed565b905061102081640e30dce4006123b8565b61102a90846123a0565b92506001607f1b61103b83836123b8565b61104591906123ed565b90506110568164012ebd13006123b8565b61106090846123a0565b92506001607f1b61107183836123b8565b61107b91906123ed565b905061108b816317499f006123b8565b61109590846123a0565b92506001607f1b6110a683836123b8565b6110b091906123ed565b90506110c0816301a9d4806123b8565b6110ca90846123a0565b92506001607f1b6110db83836123b8565b6110e591906123ed565b90506110f481621c63806123b8565b6110fe90846123a0565b92506001607f1b61110f83836123b8565b61111991906123ed565b9050611128816201c6386123b8565b61113290846123a0565b92506001607f1b61114383836123b8565b61114d91906123ed565b905061115b81611ab86123b8565b61116590846123a0565b92506001607f1b61117683836123b8565b61118091906123ed565b905061118e8161017c6123b8565b61119890846123a0565b92506001607f1b6111a983836123b8565b6111b391906123ed565b90506111c08160146123b8565b6111ca90846123a0565b92506001607f1b6111db83836123b8565b6111e591906123ed565b90506111f28160016123b8565b6111fc90846123a0565b92506001607f1b826112166721c3677c82b40000866123ed565b61122091906123a0565b61122a91906123a0565b92506001607c1b8516156112725770018ebef9eac820ae8682b9793ac6d1e776611265847001c3d6a24ed82218787d624d3e5eba95f96123b8565b61126f91906123ed565b92505b6f200000000000000000000000000000008516156112c4577001368b2fc6f9609fe7aceb46aa619baed46112b78470018ebef9eac820ae8682b9793ac6d1e7786123b8565b6112c191906123ed565b92505b6f40000000000000000000000000000000851615611315576fbc5ab1b16779be3575bd8f0520a9f21f611308847001368b2fc6f9609fe7aceb46aa619baed56123b8565b61131291906123ed565b92505b6001607f1b851615611359576f454aaa8efe072e7f6ddbab84b40a55c961134c846fbc5ab1b16779be3575bd8f0520a9f21e6123b8565b61135691906123ed565b92505b7001000000000000000000000000000000008516156113aa576f0960aadc109e7a3bf4578099615711ea61139d846f454aaa8efe072e7f6ddbab84b40a55c56123b8565b6113a791906123ed565b92505b7002000000000000000000000000000000008516156113fa576e2bf84208204f5977f9a8cf01fdce3d6113ed846f0960aadc109e7a3bf4578099615711d76123b8565b6113f791906123ed565b92505b700400000000000000000000000000000000851615611448576d03c6ab775dd0b95b4cbee7e65d1161143b846e2bf84208204f5977f9a8cf01fdc3076123b8565b61144591906123ed565b92505b50909392505050565b6000818152606c602052604081205460018110156114c15760405162461bcd60e51b815260206004820152602760248201527f5468657265206973206e6f20746178206f626a65637420666f722074686973206044820152666c6963656e636560c81b606482015260840161041b565b6000838152606c602052604090206114da600183612401565b815481106114ea576114ea612374565b9060005260206000200154915050919050565b600080600080600080606a878154811061151957611519612374565b90600052602060002090600502016040518060a0016040529081600082015481526020016001820154815260200160028201548152602001600382015481526020016004820160009054906101000a900460ff16600281111561157e5761157e61227b565b600281111561158f5761158f61227b565b8152505090508060000151816020015182604001518360600151846080015160028111156115bf576115bf61227b565b939b929a50909850965090945092505050565b6066546001600160a01b03166115e6611f17565b6001600160a01b03161461163c5760405162461bcd60e51b815260206004820152601e60248201527f43616e206f6e6c792062652063616c6c65642062792072656769737472790000604482015260640161041b565b60016069828154811061165157611651612374565b60009182526020909120600660079092020101805460ff19166001838181111561167d5761167d61227b565b021790555050565b6066546001600160a01b0316611699611f17565b6001600160a01b0316146116ef5760405162461bcd60e51b815260206004820152601e60248201527f43616e206f6e6c792062652063616c6c65642062792072656769737472790000604482015260640161041b565b426069828154811061170357611703612374565b90600052602060002090600702016002018190555050565b6066546000906001600160a01b0316611732611f17565b6001600160a01b0316146117885760405162461bcd60e51b815260206004820152601e60248201527f43616e206f6e6c792062652063616c6c65642062792072656769737472790000604482015260640161041b565b6000606a838154811061179d5761179d612374565b90600052602060002090600502016040518060a0016040529081600082015481526020016001820154815260200160028201548152602001600382015481526020016004820160009054906101000a900460ff1660028111156118025761180261227b565b60028111156118135761181361227b565b90525090506000816080015160028111156118305761183061227b565b146118935760405162461bcd60e51b815260206004820152602d60248201527f43616e206f6e6c792066696e616c697a65206275794f7574206966206275794f60448201526c75742069732070656e64696e6760981b606482015260840161041b565b4281606001511061190c5760405162461bcd60e51b815260206004820152603a60248201527f63616e206f6e6c792066696e616c697a65206275794f7574206966206974206960448201527f732070617374207468652065787069726174696f6e2074696d65000000000000606482015260840161041b565b80516119179061070f565b81604001511015611972576002606a848154811061193757611937612374565b60009182526020909120600460059092020101805460ff191660018360028111156119645761196461227b565b021790555060009392505050565b6001606a848154811061198757611987612374565b60009182526020909120600460059092020101805460ff191660018360028111156119b4576119b461227b565b0217905550806040015160698260000151815481106119d5576119d5612374565b90600052602060002090600702016004018190555060016069826000015181548110611a0357611a03612374565b90600052602060002090600702016003016000828254611a2391906123a0565b90915550508051606980544292908110611a3f57611a3f612374565b90600052602060002090600702016002018190555060019150505b919050565b6000806000806000606060008060698981548110611a7f57611a7f612374565b90600052602060002090600702016040518060e0016040529081600082015481526020016001820154815260200160028201548152602001600382015481526020016004820154815260200160058201805480602002602001604051908101604052809291908181526020018280548015611b1957602002820191906000526020600020905b815481526020019060010190808311611b05575b5050509183525050600682015460209091019060ff166001811115611b4057611b4061227b565b6001811115611b5157611b5161227b565b815250509050806000015181602001518260400151836060015184608001518560a001518660c001516001811115611b8b57611b8b61227b565b959f949e50929c50909a509850965090945092505050565b6000818152606c602052604090205460609081908190819081908067ffffffffffffffff811115611bd657611bd661242c565b604051908082528060200260200182016040528015611bff578160200160208202803683370190505b5095508067ffffffffffffffff811115611c1b57611c1b61242c565b604051908082528060200260200182016040528015611c44578160200160208202803683370190505b5094508067ffffffffffffffff811115611c6057611c6061242c565b604051908082528060200260200182016040528015611c89578160200160208202803683370190505b5093508067ffffffffffffffff811115611ca557611ca561242c565b604051908082528060200260200182016040528015611cce578160200160208202803683370190505b5092508067ffffffffffffffff811115611cea57611cea61242c565b604051908082528060200260200182016040528015611d13578160200160208202803683370190505b50915060005b81811015611ee1576000888152606c60205260408120805483908110611d4157611d41612374565b90600052602060002001549050606a8181548110611d6157611d61612374565b906000526020600020906005020160000154888381518110611d8557611d85612374565b602002602001018181525050606a8181548110611da457611da4612374565b906000526020600020906005020160010154878381518110611dc857611dc8612374565b602002602001018181525050606a8181548110611de757611de7612374565b906000526020600020906005020160020154868381518110611e0b57611e0b612374565b602002602001018181525050606a8181548110611e2a57611e2a612374565b906000526020600020906005020160030154858381518110611e4e57611e4e612374565b602002602001018181525050606a8181548110611e6d57611e6d612374565b906000526020600020906005020160040160009054906101000a900460ff16848381518110611e9e57611e9e612374565b60200260200101906002811115611eb757611eb761227b565b90816002811115611eca57611eca61227b565b905250819050611ed981612442565b915050611d19565b505091939590929450565b6000670de0b6b3a764000085611f0386868661075d565b611f0d91906123b8565b610dde91906123ed565b6033546000906001600160a01b0316331415611f3a575060131936013560601c90565b503390565b600054610100900460ff16611faa5760405162461bcd60e51b815260206004820152602b60248201527f496e697469616c697a61626c653a20636f6e7472616374206973206e6f74206960448201526a6e697469616c697a696e6760a81b606482015260840161041b565b611fb2611fbe565b611fbb8161202b565b50565b600054610100900460ff166120295760405162461bcd60e51b815260206004820152602b60248201527f496e697469616c697a61626c653a20636f6e7472616374206973206e6f74206960448201526a6e697469616c697a696e6760a81b606482015260840161041b565b565b600054610100900460ff166120965760405162461bcd60e51b815260206004820152602b60248201527f496e697469616c697a61626c653a20636f6e7472616374206973206e6f74206960448201526a6e697469616c697a696e6760a81b606482015260840161041b565b6033805473ffffffffffffffffffffffffffffffffffffffff19166001600160a01b0392909216919091179055565b828054828255906000526020600020908101928215612100579160200282015b828111156121005782518255916020019190600101906120e5565b5061210c929150612110565b5090565b5b8082111561210c5760008155600101612111565b6000806040838503121561213857600080fd5b50508035926020909101359150565b60008060006060848603121561215c57600080fd5b505081359360208301359350604090920135919050565b60006020828403121561218557600080fd5b5035919050565b80356001600160a01b0381168114611a5a57600080fd5b600080604083850312156121b657600080fd5b6121bf8361218c565b91506121cd6020840161218c565b90509250929050565b6000602082840312156121e857600080fd5b6121f18261218c565b9392505050565b600081518084526020808501945080840160005b838110156122285781518752958201959082019060010161220c565b509495945050505050565b87815286602082015285604082015284606082015283608082015260e060a0820152600061226460e08301856121f8565b905060ff831660c083015298975050505050505050565b634e487b7160e01b600052602160045260246000fd5b60a0815260006122a460a08301886121f8565b6020838203818501526122b782896121f8565b915083820360408501526122cb82886121f8565b915083820360608501526122df82876121f8565b848103608086015285518082528287019350908201906000805b828110156123315785516003811061231f57634e487b7160e01b83526021600452602483fd5b845294840194928401926001016122f9565b50919b9a5050505050505050505050565b6000806000806080858703121561235857600080fd5b5050823594602084013594506040840135936060013592509050565b634e487b7160e01b600052603260045260246000fd5b634e487b7160e01b600052601160045260246000fd5b600082198211156123b3576123b361238a565b500190565b60008160001904831182151516156123d2576123d261238a565b500290565b634e487b7160e01b600052601260045260246000fd5b6000826123fc576123fc6123d7565b500490565b6000828210156124135761241361238a565b500390565b600082612427576124276123d7565b500690565b634e487b7160e01b600052604160045260246000fd5b60006000198214156124565761245661238a565b506001019056fea2646970667358221220dd028964926a1cd32697250c07214111f9856272abb26260c12e5071261f7b3664736f6c634300080c0033",
  "immutableReferences": {},
  "source": "// SPDX-License-Identifier: MIT\n\npragma solidity ^0.8.12;\n\nimport \"@openzeppelin/contracts-upgradeable/proxy/utils/Initializable.sol\";\nimport \"@openzeppelin/contracts-upgradeable/utils/CountersUpgradeable.sol\";\nimport \"./patches/ERC2771ContextUpgradeable.sol\";\nimport \"./interfaces/IHarbergerTaxManager.sol\";\n\ncontract HarbergerTaxManager is Initializable, IHarbergerTaxManager, ERC2771ContextUpgradeable {\n    uint256 private constant FIXED_1 = 0x080000000000000000000000000000000;\n    //percentage increase over previous price that must be paid to buy Out the licence\n    uint256 constant MIN_BUYOUT_PRICE_INCREASE = 5;\n    //a buyOut has an expiratory of 10 days for the owner to raize the price or loose the licence\n    uint256 constant BUYOUT_TIMEOUT = 60 * 60 * 24 * 10;\n    // 4% compounding per block, scaled 1e18\n    uint256 constant FIXED_INTEREST_RATE_PER_BLOCK = 19025875190;\n\n    using CountersUpgradeable for CountersUpgradeable.Counter;\n\n    address registry;\n\n    modifier onlyRegistry() {\n        require(_msgSender() == registry, \"Can only be called by registry\");\n        _;\n    }\n\n    CountersUpgradeable.Counter _taxObjectIds;\n    CountersUpgradeable.Counter _buyoutIds;\n\n    enum TaxObjectStatus { Active, Revoked }\n\n    struct TaxObject {\n        uint256 licenceId;\n        uint256 ratePerBlock;\n        uint256 lastPayment;\n        uint256 numberOfOutBids;\n        uint256 currentAssignedValue;\n        uint256[] buyOutIds;\n        TaxObjectStatus status;\n    }\n\n    TaxObject[] taxObjects;\n\n    struct BuyOut {\n        uint256 taxObjectId;\n        uint256 buyOutOwnerId;\n        uint256 buyOutAmount;\n        uint256 buyOutExpiration;\n        BuyOutStatus status;\n    }\n\n    BuyOut[] buyOuts;\n\n    mapping(uint256 => uint256[]) public buyOutOwners;\n    mapping(uint256 => uint256[]) public licenceTaxObjects;\n\n    function initialize(address _registry, address _trustedForwarder) public initializer {\n        __ERC2771Context_init(_trustedForwarder);\n\n        registry = _registry;\n    }\n\n    /** @notice Creates a new Harberger Tax associated with a given licence\n        @param _licenceId The licence with which to associate this tax\n        @param _currentAssignedValue The current Harberger Tax valuation of the licence\n        @return taxObjectId The ID of the newly created tax object\n     */\n    function createTaxObject(\n        uint256 _licenceId,\n        // uint256 _ratePerBlock,\n        uint256 _currentAssignedValue\n    ) public onlyRegistry returns (uint256) {\n        require(_currentAssignedValue > 0, \"Value needs to be larger than zero\");\n\n        //if there were previous tax objects then they must have been revoked\n        if (licenceTaxObjects[_licenceId].length > 0) {\n            require(\n                taxObjects[licenceTaxObjects[_licenceId][licenceTaxObjects[_licenceId].length - 1]].status ==\n                    TaxObjectStatus.Revoked,\n                \"Can only create tax object if previous revoked\"\n            );\n        }\n\n        uint256[] memory buyOutIds;\n\n        TaxObject memory taxObject = TaxObject(\n            _licenceId,\n            FIXED_INTEREST_RATE_PER_BLOCK,\n            block.timestamp,\n            0,\n            _currentAssignedValue,\n            buyOutIds,\n            TaxObjectStatus.Active\n        );\n\n        taxObjects.push(taxObject);\n        _taxObjectIds.increment();\n        uint256 taxObjectId = _taxObjectIds.current();\n\n        licenceTaxObjects[_licenceId].push(taxObjectId);\n\n        return taxObjectId;\n    }\n\n    /** @notice Calculates the amount of Harberger tax due on a licence\n        @param _taxObjectId The valuation object on which the tax is to be calculated\n        @return interestOutstanding The tax amount due\n     */\n    function calculateOutstandingTax(uint256 _taxObjectId) public view returns (uint256) {\n        TaxObject storage taxObject = taxObjects[_taxObjectId]; /*memory*/\n\n        uint256 _futureValue = futureValue(\n            taxObject.currentAssignedValue,\n            taxObject.ratePerBlock,\n            taxObject.lastPayment,\n            block.timestamp\n        );\n\n        uint256 interestOutstanding = _futureValue - taxObject.currentAssignedValue;\n        return interestOutstanding;\n    }\n\n    function calculateMinBuyOutPrice(uint256 _taxObjectId) public view returns (uint256) {\n        return (taxObjects[_taxObjectId].currentAssignedValue * (100 + MIN_BUYOUT_PRICE_INCREASE)) / 100;\n    }\n\n    function _updateTaxObjectLastPayment(uint256 _taxObjectId) public onlyRegistry {\n        taxObjects[_taxObjectId].lastPayment = block.timestamp;\n    }\n\n    /** @notice Updates the valuation associated with the current Harberger Tax\n        @param _taxObjectId ID of the Tax object\n        @param _assignedValue The new value to be used for taxing this licence\n     */\n    function _updateTaxObjectValuation(uint256 _taxObjectId, uint256 _assignedValue) public onlyRegistry {\n        taxObjects[_taxObjectId].currentAssignedValue = _assignedValue;\n    }\n\n    /** @notice Issue a bid to buy out a licence under Harberger Tax rules\n        @param _offer The buyout amount - must be greater the minimum buyout amount based on current valuation\n        @param _buyOutOwnerId The ID of the entity making the buyout offer.\n        @return buyOutId The ID of the newly created buyout offer\n     */\n    function submitBuyOut(uint256 _taxObjectId, uint256 _offer, uint256 _buyOutOwnerId)\n        public\n        onlyRegistry\n        returns (uint256)\n    {\n        require(_offer >= calculateMinBuyOutPrice(_taxObjectId), \"Value sent is less than the minimum buyOut price\");\n\n        require(\n            taxObjects[_taxObjectId].status == TaxObjectStatus.Active,\n            \"Can only submit a buyOut to an active active tax object\"\n        );\n\n        BuyOut memory buyOut = BuyOut(\n            _taxObjectId,\n            _buyOutOwnerId,\n            _offer,\n            block.timestamp + BUYOUT_TIMEOUT,\n            BuyOutStatus.Pending\n        );\n\n        buyOuts.push(buyOut);\n        _buyoutIds.increment();\n        uint256 buyOutId = _buyoutIds.current();\n\n        taxObjects[_taxObjectId].buyOutIds.push(buyOutId);\n\n        return buyOutId;\n    }\n\n    /** @notice Called by the Unicoin registry to perform the finalisation steps of a buy out\n        @param _buyOutId The ID of the buyout being finalised\n        @return success Returns true if the buyout was successful\n        @dev Only valid for Pending buyouts, and where the buyout outbidding window has closed.\n     */\n    function finalizeBuyOutOffer(uint256 _buyOutId) public onlyRegistry returns (bool) {\n        BuyOut memory buyOut = buyOuts[_buyOutId];\n        require(buyOut.status == BuyOutStatus.Pending, \"Can only finalize buyOut if buyOut is pending\");\n        require(\n            buyOut.buyOutExpiration < block.timestamp,\n            \"can only finalize buyOut if it is past the expiration time\"\n        );\n\n        if (buyOut.buyOutAmount < calculateMinBuyOutPrice(buyOut.taxObjectId)) {\n            buyOuts[_buyOutId].status = BuyOutStatus.OutBid;\n\n            return false; //the buyOut was not enough and so failed\n        }\n\n        buyOuts[_buyOutId].status = BuyOutStatus.Successful;\n        taxObjects[buyOut.taxObjectId].currentAssignedValue = buyOut.buyOutAmount;\n        taxObjects[buyOut.taxObjectId].numberOfOutBids += 1;\n        taxObjects[buyOut.taxObjectId].lastPayment = block.timestamp;\n\n        return true;\n    }\n\n    function revokeTaxObject(uint256 _taxObjectId) public onlyRegistry {\n        taxObjects[_taxObjectId].status = TaxObjectStatus.Revoked;\n    }\n\n    function getLicenceTaxObjectId(uint256 _licenceId) public view returns (uint256) {\n        uint256 numOfTaxObjects = licenceTaxObjects[_licenceId].length;\n        require(numOfTaxObjects >= 1, \"There is no tax object for this licence\");\n        return licenceTaxObjects[_licenceId][numOfTaxObjects - 1];\n    }\n\n    function getTaxObject(uint256 _taxObjectId)\n        public\n        view\n        returns (uint256, uint256, uint256, uint256, uint256, uint256[] memory, uint8)\n    {\n        TaxObject memory taxObject = taxObjects[_taxObjectId];\n\n        return (\n            taxObject.licenceId,\n            taxObject.ratePerBlock,\n            taxObject.lastPayment,\n            taxObject.numberOfOutBids,\n            taxObject.currentAssignedValue,\n            taxObject.buyOutIds,\n            uint8(taxObject.status)\n        );\n    }\n\n    // taxObject_Id;\n    //     uint256 buyOutOwner_Id;\n    //     uint256 buyOutAmount;\n    //     uint256 buyOutExpiration;\n    //     BuyOutStatus status;\n\n    function getBuyOut(uint256 _buyOutId) public view returns (uint256, uint256, uint256, uint256, uint8) {\n        BuyOut memory buyOut = buyOuts[_buyOutId];\n        return (\n            buyOut.taxObjectId,\n            buyOut.buyOutOwnerId,\n            buyOut.buyOutAmount,\n            buyOut.buyOutExpiration,\n            uint8(buyOut.status)\n        );\n    }\n\n    function getBuyOutLicenceId(uint256 _buyOutId) public view returns (uint256) {\n        uint256 taxObject_Id = buyOuts[_buyOutId].taxObjectId;\n        return taxObjects[taxObject_Id].licenceId;\n    }\n\n    function getBuyOutOwnerId(uint256 _buyOutId) public view returns (uint256) {\n        return buyOuts[_buyOutId].buyOutOwnerId;\n    }\n\n    function getTaxObjectLength() public view returns (uint256) {\n        return taxObjects.length;\n    }\n\n    /** @notice Provides details of all buyouts that have been made on this licence\n        @param _licenceId The ID of the license being queried\n        @return taxObjectId_ Array of IDs of tax objects associated with each buyout\n        @return buyOutOwnerId_ Array of IDs of issuers of each buyout\n        @return buyOutAmount_ The amount at which each buyout was bid\n        @return buyOutExpiration_ The time at which each buyout became final\n        @return status_ The status of each buyout\n    */\n    function getLicenceBuyOuts(uint256 _licenceId)\n        public\n        view\n        returns (\n            uint256[] memory taxObjectId_,\n            uint256[] memory buyOutOwnerId_,\n            uint256[] memory buyOutAmount_,\n            uint256[] memory buyOutExpiration_,\n            BuyOutStatus[] memory status_\n        )\n    {\n        uint256 numberOfBuyOuts = licenceTaxObjects[_licenceId].length;\n\n        taxObjectId_ = new uint256[](numberOfBuyOuts);\n        buyOutOwnerId_ = new uint256[](numberOfBuyOuts);\n        buyOutAmount_ = new uint256[](numberOfBuyOuts);\n        buyOutExpiration_ = new uint256[](numberOfBuyOuts);\n        status_ = new BuyOutStatus[](numberOfBuyOuts);\n\n        for (uint256 i = 0; i < numberOfBuyOuts; i++) {\n            uint256 buyOutId = licenceTaxObjects[_licenceId][i];\n            taxObjectId_[i] = buyOuts[buyOutId].taxObjectId;\n            buyOutOwnerId_[i] = buyOuts[buyOutId].buyOutOwnerId;\n            buyOutAmount_[i] = buyOuts[buyOutId].buyOutAmount;\n            buyOutExpiration_[i] = buyOuts[buyOutId].buyOutExpiration;\n            status_[i] = buyOuts[buyOutId].status;\n        }\n\n        return (taxObjectId_, buyOutOwnerId_, buyOutAmount_, buyOutExpiration_, status_);\n    }\n\n    /**\n      * @dev computes e ^ (x / FIXED_1) * FIXED_1\n      * input range: 0 <= x <= OPT_EXP_MAX_VAL - 1\n      * Detailed description:\n      * - Rewrite the input as a sum of binary exponents and a single residual r, as small as possible\n      * - The exponentiation of each binary exponent is given (pre-calculated)\n      * - The exponentiation of r is calculated via Taylor series for e^x, where x = r\n      * - The exponentiation of the input is calculated by multiplying the intermediate results above\n      * - For example: e^5.521692859 = e^(4 + 1 + 0.5 + 0.021692859) = e^4 * e^1 * e^0.5 * e^0.021692859\n    */\n    function optimalExp(uint256 x) public pure returns (uint256) {\n        uint256 res = 0;\n\n        uint256 y;\n        uint256 z;\n\n        z = y = x % 0x10000000000000000000000000000000; // get the input modulo 2^(-3)\n        z = (z * y) / FIXED_1;\n        res += z * 0x10e1b3be415a0000; // add y^02 * (20! / 02!)\n        z = (z * y) / FIXED_1;\n        res += z * 0x05a0913f6b1e0000; // add y^03 * (20! / 03!)\n        z = (z * y) / FIXED_1;\n        res += z * 0x0168244fdac78000; // add y^04 * (20! / 04!)\n        z = (z * y) / FIXED_1;\n        res += z * 0x004807432bc18000; // add y^05 * (20! / 05!)\n        z = (z * y) / FIXED_1;\n        res += z * 0x000c0135dca04000; // add y^06 * (20! / 06!)\n        z = (z * y) / FIXED_1;\n        res += z * 0x0001b707b1cdc000; // add y^07 * (20! / 07!)\n        z = (z * y) / FIXED_1;\n        res += z * 0x000036e0f639b800; // add y^08 * (20! / 08!)\n        z = (z * y) / FIXED_1;\n        res += z * 0x00000618fee9f800; // add y^09 * (20! / 09!)\n        z = (z * y) / FIXED_1;\n        res += z * 0x0000009c197dcc00; // add y^10 * (20! / 10!)\n        z = (z * y) / FIXED_1;\n        res += z * 0x0000000e30dce400; // add y^11 * (20! / 11!)\n        z = (z * y) / FIXED_1;\n        res += z * 0x000000012ebd1300; // add y^12 * (20! / 12!)\n        z = (z * y) / FIXED_1;\n        res += z * 0x0000000017499f00; // add y^13 * (20! / 13!)\n        z = (z * y) / FIXED_1;\n        res += z * 0x0000000001a9d480; // add y^14 * (20! / 14!)\n        z = (z * y) / FIXED_1;\n        res += z * 0x00000000001c6380; // add y^15 * (20! / 15!)\n        z = (z * y) / FIXED_1;\n        res += z * 0x000000000001c638; // add y^16 * (20! / 16!)\n        z = (z * y) / FIXED_1;\n        res += z * 0x0000000000001ab8; // add y^17 * (20! / 17!)\n        z = (z * y) / FIXED_1;\n        res += z * 0x000000000000017c; // add y^18 * (20! / 18!)\n        z = (z * y) / FIXED_1;\n        res += z * 0x0000000000000014; // add y^19 * (20! / 19!)\n        z = (z * y) / FIXED_1;\n        res += z * 0x0000000000000001; // add y^20 * (20! / 20!)\n        res = res / 0x21c3677c82b40000 + y + FIXED_1; // divide by 20! and then add y^1 / 1! + y^0 / 0!\n\n        if ((x & 0x010000000000000000000000000000000) != 0)\n            res = (res * 0x1c3d6a24ed82218787d624d3e5eba95f9) / 0x18ebef9eac820ae8682b9793ac6d1e776; // multiply by e^2^(-3)\n        if ((x & 0x020000000000000000000000000000000) != 0)\n            res = (res * 0x18ebef9eac820ae8682b9793ac6d1e778) / 0x1368b2fc6f9609fe7aceb46aa619baed4; // multiply by e^2^(-2)\n        if ((x & 0x040000000000000000000000000000000) != 0)\n            res = (res * 0x1368b2fc6f9609fe7aceb46aa619baed5) / 0x0bc5ab1b16779be3575bd8f0520a9f21f; // multiply by e^2^(-1)\n        if ((x & 0x080000000000000000000000000000000) != 0)\n            res = (res * 0x0bc5ab1b16779be3575bd8f0520a9f21e) / 0x0454aaa8efe072e7f6ddbab84b40a55c9; // multiply by e^2^(+0)\n        if ((x & 0x100000000000000000000000000000000) != 0)\n            res = (res * 0x0454aaa8efe072e7f6ddbab84b40a55c5) / 0x00960aadc109e7a3bf4578099615711ea; // multiply by e^2^(+1)\n        if ((x & 0x200000000000000000000000000000000) != 0)\n            res = (res * 0x00960aadc109e7a3bf4578099615711d7) / 0x0002bf84208204f5977f9a8cf01fdce3d; // multiply by e^2^(+2)\n        if ((x & 0x400000000000000000000000000000000) != 0)\n            res = (res * 0x0002bf84208204f5977f9a8cf01fdc307) / 0x0000003c6ab775dd0b95b4cbee7e65d11; // multiply by e^2^(+3)\n\n        return res;\n    }\n\n    function capFunction(uint256 r, uint256 t1, uint256 t2) public pure returns (uint256) {\n        uint256 t = t2 - t1;\n        uint256 x = (r * t * FIXED_1) / (15 * 10**18);\n        uint256 c = (optimalExp(x) * 10**18) / FIXED_1;\n        return c;\n    }\n\n    function futureValue(uint256 N, uint256 r, uint256 t1, uint256 t2) public pure returns (uint256) {\n        return (capFunction(r, t1, t2) * N) / 10**18;\n    }\n}\n",
  "sourcePath": "/home/azureuser/unicoin/unicoin2.0/contracts/HarbergerTaxManager.sol",
  "compiler": {
    "name": "solc",
    "version": "0.8.12+commit.f00d7308.Emscripten.clang"
  },
  "schemaVersion": "3.4.6",
  "updatedAt": "2022-03-16T11:23:44.717Z",
  "devdoc": {
    "kind": "dev",
    "methods": {
      "_updateTaxObjectValuation(uint256,uint256)": {
        "params": {
          "_assignedValue": "The new value to be used for taxing this licence",
          "_taxObjectId": "ID of the Tax object"
        }
      },
      "calculateOutstandingTax(uint256)": {
        "params": {
          "_taxObjectId": "The valuation object on which the tax is to be calculated"
        },
        "returns": {
          "_0": "interestOutstanding The tax amount due"
        }
      },
      "createTaxObject(uint256,uint256)": {
        "params": {
          "_currentAssignedValue": "The current Harberger Tax valuation of the licence",
          "_licenceId": "The licence with which to associate this tax"
        },
        "returns": {
          "_0": "taxObjectId The ID of the newly created tax object"
        }
      },
      "finalizeBuyOutOffer(uint256)": {
        "details": "Only valid for Pending buyouts, and where the buyout outbidding window has closed.",
        "params": {
          "_buyOutId": "The ID of the buyout being finalised"
        },
        "returns": {
          "_0": "success Returns true if the buyout was successful"
        }
      },
      "getLicenceBuyOuts(uint256)": {
        "params": {
          "_licenceId": "The ID of the license being queried"
        },
        "returns": {
          "buyOutAmount_": "The amount at which each buyout was bid",
          "buyOutExpiration_": "The time at which each buyout became final",
          "buyOutOwnerId_": "Array of IDs of issuers of each buyout",
          "status_": "The status of each buyout",
          "taxObjectId_": "Array of IDs of tax objects associated with each buyout"
        }
      },
      "optimalExp(uint256)": {
        "details": "computes e ^ (x / FIXED_1) * FIXED_1 input range: 0 <= x <= OPT_EXP_MAX_VAL - 1 Detailed description: - Rewrite the input as a sum of binary exponents and a single residual r, as small as possible - The exponentiation of each binary exponent is given (pre-calculated) - The exponentiation of r is calculated via Taylor series for e^x, where x = r - The exponentiation of the input is calculated by multiplying the intermediate results above - For example: e^5.521692859 = e^(4 + 1 + 0.5 + 0.021692859) = e^4 * e^1 * e^0.5 * e^0.021692859"
      },
      "submitBuyOut(uint256,uint256,uint256)": {
        "params": {
          "_buyOutOwnerId": "The ID of the entity making the buyout offer.",
          "_offer": "The buyout amount - must be greater the minimum buyout amount based on current valuation"
        },
        "returns": {
          "_0": "buyOutId The ID of the newly created buyout offer"
        }
      }
    },
    "version": 1
  },
  "userdoc": {
    "kind": "user",
    "methods": {
      "_updateTaxObjectValuation(uint256,uint256)": {
        "notice": "Updates the valuation associated with the current Harberger Tax"
      },
      "calculateOutstandingTax(uint256)": {
        "notice": "Calculates the amount of Harberger tax due on a licence"
      },
      "createTaxObject(uint256,uint256)": {
        "notice": "Creates a new Harberger Tax associated with a given licence"
      },
      "finalizeBuyOutOffer(uint256)": {
        "notice": "Called by the Unicoin registry to perform the finalisation steps of a buy out"
      },
      "getLicenceBuyOuts(uint256)": {
        "notice": "Provides details of all buyouts that have been made on this licence"
      },
      "submitBuyOut(uint256,uint256,uint256)": {
        "notice": "Issue a bid to buy out a licence under Harberger Tax rules"
      }
    },
    "version": 1
  }
}