{
  "contractName": "HarbergerTaxManager",
  "abi": [
    {
      "constant": true,
      "inputs": [
        {
          "internalType": "uint256",
          "name": "",
          "type": "uint256"
        },
        {
          "internalType": "uint256",
          "name": "",
          "type": "uint256"
        }
      ],
      "name": "buyOutOwners",
      "outputs": [
        {
          "internalType": "uint256",
          "name": "",
          "type": "uint256"
        }
      ],
      "payable": false,
      "stateMutability": "view",
      "type": "function"
    },
    {
      "constant": true,
      "inputs": [
        {
          "internalType": "uint256",
          "name": "",
          "type": "uint256"
        },
        {
          "internalType": "uint256",
          "name": "",
          "type": "uint256"
        }
      ],
      "name": "licenceTaxObjects",
      "outputs": [
        {
          "internalType": "uint256",
          "name": "",
          "type": "uint256"
        }
      ],
      "payable": false,
      "stateMutability": "view",
      "type": "function"
    },
    {
      "constant": false,
      "inputs": [
        {
          "internalType": "address",
          "name": "_unicoinRegistry",
          "type": "address"
        }
      ],
      "name": "initialize",
      "outputs": [],
      "payable": false,
      "stateMutability": "nonpayable",
      "type": "function"
    },
    {
      "constant": false,
      "inputs": [
        {
          "internalType": "uint256",
          "name": "_licence_Id",
          "type": "uint256"
        },
        {
          "internalType": "uint256",
          "name": "_currentAssignedValue",
          "type": "uint256"
        }
      ],
      "name": "createTaxObject",
      "outputs": [
        {
          "internalType": "uint256",
          "name": "",
          "type": "uint256"
        }
      ],
      "payable": false,
      "stateMutability": "nonpayable",
      "type": "function"
    },
    {
      "constant": true,
      "inputs": [
        {
          "internalType": "uint256",
          "name": "_taxObject_Id",
          "type": "uint256"
        }
      ],
      "name": "calculateOutstandingTax",
      "outputs": [
        {
          "internalType": "uint256",
          "name": "",
          "type": "uint256"
        }
      ],
      "payable": false,
      "stateMutability": "view",
      "type": "function"
    },
    {
      "constant": true,
      "inputs": [
        {
          "internalType": "uint256",
          "name": "_taxObject_Id",
          "type": "uint256"
        }
      ],
      "name": "calculateMinBuyOutPrice",
      "outputs": [
        {
          "internalType": "uint256",
          "name": "",
          "type": "uint256"
        }
      ],
      "payable": false,
      "stateMutability": "view",
      "type": "function"
    },
    {
      "constant": false,
      "inputs": [
        {
          "internalType": "uint256",
          "name": "_taxObject_Id",
          "type": "uint256"
        }
      ],
      "name": "_updateTaxObjectLastPayment",
      "outputs": [],
      "payable": false,
      "stateMutability": "nonpayable",
      "type": "function"
    },
    {
      "constant": false,
      "inputs": [
        {
          "internalType": "uint256",
          "name": "_taxObject_Id",
          "type": "uint256"
        },
        {
          "internalType": "uint256",
          "name": "_assignedValue",
          "type": "uint256"
        }
      ],
      "name": "_updateTaxObjectValuation",
      "outputs": [],
      "payable": false,
      "stateMutability": "nonpayable",
      "type": "function"
    },
    {
      "constant": false,
      "inputs": [
        {
          "internalType": "uint256",
          "name": "_taxObject_Id",
          "type": "uint256"
        },
        {
          "internalType": "uint256",
          "name": "_offer",
          "type": "uint256"
        },
        {
          "internalType": "uint256",
          "name": "_buyOutOwner_Id",
          "type": "uint256"
        }
      ],
      "name": "submitBuyOut",
      "outputs": [
        {
          "internalType": "uint256",
          "name": "",
          "type": "uint256"
        }
      ],
      "payable": false,
      "stateMutability": "nonpayable",
      "type": "function"
    },
    {
      "constant": false,
      "inputs": [
        {
          "internalType": "uint256",
          "name": "_buyOut_Id",
          "type": "uint256"
        }
      ],
      "name": "finalizeBuyOutOffer",
      "outputs": [
        {
          "internalType": "bool",
          "name": "",
          "type": "bool"
        }
      ],
      "payable": false,
      "stateMutability": "nonpayable",
      "type": "function"
    },
    {
      "constant": false,
      "inputs": [
        {
          "internalType": "uint256",
          "name": "_taxObject_Id",
          "type": "uint256"
        }
      ],
      "name": "revokeTaxObject",
      "outputs": [],
      "payable": false,
      "stateMutability": "nonpayable",
      "type": "function"
    },
    {
      "constant": true,
      "inputs": [
        {
          "internalType": "uint256",
          "name": "_licence_Id",
          "type": "uint256"
        }
      ],
      "name": "getLicenceTaxObjectId",
      "outputs": [
        {
          "internalType": "uint256",
          "name": "",
          "type": "uint256"
        }
      ],
      "payable": false,
      "stateMutability": "view",
      "type": "function"
    },
    {
      "constant": true,
      "inputs": [
        {
          "internalType": "uint256",
          "name": "_taxObject_Id",
          "type": "uint256"
        }
      ],
      "name": "getTaxObject",
      "outputs": [
        {
          "internalType": "uint256",
          "name": "",
          "type": "uint256"
        },
        {
          "internalType": "uint256",
          "name": "",
          "type": "uint256"
        },
        {
          "internalType": "uint256",
          "name": "",
          "type": "uint256"
        },
        {
          "internalType": "uint256",
          "name": "",
          "type": "uint256"
        },
        {
          "internalType": "uint256",
          "name": "",
          "type": "uint256"
        },
        {
          "internalType": "uint256[]",
          "name": "",
          "type": "uint256[]"
        },
        {
          "internalType": "uint8",
          "name": "",
          "type": "uint8"
        }
      ],
      "payable": false,
      "stateMutability": "view",
      "type": "function"
    },
    {
      "constant": true,
      "inputs": [
        {
          "internalType": "uint256",
          "name": "_buyOut_Id",
          "type": "uint256"
        }
      ],
      "name": "getBuyOut",
      "outputs": [
        {
          "internalType": "uint256",
          "name": "",
          "type": "uint256"
        },
        {
          "internalType": "uint256",
          "name": "",
          "type": "uint256"
        },
        {
          "internalType": "uint256",
          "name": "",
          "type": "uint256"
        },
        {
          "internalType": "uint256",
          "name": "",
          "type": "uint256"
        },
        {
          "internalType": "uint8",
          "name": "",
          "type": "uint8"
        }
      ],
      "payable": false,
      "stateMutability": "view",
      "type": "function"
    },
    {
      "constant": true,
      "inputs": [
        {
          "internalType": "uint256",
          "name": "_buyOut_Id",
          "type": "uint256"
        }
      ],
      "name": "getBuyOutLicenceId",
      "outputs": [
        {
          "internalType": "uint256",
          "name": "",
          "type": "uint256"
        }
      ],
      "payable": false,
      "stateMutability": "view",
      "type": "function"
    },
    {
      "constant": true,
      "inputs": [
        {
          "internalType": "uint256",
          "name": "_buyOut_Id",
          "type": "uint256"
        }
      ],
      "name": "getBuyOutOwnerId",
      "outputs": [
        {
          "internalType": "uint256",
          "name": "",
          "type": "uint256"
        }
      ],
      "payable": false,
      "stateMutability": "view",
      "type": "function"
    },
    {
      "constant": true,
      "inputs": [],
      "name": "getTaxObjectLength",
      "outputs": [
        {
          "internalType": "uint256",
          "name": "",
          "type": "uint256"
        }
      ],
      "payable": false,
      "stateMutability": "view",
      "type": "function"
    },
    {
      "constant": true,
      "inputs": [
        {
          "internalType": "uint256",
          "name": "_licence_Id",
          "type": "uint256"
        }
      ],
      "name": "getLicenceBuyOuts",
      "outputs": [
        {
          "internalType": "uint256[]",
          "name": "taxObject_Id_",
          "type": "uint256[]"
        },
        {
          "internalType": "uint256[]",
          "name": "buyOutOwner_Id_",
          "type": "uint256[]"
        },
        {
          "internalType": "uint256[]",
          "name": "buyOutAmount_",
          "type": "uint256[]"
        },
        {
          "internalType": "uint256[]",
          "name": "buyOutExpiration_",
          "type": "uint256[]"
        },
        {
          "internalType": "uint8[]",
          "name": "status_",
          "type": "uint8[]"
        }
      ],
      "payable": false,
      "stateMutability": "view",
      "type": "function"
    },
    {
      "constant": true,
      "inputs": [
        {
          "internalType": "uint256",
          "name": "x",
          "type": "uint256"
        }
      ],
      "name": "optimalExp",
      "outputs": [
        {
          "internalType": "uint256",
          "name": "",
          "type": "uint256"
        }
      ],
      "payable": false,
      "stateMutability": "pure",
      "type": "function"
    },
    {
      "constant": true,
      "inputs": [
        {
          "internalType": "uint256",
          "name": "r",
          "type": "uint256"
        },
        {
          "internalType": "uint256",
          "name": "t1",
          "type": "uint256"
        },
        {
          "internalType": "uint256",
          "name": "t2",
          "type": "uint256"
        }
      ],
      "name": "capFunction",
      "outputs": [
        {
          "internalType": "uint256",
          "name": "",
          "type": "uint256"
        }
      ],
      "payable": false,
      "stateMutability": "pure",
      "type": "function"
    },
    {
      "constant": true,
      "inputs": [
        {
          "internalType": "uint256",
          "name": "N",
          "type": "uint256"
        },
        {
          "internalType": "uint256",
          "name": "r",
          "type": "uint256"
        },
        {
          "internalType": "uint256",
          "name": "t1",
          "type": "uint256"
        },
        {
          "internalType": "uint256",
          "name": "t2",
          "type": "uint256"
        }
      ],
      "name": "futureValue",
      "outputs": [
        {
          "internalType": "uint256",
          "name": "",
          "type": "uint256"
        }
      ],
      "payable": false,
      "stateMutability": "pure",
      "type": "function"
    }
  ],
  "bytecode": "0x60806040526005603355620d2f0060345564046e07d0f660355534801561002557600080fd5b50611ee5806100356000396000f3fe608060405234801561001057600080fd5b50600436106101475760003560e01c806395050862116100c8578063e1363b521161008c578063eb9c6e8111610066578063eb9c6e8114610469578063f26bb2f2146105ee578063fd8446e91461061d57610147565b8063e1363b521461037a578063e95b259014610397578063eb12cdc3146103c857610147565b806395050862146102b2578063b4c0bd9d146102cf578063c4d66de8146102ec578063c960331114610312578063d78cd9581461035d57610147565b80635859eec11161010f5780635859eec11461021357806372d8e81914610230578063776c02481461024d57806388b623c8146102705780638a226e321461029557610147565b806325c274721461014c57806326ee5f2a146101815780633052789a146101aa57806338b36026146101cd57806341107ff7146101ea575b600080fd5b61016f6004803603604081101561016257600080fd5b5080359060200135610625565b60408051918252519081900360200190f35b61016f6004803603606081101561019757600080fd5b5080359060208101359060400135610653565b61016f600480360360408110156101c057600080fd5b5080359060200135610901565b61016f600480360360208110156101e357600080fd5b503561091a565b61016f6004803603606081101561020057600080fd5b5080359060208101359060400135610954565b61016f6004803603602081101561022957600080fd5b503561099c565b61016f6004803603602081101561024657600080fd5b50356109e7565b61016f6004803603604081101561026357600080fd5b5080359060200135610a0f565b6102936004803603604081101561028657600080fd5b5080359060200135610d1e565b005b61016f600480360360208110156102ab57600080fd5b5035610da4565b61016f600480360360208110156102c857600080fd5b5035610eb2565b61016f600480360360208110156102e557600080fd5b50356112a1565b6102936004803603602081101561030257600080fd5b50356001600160a01b0316611321565b61032f6004803603602081101561032857600080fd5b50356113ec565b60408051958652602086019490945284840192909252606084015260ff166080830152519081900360a00190f35b6102936004803603602081101561037357600080fd5b50356114b0565b6102936004803603602081101561039057600080fd5b503561154c565b6103b4600480360360208110156103ad57600080fd5b50356115d1565b604080519115158252519081900360200190f35b6103e5600480360360208110156103de57600080fd5b5035611881565b60405180888152602001878152602001868152602001858152602001848152602001806020018360ff1660ff168152602001828103825284818151815260200191508051906020019060200280838360005b8381101561044f578181015183820152602001610437565b505050509050019850505050505050505060405180910390f35b6104866004803603602081101561047f57600080fd5b50356119b4565b60405180806020018060200180602001806020018060200186810386528b818151815260200191508051906020019060200280838360005b838110156104d65781810151838201526020016104be565b5050505090500186810385528a818151815260200191508051906020019060200280838360005b838110156105155781810151838201526020016104fd565b50505050905001868103845289818151815260200191508051906020019060200280838360005b8381101561055457818101518382015260200161053c565b50505050905001868103835288818151815260200191508051906020019060200280838360005b8381101561059357818101518382015260200161057b565b50505050905001868103825287818151815260200191508051906020019060200280838360005b838110156105d25781810151838201526020016105ba565b505050509050019a505050505050505050505060405180910390f35b61016f6004803603608081101561060457600080fd5b5080359060208101359060408101359060600135611c27565b61016f611c50565b603a602052816000526040600020818154811061063e57fe5b90600052602060002001600091509150505481565b6036546000906001600160a01b031633146106b5576040805162461bcd60e51b815260206004820152601e60248201527f43616e206f6e6c792062652063616c6c65642062792072656769737472790000604482015290519081900360640190fd5b6106be8461091a565b8310156106fc5760405162461bcd60e51b8152600401808060200182810382526030815260200180611df76030913960400191505060405180910390fd5b60006037858154811061070b57fe5b600091825260209091206006600790920201015460ff16600181111561072d57fe5b146107695760405162461bcd60e51b8152600401808060200182810382526037815260200180611d936037913960400191505060405180910390fd5b610771611c5d565b506040805160a0810182528581526020810184815291810185815260345442016060830190815260006080840181815260388054600180820180845592855287517f38395c5dceade9603479b177b68959049485df8aa97b39f3533039af5f456199600590930292830190815598517f38395c5dceade9603479b177b68959049485df8aa97b39f3533039af5f45619a83015595517f38395c5dceade9603479b177b68959049485df8aa97b39f3533039af5f45619b82015593517f38395c5dceade9603479b177b68959049485df8aa97b39f3533039af5f45619c85015590517f38395c5dceade9603479b177b68959049485df8aa97b39f3533039af5f45619d909301805495969295919387939290919060ff19168683600281111561089557fe5b0217905550505060008681526039602090815260408220805460018101825590835291209290910391018190556037805491925090879081106108d457fe5b60009182526020808320600560079093020191909101805460018101825590835291200155509392505050565b6039602052816000526040600020818154811061063e57fe5b600060646033546064016037848154811061093157fe5b906000526020600020906007020160040154028161094b57fe5b0490505b919050565b60008282038167d02ab486cedc00008683026001607f1b0204905060006001607f1b61097f83610eb2565b670de0b6b3a7640000028161099057fe5b04979650505050505050565b600080603883815481106109ac57fe5b9060005260206000209060050201600001549050603781815481106109cd57fe5b906000526020600020906007020160000154915050919050565b6000603882815481106109f657fe5b9060005260206000209060050201600101549050919050565b6036546000906001600160a01b03163314610a71576040805162461bcd60e51b815260206004820152601e60248201527f43616e206f6e6c792062652063616c6c65642062792072656769737472790000604482015290519081900360640190fd5b60008211610ab05760405162461bcd60e51b8152600401808060200182810382526022815260200180611e8f6022913960400191505060405180910390fd5b6000838152603a602052604090205415610b5b5760016000848152603a602052604090208054603791906000198101908110610ae857fe5b906000526020600020015481548110610afd57fe5b600091825260209091206006600790920201015460ff166001811115610b1f57fe5b14610b5b5760405162461bcd60e51b815260040180806020018281038252602e815260200180611d3e602e913960400191505060405180910390fd5b6060610b65611c96565b6040518060e0016040528086815260200160355481526020014281526020016000815260200185815260200183815260200160006001811115610ba457fe5b90526037805460018181018084556000938452845160079093027f42a7b7dd785cd69714a189dffb3fd7d7174edc9ece837694ce50f7078f7c31ae81019384556020808701517f42a7b7dd785cd69714a189dffb3fd7d7174edc9ece837694ce50f7078f7c31af83015560408701517f42a7b7dd785cd69714a189dffb3fd7d7174edc9ece837694ce50f7078f7c31b083015560608701517f42a7b7dd785cd69714a189dffb3fd7d7174edc9ece837694ce50f7078f7c31b183015560808701517f42a7b7dd785cd69714a189dffb3fd7d7174edc9ece837694ce50f7078f7c31b283015560a0870151805197985095969395929488949093610ccb937f42a7b7dd785cd69714a189dffb3fd7d7174edc9ece837694ce50f7078f7c31b301920190611cd8565b5060c082015160068201805460ff191660018381811115610ce857fe5b021790555050506000978852603a6020908152604089208054600181018255908a52982091900396018690555093949350505050565b6036546001600160a01b03163314610d7d576040805162461bcd60e51b815260206004820152601e60248201527f43616e206f6e6c792062652063616c6c65642062792072656769737472790000604482015290519081900360640190fd5b8060378381548110610d8b57fe5b9060005260206000209060070201600401819055505050565b6000610dae611c96565b60378381548110610dbb57fe5b90600052602060002090600702016040518060e0016040529081600082015481526020016001820154815260200160028201548152602001600382015481526020016004820154815260200160058201805480602002602001604051908101604052809291908181526020018280548015610e5557602002820191906000526020600020905b815481526020019060010190808311610e41575b5050509183525050600682015460209091019060ff166001811115610e7657fe5b6001811115610e8157fe5b8152505090506000610ea182608001518360200151846040015142611c27565b608090920151909103915050919050565b6000670168244fdac780006001607f1b6f0fffffffffffffffffffffffffffffff84168080028290048082028390048083028490049485026710e1b3be415a00009092026705a0913f6b1e000091909102010192909181830204905080664807432bc1800002830192506001607f1b82820281610f2b57fe5b04905080660c0135dca0400002830192506001607f1b82820281610f4b57fe5b049050806601b707b1cdc00002830192506001607f1b82820281610f6b57fe5b049050806536e0f639b80002830192506001607f1b82820281610f8a57fe5b04905080650618fee9f80002830192506001607f1b82820281610fa957fe5b04905080649c197dcc0002830192506001607f1b82820281610fc757fe5b04905080640e30dce40002830192506001607f1b82820281610fe557fe5b0490508064012ebd130002830192506001607f1b8282028161100357fe5b049050806317499f0002830192506001607f1b8282028161102057fe5b049050806301a9d48002830192506001607f1b8282028161103d57fe5b04905080621c638002830192506001607f1b8282028161105957fe5b049050806201c63802830192506001607f1b8282028161107557fe5b04905080611ab802830192506001607f1b8282028161109057fe5b0490508061017c02830192506001607f1b828202816110ab57fe5b04905080601402830192506001607f1b828202816110c557fe5b6721c3677c82b400009190049384010482016001607f1b019290506f100000000000000000000000000000008516156111225770018ebef9eac820ae8682b9793ac6d1e7767001c3d6a24ed82218787d624d3e5eba95f984020492505b6f20000000000000000000000000000000851615611164577001368b2fc6f9609fe7aceb46aa619baed470018ebef9eac820ae8682b9793ac6d1e77884020492505b6f400000000000000000000000000000008516156111a5576fbc5ab1b16779be3575bd8f0520a9f21f7001368b2fc6f9609fe7aceb46aa619baed584020492505b6001607f1b8516156111d9576f454aaa8efe072e7f6ddbab84b40a55c96fbc5ab1b16779be3575bd8f0520a9f21e84020492505b70010000000000000000000000000000000085161561121a576f0960aadc109e7a3bf4578099615711ea6f454aaa8efe072e7f6ddbab84b40a55c584020492505b70020000000000000000000000000000000085161561125a576e2bf84208204f5977f9a8cf01fdce3d6f0960aadc109e7a3bf4578099615711d784020492505b700400000000000000000000000000000000851615611298576d03c6ab775dd0b95b4cbee7e65d116e2bf84208204f5977f9a8cf01fdc30784020492505b50909392505050565b6000818152603a602052604081205460018110156112f05760405162461bcd60e51b8152600401808060200182810382526027815260200180611d6c6027913960400191505060405180910390fd5b6000838152603a602052604090208054600019830190811061130e57fe5b9060005260206000200154915050919050565b600054610100900460ff168061133a575061133a611c57565b80611348575060005460ff16155b6113835760405162461bcd60e51b815260040180806020018281038252602e815260200180611e27602e913960400191505060405180910390fd5b600054610100900460ff161580156113ae576000805460ff1961ff0019909116610100171660011790555b6036805473ffffffffffffffffffffffffffffffffffffffff19166001600160a01b03841617905580156113e8576000805461ff00191690555b5050565b60008060008060006113fc611c5d565b6038878154811061140957fe5b90600052602060002090600502016040518060a0016040529081600082015481526020016001820154815260200160028201548152602001600382015481526020016004820160009054906101000a900460ff16600281111561146857fe5b600281111561147357fe5b81525050905080600001518160200151826040015183606001518460800151600281111561149d57fe5b939b929a50909850965090945092505050565b6036546001600160a01b0316331461150f576040805162461bcd60e51b815260206004820152601e60248201527f43616e206f6e6c792062652063616c6c65642062792072656769737472790000604482015290519081900360640190fd5b60016037828154811061151e57fe5b60009182526020909120600660079092020101805460ff19166001838181111561154457fe5b021790555050565b6036546001600160a01b031633146115ab576040805162461bcd60e51b815260206004820152601e60248201527f43616e206f6e6c792062652063616c6c65642062792072656769737472790000604482015290519081900360640190fd5b42603782815481106115b957fe5b90600052602060002090600702016002018190555050565b6036546000906001600160a01b03163314611633576040805162461bcd60e51b815260206004820152601e60248201527f43616e206f6e6c792062652063616c6c65642062792072656769737472790000604482015290519081900360640190fd5b61163b611c5d565b6038838154811061164857fe5b90600052602060002090600502016040518060a0016040529081600082015481526020016001820154815260200160028201548152602001600382015481526020016004820160009054906101000a900460ff1660028111156116a757fe5b60028111156116b257fe5b90525090506000816080015160028111156116c957fe5b146117055760405162461bcd60e51b815260040180806020018281038252602d815260200180611dca602d913960400191505060405180910390fd5b428160600151106117475760405162461bcd60e51b815260040180806020018281038252603a815260200180611e55603a913960400191505060405180910390fd5b80516117529061091a565b816040015110156117a25760026038848154811061176c57fe5b60009182526020909120600460059092020101805460ff1916600183600281111561179357fe5b0217905550600091505061094f565b80516117ad9061091a565b8160400151111561187b576001603884815481106117c757fe5b60009182526020909120600460059092020101805460ff191660018360028111156117ee57fe5b02179055508060400151603782600001518154811061180957fe5b9060005260206000209060070201600401819055506001603782600001518154811061183157fe5b6000918252602090912060036007909202010180549091019055805160378054429290811061185c57fe5b906000526020600020906007020160020181905550600191505061094f565b50919050565b600080600080600060606000611895611c96565b603789815481106118a257fe5b90600052602060002090600702016040518060e001604052908160008201548152602001600182015481526020016002820154815260200160038201548152602001600482015481526020016005820180548060200260200160405190810160405280929190818152602001828054801561193c57602002820191906000526020600020905b815481526020019060010190808311611928575b5050509183525050600682015460209091019060ff16600181111561195d57fe5b600181111561196857fe5b815250509050806000015181602001518260400151836060015184608001518560a001518660c00151600181111561199c57fe5b959f949e50929c50909a509850965090945092505050565b60608060608060606000603a600088815260200190815260200160002080549050905080604051908082528060200260200182016040528015611a01578160200160208202803883390190505b50955080604051908082528060200260200182016040528015611a2e578160200160208202803883390190505b50945080604051908082528060200260200182016040528015611a5b578160200160208202803883390190505b50935080604051908082528060200260200182016040528015611a88578160200160208202803883390190505b50925080604051908082528060200260200182016040528015611ab5578160200160208202803883390190505b50915060005b81811015611c1c576000888152603a60205260408120805483908110611add57fe5b9060005260206000200154905060388181548110611af757fe5b906000526020600020906005020160000154888381518110611b1557fe5b60200260200101818152505060388181548110611b2e57fe5b906000526020600020906005020160010154878381518110611b4c57fe5b60200260200101818152505060388181548110611b6557fe5b906000526020600020906005020160020154868381518110611b8357fe5b60200260200101818152505060388181548110611b9c57fe5b906000526020600020906005020160030154858381518110611bba57fe5b60200260200101818152505060388181548110611bd357fe5b600091825260209091206004600590920201015460ff166002811115611bf557fe5b848381518110611c0157fe5b60ff9092166020928302919091019091015250600101611abb565b505091939590929450565b6000670de0b6b3a764000085611c3e868686610954565b0281611c4657fe5b0495945050505050565b6037545b90565b303b1590565b6040518060a001604052806000815260200160008152602001600081526020016000815260200160006002811115611c9157fe5b905290565b6040518060e0016040528060008152602001600081526020016000815260200160008152602001600081526020016060815260200160006001811115611c9157fe5b828054828255906000526020600020908101928215611d13579160200282015b82811115611d13578251825591602001919060010190611cf8565b50611d1f929150611d23565b5090565b611c5491905b80821115611d1f5760008155600101611d2956fe43616e206f6e6c792063726561746520746178206f626a6563742069662070726576696f7573207265766f6b65645468657265206973206e6f20746178206f626a65637420666f722074686973206c6963656e636543616e206f6e6c79207375626d69742061206275794f757420746f20616e206163746976652061637469766520746178206f626a65637443616e206f6e6c792066696e616c697a65206275794f7574206966206275794f75742069732070656e64696e6756616c75652073656e74206973206c657373207468616e20746865206d696e696d756d206275794f7574207072696365436f6e747261637420696e7374616e63652068617320616c7265616479206265656e20696e697469616c697a656463616e206f6e6c792066696e616c697a65206275794f75742069662069742069732070617374207468652065787069726174696f6e2074696d6556616c7565206e6565647320746f206265206c6172676572207468616e207a65726fa265627a7a723158209b2c8ba4fba5e08519dfb6766edc8f5f82cfd7016fdccb4d123e9905946435ea64736f6c634300050c0032",
  "source": "pragma solidity ^0.5.12;\r\n\r\nimport \"@openzeppelin/upgrades/contracts/Initializable.sol\";\r\n\r\ncontract HarbergerTaxManager is Initializable {\r\n    uint256 private constant FIXED_1 = 0x080000000000000000000000000000000;\r\n    //percentage increase over previous price that must be paid to buy Out the licence\r\n    uint256 MIN_BUYOUT_PRICE_INCREASE = 5;\r\n    //a buyOut has an expiratory of 10 days for the owner to raize the price or loose the licence\r\n    uint256 BUYOUT_TIMEOUT = 60 * 60 * 24 * 10;\r\n    // 4% compounding per block, scaled 1e18\r\n    uint256 FIXED_INTEREST_RATE_PER_BLOCK = 19025875190;\r\n\r\n    address registry;\r\n\r\n    enum TaxObjectStatus { Active, Revoked }\r\n\r\n    struct TaxObject {\r\n        uint256 licenceId;\r\n        uint256 ratePerBlock;\r\n        uint256 lastPayment;\r\n        uint256 numberOfOutBids;\r\n        uint256 currentAssignedValue;\r\n        uint256[] buyOut_Ids;\r\n        TaxObjectStatus status;\r\n    }\r\n\r\n    TaxObject[] taxObjects;\r\n\r\n    enum BuyOutStatus { Pending, Successful, OutBid }\r\n\r\n    struct BuyOut {\r\n        uint256 taxObject_Id;\r\n        uint256 buyOutOwner_Id;\r\n        uint256 buyOutAmount;\r\n        uint256 buyOutExpiration;\r\n        BuyOutStatus status;\r\n    }\r\n\r\n    BuyOut[] buyOuts;\r\n\r\n    mapping(uint256 => uint256[]) public buyOutOwners;\r\n\r\n    mapping(uint256 => uint256[]) public licenceTaxObjects;\r\n\r\n    modifier onlyRegistry() {\r\n        require(msg.sender == registry, \"Can only be called by registry\");\r\n        _;\r\n    }\r\n\r\n    function initialize(address _unicoinRegistry) public initializer {\r\n        registry = _unicoinRegistry;\r\n    }\r\n\r\n    function createTaxObject(\r\n        uint256 _licence_Id,\r\n        // uint256 _ratePerBlock,\r\n        uint256 _currentAssignedValue\r\n    ) public onlyRegistry returns (uint256) {\r\n        require(_currentAssignedValue > 0, \"Value needs to be larger than zero\");\r\n\r\n        //if there were previous tax objects then they must have been revoked\r\n        if (licenceTaxObjects[_licence_Id].length > 0) {\r\n            require(\r\n                taxObjects[licenceTaxObjects[_licence_Id][licenceTaxObjects[_licence_Id].length - 1]].status ==\r\n                    TaxObjectStatus.Revoked,\r\n                \"Can only create tax object if previous revoked\"\r\n            );\r\n        }\r\n\r\n        uint256[] memory buyOutIds;\r\n        TaxObject memory taxObject = TaxObject(\r\n            _licence_Id,\r\n            FIXED_INTEREST_RATE_PER_BLOCK,\r\n            now,\r\n            0,\r\n            _currentAssignedValue,\r\n            buyOutIds,\r\n            TaxObjectStatus.Active\r\n        );\r\n\r\n        uint256 taxObjectId = taxObjects.push(taxObject) - 1;\r\n\r\n        licenceTaxObjects[_licence_Id].push(taxObjectId);\r\n\r\n        return taxObjectId;\r\n    }\r\n\r\n    function calculateOutstandingTax(uint256 _taxObject_Id) public view returns (uint256) {\r\n        TaxObject memory taxObject = taxObjects[_taxObject_Id];\r\n        uint256 futureValue = futureValue(\r\n            taxObject.currentAssignedValue,\r\n            taxObject.ratePerBlock,\r\n            taxObject.lastPayment,\r\n            now\r\n        );\r\n\r\n        uint256 interestOutstanding = futureValue - taxObject.currentAssignedValue;\r\n        return interestOutstanding;\r\n    }\r\n\r\n    function calculateMinBuyOutPrice(uint256 _taxObject_Id) public view returns (uint256) {\r\n        return (taxObjects[_taxObject_Id].currentAssignedValue * (100 + MIN_BUYOUT_PRICE_INCREASE)) / 100;\r\n    }\r\n\r\n    function _updateTaxObjectLastPayment(uint256 _taxObject_Id) public onlyRegistry {\r\n        taxObjects[_taxObject_Id].lastPayment = now;\r\n    }\r\n\r\n    function _updateTaxObjectValuation(uint256 _taxObject_Id, uint256 _assignedValue) public onlyRegistry {\r\n        taxObjects[_taxObject_Id].currentAssignedValue = _assignedValue;\r\n    }\r\n\r\n    function submitBuyOut(uint256 _taxObject_Id, uint256 _offer, uint256 _buyOutOwner_Id)\r\n        public\r\n        onlyRegistry\r\n        returns (uint256)\r\n    {\r\n        require(_offer >= calculateMinBuyOutPrice(_taxObject_Id), \"Value sent is less than the minimum buyOut price\");\r\n\r\n        require(\r\n            taxObjects[_taxObject_Id].status == TaxObjectStatus.Active,\r\n            \"Can only submit a buyOut to an active active tax object\"\r\n        );\r\n\r\n        BuyOut memory buyOut = BuyOut(\r\n            _taxObject_Id,\r\n            _buyOutOwner_Id,\r\n            _offer,\r\n            now + BUYOUT_TIMEOUT,\r\n            BuyOutStatus.Pending\r\n        );\r\n\r\n        uint256 buyOut_Id = buyOuts.push(buyOut) - 1;\r\n        buyOutOwners[_buyOutOwner_Id].push(buyOut_Id);\r\n        taxObjects[_taxObject_Id].buyOut_Ids.push(buyOut_Id);\r\n    }\r\n\r\n    function finalizeBuyOutOffer(uint256 _buyOut_Id) public onlyRegistry returns (bool) {\r\n        BuyOut memory buyOut = buyOuts[_buyOut_Id];\r\n        require(buyOut.status == BuyOutStatus.Pending, \"Can only finalize buyOut if buyOut is pending\");\r\n        require(buyOut.buyOutExpiration < now, \"can only finalize buyOut if it is past the expiration time\");\r\n        if (buyOut.buyOutAmount < calculateMinBuyOutPrice(buyOut.taxObject_Id)) {\r\n            buyOuts[_buyOut_Id].status = BuyOutStatus.OutBid;\r\n            return false; //the buyOut was not enough and so failed\r\n        }\r\n        if (buyOut.buyOutAmount > calculateMinBuyOutPrice(buyOut.taxObject_Id)) {\r\n            buyOuts[_buyOut_Id].status = BuyOutStatus.Successful;\r\n            taxObjects[buyOut.taxObject_Id].currentAssignedValue = buyOut.buyOutAmount;\r\n            taxObjects[buyOut.taxObject_Id].numberOfOutBids += 1;\r\n            taxObjects[buyOut.taxObject_Id].lastPayment = now;\r\n            return true;\r\n        }\r\n    }\r\n\r\n    function revokeTaxObject(uint256 _taxObject_Id) public onlyRegistry {\r\n        taxObjects[_taxObject_Id].status = TaxObjectStatus.Revoked;\r\n    }\r\n\r\n    function getLicenceTaxObjectId(uint256 _licence_Id) public view returns (uint256) {\r\n        uint256 numOfTaxObjects = licenceTaxObjects[_licence_Id].length;\r\n        require(numOfTaxObjects >= 1, \"There is no tax object for this licence\");\r\n        return licenceTaxObjects[_licence_Id][numOfTaxObjects - 1];\r\n    }\r\n\r\n    function getTaxObject(uint256 _taxObject_Id)\r\n        public\r\n        view\r\n        returns (uint256, uint256, uint256, uint256, uint256, uint256[] memory, uint8)\r\n    {\r\n        TaxObject memory taxObject = taxObjects[_taxObject_Id];\r\n        return (\r\n            taxObject.licenceId,\r\n            taxObject.ratePerBlock,\r\n            taxObject.lastPayment,\r\n            taxObject.numberOfOutBids,\r\n            taxObject.currentAssignedValue,\r\n            taxObject.buyOut_Ids,\r\n            uint8(taxObject.status)\r\n        );\r\n    }\r\n\r\n    // taxObject_Id;\r\n    //     uint256 buyOutOwner_Id;\r\n    //     uint256 buyOutAmount;\r\n    //     uint256 buyOutExpiration;\r\n    //     BuyOutStatus status;\r\n\r\n    function getBuyOut(uint256 _buyOut_Id) public view returns (uint256, uint256, uint256, uint256, uint8) {\r\n        BuyOut memory buyOut = buyOuts[_buyOut_Id];\r\n        return (\r\n            buyOut.taxObject_Id,\r\n            buyOut.buyOutOwner_Id,\r\n            buyOut.buyOutAmount,\r\n            buyOut.buyOutExpiration,\r\n            uint8(buyOut.status)\r\n        );\r\n    }\r\n\r\n    function getBuyOutLicenceId(uint256 _buyOut_Id) public view returns (uint256) {\r\n        uint256 taxObject_Id = buyOuts[_buyOut_Id].taxObject_Id;\r\n        return taxObjects[taxObject_Id].licenceId;\r\n    }\r\n\r\n    function getBuyOutOwnerId(uint256 _buyOut_Id) public view returns (uint256) {\r\n        return buyOuts[_buyOut_Id].buyOutOwner_Id;\r\n    }\r\n\r\n    function getTaxObjectLength() public view returns (uint256) {\r\n        return taxObjects.length;\r\n    }\r\n\r\n    function getLicenceBuyOuts(uint256 _licence_Id)\r\n        public\r\n        view\r\n        returns (\r\n            uint256[] memory taxObject_Id_,\r\n            uint256[] memory buyOutOwner_Id_,\r\n            uint256[] memory buyOutAmount_,\r\n            uint256[] memory buyOutExpiration_,\r\n            uint8[] memory status_\r\n        )\r\n    {\r\n        uint256 numberOfBuyOuts = licenceTaxObjects[_licence_Id].length;\r\n\r\n        taxObject_Id_ = new uint256[](numberOfBuyOuts);\r\n        buyOutOwner_Id_ = new uint256[](numberOfBuyOuts);\r\n        buyOutAmount_ = new uint256[](numberOfBuyOuts);\r\n        buyOutExpiration_ = new uint256[](numberOfBuyOuts);\r\n        status_ = new uint8[](numberOfBuyOuts);\r\n\r\n        for (uint256 i = 0; i < numberOfBuyOuts; i++) {\r\n            uint256 buyOutId = licenceTaxObjects[_licence_Id][i];\r\n            taxObject_Id_[i] = buyOuts[buyOutId].taxObject_Id;\r\n            buyOutOwner_Id_[i] = buyOuts[buyOutId].buyOutOwner_Id;\r\n            buyOutAmount_[i] = buyOuts[buyOutId].buyOutAmount;\r\n            buyOutExpiration_[i] = buyOuts[buyOutId].buyOutExpiration;\r\n            status_[i] = uint8(buyOuts[buyOutId].status);\r\n        }\r\n        return (taxObject_Id_, buyOutOwner_Id_, buyOutAmount_, buyOutExpiration_, status_);\r\n    }\r\n\r\n    /**\r\n      * @dev computes e ^ (x / FIXED_1) * FIXED_1\r\n      * input range: 0 <= x <= OPT_EXP_MAX_VAL - 1\r\n      * Detailed description:\r\n      * - Rewrite the input as a sum of binary exponents and a single residual r, as small as possible\r\n      * - The exponentiation of each binary exponent is given (pre-calculated)\r\n      * - The exponentiation of r is calculated via Taylor series for e^x, where x = r\r\n      * - The exponentiation of the input is calculated by multiplying the intermediate results above\r\n      * - For example: e^5.521692859 = e^(4 + 1 + 0.5 + 0.021692859) = e^4 * e^1 * e^0.5 * e^0.021692859\r\n    */\r\n    function optimalExp(uint256 x) public pure returns (uint256) {\r\n        uint256 res = 0;\r\n\r\n        uint256 y;\r\n        uint256 z;\r\n\r\n        z = y = x % 0x10000000000000000000000000000000; // get the input modulo 2^(-3)\r\n        z = (z * y) / FIXED_1;\r\n        res += z * 0x10e1b3be415a0000; // add y^02 * (20! / 02!)\r\n        z = (z * y) / FIXED_1;\r\n        res += z * 0x05a0913f6b1e0000; // add y^03 * (20! / 03!)\r\n        z = (z * y) / FIXED_1;\r\n        res += z * 0x0168244fdac78000; // add y^04 * (20! / 04!)\r\n        z = (z * y) / FIXED_1;\r\n        res += z * 0x004807432bc18000; // add y^05 * (20! / 05!)\r\n        z = (z * y) / FIXED_1;\r\n        res += z * 0x000c0135dca04000; // add y^06 * (20! / 06!)\r\n        z = (z * y) / FIXED_1;\r\n        res += z * 0x0001b707b1cdc000; // add y^07 * (20! / 07!)\r\n        z = (z * y) / FIXED_1;\r\n        res += z * 0x000036e0f639b800; // add y^08 * (20! / 08!)\r\n        z = (z * y) / FIXED_1;\r\n        res += z * 0x00000618fee9f800; // add y^09 * (20! / 09!)\r\n        z = (z * y) / FIXED_1;\r\n        res += z * 0x0000009c197dcc00; // add y^10 * (20! / 10!)\r\n        z = (z * y) / FIXED_1;\r\n        res += z * 0x0000000e30dce400; // add y^11 * (20! / 11!)\r\n        z = (z * y) / FIXED_1;\r\n        res += z * 0x000000012ebd1300; // add y^12 * (20! / 12!)\r\n        z = (z * y) / FIXED_1;\r\n        res += z * 0x0000000017499f00; // add y^13 * (20! / 13!)\r\n        z = (z * y) / FIXED_1;\r\n        res += z * 0x0000000001a9d480; // add y^14 * (20! / 14!)\r\n        z = (z * y) / FIXED_1;\r\n        res += z * 0x00000000001c6380; // add y^15 * (20! / 15!)\r\n        z = (z * y) / FIXED_1;\r\n        res += z * 0x000000000001c638; // add y^16 * (20! / 16!)\r\n        z = (z * y) / FIXED_1;\r\n        res += z * 0x0000000000001ab8; // add y^17 * (20! / 17!)\r\n        z = (z * y) / FIXED_1;\r\n        res += z * 0x000000000000017c; // add y^18 * (20! / 18!)\r\n        z = (z * y) / FIXED_1;\r\n        res += z * 0x0000000000000014; // add y^19 * (20! / 19!)\r\n        z = (z * y) / FIXED_1;\r\n        res += z * 0x0000000000000001; // add y^20 * (20! / 20!)\r\n        res = res / 0x21c3677c82b40000 + y + FIXED_1; // divide by 20! and then add y^1 / 1! + y^0 / 0!\r\n\r\n        if ((x & 0x010000000000000000000000000000000) != 0)\r\n            res = (res * 0x1c3d6a24ed82218787d624d3e5eba95f9) / 0x18ebef9eac820ae8682b9793ac6d1e776; // multiply by e^2^(-3)\r\n        if ((x & 0x020000000000000000000000000000000) != 0)\r\n            res = (res * 0x18ebef9eac820ae8682b9793ac6d1e778) / 0x1368b2fc6f9609fe7aceb46aa619baed4; // multiply by e^2^(-2)\r\n        if ((x & 0x040000000000000000000000000000000) != 0)\r\n            res = (res * 0x1368b2fc6f9609fe7aceb46aa619baed5) / 0x0bc5ab1b16779be3575bd8f0520a9f21f; // multiply by e^2^(-1)\r\n        if ((x & 0x080000000000000000000000000000000) != 0)\r\n            res = (res * 0x0bc5ab1b16779be3575bd8f0520a9f21e) / 0x0454aaa8efe072e7f6ddbab84b40a55c9; // multiply by e^2^(+0)\r\n        if ((x & 0x100000000000000000000000000000000) != 0)\r\n            res = (res * 0x0454aaa8efe072e7f6ddbab84b40a55c5) / 0x00960aadc109e7a3bf4578099615711ea; // multiply by e^2^(+1)\r\n        if ((x & 0x200000000000000000000000000000000) != 0)\r\n            res = (res * 0x00960aadc109e7a3bf4578099615711d7) / 0x0002bf84208204f5977f9a8cf01fdce3d; // multiply by e^2^(+2)\r\n        if ((x & 0x400000000000000000000000000000000) != 0)\r\n            res = (res * 0x0002bf84208204f5977f9a8cf01fdc307) / 0x0000003c6ab775dd0b95b4cbee7e65d11; // multiply by e^2^(+3)\r\n\r\n        return res;\r\n    }\r\n\r\n    function capFunction(uint256 r, uint256 t1, uint256 t2) public pure returns (uint256) {\r\n        uint256 t = t2 - t1;\r\n        uint256 x = (r * t * FIXED_1) / (15 * 10**18);\r\n        uint256 c = (optimalExp(x) * 10**18) / FIXED_1;\r\n        return c;\r\n    }\r\n\r\n    function futureValue(uint256 N, uint256 r, uint256 t1, uint256 t2) public pure returns (uint256) {\r\n        return (capFunction(r, t1, t2) * N) / 10**18;\r\n    }\r\n}\r\n",
  "sourcePath": "E:\\Masters thesis\\Unicoin\\contracts\\HarbergerTaxManager.sol",
  "compiler": {
    "name": "solc",
    "version": "0.5.12+commit.7709ece9.Emscripten.clang"
  },
  "schemaVersion": "3.4.4",
  "updatedAt": "2022-02-05T13:32:01.099Z",
  "devdoc": {
    "methods": {
      "optimalExp(uint256)": {
        "details": "computes e ^ (x / FIXED_1) * FIXED_1 input range: 0 <= x <= OPT_EXP_MAX_VAL - 1 Detailed description: - Rewrite the input as a sum of binary exponents and a single residual r, as small as possible - The exponentiation of each binary exponent is given (pre-calculated) - The exponentiation of r is calculated via Taylor series for e^x, where x = r - The exponentiation of the input is calculated by multiplying the intermediate results above - For example: e^5.521692859 = e^(4 + 1 + 0.5 + 0.021692859) = e^4 * e^1 * e^0.5 * e^0.021692859"
      }
    }
  },
  "userdoc": {
    "methods": {}
  }
}