{
  "contractName": "HarbergerTaxManager",
  "abi": [
    {
      "constant": true,
      "inputs": [
        {
          "internalType": "uint256",
          "name": "",
          "type": "uint256"
        },
        {
          "internalType": "uint256",
          "name": "",
          "type": "uint256"
        }
      ],
      "name": "buyOutOwners",
      "outputs": [
        {
          "internalType": "uint256",
          "name": "",
          "type": "uint256"
        }
      ],
      "payable": false,
      "stateMutability": "view",
      "type": "function"
    },
    {
      "constant": true,
      "inputs": [
        {
          "internalType": "uint256",
          "name": "",
          "type": "uint256"
        },
        {
          "internalType": "uint256",
          "name": "",
          "type": "uint256"
        }
      ],
      "name": "licenceTaxObjects",
      "outputs": [
        {
          "internalType": "uint256",
          "name": "",
          "type": "uint256"
        }
      ],
      "payable": false,
      "stateMutability": "view",
      "type": "function"
    },
    {
      "constant": false,
      "inputs": [
        {
          "internalType": "address",
          "name": "_unicoinRegistry",
          "type": "address"
        }
      ],
      "name": "initialize",
      "outputs": [],
      "payable": false,
      "stateMutability": "nonpayable",
      "type": "function"
    },
    {
      "constant": false,
      "inputs": [
        {
          "internalType": "uint256",
          "name": "_licence_Id",
          "type": "uint256"
        },
        {
          "internalType": "uint256",
          "name": "_currentAssignedValue",
          "type": "uint256"
        }
      ],
      "name": "createTaxObject",
      "outputs": [
        {
          "internalType": "uint256",
          "name": "",
          "type": "uint256"
        }
      ],
      "payable": false,
      "stateMutability": "nonpayable",
      "type": "function"
    },
    {
      "constant": true,
      "inputs": [
        {
          "internalType": "uint256",
          "name": "_taxObject_Id",
          "type": "uint256"
        }
      ],
      "name": "calculateOutstandingTax",
      "outputs": [
        {
          "internalType": "uint256",
          "name": "",
          "type": "uint256"
        }
      ],
      "payable": false,
      "stateMutability": "view",
      "type": "function"
    },
    {
      "constant": true,
      "inputs": [
        {
          "internalType": "uint256",
          "name": "_taxObject_Id",
          "type": "uint256"
        }
      ],
      "name": "calculateMinBuyOutPrice",
      "outputs": [
        {
          "internalType": "uint256",
          "name": "",
          "type": "uint256"
        }
      ],
      "payable": false,
      "stateMutability": "view",
      "type": "function"
    },
    {
      "constant": false,
      "inputs": [
        {
          "internalType": "uint256",
          "name": "_taxObject_Id",
          "type": "uint256"
        }
      ],
      "name": "_updateTaxObjectLastPayment",
      "outputs": [],
      "payable": false,
      "stateMutability": "nonpayable",
      "type": "function"
    },
    {
      "constant": false,
      "inputs": [
        {
          "internalType": "uint256",
          "name": "_taxObject_Id",
          "type": "uint256"
        },
        {
          "internalType": "uint256",
          "name": "_assignedValue",
          "type": "uint256"
        }
      ],
      "name": "_updateTaxObjectValuation",
      "outputs": [],
      "payable": false,
      "stateMutability": "nonpayable",
      "type": "function"
    },
    {
      "constant": false,
      "inputs": [
        {
          "internalType": "uint256",
          "name": "_taxObject",
          "type": "uint256"
        },
        {
          "internalType": "uint256",
          "name": "_offer",
          "type": "uint256"
        },
        {
          "internalType": "uint256",
          "name": "_buyOutOwner_Id",
          "type": "uint256"
        }
      ],
      "name": "submitBuyOut",
      "outputs": [
        {
          "internalType": "uint256",
          "name": "",
          "type": "uint256"
        }
      ],
      "payable": false,
      "stateMutability": "nonpayable",
      "type": "function"
    },
    {
      "constant": false,
      "inputs": [
        {
          "internalType": "uint256",
          "name": "_buyOut_Id",
          "type": "uint256"
        }
      ],
      "name": "finalizeBuyOutOffer",
      "outputs": [
        {
          "internalType": "bool",
          "name": "",
          "type": "bool"
        }
      ],
      "payable": false,
      "stateMutability": "nonpayable",
      "type": "function"
    },
    {
      "constant": false,
      "inputs": [
        {
          "internalType": "uint256",
          "name": "_taxObject_Id",
          "type": "uint256"
        }
      ],
      "name": "revokeTaxObject",
      "outputs": [],
      "payable": false,
      "stateMutability": "nonpayable",
      "type": "function"
    },
    {
      "constant": true,
      "inputs": [
        {
          "internalType": "uint256",
          "name": "_licence_Id",
          "type": "uint256"
        }
      ],
      "name": "getLicenceTaxObjectId",
      "outputs": [
        {
          "internalType": "uint256",
          "name": "",
          "type": "uint256"
        }
      ],
      "payable": false,
      "stateMutability": "view",
      "type": "function"
    },
    {
      "constant": true,
      "inputs": [
        {
          "internalType": "uint256",
          "name": "_taxObject_Id",
          "type": "uint256"
        }
      ],
      "name": "getTaxObject",
      "outputs": [
        {
          "internalType": "uint256",
          "name": "",
          "type": "uint256"
        },
        {
          "internalType": "uint256",
          "name": "",
          "type": "uint256"
        },
        {
          "internalType": "uint256",
          "name": "",
          "type": "uint256"
        },
        {
          "internalType": "uint256",
          "name": "",
          "type": "uint256"
        },
        {
          "internalType": "uint256",
          "name": "",
          "type": "uint256"
        },
        {
          "internalType": "uint256[]",
          "name": "",
          "type": "uint256[]"
        },
        {
          "internalType": "uint8",
          "name": "",
          "type": "uint8"
        }
      ],
      "payable": false,
      "stateMutability": "view",
      "type": "function"
    },
    {
      "constant": true,
      "inputs": [
        {
          "internalType": "uint256",
          "name": "_buyOut_Id",
          "type": "uint256"
        }
      ],
      "name": "getBuyOutLicenceId",
      "outputs": [
        {
          "internalType": "uint256",
          "name": "",
          "type": "uint256"
        }
      ],
      "payable": false,
      "stateMutability": "view",
      "type": "function"
    },
    {
      "constant": true,
      "inputs": [
        {
          "internalType": "uint256",
          "name": "_buyOut_Id",
          "type": "uint256"
        }
      ],
      "name": "getBuyOutOwnerId",
      "outputs": [
        {
          "internalType": "uint256",
          "name": "",
          "type": "uint256"
        }
      ],
      "payable": false,
      "stateMutability": "view",
      "type": "function"
    },
    {
      "constant": true,
      "inputs": [
        {
          "internalType": "uint256",
          "name": "x",
          "type": "uint256"
        }
      ],
      "name": "optimalExp",
      "outputs": [
        {
          "internalType": "uint256",
          "name": "",
          "type": "uint256"
        }
      ],
      "payable": false,
      "stateMutability": "pure",
      "type": "function"
    },
    {
      "constant": true,
      "inputs": [
        {
          "internalType": "uint256",
          "name": "r",
          "type": "uint256"
        },
        {
          "internalType": "uint256",
          "name": "t1",
          "type": "uint256"
        },
        {
          "internalType": "uint256",
          "name": "t2",
          "type": "uint256"
        }
      ],
      "name": "capFunction",
      "outputs": [
        {
          "internalType": "uint256",
          "name": "",
          "type": "uint256"
        }
      ],
      "payable": false,
      "stateMutability": "pure",
      "type": "function"
    },
    {
      "constant": true,
      "inputs": [
        {
          "internalType": "uint256",
          "name": "N",
          "type": "uint256"
        },
        {
          "internalType": "uint256",
          "name": "r",
          "type": "uint256"
        },
        {
          "internalType": "uint256",
          "name": "t1",
          "type": "uint256"
        },
        {
          "internalType": "uint256",
          "name": "t2",
          "type": "uint256"
        }
      ],
      "name": "futureValue",
      "outputs": [
        {
          "internalType": "uint256",
          "name": "",
          "type": "uint256"
        }
      ],
      "payable": false,
      "stateMutability": "pure",
      "type": "function"
    }
  ],
  "bytecode": "0x60806040526005603355620d2f0060345564046e07d0f660355534801561002557600080fd5b5061220e806100356000396000f3fe608060405234801561001057600080fd5b50600436106101165760003560e01c80638a226e32116100a2578063d78cd95811610071578063d78cd958146104b3578063e1363b52146104e1578063e95b25901461050f578063eb12cdc314610555578063f26bb2f21461060857610116565b80638a226e32146103a957806395050862146103eb578063b4c0bd9d1461042d578063c4d66de81461046f57610116565b806341107ff7116100e957806341107ff71461024b5780635859eec1146102a157806372d8e819146102e3578063776c02481461032557806388b623c81461037157610116565b806325c274721461011b57806326ee5f2a146101675780633052789a146101bd57806338b3602614610209575b600080fd5b6101516004803603604081101561013157600080fd5b810190808035906020019092919080359060200190929190505050610668565b6040518082815260200191505060405180910390f35b6101a76004803603606081101561017d57600080fd5b81019080803590602001909291908035906020019092919080359060200190929190505050610696565b6040518082815260200191505060405180910390f35b6101f3600480360360408110156101d357600080fd5b8101908080359060200190929190803590602001909291905050506109cb565b6040518082815260200191505060405180910390f35b6102356004803603602081101561021f57600080fd5b81019080803590602001909291905050506109f9565b6040518082815260200191505060405180910390f35b61028b6004803603606081101561026157600080fd5b81019080803590602001909291908035906020019092919080359060200190929190505050610a32565b6040518082815260200191505060405180910390f35b6102cd600480360360208110156102b757600080fd5b8101908080359060200190929190505050610aa1565b6040518082815260200191505060405180910390f35b61030f600480360360208110156102f957600080fd5b8101908080359060200190929190505050610aec565b6040518082815260200191505060405180910390f35b61035b6004803603604081101561033b57600080fd5b810190808035906020019092919080359060200190929190505050610b14565b6040518082815260200191505060405180910390f35b6103a76004803603604081101561038757600080fd5b810190808035906020019092919080359060200190929190505050610e72565b005b6103d5600480360360208110156103bf57600080fd5b8101908080359060200190929190505050610f5c565b6040518082815260200191505060405180910390f35b6104176004803603602081101561040157600080fd5b8101908080359060200190929190505050611077565b6040518082815260200191505060405180910390f35b6104596004803603602081101561044357600080fd5b81019080803590602001909291905050506115f1565b6040518082815260200191505060405180910390f35b6104b16004803603602081101561048557600080fd5b81019080803573ffffffffffffffffffffffffffffffffffffffff16906020019092919050505061169b565b005b6104df600480360360208110156104c957600080fd5b81019080803590602001909291905050506117dc565b005b61050d600480360360208110156104f757600080fd5b81019080803590602001909291905050506118e2565b005b61053b6004803603602081101561052557600080fd5b81019080803590602001909291905050506119cb565b604051808215151515815260200191505060405180910390f35b6105816004803603602081101561056b57600080fd5b8101908080359060200190929190505050611df9565b60405180888152602001878152602001868152602001858152602001848152602001806020018360ff1660ff168152602001828103825284818151815260200191508051906020019060200280838360005b838110156105ee5780820151818401526020810190506105d3565b505050509050019850505050505050505060405180910390f35b6106526004803603608081101561061e57600080fd5b8101908080359060200190929190803590602001909291908035906020019092919080359060200190929190505050611f37565b6040518082815260200191505060405180910390f35b603a602052816000526040600020818154811061068157fe5b90600052602060002001600091509150505481565b6000603660009054906101000a900473ffffffffffffffffffffffffffffffffffffffff1673ffffffffffffffffffffffffffffffffffffffff163373ffffffffffffffffffffffffffffffffffffffff161461075b576040517f08c379a000000000000000000000000000000000000000000000000000000000815260040180806020018281038252601e8152602001807f43616e206f6e6c792062652063616c6c6564206279207265676973747279000081525060200191505060405180910390fd5b6107826037858154811061076b57fe5b9060005260206000209060070201600401546109f9565b8310156107da576040517f08c379a000000000000000000000000000000000000000000000000000000000815260040180806020018281038252603081526020018061215b6030913960400191505060405180910390fd5b600060018111156107e757fe5b603785815481106107f457fe5b906000526020600020906007020160060160009054906101000a900460ff16600181111561081e57fe5b14610874576040517f08c379a00000000000000000000000000000000000000000000000000000000081526004018080602001828103825260378152602001806120f66037913960400191505060405180910390fd5b61087c611f72565b6040518060a0016040528086815260200184815260200185815260200160345442018152602001600060028111156108b057fe5b815250905060006001603883908060018154018082558091505090600182039060005260206000209060050201600090919290919091506000820151816000015560208201518160010155604082015181600201556060820151816003015560808201518160040160006101000a81548160ff0219169083600281111561093357fe5b02179055505050039050603960008581526020019081526020016000208190806001815401808255809150509060018203906000526020600020016000909192909190915055506037868154811061098757fe5b906000526020600020906007020160050181908060018154018082558091505090600182039060005260206000200160009091929091909150555050509392505050565b603960205281600052604060002081815481106109e457fe5b90600052602060002001600091509150505481565b6000606460335460640160378481548110610a1057fe5b9060005260206000209060070201600401540281610a2a57fe5b049050919050565b6000808383039050600067d02ab486cedc00006f800000000000000000000000000000008388020281610a6157fe5b04905060006f80000000000000000000000000000000670de0b6b3a7640000610a8984611077565b0281610a9157fe5b0490508093505050509392505050565b60008060388381548110610ab157fe5b906000526020600020906005020160000154905060378181548110610ad257fe5b906000526020600020906007020160000154915050919050565b600060388281548110610afb57fe5b9060005260206000209060050201600101549050919050565b6000603660009054906101000a900473ffffffffffffffffffffffffffffffffffffffff1673ffffffffffffffffffffffffffffffffffffffff163373ffffffffffffffffffffffffffffffffffffffff1614610bd9576040517f08c379a000000000000000000000000000000000000000000000000000000000815260040180806020018281038252601e8152602001807f43616e206f6e6c792062652063616c6c6564206279207265676973747279000081525060200191505060405180910390fd5b60008211610c32576040517f08c379a000000000000000000000000000000000000000000000000000000000815260040180806020018281038252602281526020018061218b6022913960400191505060405180910390fd5b6000603a6000858152602001908152602001600020805490501115610d2c57600180811115610c5d57fe5b6037603a60008681526020019081526020016000206001603a6000888152602001908152602001600020805490500381548110610c9657fe5b906000526020600020015481548110610cab57fe5b906000526020600020906007020160060160009054906101000a900460ff166001811115610cd557fe5b14610d2b576040517f08c379a000000000000000000000000000000000000000000000000000000000815260040180806020018281038252602e815260200180612067602e913960400191505060405180910390fd5b5b6060610d36611fac565b6040518060e0016040528086815260200160355481526020014281526020016000815260200185815260200183815260200160006001811115610d7557fe5b81525090506000600160378390806001815401808255809150509060018203906000526020600020906007020160009091929091909150600082015181600001556020820151816001015560408201518160020155606082015181600301556080820151816004015560a0820151816005019080519060200190610dfa929190611ff4565b5060c08201518160060160006101000a81548160ff02191690836001811115610e1f57fe5b02179055505050039050603a600087815260200190815260200160002081908060018154018082558091505090600182039060005260206000200160009091929091909150555080935050505092915050565b603660009054906101000a900473ffffffffffffffffffffffffffffffffffffffff1673ffffffffffffffffffffffffffffffffffffffff163373ffffffffffffffffffffffffffffffffffffffff1614610f35576040517f08c379a000000000000000000000000000000000000000000000000000000000815260040180806020018281038252601e8152602001807f43616e206f6e6c792062652063616c6c6564206279207265676973747279000081525060200191505060405180910390fd5b8060378381548110610f4357fe5b9060005260206000209060070201600401819055505050565b6000610f66611fac565b60378381548110610f7357fe5b90600052602060002090600702016040518060e001604052908160008201548152602001600182015481526020016002820154815260200160038201548152602001600482015481526020016005820180548060200260200160405190810160405280929190818152602001828054801561100d57602002820191906000526020600020905b815481526020019060010190808311610ff9575b505050505081526020016006820160009054906101000a900460ff16600181111561103457fe5b600181111561103f57fe5b815250509050600061105f82608001518360200151846040015142611f37565b90506000826080015182039050809350505050919050565b600080600090506000806f10000000000000000000000000000000858161109a57fe5b0691508190506f80000000000000000000000000000000828202816110bb57fe5b0490506710e1b3be415a00008102830192506f80000000000000000000000000000000828202816110e857fe5b0490506705a0913f6b1e00008102830192506f800000000000000000000000000000008282028161111557fe5b049050670168244fdac780008102830192506f800000000000000000000000000000008282028161114257fe5b049050664807432bc180008102830192506f800000000000000000000000000000008282028161116e57fe5b049050660c0135dca040008102830192506f800000000000000000000000000000008282028161119a57fe5b0490506601b707b1cdc0008102830192506f80000000000000000000000000000000828202816111c657fe5b0490506536e0f639b8008102830192506f80000000000000000000000000000000828202816111f157fe5b049050650618fee9f8008102830192506f800000000000000000000000000000008282028161121c57fe5b049050649c197dcc008102830192506f800000000000000000000000000000008282028161124657fe5b049050640e30dce4008102830192506f800000000000000000000000000000008282028161127057fe5b04905064012ebd13008102830192506f800000000000000000000000000000008282028161129a57fe5b0490506317499f008102830192506f80000000000000000000000000000000828202816112c357fe5b0490506301a9d4808102830192506f80000000000000000000000000000000828202816112ec57fe5b049050621c63808102830192506f800000000000000000000000000000008282028161131457fe5b0490506201c6388102830192506f800000000000000000000000000000008282028161133c57fe5b049050611ab88102830192506f800000000000000000000000000000008282028161136357fe5b04905061017c8102830192506f800000000000000000000000000000008282028161138a57fe5b04905060148102830192506f80000000000000000000000000000000828202816113b057fe5b04905060018102830192506f80000000000000000000000000000000826721c3677c82b4000085816113de57fe5b040101925060006f1000000000000000000000000000000086161461142e5770018ebef9eac820ae8682b9793ac6d1e7767001c3d6a24ed82218787d624d3e5eba95f984028161142a57fe5b0492505b60006f20000000000000000000000000000000861614611479577001368b2fc6f9609fe7aceb46aa619baed470018ebef9eac820ae8682b9793ac6d1e77884028161147557fe5b0492505b60006f400000000000000000000000000000008616146114c3576fbc5ab1b16779be3575bd8f0520a9f21f7001368b2fc6f9609fe7aceb46aa619baed58402816114bf57fe5b0492505b60006f8000000000000000000000000000000086161461150c576f454aaa8efe072e7f6ddbab84b40a55c96fbc5ab1b16779be3575bd8f0520a9f21e84028161150857fe5b0492505b6000700100000000000000000000000000000000861614611556576f0960aadc109e7a3bf4578099615711ea6f454aaa8efe072e7f6ddbab84b40a55c584028161155257fe5b0492505b600070020000000000000000000000000000000086161461159f576e2bf84208204f5977f9a8cf01fdce3d6f0960aadc109e7a3bf4578099615711d784028161159b57fe5b0492505b60007004000000000000000000000000000000008616146115e6576d03c6ab775dd0b95b4cbee7e65d116e2bf84208204f5977f9a8cf01fdc3078402816115e257fe5b0492505b829350505050919050565b600080603a60008481526020019081526020016000208054905090506001811015611667576040517f08c379a00000000000000000000000000000000000000000000000000000000081526004018080602001828103825260278152602001806120956027913960400191505060405180910390fd5b603a6000848152602001908152602001600020600182038154811061168857fe5b9060005260206000200154915050919050565b600060019054906101000a900460ff16806116ba57506116b9611f61565b5b806116d157506000809054906101000a900460ff16155b611726576040517f08c379a000000000000000000000000000000000000000000000000000000000815260040180806020018281038252602e81526020018061212d602e913960400191505060405180910390fd5b60008060019054906101000a900460ff161590508015611776576001600060016101000a81548160ff02191690831515021790555060016000806101000a81548160ff0219169083151502179055505b81603660006101000a81548173ffffffffffffffffffffffffffffffffffffffff021916908373ffffffffffffffffffffffffffffffffffffffff16021790555080156117d85760008060016101000a81548160ff0219169083151502179055505b5050565b603660009054906101000a900473ffffffffffffffffffffffffffffffffffffffff1673ffffffffffffffffffffffffffffffffffffffff163373ffffffffffffffffffffffffffffffffffffffff161461189f576040517f08c379a000000000000000000000000000000000000000000000000000000000815260040180806020018281038252601e8152602001807f43616e206f6e6c792062652063616c6c6564206279207265676973747279000081525060200191505060405180910390fd5b6001603782815481106118ae57fe5b906000526020600020906007020160060160006101000a81548160ff021916908360018111156118da57fe5b021790555050565b603660009054906101000a900473ffffffffffffffffffffffffffffffffffffffff1673ffffffffffffffffffffffffffffffffffffffff163373ffffffffffffffffffffffffffffffffffffffff16146119a5576040517f08c379a000000000000000000000000000000000000000000000000000000000815260040180806020018281038252601e8152602001807f43616e206f6e6c792062652063616c6c6564206279207265676973747279000081525060200191505060405180910390fd5b42603782815481106119b357fe5b90600052602060002090600702016002018190555050565b6000603660009054906101000a900473ffffffffffffffffffffffffffffffffffffffff1673ffffffffffffffffffffffffffffffffffffffff163373ffffffffffffffffffffffffffffffffffffffff1614611a90576040517f08c379a000000000000000000000000000000000000000000000000000000000815260040180806020018281038252601e8152602001807f43616e206f6e6c792062652063616c6c6564206279207265676973747279000081525060200191505060405180910390fd5b611a98611f72565b60388381548110611aa557fe5b90600052602060002090600502016040518060a0016040529081600082015481526020016001820154815260200160028201548152602001600382015481526020016004820160009054906101000a900460ff166002811115611b0457fe5b6002811115611b0f57fe5b815250509050611b1d611fac565b6037826000015181548110611b2e57fe5b90600052602060002090600702016040518060e0016040529081600082015481526020016001820154815260200160028201548152602001600382015481526020016004820154815260200160058201805480602002602001604051908101604052809291908181526020018280548015611bc857602002820191906000526020600020905b815481526020019060010190808311611bb4575b505050505081526020016006820160009054906101000a900460ff166001811115611bef57fe5b6001811115611bfa57fe5b81525050905060006002811115611c0d57fe5b82608001516002811115611c1d57fe5b14611c73576040517f08c379a000000000000000000000000000000000000000000000000000000000815260040180806020018281038252602d8152602001806121ad602d913960400191505060405180910390fd5b42826060015110611ccf576040517f08c379a000000000000000000000000000000000000000000000000000000000815260040180806020018281038252603a8152602001806120bc603a913960400191505060405180910390fd5b611cdc81608001516109f9565b82604001511015611d3257600260388581548110611cf657fe5b906000526020600020906005020160040160006101000a81548160ff02191690836002811115611d2257fe5b0217905550600092505050611df4565b611d3f81608001516109f9565b82604001511115611df157600160388581548110611d5957fe5b906000526020600020906005020160040160006101000a81548160ff02191690836002811115611d8557fe5b021790555081604001516037836000015181548110611da057fe5b90600052602060002090600702016004018190555060016037836000015181548110611dc857fe5b906000526020600020906007020160030160008282540192505081905550600192505050611df4565b50505b919050565b600080600080600060606000611e0d611fac565b60378981548110611e1a57fe5b90600052602060002090600702016040518060e0016040529081600082015481526020016001820154815260200160028201548152602001600382015481526020016004820154815260200160058201805480602002602001604051908101604052809291908181526020018280548015611eb457602002820191906000526020600020905b815481526020019060010190808311611ea0575b505050505081526020016006820160009054906101000a900460ff166001811115611edb57fe5b6001811115611ee657fe5b815250509050806000015181602001518260400151836060015184608001518560a001518660c001516001811115611f1a57fe5b819150975097509750975097509750975050919395979092949650565b6000670de0b6b3a764000085611f4e868686610a32565b0281611f5657fe5b049050949350505050565b600080303b90506000811491505090565b6040518060a001604052806000815260200160008152602001600081526020016000815260200160006002811115611fa657fe5b81525090565b6040518060e0016040528060008152602001600081526020016000815260200160008152602001600081526020016060815260200160006001811115611fee57fe5b81525090565b828054828255906000526020600020908101928215612030579160200282015b8281111561202f578251825591602001919060010190612014565b5b50905061203d9190612041565b5090565b61206391905b8082111561205f576000816000905550600101612047565b5090565b9056fe43616e206f6e6c792063726561746520746178206f626a6563742069662070726576696f7573207265766f6b65645468657265206973206e6f20746178206f626a65637420666f722074686973206c6963656e636563616e206f6e6c792066696e616c697a65206275796f75742069662069742069732070617374207468652065787069726174696f6e2074696d6543616e206f6e6c79207375626d69742061206275796f757420746f20616e206163746976652061637469766520746178206f626a656374436f6e747261637420696e7374616e63652068617320616c7265616479206265656e20696e697469616c697a656456616c75652073656e74206973206c657373207468616e20746865206d696e696d756d206275796f757420707269636556616c7565206e6565647320746f206265206c6172676572207468616e207a65726f43616e206f6e6c792066696e616c697a65206275796f7574206966206275796f75742069732070656e64696e67a265627a7a723158207b8e096775e98f4dc76c2187496b90358a91796b468f865c6b8068ed9b3b9ba864736f6c634300050c0032",
  "source": "pragma solidity ^0.5.12;\n\nimport \"@openzeppelin/upgrades/contracts/Initializable.sol\";\n\ncontract HarbergerTaxManager is Initializable {\n    uint256 private constant FIXED_1 = 0x080000000000000000000000000000000;\n    //percentage increase over previous price that must be paid to buy out the licence\n    uint256 MIN_BUYOUT_PRICE_INCREASE = 5;\n    //a buyout has an expiratory of 10 days for the owner to raize the price or loose the licence\n    uint256 BUYOUT_TIMEOUT = 60 * 60 * 24 * 10;\n    // 4% compounding per block, scaled 1e18\n    uint256 FIXED_INTEREST_RATE_PER_BLOCK = 19025875190;\n\n    address registry;\n\n    enum TaxObjectStatus {Active, Revoked}\n\n    struct TaxObject {\n        uint256 licenceId;\n        uint256 ratePerBlock;\n        uint256 lastPayment;\n        uint256 numberOfOutBids;\n        uint256 currentAssignedValue;\n        uint256[] buyout_Ids;\n        TaxObjectStatus status;\n    }\n\n    TaxObject[] taxObjects;\n\n    enum BuyoutStatus {Pending, Successful, OutBid}\n\n    struct BuyOut {\n        uint256 taxObject_Id;\n        uint256 buyoutOwner_Id;\n        uint256 buyoutAmount;\n        uint256 buyOutExpiration;\n        BuyoutStatus status;\n    }\n\n    BuyOut[] buyOuts;\n\n    mapping(uint256 => uint256[]) public buyOutOwners;\n\n    mapping(uint256 => uint256[]) public licenceTaxObjects;\n\n    modifier onlyRegistry() {\n        require(msg.sender == registry, \"Can only be called by registry\");\n        _;\n    }\n\n    function initialize(address _unicoinRegistry) public initializer {\n        registry = _unicoinRegistry;\n\n    }\n\n    function createTaxObject(\n        uint256 _licence_Id,\n        // uint256 _ratePerBlock,\n        uint256 _currentAssignedValue\n    ) public onlyRegistry returns (uint256) {\n        require(\n            _currentAssignedValue > 0,\n            \"Value needs to be larger than zero\"\n        );\n\n        //if there were previous tax objects then they must have been revoked\n        if (licenceTaxObjects[_licence_Id].length > 0) {\n            require(\n                taxObjects[licenceTaxObjects[_licence_Id][licenceTaxObjects[_licence_Id]\n                    .length -\n                    1]]\n                    .status ==\n                    TaxObjectStatus.Revoked,\n                \"Can only create tax object if previous revoked\"\n            );\n        }\n\n        uint256[] memory buyOutIds;\n        TaxObject memory taxObject = TaxObject(\n            _licence_Id,\n            FIXED_INTEREST_RATE_PER_BLOCK,\n            now,\n            0,\n            _currentAssignedValue,\n            buyOutIds,\n            TaxObjectStatus.Active\n        );\n\n        uint256 taxObjectId = taxObjects.push(taxObject) - 1;\n\n        licenceTaxObjects[_licence_Id].push(taxObjectId);\n\n        return taxObjectId;\n    }\n\n    function calculateOutstandingTax(uint256 _taxObject_Id)\n        public\n        view\n        returns (uint256)\n    {\n        TaxObject memory taxObject = taxObjects[_taxObject_Id];\n        uint256 futureValue = futureValue(\n            taxObject.currentAssignedValue,\n            taxObject.ratePerBlock,\n            taxObject.lastPayment,\n            now\n        );\n\n        uint256 interestOutstanding = futureValue -\n            taxObject.currentAssignedValue;\n        return interestOutstanding;\n    }\n\n    function calculateMinBuyOutPrice(uint256 _taxObject_Id)\n        public\n        view\n        returns (uint256)\n    {\n        return\n            (taxObjects[_taxObject_Id].currentAssignedValue *\n                (100 + MIN_BUYOUT_PRICE_INCREASE)) /\n            100;\n    }\n\n    function _updateTaxObjectLastPayment(uint256 _taxObject_Id)\n        public\n        onlyRegistry\n    {\n        taxObjects[_taxObject_Id].lastPayment = now;\n    }\n\n    function _updateTaxObjectValuation(\n        uint256 _taxObject_Id,\n        uint256 _assignedValue\n    ) public onlyRegistry {\n        taxObjects[_taxObject_Id].currentAssignedValue = _assignedValue;\n    }\n\n    function submitBuyOut(\n        uint256 _taxObject,\n        uint256 _offer,\n        uint256 _buyOutOwner_Id\n    ) public onlyRegistry returns (uint256) {\n        require(\n            _offer >=\n                calculateMinBuyOutPrice(\n                    taxObjects[_taxObject].currentAssignedValue\n                ),\n            \"Value sent is less than the minimum buyout price\"\n        );\n\n        require(\n            taxObjects[_taxObject].status == TaxObjectStatus.Active,\n            \"Can only submit a buyout to an active active tax object\"\n        );\n\n        BuyOut memory buyOut = BuyOut(\n            _taxObject,\n            _buyOutOwner_Id,\n            _offer,\n            now + BUYOUT_TIMEOUT,\n            BuyoutStatus.Pending\n        );\n\n        uint256 buyOut_Id = buyOuts.push(buyOut) - 1;\n        buyOutOwners[_buyOutOwner_Id].push(buyOut_Id);\n        taxObjects[_taxObject].buyout_Ids.push(buyOut_Id);\n    }\n\n    function finalizeBuyOutOffer(uint256 _buyOut_Id)\n        public\n        onlyRegistry\n        returns (bool)\n    {\n        BuyOut memory buyOut = buyOuts[_buyOut_Id];\n        TaxObject memory taxObject = taxObjects[buyOut.taxObject_Id];\n        require(\n            buyOut.status == BuyoutStatus.Pending,\n            \"Can only finalize buyout if buyout is pending\"\n        );\n        require(\n            buyOut.buyOutExpiration < now,\n            \"can only finalize buyout if it is past the expiration time\"\n        );\n        if (\n            buyOut.buyoutAmount <\n            calculateMinBuyOutPrice(taxObject.currentAssignedValue)\n        ) {\n            buyOuts[_buyOut_Id].status = BuyoutStatus.OutBid;\n            return false; //the buyout was not enough and so failed\n        }\n        if (\n            buyOut.buyoutAmount >\n            calculateMinBuyOutPrice(taxObject.currentAssignedValue)\n        ) {\n            buyOuts[_buyOut_Id].status = BuyoutStatus.Successful;\n            taxObjects[buyOut.taxObject_Id].currentAssignedValue = buyOut\n                .buyoutAmount;\n            taxObjects[buyOut.taxObject_Id].numberOfOutBids += 1;\n            return true;\n        }\n    }\n\n    function revokeTaxObject(uint256 _taxObject_Id) public onlyRegistry {\n        taxObjects[_taxObject_Id].status = TaxObjectStatus.Revoked;\n    }\n\n    function getLicenceTaxObjectId(uint256 _licence_Id)\n        public\n        view\n        returns (uint256)\n    {\n        uint256 numOfTaxObjects = licenceTaxObjects[_licence_Id].length;\n        require(\n            numOfTaxObjects >= 1,\n            \"There is no tax object for this licence\"\n        );\n        return licenceTaxObjects[_licence_Id][numOfTaxObjects - 1];\n    }\n\n    function getTaxObject(uint256 _taxObject_Id)\n        public\n        view\n        returns (\n            uint256,\n            uint256,\n            uint256,\n            uint256,\n            uint256,\n            uint256[] memory,\n            uint8\n        )\n    {\n        TaxObject memory taxObject = taxObjects[_taxObject_Id];\n        return (\n            taxObject.licenceId,\n            taxObject.ratePerBlock,\n            taxObject.lastPayment,\n            taxObject.numberOfOutBids,\n            taxObject.currentAssignedValue,\n            taxObject.buyout_Ids,\n            uint8(taxObject.status)\n        );\n    }\n\n    function getBuyOutLicenceId(uint256 _buyOut_Id)\n        public\n        view\n        returns (uint256)\n    {\n        uint256 taxObject_Id = buyOuts[_buyOut_Id].taxObject_Id;\n        return taxObjects[taxObject_Id].licenceId;\n    }\n\n    function getBuyOutOwnerId(uint256 _buyOut_Id)\n        public\n        view\n        returns (uint256)\n    {\n        return buyOuts[_buyOut_Id].buyoutOwner_Id;\n    }\n\n    /**\n      * @dev computes e ^ (x / FIXED_1) * FIXED_1\n      * input range: 0 <= x <= OPT_EXP_MAX_VAL - 1\n      * Detailed description:\n      * - Rewrite the input as a sum of binary exponents and a single residual r, as small as possible\n      * - The exponentiation of each binary exponent is given (pre-calculated)\n      * - The exponentiation of r is calculated via Taylor series for e^x, where x = r\n      * - The exponentiation of the input is calculated by multiplying the intermediate results above\n      * - For example: e^5.521692859 = e^(4 + 1 + 0.5 + 0.021692859) = e^4 * e^1 * e^0.5 * e^0.021692859\n    */\n    function optimalExp(uint256 x) public pure returns (uint256) {\n        uint256 res = 0;\n\n        uint256 y;\n        uint256 z;\n\n        z = y = x % 0x10000000000000000000000000000000; // get the input modulo 2^(-3)\n        z = (z * y) / FIXED_1;\n        res += z * 0x10e1b3be415a0000; // add y^02 * (20! / 02!)\n        z = (z * y) / FIXED_1;\n        res += z * 0x05a0913f6b1e0000; // add y^03 * (20! / 03!)\n        z = (z * y) / FIXED_1;\n        res += z * 0x0168244fdac78000; // add y^04 * (20! / 04!)\n        z = (z * y) / FIXED_1;\n        res += z * 0x004807432bc18000; // add y^05 * (20! / 05!)\n        z = (z * y) / FIXED_1;\n        res += z * 0x000c0135dca04000; // add y^06 * (20! / 06!)\n        z = (z * y) / FIXED_1;\n        res += z * 0x0001b707b1cdc000; // add y^07 * (20! / 07!)\n        z = (z * y) / FIXED_1;\n        res += z * 0x000036e0f639b800; // add y^08 * (20! / 08!)\n        z = (z * y) / FIXED_1;\n        res += z * 0x00000618fee9f800; // add y^09 * (20! / 09!)\n        z = (z * y) / FIXED_1;\n        res += z * 0x0000009c197dcc00; // add y^10 * (20! / 10!)\n        z = (z * y) / FIXED_1;\n        res += z * 0x0000000e30dce400; // add y^11 * (20! / 11!)\n        z = (z * y) / FIXED_1;\n        res += z * 0x000000012ebd1300; // add y^12 * (20! / 12!)\n        z = (z * y) / FIXED_1;\n        res += z * 0x0000000017499f00; // add y^13 * (20! / 13!)\n        z = (z * y) / FIXED_1;\n        res += z * 0x0000000001a9d480; // add y^14 * (20! / 14!)\n        z = (z * y) / FIXED_1;\n        res += z * 0x00000000001c6380; // add y^15 * (20! / 15!)\n        z = (z * y) / FIXED_1;\n        res += z * 0x000000000001c638; // add y^16 * (20! / 16!)\n        z = (z * y) / FIXED_1;\n        res += z * 0x0000000000001ab8; // add y^17 * (20! / 17!)\n        z = (z * y) / FIXED_1;\n        res += z * 0x000000000000017c; // add y^18 * (20! / 18!)\n        z = (z * y) / FIXED_1;\n        res += z * 0x0000000000000014; // add y^19 * (20! / 19!)\n        z = (z * y) / FIXED_1;\n        res += z * 0x0000000000000001; // add y^20 * (20! / 20!)\n        res = res / 0x21c3677c82b40000 + y + FIXED_1; // divide by 20! and then add y^1 / 1! + y^0 / 0!\n\n        if ((x & 0x010000000000000000000000000000000) != 0)\n            res =\n                (res * 0x1c3d6a24ed82218787d624d3e5eba95f9) /\n                0x18ebef9eac820ae8682b9793ac6d1e776; // multiply by e^2^(-3)\n        if ((x & 0x020000000000000000000000000000000) != 0)\n            res =\n                (res * 0x18ebef9eac820ae8682b9793ac6d1e778) /\n                0x1368b2fc6f9609fe7aceb46aa619baed4; // multiply by e^2^(-2)\n        if ((x & 0x040000000000000000000000000000000) != 0)\n            res =\n                (res * 0x1368b2fc6f9609fe7aceb46aa619baed5) /\n                0x0bc5ab1b16779be3575bd8f0520a9f21f; // multiply by e^2^(-1)\n        if ((x & 0x080000000000000000000000000000000) != 0)\n            res =\n                (res * 0x0bc5ab1b16779be3575bd8f0520a9f21e) /\n                0x0454aaa8efe072e7f6ddbab84b40a55c9; // multiply by e^2^(+0)\n        if ((x & 0x100000000000000000000000000000000) != 0)\n            res =\n                (res * 0x0454aaa8efe072e7f6ddbab84b40a55c5) /\n                0x00960aadc109e7a3bf4578099615711ea; // multiply by e^2^(+1)\n        if ((x & 0x200000000000000000000000000000000) != 0)\n            res =\n                (res * 0x00960aadc109e7a3bf4578099615711d7) /\n                0x0002bf84208204f5977f9a8cf01fdce3d; // multiply by e^2^(+2)\n        if ((x & 0x400000000000000000000000000000000) != 0)\n            res =\n                (res * 0x0002bf84208204f5977f9a8cf01fdc307) /\n                0x0000003c6ab775dd0b95b4cbee7e65d11; // multiply by e^2^(+3)\n\n        return res;\n    }\n\n    function capFunction(uint256 r, uint256 t1, uint256 t2)\n        public\n        pure\n        returns (uint256)\n    {\n        uint256 t = t2 - t1;\n        uint256 x = (r * t * FIXED_1) / (15 * 10**18);\n        uint256 c = (optimalExp(x) * 10**18) / FIXED_1;\n        return c;\n    }\n\n    function futureValue(uint256 N, uint256 r, uint256 t1, uint256 t2)\n        public\n        pure\n        returns (uint256)\n    {\n        return (capFunction(r, t1, t2) * N) / 10**18;\n    }\n}\n",
  "sourcePath": "/Users/chris/Projects/unicoindapp/contracts/HarbergerTaxManager.sol",
  "compiler": {
    "name": "solc",
    "version": "0.5.12+commit.7709ece9.Emscripten.clang"
  },
  "schemaVersion": "3.0.16",
  "updatedAt": "2019-12-01T08:57:46.690Z",
  "devdoc": {
    "methods": {
      "optimalExp(uint256)": {
        "details": "computes e ^ (x / FIXED_1) * FIXED_1 input range: 0 <= x <= OPT_EXP_MAX_VAL - 1 Detailed description: - Rewrite the input as a sum of binary exponents and a single residual r, as small as possible - The exponentiation of each binary exponent is given (pre-calculated) - The exponentiation of r is calculated via Taylor series for e^x, where x = r - The exponentiation of the input is calculated by multiplying the intermediate results above - For example: e^5.521692859 = e^(4 + 1 + 0.5 + 0.021692859) = e^4 * e^1 * e^0.5 * e^0.021692859"
      }
    }
  },
  "userdoc": {
    "methods": {}
  }
}