{
  "contractName": "LicenceManager",
  "abi": [
    {
      "anonymous": false,
      "inputs": [
        {
          "indexed": true,
          "internalType": "address",
          "name": "owner",
          "type": "address"
        },
        {
          "indexed": true,
          "internalType": "address",
          "name": "approved",
          "type": "address"
        },
        {
          "indexed": true,
          "internalType": "uint256",
          "name": "tokenId",
          "type": "uint256"
        }
      ],
      "name": "Approval",
      "type": "event"
    },
    {
      "anonymous": false,
      "inputs": [
        {
          "indexed": true,
          "internalType": "address",
          "name": "owner",
          "type": "address"
        },
        {
          "indexed": true,
          "internalType": "address",
          "name": "operator",
          "type": "address"
        },
        {
          "indexed": false,
          "internalType": "bool",
          "name": "approved",
          "type": "bool"
        }
      ],
      "name": "ApprovalForAll",
      "type": "event"
    },
    {
      "anonymous": false,
      "inputs": [
        {
          "indexed": true,
          "internalType": "address",
          "name": "from",
          "type": "address"
        },
        {
          "indexed": true,
          "internalType": "address",
          "name": "to",
          "type": "address"
        },
        {
          "indexed": true,
          "internalType": "uint256",
          "name": "tokenId",
          "type": "uint256"
        }
      ],
      "name": "Transfer",
      "type": "event"
    },
    {
      "inputs": [
        {
          "internalType": "address",
          "name": "to",
          "type": "address"
        },
        {
          "internalType": "uint256",
          "name": "tokenId",
          "type": "uint256"
        }
      ],
      "name": "approve",
      "outputs": [],
      "stateMutability": "nonpayable",
      "type": "function"
    },
    {
      "inputs": [
        {
          "internalType": "address",
          "name": "owner",
          "type": "address"
        }
      ],
      "name": "balanceOf",
      "outputs": [
        {
          "internalType": "uint256",
          "name": "",
          "type": "uint256"
        }
      ],
      "stateMutability": "view",
      "type": "function"
    },
    {
      "inputs": [
        {
          "internalType": "uint256",
          "name": "tokenId",
          "type": "uint256"
        }
      ],
      "name": "getApproved",
      "outputs": [
        {
          "internalType": "address",
          "name": "",
          "type": "address"
        }
      ],
      "stateMutability": "view",
      "type": "function"
    },
    {
      "inputs": [
        {
          "internalType": "address",
          "name": "owner",
          "type": "address"
        },
        {
          "internalType": "address",
          "name": "operator",
          "type": "address"
        }
      ],
      "name": "isApprovedForAll",
      "outputs": [
        {
          "internalType": "bool",
          "name": "",
          "type": "bool"
        }
      ],
      "stateMutability": "view",
      "type": "function"
    },
    {
      "inputs": [
        {
          "internalType": "address",
          "name": "forwarder",
          "type": "address"
        }
      ],
      "name": "isTrustedForwarder",
      "outputs": [
        {
          "internalType": "bool",
          "name": "",
          "type": "bool"
        }
      ],
      "stateMutability": "view",
      "type": "function"
    },
    {
      "inputs": [
        {
          "internalType": "uint256",
          "name": "",
          "type": "uint256"
        },
        {
          "internalType": "uint256",
          "name": "",
          "type": "uint256"
        }
      ],
      "name": "licenceOwners",
      "outputs": [
        {
          "internalType": "uint256",
          "name": "",
          "type": "uint256"
        }
      ],
      "stateMutability": "view",
      "type": "function"
    },
    {
      "inputs": [
        {
          "internalType": "uint256",
          "name": "",
          "type": "uint256"
        }
      ],
      "name": "licences",
      "outputs": [
        {
          "internalType": "uint256",
          "name": "ownerId",
          "type": "uint256"
        },
        {
          "internalType": "uint256",
          "name": "publicationId",
          "type": "uint256"
        },
        {
          "internalType": "uint256",
          "name": "publicationLicenceNo",
          "type": "uint256"
        },
        {
          "internalType": "enum LicenceManager.LicenceStatus",
          "name": "status",
          "type": "uint8"
        }
      ],
      "stateMutability": "view",
      "type": "function"
    },
    {
      "inputs": [],
      "name": "name",
      "outputs": [
        {
          "internalType": "string",
          "name": "",
          "type": "string"
        }
      ],
      "stateMutability": "view",
      "type": "function"
    },
    {
      "inputs": [
        {
          "internalType": "uint256",
          "name": "tokenId",
          "type": "uint256"
        }
      ],
      "name": "ownerOf",
      "outputs": [
        {
          "internalType": "address",
          "name": "",
          "type": "address"
        }
      ],
      "stateMutability": "view",
      "type": "function"
    },
    {
      "inputs": [
        {
          "internalType": "uint256",
          "name": "",
          "type": "uint256"
        },
        {
          "internalType": "uint256",
          "name": "",
          "type": "uint256"
        }
      ],
      "name": "publicationLicences",
      "outputs": [
        {
          "internalType": "uint256",
          "name": "",
          "type": "uint256"
        }
      ],
      "stateMutability": "view",
      "type": "function"
    },
    {
      "inputs": [
        {
          "internalType": "address",
          "name": "from",
          "type": "address"
        },
        {
          "internalType": "address",
          "name": "to",
          "type": "address"
        },
        {
          "internalType": "uint256",
          "name": "tokenId",
          "type": "uint256"
        }
      ],
      "name": "safeTransferFrom",
      "outputs": [],
      "stateMutability": "nonpayable",
      "type": "function"
    },
    {
      "inputs": [
        {
          "internalType": "address",
          "name": "from",
          "type": "address"
        },
        {
          "internalType": "address",
          "name": "to",
          "type": "address"
        },
        {
          "internalType": "uint256",
          "name": "tokenId",
          "type": "uint256"
        },
        {
          "internalType": "bytes",
          "name": "_data",
          "type": "bytes"
        }
      ],
      "name": "safeTransferFrom",
      "outputs": [],
      "stateMutability": "nonpayable",
      "type": "function"
    },
    {
      "inputs": [
        {
          "internalType": "address",
          "name": "operator",
          "type": "address"
        },
        {
          "internalType": "bool",
          "name": "approved",
          "type": "bool"
        }
      ],
      "name": "setApprovalForAll",
      "outputs": [],
      "stateMutability": "nonpayable",
      "type": "function"
    },
    {
      "inputs": [
        {
          "internalType": "bytes4",
          "name": "interfaceId",
          "type": "bytes4"
        }
      ],
      "name": "supportsInterface",
      "outputs": [
        {
          "internalType": "bool",
          "name": "",
          "type": "bool"
        }
      ],
      "stateMutability": "view",
      "type": "function"
    },
    {
      "inputs": [],
      "name": "symbol",
      "outputs": [
        {
          "internalType": "string",
          "name": "",
          "type": "string"
        }
      ],
      "stateMutability": "view",
      "type": "function"
    },
    {
      "inputs": [
        {
          "internalType": "uint256",
          "name": "tokenId",
          "type": "uint256"
        }
      ],
      "name": "tokenURI",
      "outputs": [
        {
          "internalType": "string",
          "name": "",
          "type": "string"
        }
      ],
      "stateMutability": "view",
      "type": "function"
    },
    {
      "inputs": [
        {
          "internalType": "address",
          "name": "from",
          "type": "address"
        },
        {
          "internalType": "address",
          "name": "to",
          "type": "address"
        },
        {
          "internalType": "uint256",
          "name": "tokenId",
          "type": "uint256"
        }
      ],
      "name": "transferFrom",
      "outputs": [],
      "stateMutability": "nonpayable",
      "type": "function"
    },
    {
      "inputs": [
        {
          "internalType": "string",
          "name": "_name",
          "type": "string"
        },
        {
          "internalType": "string",
          "name": "_symbol",
          "type": "string"
        },
        {
          "internalType": "address",
          "name": "_unicoinRegistry",
          "type": "address"
        },
        {
          "internalType": "address",
          "name": "_trustedForwarder",
          "type": "address"
        }
      ],
      "name": "initialize",
      "outputs": [],
      "stateMutability": "nonpayable",
      "type": "function"
    },
    {
      "inputs": [
        {
          "internalType": "address",
          "name": "_ownerAddress",
          "type": "address"
        },
        {
          "internalType": "uint256",
          "name": "_ownerId",
          "type": "uint256"
        },
        {
          "internalType": "uint256",
          "name": "_publicationId",
          "type": "uint256"
        },
        {
          "internalType": "uint256",
          "name": "_publicationLicenceNo",
          "type": "uint256"
        }
      ],
      "name": "registerNewLicence",
      "outputs": [
        {
          "internalType": "uint256",
          "name": "",
          "type": "uint256"
        }
      ],
      "stateMutability": "nonpayable",
      "type": "function"
    },
    {
      "inputs": [
        {
          "internalType": "uint256",
          "name": "_licenceId",
          "type": "uint256"
        }
      ],
      "name": "revokeLicence",
      "outputs": [],
      "stateMutability": "nonpayable",
      "type": "function"
    },
    {
      "inputs": [
        {
          "internalType": "uint256",
          "name": "_userId",
          "type": "uint256"
        }
      ],
      "name": "getLicenceForUser",
      "outputs": [
        {
          "internalType": "uint256[]",
          "name": "",
          "type": "uint256[]"
        }
      ],
      "stateMutability": "view",
      "type": "function"
    },
    {
      "inputs": [
        {
          "internalType": "uint256",
          "name": "_licenceId",
          "type": "uint256"
        },
        {
          "internalType": "uint256",
          "name": "_newOwnerId",
          "type": "uint256"
        },
        {
          "internalType": "address",
          "name": "_oldOwnerAddress",
          "type": "address"
        },
        {
          "internalType": "address",
          "name": "_newOwnerAddress",
          "type": "address"
        }
      ],
      "name": "allocateLicenceToNewOwner",
      "outputs": [],
      "stateMutability": "nonpayable",
      "type": "function"
    },
    {
      "inputs": [
        {
          "internalType": "uint256",
          "name": "_licenceId",
          "type": "uint256"
        }
      ],
      "name": "getLicence",
      "outputs": [
        {
          "internalType": "uint256",
          "name": "",
          "type": "uint256"
        },
        {
          "internalType": "uint256",
          "name": "",
          "type": "uint256"
        },
        {
          "internalType": "uint256",
          "name": "",
          "type": "uint256"
        },
        {
          "internalType": "uint8",
          "name": "",
          "type": "uint8"
        }
      ],
      "stateMutability": "view",
      "type": "function"
    },
    {
      "inputs": [
        {
          "internalType": "uint256",
          "name": "_licenceId",
          "type": "uint256"
        }
      ],
      "name": "getLicenceOwnerId",
      "outputs": [
        {
          "internalType": "uint256",
          "name": "",
          "type": "uint256"
        }
      ],
      "stateMutability": "view",
      "type": "function"
    },
    {
      "inputs": [
        {
          "internalType": "uint256",
          "name": "_publicationId",
          "type": "uint256"
        }
      ],
      "name": "getPublicationLicences",
      "outputs": [
        {
          "internalType": "uint256[]",
          "name": "",
          "type": "uint256[]"
        }
      ],
      "stateMutability": "view",
      "type": "function"
    },
    {
      "inputs": [
        {
          "internalType": "uint256",
          "name": "_publicationId",
          "type": "uint256"
        }
      ],
      "name": "getMostRecentPublicationLicence",
      "outputs": [
        {
          "internalType": "uint256",
          "name": "",
          "type": "uint256"
        }
      ],
      "stateMutability": "view",
      "type": "function"
    }
  ],
  "bytecode": "0x608060405234801561001057600080fd5b50612298806100206000396000f3fe608060405234801561001057600080fd5b50600436106101ae5760003560e01c80638f15b414116100ee578063b88d4fde11610097578063d628d54011610071578063d628d540146103d8578063e985e9c5146103eb578063f8ede44a14610427578063fbd9d2eb1461043a57600080fd5b8063b88d4fde1461038f578063bb44aee3146103a2578063c87b56dd146103c557600080fd5b80639787bb41116100c85780639787bb4114610349578063a22cb46514610369578063af5485a81461037c57600080fd5b80638f15b4141461031b57806392c6830f1461032e57806395d89b411461034157600080fd5b80633a7ae75d1161015b578063572b6c0511610135578063572b6c05146102c05780635c290cc6146102e25780636352211e146102f557806370a082311461030857600080fd5b80633a7ae75d1461027957806342842e0e1461028c5780634cd541841461029f57600080fd5b8063095ea7b31161018c578063095ea7b31461021b57806323b872dd146102305780632cedebee1461024357600080fd5b806301ffc9a7146101b357806306fdde03146101db578063081812fc146101f0575b600080fd5b6101c66101c1366004611c22565b61044d565b60405190151581526020015b60405180910390f35b6101e361049f565b6040516101d29190611c97565b6102036101fe366004611caa565b610531565b6040516001600160a01b0390911681526020016101d2565b61022e610229366004611cdf565b6105cb565b005b61022e61023e366004611d09565b6106f3565b610256610251366004611caa565b610775565b6040805194855260208501939093529183015260ff1660608201526080016101d2565b61022e610287366004611caa565b610837565b61022e61029a366004611d09565b610924565b6102b26102ad366004611caa565b61093f565b6040519081526020016101d2565b6101c66102ce366004611d45565b6097546001600160a01b0391821691161490565b61022e6102f0366004611d60565b6109d2565b610203610303366004611caa565b610a72565b6102b2610316366004611d45565b610ae9565b61022e610329366004611e52565b610b70565b6102b261033c366004611caa565b610c6a565b6101e3610c98565b61035c610357366004611caa565b610ca7565b6040516101d29190611ebe565b61022e610377366004611f02565b610d09565b6102b261038a366004611f3e565b610d1f565b61022e61039d366004611f77565b610f26565b6103b56103b0366004611caa565b610fa9565b6040516101d29493929190612009565b6101e36103d3366004611caa565b610fe6565b6102b26103e636600461204b565b6110dc565b6101c66103f936600461206d565b6001600160a01b039182166000908152606a6020908152604080832093909416825291909152205460ff1690565b6102b261043536600461204b565b61110d565b61035c610448366004611caa565b611129565b60006001600160e01b031982166380ac58cd60e01b148061047e57506001600160e01b03198216635b5e139f60e01b145b8061049957506301ffc9a760e01b6001600160e01b03198316145b92915050565b6060606580546104ae906120a0565b80601f01602080910402602001604051908101604052809291908181526020018280546104da906120a0565b80156105275780601f106104fc57610100808354040283529160200191610527565b820191906000526020600020905b81548152906001019060200180831161050a57829003601f168201915b5050505050905090565b6000818152606760205260408120546001600160a01b03166105af5760405162461bcd60e51b815260206004820152602c60248201527f4552433732313a20617070726f76656420717565727920666f72206e6f6e657860448201526b34b9ba32b73a103a37b5b2b760a11b60648201526084015b60405180910390fd5b506000908152606960205260409020546001600160a01b031690565b60006105d682610a72565b9050806001600160a01b0316836001600160a01b031614156106445760405162461bcd60e51b815260206004820152602160248201527f4552433732313a20617070726f76616c20746f2063757272656e74206f776e656044820152603960f91b60648201526084016105a6565b806001600160a01b0316610656611189565b6001600160a01b031614806106725750610672816103f9611189565b6106e45760405162461bcd60e51b815260206004820152603860248201527f4552433732313a20617070726f76652063616c6c6572206973206e6f74206f7760448201527f6e6572206e6f7220617070726f76656420666f7220616c6c000000000000000060648201526084016105a6565b6106ee8383611198565b505050565b6107046106fe611189565b82611206565b61076a5760405162461bcd60e51b815260206004820152603160248201527f4552433732313a207472616e736665722063616c6c6572206973206e6f74206f6044820152701ddb995c881b9bdc88185c1c1c9bdd9959607a1b60648201526084016105a6565b6106ee8383836112f9565b600080600080600060cb8681548110610790576107906120db565b90600052602060002090600402016040518060800160405290816000820154815260200160018201548152602001600282015481526020016003820160009054906101000a900460ff1660018111156107eb576107eb611ff3565b60018111156107fc576107fc611ff3565b8152505090508060000151816020015182604001518360600151600181111561082757610827611ff3565b9450945094509450509193509193565b60ce546001600160a01b031661084b611189565b6001600160a01b0316146108a15760405162461bcd60e51b815260206004820152601e60248201527f43616e206f6e6c792062652063616c6c6564206279207265676973747279000060448201526064016105a6565b600160cb82815481106108b6576108b66120db565b60009182526020909120600360049092020101805460ff1916600183818111156108e2576108e2611ff3565b0217905550600160cb82815481106108fc576108fc6120db565b9060005260206000209060040201600201600082825461091c9190612107565b909155505050565b6106ee83838360405180602001604052806000815250610f26565b60008061094b83611129565b5190506000811161099e5760405162461bcd60e51b815260206004820152601160248201527f6e6f206c6963656e63657320666f756e6400000000000000000000000000000060448201526064016105a6565b6109a783611129565b6109b2600183612107565b815181106109c2576109c26120db565b6020026020010151915050919050565b60ce546001600160a01b03166109e6611189565b6001600160a01b031614610a3c5760405162461bcd60e51b815260206004820152601e60248201527f43616e206f6e6c792062652063616c6c6564206279207265676973747279000060448201526064016105a6565b8260cb8581548110610a5057610a506120db565b6000918252602090912060049091020155610a6c8282866106f3565b50505050565b6000818152606760205260408120546001600160a01b0316806104995760405162461bcd60e51b815260206004820152602960248201527f4552433732313a206f776e657220717565727920666f72206e6f6e657869737460448201526832b73a103a37b5b2b760b91b60648201526084016105a6565b60006001600160a01b038216610b545760405162461bcd60e51b815260206004820152602a60248201527f4552433732313a2062616c616e636520717565727920666f7220746865207a65604482015269726f206164647265737360b01b60648201526084016105a6565b506001600160a01b031660009081526068602052604090205490565b600054610100900460ff16610b8b5760005460ff1615610b8f565b303b155b610c015760405162461bcd60e51b815260206004820152602e60248201527f496e697469616c697a61626c653a20636f6e747261637420697320616c72656160448201527f647920696e697469616c697a656400000000000000000000000000000000000060648201526084016105a6565b600054610100900460ff16158015610c23576000805461ffff19166101011790555b610c2d8585611495565b610c36826114c6565b60ce80546001600160a01b0319166001600160a01b0385161790558015610c63576000805461ff00191690555b5050505050565b600060cb8281548110610c7f57610c7f6120db565b9060005260206000209060040201600001549050919050565b6060606680546104ae906120a0565b600081815260cc6020908152604091829020805483518184028101840190945280845260609392830182828015610cfd57602002820191906000526020600020905b815481526020019060010190808311610ce9575b50505050509050919050565b610d1b610d14611189565b8383611501565b5050565b60ce546000906001600160a01b0316610d36611189565b6001600160a01b031614610d8c5760405162461bcd60e51b815260206004820152601e60248201527f43616e206f6e6c792062652063616c6c6564206279207265676973747279000060448201526064016105a6565b6000604051806080016040528086815260200185815260200184815260200160006001811115610dbe57610dbe611ff3565b905260cb80546001808201835560009290925282517fa7ce836d032b2bf62b7e2097a8e0a6d8aeb35405ad15271e96d3b0188a1d06fb600490920291820190815560208401517fa7ce836d032b2bf62b7e2097a8e0a6d8aeb35405ad15271e96d3b0188a1d06fc83015560408401517fa7ce836d032b2bf62b7e2097a8e0a6d8aeb35405ad15271e96d3b0188a1d06fd83015560608401517fa7ce836d032b2bf62b7e2097a8e0a6d8aeb35405ad15271e96d3b0188a1d06fe909201805494955085949193909160ff1916908381811115610e9b57610e9b611ff3565b02179055505050610eb060ca80546001019055565b6000610ebb60ca5490565b600087815260cc602090815260408083208054600181810183559185528385200185905589845260cd83529083208054918201815583529120018190559050610f0487826115d0565b60ce54610f1a906001600160a01b0316826105cb565b9150505b949350505050565b610f37610f31611189565b83611206565b610f9d5760405162461bcd60e51b815260206004820152603160248201527f4552433732313a207472616e736665722063616c6c6572206973206e6f74206f6044820152701ddb995c881b9bdc88185c1c1c9bdd9959607a1b60648201526084016105a6565b610a6c848484846115ea565b60cb8181548110610fb957600080fd5b60009182526020909120600490910201805460018201546002830154600390930154919350919060ff1684565b6000818152606760205260409020546060906001600160a01b03166110735760405162461bcd60e51b815260206004820152602f60248201527f4552433732314d657461646174613a2055524920717565727920666f72206e6f60448201527f6e6578697374656e7420746f6b656e000000000000000000000000000000000060648201526084016105a6565b600061108a60408051602081019091526000815290565b905060008151116110aa57604051806020016040528060008152506110d5565b806110b484611668565b6040516020016110c592919061211e565b6040516020818303038152906040525b9392505050565b60cd60205281600052604060002081815481106110f857600080fd5b90600052602060002001600091509150505481565b60cc60205281600052604060002081815481106110f857600080fd5b600081815260cd6020908152604091829020805483518184028101840190945280845260609392830182828015610cfd5760200282019190600052602060002090815481526020019060010190808311610ce95750505050509050919050565b600061119361177e565b905090565b600081815260696020526040902080546001600160a01b0319166001600160a01b03841690811790915581906111cd82610a72565b6001600160a01b03167f8c5be1e5ebec7d5bd14f71427d1e84f3dd0314c0f7b2291e5b200ac8c7c3b92560405160405180910390a45050565b6000818152606760205260408120546001600160a01b031661127f5760405162461bcd60e51b815260206004820152602c60248201527f4552433732313a206f70657261746f7220717565727920666f72206e6f6e657860448201526b34b9ba32b73a103a37b5b2b760a11b60648201526084016105a6565b600061128a83610a72565b9050806001600160a01b0316846001600160a01b031614806112c55750836001600160a01b03166112ba84610531565b6001600160a01b0316145b80610f1e57506001600160a01b038082166000908152606a602090815260408083209388168352929052205460ff16610f1e565b826001600160a01b031661130c82610a72565b6001600160a01b0316146113705760405162461bcd60e51b815260206004820152602560248201527f4552433732313a207472616e736665722066726f6d20696e636f72726563742060448201526437bbb732b960d91b60648201526084016105a6565b6001600160a01b0382166113d25760405162461bcd60e51b8152602060048201526024808201527f4552433732313a207472616e7366657220746f20746865207a65726f206164646044820152637265737360e01b60648201526084016105a6565b6113dd600082611198565b6001600160a01b0383166000908152606860205260408120805460019290611406908490612107565b90915550506001600160a01b038216600090815260686020526040812080546001929061143490849061214d565b909155505060008181526067602052604080822080546001600160a01b0319166001600160a01b0386811691821790925591518493918716917fddf252ad1be2c89b69c2b068fc378daa952ba7f163c4a11628f55a4df523b3ef91a4505050565b600054610100900460ff166114bc5760405162461bcd60e51b81526004016105a690612165565b610d1b82826117a6565b600054610100900460ff166114ed5760405162461bcd60e51b81526004016105a690612165565b6114f56117f4565b6114fe8161181d565b50565b816001600160a01b0316836001600160a01b031614156115635760405162461bcd60e51b815260206004820152601960248201527f4552433732313a20617070726f766520746f2063616c6c65720000000000000060448201526064016105a6565b6001600160a01b038381166000818152606a6020908152604080832094871680845294825291829020805460ff191686151590811790915591519182527f17307eab39ab6107e8899845ad3d59bd9653f200f220920489ca2b5937696c31910160405180910390a3505050565b610d1b828260405180602001604052806000815250611866565b6115f58484846112f9565b611601848484846118e4565b610a6c5760405162461bcd60e51b815260206004820152603260248201527f4552433732313a207472616e7366657220746f206e6f6e20455243373231526560448201527131b2b4bb32b91034b6b83632b6b2b73a32b960711b60648201526084016105a6565b60608161168c5750506040805180820190915260018152600360fc1b602082015290565b8160005b81156116b657806116a0816121b0565b91506116af9050600a836121e1565b9150611690565b60008167ffffffffffffffff8111156116d1576116d1611da6565b6040519080825280601f01601f1916602001820160405280156116fb576020820181803683370190505b5090505b8415610f1e57611710600183612107565b915061171d600a866121f5565b61172890603061214d565b60f81b81838151811061173d5761173d6120db565b60200101907effffffffffffffffffffffffffffffffffffffffffffffffffffffffffffff1916908160001a905350611777600a866121e1565b94506116ff565b6097546000906001600160a01b03163314156117a1575060131936013560601c90565b503390565b600054610100900460ff166117cd5760405162461bcd60e51b81526004016105a690612165565b81516117e0906065906020850190611b73565b5080516106ee906066906020840190611b73565b600054610100900460ff1661181b5760405162461bcd60e51b81526004016105a690612165565b565b600054610100900460ff166118445760405162461bcd60e51b81526004016105a690612165565b609780546001600160a01b0319166001600160a01b0392909216919091179055565b6118708383611a31565b61187d60008484846118e4565b6106ee5760405162461bcd60e51b815260206004820152603260248201527f4552433732313a207472616e7366657220746f206e6f6e20455243373231526560448201527131b2b4bb32b91034b6b83632b6b2b73a32b960711b60648201526084016105a6565b60006001600160a01b0384163b15611a2957836001600160a01b031663150b7a0261190d611189565b8786866040518563ffffffff1660e01b815260040161192f9493929190612209565b6020604051808303816000875af192505050801561196a575060408051601f3d908101601f1916820190925261196791810190612245565b60015b611a0f573d808015611998576040519150601f19603f3d011682016040523d82523d6000602084013e61199d565b606091505b508051611a075760405162461bcd60e51b815260206004820152603260248201527f4552433732313a207472616e7366657220746f206e6f6e20455243373231526560448201527131b2b4bb32b91034b6b83632b6b2b73a32b960711b60648201526084016105a6565b805181602001fd5b6001600160e01b031916630a85bd0160e11b149050610f1e565b506001610f1e565b6001600160a01b038216611a875760405162461bcd60e51b815260206004820181905260248201527f4552433732313a206d696e7420746f20746865207a65726f206164647265737360448201526064016105a6565b6000818152606760205260409020546001600160a01b031615611aec5760405162461bcd60e51b815260206004820152601c60248201527f4552433732313a20746f6b656e20616c7265616479206d696e7465640000000060448201526064016105a6565b6001600160a01b0382166000908152606860205260408120805460019290611b1590849061214d565b909155505060008181526067602052604080822080546001600160a01b0319166001600160a01b03861690811790915590518392907fddf252ad1be2c89b69c2b068fc378daa952ba7f163c4a11628f55a4df523b3ef908290a45050565b828054611b7f906120a0565b90600052602060002090601f016020900481019282611ba15760008555611be7565b82601f10611bba57805160ff1916838001178555611be7565b82800160010185558215611be7579182015b82811115611be7578251825591602001919060010190611bcc565b50611bf3929150611bf7565b5090565b5b80821115611bf35760008155600101611bf8565b6001600160e01b0319811681146114fe57600080fd5b600060208284031215611c3457600080fd5b81356110d581611c0c565b60005b83811015611c5a578181015183820152602001611c42565b83811115610a6c5750506000910152565b60008151808452611c83816020860160208601611c3f565b601f01601f19169290920160200192915050565b6020815260006110d56020830184611c6b565b600060208284031215611cbc57600080fd5b5035919050565b80356001600160a01b0381168114611cda57600080fd5b919050565b60008060408385031215611cf257600080fd5b611cfb83611cc3565b946020939093013593505050565b600080600060608486031215611d1e57600080fd5b611d2784611cc3565b9250611d3560208501611cc3565b9150604084013590509250925092565b600060208284031215611d5757600080fd5b6110d582611cc3565b60008060008060808587031215611d7657600080fd5b8435935060208501359250611d8d60408601611cc3565b9150611d9b60608601611cc3565b905092959194509250565b634e487b7160e01b600052604160045260246000fd5b600067ffffffffffffffff80841115611dd757611dd7611da6565b604051601f8501601f19908116603f01168101908282118183101715611dff57611dff611da6565b81604052809350858152868686011115611e1857600080fd5b858560208301376000602087830101525050509392505050565b600082601f830112611e4357600080fd5b6110d583833560208501611dbc565b60008060008060808587031215611e6857600080fd5b843567ffffffffffffffff80821115611e8057600080fd5b611e8c88838901611e32565b95506020870135915080821115611ea257600080fd5b50611eaf87828801611e32565b935050611d8d60408601611cc3565b6020808252825182820181905260009190848201906040850190845b81811015611ef657835183529284019291840191600101611eda565b50909695505050505050565b60008060408385031215611f1557600080fd5b611f1e83611cc3565b915060208301358015158114611f3357600080fd5b809150509250929050565b60008060008060808587031215611f5457600080fd5b611f5d85611cc3565b966020860135965060408601359560600135945092505050565b60008060008060808587031215611f8d57600080fd5b611f9685611cc3565b9350611fa460208601611cc3565b925060408501359150606085013567ffffffffffffffff811115611fc757600080fd5b8501601f81018713611fd857600080fd5b611fe787823560208401611dbc565b91505092959194509250565b634e487b7160e01b600052602160045260246000fd5b8481526020810184905260408101839052608081016002831061203c57634e487b7160e01b600052602160045260246000fd5b82606083015295945050505050565b6000806040838503121561205e57600080fd5b50508035926020909101359150565b6000806040838503121561208057600080fd5b61208983611cc3565b915061209760208401611cc3565b90509250929050565b600181811c908216806120b457607f821691505b602082108114156120d557634e487b7160e01b600052602260045260246000fd5b50919050565b634e487b7160e01b600052603260045260246000fd5b634e487b7160e01b600052601160045260246000fd5b600082821015612119576121196120f1565b500390565b60008351612130818460208801611c3f565b835190830190612144818360208801611c3f565b01949350505050565b60008219821115612160576121606120f1565b500190565b6020808252602b908201527f496e697469616c697a61626c653a20636f6e7472616374206973206e6f74206960408201526a6e697469616c697a696e6760a81b606082015260800190565b60006000198214156121c4576121c46120f1565b5060010190565b634e487b7160e01b600052601260045260246000fd5b6000826121f0576121f06121cb565b500490565b600082612204576122046121cb565b500690565b60006001600160a01b0380871683528086166020840152508360408301526080606083015261223b6080830184611c6b565b9695505050505050565b60006020828403121561225757600080fd5b81516110d581611c0c56fea2646970667358221220ac94e8a7e89dda25a12f0fd033d71444335384d835c547006cb1d1fcb18d2f3964736f6c634300080c0033",
  "immutableReferences": {},
  "source": "// SPDX-License-Identifier: MIT\n\npragma solidity ^0.8.12;\n\nimport \"@openzeppelin/contracts-upgradeable/proxy/utils/Initializable.sol\";\nimport \"@openzeppelin/contracts-upgradeable/token/ERC721/ERC721Upgradeable.sol\";\nimport \"@openzeppelin/contracts/utils/Counters.sol\";\nimport \"./patches/ERC2771ContextUpgradeable.sol\";\nimport \"./interfaces/ILicenceManager.sol\";\n\ncontract LicenceManager is Initializable, ERC721Upgradeable, ILicenceManager, ERC2771ContextUpgradeable {\n    using Counters for Counters.Counter;\n\n    Counters.Counter private _licenceIds;\n\n    enum LicenceStatus { Active, Revoked }\n\n    struct Licence {\n        uint256 ownerId;\n        uint256 publicationId;\n        uint256 publicationLicenceNo;\n        LicenceStatus status;\n    }\n\n    Licence[] public licences;\n    // user Id to their array of licences\n    mapping(uint256 => uint256[]) public licenceOwners;\n    // publication Id to array of licnces IDs\n    mapping(uint256 => uint256[]) public publicationLicences;\n\n    modifier onlyRegistry() {\n        require(_msgSender() == registry, \"Can only be called by registry\");\n        _;\n    }\n\n    address registry;\n\n    function initialize(string memory _name, string memory _symbol, address _unicoinRegistry, address _trustedForwarder)\n        public\n        initializer\n    {\n        __ERC721_init(_name, _symbol);\n        __ERC2771Context_init(_trustedForwarder);\n\n        //ERC721Enumerable.initialize();\n        //ERC721Metadata.initialize(_name, _symbol);\n        //ERC721Mintable.initialize(_unicoinRegistry);\n\n        registry = _unicoinRegistry;\n    }\n\n    function _msgSender()\n        internal\n        view\n        virtual\n        override(ERC2771ContextUpgradeable, ContextUpgradeable)\n        returns (address sender)\n    {\n        return ERC2771ContextUpgradeable._msgSender();\n    }\n\n    function _msgData()\n        internal\n        view\n        virtual\n        override(ERC2771ContextUpgradeable, ContextUpgradeable)\n        returns (bytes calldata)\n    {\n        return ERC2771ContextUpgradeable._msgData();\n    }\n\n    function registerNewLicence(\n        address _ownerAddress,\n        uint256 _ownerId,\n        uint256 _publicationId,\n        uint256 _publicationLicenceNo\n    ) public onlyRegistry returns (uint256) {\n        Licence memory licence = Licence(_ownerId, _publicationId, _publicationLicenceNo, LicenceStatus.Active);\n\n        licences.push(licence);\n        _licenceIds.increment();\n        uint256 licenceId = _licenceIds.current();\n\n        //uint256 licenceId = licences.push(licence) - 1;\n\n        licenceOwners[_ownerId].push(licenceId);\n\n        publicationLicences[_publicationId].push(licenceId);\n\n        _safeMint(_ownerAddress, licenceId);\n        approve(registry, licenceId);\n\n        //require(ERC721Mintable.mint(_ownerAddress, licenceId), \"Licence minting failed\");\n\n        return licenceId;\n    }\n\n    function revokeLicence(uint256 _licenceId) public onlyRegistry {\n        licences[_licenceId].status = LicenceStatus.Revoked;\n        licences[_licenceId].publicationLicenceNo -= 1;\n    }\n\n    function getLicenceForUser(uint256 _userId) public view returns (uint256[] memory) {\n        return licenceOwners[_userId];\n    }\n\n    function allocateLicenceToNewOwner(\n        uint256 _licenceId,\n        uint256 _newOwnerId,\n        address _oldOwnerAddress,\n        address _newOwnerAddress\n    ) public onlyRegistry {\n        licences[_licenceId].ownerId = _newOwnerId;\n        transferFrom(_oldOwnerAddress, _newOwnerAddress, _licenceId);\n    }\n\n    function getLicence(uint256 _licenceId) public view returns (uint256, uint256, uint256, uint8) {\n        Licence memory _licence = licences[_licenceId];\n        return (_licence.ownerId, _licence.publicationId, _licence.publicationLicenceNo, uint8(_licence.status));\n    }\n\n    function getLicenceOwnerId(uint256 _licenceId) public view returns (uint256) {\n        return licences[_licenceId].ownerId;\n    }\n\n    function getPublicationLicences(uint256 _publicationId) public view returns (uint256[] memory) {\n        return publicationLicences[_publicationId];\n    }\n\n    function getMostRecentPublicationLicence(uint256 _publicationId) public view returns (uint256) {\n        uint256 numberOfLicences = getPublicationLicences(_publicationId).length;\n\n        require(numberOfLicences > 0, \"no licences found\");\n\n        return getPublicationLicences(_publicationId)[numberOfLicences - 1];\n\n    }\n}\n",
  "sourcePath": "/home/azureuser/unicoin/unicoin2.0/contracts/LicenceManager.sol",
  "compiler": {
    "name": "solc",
    "version": "0.8.12+commit.f00d7308.Emscripten.clang"
  },
  "schemaVersion": "3.4.6",
  "updatedAt": "2022-03-16T11:23:44.735Z",
  "devdoc": {
    "kind": "dev",
    "methods": {
      "approve(address,uint256)": {
        "details": "See {IERC721-approve}."
      },
      "balanceOf(address)": {
        "details": "See {IERC721-balanceOf}."
      },
      "getApproved(uint256)": {
        "details": "See {IERC721-getApproved}."
      },
      "isApprovedForAll(address,address)": {
        "details": "See {IERC721-isApprovedForAll}."
      },
      "name()": {
        "details": "See {IERC721Metadata-name}."
      },
      "ownerOf(uint256)": {
        "details": "See {IERC721-ownerOf}."
      },
      "safeTransferFrom(address,address,uint256)": {
        "details": "See {IERC721-safeTransferFrom}."
      },
      "safeTransferFrom(address,address,uint256,bytes)": {
        "details": "See {IERC721-safeTransferFrom}."
      },
      "setApprovalForAll(address,bool)": {
        "details": "See {IERC721-setApprovalForAll}."
      },
      "supportsInterface(bytes4)": {
        "details": "See {IERC165-supportsInterface}."
      },
      "symbol()": {
        "details": "See {IERC721Metadata-symbol}."
      },
      "tokenURI(uint256)": {
        "details": "See {IERC721Metadata-tokenURI}."
      },
      "transferFrom(address,address,uint256)": {
        "details": "See {IERC721-transferFrom}."
      }
    },
    "version": 1
  },
  "userdoc": {
    "kind": "user",
    "methods": {},
    "version": 1
  }
}