{
  "contractName": "LicenceManager",
  "abi": [
    {
      "anonymous": false,
      "inputs": [
        {
          "indexed": true,
          "internalType": "address",
          "name": "owner",
          "type": "address"
        },
        {
          "indexed": true,
          "internalType": "address",
          "name": "approved",
          "type": "address"
        },
        {
          "indexed": true,
          "internalType": "uint256",
          "name": "tokenId",
          "type": "uint256"
        }
      ],
      "name": "Approval",
      "type": "event"
    },
    {
      "anonymous": false,
      "inputs": [
        {
          "indexed": true,
          "internalType": "address",
          "name": "owner",
          "type": "address"
        },
        {
          "indexed": true,
          "internalType": "address",
          "name": "operator",
          "type": "address"
        },
        {
          "indexed": false,
          "internalType": "bool",
          "name": "approved",
          "type": "bool"
        }
      ],
      "name": "ApprovalForAll",
      "type": "event"
    },
    {
      "anonymous": false,
      "inputs": [
        {
          "indexed": true,
          "internalType": "address",
          "name": "account",
          "type": "address"
        }
      ],
      "name": "MinterAdded",
      "type": "event"
    },
    {
      "anonymous": false,
      "inputs": [
        {
          "indexed": true,
          "internalType": "address",
          "name": "account",
          "type": "address"
        }
      ],
      "name": "MinterRemoved",
      "type": "event"
    },
    {
      "anonymous": false,
      "inputs": [
        {
          "indexed": true,
          "internalType": "address",
          "name": "from",
          "type": "address"
        },
        {
          "indexed": true,
          "internalType": "address",
          "name": "to",
          "type": "address"
        },
        {
          "indexed": true,
          "internalType": "uint256",
          "name": "tokenId",
          "type": "uint256"
        }
      ],
      "name": "Transfer",
      "type": "event"
    },
    {
      "constant": false,
      "inputs": [
        {
          "internalType": "address",
          "name": "account",
          "type": "address"
        }
      ],
      "name": "addMinter",
      "outputs": [],
      "payable": false,
      "stateMutability": "nonpayable",
      "type": "function"
    },
    {
      "constant": false,
      "inputs": [
        {
          "internalType": "address",
          "name": "to",
          "type": "address"
        },
        {
          "internalType": "uint256",
          "name": "tokenId",
          "type": "uint256"
        }
      ],
      "name": "approve",
      "outputs": [],
      "payable": false,
      "stateMutability": "nonpayable",
      "type": "function"
    },
    {
      "constant": true,
      "inputs": [
        {
          "internalType": "address",
          "name": "owner",
          "type": "address"
        }
      ],
      "name": "balanceOf",
      "outputs": [
        {
          "internalType": "uint256",
          "name": "",
          "type": "uint256"
        }
      ],
      "payable": false,
      "stateMutability": "view",
      "type": "function"
    },
    {
      "constant": true,
      "inputs": [
        {
          "internalType": "uint256",
          "name": "tokenId",
          "type": "uint256"
        }
      ],
      "name": "getApproved",
      "outputs": [
        {
          "internalType": "address",
          "name": "",
          "type": "address"
        }
      ],
      "payable": false,
      "stateMutability": "view",
      "type": "function"
    },
    {
      "constant": true,
      "inputs": [
        {
          "internalType": "address",
          "name": "owner",
          "type": "address"
        },
        {
          "internalType": "address",
          "name": "operator",
          "type": "address"
        }
      ],
      "name": "isApprovedForAll",
      "outputs": [
        {
          "internalType": "bool",
          "name": "",
          "type": "bool"
        }
      ],
      "payable": false,
      "stateMutability": "view",
      "type": "function"
    },
    {
      "constant": true,
      "inputs": [
        {
          "internalType": "address",
          "name": "account",
          "type": "address"
        }
      ],
      "name": "isMinter",
      "outputs": [
        {
          "internalType": "bool",
          "name": "",
          "type": "bool"
        }
      ],
      "payable": false,
      "stateMutability": "view",
      "type": "function"
    },
    {
      "constant": true,
      "inputs": [
        {
          "internalType": "uint256",
          "name": "",
          "type": "uint256"
        },
        {
          "internalType": "uint256",
          "name": "",
          "type": "uint256"
        }
      ],
      "name": "licenceOwners",
      "outputs": [
        {
          "internalType": "uint256",
          "name": "",
          "type": "uint256"
        }
      ],
      "payable": false,
      "stateMutability": "view",
      "type": "function"
    },
    {
      "constant": true,
      "inputs": [
        {
          "internalType": "uint256",
          "name": "",
          "type": "uint256"
        }
      ],
      "name": "licences",
      "outputs": [
        {
          "internalType": "uint256",
          "name": "owner_Id",
          "type": "uint256"
        },
        {
          "internalType": "uint256",
          "name": "publication_Id",
          "type": "uint256"
        },
        {
          "internalType": "uint256",
          "name": "publicationLicenceNo",
          "type": "uint256"
        },
        {
          "internalType": "enum LicenceManager.LicenceStatus",
          "name": "status",
          "type": "uint8"
        }
      ],
      "payable": false,
      "stateMutability": "view",
      "type": "function"
    },
    {
      "constant": false,
      "inputs": [
        {
          "internalType": "address",
          "name": "to",
          "type": "address"
        },
        {
          "internalType": "uint256",
          "name": "tokenId",
          "type": "uint256"
        }
      ],
      "name": "mint",
      "outputs": [
        {
          "internalType": "bool",
          "name": "",
          "type": "bool"
        }
      ],
      "payable": false,
      "stateMutability": "nonpayable",
      "type": "function"
    },
    {
      "constant": true,
      "inputs": [],
      "name": "name",
      "outputs": [
        {
          "internalType": "string",
          "name": "",
          "type": "string"
        }
      ],
      "payable": false,
      "stateMutability": "view",
      "type": "function"
    },
    {
      "constant": true,
      "inputs": [
        {
          "internalType": "uint256",
          "name": "tokenId",
          "type": "uint256"
        }
      ],
      "name": "ownerOf",
      "outputs": [
        {
          "internalType": "address",
          "name": "",
          "type": "address"
        }
      ],
      "payable": false,
      "stateMutability": "view",
      "type": "function"
    },
    {
      "constant": true,
      "inputs": [
        {
          "internalType": "uint256",
          "name": "",
          "type": "uint256"
        },
        {
          "internalType": "uint256",
          "name": "",
          "type": "uint256"
        }
      ],
      "name": "publicationLicences",
      "outputs": [
        {
          "internalType": "uint256",
          "name": "",
          "type": "uint256"
        }
      ],
      "payable": false,
      "stateMutability": "view",
      "type": "function"
    },
    {
      "constant": false,
      "inputs": [],
      "name": "renounceMinter",
      "outputs": [],
      "payable": false,
      "stateMutability": "nonpayable",
      "type": "function"
    },
    {
      "constant": false,
      "inputs": [
        {
          "internalType": "address",
          "name": "to",
          "type": "address"
        },
        {
          "internalType": "uint256",
          "name": "tokenId",
          "type": "uint256"
        },
        {
          "internalType": "bytes",
          "name": "_data",
          "type": "bytes"
        }
      ],
      "name": "safeMint",
      "outputs": [
        {
          "internalType": "bool",
          "name": "",
          "type": "bool"
        }
      ],
      "payable": false,
      "stateMutability": "nonpayable",
      "type": "function"
    },
    {
      "constant": false,
      "inputs": [
        {
          "internalType": "address",
          "name": "to",
          "type": "address"
        },
        {
          "internalType": "uint256",
          "name": "tokenId",
          "type": "uint256"
        }
      ],
      "name": "safeMint",
      "outputs": [
        {
          "internalType": "bool",
          "name": "",
          "type": "bool"
        }
      ],
      "payable": false,
      "stateMutability": "nonpayable",
      "type": "function"
    },
    {
      "constant": false,
      "inputs": [
        {
          "internalType": "address",
          "name": "from",
          "type": "address"
        },
        {
          "internalType": "address",
          "name": "to",
          "type": "address"
        },
        {
          "internalType": "uint256",
          "name": "tokenId",
          "type": "uint256"
        }
      ],
      "name": "safeTransferFrom",
      "outputs": [],
      "payable": false,
      "stateMutability": "nonpayable",
      "type": "function"
    },
    {
      "constant": false,
      "inputs": [
        {
          "internalType": "address",
          "name": "from",
          "type": "address"
        },
        {
          "internalType": "address",
          "name": "to",
          "type": "address"
        },
        {
          "internalType": "uint256",
          "name": "tokenId",
          "type": "uint256"
        },
        {
          "internalType": "bytes",
          "name": "_data",
          "type": "bytes"
        }
      ],
      "name": "safeTransferFrom",
      "outputs": [],
      "payable": false,
      "stateMutability": "nonpayable",
      "type": "function"
    },
    {
      "constant": false,
      "inputs": [
        {
          "internalType": "address",
          "name": "to",
          "type": "address"
        },
        {
          "internalType": "bool",
          "name": "approved",
          "type": "bool"
        }
      ],
      "name": "setApprovalForAll",
      "outputs": [],
      "payable": false,
      "stateMutability": "nonpayable",
      "type": "function"
    },
    {
      "constant": true,
      "inputs": [
        {
          "internalType": "bytes4",
          "name": "interfaceId",
          "type": "bytes4"
        }
      ],
      "name": "supportsInterface",
      "outputs": [
        {
          "internalType": "bool",
          "name": "",
          "type": "bool"
        }
      ],
      "payable": false,
      "stateMutability": "view",
      "type": "function"
    },
    {
      "constant": true,
      "inputs": [],
      "name": "symbol",
      "outputs": [
        {
          "internalType": "string",
          "name": "",
          "type": "string"
        }
      ],
      "payable": false,
      "stateMutability": "view",
      "type": "function"
    },
    {
      "constant": true,
      "inputs": [
        {
          "internalType": "uint256",
          "name": "index",
          "type": "uint256"
        }
      ],
      "name": "tokenByIndex",
      "outputs": [
        {
          "internalType": "uint256",
          "name": "",
          "type": "uint256"
        }
      ],
      "payable": false,
      "stateMutability": "view",
      "type": "function"
    },
    {
      "constant": true,
      "inputs": [
        {
          "internalType": "address",
          "name": "owner",
          "type": "address"
        },
        {
          "internalType": "uint256",
          "name": "index",
          "type": "uint256"
        }
      ],
      "name": "tokenOfOwnerByIndex",
      "outputs": [
        {
          "internalType": "uint256",
          "name": "",
          "type": "uint256"
        }
      ],
      "payable": false,
      "stateMutability": "view",
      "type": "function"
    },
    {
      "constant": true,
      "inputs": [
        {
          "internalType": "uint256",
          "name": "tokenId",
          "type": "uint256"
        }
      ],
      "name": "tokenURI",
      "outputs": [
        {
          "internalType": "string",
          "name": "",
          "type": "string"
        }
      ],
      "payable": false,
      "stateMutability": "view",
      "type": "function"
    },
    {
      "constant": true,
      "inputs": [],
      "name": "totalSupply",
      "outputs": [
        {
          "internalType": "uint256",
          "name": "",
          "type": "uint256"
        }
      ],
      "payable": false,
      "stateMutability": "view",
      "type": "function"
    },
    {
      "constant": false,
      "inputs": [
        {
          "internalType": "address",
          "name": "from",
          "type": "address"
        },
        {
          "internalType": "address",
          "name": "to",
          "type": "address"
        },
        {
          "internalType": "uint256",
          "name": "tokenId",
          "type": "uint256"
        }
      ],
      "name": "transferFrom",
      "outputs": [],
      "payable": false,
      "stateMutability": "nonpayable",
      "type": "function"
    },
    {
      "constant": false,
      "inputs": [
        {
          "internalType": "string",
          "name": "_name",
          "type": "string"
        },
        {
          "internalType": "string",
          "name": "_symbol",
          "type": "string"
        },
        {
          "internalType": "address",
          "name": "_unicoinRegistry",
          "type": "address"
        }
      ],
      "name": "initialize",
      "outputs": [],
      "payable": false,
      "stateMutability": "nonpayable",
      "type": "function"
    },
    {
      "constant": false,
      "inputs": [
        {
          "internalType": "string",
          "name": "name",
          "type": "string"
        },
        {
          "internalType": "string",
          "name": "symbol",
          "type": "string"
        }
      ],
      "name": "initialize",
      "outputs": [],
      "payable": false,
      "stateMutability": "nonpayable",
      "type": "function"
    },
    {
      "constant": false,
      "inputs": [],
      "name": "initialize",
      "outputs": [],
      "payable": false,
      "stateMutability": "nonpayable",
      "type": "function"
    },
    {
      "constant": false,
      "inputs": [
        {
          "internalType": "address",
          "name": "sender",
          "type": "address"
        }
      ],
      "name": "initialize",
      "outputs": [],
      "payable": false,
      "stateMutability": "nonpayable",
      "type": "function"
    },
    {
      "constant": false,
      "inputs": [
        {
          "internalType": "address",
          "name": "_ownerAddress",
          "type": "address"
        },
        {
          "internalType": "uint256",
          "name": "_owner_Id",
          "type": "uint256"
        },
        {
          "internalType": "uint256",
          "name": "_publication_Id",
          "type": "uint256"
        },
        {
          "internalType": "uint256",
          "name": "_publicationLicenceNo",
          "type": "uint256"
        }
      ],
      "name": "registerNewLicence",
      "outputs": [
        {
          "internalType": "uint256",
          "name": "",
          "type": "uint256"
        }
      ],
      "payable": false,
      "stateMutability": "nonpayable",
      "type": "function"
    },
    {
      "constant": false,
      "inputs": [
        {
          "internalType": "uint256",
          "name": "_licence_Id",
          "type": "uint256"
        }
      ],
      "name": "revokeLicence",
      "outputs": [],
      "payable": false,
      "stateMutability": "nonpayable",
      "type": "function"
    },
    {
      "constant": true,
      "inputs": [
        {
          "internalType": "uint256",
          "name": "_user_Id",
          "type": "uint256"
        }
      ],
      "name": "getLicenceForUser",
      "outputs": [
        {
          "internalType": "uint256[]",
          "name": "",
          "type": "uint256[]"
        }
      ],
      "payable": false,
      "stateMutability": "view",
      "type": "function"
    },
    {
      "constant": false,
      "inputs": [
        {
          "internalType": "uint256",
          "name": "_licence_Id",
          "type": "uint256"
        },
        {
          "internalType": "uint256",
          "name": "_newOwner_Id",
          "type": "uint256"
        },
        {
          "internalType": "address",
          "name": "_oldNFTOwner_address",
          "type": "address"
        },
        {
          "internalType": "address",
          "name": "_newNFTOwner_address",
          "type": "address"
        }
      ],
      "name": "allocateLicenceToNewOwner",
      "outputs": [],
      "payable": false,
      "stateMutability": "nonpayable",
      "type": "function"
    },
    {
      "constant": true,
      "inputs": [
        {
          "internalType": "uint256",
          "name": "_licence_Id",
          "type": "uint256"
        }
      ],
      "name": "getLicence",
      "outputs": [
        {
          "internalType": "uint256",
          "name": "",
          "type": "uint256"
        },
        {
          "internalType": "uint256",
          "name": "",
          "type": "uint256"
        },
        {
          "internalType": "uint256",
          "name": "",
          "type": "uint256"
        },
        {
          "internalType": "uint8",
          "name": "",
          "type": "uint8"
        }
      ],
      "payable": false,
      "stateMutability": "view",
      "type": "function"
    },
    {
      "constant": true,
      "inputs": [
        {
          "internalType": "uint256",
          "name": "_licence_Id",
          "type": "uint256"
        }
      ],
      "name": "getLicenceOwnerId",
      "outputs": [
        {
          "internalType": "uint256",
          "name": "",
          "type": "uint256"
        }
      ],
      "payable": false,
      "stateMutability": "view",
      "type": "function"
    },
    {
      "constant": true,
      "inputs": [
        {
          "internalType": "uint256",
          "name": "_publication_Id",
          "type": "uint256"
        }
      ],
      "name": "getPublicationLicences",
      "outputs": [
        {
          "internalType": "uint256[]",
          "name": "",
          "type": "uint256[]"
        }
      ],
      "payable": false,
      "stateMutability": "view",
      "type": "function"
    },
    {
      "constant": true,
      "inputs": [
        {
          "internalType": "uint256",
          "name": "_publication_Id",
          "type": "uint256"
        }
      ],
      "name": "getMostRecentPublicationLicence",
      "outputs": [
        {
          "internalType": "uint256",
          "name": "",
          "type": "uint256"
        }
      ],
      "payable": false,
      "stateMutability": "view",
      "type": "function"
    }
  ],
  "bytecode": "0x608060405261475a806100136000396000f3fe608060405234801561001057600080fd5b50600436106102275760003560e01c80638129fc1c11610130578063aa271e1a116100b8578063c87b56dd1161007c578063c87b56dd14611076578063d628d5401461111d578063e985e9c514611169578063f8ede44a146111e5578063fbd9d2eb1461123157610227565b8063aa271e1a14610df6578063af5485a814610e52578063b88d4fde14610ec8578063bb44aee314610fcd578063c4d66de81461103257610227565b80639787bb41116100ff5780639787bb4114610c6f578063983b2d5614610cf25780639865027514610d36578063a144819414610d40578063a22cb46514610da657610227565b80638129fc1c14610aa35780638832e6e314610aad57806392c6830f14610baa57806395d89b4114610bec57610227565b80633a7ae75d116101b35780634cd88b76116101825780634cd88b76146107d15780634f6ccce7146109235780635c290cc6146109655780636352211e146109dd57806370a0823114610a4b57610227565b80633a7ae75d1461068d57806340c10f19146106bb57806342842e0e146107215780634cd541841461078f57610227565b8063095ea7b3116101fa578063095ea7b3146104f457806318160ddd1461054257806323b872dd146105605780632cedebee146105ce5780632f745c591461062b57610227565b806301ffc9a71461022c57806306fdde0314610291578063077f224a14610314578063081812fc14610486575b600080fd5b6102776004803603602081101561024257600080fd5b8101908080357bffffffffffffffffffffffffffffffffffffffffffffffffffffffff191690602001909291905050506112b4565b604051808215151515815260200191505060405180910390f35b61029961131c565b6040518080602001828103825283818151815260200191508051906020019080838360005b838110156102d95780820151818401526020810190506102be565b50505050905090810190601f1680156103065780820380516001836020036101000a031916815260200191505b509250505060405180910390f35b6104846004803603606081101561032a57600080fd5b810190808035906020019064010000000081111561034757600080fd5b82018360208201111561035957600080fd5b8035906020019184600183028401116401000000008311171561037b57600080fd5b91908080601f016020809104026020016040519081016040528093929190818152602001838380828437600081840152601f19601f820116905080830192505050505050509192919290803590602001906401000000008111156103de57600080fd5b8201836020820111156103f057600080fd5b8035906020019184600183028401116401000000008311171561041257600080fd5b91908080601f016020809104026020016040519081016040528093929190818152602001838380828437600081840152601f19601f820116905080830192505050505050509192919290803573ffffffffffffffffffffffffffffffffffffffff1690602001909291905050506113be565b005b6104b26004803603602081101561049c57600080fd5b81019080803590602001909291905050506115cd565b604051808273ffffffffffffffffffffffffffffffffffffffff1673ffffffffffffffffffffffffffffffffffffffff16815260200191505060405180910390f35b6105406004803603604081101561050a57600080fd5b81019080803573ffffffffffffffffffffffffffffffffffffffff16906020019092919080359060200190929190505050611668565b005b61054a61184f565b6040518082815260200191505060405180910390f35b6105cc6004803603606081101561057657600080fd5b81019080803573ffffffffffffffffffffffffffffffffffffffff169060200190929190803573ffffffffffffffffffffffffffffffffffffffff1690602001909291908035906020019092919050505061185c565b005b6105fa600480360360208110156105e457600080fd5b81019080803590602001909291905050506118d2565b604051808581526020018481526020018381526020018260ff1660ff16815260200194505050505060405180910390f35b6106776004803603604081101561064157600080fd5b81019080803573ffffffffffffffffffffffffffffffffffffffff169060200190929190803590602001909291905050506119f9565b6040518082815260200191505060405180910390f35b6106b9600480360360208110156106a357600080fd5b8101908080359060200190929190505050611ab8565b005b610707600480360360408110156106d157600080fd5b81019080803573ffffffffffffffffffffffffffffffffffffffff16906020019092919080359060200190929190505050611bc0565b604051808215151515815260200191505060405180910390f35b61078d6004803603606081101561073757600080fd5b81019080803573ffffffffffffffffffffffffffffffffffffffff169060200190929190803573ffffffffffffffffffffffffffffffffffffffff16906020019092919080359060200190929190505050611c3b565b005b6107bb600480360360208110156107a557600080fd5b8101908080359060200190929190505050611c5b565b6040518082815260200191505060405180910390f35b610921600480360360408110156107e757600080fd5b810190808035906020019064010000000081111561080457600080fd5b82018360208201111561081657600080fd5b8035906020019184600183028401116401000000008311171561083857600080fd5b91908080601f016020809104026020016040519081016040528093929190818152602001838380828437600081840152601f19601f8201169050808301925050505050505091929192908035906020019064010000000081111561089b57600080fd5b8201836020820111156108ad57600080fd5b803590602001918460018302840111640100000000831117156108cf57600080fd5b91908080601f016020809104026020016040519081016040528093929190818152602001838380828437600081840152601f19601f820116905080830192505050505050509192919290505050611cad565b005b61094f6004803603602081101561093957600080fd5b8101908080359060200190929190505050611dfd565b6040518082815260200191505060405180910390f35b6109db6004803603608081101561097b57600080fd5b810190808035906020019092919080359060200190929190803573ffffffffffffffffffffffffffffffffffffffff169060200190929190803573ffffffffffffffffffffffffffffffffffffffff169060200190929190505050611e7d565b005b610a09600480360360208110156109f357600080fd5b8101908080359060200190929190505050611f76565b604051808273ffffffffffffffffffffffffffffffffffffffff1673ffffffffffffffffffffffffffffffffffffffff16815260200191505060405180910390f35b610a8d60048036036020811015610a6157600080fd5b81019080803573ffffffffffffffffffffffffffffffffffffffff16906020019092919050505061203e565b6040518082815260200191505060405180910390f35b610aab612113565b005b610b9060048036036060811015610ac357600080fd5b81019080803573ffffffffffffffffffffffffffffffffffffffff1690602001909291908035906020019092919080359060200190640100000000811115610b0a57600080fd5b820183602082011115610b1c57600080fd5b80359060200191846001830284011164010000000083111715610b3e57600080fd5b91908080601f016020809104026020016040519081016040528093929190818152602001838380828437600081840152601f19601f820116905080830192505050505050509192919290505050612233565b604051808215151515815260200191505060405180910390f35b610bd660048036036020811015610bc057600080fd5b81019080803590602001909291905050506122b0565b6040518082815260200191505060405180910390f35b610bf46122d9565b6040518080602001828103825283818151815260200191508051906020019080838360005b83811015610c34578082015181840152602081019050610c19565b50505050905090810190601f168015610c615780820380516001836020036101000a031916815260200191505b509250505060405180910390f35b610c9b60048036036020811015610c8557600080fd5b810190808035906020019092919050505061237b565b6040518080602001828103825283818151815260200191508051906020019060200280838360005b83811015610cde578082015181840152602081019050610cc3565b505050509050019250505060405180910390f35b610d3460048036036020811015610d0857600080fd5b81019080803573ffffffffffffffffffffffffffffffffffffffff1690602001909291905050506123e7565b005b610d3e612458565b005b610d8c60048036036040811015610d5657600080fd5b81019080803573ffffffffffffffffffffffffffffffffffffffff1690602001909291908035906020019092919050505061246a565b604051808215151515815260200191505060405180910390f35b610df460048036036040811015610dbc57600080fd5b81019080803573ffffffffffffffffffffffffffffffffffffffff1690602001909291908035151590602001909291905050506124e5565b005b610e3860048036036020811015610e0c57600080fd5b81019080803573ffffffffffffffffffffffffffffffffffffffff16906020019092919050505061269d565b604051808215151515815260200191505060405180910390f35b610eb260048036036080811015610e6857600080fd5b81019080803573ffffffffffffffffffffffffffffffffffffffff1690602001909291908035906020019092919080359060200190929190803590602001909291905050506126bb565b6040518082815260200191505060405180910390f35b610fcb60048036036080811015610ede57600080fd5b81019080803573ffffffffffffffffffffffffffffffffffffffff169060200190929190803573ffffffffffffffffffffffffffffffffffffffff1690602001909291908035906020019092919080359060200190640100000000811115610f4557600080fd5b820183602082011115610f5757600080fd5b80359060200191846001830284011164010000000083111715610f7957600080fd5b91908080601f016020809104026020016040519081016040528093929190818152602001838380828437600081840152601f19601f82011690508083019250505050505050919291929050505061293c565b005b610ff960048036036020811015610fe357600080fd5b81019080803590602001909291905050506129b4565b6040518085815260200184815260200183815260200182600181111561101b57fe5b60ff16815260200194505050505060405180910390f35b6110746004803603602081101561104857600080fd5b81019080803573ffffffffffffffffffffffffffffffffffffffff1690602001909291905050506129ff565b005b6110a26004803603602081101561108c57600080fd5b8101908080359060200190929190505050612b19565b6040518080602001828103825283818151815260200191508051906020019080838360005b838110156110e25780820151818401526020810190506110c7565b50505050905090810190601f16801561110f5780820380516001836020036101000a031916815260200191505b509250505060405180910390f35b6111536004803603604081101561113357600080fd5b810190808035906020019092919080359060200190929190505050612c2c565b6040518082815260200191505060405180910390f35b6111cb6004803603604081101561117f57600080fd5b81019080803573ffffffffffffffffffffffffffffffffffffffff169060200190929190803573ffffffffffffffffffffffffffffffffffffffff169060200190929190505050612c5b565b604051808215151515815260200191505060405180910390f35b61121b600480360360408110156111fb57600080fd5b810190808035906020019092919080359060200190929190505050612cef565b6040518082815260200191505060405180910390f35b61125d6004803603602081101561124757600080fd5b8101908080359060200190929190505050612d1e565b6040518080602001828103825283818151815260200191508051906020019060200280838360005b838110156112a0578082015181840152602081019050611285565b505050509050019250505060405180910390f35b600060336000837bffffffffffffffffffffffffffffffffffffffffffffffffffffffff19167bffffffffffffffffffffffffffffffffffffffffffffffffffffffff1916815260200190815260200160002060009054906101000a900460ff169050919050565b606060d28054600181600116156101000203166002900480601f0160208091040260200160405190810160405280929190818152602001828054600181600116156101000203166002900480156113b45780601f10611389576101008083540402835291602001916113b4565b820191906000526020600020905b81548152906001019060200180831161139757829003601f168201915b5050505050905090565b600060019054906101000a900460ff16806113dd57506113dc612d8a565b5b806113f457506000809054906101000a900460ff16155b611449576040517f08c379a000000000000000000000000000000000000000000000000000000000815260040180806020018281038252602e815260200180614622602e913960400191505060405180910390fd5b60008060019054906101000a900460ff161590508015611499576001600060016101000a81548160ff02191690831515021790555060016000806101000a81548160ff0219169083151502179055505b6114a1612d9b565b6114a9612113565b6114b38484611cad565b6114bc826129ff565b816101a160006101000a81548173ffffffffffffffffffffffffffffffffffffffff021916908373ffffffffffffffffffffffffffffffffffffffff16021790555061019e60405180608001604052806000815260200160008152602001600081526020016000600181111561152e57fe5b8152509080600181540180825580915050906001820390600052602060002090600402016000909192909190915060008201518160000155602082015181600101556040820151816002015560608201518160030160006101000a81548160ff0219169083600181111561159e57fe5b021790555050505080156115c75760008060016101000a81548160ff0219169083151502179055505b50505050565b60006115d882612eb2565b61162d576040517f08c379a000000000000000000000000000000000000000000000000000000000815260040180806020018281038252602c8152602001806145d4602c913960400191505060405180910390fd5b6067600083815260200190815260200160002060009054906101000a900473ffffffffffffffffffffffffffffffffffffffff169050919050565b600061167382611f76565b90508073ffffffffffffffffffffffffffffffffffffffff168373ffffffffffffffffffffffffffffffffffffffff1614156116fa576040517f08c379a00000000000000000000000000000000000000000000000000000000081526004018080602001828103825260218152602001806146a86021913960400191505060405180910390fd5b8073ffffffffffffffffffffffffffffffffffffffff16611719612f24565b73ffffffffffffffffffffffffffffffffffffffff161480611748575061174781611742612f24565b612c5b565b5b61179d576040517f08c379a00000000000000000000000000000000000000000000000000000000081526004018080602001828103825260388152602001806144f86038913960400191505060405180910390fd5b826067600084815260200190815260200160002060006101000a81548173ffffffffffffffffffffffffffffffffffffffff021916908373ffffffffffffffffffffffffffffffffffffffff160217905550818373ffffffffffffffffffffffffffffffffffffffff168273ffffffffffffffffffffffffffffffffffffffff167f8c5be1e5ebec7d5bd14f71427d1e84f3dd0314c0f7b2291e5b200ac8c7c3b92560405160405180910390a4505050565b6000609e80549050905090565b61186d611867612f24565b82612f2c565b6118c2576040517f08c379a00000000000000000000000000000000000000000000000000000000081526004018080602001828103825260318152602001806146c96031913960400191505060405180910390fd5b6118cd838383613020565b505050565b6000806000806000851161194e576040517f08c379a000000000000000000000000000000000000000000000000000000000815260040180806020018281038252601b8152602001807f5a65726f7468206c6963656e6365206973206e6f742076616c6964000000000081525060200191505060405180910390fd5b611956614346565b61019e868154811061196457fe5b90600052602060002090600402016040518060800160405290816000820154815260200160018201548152602001600282015481526020016003820160009054906101000a900460ff1660018111156119b957fe5b60018111156119c457fe5b815250509050806000015181602001518260400151836060015160018111156119e957fe5b9450945094509450509193509193565b6000611a048361203e565b8210611a5b576040517f08c379a000000000000000000000000000000000000000000000000000000000815260040180806020018281038252602b81526020018061444b602b913960400191505060405180910390fd5b609c60008473ffffffffffffffffffffffffffffffffffffffff1673ffffffffffffffffffffffffffffffffffffffff1681526020019081526020016000208281548110611aa557fe5b9060005260206000200154905092915050565b6101a160009054906101000a900473ffffffffffffffffffffffffffffffffffffffff1673ffffffffffffffffffffffffffffffffffffffff163373ffffffffffffffffffffffffffffffffffffffff1614611b7c576040517f08c379a000000000000000000000000000000000000000000000000000000000815260040180806020018281038252601e8152602001807f43616e206f6e6c792062652063616c6c6564206279207265676973747279000081525060200191505060405180910390fd5b600161019e8281548110611b8c57fe5b906000526020600020906004020160030160006101000a81548160ff02191690836001811115611bb857fe5b021790555050565b6000611bd2611bcd612f24565b61269d565b611c27576040517f08c379a00000000000000000000000000000000000000000000000000000000081526004018080602001828103825260308152602001806145836030913960400191505060405180910390fd5b611c318383613044565b6001905092915050565b611c568383836040518060200160405280600081525061293c565b505050565b6000806101a060008481526020019081526020016000208054905090506101a060008481526020019081526020016000206001820381548110611c9a57fe5b9060005260206000200154915050919050565b600060019054906101000a900460ff1680611ccc5750611ccb612d8a565b5b80611ce357506000809054906101000a900460ff16155b611d38576040517f08c379a000000000000000000000000000000000000000000000000000000000815260040180806020018281038252602e815260200180614622602e913960400191505060405180910390fd5b60008060019054906101000a900460ff161590508015611d88576001600060016101000a81548160ff02191690831515021790555060016000806101000a81548160ff0219169083151502179055505b611d90613065565b611d9957600080fd5b8260d29080519060200190611daf929190614379565b508160d39080519060200190611dc6929190614379565b50611dd7635b5e139f60e01b61307c565b8015611df85760008060016101000a81548160ff0219169083151502179055505b505050565b6000611e0761184f565b8210611e5e576040517f08c379a000000000000000000000000000000000000000000000000000000000815260040180806020018281038252602c8152602001806146fa602c913960400191505060405180910390fd5b609e8281548110611e6b57fe5b90600052602060002001549050919050565b6101a160009054906101000a900473ffffffffffffffffffffffffffffffffffffffff1673ffffffffffffffffffffffffffffffffffffffff163373ffffffffffffffffffffffffffffffffffffffff1614611f41576040517f08c379a000000000000000000000000000000000000000000000000000000000815260040180806020018281038252601e8152602001807f43616e206f6e6c792062652063616c6c6564206279207265676973747279000081525060200191505060405180910390fd5b8261019e8581548110611f5057fe5b906000526020600020906004020160000181905550611f7082828661185c565b50505050565b6000806066600084815260200190815260200160002060009054906101000a900473ffffffffffffffffffffffffffffffffffffffff169050600073ffffffffffffffffffffffffffffffffffffffff168173ffffffffffffffffffffffffffffffffffffffff161415612035576040517f08c379a000000000000000000000000000000000000000000000000000000000815260040180806020018281038252602981526020018061455a6029913960400191505060405180910390fd5b80915050919050565b60008073ffffffffffffffffffffffffffffffffffffffff168273ffffffffffffffffffffffffffffffffffffffff1614156120c5576040517f08c379a000000000000000000000000000000000000000000000000000000000815260040180806020018281038252602a815260200180614530602a913960400191505060405180910390fd5b61210c606860008473ffffffffffffffffffffffffffffffffffffffff1673ffffffffffffffffffffffffffffffffffffffff168152602001908152602001600020613185565b9050919050565b600060019054906101000a900460ff16806121325750612131612d8a565b5b8061214957506000809054906101000a900460ff16155b61219e576040517f08c379a000000000000000000000000000000000000000000000000000000000815260040180806020018281038252602e815260200180614622602e913960400191505060405180910390fd5b60008060019054906101000a900460ff1615905080156121ee576001600060016101000a81548160ff02191690831515021790555060016000806101000a81548160ff0219169083151502179055505b6121f6613065565b6121ff57600080fd5b61220f63780e9d6360e01b61307c565b80156122305760008060016101000a81548160ff0219169083151502179055505b50565b6000612245612240612f24565b61269d565b61229a576040517f08c379a00000000000000000000000000000000000000000000000000000000081526004018080602001828103825260308152602001806145836030913960400191505060405180910390fd5b6122a5848484613193565b600190509392505050565b600061019e82815481106122c057fe5b9060005260206000209060040201600001549050919050565b606060d38054600181600116156101000203166002900480601f0160208091040260200160405190810160405280929190818152602001828054600181600116156101000203166002900480156123715780601f1061234657610100808354040283529160200191612371565b820191906000526020600020905b81548152906001019060200180831161235457829003601f168201915b5050505050905090565b606061019f60008381526020019081526020016000208054806020026020016040519081016040528092919081815260200182805480156123db57602002820191906000526020600020905b8154815260200190600101908083116123c7575b50505050509050919050565b6123f76123f2612f24565b61269d565b61244c576040517f08c379a00000000000000000000000000000000000000000000000000000000081526004018080602001828103825260308152602001806145836030913960400191505060405180910390fd5b61245581613204565b50565b612468612463612f24565b61325f565b565b600061247c612477612f24565b61269d565b6124d1576040517f08c379a00000000000000000000000000000000000000000000000000000000081526004018080602001828103825260308152602001806145836030913960400191505060405180910390fd5b6124db83836132ba565b6001905092915050565b6124ed612f24565b73ffffffffffffffffffffffffffffffffffffffff168273ffffffffffffffffffffffffffffffffffffffff16141561258e576040517f08c379a00000000000000000000000000000000000000000000000000000000081526004018080602001828103825260198152602001807f4552433732313a20617070726f766520746f2063616c6c65720000000000000081525060200191505060405180910390fd5b806069600061259b612f24565b73ffffffffffffffffffffffffffffffffffffffff1673ffffffffffffffffffffffffffffffffffffffff16815260200190815260200160002060008473ffffffffffffffffffffffffffffffffffffffff1673ffffffffffffffffffffffffffffffffffffffff16815260200190815260200160002060006101000a81548160ff0219169083151502179055508173ffffffffffffffffffffffffffffffffffffffff16612648612f24565b73ffffffffffffffffffffffffffffffffffffffff167f17307eab39ab6107e8899845ad3d59bd9653f200f220920489ca2b5937696c3183604051808215151515815260200191505060405180910390a35050565b60006126b4826101396132d890919063ffffffff16565b9050919050565b60006101a160009054906101000a900473ffffffffffffffffffffffffffffffffffffffff1673ffffffffffffffffffffffffffffffffffffffff163373ffffffffffffffffffffffffffffffffffffffff1614612781576040517f08c379a000000000000000000000000000000000000000000000000000000000815260040180806020018281038252601e8152602001807f43616e206f6e6c792062652063616c6c6564206279207265676973747279000081525060200191505060405180910390fd5b612789614346565b6040518060800160405280868152602001858152602001848152602001600060018111156127b357fe5b81525090506000600161019e839080600181540180825580915050906001820390600052602060002090600402016000909192909190915060008201518160000155602082015181600101556040820151816002015560608201518160030160006101000a81548160ff0219169083600181111561282d57fe5b0217905550505003905061019f60008781526020019081526020016000208190806001815401808255809150509060018203906000526020600020016000909192909190915055506101a060008681526020019081526020016000208190806001815401808255809150509060018203906000526020600020016000909192909190915055506128bd8782611bc0565b61292f576040517f08c379a00000000000000000000000000000000000000000000000000000000081526004018080602001828103825260168152602001807f4c6963656e6365206d696e74696e67206661696c65640000000000000000000081525060200191505060405180910390fd5b8092505050949350505050565b61294d612947612f24565b83612f2c565b6129a2576040517f08c379a00000000000000000000000000000000000000000000000000000000081526004018080602001828103825260318152602001806146c96031913960400191505060405180910390fd5b6129ae848484846133b6565b50505050565b61019e81815481106129c257fe5b90600052602060002090600402016000915090508060000154908060010154908060020154908060030160009054906101000a900460ff16905084565b600060019054906101000a900460ff1680612a1e5750612a1d612d8a565b5b80612a3557506000809054906101000a900460ff16155b612a8a576040517f08c379a000000000000000000000000000000000000000000000000000000000815260040180806020018281038252602e815260200180614622602e913960400191505060405180910390fd5b60008060019054906101000a900460ff161590508015612ada576001600060016101000a81548160ff02191690831515021790555060016000806101000a81548160ff0219169083151502179055505b612ae2613065565b612aeb57600080fd5b612af482613428565b8015612b155760008060016101000a81548160ff0219169083151502179055505b5050565b6060612b2482612eb2565b612b79576040517f08c379a000000000000000000000000000000000000000000000000000000000815260040180806020018281038252602f815260200180614679602f913960400191505060405180910390fd5b60d460008381526020019081526020016000208054600181600116156101000203166002900480601f016020809104026020016040519081016040528092919081815260200182805460018160011615610100020316600290048015612c205780601f10612bf557610100808354040283529160200191612c20565b820191906000526020600020905b815481529060010190602001808311612c0357829003601f168201915b50505050509050919050565b6101a06020528160005260406000208181548110612c4657fe5b90600052602060002001600091509150505481565b6000606960008473ffffffffffffffffffffffffffffffffffffffff1673ffffffffffffffffffffffffffffffffffffffff16815260200190815260200160002060008373ffffffffffffffffffffffffffffffffffffffff1673ffffffffffffffffffffffffffffffffffffffff16815260200190815260200160002060009054906101000a900460ff16905092915050565b61019f6020528160005260406000208181548110612d0957fe5b90600052602060002001600091509150505481565b60606101a06000838152602001908152602001600020805480602002602001604051908101604052809291908181526020018280548015612d7e57602002820191906000526020600020905b815481526020019060010190808311612d6a575b50505050509050919050565b600080303b90506000811491505090565b600060019054906101000a900460ff1680612dba5750612db9612d8a565b5b80612dd157506000809054906101000a900460ff16155b612e26576040517f08c379a000000000000000000000000000000000000000000000000000000000815260040180806020018281038252602e815260200180614622602e913960400191505060405180910390fd5b60008060019054906101000a900460ff161590508015612e76576001600060016101000a81548160ff02191690831515021790555060016000806101000a81548160ff0219169083151502179055505b612e7e61353f565b612e8e6380ac58cd60e01b61307c565b8015612eaf5760008060016101000a81548160ff0219169083151502179055505b50565b6000806066600084815260200190815260200160002060009054906101000a900473ffffffffffffffffffffffffffffffffffffffff169050600073ffffffffffffffffffffffffffffffffffffffff168173ffffffffffffffffffffffffffffffffffffffff161415915050919050565b600033905090565b6000612f3782612eb2565b612f8c576040517f08c379a000000000000000000000000000000000000000000000000000000000815260040180806020018281038252602c8152602001806144cc602c913960400191505060405180910390fd5b6000612f9783611f76565b90508073ffffffffffffffffffffffffffffffffffffffff168473ffffffffffffffffffffffffffffffffffffffff16148061300657508373ffffffffffffffffffffffffffffffffffffffff16612fee846115cd565b73ffffffffffffffffffffffffffffffffffffffff16145b8061301757506130168185612c5b565b5b91505092915050565b61302b83838361364e565b61303583826138a9565b61303f8282613a47565b505050565b61304e8282613b0e565b6130588282613a47565b61306181613d26565b5050565b60006130776380ac58cd60e01b6112b4565b905090565b63ffffffff60e01b817bffffffffffffffffffffffffffffffffffffffffffffffffffffffff19161415613118576040517f08c379a000000000000000000000000000000000000000000000000000000000815260040180806020018281038252601c8152602001807f4552433136353a20696e76616c696420696e746572666163652069640000000081525060200191505060405180910390fd5b600160336000837bffffffffffffffffffffffffffffffffffffffffffffffffffffffff19167bffffffffffffffffffffffffffffffffffffffffffffffffffffffff1916815260200190815260200160002060006101000a81548160ff02191690831515021790555050565b600081600001549050919050565b61319d8383613044565b6131aa6000848484613d72565b6131ff576040517f08c379a00000000000000000000000000000000000000000000000000000000081526004018080602001828103825260328152602001806144766032913960400191505060405180910390fd5b505050565b61321981610139613f6290919063ffffffff16565b8073ffffffffffffffffffffffffffffffffffffffff167f6ae172837ea30b801fbfcdd4108aa1d5bf8ff775444fd70256b44e6bf3dfc3f660405160405180910390a250565b6132748161013961403d90919063ffffffff16565b8073ffffffffffffffffffffffffffffffffffffffff167fe94479a9f7e1952cc78f2d6baab678adc1b772d936c6583def489e524cb6669260405160405180910390a250565b6132d4828260405180602001604052806000815250613193565b5050565b60008073ffffffffffffffffffffffffffffffffffffffff168273ffffffffffffffffffffffffffffffffffffffff16141561335f576040517f08c379a00000000000000000000000000000000000000000000000000000000081526004018080602001828103825260228152602001806146006022913960400191505060405180910390fd5b8260000160008373ffffffffffffffffffffffffffffffffffffffff1673ffffffffffffffffffffffffffffffffffffffff16815260200190815260200160002060009054906101000a900460ff16905092915050565b6133c1848484613020565b6133cd84848484613d72565b613422576040517f08c379a00000000000000000000000000000000000000000000000000000000081526004018080602001828103825260328152602001806144766032913960400191505060405180910390fd5b50505050565b600060019054906101000a900460ff16806134475750613446612d8a565b5b8061345e57506000809054906101000a900460ff16155b6134b3576040517f08c379a000000000000000000000000000000000000000000000000000000000815260040180806020018281038252602e815260200180614622602e913960400191505060405180910390fd5b60008060019054906101000a900460ff161590508015613503576001600060016101000a81548160ff02191690831515021790555060016000806101000a81548160ff0219169083151502179055505b61350c8261269d565b61351a5761351982613204565b5b801561353b5760008060016101000a81548160ff0219169083151502179055505b5050565b600060019054906101000a900460ff168061355e575061355d612d8a565b5b8061357557506000809054906101000a900460ff16155b6135ca576040517f08c379a000000000000000000000000000000000000000000000000000000000815260040180806020018281038252602e815260200180614622602e913960400191505060405180910390fd5b60008060019054906101000a900460ff16159050801561361a576001600060016101000a81548160ff02191690831515021790555060016000806101000a81548160ff0219169083151502179055505b61362a6301ffc9a760e01b61307c565b801561364b5760008060016101000a81548160ff0219169083151502179055505b50565b8273ffffffffffffffffffffffffffffffffffffffff1661366e82611f76565b73ffffffffffffffffffffffffffffffffffffffff16146136da576040517f08c379a00000000000000000000000000000000000000000000000000000000081526004018080602001828103825260298152602001806146506029913960400191505060405180910390fd5b600073ffffffffffffffffffffffffffffffffffffffff168273ffffffffffffffffffffffffffffffffffffffff161415613760576040517f08c379a00000000000000000000000000000000000000000000000000000000081526004018080602001828103825260248152602001806144a86024913960400191505060405180910390fd5b613769816140fa565b6137b0606860008573ffffffffffffffffffffffffffffffffffffffff1673ffffffffffffffffffffffffffffffffffffffff1681526020019081526020016000206141b8565b6137f7606860008473ffffffffffffffffffffffffffffffffffffffff1673ffffffffffffffffffffffffffffffffffffffff1681526020019081526020016000206141db565b816066600083815260200190815260200160002060006101000a81548173ffffffffffffffffffffffffffffffffffffffff021916908373ffffffffffffffffffffffffffffffffffffffff160217905550808273ffffffffffffffffffffffffffffffffffffffff168473ffffffffffffffffffffffffffffffffffffffff167fddf252ad1be2c89b69c2b068fc378daa952ba7f163c4a11628f55a4df523b3ef60405160405180910390a4505050565b60006139016001609c60008673ffffffffffffffffffffffffffffffffffffffff1673ffffffffffffffffffffffffffffffffffffffff168152602001908152602001600020805490506141f190919063ffffffff16565b90506000609d60008481526020019081526020016000205490508181146139ee576000609c60008673ffffffffffffffffffffffffffffffffffffffff1673ffffffffffffffffffffffffffffffffffffffff168152602001908152602001600020838154811061396e57fe5b9060005260206000200154905080609c60008773ffffffffffffffffffffffffffffffffffffffff1673ffffffffffffffffffffffffffffffffffffffff16815260200190815260200160002083815481106139c657fe5b906000526020600020018190555081609d600083815260200190815260200160002081905550505b609c60008573ffffffffffffffffffffffffffffffffffffffff1673ffffffffffffffffffffffffffffffffffffffff168152602001908152602001600020805480919060019003613a4091906143f9565b5050505050565b609c60008373ffffffffffffffffffffffffffffffffffffffff1673ffffffffffffffffffffffffffffffffffffffff16815260200190815260200160002080549050609d600083815260200190815260200160002081905550609c60008373ffffffffffffffffffffffffffffffffffffffff1673ffffffffffffffffffffffffffffffffffffffff1681526020019081526020016000208190806001815401808255809150509060018203906000526020600020016000909192909190915055505050565b600073ffffffffffffffffffffffffffffffffffffffff168273ffffffffffffffffffffffffffffffffffffffff161415613bb1576040517f08c379a00000000000000000000000000000000000000000000000000000000081526004018080602001828103825260208152602001807f4552433732313a206d696e7420746f20746865207a65726f206164647265737381525060200191505060405180910390fd5b613bba81612eb2565b15613c2d576040517f08c379a000000000000000000000000000000000000000000000000000000000815260040180806020018281038252601c8152602001807f4552433732313a20746f6b656e20616c7265616479206d696e7465640000000081525060200191505060405180910390fd5b816066600083815260200190815260200160002060006101000a81548173ffffffffffffffffffffffffffffffffffffffff021916908373ffffffffffffffffffffffffffffffffffffffff160217905550613cc6606860008473ffffffffffffffffffffffffffffffffffffffff1673ffffffffffffffffffffffffffffffffffffffff1681526020019081526020016000206141db565b808273ffffffffffffffffffffffffffffffffffffffff16600073ffffffffffffffffffffffffffffffffffffffff167fddf252ad1be2c89b69c2b068fc378daa952ba7f163c4a11628f55a4df523b3ef60405160405180910390a45050565b609e80549050609f600083815260200190815260200160002081905550609e81908060018154018082558091505090600182039060005260206000200160009091929091909150555050565b6000613d938473ffffffffffffffffffffffffffffffffffffffff1661423b565b613da05760019050613f5a565b60008473ffffffffffffffffffffffffffffffffffffffff1663150b7a02613dc6612f24565b8887876040518563ffffffff1660e01b8152600401808573ffffffffffffffffffffffffffffffffffffffff1673ffffffffffffffffffffffffffffffffffffffff1681526020018473ffffffffffffffffffffffffffffffffffffffff1673ffffffffffffffffffffffffffffffffffffffff16815260200183815260200180602001828103825283818151815260200191508051906020019080838360005b83811015613e82578082015181840152602081019050613e67565b50505050905090810190601f168015613eaf5780820380516001836020036101000a031916815260200191505b5095505050505050602060405180830381600087803b158015613ed157600080fd5b505af1158015613ee5573d6000803e3d6000fd5b505050506040513d6020811015613efb57600080fd5b8101908080519060200190929190505050905063150b7a0260e01b7bffffffffffffffffffffffffffffffffffffffffffffffffffffffff1916817bffffffffffffffffffffffffffffffffffffffffffffffffffffffff1916149150505b949350505050565b613f6c82826132d8565b15613fdf576040517f08c379a000000000000000000000000000000000000000000000000000000000815260040180806020018281038252601f8152602001807f526f6c65733a206163636f756e7420616c72656164792068617320726f6c650081525060200191505060405180910390fd5b60018260000160008373ffffffffffffffffffffffffffffffffffffffff1673ffffffffffffffffffffffffffffffffffffffff16815260200190815260200160002060006101000a81548160ff0219169083151502179055505050565b61404782826132d8565b61409c576040517f08c379a00000000000000000000000000000000000000000000000000000000081526004018080602001828103825260218152602001806145b36021913960400191505060405180910390fd5b60008260000160008373ffffffffffffffffffffffffffffffffffffffff1673ffffffffffffffffffffffffffffffffffffffff16815260200190815260200160002060006101000a81548160ff0219169083151502179055505050565b600073ffffffffffffffffffffffffffffffffffffffff166067600083815260200190815260200160002060009054906101000a900473ffffffffffffffffffffffffffffffffffffffff1673ffffffffffffffffffffffffffffffffffffffff16146141b55760006067600083815260200190815260200160002060006101000a81548173ffffffffffffffffffffffffffffffffffffffff021916908373ffffffffffffffffffffffffffffffffffffffff1602179055505b50565b6141d0600182600001546141f190919063ffffffff16565b816000018190555050565b6001816000016000828254019250508190555050565b600061423383836040518060400160405280601e81526020017f536166654d6174683a207375627472616374696f6e206f766572666c6f770000815250614286565b905092915050565b60008060007fc5d2460186f7233c927e7db2dcc703c0e500b653ca82273b7bfad8045d85a47060001b9050833f91506000801b821415801561427d5750808214155b92505050919050565b6000838311158290614333576040517f08c379a00000000000000000000000000000000000000000000000000000000081526004018080602001828103825283818151815260200191508051906020019080838360005b838110156142f85780820151818401526020810190506142dd565b50505050905090810190601f1680156143255780820380516001836020036101000a031916815260200191505b509250505060405180910390fd5b5060008385039050809150509392505050565b60405180608001604052806000815260200160008152602001600081526020016000600181111561437357fe5b81525090565b828054600181600116156101000203166002900490600052602060002090601f016020900481019282601f106143ba57805160ff19168380011785556143e8565b828001600101855582156143e8579182015b828111156143e75782518255916020019190600101906143cc565b5b5090506143f59190614425565b5090565b8154818355818111156144205781836000526020600020918201910161441f9190614425565b5b505050565b61444791905b8082111561444357600081600090555060010161442b565b5090565b9056fe455243373231456e756d657261626c653a206f776e657220696e646578206f7574206f6620626f756e64734552433732313a207472616e7366657220746f206e6f6e20455243373231526563656976657220696d706c656d656e7465724552433732313a207472616e7366657220746f20746865207a65726f20616464726573734552433732313a206f70657261746f7220717565727920666f72206e6f6e6578697374656e7420746f6b656e4552433732313a20617070726f76652063616c6c6572206973206e6f74206f776e6572206e6f7220617070726f76656420666f7220616c6c4552433732313a2062616c616e636520717565727920666f7220746865207a65726f20616464726573734552433732313a206f776e657220717565727920666f72206e6f6e6578697374656e7420746f6b656e4d696e746572526f6c653a2063616c6c657220646f6573206e6f74206861766520746865204d696e74657220726f6c65526f6c65733a206163636f756e7420646f6573206e6f74206861766520726f6c654552433732313a20617070726f76656420717565727920666f72206e6f6e6578697374656e7420746f6b656e526f6c65733a206163636f756e7420697320746865207a65726f2061646472657373436f6e747261637420696e7374616e63652068617320616c7265616479206265656e20696e697469616c697a65644552433732313a207472616e73666572206f6620746f6b656e2074686174206973206e6f74206f776e4552433732314d657461646174613a2055524920717565727920666f72206e6f6e6578697374656e7420746f6b656e4552433732313a20617070726f76616c20746f2063757272656e74206f776e65724552433732313a207472616e736665722063616c6c6572206973206e6f74206f776e6572206e6f7220617070726f766564455243373231456e756d657261626c653a20676c6f62616c20696e646578206f7574206f6620626f756e6473a265627a7a7231582068c974d08ed9b004b3d1b08a3043eb9821093f2887f9305a305e3fceafcf013e64736f6c634300050c0032",
  "source": "pragma solidity ^0.5.12;\n\nimport \"@openzeppelin/upgrades/contracts/Initializable.sol\";\nimport \"@openzeppelin/contracts-ethereum-package/contracts/token/ERC721/ERC721.sol\";\nimport \"@openzeppelin/contracts-ethereum-package/contracts/token/ERC721/ERC721Full.sol\";\nimport \"@openzeppelin/contracts-ethereum-package/contracts/token/ERC721/ERC721Mintable.sol\";\n\ncontract LicenceManager is Initializable, ERC721Full, ERC721Mintable {\n    enum LicenceStatus {Active, Revoked}\n    struct Licence {\n        uint256 owner_Id;\n        uint256 publication_Id;\n        uint256 publicationLicenceNo;\n        LicenceStatus status;\n    }\n\n    Licence[] public licences;\n    // user Id to their array of licences\n    mapping(uint256 => uint256[]) public licenceOwners;\n    // licence Id to get the publication Id\n    mapping(uint256 => uint256[]) public publicationLicences;\n\n    modifier onlyRegistry() {\n        require(msg.sender == registry, \"Can only be called by registry\");\n        _;\n    }\n\n    address registry;\n    function initialize(\n        string memory _name,\n        string memory _symbol,\n        address _unicoinRegistry\n    ) public initializer {\n        ERC721.initialize();\n        ERC721Enumerable.initialize();\n        ERC721Metadata.initialize(_name, _symbol);\n        ERC721Mintable.initialize(_unicoinRegistry);\n\n        registry = _unicoinRegistry;\n\n        licences.push(Licence(0, 0, 0, LicenceStatus.Active));\n    }\n\n    function registerNewLicence(\n        address _ownerAddress,\n        uint256 _owner_Id,\n        uint256 _publication_Id,\n        uint256 _publicationLicenceNo\n    ) public onlyRegistry returns (uint256) {\n        Licence memory licence = Licence(\n            _owner_Id,\n            _publication_Id,\n            _publicationLicenceNo,\n            LicenceStatus.Active\n        );\n        uint256 licence_Id = licences.push(licence) - 1;\n\n        licenceOwners[_owner_Id].push(licence_Id);\n        publicationLicences[_publication_Id].push(licence_Id);\n\n        require(\n            ERC721Mintable.mint(_ownerAddress, licence_Id),\n            \"Licence minting failed\"\n        );\n        return licence_Id;\n    }\n\n    function revokeLicence(uint256 _licence_Id) public onlyRegistry {\n        licences[_licence_Id].status = LicenceStatus.Revoked;\n    }\n\n    function getLicenceForUser(uint256 _user_Id)\n        public\n        view\n        returns (uint256[] memory)\n    {\n        return licenceOwners[_user_Id];\n    }\n\n    function allocateLicenceToNewOwner(\n        uint256 _licence_Id,\n        uint256 _newOwner_Id,\n        address _oldNFTOwner_address,\n        address _newNFTOwner_address\n    ) public onlyRegistry {\n        licences[_licence_Id].owner_Id = _newOwner_Id;\n        ERC721.transferFrom(\n            _oldNFTOwner_address,\n            _newNFTOwner_address,\n            _licence_Id\n        );\n    }\n\n    function getLicence(uint256 _licence_Id)\n        public\n        view\n        returns (uint256, uint256, uint256, uint8)\n    {\n        require(_licence_Id > 0, \"Zeroth licence is not valid\");\n        Licence memory _licence = licences[_licence_Id];\n        return (\n            _licence.owner_Id,\n            _licence.publication_Id,\n            _licence.publicationLicenceNo,\n            uint8(_licence.status)\n        );\n    }\n\n    function getLicenceOwnerId(uint256 _licence_Id)\n        public\n        view\n        returns (uint256)\n    {\n        return licences[_licence_Id].owner_Id;\n    }\n\n    function getPublicationLicences(uint256 _publication_Id)\n        public\n        view\n        returns (uint256[] memory)\n    {\n        return publicationLicences[_publication_Id];\n    }\n\n    function getMostRecentPublicationLicence(uint256 _publication_Id)\n        public\n        view\n        returns (uint256)\n    {\n        uint256 numberOfPublications = publicationLicences[_publication_Id]\n            .length;\n        return publicationLicences[_publication_Id][numberOfPublications - 1];\n    }\n}\n",
  "sourcePath": "/Users/chris/Projects/unicoindapp/contracts/LicenceManager.sol",
  "compiler": {
    "name": "solc",
    "version": "0.5.12+commit.7709ece9.Emscripten.clang"
  },
  "schemaVersion": "3.0.16",
  "updatedAt": "2019-12-01T12:16:29.793Z",
  "devdoc": {
    "methods": {
      "approve(address,uint256)": {
        "details": "Approves another address to transfer the given token ID The zero address indicates there is no approved address. There can only be one approved address per token at a given time. Can only be called by the token owner or an approved operator.",
        "params": {
          "to": "address to be approved for the given token ID",
          "tokenId": "uint256 ID of the token to be approved"
        }
      },
      "balanceOf(address)": {
        "details": "Gets the balance of the specified address.",
        "params": {
          "owner": "address to query the balance of"
        },
        "return": "uint256 representing the amount owned by the passed address"
      },
      "getApproved(uint256)": {
        "details": "Gets the approved address for a token ID, or zero if no address set Reverts if the token ID does not exist.",
        "params": {
          "tokenId": "uint256 ID of the token to query the approval of"
        },
        "return": "address currently approved for the given token ID"
      },
      "initialize()": {
        "details": "Constructor function."
      },
      "initialize(string,string)": {
        "details": "Constructor function"
      },
      "isApprovedForAll(address,address)": {
        "details": "Tells whether an operator is approved by a given owner.",
        "params": {
          "operator": "operator address which you want to query the approval of",
          "owner": "owner address which you want to query the approval of"
        },
        "return": "bool whether the given operator is approved by the given owner"
      },
      "mint(address,uint256)": {
        "details": "Function to mint tokens.",
        "params": {
          "to": "The address that will receive the minted token.",
          "tokenId": "The token id to mint."
        },
        "return": "A boolean that indicates if the operation was successful."
      },
      "name()": {
        "details": "Gets the token name.",
        "return": "string representing the token name"
      },
      "ownerOf(uint256)": {
        "details": "Gets the owner of the specified token ID.",
        "params": {
          "tokenId": "uint256 ID of the token to query the owner of"
        },
        "return": "address currently marked as the owner of the given token ID"
      },
      "safeMint(address,uint256)": {
        "details": "Function to safely mint tokens.",
        "params": {
          "to": "The address that will receive the minted token.",
          "tokenId": "The token id to mint."
        },
        "return": "A boolean that indicates if the operation was successful."
      },
      "safeMint(address,uint256,bytes)": {
        "details": "Function to safely mint tokens.",
        "params": {
          "_data": "bytes data to send along with a safe transfer check.",
          "to": "The address that will receive the minted token.",
          "tokenId": "The token id to mint."
        },
        "return": "A boolean that indicates if the operation was successful."
      },
      "safeTransferFrom(address,address,uint256)": {
        "details": "Safely transfers the ownership of a given token ID to another address If the target address is a contract, it must implement {IERC721Receiver-onERC721Received}, which is called upon a safe transfer, and return the magic value `bytes4(keccak256(\"onERC721Received(address,address,uint256,bytes)\"))`; otherwise, the transfer is reverted. Requires the msg.sender to be the owner, approved, or operator",
        "params": {
          "from": "current owner of the token",
          "to": "address to receive the ownership of the given token ID",
          "tokenId": "uint256 ID of the token to be transferred"
        }
      },
      "safeTransferFrom(address,address,uint256,bytes)": {
        "details": "Safely transfers the ownership of a given token ID to another address If the target address is a contract, it must implement {IERC721Receiver-onERC721Received}, which is called upon a safe transfer, and return the magic value `bytes4(keccak256(\"onERC721Received(address,address,uint256,bytes)\"))`; otherwise, the transfer is reverted. Requires the _msgSender() to be the owner, approved, or operator",
        "params": {
          "_data": "bytes data to send along with a safe transfer check",
          "from": "current owner of the token",
          "to": "address to receive the ownership of the given token ID",
          "tokenId": "uint256 ID of the token to be transferred"
        }
      },
      "setApprovalForAll(address,bool)": {
        "details": "Sets or unsets the approval of a given operator An operator is allowed to transfer all tokens of the sender on their behalf.",
        "params": {
          "approved": "representing the status of the approval to be set",
          "to": "operator address to set the approval"
        }
      },
      "supportsInterface(bytes4)": {
        "details": "See {IERC165-supportsInterface}.     * Time complexity O(1), guaranteed to always use less than 30 000 gas."
      },
      "symbol()": {
        "details": "Gets the token symbol.",
        "return": "string representing the token symbol"
      },
      "tokenByIndex(uint256)": {
        "details": "Gets the token ID at a given index of all the tokens in this contract Reverts if the index is greater or equal to the total number of tokens.",
        "params": {
          "index": "uint256 representing the index to be accessed of the tokens list"
        },
        "return": "uint256 token ID at the given index of the tokens list"
      },
      "tokenOfOwnerByIndex(address,uint256)": {
        "details": "Gets the token ID at a given index of the tokens list of the requested owner.",
        "params": {
          "index": "uint256 representing the index to be accessed of the requested tokens list",
          "owner": "address owning the tokens list to be accessed"
        },
        "return": "uint256 token ID at the given index of the tokens list owned by the requested address"
      },
      "tokenURI(uint256)": {
        "details": "Returns an URI for a given token ID. Throws if the token ID does not exist. May return an empty string.",
        "params": {
          "tokenId": "uint256 ID of the token to query"
        }
      },
      "totalSupply()": {
        "details": "Gets the total amount of tokens stored by the contract.",
        "return": "uint256 representing the total amount of tokens"
      },
      "transferFrom(address,address,uint256)": {
        "details": "Transfers the ownership of a given token ID to another address. Usage of this method is discouraged, use {safeTransferFrom} whenever possible. Requires the msg.sender to be the owner, approved, or operator.",
        "params": {
          "from": "current owner of the token",
          "to": "address to receive the ownership of the given token ID",
          "tokenId": "uint256 ID of the token to be transferred"
        }
      }
    }
  },
  "userdoc": {
    "methods": {}
  }
}