{
  "contractName": "LicenceManager",
  "abi": [
    {
      "anonymous": false,
      "inputs": [
        {
          "indexed": true,
          "internalType": "address",
          "name": "owner",
          "type": "address"
        },
        {
          "indexed": true,
          "internalType": "address",
          "name": "approved",
          "type": "address"
        },
        {
          "indexed": true,
          "internalType": "uint256",
          "name": "tokenId",
          "type": "uint256"
        }
      ],
      "name": "Approval",
      "type": "event"
    },
    {
      "anonymous": false,
      "inputs": [
        {
          "indexed": true,
          "internalType": "address",
          "name": "owner",
          "type": "address"
        },
        {
          "indexed": true,
          "internalType": "address",
          "name": "operator",
          "type": "address"
        },
        {
          "indexed": false,
          "internalType": "bool",
          "name": "approved",
          "type": "bool"
        }
      ],
      "name": "ApprovalForAll",
      "type": "event"
    },
    {
      "anonymous": false,
      "inputs": [
        {
          "indexed": true,
          "internalType": "address",
          "name": "account",
          "type": "address"
        }
      ],
      "name": "MinterAdded",
      "type": "event"
    },
    {
      "anonymous": false,
      "inputs": [
        {
          "indexed": true,
          "internalType": "address",
          "name": "account",
          "type": "address"
        }
      ],
      "name": "MinterRemoved",
      "type": "event"
    },
    {
      "anonymous": false,
      "inputs": [
        {
          "indexed": true,
          "internalType": "address",
          "name": "from",
          "type": "address"
        },
        {
          "indexed": true,
          "internalType": "address",
          "name": "to",
          "type": "address"
        },
        {
          "indexed": true,
          "internalType": "uint256",
          "name": "tokenId",
          "type": "uint256"
        }
      ],
      "name": "Transfer",
      "type": "event"
    },
    {
      "constant": false,
      "inputs": [
        {
          "internalType": "address",
          "name": "account",
          "type": "address"
        }
      ],
      "name": "addMinter",
      "outputs": [],
      "payable": false,
      "stateMutability": "nonpayable",
      "type": "function"
    },
    {
      "constant": false,
      "inputs": [
        {
          "internalType": "address",
          "name": "to",
          "type": "address"
        },
        {
          "internalType": "uint256",
          "name": "tokenId",
          "type": "uint256"
        }
      ],
      "name": "approve",
      "outputs": [],
      "payable": false,
      "stateMutability": "nonpayable",
      "type": "function"
    },
    {
      "constant": true,
      "inputs": [
        {
          "internalType": "address",
          "name": "owner",
          "type": "address"
        }
      ],
      "name": "balanceOf",
      "outputs": [
        {
          "internalType": "uint256",
          "name": "",
          "type": "uint256"
        }
      ],
      "payable": false,
      "stateMutability": "view",
      "type": "function"
    },
    {
      "constant": true,
      "inputs": [
        {
          "internalType": "uint256",
          "name": "tokenId",
          "type": "uint256"
        }
      ],
      "name": "getApproved",
      "outputs": [
        {
          "internalType": "address",
          "name": "",
          "type": "address"
        }
      ],
      "payable": false,
      "stateMutability": "view",
      "type": "function"
    },
    {
      "constant": true,
      "inputs": [
        {
          "internalType": "address",
          "name": "owner",
          "type": "address"
        },
        {
          "internalType": "address",
          "name": "operator",
          "type": "address"
        }
      ],
      "name": "isApprovedForAll",
      "outputs": [
        {
          "internalType": "bool",
          "name": "",
          "type": "bool"
        }
      ],
      "payable": false,
      "stateMutability": "view",
      "type": "function"
    },
    {
      "constant": true,
      "inputs": [
        {
          "internalType": "address",
          "name": "account",
          "type": "address"
        }
      ],
      "name": "isMinter",
      "outputs": [
        {
          "internalType": "bool",
          "name": "",
          "type": "bool"
        }
      ],
      "payable": false,
      "stateMutability": "view",
      "type": "function"
    },
    {
      "constant": true,
      "inputs": [
        {
          "internalType": "uint256",
          "name": "",
          "type": "uint256"
        },
        {
          "internalType": "uint256",
          "name": "",
          "type": "uint256"
        }
      ],
      "name": "licenceOwners",
      "outputs": [
        {
          "internalType": "uint256",
          "name": "",
          "type": "uint256"
        }
      ],
      "payable": false,
      "stateMutability": "view",
      "type": "function"
    },
    {
      "constant": true,
      "inputs": [
        {
          "internalType": "uint256",
          "name": "",
          "type": "uint256"
        }
      ],
      "name": "licences",
      "outputs": [
        {
          "internalType": "uint256",
          "name": "owner_Id",
          "type": "uint256"
        },
        {
          "internalType": "uint256",
          "name": "publication_Id",
          "type": "uint256"
        },
        {
          "internalType": "uint256",
          "name": "publicationLicenceNo",
          "type": "uint256"
        },
        {
          "internalType": "enum LicenceManager.LicenceStatus",
          "name": "status",
          "type": "uint8"
        }
      ],
      "payable": false,
      "stateMutability": "view",
      "type": "function"
    },
    {
      "constant": false,
      "inputs": [
        {
          "internalType": "address",
          "name": "to",
          "type": "address"
        },
        {
          "internalType": "uint256",
          "name": "tokenId",
          "type": "uint256"
        }
      ],
      "name": "mint",
      "outputs": [
        {
          "internalType": "bool",
          "name": "",
          "type": "bool"
        }
      ],
      "payable": false,
      "stateMutability": "nonpayable",
      "type": "function"
    },
    {
      "constant": true,
      "inputs": [],
      "name": "name",
      "outputs": [
        {
          "internalType": "string",
          "name": "",
          "type": "string"
        }
      ],
      "payable": false,
      "stateMutability": "view",
      "type": "function"
    },
    {
      "constant": true,
      "inputs": [
        {
          "internalType": "uint256",
          "name": "tokenId",
          "type": "uint256"
        }
      ],
      "name": "ownerOf",
      "outputs": [
        {
          "internalType": "address",
          "name": "",
          "type": "address"
        }
      ],
      "payable": false,
      "stateMutability": "view",
      "type": "function"
    },
    {
      "constant": true,
      "inputs": [
        {
          "internalType": "uint256",
          "name": "",
          "type": "uint256"
        },
        {
          "internalType": "uint256",
          "name": "",
          "type": "uint256"
        }
      ],
      "name": "publicationLicences",
      "outputs": [
        {
          "internalType": "uint256",
          "name": "",
          "type": "uint256"
        }
      ],
      "payable": false,
      "stateMutability": "view",
      "type": "function"
    },
    {
      "constant": false,
      "inputs": [],
      "name": "renounceMinter",
      "outputs": [],
      "payable": false,
      "stateMutability": "nonpayable",
      "type": "function"
    },
    {
      "constant": false,
      "inputs": [
        {
          "internalType": "address",
          "name": "to",
          "type": "address"
        },
        {
          "internalType": "uint256",
          "name": "tokenId",
          "type": "uint256"
        },
        {
          "internalType": "bytes",
          "name": "_data",
          "type": "bytes"
        }
      ],
      "name": "safeMint",
      "outputs": [
        {
          "internalType": "bool",
          "name": "",
          "type": "bool"
        }
      ],
      "payable": false,
      "stateMutability": "nonpayable",
      "type": "function"
    },
    {
      "constant": false,
      "inputs": [
        {
          "internalType": "address",
          "name": "to",
          "type": "address"
        },
        {
          "internalType": "uint256",
          "name": "tokenId",
          "type": "uint256"
        }
      ],
      "name": "safeMint",
      "outputs": [
        {
          "internalType": "bool",
          "name": "",
          "type": "bool"
        }
      ],
      "payable": false,
      "stateMutability": "nonpayable",
      "type": "function"
    },
    {
      "constant": false,
      "inputs": [
        {
          "internalType": "address",
          "name": "from",
          "type": "address"
        },
        {
          "internalType": "address",
          "name": "to",
          "type": "address"
        },
        {
          "internalType": "uint256",
          "name": "tokenId",
          "type": "uint256"
        }
      ],
      "name": "safeTransferFrom",
      "outputs": [],
      "payable": false,
      "stateMutability": "nonpayable",
      "type": "function"
    },
    {
      "constant": false,
      "inputs": [
        {
          "internalType": "address",
          "name": "from",
          "type": "address"
        },
        {
          "internalType": "address",
          "name": "to",
          "type": "address"
        },
        {
          "internalType": "uint256",
          "name": "tokenId",
          "type": "uint256"
        },
        {
          "internalType": "bytes",
          "name": "_data",
          "type": "bytes"
        }
      ],
      "name": "safeTransferFrom",
      "outputs": [],
      "payable": false,
      "stateMutability": "nonpayable",
      "type": "function"
    },
    {
      "constant": false,
      "inputs": [
        {
          "internalType": "address",
          "name": "to",
          "type": "address"
        },
        {
          "internalType": "bool",
          "name": "approved",
          "type": "bool"
        }
      ],
      "name": "setApprovalForAll",
      "outputs": [],
      "payable": false,
      "stateMutability": "nonpayable",
      "type": "function"
    },
    {
      "constant": true,
      "inputs": [
        {
          "internalType": "bytes4",
          "name": "interfaceId",
          "type": "bytes4"
        }
      ],
      "name": "supportsInterface",
      "outputs": [
        {
          "internalType": "bool",
          "name": "",
          "type": "bool"
        }
      ],
      "payable": false,
      "stateMutability": "view",
      "type": "function"
    },
    {
      "constant": true,
      "inputs": [],
      "name": "symbol",
      "outputs": [
        {
          "internalType": "string",
          "name": "",
          "type": "string"
        }
      ],
      "payable": false,
      "stateMutability": "view",
      "type": "function"
    },
    {
      "constant": true,
      "inputs": [
        {
          "internalType": "uint256",
          "name": "index",
          "type": "uint256"
        }
      ],
      "name": "tokenByIndex",
      "outputs": [
        {
          "internalType": "uint256",
          "name": "",
          "type": "uint256"
        }
      ],
      "payable": false,
      "stateMutability": "view",
      "type": "function"
    },
    {
      "constant": true,
      "inputs": [
        {
          "internalType": "address",
          "name": "owner",
          "type": "address"
        },
        {
          "internalType": "uint256",
          "name": "index",
          "type": "uint256"
        }
      ],
      "name": "tokenOfOwnerByIndex",
      "outputs": [
        {
          "internalType": "uint256",
          "name": "",
          "type": "uint256"
        }
      ],
      "payable": false,
      "stateMutability": "view",
      "type": "function"
    },
    {
      "constant": true,
      "inputs": [
        {
          "internalType": "uint256",
          "name": "tokenId",
          "type": "uint256"
        }
      ],
      "name": "tokenURI",
      "outputs": [
        {
          "internalType": "string",
          "name": "",
          "type": "string"
        }
      ],
      "payable": false,
      "stateMutability": "view",
      "type": "function"
    },
    {
      "constant": true,
      "inputs": [],
      "name": "totalSupply",
      "outputs": [
        {
          "internalType": "uint256",
          "name": "",
          "type": "uint256"
        }
      ],
      "payable": false,
      "stateMutability": "view",
      "type": "function"
    },
    {
      "constant": false,
      "inputs": [
        {
          "internalType": "address",
          "name": "from",
          "type": "address"
        },
        {
          "internalType": "address",
          "name": "to",
          "type": "address"
        },
        {
          "internalType": "uint256",
          "name": "tokenId",
          "type": "uint256"
        }
      ],
      "name": "transferFrom",
      "outputs": [],
      "payable": false,
      "stateMutability": "nonpayable",
      "type": "function"
    },
    {
      "constant": false,
      "inputs": [
        {
          "internalType": "string",
          "name": "_name",
          "type": "string"
        },
        {
          "internalType": "string",
          "name": "_symbol",
          "type": "string"
        },
        {
          "internalType": "address",
          "name": "_unicoinRegistry",
          "type": "address"
        }
      ],
      "name": "initialize",
      "outputs": [],
      "payable": false,
      "stateMutability": "nonpayable",
      "type": "function"
    },
    {
      "constant": false,
      "inputs": [
        {
          "internalType": "string",
          "name": "name",
          "type": "string"
        },
        {
          "internalType": "string",
          "name": "symbol",
          "type": "string"
        }
      ],
      "name": "initialize",
      "outputs": [],
      "payable": false,
      "stateMutability": "nonpayable",
      "type": "function"
    },
    {
      "constant": false,
      "inputs": [],
      "name": "initialize",
      "outputs": [],
      "payable": false,
      "stateMutability": "nonpayable",
      "type": "function"
    },
    {
      "constant": false,
      "inputs": [
        {
          "internalType": "address",
          "name": "sender",
          "type": "address"
        }
      ],
      "name": "initialize",
      "outputs": [],
      "payable": false,
      "stateMutability": "nonpayable",
      "type": "function"
    },
    {
      "constant": false,
      "inputs": [
        {
          "internalType": "address",
          "name": "_ownerAddress",
          "type": "address"
        },
        {
          "internalType": "uint256",
          "name": "_owner_Id",
          "type": "uint256"
        },
        {
          "internalType": "uint256",
          "name": "_publication_Id",
          "type": "uint256"
        },
        {
          "internalType": "uint256",
          "name": "_publicationLicenceNo",
          "type": "uint256"
        }
      ],
      "name": "registerNewLicence",
      "outputs": [
        {
          "internalType": "uint256",
          "name": "",
          "type": "uint256"
        }
      ],
      "payable": false,
      "stateMutability": "nonpayable",
      "type": "function"
    },
    {
      "constant": false,
      "inputs": [
        {
          "internalType": "uint256",
          "name": "_licence_Id",
          "type": "uint256"
        }
      ],
      "name": "revokeLicence",
      "outputs": [],
      "payable": false,
      "stateMutability": "nonpayable",
      "type": "function"
    },
    {
      "constant": true,
      "inputs": [
        {
          "internalType": "uint256",
          "name": "_user_Id",
          "type": "uint256"
        }
      ],
      "name": "getLicenceForUser",
      "outputs": [
        {
          "internalType": "uint256[]",
          "name": "",
          "type": "uint256[]"
        }
      ],
      "payable": false,
      "stateMutability": "view",
      "type": "function"
    },
    {
      "constant": true,
      "inputs": [
        {
          "internalType": "uint256",
          "name": "_licence_Id",
          "type": "uint256"
        }
      ],
      "name": "getLicence",
      "outputs": [
        {
          "internalType": "uint256",
          "name": "",
          "type": "uint256"
        },
        {
          "internalType": "uint256",
          "name": "",
          "type": "uint256"
        },
        {
          "internalType": "uint256",
          "name": "",
          "type": "uint256"
        },
        {
          "internalType": "uint8",
          "name": "",
          "type": "uint8"
        }
      ],
      "payable": false,
      "stateMutability": "view",
      "type": "function"
    },
    {
      "constant": true,
      "inputs": [
        {
          "internalType": "uint256",
          "name": "_publication_Id",
          "type": "uint256"
        }
      ],
      "name": "getPublicationLicences",
      "outputs": [
        {
          "internalType": "uint256[]",
          "name": "",
          "type": "uint256[]"
        }
      ],
      "payable": false,
      "stateMutability": "view",
      "type": "function"
    }
  ],
  "bytecode": "0x60806040526144c9806100136000396000f3fe608060405234801561001057600080fd5b50600436106102065760003560e01c80638832e6e31161011a578063af5485a8116100ad578063c87b56dd1161007c578063c87b56dd14610f59578063d628d54014611000578063e985e9c51461104c578063f8ede44a146110c8578063fbd9d2eb1461111457610206565b8063af5485a814610d35578063b88d4fde14610dab578063bb44aee314610eb0578063c4d66de814610f1557610206565b806398650275116100e95780639865027514610c19578063a144819414610c23578063a22cb46514610c89578063aa271e1a14610cd957610206565b80638832e6e3146109d257806395d89b4114610acf5780639787bb4114610b52578063983b2d5614610bd557610206565b80632f745c591161019d5780634cd88b761161016c5780634cd88b761461076e5780634f6ccce7146108c05780636352211e1461090257806370a08231146109705780638129fc1c146109c857610206565b80632f745c591461060a5780633a7ae75d1461066c57806340c10f191461069a57806342842e0e1461070057610206565b8063095ea7b3116101d9578063095ea7b3146104d357806318160ddd1461052157806323b872dd1461053f5780632cedebee146105ad57610206565b806301ffc9a71461020b57806306fdde0314610270578063077f224a146102f3578063081812fc14610465575b600080fd5b6102566004803603602081101561022157600080fd5b8101908080357bffffffffffffffffffffffffffffffffffffffffffffffffffffffff19169060200190929190505050611197565b604051808215151515815260200191505060405180910390f35b6102786111ff565b6040518080602001828103825283818151815260200191508051906020019080838360005b838110156102b857808201518184015260208101905061029d565b50505050905090810190601f1680156102e55780820380516001836020036101000a031916815260200191505b509250505060405180910390f35b6104636004803603606081101561030957600080fd5b810190808035906020019064010000000081111561032657600080fd5b82018360208201111561033857600080fd5b8035906020019184600183028401116401000000008311171561035a57600080fd5b91908080601f016020809104026020016040519081016040528093929190818152602001838380828437600081840152601f19601f820116905080830192505050505050509192919290803590602001906401000000008111156103bd57600080fd5b8201836020820111156103cf57600080fd5b803590602001918460018302840111640100000000831117156103f157600080fd5b91908080601f016020809104026020016040519081016040528093929190818152602001838380828437600081840152601f19601f820116905080830192505050505050509192919290803573ffffffffffffffffffffffffffffffffffffffff1690602001909291905050506112a1565b005b6104916004803603602081101561047b57600080fd5b81019080803590602001909291905050506114b0565b604051808273ffffffffffffffffffffffffffffffffffffffff1673ffffffffffffffffffffffffffffffffffffffff16815260200191505060405180910390f35b61051f600480360360408110156104e957600080fd5b81019080803573ffffffffffffffffffffffffffffffffffffffff1690602001909291908035906020019092919050505061154b565b005b610529611732565b6040518082815260200191505060405180910390f35b6105ab6004803603606081101561055557600080fd5b81019080803573ffffffffffffffffffffffffffffffffffffffff169060200190929190803573ffffffffffffffffffffffffffffffffffffffff1690602001909291908035906020019092919050505061173f565b005b6105d9600480360360208110156105c357600080fd5b81019080803590602001909291905050506117b5565b604051808581526020018481526020018381526020018260ff1660ff16815260200194505050505060405180910390f35b6106566004803603604081101561062057600080fd5b81019080803573ffffffffffffffffffffffffffffffffffffffff169060200190929190803590602001909291905050506118dc565b6040518082815260200191505060405180910390f35b6106986004803603602081101561068257600080fd5b810190808035906020019092919050505061199b565b005b6106e6600480360360408110156106b057600080fd5b81019080803573ffffffffffffffffffffffffffffffffffffffff16906020019092919080359060200190929190505050611aa3565b604051808215151515815260200191505060405180910390f35b61076c6004803603606081101561071657600080fd5b81019080803573ffffffffffffffffffffffffffffffffffffffff169060200190929190803573ffffffffffffffffffffffffffffffffffffffff16906020019092919080359060200190929190505050611b1e565b005b6108be6004803603604081101561078457600080fd5b81019080803590602001906401000000008111156107a157600080fd5b8201836020820111156107b357600080fd5b803590602001918460018302840111640100000000831117156107d557600080fd5b91908080601f016020809104026020016040519081016040528093929190818152602001838380828437600081840152601f19601f8201169050808301925050505050505091929192908035906020019064010000000081111561083857600080fd5b82018360208201111561084a57600080fd5b8035906020019184600183028401116401000000008311171561086c57600080fd5b91908080601f016020809104026020016040519081016040528093929190818152602001838380828437600081840152601f19601f820116905080830192505050505050509192919290505050611b3e565b005b6108ec600480360360208110156108d657600080fd5b8101908080359060200190929190505050611c8e565b6040518082815260200191505060405180910390f35b61092e6004803603602081101561091857600080fd5b8101908080359060200190929190505050611d0e565b604051808273ffffffffffffffffffffffffffffffffffffffff1673ffffffffffffffffffffffffffffffffffffffff16815260200191505060405180910390f35b6109b26004803603602081101561098657600080fd5b81019080803573ffffffffffffffffffffffffffffffffffffffff169060200190929190505050611dd6565b6040518082815260200191505060405180910390f35b6109d0611eab565b005b610ab5600480360360608110156109e857600080fd5b81019080803573ffffffffffffffffffffffffffffffffffffffff1690602001909291908035906020019092919080359060200190640100000000811115610a2f57600080fd5b820183602082011115610a4157600080fd5b80359060200191846001830284011164010000000083111715610a6357600080fd5b91908080601f016020809104026020016040519081016040528093929190818152602001838380828437600081840152601f19601f820116905080830192505050505050509192919290505050611fcb565b604051808215151515815260200191505060405180910390f35b610ad7612048565b6040518080602001828103825283818151815260200191508051906020019080838360005b83811015610b17578082015181840152602081019050610afc565b50505050905090810190601f168015610b445780820380516001836020036101000a031916815260200191505b509250505060405180910390f35b610b7e60048036036020811015610b6857600080fd5b81019080803590602001909291905050506120ea565b6040518080602001828103825283818151815260200191508051906020019060200280838360005b83811015610bc1578082015181840152602081019050610ba6565b505050509050019250505060405180910390f35b610c1760048036036020811015610beb57600080fd5b81019080803573ffffffffffffffffffffffffffffffffffffffff169060200190929190505050612156565b005b610c216121c7565b005b610c6f60048036036040811015610c3957600080fd5b81019080803573ffffffffffffffffffffffffffffffffffffffff169060200190929190803590602001909291905050506121d9565b604051808215151515815260200191505060405180910390f35b610cd760048036036040811015610c9f57600080fd5b81019080803573ffffffffffffffffffffffffffffffffffffffff169060200190929190803515159060200190929190505050612254565b005b610d1b60048036036020811015610cef57600080fd5b81019080803573ffffffffffffffffffffffffffffffffffffffff16906020019092919050505061240c565b604051808215151515815260200191505060405180910390f35b610d9560048036036080811015610d4b57600080fd5b81019080803573ffffffffffffffffffffffffffffffffffffffff16906020019092919080359060200190929190803590602001909291908035906020019092919050505061242a565b6040518082815260200191505060405180910390f35b610eae60048036036080811015610dc157600080fd5b81019080803573ffffffffffffffffffffffffffffffffffffffff169060200190929190803573ffffffffffffffffffffffffffffffffffffffff1690602001909291908035906020019092919080359060200190640100000000811115610e2857600080fd5b820183602082011115610e3a57600080fd5b80359060200191846001830284011164010000000083111715610e5c57600080fd5b91908080601f016020809104026020016040519081016040528093929190818152602001838380828437600081840152601f19601f8201169050808301925050505050505091929192905050506126ab565b005b610edc60048036036020811015610ec657600080fd5b8101908080359060200190929190505050612723565b60405180858152602001848152602001838152602001826001811115610efe57fe5b60ff16815260200194505050505060405180910390f35b610f5760048036036020811015610f2b57600080fd5b81019080803573ffffffffffffffffffffffffffffffffffffffff16906020019092919050505061276e565b005b610f8560048036036020811015610f6f57600080fd5b8101908080359060200190929190505050612888565b6040518080602001828103825283818151815260200191508051906020019080838360005b83811015610fc5578082015181840152602081019050610faa565b50505050905090810190601f168015610ff25780820380516001836020036101000a031916815260200191505b509250505060405180910390f35b6110366004803603604081101561101657600080fd5b81019080803590602001909291908035906020019092919050505061299b565b6040518082815260200191505060405180910390f35b6110ae6004803603604081101561106257600080fd5b81019080803573ffffffffffffffffffffffffffffffffffffffff169060200190929190803573ffffffffffffffffffffffffffffffffffffffff1690602001909291905050506129ca565b604051808215151515815260200191505060405180910390f35b6110fe600480360360408110156110de57600080fd5b810190808035906020019092919080359060200190929190505050612a5e565b6040518082815260200191505060405180910390f35b6111406004803603602081101561112a57600080fd5b8101908080359060200190929190505050612a8d565b6040518080602001828103825283818151815260200191508051906020019060200280838360005b83811015611183578082015181840152602081019050611168565b505050509050019250505060405180910390f35b600060336000837bffffffffffffffffffffffffffffffffffffffffffffffffffffffff19167bffffffffffffffffffffffffffffffffffffffffffffffffffffffff1916815260200190815260200160002060009054906101000a900460ff169050919050565b606060d28054600181600116156101000203166002900480601f0160208091040260200160405190810160405280929190818152602001828054600181600116156101000203166002900480156112975780601f1061126c57610100808354040283529160200191611297565b820191906000526020600020905b81548152906001019060200180831161127a57829003601f168201915b5050505050905090565b600060019054906101000a900460ff16806112c057506112bf612af9565b5b806112d757506000809054906101000a900460ff16155b61132c576040517f08c379a000000000000000000000000000000000000000000000000000000000815260040180806020018281038252602e815260200180614391602e913960400191505060405180910390fd5b60008060019054906101000a900460ff16159050801561137c576001600060016101000a81548160ff02191690831515021790555060016000806101000a81548160ff0219169083151502179055505b611384612b0a565b61138c611eab565b6113968484611b3e565b61139f8261276e565b816101a160006101000a81548173ffffffffffffffffffffffffffffffffffffffff021916908373ffffffffffffffffffffffffffffffffffffffff16021790555061019e60405180608001604052806000815260200160008152602001600081526020016000600181111561141157fe5b8152509080600181540180825580915050906001820390600052602060002090600402016000909192909190915060008201518160000155602082015181600101556040820151816002015560608201518160030160006101000a81548160ff0219169083600181111561148157fe5b021790555050505080156114aa5760008060016101000a81548160ff0219169083151502179055505b50505050565b60006114bb82612c21565b611510576040517f08c379a000000000000000000000000000000000000000000000000000000000815260040180806020018281038252602c815260200180614343602c913960400191505060405180910390fd5b6067600083815260200190815260200160002060009054906101000a900473ffffffffffffffffffffffffffffffffffffffff169050919050565b600061155682611d0e565b90508073ffffffffffffffffffffffffffffffffffffffff168373ffffffffffffffffffffffffffffffffffffffff1614156115dd576040517f08c379a00000000000000000000000000000000000000000000000000000000081526004018080602001828103825260218152602001806144176021913960400191505060405180910390fd5b8073ffffffffffffffffffffffffffffffffffffffff166115fc612c93565b73ffffffffffffffffffffffffffffffffffffffff16148061162b575061162a81611625612c93565b6129ca565b5b611680576040517f08c379a00000000000000000000000000000000000000000000000000000000081526004018080602001828103825260388152602001806142676038913960400191505060405180910390fd5b826067600084815260200190815260200160002060006101000a81548173ffffffffffffffffffffffffffffffffffffffff021916908373ffffffffffffffffffffffffffffffffffffffff160217905550818373ffffffffffffffffffffffffffffffffffffffff168273ffffffffffffffffffffffffffffffffffffffff167f8c5be1e5ebec7d5bd14f71427d1e84f3dd0314c0f7b2291e5b200ac8c7c3b92560405160405180910390a4505050565b6000609e80549050905090565b61175061174a612c93565b82612c9b565b6117a5576040517f08c379a00000000000000000000000000000000000000000000000000000000081526004018080602001828103825260318152602001806144386031913960400191505060405180910390fd5b6117b0838383612d8f565b505050565b60008060008060008511611831576040517f08c379a000000000000000000000000000000000000000000000000000000000815260040180806020018281038252601b8152602001807f5a65726f7468206c6963656e6365206973206e6f742076616c6964000000000081525060200191505060405180910390fd5b6118396140b5565b61019e868154811061184757fe5b90600052602060002090600402016040518060800160405290816000820154815260200160018201548152602001600282015481526020016003820160009054906101000a900460ff16600181111561189c57fe5b60018111156118a757fe5b815250509050806000015181602001518260400151836060015160018111156118cc57fe5b9450945094509450509193509193565b60006118e783611dd6565b821061193e576040517f08c379a000000000000000000000000000000000000000000000000000000000815260040180806020018281038252602b8152602001806141ba602b913960400191505060405180910390fd5b609c60008473ffffffffffffffffffffffffffffffffffffffff1673ffffffffffffffffffffffffffffffffffffffff168152602001908152602001600020828154811061198857fe5b9060005260206000200154905092915050565b6101a160009054906101000a900473ffffffffffffffffffffffffffffffffffffffff1673ffffffffffffffffffffffffffffffffffffffff163373ffffffffffffffffffffffffffffffffffffffff1614611a5f576040517f08c379a000000000000000000000000000000000000000000000000000000000815260040180806020018281038252601e8152602001807f43616e206f6e6c792062652063616c6c6564206279207265676973747279000081525060200191505060405180910390fd5b600161019e8281548110611a6f57fe5b906000526020600020906004020160030160006101000a81548160ff02191690836001811115611a9b57fe5b021790555050565b6000611ab5611ab0612c93565b61240c565b611b0a576040517f08c379a00000000000000000000000000000000000000000000000000000000081526004018080602001828103825260308152602001806142f26030913960400191505060405180910390fd5b611b148383612db3565b6001905092915050565b611b39838383604051806020016040528060008152506126ab565b505050565b600060019054906101000a900460ff1680611b5d5750611b5c612af9565b5b80611b7457506000809054906101000a900460ff16155b611bc9576040517f08c379a000000000000000000000000000000000000000000000000000000000815260040180806020018281038252602e815260200180614391602e913960400191505060405180910390fd5b60008060019054906101000a900460ff161590508015611c19576001600060016101000a81548160ff02191690831515021790555060016000806101000a81548160ff0219169083151502179055505b611c21612dd4565b611c2a57600080fd5b8260d29080519060200190611c409291906140e8565b508160d39080519060200190611c579291906140e8565b50611c68635b5e139f60e01b612deb565b8015611c895760008060016101000a81548160ff0219169083151502179055505b505050565b6000611c98611732565b8210611cef576040517f08c379a000000000000000000000000000000000000000000000000000000000815260040180806020018281038252602c815260200180614469602c913960400191505060405180910390fd5b609e8281548110611cfc57fe5b90600052602060002001549050919050565b6000806066600084815260200190815260200160002060009054906101000a900473ffffffffffffffffffffffffffffffffffffffff169050600073ffffffffffffffffffffffffffffffffffffffff168173ffffffffffffffffffffffffffffffffffffffff161415611dcd576040517f08c379a00000000000000000000000000000000000000000000000000000000081526004018080602001828103825260298152602001806142c96029913960400191505060405180910390fd5b80915050919050565b60008073ffffffffffffffffffffffffffffffffffffffff168273ffffffffffffffffffffffffffffffffffffffff161415611e5d576040517f08c379a000000000000000000000000000000000000000000000000000000000815260040180806020018281038252602a81526020018061429f602a913960400191505060405180910390fd5b611ea4606860008473ffffffffffffffffffffffffffffffffffffffff1673ffffffffffffffffffffffffffffffffffffffff168152602001908152602001600020612ef4565b9050919050565b600060019054906101000a900460ff1680611eca5750611ec9612af9565b5b80611ee157506000809054906101000a900460ff16155b611f36576040517f08c379a000000000000000000000000000000000000000000000000000000000815260040180806020018281038252602e815260200180614391602e913960400191505060405180910390fd5b60008060019054906101000a900460ff161590508015611f86576001600060016101000a81548160ff02191690831515021790555060016000806101000a81548160ff0219169083151502179055505b611f8e612dd4565b611f9757600080fd5b611fa763780e9d6360e01b612deb565b8015611fc85760008060016101000a81548160ff0219169083151502179055505b50565b6000611fdd611fd8612c93565b61240c565b612032576040517f08c379a00000000000000000000000000000000000000000000000000000000081526004018080602001828103825260308152602001806142f26030913960400191505060405180910390fd5b61203d848484612f02565b600190509392505050565b606060d38054600181600116156101000203166002900480601f0160208091040260200160405190810160405280929190818152602001828054600181600116156101000203166002900480156120e05780601f106120b5576101008083540402835291602001916120e0565b820191906000526020600020905b8154815290600101906020018083116120c357829003601f168201915b5050505050905090565b606061019f600083815260200190815260200160002080548060200260200160405190810160405280929190818152602001828054801561214a57602002820191906000526020600020905b815481526020019060010190808311612136575b50505050509050919050565b612166612161612c93565b61240c565b6121bb576040517f08c379a00000000000000000000000000000000000000000000000000000000081526004018080602001828103825260308152602001806142f26030913960400191505060405180910390fd5b6121c481612f73565b50565b6121d76121d2612c93565b612fce565b565b60006121eb6121e6612c93565b61240c565b612240576040517f08c379a00000000000000000000000000000000000000000000000000000000081526004018080602001828103825260308152602001806142f26030913960400191505060405180910390fd5b61224a8383613029565b6001905092915050565b61225c612c93565b73ffffffffffffffffffffffffffffffffffffffff168273ffffffffffffffffffffffffffffffffffffffff1614156122fd576040517f08c379a00000000000000000000000000000000000000000000000000000000081526004018080602001828103825260198152602001807f4552433732313a20617070726f766520746f2063616c6c65720000000000000081525060200191505060405180910390fd5b806069600061230a612c93565b73ffffffffffffffffffffffffffffffffffffffff1673ffffffffffffffffffffffffffffffffffffffff16815260200190815260200160002060008473ffffffffffffffffffffffffffffffffffffffff1673ffffffffffffffffffffffffffffffffffffffff16815260200190815260200160002060006101000a81548160ff0219169083151502179055508173ffffffffffffffffffffffffffffffffffffffff166123b7612c93565b73ffffffffffffffffffffffffffffffffffffffff167f17307eab39ab6107e8899845ad3d59bd9653f200f220920489ca2b5937696c3183604051808215151515815260200191505060405180910390a35050565b60006124238261013961304790919063ffffffff16565b9050919050565b60006101a160009054906101000a900473ffffffffffffffffffffffffffffffffffffffff1673ffffffffffffffffffffffffffffffffffffffff163373ffffffffffffffffffffffffffffffffffffffff16146124f0576040517f08c379a000000000000000000000000000000000000000000000000000000000815260040180806020018281038252601e8152602001807f43616e206f6e6c792062652063616c6c6564206279207265676973747279000081525060200191505060405180910390fd5b6124f86140b5565b60405180608001604052808681526020018581526020018481526020016000600181111561252257fe5b81525090506000600161019e839080600181540180825580915050906001820390600052602060002090600402016000909192909190915060008201518160000155602082015181600101556040820151816002015560608201518160030160006101000a81548160ff0219169083600181111561259c57fe5b0217905550505003905061019f60008781526020019081526020016000208190806001815401808255809150509060018203906000526020600020016000909192909190915055506101a0600086815260200190815260200160002081908060018154018082558091505090600182039060005260206000200160009091929091909150555061262c8782611aa3565b61269e576040517f08c379a00000000000000000000000000000000000000000000000000000000081526004018080602001828103825260168152602001807f4c6963656e6365206d696e74696e67206661696c65640000000000000000000081525060200191505060405180910390fd5b8092505050949350505050565b6126bc6126b6612c93565b83612c9b565b612711576040517f08c379a00000000000000000000000000000000000000000000000000000000081526004018080602001828103825260318152602001806144386031913960400191505060405180910390fd5b61271d84848484613125565b50505050565b61019e818154811061273157fe5b90600052602060002090600402016000915090508060000154908060010154908060020154908060030160009054906101000a900460ff16905084565b600060019054906101000a900460ff168061278d575061278c612af9565b5b806127a457506000809054906101000a900460ff16155b6127f9576040517f08c379a000000000000000000000000000000000000000000000000000000000815260040180806020018281038252602e815260200180614391602e913960400191505060405180910390fd5b60008060019054906101000a900460ff161590508015612849576001600060016101000a81548160ff02191690831515021790555060016000806101000a81548160ff0219169083151502179055505b612851612dd4565b61285a57600080fd5b61286382613197565b80156128845760008060016101000a81548160ff0219169083151502179055505b5050565b606061289382612c21565b6128e8576040517f08c379a000000000000000000000000000000000000000000000000000000000815260040180806020018281038252602f8152602001806143e8602f913960400191505060405180910390fd5b60d460008381526020019081526020016000208054600181600116156101000203166002900480601f01602080910402602001604051908101604052809291908181526020018280546001816001161561010002031660029004801561298f5780601f106129645761010080835404028352916020019161298f565b820191906000526020600020905b81548152906001019060200180831161297257829003601f168201915b50505050509050919050565b6101a060205281600052604060002081815481106129b557fe5b90600052602060002001600091509150505481565b6000606960008473ffffffffffffffffffffffffffffffffffffffff1673ffffffffffffffffffffffffffffffffffffffff16815260200190815260200160002060008373ffffffffffffffffffffffffffffffffffffffff1673ffffffffffffffffffffffffffffffffffffffff16815260200190815260200160002060009054906101000a900460ff16905092915050565b61019f6020528160005260406000208181548110612a7857fe5b90600052602060002001600091509150505481565b60606101a06000838152602001908152602001600020805480602002602001604051908101604052809291908181526020018280548015612aed57602002820191906000526020600020905b815481526020019060010190808311612ad9575b50505050509050919050565b600080303b90506000811491505090565b600060019054906101000a900460ff1680612b295750612b28612af9565b5b80612b4057506000809054906101000a900460ff16155b612b95576040517f08c379a000000000000000000000000000000000000000000000000000000000815260040180806020018281038252602e815260200180614391602e913960400191505060405180910390fd5b60008060019054906101000a900460ff161590508015612be5576001600060016101000a81548160ff02191690831515021790555060016000806101000a81548160ff0219169083151502179055505b612bed6132ae565b612bfd6380ac58cd60e01b612deb565b8015612c1e5760008060016101000a81548160ff0219169083151502179055505b50565b6000806066600084815260200190815260200160002060009054906101000a900473ffffffffffffffffffffffffffffffffffffffff169050600073ffffffffffffffffffffffffffffffffffffffff168173ffffffffffffffffffffffffffffffffffffffff161415915050919050565b600033905090565b6000612ca682612c21565b612cfb576040517f08c379a000000000000000000000000000000000000000000000000000000000815260040180806020018281038252602c81526020018061423b602c913960400191505060405180910390fd5b6000612d0683611d0e565b90508073ffffffffffffffffffffffffffffffffffffffff168473ffffffffffffffffffffffffffffffffffffffff161480612d7557508373ffffffffffffffffffffffffffffffffffffffff16612d5d846114b0565b73ffffffffffffffffffffffffffffffffffffffff16145b80612d865750612d8581856129ca565b5b91505092915050565b612d9a8383836133bd565b612da48382613618565b612dae82826137b6565b505050565b612dbd828261387d565b612dc782826137b6565b612dd081613a95565b5050565b6000612de66380ac58cd60e01b611197565b905090565b63ffffffff60e01b817bffffffffffffffffffffffffffffffffffffffffffffffffffffffff19161415612e87576040517f08c379a000000000000000000000000000000000000000000000000000000000815260040180806020018281038252601c8152602001807f4552433136353a20696e76616c696420696e746572666163652069640000000081525060200191505060405180910390fd5b600160336000837bffffffffffffffffffffffffffffffffffffffffffffffffffffffff19167bffffffffffffffffffffffffffffffffffffffffffffffffffffffff1916815260200190815260200160002060006101000a81548160ff02191690831515021790555050565b600081600001549050919050565b612f0c8383612db3565b612f196000848484613ae1565b612f6e576040517f08c379a00000000000000000000000000000000000000000000000000000000081526004018080602001828103825260328152602001806141e56032913960400191505060405180910390fd5b505050565b612f8881610139613cd190919063ffffffff16565b8073ffffffffffffffffffffffffffffffffffffffff167f6ae172837ea30b801fbfcdd4108aa1d5bf8ff775444fd70256b44e6bf3dfc3f660405160405180910390a250565b612fe381610139613dac90919063ffffffff16565b8073ffffffffffffffffffffffffffffffffffffffff167fe94479a9f7e1952cc78f2d6baab678adc1b772d936c6583def489e524cb6669260405160405180910390a250565b613043828260405180602001604052806000815250612f02565b5050565b60008073ffffffffffffffffffffffffffffffffffffffff168273ffffffffffffffffffffffffffffffffffffffff1614156130ce576040517f08c379a000000000000000000000000000000000000000000000000000000000815260040180806020018281038252602281526020018061436f6022913960400191505060405180910390fd5b8260000160008373ffffffffffffffffffffffffffffffffffffffff1673ffffffffffffffffffffffffffffffffffffffff16815260200190815260200160002060009054906101000a900460ff16905092915050565b613130848484612d8f565b61313c84848484613ae1565b613191576040517f08c379a00000000000000000000000000000000000000000000000000000000081526004018080602001828103825260328152602001806141e56032913960400191505060405180910390fd5b50505050565b600060019054906101000a900460ff16806131b657506131b5612af9565b5b806131cd57506000809054906101000a900460ff16155b613222576040517f08c379a000000000000000000000000000000000000000000000000000000000815260040180806020018281038252602e815260200180614391602e913960400191505060405180910390fd5b60008060019054906101000a900460ff161590508015613272576001600060016101000a81548160ff02191690831515021790555060016000806101000a81548160ff0219169083151502179055505b61327b8261240c565b6132895761328882612f73565b5b80156132aa5760008060016101000a81548160ff0219169083151502179055505b5050565b600060019054906101000a900460ff16806132cd57506132cc612af9565b5b806132e457506000809054906101000a900460ff16155b613339576040517f08c379a000000000000000000000000000000000000000000000000000000000815260040180806020018281038252602e815260200180614391602e913960400191505060405180910390fd5b60008060019054906101000a900460ff161590508015613389576001600060016101000a81548160ff02191690831515021790555060016000806101000a81548160ff0219169083151502179055505b6133996301ffc9a760e01b612deb565b80156133ba5760008060016101000a81548160ff0219169083151502179055505b50565b8273ffffffffffffffffffffffffffffffffffffffff166133dd82611d0e565b73ffffffffffffffffffffffffffffffffffffffff1614613449576040517f08c379a00000000000000000000000000000000000000000000000000000000081526004018080602001828103825260298152602001806143bf6029913960400191505060405180910390fd5b600073ffffffffffffffffffffffffffffffffffffffff168273ffffffffffffffffffffffffffffffffffffffff1614156134cf576040517f08c379a00000000000000000000000000000000000000000000000000000000081526004018080602001828103825260248152602001806142176024913960400191505060405180910390fd5b6134d881613e69565b61351f606860008573ffffffffffffffffffffffffffffffffffffffff1673ffffffffffffffffffffffffffffffffffffffff168152602001908152602001600020613f27565b613566606860008473ffffffffffffffffffffffffffffffffffffffff1673ffffffffffffffffffffffffffffffffffffffff168152602001908152602001600020613f4a565b816066600083815260200190815260200160002060006101000a81548173ffffffffffffffffffffffffffffffffffffffff021916908373ffffffffffffffffffffffffffffffffffffffff160217905550808273ffffffffffffffffffffffffffffffffffffffff168473ffffffffffffffffffffffffffffffffffffffff167fddf252ad1be2c89b69c2b068fc378daa952ba7f163c4a11628f55a4df523b3ef60405160405180910390a4505050565b60006136706001609c60008673ffffffffffffffffffffffffffffffffffffffff1673ffffffffffffffffffffffffffffffffffffffff16815260200190815260200160002080549050613f6090919063ffffffff16565b90506000609d600084815260200190815260200160002054905081811461375d576000609c60008673ffffffffffffffffffffffffffffffffffffffff1673ffffffffffffffffffffffffffffffffffffffff16815260200190815260200160002083815481106136dd57fe5b9060005260206000200154905080609c60008773ffffffffffffffffffffffffffffffffffffffff1673ffffffffffffffffffffffffffffffffffffffff168152602001908152602001600020838154811061373557fe5b906000526020600020018190555081609d600083815260200190815260200160002081905550505b609c60008573ffffffffffffffffffffffffffffffffffffffff1673ffffffffffffffffffffffffffffffffffffffff1681526020019081526020016000208054809190600190036137af9190614168565b5050505050565b609c60008373ffffffffffffffffffffffffffffffffffffffff1673ffffffffffffffffffffffffffffffffffffffff16815260200190815260200160002080549050609d600083815260200190815260200160002081905550609c60008373ffffffffffffffffffffffffffffffffffffffff1673ffffffffffffffffffffffffffffffffffffffff1681526020019081526020016000208190806001815401808255809150509060018203906000526020600020016000909192909190915055505050565b600073ffffffffffffffffffffffffffffffffffffffff168273ffffffffffffffffffffffffffffffffffffffff161415613920576040517f08c379a00000000000000000000000000000000000000000000000000000000081526004018080602001828103825260208152602001807f4552433732313a206d696e7420746f20746865207a65726f206164647265737381525060200191505060405180910390fd5b61392981612c21565b1561399c576040517f08c379a000000000000000000000000000000000000000000000000000000000815260040180806020018281038252601c8152602001807f4552433732313a20746f6b656e20616c7265616479206d696e7465640000000081525060200191505060405180910390fd5b816066600083815260200190815260200160002060006101000a81548173ffffffffffffffffffffffffffffffffffffffff021916908373ffffffffffffffffffffffffffffffffffffffff160217905550613a35606860008473ffffffffffffffffffffffffffffffffffffffff1673ffffffffffffffffffffffffffffffffffffffff168152602001908152602001600020613f4a565b808273ffffffffffffffffffffffffffffffffffffffff16600073ffffffffffffffffffffffffffffffffffffffff167fddf252ad1be2c89b69c2b068fc378daa952ba7f163c4a11628f55a4df523b3ef60405160405180910390a45050565b609e80549050609f600083815260200190815260200160002081905550609e81908060018154018082558091505090600182039060005260206000200160009091929091909150555050565b6000613b028473ffffffffffffffffffffffffffffffffffffffff16613faa565b613b0f5760019050613cc9565b60008473ffffffffffffffffffffffffffffffffffffffff1663150b7a02613b35612c93565b8887876040518563ffffffff1660e01b8152600401808573ffffffffffffffffffffffffffffffffffffffff1673ffffffffffffffffffffffffffffffffffffffff1681526020018473ffffffffffffffffffffffffffffffffffffffff1673ffffffffffffffffffffffffffffffffffffffff16815260200183815260200180602001828103825283818151815260200191508051906020019080838360005b83811015613bf1578082015181840152602081019050613bd6565b50505050905090810190601f168015613c1e5780820380516001836020036101000a031916815260200191505b5095505050505050602060405180830381600087803b158015613c4057600080fd5b505af1158015613c54573d6000803e3d6000fd5b505050506040513d6020811015613c6a57600080fd5b8101908080519060200190929190505050905063150b7a0260e01b7bffffffffffffffffffffffffffffffffffffffffffffffffffffffff1916817bffffffffffffffffffffffffffffffffffffffffffffffffffffffff1916149150505b949350505050565b613cdb8282613047565b15613d4e576040517f08c379a000000000000000000000000000000000000000000000000000000000815260040180806020018281038252601f8152602001807f526f6c65733a206163636f756e7420616c72656164792068617320726f6c650081525060200191505060405180910390fd5b60018260000160008373ffffffffffffffffffffffffffffffffffffffff1673ffffffffffffffffffffffffffffffffffffffff16815260200190815260200160002060006101000a81548160ff0219169083151502179055505050565b613db68282613047565b613e0b576040517f08c379a00000000000000000000000000000000000000000000000000000000081526004018080602001828103825260218152602001806143226021913960400191505060405180910390fd5b60008260000160008373ffffffffffffffffffffffffffffffffffffffff1673ffffffffffffffffffffffffffffffffffffffff16815260200190815260200160002060006101000a81548160ff0219169083151502179055505050565b600073ffffffffffffffffffffffffffffffffffffffff166067600083815260200190815260200160002060009054906101000a900473ffffffffffffffffffffffffffffffffffffffff1673ffffffffffffffffffffffffffffffffffffffff1614613f245760006067600083815260200190815260200160002060006101000a81548173ffffffffffffffffffffffffffffffffffffffff021916908373ffffffffffffffffffffffffffffffffffffffff1602179055505b50565b613f3f60018260000154613f6090919063ffffffff16565b816000018190555050565b6001816000016000828254019250508190555050565b6000613fa283836040518060400160405280601e81526020017f536166654d6174683a207375627472616374696f6e206f766572666c6f770000815250613ff5565b905092915050565b60008060007fc5d2460186f7233c927e7db2dcc703c0e500b653ca82273b7bfad8045d85a47060001b9050833f91506000801b8214158015613fec5750808214155b92505050919050565b60008383111582906140a2576040517f08c379a00000000000000000000000000000000000000000000000000000000081526004018080602001828103825283818151815260200191508051906020019080838360005b8381101561406757808201518184015260208101905061404c565b50505050905090810190601f1680156140945780820380516001836020036101000a031916815260200191505b509250505060405180910390fd5b5060008385039050809150509392505050565b6040518060800160405280600081526020016000815260200160008152602001600060018111156140e257fe5b81525090565b828054600181600116156101000203166002900490600052602060002090601f016020900481019282601f1061412957805160ff1916838001178555614157565b82800160010185558215614157579182015b8281111561415657825182559160200191906001019061413b565b5b5090506141649190614194565b5090565b81548183558181111561418f5781836000526020600020918201910161418e9190614194565b5b505050565b6141b691905b808211156141b257600081600090555060010161419a565b5090565b9056fe455243373231456e756d657261626c653a206f776e657220696e646578206f7574206f6620626f756e64734552433732313a207472616e7366657220746f206e6f6e20455243373231526563656976657220696d706c656d656e7465724552433732313a207472616e7366657220746f20746865207a65726f20616464726573734552433732313a206f70657261746f7220717565727920666f72206e6f6e6578697374656e7420746f6b656e4552433732313a20617070726f76652063616c6c6572206973206e6f74206f776e6572206e6f7220617070726f76656420666f7220616c6c4552433732313a2062616c616e636520717565727920666f7220746865207a65726f20616464726573734552433732313a206f776e657220717565727920666f72206e6f6e6578697374656e7420746f6b656e4d696e746572526f6c653a2063616c6c657220646f6573206e6f74206861766520746865204d696e74657220726f6c65526f6c65733a206163636f756e7420646f6573206e6f74206861766520726f6c654552433732313a20617070726f76656420717565727920666f72206e6f6e6578697374656e7420746f6b656e526f6c65733a206163636f756e7420697320746865207a65726f2061646472657373436f6e747261637420696e7374616e63652068617320616c7265616479206265656e20696e697469616c697a65644552433732313a207472616e73666572206f6620746f6b656e2074686174206973206e6f74206f776e4552433732314d657461646174613a2055524920717565727920666f72206e6f6e6578697374656e7420746f6b656e4552433732313a20617070726f76616c20746f2063757272656e74206f776e65724552433732313a207472616e736665722063616c6c6572206973206e6f74206f776e6572206e6f7220617070726f766564455243373231456e756d657261626c653a20676c6f62616c20696e646578206f7574206f6620626f756e6473a265627a7a723158204e9b9f4494142b37138c034c015d3f66ef6997feb51385030ee6d8b1432bb6ad64736f6c634300050c0032",
  "source": "pragma solidity ^0.5.12;\n\nimport \"@openzeppelin/upgrades/contracts/Initializable.sol\";\n\nimport \"@openzeppelin/contracts-ethereum-package/contracts/token/ERC721/ERC721.sol\";\n\nimport \"@openzeppelin/contracts-ethereum-package/contracts/token/ERC721/ERC721Full.sol\";\n\nimport \"@openzeppelin/contracts-ethereum-package/contracts/token/ERC721/ERC721Mintable.sol\";\n\ncontract LicenceManager is\n    Initializable,\n    ERC721Full,\n    ERC721Mintable\n{\n    enum LicenceStatus {Active, Revoked}\n\n    struct Licence {\n        uint256 owner_Id;\n        uint256 publication_Id;\n        uint256 publicationLicenceNo;\n        LicenceStatus status;\n    }\n\n    Licence[] public licences;\n    // user Id to their array of licences\n    mapping(uint256 => uint256[]) public licenceOwners;\n    // licence Id to get the publication Id\n    mapping(uint256 => uint256[]) public publicationLicences;\n\n    modifier onlyRegistry() {\n        require(msg.sender == registry, \"Can only be called by registry\");\n        _;\n    }\n\n    address registry;\n    function initialize(\n        string memory _name,\n        string memory _symbol,\n        address _unicoinRegistry\n    ) public initializer {\n        ERC721.initialize();\n        ERC721Enumerable.initialize();\n        ERC721Metadata.initialize(_name, _symbol);\n        ERC721Mintable.initialize(_unicoinRegistry);\n\n        registry = _unicoinRegistry;\n\n        licences.push(Licence(0, 0, 0, LicenceStatus.Active));\n    }\n\n    function registerNewLicence(\n        address _ownerAddress,\n        uint256 _owner_Id,\n        uint256 _publication_Id,\n        uint256 _publicationLicenceNo\n    ) public onlyRegistry returns (uint256) {\n        Licence memory licence = Licence(\n            _owner_Id,\n            _publication_Id,\n            _publicationLicenceNo,\n            LicenceStatus.Active\n        );\n        uint256 licence_Id = licences.push(licence) - 1;\n\n        licenceOwners[_owner_Id].push(licence_Id);\n        publicationLicences[_publication_Id].push(licence_Id);\n\n        require(\n            ERC721Mintable.mint(_ownerAddress, licence_Id),\n            \"Licence minting failed\"\n        );\n        return licence_Id;\n    }\n\n    function revokeLicence(uint256 _licence_Id) public onlyRegistry {\n        licences[_licence_Id].status = LicenceStatus.Revoked;\n    }\n\n    function getLicenceForUser(uint256 _user_Id)\n        public\n        view\n        returns (uint256[] memory)\n    {\n        return licenceOwners[_user_Id];\n    }\n\n    function getLicence(uint256 _licence_Id)\n        public\n        view\n        returns (uint256, uint256, uint256, uint8)\n    {\n        require(_licence_Id > 0, \"Zeroth licence is not valid\");\n        Licence memory _licence = licences[_licence_Id];\n        return (\n            _licence.owner_Id,\n            _licence.publication_Id,\n            _licence.publicationLicenceNo,\n            uint8(_licence.status)\n        );\n    }\n\n    function getPublicationLicences(uint256 _publication_Id)\n        public\n        view\n        returns (uint256[] memory)\n    {\n        return publicationLicences[_publication_Id];\n    }\n}\n",
  "sourcePath": "/Users/chris/Projects/unicoindapp/contracts/LicenceManager.sol",
  "compiler": {
    "name": "solc",
    "version": "0.5.12+commit.7709ece9.Emscripten.clang"
  },
  "schemaVersion": "3.0.16",
  "updatedAt": "2019-12-01T06:30:58.547Z",
  "devdoc": {
    "methods": {
      "approve(address,uint256)": {
        "details": "Approves another address to transfer the given token ID The zero address indicates there is no approved address. There can only be one approved address per token at a given time. Can only be called by the token owner or an approved operator.",
        "params": {
          "to": "address to be approved for the given token ID",
          "tokenId": "uint256 ID of the token to be approved"
        }
      },
      "balanceOf(address)": {
        "details": "Gets the balance of the specified address.",
        "params": {
          "owner": "address to query the balance of"
        },
        "return": "uint256 representing the amount owned by the passed address"
      },
      "getApproved(uint256)": {
        "details": "Gets the approved address for a token ID, or zero if no address set Reverts if the token ID does not exist.",
        "params": {
          "tokenId": "uint256 ID of the token to query the approval of"
        },
        "return": "address currently approved for the given token ID"
      },
      "initialize()": {
        "details": "Constructor function."
      },
      "initialize(string,string)": {
        "details": "Constructor function"
      },
      "isApprovedForAll(address,address)": {
        "details": "Tells whether an operator is approved by a given owner.",
        "params": {
          "operator": "operator address which you want to query the approval of",
          "owner": "owner address which you want to query the approval of"
        },
        "return": "bool whether the given operator is approved by the given owner"
      },
      "mint(address,uint256)": {
        "details": "Function to mint tokens.",
        "params": {
          "to": "The address that will receive the minted token.",
          "tokenId": "The token id to mint."
        },
        "return": "A boolean that indicates if the operation was successful."
      },
      "name()": {
        "details": "Gets the token name.",
        "return": "string representing the token name"
      },
      "ownerOf(uint256)": {
        "details": "Gets the owner of the specified token ID.",
        "params": {
          "tokenId": "uint256 ID of the token to query the owner of"
        },
        "return": "address currently marked as the owner of the given token ID"
      },
      "safeMint(address,uint256)": {
        "details": "Function to safely mint tokens.",
        "params": {
          "to": "The address that will receive the minted token.",
          "tokenId": "The token id to mint."
        },
        "return": "A boolean that indicates if the operation was successful."
      },
      "safeMint(address,uint256,bytes)": {
        "details": "Function to safely mint tokens.",
        "params": {
          "_data": "bytes data to send along with a safe transfer check.",
          "to": "The address that will receive the minted token.",
          "tokenId": "The token id to mint."
        },
        "return": "A boolean that indicates if the operation was successful."
      },
      "safeTransferFrom(address,address,uint256)": {
        "details": "Safely transfers the ownership of a given token ID to another address If the target address is a contract, it must implement {IERC721Receiver-onERC721Received}, which is called upon a safe transfer, and return the magic value `bytes4(keccak256(\"onERC721Received(address,address,uint256,bytes)\"))`; otherwise, the transfer is reverted. Requires the msg.sender to be the owner, approved, or operator",
        "params": {
          "from": "current owner of the token",
          "to": "address to receive the ownership of the given token ID",
          "tokenId": "uint256 ID of the token to be transferred"
        }
      },
      "safeTransferFrom(address,address,uint256,bytes)": {
        "details": "Safely transfers the ownership of a given token ID to another address If the target address is a contract, it must implement {IERC721Receiver-onERC721Received}, which is called upon a safe transfer, and return the magic value `bytes4(keccak256(\"onERC721Received(address,address,uint256,bytes)\"))`; otherwise, the transfer is reverted. Requires the _msgSender() to be the owner, approved, or operator",
        "params": {
          "_data": "bytes data to send along with a safe transfer check",
          "from": "current owner of the token",
          "to": "address to receive the ownership of the given token ID",
          "tokenId": "uint256 ID of the token to be transferred"
        }
      },
      "setApprovalForAll(address,bool)": {
        "details": "Sets or unsets the approval of a given operator An operator is allowed to transfer all tokens of the sender on their behalf.",
        "params": {
          "approved": "representing the status of the approval to be set",
          "to": "operator address to set the approval"
        }
      },
      "supportsInterface(bytes4)": {
        "details": "See {IERC165-supportsInterface}.     * Time complexity O(1), guaranteed to always use less than 30 000 gas."
      },
      "symbol()": {
        "details": "Gets the token symbol.",
        "return": "string representing the token symbol"
      },
      "tokenByIndex(uint256)": {
        "details": "Gets the token ID at a given index of all the tokens in this contract Reverts if the index is greater or equal to the total number of tokens.",
        "params": {
          "index": "uint256 representing the index to be accessed of the tokens list"
        },
        "return": "uint256 token ID at the given index of the tokens list"
      },
      "tokenOfOwnerByIndex(address,uint256)": {
        "details": "Gets the token ID at a given index of the tokens list of the requested owner.",
        "params": {
          "index": "uint256 representing the index to be accessed of the requested tokens list",
          "owner": "address owning the tokens list to be accessed"
        },
        "return": "uint256 token ID at the given index of the tokens list owned by the requested address"
      },
      "tokenURI(uint256)": {
        "details": "Returns an URI for a given token ID. Throws if the token ID does not exist. May return an empty string.",
        "params": {
          "tokenId": "uint256 ID of the token to query"
        }
      },
      "totalSupply()": {
        "details": "Gets the total amount of tokens stored by the contract.",
        "return": "uint256 representing the total amount of tokens"
      },
      "transferFrom(address,address,uint256)": {
        "details": "Transfers the ownership of a given token ID to another address. Usage of this method is discouraged, use {safeTransferFrom} whenever possible. Requires the msg.sender to be the owner, approved, or operator.",
        "params": {
          "from": "current owner of the token",
          "to": "address to receive the ownership of the given token ID",
          "tokenId": "uint256 ID of the token to be transferred"
        }
      }
    }
  },
  "userdoc": {
    "methods": {}
  }
}