{
  "contractName": "LicenceManager",
  "abi": [
    {
      "anonymous": false,
      "inputs": [
        {
          "indexed": true,
          "internalType": "address",
          "name": "owner",
          "type": "address"
        },
        {
          "indexed": true,
          "internalType": "address",
          "name": "approved",
          "type": "address"
        },
        {
          "indexed": true,
          "internalType": "uint256",
          "name": "tokenId",
          "type": "uint256"
        }
      ],
      "name": "Approval",
      "type": "event"
    },
    {
      "anonymous": false,
      "inputs": [
        {
          "indexed": true,
          "internalType": "address",
          "name": "owner",
          "type": "address"
        },
        {
          "indexed": true,
          "internalType": "address",
          "name": "operator",
          "type": "address"
        },
        {
          "indexed": false,
          "internalType": "bool",
          "name": "approved",
          "type": "bool"
        }
      ],
      "name": "ApprovalForAll",
      "type": "event"
    },
    {
      "anonymous": false,
      "inputs": [
        {
          "indexed": true,
          "internalType": "address",
          "name": "account",
          "type": "address"
        }
      ],
      "name": "MinterAdded",
      "type": "event"
    },
    {
      "anonymous": false,
      "inputs": [
        {
          "indexed": true,
          "internalType": "address",
          "name": "account",
          "type": "address"
        }
      ],
      "name": "MinterRemoved",
      "type": "event"
    },
    {
      "anonymous": false,
      "inputs": [
        {
          "indexed": true,
          "internalType": "address",
          "name": "from",
          "type": "address"
        },
        {
          "indexed": true,
          "internalType": "address",
          "name": "to",
          "type": "address"
        },
        {
          "indexed": true,
          "internalType": "uint256",
          "name": "tokenId",
          "type": "uint256"
        }
      ],
      "name": "Transfer",
      "type": "event"
    },
    {
      "constant": false,
      "inputs": [
        {
          "internalType": "address",
          "name": "account",
          "type": "address"
        }
      ],
      "name": "addMinter",
      "outputs": [],
      "payable": false,
      "stateMutability": "nonpayable",
      "type": "function"
    },
    {
      "constant": false,
      "inputs": [
        {
          "internalType": "address",
          "name": "to",
          "type": "address"
        },
        {
          "internalType": "uint256",
          "name": "tokenId",
          "type": "uint256"
        }
      ],
      "name": "approve",
      "outputs": [],
      "payable": false,
      "stateMutability": "nonpayable",
      "type": "function"
    },
    {
      "constant": true,
      "inputs": [
        {
          "internalType": "address",
          "name": "owner",
          "type": "address"
        }
      ],
      "name": "balanceOf",
      "outputs": [
        {
          "internalType": "uint256",
          "name": "",
          "type": "uint256"
        }
      ],
      "payable": false,
      "stateMutability": "view",
      "type": "function"
    },
    {
      "constant": true,
      "inputs": [
        {
          "internalType": "uint256",
          "name": "tokenId",
          "type": "uint256"
        }
      ],
      "name": "getApproved",
      "outputs": [
        {
          "internalType": "address",
          "name": "",
          "type": "address"
        }
      ],
      "payable": false,
      "stateMutability": "view",
      "type": "function"
    },
    {
      "constant": true,
      "inputs": [
        {
          "internalType": "address",
          "name": "owner",
          "type": "address"
        },
        {
          "internalType": "address",
          "name": "operator",
          "type": "address"
        }
      ],
      "name": "isApprovedForAll",
      "outputs": [
        {
          "internalType": "bool",
          "name": "",
          "type": "bool"
        }
      ],
      "payable": false,
      "stateMutability": "view",
      "type": "function"
    },
    {
      "constant": true,
      "inputs": [
        {
          "internalType": "address",
          "name": "account",
          "type": "address"
        }
      ],
      "name": "isMinter",
      "outputs": [
        {
          "internalType": "bool",
          "name": "",
          "type": "bool"
        }
      ],
      "payable": false,
      "stateMutability": "view",
      "type": "function"
    },
    {
      "constant": true,
      "inputs": [
        {
          "internalType": "uint256",
          "name": "",
          "type": "uint256"
        },
        {
          "internalType": "uint256",
          "name": "",
          "type": "uint256"
        }
      ],
      "name": "licenceOwners",
      "outputs": [
        {
          "internalType": "uint256",
          "name": "",
          "type": "uint256"
        }
      ],
      "payable": false,
      "stateMutability": "view",
      "type": "function"
    },
    {
      "constant": true,
      "inputs": [
        {
          "internalType": "uint256",
          "name": "",
          "type": "uint256"
        }
      ],
      "name": "licences",
      "outputs": [
        {
          "internalType": "uint256",
          "name": "buyer_Id",
          "type": "uint256"
        },
        {
          "internalType": "uint256",
          "name": "publication_Id",
          "type": "uint256"
        },
        {
          "internalType": "uint256",
          "name": "publicationLicenceNo",
          "type": "uint256"
        }
      ],
      "payable": false,
      "stateMutability": "view",
      "type": "function"
    },
    {
      "constant": false,
      "inputs": [
        {
          "internalType": "address",
          "name": "to",
          "type": "address"
        },
        {
          "internalType": "uint256",
          "name": "tokenId",
          "type": "uint256"
        }
      ],
      "name": "mint",
      "outputs": [
        {
          "internalType": "bool",
          "name": "",
          "type": "bool"
        }
      ],
      "payable": false,
      "stateMutability": "nonpayable",
      "type": "function"
    },
    {
      "constant": true,
      "inputs": [],
      "name": "name",
      "outputs": [
        {
          "internalType": "string",
          "name": "",
          "type": "string"
        }
      ],
      "payable": false,
      "stateMutability": "view",
      "type": "function"
    },
    {
      "constant": true,
      "inputs": [
        {
          "internalType": "uint256",
          "name": "tokenId",
          "type": "uint256"
        }
      ],
      "name": "ownerOf",
      "outputs": [
        {
          "internalType": "address",
          "name": "",
          "type": "address"
        }
      ],
      "payable": false,
      "stateMutability": "view",
      "type": "function"
    },
    {
      "constant": true,
      "inputs": [
        {
          "internalType": "uint256",
          "name": "",
          "type": "uint256"
        },
        {
          "internalType": "uint256",
          "name": "",
          "type": "uint256"
        }
      ],
      "name": "publicationLicences",
      "outputs": [
        {
          "internalType": "uint256",
          "name": "",
          "type": "uint256"
        }
      ],
      "payable": false,
      "stateMutability": "view",
      "type": "function"
    },
    {
      "constant": false,
      "inputs": [],
      "name": "renounceMinter",
      "outputs": [],
      "payable": false,
      "stateMutability": "nonpayable",
      "type": "function"
    },
    {
      "constant": false,
      "inputs": [
        {
          "internalType": "address",
          "name": "to",
          "type": "address"
        },
        {
          "internalType": "uint256",
          "name": "tokenId",
          "type": "uint256"
        },
        {
          "internalType": "bytes",
          "name": "_data",
          "type": "bytes"
        }
      ],
      "name": "safeMint",
      "outputs": [
        {
          "internalType": "bool",
          "name": "",
          "type": "bool"
        }
      ],
      "payable": false,
      "stateMutability": "nonpayable",
      "type": "function"
    },
    {
      "constant": false,
      "inputs": [
        {
          "internalType": "address",
          "name": "to",
          "type": "address"
        },
        {
          "internalType": "uint256",
          "name": "tokenId",
          "type": "uint256"
        }
      ],
      "name": "safeMint",
      "outputs": [
        {
          "internalType": "bool",
          "name": "",
          "type": "bool"
        }
      ],
      "payable": false,
      "stateMutability": "nonpayable",
      "type": "function"
    },
    {
      "constant": false,
      "inputs": [
        {
          "internalType": "address",
          "name": "from",
          "type": "address"
        },
        {
          "internalType": "address",
          "name": "to",
          "type": "address"
        },
        {
          "internalType": "uint256",
          "name": "tokenId",
          "type": "uint256"
        }
      ],
      "name": "safeTransferFrom",
      "outputs": [],
      "payable": false,
      "stateMutability": "nonpayable",
      "type": "function"
    },
    {
      "constant": false,
      "inputs": [
        {
          "internalType": "address",
          "name": "from",
          "type": "address"
        },
        {
          "internalType": "address",
          "name": "to",
          "type": "address"
        },
        {
          "internalType": "uint256",
          "name": "tokenId",
          "type": "uint256"
        },
        {
          "internalType": "bytes",
          "name": "_data",
          "type": "bytes"
        }
      ],
      "name": "safeTransferFrom",
      "outputs": [],
      "payable": false,
      "stateMutability": "nonpayable",
      "type": "function"
    },
    {
      "constant": false,
      "inputs": [
        {
          "internalType": "address",
          "name": "to",
          "type": "address"
        },
        {
          "internalType": "bool",
          "name": "approved",
          "type": "bool"
        }
      ],
      "name": "setApprovalForAll",
      "outputs": [],
      "payable": false,
      "stateMutability": "nonpayable",
      "type": "function"
    },
    {
      "constant": true,
      "inputs": [
        {
          "internalType": "bytes4",
          "name": "interfaceId",
          "type": "bytes4"
        }
      ],
      "name": "supportsInterface",
      "outputs": [
        {
          "internalType": "bool",
          "name": "",
          "type": "bool"
        }
      ],
      "payable": false,
      "stateMutability": "view",
      "type": "function"
    },
    {
      "constant": true,
      "inputs": [],
      "name": "symbol",
      "outputs": [
        {
          "internalType": "string",
          "name": "",
          "type": "string"
        }
      ],
      "payable": false,
      "stateMutability": "view",
      "type": "function"
    },
    {
      "constant": true,
      "inputs": [
        {
          "internalType": "uint256",
          "name": "index",
          "type": "uint256"
        }
      ],
      "name": "tokenByIndex",
      "outputs": [
        {
          "internalType": "uint256",
          "name": "",
          "type": "uint256"
        }
      ],
      "payable": false,
      "stateMutability": "view",
      "type": "function"
    },
    {
      "constant": true,
      "inputs": [
        {
          "internalType": "address",
          "name": "owner",
          "type": "address"
        },
        {
          "internalType": "uint256",
          "name": "index",
          "type": "uint256"
        }
      ],
      "name": "tokenOfOwnerByIndex",
      "outputs": [
        {
          "internalType": "uint256",
          "name": "",
          "type": "uint256"
        }
      ],
      "payable": false,
      "stateMutability": "view",
      "type": "function"
    },
    {
      "constant": true,
      "inputs": [
        {
          "internalType": "uint256",
          "name": "tokenId",
          "type": "uint256"
        }
      ],
      "name": "tokenURI",
      "outputs": [
        {
          "internalType": "string",
          "name": "",
          "type": "string"
        }
      ],
      "payable": false,
      "stateMutability": "view",
      "type": "function"
    },
    {
      "constant": true,
      "inputs": [],
      "name": "totalSupply",
      "outputs": [
        {
          "internalType": "uint256",
          "name": "",
          "type": "uint256"
        }
      ],
      "payable": false,
      "stateMutability": "view",
      "type": "function"
    },
    {
      "constant": false,
      "inputs": [
        {
          "internalType": "address",
          "name": "from",
          "type": "address"
        },
        {
          "internalType": "address",
          "name": "to",
          "type": "address"
        },
        {
          "internalType": "uint256",
          "name": "tokenId",
          "type": "uint256"
        }
      ],
      "name": "transferFrom",
      "outputs": [],
      "payable": false,
      "stateMutability": "nonpayable",
      "type": "function"
    },
    {
      "constant": false,
      "inputs": [
        {
          "internalType": "string",
          "name": "_name",
          "type": "string"
        },
        {
          "internalType": "string",
          "name": "_symbol",
          "type": "string"
        },
        {
          "internalType": "address",
          "name": "_unicoinRegistry",
          "type": "address"
        }
      ],
      "name": "initialize",
      "outputs": [],
      "payable": false,
      "stateMutability": "nonpayable",
      "type": "function"
    },
    {
      "constant": false,
      "inputs": [
        {
          "internalType": "string",
          "name": "name",
          "type": "string"
        },
        {
          "internalType": "string",
          "name": "symbol",
          "type": "string"
        }
      ],
      "name": "initialize",
      "outputs": [],
      "payable": false,
      "stateMutability": "nonpayable",
      "type": "function"
    },
    {
      "constant": false,
      "inputs": [],
      "name": "initialize",
      "outputs": [],
      "payable": false,
      "stateMutability": "nonpayable",
      "type": "function"
    },
    {
      "constant": false,
      "inputs": [
        {
          "internalType": "address",
          "name": "sender",
          "type": "address"
        }
      ],
      "name": "initialize",
      "outputs": [],
      "payable": false,
      "stateMutability": "nonpayable",
      "type": "function"
    },
    {
      "constant": false,
      "inputs": [
        {
          "internalType": "address",
          "name": "_ownerAddress",
          "type": "address"
        },
        {
          "internalType": "uint256",
          "name": "_buyer_Id",
          "type": "uint256"
        },
        {
          "internalType": "uint256",
          "name": "_publication_Id",
          "type": "uint256"
        },
        {
          "internalType": "uint256",
          "name": "_publicationLicenceNo",
          "type": "uint256"
        }
      ],
      "name": "registerNewLicence",
      "outputs": [],
      "payable": false,
      "stateMutability": "nonpayable",
      "type": "function"
    },
    {
      "constant": true,
      "inputs": [
        {
          "internalType": "uint256",
          "name": "_user_Id",
          "type": "uint256"
        }
      ],
      "name": "getLicenceForUser",
      "outputs": [
        {
          "internalType": "uint256[]",
          "name": "",
          "type": "uint256[]"
        }
      ],
      "payable": false,
      "stateMutability": "view",
      "type": "function"
    },
    {
      "constant": true,
      "inputs": [
        {
          "internalType": "uint256",
          "name": "_licence_Id",
          "type": "uint256"
        }
      ],
      "name": "getLicence",
      "outputs": [
        {
          "internalType": "uint256",
          "name": "",
          "type": "uint256"
        },
        {
          "internalType": "uint256",
          "name": "",
          "type": "uint256"
        },
        {
          "internalType": "uint256",
          "name": "",
          "type": "uint256"
        }
      ],
      "payable": false,
      "stateMutability": "view",
      "type": "function"
    },
    {
      "constant": true,
      "inputs": [
        {
          "internalType": "uint256",
          "name": "_publication_Id",
          "type": "uint256"
        }
      ],
      "name": "getPublicationLicences",
      "outputs": [
        {
          "internalType": "uint256[]",
          "name": "",
          "type": "uint256[]"
        }
      ],
      "payable": false,
      "stateMutability": "view",
      "type": "function"
    }
  ],
  "bytecode": "0x608060405261426f806100136000396000f3fe608060405234801561001057600080fd5b50600436106101fb5760003560e01c80638832e6e31161011a578063af5485a8116100ad578063c87b56dd1161007c578063c87b56dd14610eea578063d628d54014610f91578063e985e9c514610fdd578063f8ede44a14611059578063fbd9d2eb146110a5576101fb565b8063af5485a814610cef578063b88d4fde14610d51578063bb44aee314610e56578063c4d66de814610ea6576101fb565b806398650275116100e95780639865027514610bd3578063a144819414610bdd578063a22cb46514610c43578063aa271e1a14610c93576101fb565b80638832e6e31461098c57806395d89b4114610a895780639787bb4114610b0c578063983b2d5614610b8f576101fb565b80632f745c59116101925780634f6ccce7116101615780634f6ccce71461087a5780636352211e146108bc57806370a082311461092a5780638129fc1c14610982576101fb565b80632f745c59146105f257806340c10f191461065457806342842e0e146106ba5780634cd88b7614610728576101fb565b8063095ea7b3116101ce578063095ea7b3146104c857806318160ddd1461051657806323b872dd146105345780632cedebee146105a2576101fb565b806301ffc9a71461020057806306fdde0314610265578063077f224a146102e8578063081812fc1461045a575b600080fd5b61024b6004803603602081101561021657600080fd5b8101908080357bffffffffffffffffffffffffffffffffffffffffffffffffffffffff19169060200190929190505050611128565b604051808215151515815260200191505060405180910390f35b61026d611190565b6040518080602001828103825283818151815260200191508051906020019080838360005b838110156102ad578082015181840152602081019050610292565b50505050905090810190601f1680156102da5780820380516001836020036101000a031916815260200191505b509250505060405180910390f35b610458600480360360608110156102fe57600080fd5b810190808035906020019064010000000081111561031b57600080fd5b82018360208201111561032d57600080fd5b8035906020019184600183028401116401000000008311171561034f57600080fd5b91908080601f016020809104026020016040519081016040528093929190818152602001838380828437600081840152601f19601f820116905080830192505050505050509192919290803590602001906401000000008111156103b257600080fd5b8201836020820111156103c457600080fd5b803590602001918460018302840111640100000000831117156103e657600080fd5b91908080601f016020809104026020016040519081016040528093929190818152602001838380828437600081840152601f19601f820116905080830192505050505050509192919290803573ffffffffffffffffffffffffffffffffffffffff169060200190929190505050611232565b005b6104866004803603602081101561047057600080fd5b8101908080359060200190929190505050611406565b604051808273ffffffffffffffffffffffffffffffffffffffff1673ffffffffffffffffffffffffffffffffffffffff16815260200191505060405180910390f35b610514600480360360408110156104de57600080fd5b81019080803573ffffffffffffffffffffffffffffffffffffffff169060200190929190803590602001909291905050506114a1565b005b61051e611688565b6040518082815260200191505060405180910390f35b6105a06004803603606081101561054a57600080fd5b81019080803573ffffffffffffffffffffffffffffffffffffffff169060200190929190803573ffffffffffffffffffffffffffffffffffffffff16906020019092919080359060200190929190505050611695565b005b6105ce600480360360208110156105b857600080fd5b810190808035906020019092919050505061170b565b60405180848152602001838152602001828152602001935050505060405180910390f35b61063e6004803603604081101561060857600080fd5b81019080803573ffffffffffffffffffffffffffffffffffffffff169060200190929190803590602001909291905050506117f1565b6040518082815260200191505060405180910390f35b6106a06004803603604081101561066a57600080fd5b81019080803573ffffffffffffffffffffffffffffffffffffffff169060200190929190803590602001909291905050506118b0565b604051808215151515815260200191505060405180910390f35b610726600480360360608110156106d057600080fd5b81019080803573ffffffffffffffffffffffffffffffffffffffff169060200190929190803573ffffffffffffffffffffffffffffffffffffffff1690602001909291908035906020019092919050505061192b565b005b6108786004803603604081101561073e57600080fd5b810190808035906020019064010000000081111561075b57600080fd5b82018360208201111561076d57600080fd5b8035906020019184600183028401116401000000008311171561078f57600080fd5b91908080601f016020809104026020016040519081016040528093929190818152602001838380828437600081840152601f19601f820116905080830192505050505050509192919290803590602001906401000000008111156107f257600080fd5b82018360208201111561080457600080fd5b8035906020019184600183028401116401000000008311171561082657600080fd5b91908080601f016020809104026020016040519081016040528093929190818152602001838380828437600081840152601f19601f82011690508083019250505050505050919291929050505061194b565b005b6108a66004803603602081101561089057600080fd5b8101908080359060200190929190505050611a9b565b6040518082815260200191505060405180910390f35b6108e8600480360360208110156108d257600080fd5b8101908080359060200190929190505050611b1b565b604051808273ffffffffffffffffffffffffffffffffffffffff1673ffffffffffffffffffffffffffffffffffffffff16815260200191505060405180910390f35b61096c6004803603602081101561094057600080fd5b81019080803573ffffffffffffffffffffffffffffffffffffffff169060200190929190505050611be3565b6040518082815260200191505060405180910390f35b61098a611cb8565b005b610a6f600480360360608110156109a257600080fd5b81019080803573ffffffffffffffffffffffffffffffffffffffff16906020019092919080359060200190929190803590602001906401000000008111156109e957600080fd5b8201836020820111156109fb57600080fd5b80359060200191846001830284011164010000000083111715610a1d57600080fd5b91908080601f016020809104026020016040519081016040528093929190818152602001838380828437600081840152601f19601f820116905080830192505050505050509192919290505050611dd8565b604051808215151515815260200191505060405180910390f35b610a91611e55565b6040518080602001828103825283818151815260200191508051906020019080838360005b83811015610ad1578082015181840152602081019050610ab6565b50505050905090810190601f168015610afe5780820380516001836020036101000a031916815260200191505b509250505060405180910390f35b610b3860048036036020811015610b2257600080fd5b8101908080359060200190929190505050611ef7565b6040518080602001828103825283818151815260200191508051906020019060200280838360005b83811015610b7b578082015181840152602081019050610b60565b505050509050019250505060405180910390f35b610bd160048036036020811015610ba557600080fd5b81019080803573ffffffffffffffffffffffffffffffffffffffff169060200190929190505050611f63565b005b610bdb611fd4565b005b610c2960048036036040811015610bf357600080fd5b81019080803573ffffffffffffffffffffffffffffffffffffffff16906020019092919080359060200190929190505050611fe6565b604051808215151515815260200191505060405180910390f35b610c9160048036036040811015610c5957600080fd5b81019080803573ffffffffffffffffffffffffffffffffffffffff169060200190929190803515159060200190929190505050612061565b005b610cd560048036036020811015610ca957600080fd5b81019080803573ffffffffffffffffffffffffffffffffffffffff169060200190929190505050612219565b604051808215151515815260200191505060405180910390f35b610d4f60048036036080811015610d0557600080fd5b81019080803573ffffffffffffffffffffffffffffffffffffffff169060200190929190803590602001909291908035906020019092919080359060200190929190505050612237565b005b610e5460048036036080811015610d6757600080fd5b81019080803573ffffffffffffffffffffffffffffffffffffffff169060200190929190803573ffffffffffffffffffffffffffffffffffffffff1690602001909291908035906020019092919080359060200190640100000000811115610dce57600080fd5b820183602082011115610de057600080fd5b80359060200191846001830284011164010000000083111715610e0257600080fd5b91908080601f016020809104026020016040519081016040528093929190818152602001838380828437600081840152601f19601f820116905080830192505050505050509192919290505050612476565b005b610e8260048036036020811015610e6c57600080fd5b81019080803590602001909291905050506124ee565b60405180848152602001838152602001828152602001935050505060405180910390f35b610ee860048036036020811015610ebc57600080fd5b81019080803573ffffffffffffffffffffffffffffffffffffffff169060200190929190505050612526565b005b610f1660048036036020811015610f0057600080fd5b8101908080359060200190929190505050612640565b6040518080602001828103825283818151815260200191508051906020019080838360005b83811015610f56578082015181840152602081019050610f3b565b50505050905090810190601f168015610f835780820380516001836020036101000a031916815260200191505b509250505060405180910390f35b610fc760048036036040811015610fa757600080fd5b810190808035906020019092919080359060200190929190505050612753565b6040518082815260200191505060405180910390f35b61103f60048036036040811015610ff357600080fd5b81019080803573ffffffffffffffffffffffffffffffffffffffff169060200190929190803573ffffffffffffffffffffffffffffffffffffffff169060200190929190505050612782565b604051808215151515815260200191505060405180910390f35b61108f6004803603604081101561106f57600080fd5b810190808035906020019092919080359060200190929190505050612816565b6040518082815260200191505060405180910390f35b6110d1600480360360208110156110bb57600080fd5b8101908080359060200190929190505050612845565b6040518080602001828103825283818151815260200191508051906020019060200280838360005b838110156111145780820151818401526020810190506110f9565b505050509050019250505060405180910390f35b600060336000837bffffffffffffffffffffffffffffffffffffffffffffffffffffffff19167bffffffffffffffffffffffffffffffffffffffffffffffffffffffff1916815260200190815260200160002060009054906101000a900460ff169050919050565b606060d28054600181600116156101000203166002900480601f0160208091040260200160405190810160405280929190818152602001828054600181600116156101000203166002900480156112285780601f106111fd57610100808354040283529160200191611228565b820191906000526020600020905b81548152906001019060200180831161120b57829003601f168201915b5050505050905090565b600060019054906101000a900460ff168061125157506112506128b1565b5b8061126857506000809054906101000a900460ff16155b6112bd576040517f08c379a000000000000000000000000000000000000000000000000000000000815260040180806020018281038252602e815260200180614137602e913960400191505060405180910390fd5b60008060019054906101000a900460ff16159050801561130d576001600060016101000a81548160ff02191690831515021790555060016000806101000a81548160ff0219169083151502179055505b6113156128c2565b61131d611cb8565b611327848461194b565b61133082612526565b816101a160006101000a81548173ffffffffffffffffffffffffffffffffffffffff021916908373ffffffffffffffffffffffffffffffffffffffff16021790555061019e6040518060600160405280600081526020016000815260200160008152509080600181540180825580915050906001820390600052602060002090600302016000909192909190915060008201518160000155602082015181600101556040820151816002015550505080156114005760008060016101000a81548160ff0219169083151502179055505b50505050565b6000611411826129d9565b611466576040517f08c379a000000000000000000000000000000000000000000000000000000000815260040180806020018281038252602c8152602001806140e9602c913960400191505060405180910390fd5b6067600083815260200190815260200160002060009054906101000a900473ffffffffffffffffffffffffffffffffffffffff169050919050565b60006114ac82611b1b565b90508073ffffffffffffffffffffffffffffffffffffffff168373ffffffffffffffffffffffffffffffffffffffff161415611533576040517f08c379a00000000000000000000000000000000000000000000000000000000081526004018080602001828103825260218152602001806141bd6021913960400191505060405180910390fd5b8073ffffffffffffffffffffffffffffffffffffffff16611552612a4b565b73ffffffffffffffffffffffffffffffffffffffff16148061158157506115808161157b612a4b565b612782565b5b6115d6576040517f08c379a000000000000000000000000000000000000000000000000000000000815260040180806020018281038252603881526020018061400d6038913960400191505060405180910390fd5b826067600084815260200190815260200160002060006101000a81548173ffffffffffffffffffffffffffffffffffffffff021916908373ffffffffffffffffffffffffffffffffffffffff160217905550818373ffffffffffffffffffffffffffffffffffffffff168273ffffffffffffffffffffffffffffffffffffffff167f8c5be1e5ebec7d5bd14f71427d1e84f3dd0314c0f7b2291e5b200ac8c7c3b92560405160405180910390a4505050565b6000609e80549050905090565b6116a66116a0612a4b565b82612a53565b6116fb576040517f08c379a00000000000000000000000000000000000000000000000000000000081526004018080602001828103825260318152602001806141de6031913960400191505060405180910390fd5b611706838383612b47565b505050565b6000806000808411611785576040517f08c379a000000000000000000000000000000000000000000000000000000000815260040180806020018281038252601b8152602001807f5a65726f7468206c6963656e6365206973206e6f742076616c6964000000000081525060200191505060405180910390fd5b61178d613e6d565b61019e858154811061179b57fe5b906000526020600020906003020160405180606001604052908160008201548152602001600182015481526020016002820154815250509050806000015181602001518260400151935093509350509193909250565b60006117fc83611be3565b8210611853576040517f08c379a000000000000000000000000000000000000000000000000000000000815260040180806020018281038252602b815260200180613f60602b913960400191505060405180910390fd5b609c60008473ffffffffffffffffffffffffffffffffffffffff1673ffffffffffffffffffffffffffffffffffffffff168152602001908152602001600020828154811061189d57fe5b9060005260206000200154905092915050565b60006118c26118bd612a4b565b612219565b611917576040517f08c379a00000000000000000000000000000000000000000000000000000000081526004018080602001828103825260308152602001806140986030913960400191505060405180910390fd5b6119218383612b6b565b6001905092915050565b61194683838360405180602001604052806000815250612476565b505050565b600060019054906101000a900460ff168061196a57506119696128b1565b5b8061198157506000809054906101000a900460ff16155b6119d6576040517f08c379a000000000000000000000000000000000000000000000000000000000815260040180806020018281038252602e815260200180614137602e913960400191505060405180910390fd5b60008060019054906101000a900460ff161590508015611a26576001600060016101000a81548160ff02191690831515021790555060016000806101000a81548160ff0219169083151502179055505b611a2e612b8c565b611a3757600080fd5b8260d29080519060200190611a4d929190613e8e565b508160d39080519060200190611a64929190613e8e565b50611a75635b5e139f60e01b612ba3565b8015611a965760008060016101000a81548160ff0219169083151502179055505b505050565b6000611aa5611688565b8210611afc576040517f08c379a000000000000000000000000000000000000000000000000000000000815260040180806020018281038252602c81526020018061420f602c913960400191505060405180910390fd5b609e8281548110611b0957fe5b90600052602060002001549050919050565b6000806066600084815260200190815260200160002060009054906101000a900473ffffffffffffffffffffffffffffffffffffffff169050600073ffffffffffffffffffffffffffffffffffffffff168173ffffffffffffffffffffffffffffffffffffffff161415611bda576040517f08c379a000000000000000000000000000000000000000000000000000000000815260040180806020018281038252602981526020018061406f6029913960400191505060405180910390fd5b80915050919050565b60008073ffffffffffffffffffffffffffffffffffffffff168273ffffffffffffffffffffffffffffffffffffffff161415611c6a576040517f08c379a000000000000000000000000000000000000000000000000000000000815260040180806020018281038252602a815260200180614045602a913960400191505060405180910390fd5b611cb1606860008473ffffffffffffffffffffffffffffffffffffffff1673ffffffffffffffffffffffffffffffffffffffff168152602001908152602001600020612cac565b9050919050565b600060019054906101000a900460ff1680611cd75750611cd66128b1565b5b80611cee57506000809054906101000a900460ff16155b611d43576040517f08c379a000000000000000000000000000000000000000000000000000000000815260040180806020018281038252602e815260200180614137602e913960400191505060405180910390fd5b60008060019054906101000a900460ff161590508015611d93576001600060016101000a81548160ff02191690831515021790555060016000806101000a81548160ff0219169083151502179055505b611d9b612b8c565b611da457600080fd5b611db463780e9d6360e01b612ba3565b8015611dd55760008060016101000a81548160ff0219169083151502179055505b50565b6000611dea611de5612a4b565b612219565b611e3f576040517f08c379a00000000000000000000000000000000000000000000000000000000081526004018080602001828103825260308152602001806140986030913960400191505060405180910390fd5b611e4a848484612cba565b600190509392505050565b606060d38054600181600116156101000203166002900480601f016020809104026020016040519081016040528092919081815260200182805460018160011615610100020316600290048015611eed5780601f10611ec257610100808354040283529160200191611eed565b820191906000526020600020905b815481529060010190602001808311611ed057829003601f168201915b5050505050905090565b606061019f6000838152602001908152602001600020805480602002602001604051908101604052809291908181526020018280548015611f5757602002820191906000526020600020905b815481526020019060010190808311611f43575b50505050509050919050565b611f73611f6e612a4b565b612219565b611fc8576040517f08c379a00000000000000000000000000000000000000000000000000000000081526004018080602001828103825260308152602001806140986030913960400191505060405180910390fd5b611fd181612d2b565b50565b611fe4611fdf612a4b565b612d86565b565b6000611ff8611ff3612a4b565b612219565b61204d576040517f08c379a00000000000000000000000000000000000000000000000000000000081526004018080602001828103825260308152602001806140986030913960400191505060405180910390fd5b6120578383612de1565b6001905092915050565b612069612a4b565b73ffffffffffffffffffffffffffffffffffffffff168273ffffffffffffffffffffffffffffffffffffffff16141561210a576040517f08c379a00000000000000000000000000000000000000000000000000000000081526004018080602001828103825260198152602001807f4552433732313a20617070726f766520746f2063616c6c65720000000000000081525060200191505060405180910390fd5b8060696000612117612a4b565b73ffffffffffffffffffffffffffffffffffffffff1673ffffffffffffffffffffffffffffffffffffffff16815260200190815260200160002060008473ffffffffffffffffffffffffffffffffffffffff1673ffffffffffffffffffffffffffffffffffffffff16815260200190815260200160002060006101000a81548160ff0219169083151502179055508173ffffffffffffffffffffffffffffffffffffffff166121c4612a4b565b73ffffffffffffffffffffffffffffffffffffffff167f17307eab39ab6107e8899845ad3d59bd9653f200f220920489ca2b5937696c3183604051808215151515815260200191505060405180910390a35050565b600061223082610139612dff90919063ffffffff16565b9050919050565b6101a160009054906101000a900473ffffffffffffffffffffffffffffffffffffffff1673ffffffffffffffffffffffffffffffffffffffff163373ffffffffffffffffffffffffffffffffffffffff16146122fb576040517f08c379a000000000000000000000000000000000000000000000000000000000815260040180806020018281038252601e8152602001807f43616e206f6e6c792062652063616c6c6564206279207265676973747279000081525060200191505060405180910390fd5b612303613e6d565b60405180606001604052808581526020018481526020018381525090506000600161019e8390806001815401808255809150509060018203906000526020600020906003020160009091929091909150600082015181600001556020820151816001015560408201518160020155505003905061019f60008681526020019081526020016000208190806001815401808255809150509060018203906000526020600020016000909192909190915055506101a060008581526020019081526020016000208190806001815401808255809150509060018203906000526020600020016000909192909190915055506123fc86826118b0565b61246e576040517f08c379a00000000000000000000000000000000000000000000000000000000081526004018080602001828103825260168152602001807f4c6963656e6365206d696e74696e67206661696c65640000000000000000000081525060200191505060405180910390fd5b505050505050565b612487612481612a4b565b83612a53565b6124dc576040517f08c379a00000000000000000000000000000000000000000000000000000000081526004018080602001828103825260318152602001806141de6031913960400191505060405180910390fd5b6124e884848484612edd565b50505050565b61019e81815481106124fc57fe5b90600052602060002090600302016000915090508060000154908060010154908060020154905083565b600060019054906101000a900460ff168061254557506125446128b1565b5b8061255c57506000809054906101000a900460ff16155b6125b1576040517f08c379a000000000000000000000000000000000000000000000000000000000815260040180806020018281038252602e815260200180614137602e913960400191505060405180910390fd5b60008060019054906101000a900460ff161590508015612601576001600060016101000a81548160ff02191690831515021790555060016000806101000a81548160ff0219169083151502179055505b612609612b8c565b61261257600080fd5b61261b82612f4f565b801561263c5760008060016101000a81548160ff0219169083151502179055505b5050565b606061264b826129d9565b6126a0576040517f08c379a000000000000000000000000000000000000000000000000000000000815260040180806020018281038252602f81526020018061418e602f913960400191505060405180910390fd5b60d460008381526020019081526020016000208054600181600116156101000203166002900480601f0160208091040260200160405190810160405280929190818152602001828054600181600116156101000203166002900480156127475780601f1061271c57610100808354040283529160200191612747565b820191906000526020600020905b81548152906001019060200180831161272a57829003601f168201915b50505050509050919050565b6101a0602052816000526040600020818154811061276d57fe5b90600052602060002001600091509150505481565b6000606960008473ffffffffffffffffffffffffffffffffffffffff1673ffffffffffffffffffffffffffffffffffffffff16815260200190815260200160002060008373ffffffffffffffffffffffffffffffffffffffff1673ffffffffffffffffffffffffffffffffffffffff16815260200190815260200160002060009054906101000a900460ff16905092915050565b61019f602052816000526040600020818154811061283057fe5b90600052602060002001600091509150505481565b60606101a060008381526020019081526020016000208054806020026020016040519081016040528092919081815260200182805480156128a557602002820191906000526020600020905b815481526020019060010190808311612891575b50505050509050919050565b600080303b90506000811491505090565b600060019054906101000a900460ff16806128e157506128e06128b1565b5b806128f857506000809054906101000a900460ff16155b61294d576040517f08c379a000000000000000000000000000000000000000000000000000000000815260040180806020018281038252602e815260200180614137602e913960400191505060405180910390fd5b60008060019054906101000a900460ff16159050801561299d576001600060016101000a81548160ff02191690831515021790555060016000806101000a81548160ff0219169083151502179055505b6129a5613066565b6129b56380ac58cd60e01b612ba3565b80156129d65760008060016101000a81548160ff0219169083151502179055505b50565b6000806066600084815260200190815260200160002060009054906101000a900473ffffffffffffffffffffffffffffffffffffffff169050600073ffffffffffffffffffffffffffffffffffffffff168173ffffffffffffffffffffffffffffffffffffffff161415915050919050565b600033905090565b6000612a5e826129d9565b612ab3576040517f08c379a000000000000000000000000000000000000000000000000000000000815260040180806020018281038252602c815260200180613fe1602c913960400191505060405180910390fd5b6000612abe83611b1b565b90508073ffffffffffffffffffffffffffffffffffffffff168473ffffffffffffffffffffffffffffffffffffffff161480612b2d57508373ffffffffffffffffffffffffffffffffffffffff16612b1584611406565b73ffffffffffffffffffffffffffffffffffffffff16145b80612b3e5750612b3d8185612782565b5b91505092915050565b612b52838383613175565b612b5c83826133d0565b612b66828261356e565b505050565b612b758282613635565b612b7f828261356e565b612b888161384d565b5050565b6000612b9e6380ac58cd60e01b611128565b905090565b63ffffffff60e01b817bffffffffffffffffffffffffffffffffffffffffffffffffffffffff19161415612c3f576040517f08c379a000000000000000000000000000000000000000000000000000000000815260040180806020018281038252601c8152602001807f4552433136353a20696e76616c696420696e746572666163652069640000000081525060200191505060405180910390fd5b600160336000837bffffffffffffffffffffffffffffffffffffffffffffffffffffffff19167bffffffffffffffffffffffffffffffffffffffffffffffffffffffff1916815260200190815260200160002060006101000a81548160ff02191690831515021790555050565b600081600001549050919050565b612cc48383612b6b565b612cd16000848484613899565b612d26576040517f08c379a0000000000000000000000000000000000000000000000000000000008152600401808060200182810382526032815260200180613f8b6032913960400191505060405180910390fd5b505050565b612d4081610139613a8990919063ffffffff16565b8073ffffffffffffffffffffffffffffffffffffffff167f6ae172837ea30b801fbfcdd4108aa1d5bf8ff775444fd70256b44e6bf3dfc3f660405160405180910390a250565b612d9b81610139613b6490919063ffffffff16565b8073ffffffffffffffffffffffffffffffffffffffff167fe94479a9f7e1952cc78f2d6baab678adc1b772d936c6583def489e524cb6669260405160405180910390a250565b612dfb828260405180602001604052806000815250612cba565b5050565b60008073ffffffffffffffffffffffffffffffffffffffff168273ffffffffffffffffffffffffffffffffffffffff161415612e86576040517f08c379a00000000000000000000000000000000000000000000000000000000081526004018080602001828103825260228152602001806141156022913960400191505060405180910390fd5b8260000160008373ffffffffffffffffffffffffffffffffffffffff1673ffffffffffffffffffffffffffffffffffffffff16815260200190815260200160002060009054906101000a900460ff16905092915050565b612ee8848484612b47565b612ef484848484613899565b612f49576040517f08c379a0000000000000000000000000000000000000000000000000000000008152600401808060200182810382526032815260200180613f8b6032913960400191505060405180910390fd5b50505050565b600060019054906101000a900460ff1680612f6e5750612f6d6128b1565b5b80612f8557506000809054906101000a900460ff16155b612fda576040517f08c379a000000000000000000000000000000000000000000000000000000000815260040180806020018281038252602e815260200180614137602e913960400191505060405180910390fd5b60008060019054906101000a900460ff16159050801561302a576001600060016101000a81548160ff02191690831515021790555060016000806101000a81548160ff0219169083151502179055505b61303382612219565b6130415761304082612d2b565b5b80156130625760008060016101000a81548160ff0219169083151502179055505b5050565b600060019054906101000a900460ff168061308557506130846128b1565b5b8061309c57506000809054906101000a900460ff16155b6130f1576040517f08c379a000000000000000000000000000000000000000000000000000000000815260040180806020018281038252602e815260200180614137602e913960400191505060405180910390fd5b60008060019054906101000a900460ff161590508015613141576001600060016101000a81548160ff02191690831515021790555060016000806101000a81548160ff0219169083151502179055505b6131516301ffc9a760e01b612ba3565b80156131725760008060016101000a81548160ff0219169083151502179055505b50565b8273ffffffffffffffffffffffffffffffffffffffff1661319582611b1b565b73ffffffffffffffffffffffffffffffffffffffff1614613201576040517f08c379a00000000000000000000000000000000000000000000000000000000081526004018080602001828103825260298152602001806141656029913960400191505060405180910390fd5b600073ffffffffffffffffffffffffffffffffffffffff168273ffffffffffffffffffffffffffffffffffffffff161415613287576040517f08c379a0000000000000000000000000000000000000000000000000000000008152600401808060200182810382526024815260200180613fbd6024913960400191505060405180910390fd5b61329081613c21565b6132d7606860008573ffffffffffffffffffffffffffffffffffffffff1673ffffffffffffffffffffffffffffffffffffffff168152602001908152602001600020613cdf565b61331e606860008473ffffffffffffffffffffffffffffffffffffffff1673ffffffffffffffffffffffffffffffffffffffff168152602001908152602001600020613d02565b816066600083815260200190815260200160002060006101000a81548173ffffffffffffffffffffffffffffffffffffffff021916908373ffffffffffffffffffffffffffffffffffffffff160217905550808273ffffffffffffffffffffffffffffffffffffffff168473ffffffffffffffffffffffffffffffffffffffff167fddf252ad1be2c89b69c2b068fc378daa952ba7f163c4a11628f55a4df523b3ef60405160405180910390a4505050565b60006134286001609c60008673ffffffffffffffffffffffffffffffffffffffff1673ffffffffffffffffffffffffffffffffffffffff16815260200190815260200160002080549050613d1890919063ffffffff16565b90506000609d6000848152602001908152602001600020549050818114613515576000609c60008673ffffffffffffffffffffffffffffffffffffffff1673ffffffffffffffffffffffffffffffffffffffff168152602001908152602001600020838154811061349557fe5b9060005260206000200154905080609c60008773ffffffffffffffffffffffffffffffffffffffff1673ffffffffffffffffffffffffffffffffffffffff16815260200190815260200160002083815481106134ed57fe5b906000526020600020018190555081609d600083815260200190815260200160002081905550505b609c60008573ffffffffffffffffffffffffffffffffffffffff1673ffffffffffffffffffffffffffffffffffffffff1681526020019081526020016000208054809190600190036135679190613f0e565b5050505050565b609c60008373ffffffffffffffffffffffffffffffffffffffff1673ffffffffffffffffffffffffffffffffffffffff16815260200190815260200160002080549050609d600083815260200190815260200160002081905550609c60008373ffffffffffffffffffffffffffffffffffffffff1673ffffffffffffffffffffffffffffffffffffffff1681526020019081526020016000208190806001815401808255809150509060018203906000526020600020016000909192909190915055505050565b600073ffffffffffffffffffffffffffffffffffffffff168273ffffffffffffffffffffffffffffffffffffffff1614156136d8576040517f08c379a00000000000000000000000000000000000000000000000000000000081526004018080602001828103825260208152602001807f4552433732313a206d696e7420746f20746865207a65726f206164647265737381525060200191505060405180910390fd5b6136e1816129d9565b15613754576040517f08c379a000000000000000000000000000000000000000000000000000000000815260040180806020018281038252601c8152602001807f4552433732313a20746f6b656e20616c7265616479206d696e7465640000000081525060200191505060405180910390fd5b816066600083815260200190815260200160002060006101000a81548173ffffffffffffffffffffffffffffffffffffffff021916908373ffffffffffffffffffffffffffffffffffffffff1602179055506137ed606860008473ffffffffffffffffffffffffffffffffffffffff1673ffffffffffffffffffffffffffffffffffffffff168152602001908152602001600020613d02565b808273ffffffffffffffffffffffffffffffffffffffff16600073ffffffffffffffffffffffffffffffffffffffff167fddf252ad1be2c89b69c2b068fc378daa952ba7f163c4a11628f55a4df523b3ef60405160405180910390a45050565b609e80549050609f600083815260200190815260200160002081905550609e81908060018154018082558091505090600182039060005260206000200160009091929091909150555050565b60006138ba8473ffffffffffffffffffffffffffffffffffffffff16613d62565b6138c75760019050613a81565b60008473ffffffffffffffffffffffffffffffffffffffff1663150b7a026138ed612a4b565b8887876040518563ffffffff1660e01b8152600401808573ffffffffffffffffffffffffffffffffffffffff1673ffffffffffffffffffffffffffffffffffffffff1681526020018473ffffffffffffffffffffffffffffffffffffffff1673ffffffffffffffffffffffffffffffffffffffff16815260200183815260200180602001828103825283818151815260200191508051906020019080838360005b838110156139a957808201518184015260208101905061398e565b50505050905090810190601f1680156139d65780820380516001836020036101000a031916815260200191505b5095505050505050602060405180830381600087803b1580156139f857600080fd5b505af1158015613a0c573d6000803e3d6000fd5b505050506040513d6020811015613a2257600080fd5b8101908080519060200190929190505050905063150b7a0260e01b7bffffffffffffffffffffffffffffffffffffffffffffffffffffffff1916817bffffffffffffffffffffffffffffffffffffffffffffffffffffffff1916149150505b949350505050565b613a938282612dff565b15613b06576040517f08c379a000000000000000000000000000000000000000000000000000000000815260040180806020018281038252601f8152602001807f526f6c65733a206163636f756e7420616c72656164792068617320726f6c650081525060200191505060405180910390fd5b60018260000160008373ffffffffffffffffffffffffffffffffffffffff1673ffffffffffffffffffffffffffffffffffffffff16815260200190815260200160002060006101000a81548160ff0219169083151502179055505050565b613b6e8282612dff565b613bc3576040517f08c379a00000000000000000000000000000000000000000000000000000000081526004018080602001828103825260218152602001806140c86021913960400191505060405180910390fd5b60008260000160008373ffffffffffffffffffffffffffffffffffffffff1673ffffffffffffffffffffffffffffffffffffffff16815260200190815260200160002060006101000a81548160ff0219169083151502179055505050565b600073ffffffffffffffffffffffffffffffffffffffff166067600083815260200190815260200160002060009054906101000a900473ffffffffffffffffffffffffffffffffffffffff1673ffffffffffffffffffffffffffffffffffffffff1614613cdc5760006067600083815260200190815260200160002060006101000a81548173ffffffffffffffffffffffffffffffffffffffff021916908373ffffffffffffffffffffffffffffffffffffffff1602179055505b50565b613cf760018260000154613d1890919063ffffffff16565b816000018190555050565b6001816000016000828254019250508190555050565b6000613d5a83836040518060400160405280601e81526020017f536166654d6174683a207375627472616374696f6e206f766572666c6f770000815250613dad565b905092915050565b60008060007fc5d2460186f7233c927e7db2dcc703c0e500b653ca82273b7bfad8045d85a47060001b9050833f91506000801b8214158015613da45750808214155b92505050919050565b6000838311158290613e5a576040517f08c379a00000000000000000000000000000000000000000000000000000000081526004018080602001828103825283818151815260200191508051906020019080838360005b83811015613e1f578082015181840152602081019050613e04565b50505050905090810190601f168015613e4c5780820380516001836020036101000a031916815260200191505b509250505060405180910390fd5b5060008385039050809150509392505050565b60405180606001604052806000815260200160008152602001600081525090565b828054600181600116156101000203166002900490600052602060002090601f016020900481019282601f10613ecf57805160ff1916838001178555613efd565b82800160010185558215613efd579182015b82811115613efc578251825591602001919060010190613ee1565b5b509050613f0a9190613f3a565b5090565b815481835581811115613f3557818360005260206000209182019101613f349190613f3a565b5b505050565b613f5c91905b80821115613f58576000816000905550600101613f40565b5090565b9056fe455243373231456e756d657261626c653a206f776e657220696e646578206f7574206f6620626f756e64734552433732313a207472616e7366657220746f206e6f6e20455243373231526563656976657220696d706c656d656e7465724552433732313a207472616e7366657220746f20746865207a65726f20616464726573734552433732313a206f70657261746f7220717565727920666f72206e6f6e6578697374656e7420746f6b656e4552433732313a20617070726f76652063616c6c6572206973206e6f74206f776e6572206e6f7220617070726f76656420666f7220616c6c4552433732313a2062616c616e636520717565727920666f7220746865207a65726f20616464726573734552433732313a206f776e657220717565727920666f72206e6f6e6578697374656e7420746f6b656e4d696e746572526f6c653a2063616c6c657220646f6573206e6f74206861766520746865204d696e74657220726f6c65526f6c65733a206163636f756e7420646f6573206e6f74206861766520726f6c654552433732313a20617070726f76656420717565727920666f72206e6f6e6578697374656e7420746f6b656e526f6c65733a206163636f756e7420697320746865207a65726f2061646472657373436f6e747261637420696e7374616e63652068617320616c7265616479206265656e20696e697469616c697a65644552433732313a207472616e73666572206f6620746f6b656e2074686174206973206e6f74206f776e4552433732314d657461646174613a2055524920717565727920666f72206e6f6e6578697374656e7420746f6b656e4552433732313a20617070726f76616c20746f2063757272656e74206f776e65724552433732313a207472616e736665722063616c6c6572206973206e6f74206f776e6572206e6f7220617070726f766564455243373231456e756d657261626c653a20676c6f62616c20696e646578206f7574206f6620626f756e6473a265627a7a723158206f6ba93ebed7ce01e1e5c656645dcda0eb352d553c7119a549d8ca6c5dcc176564736f6c634300050c0032",
  "source": "pragma solidity ^0.5.12;\n\nimport \"@openzeppelin/upgrades/contracts/Initializable.sol\";\n\nimport \"@openzeppelin/contracts-ethereum-package/contracts/token/ERC721/ERC721.sol\";\n\nimport \"@openzeppelin/contracts-ethereum-package/contracts/token/ERC721/ERC721Full.sol\";\n\nimport \"@openzeppelin/contracts-ethereum-package/contracts/token/ERC721/ERC721Mintable.sol\";\ncontract LicenceManager is Initializable, ERC721Full, ERC721Mintable {\n    struct Licence {\n        uint256 buyer_Id;\n        uint256 publication_Id;\n        uint256 publicationLicenceNo;\n    }\n\n    Licence[] public licences;\n    // user Id to their array of licences\n    mapping(uint256 => uint256[]) public licenceOwners;\n    // licence Id to get the publication Id\n    mapping(uint256 => uint256[]) public publicationLicences;\n\n    modifier onlyRegistry() {\n        require(msg.sender == registry, \"Can only be called by registry\");\n        _;\n    }\n\n    address registry;\n    function initialize(\n        string memory _name,\n        string memory _symbol,\n        address _unicoinRegistry\n    ) public initializer {\n        ERC721.initialize();\n        ERC721Enumerable.initialize();\n        ERC721Metadata.initialize(_name, _symbol);\n        ERC721Mintable.initialize(_unicoinRegistry);\n\n        registry = _unicoinRegistry;\n\n        licences.push(Licence(0, 0, 0));\n    }\n\n    function registerNewLicence(\n        address _ownerAddress,\n        uint256 _buyer_Id,\n        uint256 _publication_Id,\n        uint256 _publicationLicenceNo\n    ) public onlyRegistry {\n        Licence memory licence = Licence(\n            _buyer_Id,\n            _publication_Id,\n            _publicationLicenceNo\n        );\n        uint256 licence_Id = licences.push(licence) - 1;\n\n        licenceOwners[_buyer_Id].push(licence_Id);\n        publicationLicences[_publication_Id].push(licence_Id);\n\n        require(\n            ERC721Mintable.mint(_ownerAddress, licence_Id),\n            \"Licence minting failed\"\n        );\n    }\n\n    function getLicenceForUser(uint256 _user_Id)\n        public\n        view\n        returns (uint256[] memory)\n    {\n        return licenceOwners[_user_Id];\n    }\n\n    function getLicence(uint256 _licence_Id)\n        public\n        view\n        returns (uint256, uint256, uint256)\n    {\n        require(_licence_Id > 0, \"Zeroth licence is not valid\");\n        Licence memory _licence = licences[_licence_Id];\n        return (\n            _licence.buyer_Id,\n            _licence.publication_Id,\n            _licence.publicationLicenceNo\n        );\n    }\n\n    function getPublicationLicences(uint256 _publication_Id)\n        public\n        view\n        returns (uint256[] memory)\n    {\n        return publicationLicences[_publication_Id];\n    }\n}\n",
  "sourcePath": "/Users/chris/Projects/unicoindapp/contracts/LicenceManager.sol",
  "compiler": {
    "name": "solc",
    "version": "0.5.12+commit.7709ece9.Emscripten.clang"
  },
  "schemaVersion": "3.0.16",
  "updatedAt": "2019-12-01T05:16:04.487Z",
  "devdoc": {
    "methods": {
      "approve(address,uint256)": {
        "details": "Approves another address to transfer the given token ID The zero address indicates there is no approved address. There can only be one approved address per token at a given time. Can only be called by the token owner or an approved operator.",
        "params": {
          "to": "address to be approved for the given token ID",
          "tokenId": "uint256 ID of the token to be approved"
        }
      },
      "balanceOf(address)": {
        "details": "Gets the balance of the specified address.",
        "params": {
          "owner": "address to query the balance of"
        },
        "return": "uint256 representing the amount owned by the passed address"
      },
      "getApproved(uint256)": {
        "details": "Gets the approved address for a token ID, or zero if no address set Reverts if the token ID does not exist.",
        "params": {
          "tokenId": "uint256 ID of the token to query the approval of"
        },
        "return": "address currently approved for the given token ID"
      },
      "initialize()": {
        "details": "Constructor function."
      },
      "initialize(string,string)": {
        "details": "Constructor function"
      },
      "isApprovedForAll(address,address)": {
        "details": "Tells whether an operator is approved by a given owner.",
        "params": {
          "operator": "operator address which you want to query the approval of",
          "owner": "owner address which you want to query the approval of"
        },
        "return": "bool whether the given operator is approved by the given owner"
      },
      "mint(address,uint256)": {
        "details": "Function to mint tokens.",
        "params": {
          "to": "The address that will receive the minted token.",
          "tokenId": "The token id to mint."
        },
        "return": "A boolean that indicates if the operation was successful."
      },
      "name()": {
        "details": "Gets the token name.",
        "return": "string representing the token name"
      },
      "ownerOf(uint256)": {
        "details": "Gets the owner of the specified token ID.",
        "params": {
          "tokenId": "uint256 ID of the token to query the owner of"
        },
        "return": "address currently marked as the owner of the given token ID"
      },
      "safeMint(address,uint256)": {
        "details": "Function to safely mint tokens.",
        "params": {
          "to": "The address that will receive the minted token.",
          "tokenId": "The token id to mint."
        },
        "return": "A boolean that indicates if the operation was successful."
      },
      "safeMint(address,uint256,bytes)": {
        "details": "Function to safely mint tokens.",
        "params": {
          "_data": "bytes data to send along with a safe transfer check.",
          "to": "The address that will receive the minted token.",
          "tokenId": "The token id to mint."
        },
        "return": "A boolean that indicates if the operation was successful."
      },
      "safeTransferFrom(address,address,uint256)": {
        "details": "Safely transfers the ownership of a given token ID to another address If the target address is a contract, it must implement {IERC721Receiver-onERC721Received}, which is called upon a safe transfer, and return the magic value `bytes4(keccak256(\"onERC721Received(address,address,uint256,bytes)\"))`; otherwise, the transfer is reverted. Requires the msg.sender to be the owner, approved, or operator",
        "params": {
          "from": "current owner of the token",
          "to": "address to receive the ownership of the given token ID",
          "tokenId": "uint256 ID of the token to be transferred"
        }
      },
      "safeTransferFrom(address,address,uint256,bytes)": {
        "details": "Safely transfers the ownership of a given token ID to another address If the target address is a contract, it must implement {IERC721Receiver-onERC721Received}, which is called upon a safe transfer, and return the magic value `bytes4(keccak256(\"onERC721Received(address,address,uint256,bytes)\"))`; otherwise, the transfer is reverted. Requires the _msgSender() to be the owner, approved, or operator",
        "params": {
          "_data": "bytes data to send along with a safe transfer check",
          "from": "current owner of the token",
          "to": "address to receive the ownership of the given token ID",
          "tokenId": "uint256 ID of the token to be transferred"
        }
      },
      "setApprovalForAll(address,bool)": {
        "details": "Sets or unsets the approval of a given operator An operator is allowed to transfer all tokens of the sender on their behalf.",
        "params": {
          "approved": "representing the status of the approval to be set",
          "to": "operator address to set the approval"
        }
      },
      "supportsInterface(bytes4)": {
        "details": "See {IERC165-supportsInterface}.     * Time complexity O(1), guaranteed to always use less than 30 000 gas."
      },
      "symbol()": {
        "details": "Gets the token symbol.",
        "return": "string representing the token symbol"
      },
      "tokenByIndex(uint256)": {
        "details": "Gets the token ID at a given index of all the tokens in this contract Reverts if the index is greater or equal to the total number of tokens.",
        "params": {
          "index": "uint256 representing the index to be accessed of the tokens list"
        },
        "return": "uint256 token ID at the given index of the tokens list"
      },
      "tokenOfOwnerByIndex(address,uint256)": {
        "details": "Gets the token ID at a given index of the tokens list of the requested owner.",
        "params": {
          "index": "uint256 representing the index to be accessed of the requested tokens list",
          "owner": "address owning the tokens list to be accessed"
        },
        "return": "uint256 token ID at the given index of the tokens list owned by the requested address"
      },
      "tokenURI(uint256)": {
        "details": "Returns an URI for a given token ID. Throws if the token ID does not exist. May return an empty string.",
        "params": {
          "tokenId": "uint256 ID of the token to query"
        }
      },
      "totalSupply()": {
        "details": "Gets the total amount of tokens stored by the contract.",
        "return": "uint256 representing the total amount of tokens"
      },
      "transferFrom(address,address,uint256)": {
        "details": "Transfers the ownership of a given token ID to another address. Usage of this method is discouraged, use {safeTransferFrom} whenever possible. Requires the msg.sender to be the owner, approved, or operator.",
        "params": {
          "from": "current owner of the token",
          "to": "address to receive the ownership of the given token ID",
          "tokenId": "uint256 ID of the token to be transferred"
        }
      }
    }
  },
  "userdoc": {
    "methods": {}
  }
}