{
  "contractName": "LicenceManager",
  "abi": [
    {
      "anonymous": false,
      "inputs": [
        {
          "indexed": true,
          "internalType": "address",
          "name": "owner",
          "type": "address"
        },
        {
          "indexed": true,
          "internalType": "address",
          "name": "approved",
          "type": "address"
        },
        {
          "indexed": true,
          "internalType": "uint256",
          "name": "tokenId",
          "type": "uint256"
        }
      ],
      "name": "Approval",
      "type": "event"
    },
    {
      "anonymous": false,
      "inputs": [
        {
          "indexed": true,
          "internalType": "address",
          "name": "owner",
          "type": "address"
        },
        {
          "indexed": true,
          "internalType": "address",
          "name": "operator",
          "type": "address"
        },
        {
          "indexed": false,
          "internalType": "bool",
          "name": "approved",
          "type": "bool"
        }
      ],
      "name": "ApprovalForAll",
      "type": "event"
    },
    {
      "anonymous": false,
      "inputs": [
        {
          "indexed": true,
          "internalType": "address",
          "name": "account",
          "type": "address"
        }
      ],
      "name": "MinterAdded",
      "type": "event"
    },
    {
      "anonymous": false,
      "inputs": [
        {
          "indexed": true,
          "internalType": "address",
          "name": "account",
          "type": "address"
        }
      ],
      "name": "MinterRemoved",
      "type": "event"
    },
    {
      "anonymous": false,
      "inputs": [
        {
          "indexed": true,
          "internalType": "address",
          "name": "from",
          "type": "address"
        },
        {
          "indexed": true,
          "internalType": "address",
          "name": "to",
          "type": "address"
        },
        {
          "indexed": true,
          "internalType": "uint256",
          "name": "tokenId",
          "type": "uint256"
        }
      ],
      "name": "Transfer",
      "type": "event"
    },
    {
      "constant": false,
      "inputs": [
        {
          "internalType": "address",
          "name": "account",
          "type": "address"
        }
      ],
      "name": "addMinter",
      "outputs": [],
      "payable": false,
      "stateMutability": "nonpayable",
      "type": "function"
    },
    {
      "constant": false,
      "inputs": [
        {
          "internalType": "address",
          "name": "to",
          "type": "address"
        },
        {
          "internalType": "uint256",
          "name": "tokenId",
          "type": "uint256"
        }
      ],
      "name": "approve",
      "outputs": [],
      "payable": false,
      "stateMutability": "nonpayable",
      "type": "function"
    },
    {
      "constant": true,
      "inputs": [
        {
          "internalType": "address",
          "name": "owner",
          "type": "address"
        }
      ],
      "name": "balanceOf",
      "outputs": [
        {
          "internalType": "uint256",
          "name": "",
          "type": "uint256"
        }
      ],
      "payable": false,
      "stateMutability": "view",
      "type": "function"
    },
    {
      "constant": true,
      "inputs": [
        {
          "internalType": "uint256",
          "name": "tokenId",
          "type": "uint256"
        }
      ],
      "name": "getApproved",
      "outputs": [
        {
          "internalType": "address",
          "name": "",
          "type": "address"
        }
      ],
      "payable": false,
      "stateMutability": "view",
      "type": "function"
    },
    {
      "constant": true,
      "inputs": [
        {
          "internalType": "address",
          "name": "owner",
          "type": "address"
        },
        {
          "internalType": "address",
          "name": "operator",
          "type": "address"
        }
      ],
      "name": "isApprovedForAll",
      "outputs": [
        {
          "internalType": "bool",
          "name": "",
          "type": "bool"
        }
      ],
      "payable": false,
      "stateMutability": "view",
      "type": "function"
    },
    {
      "constant": true,
      "inputs": [
        {
          "internalType": "address",
          "name": "account",
          "type": "address"
        }
      ],
      "name": "isMinter",
      "outputs": [
        {
          "internalType": "bool",
          "name": "",
          "type": "bool"
        }
      ],
      "payable": false,
      "stateMutability": "view",
      "type": "function"
    },
    {
      "constant": true,
      "inputs": [
        {
          "internalType": "uint256",
          "name": "",
          "type": "uint256"
        },
        {
          "internalType": "uint256",
          "name": "",
          "type": "uint256"
        }
      ],
      "name": "licenceOwners",
      "outputs": [
        {
          "internalType": "uint256",
          "name": "",
          "type": "uint256"
        }
      ],
      "payable": false,
      "stateMutability": "view",
      "type": "function"
    },
    {
      "constant": true,
      "inputs": [
        {
          "internalType": "uint256",
          "name": "",
          "type": "uint256"
        }
      ],
      "name": "licences",
      "outputs": [
        {
          "internalType": "uint256",
          "name": "owner_Id",
          "type": "uint256"
        },
        {
          "internalType": "uint256",
          "name": "publication_Id",
          "type": "uint256"
        },
        {
          "internalType": "uint256",
          "name": "publicationLicenceNo",
          "type": "uint256"
        },
        {
          "internalType": "enum LicenceManager.LicenceStatus",
          "name": "status",
          "type": "uint8"
        }
      ],
      "payable": false,
      "stateMutability": "view",
      "type": "function"
    },
    {
      "constant": false,
      "inputs": [
        {
          "internalType": "address",
          "name": "to",
          "type": "address"
        },
        {
          "internalType": "uint256",
          "name": "tokenId",
          "type": "uint256"
        }
      ],
      "name": "mint",
      "outputs": [
        {
          "internalType": "bool",
          "name": "",
          "type": "bool"
        }
      ],
      "payable": false,
      "stateMutability": "nonpayable",
      "type": "function"
    },
    {
      "constant": true,
      "inputs": [],
      "name": "name",
      "outputs": [
        {
          "internalType": "string",
          "name": "",
          "type": "string"
        }
      ],
      "payable": false,
      "stateMutability": "view",
      "type": "function"
    },
    {
      "constant": true,
      "inputs": [
        {
          "internalType": "uint256",
          "name": "tokenId",
          "type": "uint256"
        }
      ],
      "name": "ownerOf",
      "outputs": [
        {
          "internalType": "address",
          "name": "",
          "type": "address"
        }
      ],
      "payable": false,
      "stateMutability": "view",
      "type": "function"
    },
    {
      "constant": true,
      "inputs": [
        {
          "internalType": "uint256",
          "name": "",
          "type": "uint256"
        },
        {
          "internalType": "uint256",
          "name": "",
          "type": "uint256"
        }
      ],
      "name": "publicationLicences",
      "outputs": [
        {
          "internalType": "uint256",
          "name": "",
          "type": "uint256"
        }
      ],
      "payable": false,
      "stateMutability": "view",
      "type": "function"
    },
    {
      "constant": false,
      "inputs": [],
      "name": "renounceMinter",
      "outputs": [],
      "payable": false,
      "stateMutability": "nonpayable",
      "type": "function"
    },
    {
      "constant": false,
      "inputs": [
        {
          "internalType": "address",
          "name": "to",
          "type": "address"
        },
        {
          "internalType": "uint256",
          "name": "tokenId",
          "type": "uint256"
        },
        {
          "internalType": "bytes",
          "name": "_data",
          "type": "bytes"
        }
      ],
      "name": "safeMint",
      "outputs": [
        {
          "internalType": "bool",
          "name": "",
          "type": "bool"
        }
      ],
      "payable": false,
      "stateMutability": "nonpayable",
      "type": "function"
    },
    {
      "constant": false,
      "inputs": [
        {
          "internalType": "address",
          "name": "to",
          "type": "address"
        },
        {
          "internalType": "uint256",
          "name": "tokenId",
          "type": "uint256"
        }
      ],
      "name": "safeMint",
      "outputs": [
        {
          "internalType": "bool",
          "name": "",
          "type": "bool"
        }
      ],
      "payable": false,
      "stateMutability": "nonpayable",
      "type": "function"
    },
    {
      "constant": false,
      "inputs": [
        {
          "internalType": "address",
          "name": "from",
          "type": "address"
        },
        {
          "internalType": "address",
          "name": "to",
          "type": "address"
        },
        {
          "internalType": "uint256",
          "name": "tokenId",
          "type": "uint256"
        }
      ],
      "name": "safeTransferFrom",
      "outputs": [],
      "payable": false,
      "stateMutability": "nonpayable",
      "type": "function"
    },
    {
      "constant": false,
      "inputs": [
        {
          "internalType": "address",
          "name": "from",
          "type": "address"
        },
        {
          "internalType": "address",
          "name": "to",
          "type": "address"
        },
        {
          "internalType": "uint256",
          "name": "tokenId",
          "type": "uint256"
        },
        {
          "internalType": "bytes",
          "name": "_data",
          "type": "bytes"
        }
      ],
      "name": "safeTransferFrom",
      "outputs": [],
      "payable": false,
      "stateMutability": "nonpayable",
      "type": "function"
    },
    {
      "constant": false,
      "inputs": [
        {
          "internalType": "address",
          "name": "to",
          "type": "address"
        },
        {
          "internalType": "bool",
          "name": "approved",
          "type": "bool"
        }
      ],
      "name": "setApprovalForAll",
      "outputs": [],
      "payable": false,
      "stateMutability": "nonpayable",
      "type": "function"
    },
    {
      "constant": true,
      "inputs": [
        {
          "internalType": "bytes4",
          "name": "interfaceId",
          "type": "bytes4"
        }
      ],
      "name": "supportsInterface",
      "outputs": [
        {
          "internalType": "bool",
          "name": "",
          "type": "bool"
        }
      ],
      "payable": false,
      "stateMutability": "view",
      "type": "function"
    },
    {
      "constant": true,
      "inputs": [],
      "name": "symbol",
      "outputs": [
        {
          "internalType": "string",
          "name": "",
          "type": "string"
        }
      ],
      "payable": false,
      "stateMutability": "view",
      "type": "function"
    },
    {
      "constant": true,
      "inputs": [
        {
          "internalType": "uint256",
          "name": "index",
          "type": "uint256"
        }
      ],
      "name": "tokenByIndex",
      "outputs": [
        {
          "internalType": "uint256",
          "name": "",
          "type": "uint256"
        }
      ],
      "payable": false,
      "stateMutability": "view",
      "type": "function"
    },
    {
      "constant": true,
      "inputs": [
        {
          "internalType": "address",
          "name": "owner",
          "type": "address"
        },
        {
          "internalType": "uint256",
          "name": "index",
          "type": "uint256"
        }
      ],
      "name": "tokenOfOwnerByIndex",
      "outputs": [
        {
          "internalType": "uint256",
          "name": "",
          "type": "uint256"
        }
      ],
      "payable": false,
      "stateMutability": "view",
      "type": "function"
    },
    {
      "constant": true,
      "inputs": [
        {
          "internalType": "uint256",
          "name": "tokenId",
          "type": "uint256"
        }
      ],
      "name": "tokenURI",
      "outputs": [
        {
          "internalType": "string",
          "name": "",
          "type": "string"
        }
      ],
      "payable": false,
      "stateMutability": "view",
      "type": "function"
    },
    {
      "constant": true,
      "inputs": [],
      "name": "totalSupply",
      "outputs": [
        {
          "internalType": "uint256",
          "name": "",
          "type": "uint256"
        }
      ],
      "payable": false,
      "stateMutability": "view",
      "type": "function"
    },
    {
      "constant": false,
      "inputs": [
        {
          "internalType": "string",
          "name": "_name",
          "type": "string"
        },
        {
          "internalType": "string",
          "name": "_symbol",
          "type": "string"
        },
        {
          "internalType": "address",
          "name": "_unicoinRegistry",
          "type": "address"
        }
      ],
      "name": "initialize",
      "outputs": [],
      "payable": false,
      "stateMutability": "nonpayable",
      "type": "function"
    },
    {
      "constant": false,
      "inputs": [
        {
          "internalType": "string",
          "name": "name",
          "type": "string"
        },
        {
          "internalType": "string",
          "name": "symbol",
          "type": "string"
        }
      ],
      "name": "initialize",
      "outputs": [],
      "payable": false,
      "stateMutability": "nonpayable",
      "type": "function"
    },
    {
      "constant": false,
      "inputs": [],
      "name": "initialize",
      "outputs": [],
      "payable": false,
      "stateMutability": "nonpayable",
      "type": "function"
    },
    {
      "constant": false,
      "inputs": [
        {
          "internalType": "address",
          "name": "sender",
          "type": "address"
        }
      ],
      "name": "initialize",
      "outputs": [],
      "payable": false,
      "stateMutability": "nonpayable",
      "type": "function"
    },
    {
      "constant": false,
      "inputs": [
        {
          "internalType": "address",
          "name": "_ownerAddress",
          "type": "address"
        },
        {
          "internalType": "uint256",
          "name": "_owner_Id",
          "type": "uint256"
        },
        {
          "internalType": "uint256",
          "name": "_publication_Id",
          "type": "uint256"
        },
        {
          "internalType": "uint256",
          "name": "_publicationLicenceNo",
          "type": "uint256"
        }
      ],
      "name": "registerNewLicence",
      "outputs": [
        {
          "internalType": "uint256",
          "name": "",
          "type": "uint256"
        }
      ],
      "payable": false,
      "stateMutability": "nonpayable",
      "type": "function"
    },
    {
      "constant": false,
      "inputs": [
        {
          "internalType": "uint256",
          "name": "_licence_Id",
          "type": "uint256"
        }
      ],
      "name": "revokeLicence",
      "outputs": [],
      "payable": false,
      "stateMutability": "nonpayable",
      "type": "function"
    },
    {
      "constant": true,
      "inputs": [
        {
          "internalType": "uint256",
          "name": "_user_Id",
          "type": "uint256"
        }
      ],
      "name": "getLicenceForUser",
      "outputs": [
        {
          "internalType": "uint256[]",
          "name": "",
          "type": "uint256[]"
        }
      ],
      "payable": false,
      "stateMutability": "view",
      "type": "function"
    },
    {
      "constant": false,
      "inputs": [
        {
          "internalType": "uint256",
          "name": "_licence_Id",
          "type": "uint256"
        },
        {
          "internalType": "uint256",
          "name": "_newOwner_Id",
          "type": "uint256"
        },
        {
          "internalType": "address",
          "name": "_oldNFTOwner_address",
          "type": "address"
        },
        {
          "internalType": "address",
          "name": "_newNFTOwner_address",
          "type": "address"
        }
      ],
      "name": "allocateLicenceToNewOwner",
      "outputs": [],
      "payable": false,
      "stateMutability": "nonpayable",
      "type": "function"
    },
    {
      "constant": true,
      "inputs": [
        {
          "internalType": "uint256",
          "name": "_licence_Id",
          "type": "uint256"
        }
      ],
      "name": "getLicence",
      "outputs": [
        {
          "internalType": "uint256",
          "name": "",
          "type": "uint256"
        },
        {
          "internalType": "uint256",
          "name": "",
          "type": "uint256"
        },
        {
          "internalType": "uint256",
          "name": "",
          "type": "uint256"
        },
        {
          "internalType": "uint8",
          "name": "",
          "type": "uint8"
        }
      ],
      "payable": false,
      "stateMutability": "view",
      "type": "function"
    },
    {
      "constant": true,
      "inputs": [
        {
          "internalType": "uint256",
          "name": "_licence_Id",
          "type": "uint256"
        }
      ],
      "name": "getLicenceOwnerId",
      "outputs": [
        {
          "internalType": "uint256",
          "name": "",
          "type": "uint256"
        }
      ],
      "payable": false,
      "stateMutability": "view",
      "type": "function"
    },
    {
      "constant": true,
      "inputs": [
        {
          "internalType": "uint256",
          "name": "_publication_Id",
          "type": "uint256"
        }
      ],
      "name": "getPublicationLicences",
      "outputs": [
        {
          "internalType": "uint256[]",
          "name": "",
          "type": "uint256[]"
        }
      ],
      "payable": false,
      "stateMutability": "view",
      "type": "function"
    },
    {
      "constant": true,
      "inputs": [
        {
          "internalType": "uint256",
          "name": "_publication_Id",
          "type": "uint256"
        }
      ],
      "name": "getMostRecentPublicationLicence",
      "outputs": [
        {
          "internalType": "uint256",
          "name": "",
          "type": "uint256"
        }
      ],
      "payable": false,
      "stateMutability": "view",
      "type": "function"
    },
    {
      "constant": false,
      "inputs": [
        {
          "internalType": "address",
          "name": "from",
          "type": "address"
        },
        {
          "internalType": "address",
          "name": "to",
          "type": "address"
        },
        {
          "internalType": "uint256",
          "name": "tokenId",
          "type": "uint256"
        }
      ],
      "name": "transferFrom",
      "outputs": [],
      "payable": false,
      "stateMutability": "nonpayable",
      "type": "function"
    }
  ],
  "bytecode": "0x6080604052612f19806100136000396000f3fe608060405234801561001057600080fd5b50600436106102275760003560e01c80638129fc1c11610130578063aa271e1a116100b8578063c87b56dd1161007c578063c87b56dd14610b25578063d628d54014610b42578063e985e9c514610b65578063f8ede44a14610b93578063fbd9d2eb14610bb657610227565b8063aa271e1a14610985578063af5485a8146109ab578063b88d4fde146109e3578063bb44aee314610aa9578063c4d66de814610aff57610227565b80639787bb41116100ff5780639787bb4114610890578063983b2d56146108fd5780639865027514610923578063a14481941461092b578063a22cb4651461095757610227565b80638129fc1c146107a85780638832e6e3146107b057806392c6830f1461086b57806395d89b411461088857610227565b80633a7ae75d116101b35780634cd88b76116101825780634cd88b76146105e15780634f6ccce71461070e5780635c290cc61461072b5780636352211e1461076557806370a082311461078257610227565b80633a7ae75d1461054557806340c10f191461056257806342842e0e1461058e5780634cd54184146105c457610227565b8063095ea7b3116101fa578063095ea7b31461045757806318160ddd1461048357806323b872dd1461049d5780632cedebee146104d35780632f745c591461051957610227565b806301ffc9a71461022c57806306fdde0314610267578063077f224a146102e4578063081812fc1461041e575b600080fd5b6102536004803603602081101561024257600080fd5b50356001600160e01b031916610bd3565b604080519115158252519081900360200190f35b61026f610bf2565b6040805160208082528351818301528351919283929083019185019080838360005b838110156102a9578181015183820152602001610291565b50505050905090810190601f1680156102d65780820380516001836020036101000a031916815260200191505b509250505060405180910390f35b61041c600480360360608110156102fa57600080fd5b81019060208101813564010000000081111561031557600080fd5b82018360208201111561032757600080fd5b8035906020019184600183028401116401000000008311171561034957600080fd5b91908080601f016020809104026020016040519081016040528093929190818152602001838380828437600092019190915250929594936020810193503591505064010000000081111561039c57600080fd5b8201836020820111156103ae57600080fd5b803590602001918460018302840111640100000000831117156103d057600080fd5b91908080601f016020809104026020016040519081016040528093929190818152602001838380828437600092019190915250929550505090356001600160a01b03169150610c899050565b005b61043b6004803603602081101561043457600080fd5b5035610d6d565b604080516001600160a01b039092168252519081900360200190f35b61041c6004803603604081101561046d57600080fd5b506001600160a01b038135169060200135610dcf565b61048b610ef7565b60408051918252519081900360200190f35b61041c600480360360608110156104b357600080fd5b506001600160a01b03813581169160208101359091169060400135610efd565b6104f0600480360360208110156104e957600080fd5b5035610f7f565b6040805194855260208501939093528383019190915260ff166060830152519081900360800190f35b61048b6004803603604081101561052f57600080fd5b506001600160a01b038135169060200135611030565b61041c6004803603602081101561055b57600080fd5b50356110af565b6102536004803603604081101561057857600080fd5b506001600160a01b038135169060200135611178565b61041c600480360360608110156105a457600080fd5b506001600160a01b038135811691602081013590911690604001356111d8565b61048b600480360360208110156105da57600080fd5b50356111f3565b61041c600480360360408110156105f757600080fd5b81019060208101813564010000000081111561061257600080fd5b82018360208201111561062457600080fd5b8035906020019184600183028401116401000000008311171561064657600080fd5b91908080601f016020809104026020016040519081016040528093929190818152602001838380828437600092019190915250929594936020810193503591505064010000000081111561069957600080fd5b8201836020820111156106ab57600080fd5b803590602001918460018302840111640100000000831117156106cd57600080fd5b91908080601f01602080910402602001604051908101604052809392919081815260200183838082843760009201919091525092955061127e945050505050565b61048b6004803603602081101561072457600080fd5b503561136a565b61041c6004803603608081101561074157600080fd5b508035906020810135906001600160a01b03604082013581169160600135166113d0565b61043b6004803603602081101561077b57600080fd5b503561145b565b61048b6004803603602081101561079857600080fd5b50356001600160a01b03166114b5565b61041c61151d565b610253600480360360608110156107c657600080fd5b6001600160a01b03823516916020810135918101906060810160408201356401000000008111156107f657600080fd5b82018360208201111561080857600080fd5b8035906020019184600183028401116401000000008311171561082a57600080fd5b91908080601f0160208091040260200160405190810160405280939291908181526020018383808284376000920191909152509295506115e0945050505050565b61048b6004803603602081101561088157600080fd5b503561163d565b61026f611666565b6108ad600480360360208110156108a657600080fd5b50356116c7565b60408051602080825283518183015283519192839290830191858101910280838360005b838110156108e95781810151838201526020016108d1565b505050509050019250505060405180910390f35b61041c6004803603602081101561091357600080fd5b50356001600160a01b031661172a565b61041c611779565b6102536004803603604081101561094157600080fd5b506001600160a01b03813516906020013561178b565b61041c6004803603604081101561096d57600080fd5b506001600160a01b03813516906020013515156117dd565b6102536004803603602081101561099b57600080fd5b50356001600160a01b03166118e2565b61048b600480360360808110156109c157600080fd5b506001600160a01b0381351690602081013590604081013590606001356118f6565b61041c600480360360808110156109f957600080fd5b6001600160a01b03823581169260208101359091169160408201359190810190608081016060820135640100000000811115610a3457600080fd5b820183602082011115610a4657600080fd5b80359060200191846001830284011164010000000083111715610a6857600080fd5b91908080601f016020809104026020016040519081016040528093929190818152602001838380828437600092019190915250929550611b07945050505050565b610ac660048036036020811015610abf57600080fd5b5035611b5f565b60405180858152602001848152602001838152602001826001811115610ae857fe5b60ff16815260200194505050505060405180910390f35b61041c60048036036020811015610b1557600080fd5b50356001600160a01b0316611b9a565b61026f60048036036020811015610b3b57600080fd5b5035611c57565b61048b60048036036040811015610b5857600080fd5b5080359060200135611d32565b61025360048036036040811015610b7b57600080fd5b506001600160a01b0381358116916020013516611d61565b61048b60048036036040811015610ba957600080fd5b5080359060200135611d8f565b6108ad60048036036020811015610bcc57600080fd5b5035611da9565b6001600160e01b03191660009081526033602052604090205460ff1690565b60d28054604080516020601f6002600019610100600188161502019095169490940493840181900481028201810190925282815260609390929091830182828015610c7e5780601f10610c5357610100808354040283529160200191610c7e565b820191906000526020600020905b815481529060010190602001808311610c6157829003601f168201915b505050505090505b90565b600054610100900460ff1680610ca25750610ca2611e0a565b80610cb0575060005460ff16155b610ceb5760405162461bcd60e51b815260040180806020018281038252602e815260200180612da3602e913960400191505060405180910390fd5b600054610100900460ff16158015610d16576000805460ff1961ff0019909116610100171660011790555b610d1e611e10565b610d2661151d565b610d30848461127e565b610d3982611b9a565b6101a180546001600160a01b0319166001600160a01b0384161790558015610d67576000805461ff00191690555b50505050565b6000610d7882611eb5565b610db35760405162461bcd60e51b815260040180806020018281038252602c815260200180612d55602c913960400191505060405180910390fd5b506000908152606760205260409020546001600160a01b031690565b6000610dda8261145b565b9050806001600160a01b0316836001600160a01b03161415610e2d5760405162461bcd60e51b8152600401808060200182810382526021815260200180612e296021913960400191505060405180910390fd5b806001600160a01b0316610e3f611ed2565b6001600160a01b03161480610e605750610e6081610e5b611ed2565b611d61565b610e9b5760405162461bcd60e51b8152600401808060200182810382526038815260200180612c796038913960400191505060405180910390fd5b60008281526067602052604080822080546001600160a01b0319166001600160a01b0387811691821790925591518593918516917f8c5be1e5ebec7d5bd14f71427d1e84f3dd0314c0f7b2291e5b200ac8c7c3b92591a4505050565b609e5490565b610f0e610f08611ed2565b82611ed6565b80610f3457506101a1546001600160a01b0316610f29611ed2565b6001600160a01b0316145b610f6f5760405162461bcd60e51b815260040180806020018281038252603e815260200180612ea7603e913960400191505060405180910390fd5b610f7a838383611f72565b505050565b600080600080610f8d612ae1565b61019e8681548110610f9b57fe5b90600052602060002090600402016040518060800160405290816000820154815260200160018201548152602001600282015481526020016003820160009054906101000a900460ff166001811115610ff057fe5b6001811115610ffb57fe5b8152505090508060000151816020015182604001518360600151600181111561102057fe5b9450945094509450509193509193565b600061103b836114b5565b82106110785760405162461bcd60e51b815260040180806020018281038252602b815260200180612bcc602b913960400191505060405180910390fd5b6001600160a01b0383166000908152609c6020526040902080548390811061109c57fe5b9060005260206000200154905092915050565b6101a1546001600160a01b0316331461110f576040805162461bcd60e51b815260206004820152601e60248201527f43616e206f6e6c792062652063616c6c65642062792072656769737472790000604482015290519081900360640190fd5b600161019e828154811061111f57fe5b60009182526020909120600360049092020101805460ff19166001838181111561114557fe5b0217905550600161019e828154811061115a57fe5b60009182526020909120600260049092020101805491909103905550565b600061118a611185611ed2565b6118e2565b6111c55760405162461bcd60e51b8152600401808060200182810382526030815260200180612d046030913960400191505060405180910390fd5b6111cf83836120b6565b50600192915050565b610f7a83838360405180602001604052806000815250611b07565b6000806111ff83611da9565b51905060008111611257576040805162461bcd60e51b815260206004820152601160248201527f6e6f206c6963656e63657320666f756e64000000000000000000000000000000604482015290519081900360640190fd5b61126083611da9565b600182038151811061126e57fe5b6020026020010151915050919050565b600054610100900460ff16806112975750611297611e0a565b806112a5575060005460ff16155b6112e05760405162461bcd60e51b815260040180806020018281038252602e815260200180612da3602e913960400191505060405180910390fd5b600054610100900460ff1615801561130b576000805460ff1961ff0019909116610100171660011790555b6113136120d3565b61131c57600080fd5b825161132f9060d2906020860190612b13565b5081516113439060d3906020850190612b13565b50611354635b5e139f60e01b6120ea565b8015610f7a576000805461ff0019169055505050565b6000611374610ef7565b82106113b15760405162461bcd60e51b815260040180806020018281038252602c815260200180612e7b602c913960400191505060405180910390fd5b609e82815481106113be57fe5b90600052602060002001549050919050565b6101a1546001600160a01b03163314611430576040805162461bcd60e51b815260206004820152601e60248201527f43616e206f6e6c792062652063616c6c65642062792072656769737472790000604482015290519081900360640190fd5b8261019e858154811061143f57fe5b6000918252602090912060049091020155610d67828286610efd565b6000818152606660205260408120546001600160a01b0316806114af5760405162461bcd60e51b8152600401808060200182810382526029815260200180612cdb6029913960400191505060405180910390fd5b92915050565b60006001600160a01b0382166114fc5760405162461bcd60e51b815260040180806020018281038252602a815260200180612cb1602a913960400191505060405180910390fd5b6001600160a01b03821660009081526068602052604090206114af9061216e565b600054610100900460ff16806115365750611536611e0a565b80611544575060005460ff16155b61157f5760405162461bcd60e51b815260040180806020018281038252602e815260200180612da3602e913960400191505060405180910390fd5b600054610100900460ff161580156115aa576000805460ff1961ff0019909116610100171660011790555b6115b26120d3565b6115bb57600080fd5b6115cb63780e9d6360e01b6120ea565b80156115dd576000805461ff00191690555b50565b60006115ed611185611ed2565b6116285760405162461bcd60e51b8152600401808060200182810382526030815260200180612d046030913960400191505060405180910390fd5b611633848484612172565b5060019392505050565b600061019e828154811061164d57fe5b9060005260206000209060040201600001549050919050565b60d38054604080516020601f6002600019610100600188161502019095169490940493840181900481028201810190925282815260609390929091830182828015610c7e5780601f10610c5357610100808354040283529160200191610c7e565b600081815261019f602090815260409182902080548351818402810184019094528084526060939283018282801561171e57602002820191906000526020600020905b81548152602001906001019080831161170a575b50505050509050919050565b611735611185611ed2565b6117705760405162461bcd60e51b8152600401808060200182810382526030815260200180612d046030913960400191505060405180910390fd5b6115dd816121c4565b611789611784611ed2565b61220d565b565b6000611798611185611ed2565b6117d35760405162461bcd60e51b8152600401808060200182810382526030815260200180612d046030913960400191505060405180910390fd5b6111cf8383612256565b6117e5611ed2565b6001600160a01b0316826001600160a01b0316141561184b576040805162461bcd60e51b815260206004820152601960248201527f4552433732313a20617070726f766520746f2063616c6c657200000000000000604482015290519081900360640190fd5b8060696000611858611ed2565b6001600160a01b03908116825260208083019390935260409182016000908120918716808252919093529120805460ff19169215159290921790915561189c611ed2565b60408051841515815290516001600160a01b0392909216917f17307eab39ab6107e8899845ad3d59bd9653f200f220920489ca2b5937696c319181900360200190a35050565b60006114af6101398363ffffffff61227016565b6101a1546000906001600160a01b03163314611959576040805162461bcd60e51b815260206004820152601e60248201527f43616e206f6e6c792062652063616c6c65642062792072656769737472790000604482015290519081900360640190fd5b611961612ae1565b50604080516080810182528581526020810185815291810184815260006060830181815261019e80546001808201808455928552865160049092027fe182ec4162b2bb087af6d462e45917a32b2b0170bcaf1db406b2ae4590b6953b810192835597517fe182ec4162b2bb087af6d462e45917a32b2b0170bcaf1db406b2ae4590b6953c89015594517fe182ec4162b2bb087af6d462e45917a32b2b0170bcaf1db406b2ae4590b6953d88015591517fe182ec4162b2bb087af6d462e45917a32b2b0170bcaf1db406b2ae4590b6953e909601805495969395919387939290919060ff1916868381811115611a5257fe5b02179055505050600088815261019f6020908152604080832080546001818101835591855283852096909503959094018590558983526101a0825282208054938401815582529020018190559050611aaa8782611178565b611afb576040805162461bcd60e51b815260206004820152601660248201527f4c6963656e6365206d696e74696e67206661696c656400000000000000000000604482015290519081900360640190fd5b9150505b949350505050565b611b18611b12611ed2565b83611ed6565b611b535760405162461bcd60e51b8152600401808060200182810382526031815260200180612e4a6031913960400191505060405180910390fd5b610d67848484846122d7565b61019e8181548110611b6d57fe5b60009182526020909120600490910201805460018201546002830154600390930154919350919060ff1684565b600054610100900460ff1680611bb35750611bb3611e0a565b80611bc1575060005460ff16155b611bfc5760405162461bcd60e51b815260040180806020018281038252602e815260200180612da3602e913960400191505060405180910390fd5b600054610100900460ff16158015611c27576000805460ff1961ff0019909116610100171660011790555b611c2f6120d3565b611c3857600080fd5b611c4182612329565b8015611c53576000805461ff00191690555b5050565b6060611c6282611eb5565b611c9d5760405162461bcd60e51b815260040180806020018281038252602f815260200180612dfa602f913960400191505060405180910390fd5b600082815260d4602090815260409182902080548351601f60026000196101006001861615020190931692909204918201849004840281018401909452808452909183018282801561171e5780601f10611d055761010080835404028352916020019161171e565b820191906000526020600020905b815481529060010190602001808311611d135750939695505050505050565b6101a06020528160005260406000208181548110611d4c57fe5b90600052602060002001600091509150505481565b6001600160a01b03918216600090815260696020908152604080832093909416825291909152205460ff1690565b61019f6020528160005260406000208181548110611d4c57fe5b60008181526101a0602090815260409182902080548351818402810184019094528084526060939283018282801561171e576020028201919060005260206000209081548152602001906001019080831161170a5750505050509050919050565b303b1590565b600054610100900460ff1680611e295750611e29611e0a565b80611e37575060005460ff16155b611e725760405162461bcd60e51b815260040180806020018281038252602e815260200180612da3602e913960400191505060405180910390fd5b600054610100900460ff16158015611e9d576000805460ff1961ff0019909116610100171660011790555b611ea56123cc565b6115cb6380ac58cd60e01b6120ea565b6000908152606660205260409020546001600160a01b0316151590565b3390565b6000611ee182611eb5565b611f1c5760405162461bcd60e51b815260040180806020018281038252602c815260200180612c4d602c913960400191505060405180910390fd5b6000611f278361145b565b9050806001600160a01b0316846001600160a01b03161480611f625750836001600160a01b0316611f5784610d6d565b6001600160a01b0316145b80611aff5750611aff8185611d61565b826001600160a01b0316611f858261145b565b6001600160a01b031614611fca5760405162461bcd60e51b8152600401808060200182810382526029815260200180612dd16029913960400191505060405180910390fd5b6001600160a01b03821661200f5760405162461bcd60e51b8152600401808060200182810382526024815260200180612c296024913960400191505060405180910390fd5b61201881612469565b6001600160a01b0383166000908152606860205260409020612039906124a4565b6001600160a01b038216600090815260686020526040902061205a906124bb565b60008181526066602052604080822080546001600160a01b0319166001600160a01b0386811691821790925591518493918716917fddf252ad1be2c89b69c2b068fc378daa952ba7f163c4a11628f55a4df523b3ef91a4505050565b6120c082826124c4565b6120ca82826125f5565b611c5381612633565b60006120e56380ac58cd60e01b610bd3565b905090565b6001600160e01b03198082161415612149576040805162461bcd60e51b815260206004820152601c60248201527f4552433136353a20696e76616c696420696e7465726661636520696400000000604482015290519081900360640190fd5b6001600160e01b0319166000908152603360205260409020805460ff19166001179055565b5490565b61217c83836120b6565b6121896000848484612677565b610f7a5760405162461bcd60e51b8152600401808060200182810382526032815260200180612bf76032913960400191505060405180910390fd5b6121d66101398263ffffffff6127ce16565b6040516001600160a01b038216907f6ae172837ea30b801fbfcdd4108aa1d5bf8ff775444fd70256b44e6bf3dfc3f690600090a250565b61221f6101398263ffffffff61284f16565b6040516001600160a01b038216907fe94479a9f7e1952cc78f2d6baab678adc1b772d936c6583def489e524cb6669290600090a250565b611c53828260405180602001604052806000815250612172565b60006001600160a01b0382166122b75760405162461bcd60e51b8152600401808060200182810382526022815260200180612d816022913960400191505060405180910390fd5b506001600160a01b03166000908152602091909152604090205460ff1690565b6122e28484846128b6565b6122ee84848484612677565b610d675760405162461bcd60e51b8152600401808060200182810382526032815260200180612bf76032913960400191505060405180910390fd5b600054610100900460ff16806123425750612342611e0a565b80612350575060005460ff16155b61238b5760405162461bcd60e51b815260040180806020018281038252602e815260200180612da3602e913960400191505060405180910390fd5b600054610100900460ff161580156123b6576000805460ff1961ff0019909116610100171660011790555b6123bf826118e2565b611c4157611c41826121c4565b600054610100900460ff16806123e557506123e5611e0a565b806123f3575060005460ff16155b61242e5760405162461bcd60e51b815260040180806020018281038252602e815260200180612da3602e913960400191505060405180910390fd5b600054610100900460ff16158015612459576000805460ff1961ff0019909116610100171660011790555b6115cb6301ffc9a760e01b6120ea565b6000818152606760205260409020546001600160a01b0316156115dd57600090815260676020526040902080546001600160a01b0319169055565b80546124b790600163ffffffff6128d516565b9055565b80546001019055565b6001600160a01b03821661251f576040805162461bcd60e51b815260206004820181905260248201527f4552433732313a206d696e7420746f20746865207a65726f2061646472657373604482015290519081900360640190fd5b61252881611eb5565b1561257a576040805162461bcd60e51b815260206004820152601c60248201527f4552433732313a20746f6b656e20616c7265616479206d696e74656400000000604482015290519081900360640190fd5b600081815260666020908152604080832080546001600160a01b0319166001600160a01b0387169081179091558352606890915290206125b9906124bb565b60405181906001600160a01b038416906000907fddf252ad1be2c89b69c2b068fc378daa952ba7f163c4a11628f55a4df523b3ef908290a45050565b6001600160a01b039091166000908152609c602081815260408084208054868652609d84529185208290559282526001810183559183529091200155565b609e80546000838152609f60205260408120829055600182018355919091527fcfe2a20ff701a1f3e14f63bd70d6c6bc6fba8172ec6d5a505cdab3927c0a9de60155565b600061268b846001600160a01b031661291e565b61269757506001611aff565b6000846001600160a01b031663150b7a026126b0611ed2565b8887876040518563ffffffff1660e01b815260040180856001600160a01b03166001600160a01b03168152602001846001600160a01b03166001600160a01b0316815260200183815260200180602001828103825283818151815260200191508051906020019080838360005b8381101561273557818101518382015260200161271d565b50505050905090810190601f1680156127625780820380516001836020036101000a031916815260200191505b5095505050505050602060405180830381600087803b15801561278457600080fd5b505af1158015612798573d6000803e3d6000fd5b505050506040513d60208110156127ae57600080fd5b50516001600160e01b031916630a85bd0160e11b14915050949350505050565b6127d88282612270565b1561282a576040805162461bcd60e51b815260206004820152601f60248201527f526f6c65733a206163636f756e7420616c72656164792068617320726f6c6500604482015290519081900360640190fd5b6001600160a01b0316600090815260209190915260409020805460ff19166001179055565b6128598282612270565b6128945760405162461bcd60e51b8152600401808060200182810382526021815260200180612d346021913960400191505060405180910390fd5b6001600160a01b0316600090815260209190915260409020805460ff19169055565b6128c1838383611f72565b6128cb8382612955565b610f7a82826125f5565b600061291783836040518060400160405280601e81526020017f536166654d6174683a207375627472616374696f6e206f766572666c6f770000815250612a4a565b9392505050565b6000813f7fc5d2460186f7233c927e7db2dcc703c0e500b653ca82273b7bfad8045d85a4708115801590611aff5750141592915050565b6001600160a01b0382166000908152609c602052604081205461297f90600163ffffffff6128d516565b6000838152609d6020526040902054909150808214612a1a576001600160a01b0384166000908152609c602052604081208054849081106129bc57fe5b9060005260206000200154905080609c6000876001600160a01b03166001600160a01b0316815260200190815260200160002083815481106129fa57fe5b6000918252602080832090910192909255918252609d9052604090208190555b6001600160a01b0384166000908152609c60205260409020805490612a43906000198301612b91565b5050505050565b60008184841115612ad95760405162461bcd60e51b81526004018080602001828103825283818151815260200191508051906020019080838360005b83811015612a9e578181015183820152602001612a86565b50505050905090810190601f168015612acb5780820380516001836020036101000a031916815260200191505b509250505060405180910390fd5b505050900390565b604051806080016040528060008152602001600081526020016000815260200160006001811115612b0e57fe5b905290565b828054600181600116156101000203166002900490600052602060002090601f016020900481019282601f10612b5457805160ff1916838001178555612b81565b82800160010185558215612b81579182015b82811115612b81578251825591602001919060010190612b66565b50612b8d929150612bb1565b5090565b815481835581811115610f7a57600083815260209020610f7a9181019083015b610c8691905b80821115612b8d5760008155600101612bb756fe455243373231456e756d657261626c653a206f776e657220696e646578206f7574206f6620626f756e64734552433732313a207472616e7366657220746f206e6f6e20455243373231526563656976657220696d706c656d656e7465724552433732313a207472616e7366657220746f20746865207a65726f20616464726573734552433732313a206f70657261746f7220717565727920666f72206e6f6e6578697374656e7420746f6b656e4552433732313a20617070726f76652063616c6c6572206973206e6f74206f776e6572206e6f7220617070726f76656420666f7220616c6c4552433732313a2062616c616e636520717565727920666f7220746865207a65726f20616464726573734552433732313a206f776e657220717565727920666f72206e6f6e6578697374656e7420746f6b656e4d696e746572526f6c653a2063616c6c657220646f6573206e6f74206861766520746865204d696e74657220726f6c65526f6c65733a206163636f756e7420646f6573206e6f74206861766520726f6c654552433732313a20617070726f76656420717565727920666f72206e6f6e6578697374656e7420746f6b656e526f6c65733a206163636f756e7420697320746865207a65726f2061646472657373436f6e747261637420696e7374616e63652068617320616c7265616479206265656e20696e697469616c697a65644552433732313a207472616e73666572206f6620746f6b656e2074686174206973206e6f74206f776e4552433732314d657461646174613a2055524920717565727920666f72206e6f6e6578697374656e7420746f6b656e4552433732313a20617070726f76616c20746f2063757272656e74206f776e65724552433732313a207472616e736665722063616c6c6572206973206e6f74206f776e6572206e6f7220617070726f766564455243373231456e756d657261626c653a20676c6f62616c20696e646578206f7574206f6620626f756e64734552433732313a207472616e736665722063616c6c6572206973206e6f74206f776e6572206e6f7220617070726f766564206e6f72207265676973747279a265627a7a72315820aa59cb2ca82d06079b205bb1a0e7c9367953c388f27b3f1f7b49bf532d5e767664736f6c634300050c0032",
  "source": "pragma solidity ^0.5.12;\n\nimport \"@openzeppelin/upgrades/contracts/Initializable.sol\";\nimport \"@openzeppelin/contracts-ethereum-package/contracts/token/ERC721/ERC721.sol\";\nimport \"@openzeppelin/contracts-ethereum-package/contracts/token/ERC721/ERC721Full.sol\";\nimport \"@openzeppelin/contracts-ethereum-package/contracts/token/ERC721/ERC721Mintable.sol\";\n\ncontract LicenceManager is Initializable, ERC721Full, ERC721Mintable {\n    enum LicenceStatus { Active, Revoked }\n    struct Licence {\n        uint256 owner_Id;\n        uint256 publication_Id;\n        uint256 publicationLicenceNo;\n        LicenceStatus status;\n    }\n\n    Licence[] public licences;\n    // user Id to their array of licences\n    mapping(uint256 => uint256[]) public licenceOwners;\n    // publication Id to array of licnces IDs\n    mapping(uint256 => uint256[]) public publicationLicences;\n\n    modifier onlyRegistry() {\n        require(msg.sender == registry, \"Can only be called by registry\");\n        _;\n    }\n\n    address registry;\n    function initialize(string memory _name, string memory _symbol, address _unicoinRegistry) public initializer {\n        ERC721.initialize();\n        ERC721Enumerable.initialize();\n        ERC721Metadata.initialize(_name, _symbol);\n        ERC721Mintable.initialize(_unicoinRegistry);\n\n        registry = _unicoinRegistry;\n    }\n\n    function registerNewLicence(\n        address _ownerAddress,\n        uint256 _owner_Id,\n        uint256 _publication_Id,\n        uint256 _publicationLicenceNo\n    ) public onlyRegistry returns (uint256) {\n        Licence memory licence = Licence(_owner_Id, _publication_Id, _publicationLicenceNo, LicenceStatus.Active);\n        uint256 licence_Id = licences.push(licence) - 1;\n\n        licenceOwners[_owner_Id].push(licence_Id);\n        publicationLicences[_publication_Id].push(licence_Id);\n\n        require(ERC721Mintable.mint(_ownerAddress, licence_Id), \"Licence minting failed\");\n        return licence_Id;\n    }\n\n    function revokeLicence(uint256 _licence_Id) public onlyRegistry {\n        licences[_licence_Id].status = LicenceStatus.Revoked;\n        licences[_licence_Id].publicationLicenceNo -= 1;\n    }\n\n    function getLicenceForUser(uint256 _user_Id) public view returns (uint256[] memory) {\n        return licenceOwners[_user_Id];\n    }\n\n    function allocateLicenceToNewOwner(\n        uint256 _licence_Id,\n        uint256 _newOwner_Id,\n        address _oldNFTOwner_address,\n        address _newNFTOwner_address\n    ) public onlyRegistry {\n        licences[_licence_Id].owner_Id = _newOwner_Id;\n        transferFrom(_oldNFTOwner_address, _newNFTOwner_address, _licence_Id);\n    }\n\n    function getLicence(uint256 _licence_Id) public view returns (uint256, uint256, uint256, uint8) {\n        Licence memory _licence = licences[_licence_Id];\n        return (_licence.owner_Id, _licence.publication_Id, _licence.publicationLicenceNo, uint8(_licence.status));\n    }\n\n    function getLicenceOwnerId(uint256 _licence_Id) public view returns (uint256) {\n        return licences[_licence_Id].owner_Id;\n    }\n\n    function getPublicationLicences(uint256 _publication_Id) public view returns (uint256[] memory) {\n        return publicationLicences[_publication_Id];\n    }\n\n    function getMostRecentPublicationLicence(uint256 _publication_Id) public view returns (uint256) {\n        uint256 numberOfLicences = getPublicationLicences(_publication_Id).length;\n        require(numberOfLicences > 0, \"no licences found\");\n        return getPublicationLicences(_publication_Id)[numberOfLicences - 1];\n    }\n\n    function transferFrom(address from, address to, uint256 tokenId) public {\n        require(\n            _isApprovedOrOwner(_msgSender(), tokenId) || _msgSender() == registry,\n            \"ERC721: transfer caller is not owner nor approved nor registry\"\n        );\n        ERC721._transferFrom(from, to, tokenId);\n    }\n}\n",
  "sourcePath": "/Users/chris/Projects/unicoin2.0/contracts/LicenceManager.sol",
  "compiler": {
    "name": "solc",
    "version": "0.5.12+commit.7709ece9.Emscripten.clang"
  },
  "schemaVersion": "3.0.16",
  "updatedAt": "2020-02-01T17:28:20.925Z",
  "devdoc": {
    "methods": {
      "approve(address,uint256)": {
        "details": "Approves another address to transfer the given token ID The zero address indicates there is no approved address. There can only be one approved address per token at a given time. Can only be called by the token owner or an approved operator.",
        "params": {
          "to": "address to be approved for the given token ID",
          "tokenId": "uint256 ID of the token to be approved"
        }
      },
      "balanceOf(address)": {
        "details": "Gets the balance of the specified address.",
        "params": {
          "owner": "address to query the balance of"
        },
        "return": "uint256 representing the amount owned by the passed address"
      },
      "getApproved(uint256)": {
        "details": "Gets the approved address for a token ID, or zero if no address set Reverts if the token ID does not exist.",
        "params": {
          "tokenId": "uint256 ID of the token to query the approval of"
        },
        "return": "address currently approved for the given token ID"
      },
      "initialize()": {
        "details": "Constructor function."
      },
      "initialize(string,string)": {
        "details": "Constructor function"
      },
      "isApprovedForAll(address,address)": {
        "details": "Tells whether an operator is approved by a given owner.",
        "params": {
          "operator": "operator address which you want to query the approval of",
          "owner": "owner address which you want to query the approval of"
        },
        "return": "bool whether the given operator is approved by the given owner"
      },
      "mint(address,uint256)": {
        "details": "Function to mint tokens.",
        "params": {
          "to": "The address that will receive the minted token.",
          "tokenId": "The token id to mint."
        },
        "return": "A boolean that indicates if the operation was successful."
      },
      "name()": {
        "details": "Gets the token name.",
        "return": "string representing the token name"
      },
      "ownerOf(uint256)": {
        "details": "Gets the owner of the specified token ID.",
        "params": {
          "tokenId": "uint256 ID of the token to query the owner of"
        },
        "return": "address currently marked as the owner of the given token ID"
      },
      "safeMint(address,uint256)": {
        "details": "Function to safely mint tokens.",
        "params": {
          "to": "The address that will receive the minted token.",
          "tokenId": "The token id to mint."
        },
        "return": "A boolean that indicates if the operation was successful."
      },
      "safeMint(address,uint256,bytes)": {
        "details": "Function to safely mint tokens.",
        "params": {
          "_data": "bytes data to send along with a safe transfer check.",
          "to": "The address that will receive the minted token.",
          "tokenId": "The token id to mint."
        },
        "return": "A boolean that indicates if the operation was successful."
      },
      "safeTransferFrom(address,address,uint256)": {
        "details": "Safely transfers the ownership of a given token ID to another address If the target address is a contract, it must implement {IERC721Receiver-onERC721Received}, which is called upon a safe transfer, and return the magic value `bytes4(keccak256(\"onERC721Received(address,address,uint256,bytes)\"))`; otherwise, the transfer is reverted. Requires the msg.sender to be the owner, approved, or operator",
        "params": {
          "from": "current owner of the token",
          "to": "address to receive the ownership of the given token ID",
          "tokenId": "uint256 ID of the token to be transferred"
        }
      },
      "safeTransferFrom(address,address,uint256,bytes)": {
        "details": "Safely transfers the ownership of a given token ID to another address If the target address is a contract, it must implement {IERC721Receiver-onERC721Received}, which is called upon a safe transfer, and return the magic value `bytes4(keccak256(\"onERC721Received(address,address,uint256,bytes)\"))`; otherwise, the transfer is reverted. Requires the _msgSender() to be the owner, approved, or operator",
        "params": {
          "_data": "bytes data to send along with a safe transfer check",
          "from": "current owner of the token",
          "to": "address to receive the ownership of the given token ID",
          "tokenId": "uint256 ID of the token to be transferred"
        }
      },
      "setApprovalForAll(address,bool)": {
        "details": "Sets or unsets the approval of a given operator An operator is allowed to transfer all tokens of the sender on their behalf.",
        "params": {
          "approved": "representing the status of the approval to be set",
          "to": "operator address to set the approval"
        }
      },
      "supportsInterface(bytes4)": {
        "details": "See {IERC165-supportsInterface}.     * Time complexity O(1), guaranteed to always use less than 30 000 gas."
      },
      "symbol()": {
        "details": "Gets the token symbol.",
        "return": "string representing the token symbol"
      },
      "tokenByIndex(uint256)": {
        "details": "Gets the token ID at a given index of all the tokens in this contract Reverts if the index is greater or equal to the total number of tokens.",
        "params": {
          "index": "uint256 representing the index to be accessed of the tokens list"
        },
        "return": "uint256 token ID at the given index of the tokens list"
      },
      "tokenOfOwnerByIndex(address,uint256)": {
        "details": "Gets the token ID at a given index of the tokens list of the requested owner.",
        "params": {
          "index": "uint256 representing the index to be accessed of the requested tokens list",
          "owner": "address owning the tokens list to be accessed"
        },
        "return": "uint256 token ID at the given index of the tokens list owned by the requested address"
      },
      "tokenURI(uint256)": {
        "details": "Returns an URI for a given token ID. Throws if the token ID does not exist. May return an empty string.",
        "params": {
          "tokenId": "uint256 ID of the token to query"
        }
      },
      "totalSupply()": {
        "details": "Gets the total amount of tokens stored by the contract.",
        "return": "uint256 representing the total amount of tokens"
      }
    }
  },
  "userdoc": {
    "methods": {}
  }
}