{
  "contractName": "PublicationManager",
  "abi": [
    {
      "constant": true,
      "inputs": [
        {
          "name": "",
          "type": "uint256"
        },
        {
          "name": "",
          "type": "uint256"
        }
      ],
      "name": "publicationOwners",
      "outputs": [
        {
          "name": "",
          "type": "uint256"
        }
      ],
      "payable": false,
      "stateMutability": "view",
      "type": "function"
    },
    {
      "constant": true,
      "inputs": [
        {
          "name": "",
          "type": "uint256"
        }
      ],
      "name": "publications",
      "outputs": [
        {
          "name": "pricingStratergy",
          "type": "uint8"
        },
        {
          "name": "publication_uri",
          "type": "string"
        },
        {
          "name": "author_id",
          "type": "uint256"
        },
        {
          "name": "sell_price",
          "type": "uint256"
        },
        {
          "name": "maxNumberOfLicences",
          "type": "uint256"
        }
      ],
      "payable": false,
      "stateMutability": "view",
      "type": "function"
    },
    {
      "anonymous": false,
      "inputs": [
        {
          "indexed": true,
          "name": "_author_id",
          "type": "uint256"
        },
        {
          "indexed": false,
          "name": "_publication_uri",
          "type": "string"
        },
        {
          "indexed": false,
          "name": "_pricingStratergy",
          "type": "uint8"
        }
      ],
      "name": "NewPublication",
      "type": "event"
    },
    {
      "constant": false,
      "inputs": [
        {
          "name": "_unicoinRegistry",
          "type": "address"
        }
      ],
      "name": "initialize",
      "outputs": [],
      "payable": false,
      "stateMutability": "nonpayable",
      "type": "function"
    },
    {
      "constant": false,
      "inputs": [
        {
          "name": "_pricing_stratergy",
          "type": "uint8"
        },
        {
          "name": "_publication_uri",
          "type": "string"
        },
        {
          "name": "_author_id",
          "type": "uint256"
        },
        {
          "name": "_fixed_sell_price",
          "type": "uint256"
        },
        {
          "name": "_maxNumberOfLicences",
          "type": "uint256"
        },
        {
          "name": "_contributors",
          "type": "uint256[]"
        },
        {
          "name": "_contributors_weightings",
          "type": "uint256[]"
        }
      ],
      "name": "_createPublication",
      "outputs": [
        {
          "name": "",
          "type": "uint256"
        }
      ],
      "payable": false,
      "stateMutability": "nonpayable",
      "type": "function"
    },
    {
      "constant": false,
      "inputs": [
        {
          "name": "_publicationId",
          "type": "uint256"
        },
        {
          "name": "_auctionId",
          "type": "uint256"
        }
      ],
      "name": "_addAuctionToPublication",
      "outputs": [],
      "payable": false,
      "stateMutability": "nonpayable",
      "type": "function"
    }
  ],
  "bytecode": "0x608060405234801561001057600080fd5b50610df8806100206000396000f3fe608060405234801561001057600080fd5b50600436106100575760003560e01c8063142af1ca1461005c5780631fd5bbab146100a8578063497e192e14610179578063c4d66de81461039b578063f8290cde146103df575b600080fd5b6100926004803603604081101561007257600080fd5b810190808035906020019092919080359060200190929190505050610417565b6040518082815260200191505060405180910390f35b6100d4600480360360208110156100be57600080fd5b8101908080359060200190929190505050610445565b604051808660028111156100e457fe5b60ff16815260200180602001858152602001848152602001838152602001828103825286818151815260200191508051906020019080838360005b8381101561013a57808201518184015260208101905061011f565b50505050905090810190601f1680156101675780820380516001836020036101000a031916815260200191505b50965050505050505060405180910390f35b610385600480360360e081101561018f57600080fd5b81019080803560ff169060200190929190803590602001906401000000008111156101b957600080fd5b8201836020820111156101cb57600080fd5b803590602001918460018302840111640100000000831117156101ed57600080fd5b91908080601f016020809104026020016040519081016040528093929190818152602001838380828437600081840152601f19601f8201169050808301925050505050505091929192908035906020019092919080359060200190929190803590602001909291908035906020019064010000000081111561026e57600080fd5b82018360208201111561028057600080fd5b803590602001918460208302840111640100000000831117156102a257600080fd5b919080806020026020016040519081016040528093929190818152602001838360200280828437600081840152601f19601f8201169050808301925050505050505091929192908035906020019064010000000081111561030257600080fd5b82018360208201111561031457600080fd5b8035906020019184602083028401116401000000008311171561033657600080fd5b919080806020026020016040519081016040528093929190818152602001838360200280828437600081840152601f19601f82011690508083019250505050505050919291929050505061052d565b6040518082815260200191505060405180910390f35b6103dd600480360360208110156103b157600080fd5b81019080803573ffffffffffffffffffffffffffffffffffffffff1690602001909291905050506109ae565b005b610415600480360360408110156103f557600080fd5b810190808035906020019092919080359060200190929190505050610aef565b005b6034602052816000526040600020818154811061043057fe5b90600052602060002001600091509150505481565b6033818154811061045257fe5b90600052602060002090600802016000915090508060000160009054906101000a900460ff1690806001018054600181600116156101000203166002900480601f0160208091040260200160405190810160405280929190818152602001828054600181600116156101000203166002900480156105115780601f106104e657610100808354040283529160200191610511565b820191906000526020600020905b8154815290600101906020018083116104f457829003601f168201915b5050505050908060020154908060030154908060040154905085565b6000603560009054906101000a900473ffffffffffffffffffffffffffffffffffffffff1673ffffffffffffffffffffffffffffffffffffffff163373ffffffffffffffffffffffffffffffffffffffff16146105f2576040517f08c379a000000000000000000000000000000000000000000000000000000000815260040180806020018281038252601e8152602001807f43616e206f6e6c792062652063616c6c6564206279207265676973747279000081525060200191505060405180910390fd5b600087511161064c576040517f08c379a0000000000000000000000000000000000000000000000000000000008152600401808060200182810382526024815260200180610d526024913960400191505060405180910390fd5b60028081111561065857fe5b8860ff16600281111561066757fe5b600281111561067257fe5b14156106f45760008510156106ef576040517f08c379a000000000000000000000000000000000000000000000000000000000815260040180806020018281038252601d8152602001807f46697865642073656c6c2070726963652063616e74206265207a65726f00000081525060200191505060405180910390fd5b61074e565b6000851461074d576040517f08c379a0000000000000000000000000000000000000000000000000000000008152600401808060200182810382526029815260200180610d766029913960400191505060405180910390fd5b5b6060610758610c0f565b6040518061010001604052808b60ff16600281111561077357fe5b600281111561077e57fe5b81526020018a8152602001898152602001888152602001878152602001838152602001868152602001858152509050600060016033839080600181540180825580915050906001820390600052602060002090600802016000909192909190915060008201518160000160006101000a81548160ff0219169083600281111561080357fe5b02179055506020820151816001019080519060200190610824929190610c5f565b5060408201518160020155606082015181600301556080820151816004015560a082015181600501908051906020019061085f929190610cdf565b5060c082015181600601908051906020019061087c929190610cdf565b5060e0820151816007019080519060200190610899929190610cdf565b505050039050603460008a8152602001908152602001600020819080600181540180825580915050906001820390600052602060002001600090919290919091505550887f9b048cc70b58a333b5184ed639eb85d73e3d6509476cc6bc369273e996e97a8c8b8d60ff16600281111561090e57fe5b604051808060200183600281111561092257fe5b60ff168152602001828103825284818151815260200191508051906020019080838360005b83811015610962578082015181840152602081019050610947565b50505050905090810190601f16801561098f5780820380516001836020036101000a031916815260200191505b50935050505060405180910390a2809350505050979650505050505050565b600060019054906101000a900460ff16806109cd57506109cc610bfe565b5b806109e457506000809054906101000a900460ff16155b610a39576040517f08c379a000000000000000000000000000000000000000000000000000000000815260040180806020018281038252602e815260200180610d9f602e913960400191505060405180910390fd5b60008060019054906101000a900460ff161590508015610a89576001600060016101000a81548160ff02191690831515021790555060016000806101000a81548160ff0219169083151502179055505b81603560006101000a81548173ffffffffffffffffffffffffffffffffffffffff021916908373ffffffffffffffffffffffffffffffffffffffff1602179055508015610aeb5760008060016101000a81548160ff0219169083151502179055505b5050565b603560009054906101000a900473ffffffffffffffffffffffffffffffffffffffff1673ffffffffffffffffffffffffffffffffffffffff163373ffffffffffffffffffffffffffffffffffffffff1614610bb2576040517f08c379a000000000000000000000000000000000000000000000000000000000815260040180806020018281038252601e8152602001807f43616e206f6e6c792062652063616c6c6564206279207265676973747279000081525060200191505060405180910390fd5b60338281548110610bbf57fe5b90600052602060002090600802016005018190806001815401808255809150509060018203906000526020600020016000909192909190915055505050565b600080303b90506000811491505090565b60405180610100016040528060006002811115610c2857fe5b8152602001606081526020016000815260200160008152602001600081526020016060815260200160608152602001606081525090565b828054600181600116156101000203166002900490600052602060002090601f016020900481019282601f10610ca057805160ff1916838001178555610cce565b82800160010185558215610cce579182015b82811115610ccd578251825591602001919060010190610cb2565b5b509050610cdb9190610d2c565b5090565b828054828255906000526020600020908101928215610d1b579160200282015b82811115610d1a578251825591602001919060010190610cff565b5b509050610d289190610d2c565b5090565b610d4e91905b80821115610d4a576000816000905550600101610d32565b5090565b9056fe5075626c69636174696f6e205552492073686f756c64206e6f7420626520656d7074792e46697865642073656c6c207072696365206d757374206265207a65726f20666f722061756374696f6e436f6e747261637420696e7374616e63652068617320616c7265616479206265656e20696e697469616c697a6564a165627a7a723058202bb8913bd7ba8d7ce3d8a64003e00e5bc853b7c217c9f362536ddf541abd16360029",
  "source": "pragma solidity ^0.5.0;\n\nimport \"@openzeppelin/upgrades/contracts/Initializable.sol\";\n\ncontract PublicationManager is Initializable {\n    enum PricingStratergy {controlledAuction, privateAuction, fixedRate}\n\n    struct Publication {\n        PricingStratergy pricingStratergy;\n        string publication_uri; //IPFS blob address of the publication\n        uint256 author_id; //id of the auther\n        uint256 sell_price;\n        uint256 maxNumberOfLicences;\n        uint256[] auction_ids; //ids of bids on the publication\n        uint256[] contributors;\n        uint256[] contributors_weightings;\n    }\n    /// @notice Creates an array of publications for every published document\n    Publication[] public publications;\n\n    /// @notice The mapping below will map the addresses of all the successful bidders' addresses to the ID of their owned publications\n    mapping(uint256 => uint256[]) public publicationOwners;\n\n    address registry;\n\n    modifier onlyRegistry() {\n        require(msg.sender == registry, \"Can only be called by registry\");\n        _;\n    }\n\n    event NewPublication(\n        uint256 indexed _author_id,\n        string _publication_uri,\n        PricingStratergy _pricingStratergy\n    );\n\n    function initialize(address _unicoinRegistry) public initializer {\n        registry = _unicoinRegistry;\n    }\n\n    function _createPublication(\n        uint8 _pricing_stratergy,\n        string memory _publication_uri,\n        uint256 _author_id,\n        uint256 _fixed_sell_price,\n        uint256 _maxNumberOfLicences,\n        uint256[] memory _contributors,\n        uint256[] memory _contributors_weightings\n    ) public onlyRegistry returns (uint256) {\n        require(\n            bytes(_publication_uri).length > 0,\n            \"Publication URI should not be empty.\"\n        );\n\n        if(PricingStratergy(_pricing_stratergy) == PricingStratergy.fixedRate){\n            require(_fixed_sell_price >= 0, \"Fixed sell price cant be zero\");\n        }\n        else {\n            require(_fixed_sell_price == 0, \"Fixed sell price must be zero for auction\");\n        }\n        \n        uint256[] memory auction_ids;\n        Publication memory publication = Publication(\n            PricingStratergy(_pricing_stratergy),\n            _publication_uri,\n            _author_id,\n            _fixed_sell_price,\n            _maxNumberOfLicences,\n            auction_ids,\n            _contributors,\n            _contributors_weightings\n        );\n        uint256 publicationId = publications.push(publication) - 1;\n        publicationOwners[_author_id].push(publicationId);\n\n        emit NewPublication(\n            _author_id,\n            _publication_uri,\n            PricingStratergy(_pricing_stratergy)\n        );\n\n        return (publicationId);\n    }\n\n    function _addAuctionToPublication(uint256 _publicationId, uint256 _auctionId) public onlyRegistry{\n        publications[_publicationId].auction_ids.push(_auctionId);\n    }\n}\n",
  "sourcePath": "/Users/chris/Projects/unicoindapp/contracts/PublicationManager.sol",
  "compiler": {
    "name": "solc",
    "version": "0.5.8+commit.23d335f2.Emscripten.clang"
  },
  "schemaVersion": "3.0.16",
  "updatedAt": "2019-11-21T16:45:30.610Z",
  "devdoc": {
    "methods": {}
  },
  "userdoc": {
    "methods": {}
  }
}