{
  "contractName": "PublicationManager",
  "abi": [
    {
      "anonymous": false,
      "inputs": [
        {
          "indexed": true,
          "internalType": "uint256",
          "name": "_author_Id",
          "type": "uint256"
        },
        {
          "indexed": false,
          "internalType": "string",
          "name": "_publication_uri",
          "type": "string"
        },
        {
          "indexed": false,
          "internalType": "enum PublicationManager.PricingStrategy",
          "name": "_pricingStrategy",
          "type": "uint8"
        }
      ],
      "name": "NewPublication",
      "type": "event"
    },
    {
      "constant": true,
      "inputs": [
        {
          "internalType": "uint256",
          "name": "",
          "type": "uint256"
        },
        {
          "internalType": "uint256",
          "name": "",
          "type": "uint256"
        }
      ],
      "name": "publicationOwners",
      "outputs": [
        {
          "internalType": "uint256",
          "name": "",
          "type": "uint256"
        }
      ],
      "payable": false,
      "stateMutability": "view",
      "type": "function"
    },
    {
      "constant": true,
      "inputs": [
        {
          "internalType": "uint256",
          "name": "",
          "type": "uint256"
        }
      ],
      "name": "publications",
      "outputs": [
        {
          "internalType": "enum PublicationManager.PricingStrategy",
          "name": "pricingStrategy",
          "type": "uint8"
        },
        {
          "internalType": "string",
          "name": "publication_uri",
          "type": "string"
        },
        {
          "internalType": "uint256",
          "name": "author_id",
          "type": "uint256"
        },
        {
          "internalType": "uint256",
          "name": "sell_price",
          "type": "uint256"
        },
        {
          "internalType": "uint256",
          "name": "maxNumberOfLicences",
          "type": "uint256"
        },
        {
          "internalType": "uint256",
          "name": "licencesIssued",
          "type": "uint256"
        }
      ],
      "payable": false,
      "stateMutability": "view",
      "type": "function"
    },
    {
      "constant": false,
      "inputs": [
        {
          "internalType": "address",
          "name": "_unicoinRegistry",
          "type": "address"
        }
      ],
      "name": "initialize",
      "outputs": [],
      "payable": false,
      "stateMutability": "nonpayable",
      "type": "function"
    },
    {
      "constant": false,
      "inputs": [
        {
          "internalType": "uint8",
          "name": "_pricing_stratergy",
          "type": "uint8"
        },
        {
          "internalType": "string",
          "name": "_publication_uri",
          "type": "string"
        },
        {
          "internalType": "uint256",
          "name": "_author_Id",
          "type": "uint256"
        },
        {
          "internalType": "uint256",
          "name": "_fixed_sell_price",
          "type": "uint256"
        },
        {
          "internalType": "uint256",
          "name": "_maxNumberOfLicences",
          "type": "uint256"
        },
        {
          "internalType": "uint256[]",
          "name": "_contributors",
          "type": "uint256[]"
        },
        {
          "internalType": "uint256[]",
          "name": "_contributors_weightings",
          "type": "uint256[]"
        }
      ],
      "name": "_createPublication",
      "outputs": [
        {
          "internalType": "uint256",
          "name": "",
          "type": "uint256"
        }
      ],
      "payable": false,
      "stateMutability": "nonpayable",
      "type": "function"
    },
    {
      "constant": false,
      "inputs": [
        {
          "internalType": "uint256",
          "name": "_publicationId",
          "type": "uint256"
        },
        {
          "internalType": "uint256",
          "name": "_auctionId",
          "type": "uint256"
        }
      ],
      "name": "_addAuctionToPublication",
      "outputs": [],
      "payable": false,
      "stateMutability": "nonpayable",
      "type": "function"
    },
    {
      "constant": false,
      "inputs": [
        {
          "internalType": "uint256",
          "name": "_publication_Id",
          "type": "uint256"
        }
      ],
      "name": "addNewLicenceToPublication",
      "outputs": [
        {
          "internalType": "uint256",
          "name": "",
          "type": "uint256"
        }
      ],
      "payable": false,
      "stateMutability": "nonpayable",
      "type": "function"
    },
    {
      "constant": true,
      "inputs": [
        {
          "internalType": "uint256",
          "name": "_publication_Id",
          "type": "uint256"
        }
      ],
      "name": "getAuthorId",
      "outputs": [
        {
          "internalType": "uint256",
          "name": "",
          "type": "uint256"
        }
      ],
      "payable": false,
      "stateMutability": "view",
      "type": "function"
    },
    {
      "constant": true,
      "inputs": [
        {
          "internalType": "uint256",
          "name": "_publication_Id",
          "type": "uint256"
        }
      ],
      "name": "_getContributers",
      "outputs": [
        {
          "internalType": "uint256[]",
          "name": "",
          "type": "uint256[]"
        },
        {
          "internalType": "uint256[]",
          "name": "",
          "type": "uint256[]"
        }
      ],
      "payable": false,
      "stateMutability": "view",
      "type": "function"
    },
    {
      "constant": true,
      "inputs": [
        {
          "internalType": "uint256",
          "name": "_publication_Id",
          "type": "uint256"
        }
      ],
      "name": "getLatestAuctionId",
      "outputs": [
        {
          "internalType": "uint256",
          "name": "",
          "type": "uint256"
        }
      ],
      "payable": false,
      "stateMutability": "view",
      "type": "function"
    },
    {
      "constant": true,
      "inputs": [
        {
          "internalType": "uint256",
          "name": "_publication_Id",
          "type": "uint256"
        }
      ],
      "name": "getPublication",
      "outputs": [
        {
          "internalType": "uint8",
          "name": "",
          "type": "uint8"
        },
        {
          "internalType": "string",
          "name": "",
          "type": "string"
        },
        {
          "internalType": "uint256",
          "name": "",
          "type": "uint256"
        },
        {
          "internalType": "uint256",
          "name": "",
          "type": "uint256"
        },
        {
          "internalType": "uint256",
          "name": "",
          "type": "uint256"
        },
        {
          "internalType": "uint256",
          "name": "",
          "type": "uint256"
        },
        {
          "internalType": "uint256[]",
          "name": "",
          "type": "uint256[]"
        },
        {
          "internalType": "uint256[]",
          "name": "",
          "type": "uint256[]"
        },
        {
          "internalType": "uint256[]",
          "name": "",
          "type": "uint256[]"
        }
      ],
      "payable": false,
      "stateMutability": "view",
      "type": "function"
    },
    {
      "constant": true,
      "inputs": [],
      "name": "getPublicationLength",
      "outputs": [
        {
          "internalType": "uint256",
          "name": "",
          "type": "uint256"
        }
      ],
      "payable": false,
      "stateMutability": "view",
      "type": "function"
    },
    {
      "constant": true,
      "inputs": [
        {
          "internalType": "uint256",
          "name": "_publication_Id",
          "type": "uint256"
        }
      ],
      "name": "getPublicationAuctions",
      "outputs": [
        {
          "internalType": "uint256[]",
          "name": "",
          "type": "uint256[]"
        }
      ],
      "payable": false,
      "stateMutability": "view",
      "type": "function"
    },
    {
      "constant": true,
      "inputs": [
        {
          "internalType": "uint256",
          "name": "_author_Id",
          "type": "uint256"
        }
      ],
      "name": "getAuthorPublications",
      "outputs": [
        {
          "internalType": "uint256[]",
          "name": "",
          "type": "uint256[]"
        }
      ],
      "payable": false,
      "stateMutability": "view",
      "type": "function"
    },
    {
      "constant": false,
      "inputs": [
        {
          "internalType": "uint256",
          "name": "_publication_Id",
          "type": "uint256"
        },
        {
          "internalType": "uint256",
          "name": "_donationAmount",
          "type": "uint256"
        }
      ],
      "name": "recordDonation",
      "outputs": [],
      "payable": false,
      "stateMutability": "nonpayable",
      "type": "function"
    }
  ],
  "bytecode": "0x608060405234801561001057600080fd5b50611ba0806100206000396000f3fe608060405234801561001057600080fd5b50600436106100ea5760003560e01c80637ece03bb1161008c578063bfaca0c611610066578063bfaca0c61461080f578063c4d66de814610847578063f8290cde1461088b578063f88e44a3146108c3576100ea565b80637ece03bb1461057e5780639d273ddc1461059c578063a564e83c14610667576100ea565b8063207f2937116100c8578063207f293714610255578063497e192e146102d85780636c6167c6146104fa578063755f538c1461053c576100ea565b806310a6d0d5146100ef578063142af1ca146101315780631fd5bbab1461017d575b600080fd5b61011b6004803603602081101561010557600080fd5b8101908080359060200190929190505050610946565b6040518082815260200191505060405180910390f35b6101676004803603604081101561014757600080fd5b81019080803590602001909291908035906020019092919050505061096e565b6040518082815260200191505060405180910390f35b6101a96004803603602081101561019357600080fd5b810190808035906020019092919050505061099c565b604051808760018111156101b957fe5b60ff16815260200180602001868152602001858152602001848152602001838152602001828103825287818151815260200191508051906020019080838360005b838110156102155780820151818401526020810190506101fa565b50505050905090810190601f1680156102425780820380516001836020036101000a031916815260200191505b5097505050505050505060405180910390f35b6102816004803603602081101561026b57600080fd5b8101908080359060200190929190505050610a8a565b6040518080602001828103825283818151815260200191508051906020019060200280838360005b838110156102c45780820151818401526020810190506102a9565b505050509050019250505060405180910390f35b6104e4600480360360e08110156102ee57600080fd5b81019080803560ff1690602001909291908035906020019064010000000081111561031857600080fd5b82018360208201111561032a57600080fd5b8035906020019184600183028401116401000000008311171561034c57600080fd5b91908080601f016020809104026020016040519081016040528093929190818152602001838380828437600081840152601f19601f820116905080830192505050505050509192919290803590602001909291908035906020019092919080359060200190929190803590602001906401000000008111156103cd57600080fd5b8201836020820111156103df57600080fd5b8035906020019184602083028401116401000000008311171561040157600080fd5b919080806020026020016040519081016040528093929190818152602001838360200280828437600081840152601f19601f8201169050808301925050505050505091929192908035906020019064010000000081111561046157600080fd5b82018360208201111561047357600080fd5b8035906020019184602083028401116401000000008311171561049557600080fd5b919080806020026020016040519081016040528093929190818152602001838360200280828437600081840152601f19601f820116905080830192505050505050509192919290505050610b00565b6040518082815260200191505060405180910390f35b6105266004803603602081101561051057600080fd5b8101908080359060200190929190505050610fb9565b6040518082815260200191505060405180910390f35b6105686004803603602081101561055257600080fd5b810190808035906020019092919050505061101a565b6040518082815260200191505060405180910390f35b6105866111a8565b6040518082815260200191505060405180910390f35b6105c8600480360360208110156105b257600080fd5b81019080803590602001909291905050506111b5565b604051808060200180602001838103835285818151815260200191508051906020019060200280838360005b8381101561060f5780820151818401526020810190506105f4565b50505050905001838103825284818151815260200191508051906020019060200280838360005b83811015610651578082015181840152602081019050610636565b5050505090500194505050505060405180910390f35b6106936004803603602081101561067d57600080fd5b81019080803590602001909291905050506112a1565b604051808a60ff1660ff1681526020018060200189815260200188815260200187815260200186815260200180602001806020018060200185810385528d818151815260200191508051906020019080838360005b838110156107035780820151818401526020810190506106e8565b50505050905090810190601f1680156107305780820380516001836020036101000a031916815260200191505b50858103845288818151815260200191508051906020019060200280838360005b8381101561076c578082015181840152602081019050610751565b50505050905001858103835287818151815260200191508051906020019060200280838360005b838110156107ae578082015181840152602081019050610793565b50505050905001858103825286818151815260200191508051906020019060200280838360005b838110156107f05780820151818401526020810190506107d5565b505050509050019d505050505050505050505050505060405180910390f35b6108456004803603604081101561082557600080fd5b81019080803590602001909291908035906020019092919050505061159d565b005b6108896004803603602081101561085d57600080fd5b81019080803573ffffffffffffffffffffffffffffffffffffffff1690602001909291905050506116ac565b005b6108c1600480360360408110156108a157600080fd5b8101908080359060200190929190803590602001909291905050506117ed565b005b6108ef600480360360208110156108d957600080fd5b81019080803590602001909291905050506118fc565b6040518080602001828103825283818151815260200191508051906020019060200280838360005b83811015610932578082015181840152602081019050610917565b505050509050019250505060405180910390f35b60006033828154811061095557fe5b90600052602060002090600a0201600201549050919050565b6034602052816000526040600020818154811061098757fe5b90600052602060002001600091509150505481565b603381815481106109a957fe5b90600052602060002090600a02016000915090508060000160009054906101000a900460ff1690806001018054600181600116156101000203166002900480601f016020809104026020016040519081016040528092919081815260200182805460018160011615610100020316600290048015610a685780601f10610a3d57610100808354040283529160200191610a68565b820191906000526020600020905b815481529060010190602001808311610a4b57829003601f168201915b5050505050908060020154908060030154908060040154908060050154905086565b606060338281548110610a9957fe5b90600052602060002090600a0201600601805480602002602001604051908101604052809291908181526020018280548015610af457602002820191906000526020600020905b815481526020019060010190808311610ae0575b50505050509050919050565b6000603560009054906101000a900473ffffffffffffffffffffffffffffffffffffffff1673ffffffffffffffffffffffffffffffffffffffff163373ffffffffffffffffffffffffffffffffffffffff1614610bc5576040517f08c379a000000000000000000000000000000000000000000000000000000000815260040180806020018281038252601e8152602001807f43616e206f6e6c792062652063616c6c6564206279207265676973747279000081525060200191505060405180910390fd5b6000875111610c1f576040517f08c379a0000000000000000000000000000000000000000000000000000000008152600401808060200182810382526024815260200180611ac96024913960400191505060405180910390fd5b600180811115610c2b57fe5b8860ff166001811115610c3a57fe5b6001811115610c4557fe5b1415610cc7576000851015610cc2576040517f08c379a000000000000000000000000000000000000000000000000000000000815260040180806020018281038252601d8152602001807f46697865642073656c6c2070726963652063616e74206265207a65726f00000081525060200191505060405180910390fd5b610d21565b60008514610d20576040517f08c379a0000000000000000000000000000000000000000000000000000000008152600401808060200182810382526029815260200180611aed6029913960400191505060405180910390fd5b5b606080610d2c611978565b6040518061014001604052808c60ff166001811115610d4757fe5b6001811115610d5257fe5b81526020018b81526020018a815260200189815260200188815260200160008152602001848152602001878152602001868152602001838152509050600060016033839080600181540180825580915050906001820390600052602060002090600a02016000909192909190915060008201518160000160006101000a81548160ff02191690836001811115610de457fe5b02179055506020820151816001019080519060200190610e059291906119d6565b5060408201518160020155606082015181600301556080820151816004015560a0820151816005015560c0820151816006019080519060200190610e4a929190611a56565b5060e0820151816007019080519060200190610e67929190611a56565b50610100820151816008019080519060200190610e85929190611a56565b50610120820151816009019080519060200190610ea3929190611a56565b505050039050603460008b8152602001908152602001600020819080600181540180825580915050906001820390600052602060002001600090919290919091505550897f9b048cc70b58a333b5184ed639eb85d73e3d6509476cc6bc369273e996e97a8c8c8e60ff166001811115610f1857fe5b6040518080602001836001811115610f2c57fe5b60ff168152602001828103825284818151815260200191508051906020019080838360005b83811015610f6c578082015181840152602081019050610f51565b50505050905090810190601f168015610f995780820380516001836020036101000a031916815260200191505b50935050505060405180910390a280945050505050979650505050505050565b600060338281548110610fc857fe5b90600052602060002090600a0201600601600160338481548110610fe857fe5b90600052602060002090600a020160060180549050038154811061100857fe5b90600052602060002001549050919050565b6000603560009054906101000a900473ffffffffffffffffffffffffffffffffffffffff1673ffffffffffffffffffffffffffffffffffffffff163373ffffffffffffffffffffffffffffffffffffffff16146110df576040517f08c379a000000000000000000000000000000000000000000000000000000000815260040180806020018281038252601e8152602001807f43616e206f6e6c792062652063616c6c6564206279207265676973747279000081525060200191505060405180910390fd5b60006001603384815481106110f057fe5b90600052602060002090600a0201600501540190506033838154811061111257fe5b90600052602060002090600a02016004015481111561117c576040517f08c379a0000000000000000000000000000000000000000000000000000000008152600401808060200182810382526028815260200180611b446028913960400191505060405180910390fd5b806033848154811061118a57fe5b90600052602060002090600a02016005018190555080915050919050565b6000603380549050905090565b606080603383815481106111c557fe5b90600052602060002090600a0201600701603384815481106111e357fe5b90600052602060002090600a02016008018180548060200260200160405190810160405280929190818152602001828054801561123f57602002820191906000526020600020905b81548152602001906001019080831161122b575b505050505091508080548060200260200160405190810160405280929190818152602001828054801561129157602002820191906000526020600020905b81548152602001906001019080831161127d575b5050505050905091509150915091565b6000606060008060008060608060606112b8611978565b60338b815481106112c557fe5b90600052602060002090600a0201604051806101400160405290816000820160009054906101000a900460ff1660018111156112fd57fe5b600181111561130857fe5b8152602001600182018054600181600116156101000203166002900480601f0160208091040260200160405190810160405280929190818152602001828054600181600116156101000203166002900480156113a55780601f1061137a576101008083540402835291602001916113a5565b820191906000526020600020905b81548152906001019060200180831161138857829003601f168201915b50505050508152602001600282015481526020016003820154815260200160048201548152602001600582015481526020016006820180548060200260200160405190810160405280929190818152602001828054801561142557602002820191906000526020600020905b815481526020019060010190808311611411575b505050505081526020016007820180548060200260200160405190810160405280929190818152602001828054801561147d57602002820191906000526020600020905b815481526020019060010190808311611469575b50505050508152602001600882018054806020026020016040519081016040528092919081815260200182805480156114d557602002820191906000526020600020905b8154815260200190600101908083116114c1575b505050505081526020016009820180548060200260200160405190810160405280929190818152602001828054801561152d57602002820191906000526020600020905b815481526020019060010190808311611519575b50505050508152505090508060000151600181111561154857fe5b81602001518260400151836060015184608001518560a001518660c001518760e00151886101000151879750829250819150809050995099509950995099509950995099509950509193959799909294969850565b603560009054906101000a900473ffffffffffffffffffffffffffffffffffffffff1673ffffffffffffffffffffffffffffffffffffffff163373ffffffffffffffffffffffffffffffffffffffff1614611660576040517f08c379a000000000000000000000000000000000000000000000000000000000815260040180806020018281038252601e8152602001807f43616e206f6e6c792062652063616c6c6564206279207265676973747279000081525060200191505060405180910390fd5b6033828154811061166d57fe5b90600052602060002090600a02016009018190806001815401808255809150509060018203906000526020600020016000909192909190915055505050565b600060019054906101000a900460ff16806116cb57506116ca611967565b5b806116e257506000809054906101000a900460ff16155b611737576040517f08c379a000000000000000000000000000000000000000000000000000000000815260040180806020018281038252602e815260200180611b16602e913960400191505060405180910390fd5b60008060019054906101000a900460ff161590508015611787576001600060016101000a81548160ff02191690831515021790555060016000806101000a81548160ff0219169083151502179055505b81603560006101000a81548173ffffffffffffffffffffffffffffffffffffffff021916908373ffffffffffffffffffffffffffffffffffffffff16021790555080156117e95760008060016101000a81548160ff0219169083151502179055505b5050565b603560009054906101000a900473ffffffffffffffffffffffffffffffffffffffff1673ffffffffffffffffffffffffffffffffffffffff163373ffffffffffffffffffffffffffffffffffffffff16146118b0576040517f08c379a000000000000000000000000000000000000000000000000000000000815260040180806020018281038252601e8152602001807f43616e206f6e6c792062652063616c6c6564206279207265676973747279000081525060200191505060405180910390fd5b603382815481106118bd57fe5b90600052602060002090600a02016006018190806001815401808255809150509060018203906000526020600020016000909192909190915055505050565b60606034600083815260200190815260200160002080548060200260200160405190810160405280929190818152602001828054801561195b57602002820191906000526020600020905b815481526020019060010190808311611947575b50505050509050919050565b600080303b90506000811491505090565b6040518061014001604052806000600181111561199157fe5b81526020016060815260200160008152602001600081526020016000815260200160008152602001606081526020016060815260200160608152602001606081525090565b828054600181600116156101000203166002900490600052602060002090601f016020900481019282601f10611a1757805160ff1916838001178555611a45565b82800160010185558215611a45579182015b82811115611a44578251825591602001919060010190611a29565b5b509050611a529190611aa3565b5090565b828054828255906000526020600020908101928215611a92579160200282015b82811115611a91578251825591602001919060010190611a76565b5b509050611a9f9190611aa3565b5090565b611ac591905b80821115611ac1576000816000905550600101611aa9565b5090565b9056fe5075626c69636174696f6e205552492073686f756c64206e6f7420626520656d7074792e46697865642073656c6c207072696365206d757374206265207a65726f20666f722061756374696f6e436f6e747261637420696e7374616e63652068617320616c7265616479206265656e20696e697469616c697a65644d6178206e756d626572206f66206c6963656e6365732068617665206265656e206973737565642ea265627a7a723158204b51ca840a6b7932539256ed067f71dccc6954b154b00b064c0e420c0da3b3d064736f6c634300050c0032",
  "source": "pragma solidity ^0.5.12;\n\nimport \"@openzeppelin/upgrades/contracts/Initializable.sol\";\n\ncontract PublicationManager is Initializable {\n    enum PricingStrategy {PrivateAuction, FixedRate}\n\n    struct Publication {\n        PricingStrategy pricingStrategy;\n        string publication_uri; //IPFS blob address of the publication\n        uint256 author_id; //id of the auther\n        uint256 sell_price;\n        uint256 maxNumberOfLicences;\n        uint256 licencesIssued;\n        uint256[] auction_ids; //ids of bids on the publication\n        uint256[] contributors;\n        uint256[] contributors_weightings; //scaled by 1e2 to repres entat\n        uint256[] donations;\n    }\n\n    Publication[] public publications;\n\n    mapping(uint256 => uint256[]) public publicationOwners;\n\n    address registry;\n\n    modifier onlyRegistry() {\n        require(msg.sender == registry, \"Can only be called by registry\");\n        _;\n    }\n\n    event NewPublication(\n        uint256 indexed _author_Id,\n        string _publication_uri,\n        PricingStrategy _pricingStrategy\n    );\n\n    function initialize(address _unicoinRegistry) public initializer {\n        registry = _unicoinRegistry;\n    }\n\n    function _createPublication(\n        uint8 _pricing_stratergy,\n        string memory _publication_uri,\n        uint256 _author_Id,\n        uint256 _fixed_sell_price,\n        uint256 _maxNumberOfLicences,\n        uint256[] memory _contributors,\n        uint256[] memory _contributors_weightings\n    ) public onlyRegistry returns (uint256) {\n        require(\n            bytes(_publication_uri).length > 0,\n            \"Publication URI should not be empty.\"\n        );\n\n        if (PricingStrategy(_pricing_stratergy) == PricingStrategy.FixedRate) {\n            require(_fixed_sell_price >= 0, \"Fixed sell price cant be zero\");\n        } else {\n            require(\n                _fixed_sell_price == 0,\n                \"Fixed sell price must be zero for auction\"\n            );\n        }\n\n        uint256[] memory auction_ids;\n        uint256[] memory donations;\n        Publication memory publication = Publication(\n            PricingStrategy(_pricing_stratergy),\n            _publication_uri,\n            _author_Id,\n            _fixed_sell_price,\n            _maxNumberOfLicences,\n            0, //start with no licences issued\n            auction_ids,\n            _contributors,\n            _contributors_weightings,\n            donations\n        );\n        uint256 publicationId = publications.push(publication) - 1;\n        publicationOwners[_author_Id].push(publicationId);\n\n        emit NewPublication(\n            _author_Id,\n            _publication_uri,\n            PricingStrategy(_pricing_stratergy)\n        );\n\n        return (publicationId);\n    }\n\n    function _addAuctionToPublication(\n        uint256 _publicationId,\n        uint256 _auctionId\n    ) public onlyRegistry {\n        publications[_publicationId].auction_ids.push(_auctionId);\n    }\n\n    function addNewLicenceToPublication(uint256 _publication_Id)\n        public\n        onlyRegistry\n        returns (uint256)\n    {\n        uint256 licenceNo = publications[_publication_Id].licencesIssued + 1;\n        require(\n            licenceNo <= publications[_publication_Id].maxNumberOfLicences,\n            \"Max number of licences have been issued.\"\n        );\n        publications[_publication_Id].licencesIssued = licenceNo;\n        return licenceNo;\n    }\n\n    function getAuthorId(uint256 _publication_Id)\n        public\n        view\n        returns (uint256)\n    {\n        return publications[_publication_Id].author_id;\n    }\n\n    function _getContributers(uint256 _publication_Id)\n        public\n        view\n        returns (uint256[] memory, uint256[] memory)\n    {\n        return (\n            publications[_publication_Id].contributors,\n            publications[_publication_Id].contributors_weightings\n        );\n    }\n\n    function getLatestAuctionId(uint256 _publication_Id)\n        public\n        view\n        returns (uint256)\n    {\n        return\n            publications[_publication_Id]\n                .auction_ids[publications[_publication_Id].auction_ids.length -\n                1];\n    }\n\n    function getPublication(uint256 _publication_Id)\n        public\n        view\n        returns (\n            uint8,\n            string memory,\n            uint256,\n            uint256,\n            uint256,\n            uint256,\n            uint256[] memory,\n            uint256[] memory,\n            uint256[] memory\n        )\n    {\n        Publication memory _publication = publications[_publication_Id];\n        return (\n            uint8(_publication.pricingStrategy),\n            _publication.publication_uri,\n            _publication.author_id,\n            _publication.sell_price,\n            _publication.maxNumberOfLicences,\n            _publication.licencesIssued,\n            _publication.auction_ids,\n            _publication.contributors,\n            _publication.contributors_weightings\n        );\n    }\n\n    function getPublicationLength() public view returns (uint256) {\n        return publications.length;\n    }\n\n    function getPublicationAuctions(uint256 _publication_Id)\n        public\n        view\n        returns (uint256[] memory)\n    {\n        return publications[_publication_Id].auction_ids;\n    }\n\n    function getAuthorPublications(uint256 _author_Id)\n        public\n        view\n        returns (uint256[] memory)\n    {\n        return publicationOwners[_author_Id];\n    }\n\n    function recordDonation(uint256 _publication_Id, uint256 _donationAmount)\n        public\n        onlyRegistry\n    {\n        publications[_publication_Id].donations.push(_donationAmount);\n    }\n}\n",
  "sourcePath": "/Users/chris/Projects/unicoindapp/contracts/PublicationManager.sol",
  "compiler": {
    "name": "solc",
    "version": "0.5.12+commit.7709ece9.Emscripten.clang"
  },
  "schemaVersion": "3.0.16",
  "updatedAt": "2019-11-27T14:14:19.104Z",
  "devdoc": {
    "methods": {}
  },
  "userdoc": {
    "methods": {}
  }
}