{
  "contractName": "PublicationManager",
  "abi": [
    {
      "anonymous": false,
      "inputs": [
        {
          "indexed": true,
          "internalType": "uint256",
          "name": "_authorId",
          "type": "uint256"
        },
        {
          "indexed": false,
          "internalType": "string",
          "name": "_publicationUri",
          "type": "string"
        },
        {
          "indexed": false,
          "internalType": "enum IPublicationManager.PricingStrategy",
          "name": "_pricingStrategy",
          "type": "uint8"
        }
      ],
      "name": "NewPublication",
      "type": "event"
    },
    {
      "anonymous": false,
      "inputs": [
        {
          "indexed": true,
          "internalType": "uint256",
          "name": "_authorId",
          "type": "uint256"
        },
        {
          "indexed": false,
          "internalType": "string",
          "name": "_oldUri",
          "type": "string"
        },
        {
          "indexed": false,
          "internalType": "string",
          "name": "_newUri",
          "type": "string"
        }
      ],
      "name": "PublicationUpdated",
      "type": "event"
    },
    {
      "inputs": [
        {
          "internalType": "address",
          "name": "forwarder",
          "type": "address"
        }
      ],
      "name": "isTrustedForwarder",
      "outputs": [
        {
          "internalType": "bool",
          "name": "",
          "type": "bool"
        }
      ],
      "stateMutability": "view",
      "type": "function"
    },
    {
      "inputs": [
        {
          "internalType": "uint256",
          "name": "",
          "type": "uint256"
        },
        {
          "internalType": "uint256",
          "name": "",
          "type": "uint256"
        }
      ],
      "name": "publicationOwners",
      "outputs": [
        {
          "internalType": "uint256",
          "name": "",
          "type": "uint256"
        }
      ],
      "stateMutability": "view",
      "type": "function"
    },
    {
      "inputs": [
        {
          "internalType": "uint256",
          "name": "",
          "type": "uint256"
        }
      ],
      "name": "publications",
      "outputs": [
        {
          "internalType": "enum IPublicationManager.PricingStrategy",
          "name": "pricingStrategy",
          "type": "uint8"
        },
        {
          "internalType": "string",
          "name": "publicationUri",
          "type": "string"
        },
        {
          "internalType": "uint256",
          "name": "authorId",
          "type": "uint256"
        },
        {
          "internalType": "uint256",
          "name": "sellPrice",
          "type": "uint256"
        },
        {
          "internalType": "uint256",
          "name": "maxNumberOfLicences",
          "type": "uint256"
        },
        {
          "internalType": "uint256",
          "name": "licencesIssued",
          "type": "uint256"
        },
        {
          "internalType": "uint256",
          "name": "nextVersion",
          "type": "uint256"
        },
        {
          "internalType": "uint256",
          "name": "previousVersion",
          "type": "uint256"
        }
      ],
      "stateMutability": "view",
      "type": "function"
    },
    {
      "inputs": [
        {
          "internalType": "address",
          "name": "_unicoinRegistry",
          "type": "address"
        },
        {
          "internalType": "address",
          "name": "_trustedForwarder",
          "type": "address"
        }
      ],
      "name": "initialize",
      "outputs": [],
      "stateMutability": "nonpayable",
      "type": "function"
    },
    {
      "inputs": [
        {
          "internalType": "enum IPublicationManager.PricingStrategy",
          "name": "_pricingStrategy",
          "type": "uint8"
        },
        {
          "internalType": "string",
          "name": "_publicationUri",
          "type": "string"
        },
        {
          "internalType": "uint256",
          "name": "_authorId",
          "type": "uint256"
        },
        {
          "internalType": "uint256",
          "name": "_fixedSellPrice",
          "type": "uint256"
        },
        {
          "internalType": "uint256",
          "name": "_maxNumberOfLicences",
          "type": "uint256"
        },
        {
          "internalType": "uint256[]",
          "name": "_contributors",
          "type": "uint256[]"
        },
        {
          "internalType": "uint256[]",
          "name": "_contributorsWeightings",
          "type": "uint256[]"
        }
      ],
      "name": "_createPublication",
      "outputs": [
        {
          "internalType": "uint256",
          "name": "",
          "type": "uint256"
        }
      ],
      "stateMutability": "nonpayable",
      "type": "function"
    },
    {
      "inputs": [
        {
          "internalType": "uint256",
          "name": "_publicationId",
          "type": "uint256"
        },
        {
          "internalType": "uint256",
          "name": "_auctionId",
          "type": "uint256"
        }
      ],
      "name": "_addAuctionToPublication",
      "outputs": [],
      "stateMutability": "nonpayable",
      "type": "function"
    },
    {
      "inputs": [
        {
          "internalType": "uint256",
          "name": "_publicationId",
          "type": "uint256"
        }
      ],
      "name": "addNewLicenceToPublication",
      "outputs": [
        {
          "internalType": "uint256",
          "name": "",
          "type": "uint256"
        }
      ],
      "stateMutability": "nonpayable",
      "type": "function"
    },
    {
      "inputs": [
        {
          "internalType": "uint256",
          "name": "_publication_Id",
          "type": "uint256"
        }
      ],
      "name": "revokeLicence",
      "outputs": [
        {
          "internalType": "uint256",
          "name": "",
          "type": "uint256"
        }
      ],
      "stateMutability": "nonpayable",
      "type": "function"
    },
    {
      "inputs": [
        {
          "internalType": "uint256",
          "name": "_publicationId",
          "type": "uint256"
        }
      ],
      "name": "getAuthorId",
      "outputs": [
        {
          "internalType": "uint256",
          "name": "",
          "type": "uint256"
        }
      ],
      "stateMutability": "view",
      "type": "function"
    },
    {
      "inputs": [
        {
          "internalType": "uint256",
          "name": "_publicationId",
          "type": "uint256"
        }
      ],
      "name": "_getContributers",
      "outputs": [
        {
          "internalType": "uint256[]",
          "name": "",
          "type": "uint256[]"
        },
        {
          "internalType": "uint256[]",
          "name": "",
          "type": "uint256[]"
        }
      ],
      "stateMutability": "view",
      "type": "function"
    },
    {
      "inputs": [
        {
          "internalType": "uint256",
          "name": "_publicationId",
          "type": "uint256"
        }
      ],
      "name": "getLatestAuctionId",
      "outputs": [
        {
          "internalType": "uint256",
          "name": "",
          "type": "uint256"
        }
      ],
      "stateMutability": "view",
      "type": "function"
    },
    {
      "inputs": [
        {
          "internalType": "uint256",
          "name": "_publicationId",
          "type": "uint256"
        }
      ],
      "name": "getPublication",
      "outputs": [
        {
          "internalType": "uint8",
          "name": "",
          "type": "uint8"
        },
        {
          "internalType": "string",
          "name": "",
          "type": "string"
        },
        {
          "internalType": "uint256",
          "name": "",
          "type": "uint256"
        },
        {
          "internalType": "uint256",
          "name": "",
          "type": "uint256"
        },
        {
          "internalType": "uint256",
          "name": "",
          "type": "uint256"
        },
        {
          "internalType": "uint256",
          "name": "",
          "type": "uint256"
        },
        {
          "internalType": "uint256[]",
          "name": "",
          "type": "uint256[]"
        },
        {
          "internalType": "uint256[]",
          "name": "",
          "type": "uint256[]"
        },
        {
          "internalType": "uint256[]",
          "name": "",
          "type": "uint256[]"
        }
      ],
      "stateMutability": "view",
      "type": "function"
    },
    {
      "inputs": [],
      "name": "getPublicationLength",
      "outputs": [
        {
          "internalType": "uint256",
          "name": "",
          "type": "uint256"
        }
      ],
      "stateMutability": "view",
      "type": "function"
    },
    {
      "inputs": [
        {
          "internalType": "uint256",
          "name": "_publicationId",
          "type": "uint256"
        }
      ],
      "name": "getPublicationAuctions",
      "outputs": [
        {
          "internalType": "uint256[]",
          "name": "",
          "type": "uint256[]"
        }
      ],
      "stateMutability": "view",
      "type": "function"
    },
    {
      "inputs": [
        {
          "internalType": "uint256",
          "name": "_publicationId",
          "type": "uint256"
        }
      ],
      "name": "GetPublicationPricingStrategy",
      "outputs": [
        {
          "internalType": "uint8",
          "name": "",
          "type": "uint8"
        }
      ],
      "stateMutability": "view",
      "type": "function"
    },
    {
      "inputs": [
        {
          "internalType": "uint256",
          "name": "_authorId",
          "type": "uint256"
        }
      ],
      "name": "getAuthorPublications",
      "outputs": [
        {
          "internalType": "uint256[]",
          "name": "",
          "type": "uint256[]"
        }
      ],
      "stateMutability": "view",
      "type": "function"
    },
    {
      "inputs": [
        {
          "internalType": "uint256",
          "name": "_publicationId",
          "type": "uint256"
        },
        {
          "internalType": "uint256",
          "name": "_donationAmount",
          "type": "uint256"
        }
      ],
      "name": "recordDonation",
      "outputs": [],
      "stateMutability": "nonpayable",
      "type": "function"
    }
  ],
  "bytecode": "0x608060405234801561001057600080fd5b50611a72806100206000396000f3fe608060405234801561001057600080fd5b506004361061010b5760003560e01c8063572b6c05116100a25780639d273ddc116100715780639d273ddc14610250578063a564e83c14610271578063bfaca0c614610299578063f8290cde146102ac578063f88e44a3146102bf57600080fd5b8063572b6c05146101f05780636c6167c614610222578063755f538c146102355780637ece03bb1461024857600080fd5b806330a966e0116100de57806330a966e0146101905780633a7ae75d146101b5578063485cc955146101c8578063497e192e146101dd57600080fd5b806310a6d0d514610110578063142af1ca146101365780631fd5bbab14610149578063207f293714610170575b600080fd5b61012361011e3660046115a8565b6102d2565b6040519081526020015b60405180910390f35b6101236101443660046115c1565b610300565b61015c6101573660046115a8565b610331565b60405161012d989796959493929190611668565b61018361017e3660046115a8565b610411565b60405161012d91906116f7565b6101a361019e3660046115a8565b61048d565b60405160ff909116815260200161012d565b6101236101c33660046115a8565b6104cd565b6101db6101d6366004611728565b6105a4565b005b6101236101eb3660046117e9565b61069f565b6102126101fe3660046118b9565b6033546001600160a01b0391821691161490565b604051901515815260200161012d565b6101236102303660046115a8565b610aff565b6101236102433660046115a8565b610b7b565b606854610123565b61026361025e3660046115a8565b610cb6565b60405161012d9291906118d4565b61028461027f3660046115a8565b610dae565b60405161012d99989796959493929190611902565b6101db6102a73660046115c1565b6110ac565b6101db6102ba3660046115c1565b611151565b6101836102cd3660046115a8565b6112c7565b6000606882815481106102e7576102e7611984565b90600052602060002090600c0201600201549050919050565b6069602052816000526040600020818154811061031c57600080fd5b90600052602060002001600091509150505481565b6068818154811061034157600080fd5b60009182526020909120600c90910201805460018201805460ff90921693509061036a9061199a565b80601f01602080910402602001604051908101604052809291908181526020018280546103969061199a565b80156103e35780601f106103b8576101008083540402835291602001916103e3565b820191906000526020600020905b8154815290600101906020018083116103c657829003601f168201915b5050505050908060020154908060030154908060040154908060050154908060060154908060070154905088565b60606068828154811061042657610426611984565b90600052602060002090600c020160080180548060200260200160405190810160405280929190818152602001828054801561048157602002820191906000526020600020905b81548152602001906001019080831161046d575b50505050509050919050565b6000606882815481106104a2576104a2611984565b60009182526020909120600c909102015460ff1660028111156104c7576104c76115e3565b92915050565b6067546000906001600160a01b03166104e4611327565b6001600160a01b03161461053f5760405162461bcd60e51b815260206004820152601e60248201527f43616e206f6e6c792062652063616c6c6564206279207265676973747279000060448201526064015b60405180910390fd5b600060016068848154811061055657610556611984565b90600052602060002090600c02016005015461057291906119eb565b9050806068848154811061058857610588611984565b600091825260209091206005600c90920201015590505b919050565b600054610100900460ff166105bf5760005460ff16156105c3565b303b155b6106355760405162461bcd60e51b815260206004820152602e60248201527f496e697469616c697a61626c653a20636f6e747261637420697320616c72656160448201527f647920696e697469616c697a65640000000000000000000000000000000000006064820152608401610536565b600054610100900460ff16158015610657576000805461ffff19166101011790555b6106608261134f565b6067805473ffffffffffffffffffffffffffffffffffffffff19166001600160a01b038516179055801561069a576000805461ff00191690555b505050565b6067546000906001600160a01b03166106b6611327565b6001600160a01b03161461070c5760405162461bcd60e51b815260206004820152601e60248201527f43616e206f6e6c792062652063616c6c656420627920726567697374727900006044820152606401610536565b886107655760405162461bcd60e51b8152602060048201526024808201527f5075626c69636174696f6e205552492073686f756c64206e6f7420626520656d604482015263383a3c9760e11b6064820152608401610536565b60018b6002811115610779576107796115e3565b14156107d457600087116107cf5760405162461bcd60e51b815260206004820152601d60248201527f46697865642073656c6c2070726963652063616e74206265207a65726f0000006044820152606401610536565b610834565b86156108345760405162461bcd60e51b815260206004820152602960248201527f46697865642073656c6c207072696365206d757374206265207a65726f20666f604482015268391030bab1ba34b7b760b91b6064820152608401610536565b60608060006040518061018001604052808f6002811115610857576108576115e3565b81526020018e8e8080601f016020809104026020016040519081016040528093929190818152602001838380828437600092018290525093855250505060208083018f905260408084018f9052606084018e90526000196080850181905260a085015260c084019290925260e0830187905281518b820281810183019093528b815261010090930192918c918c91829185019084908082843760009201919091525050509082525060408051602089810282810182019093528982529283019290918a918a918291850190849080828437600092018290525093855250505060209091018490526068805460018181018355919092528251600c9092027fa2153420d844928b4421650203c77babc8b33d7f2e7b450e2966db0c220977530180549394508493909291839160ff191690836002811115610999576109996115e3565b021790555060208281015180516109b692600185019201906114d5565b5060408201516002820155606082015160038201556080820151600482015560a0820151600582015560c0820151600682015560e082015160078201556101008201518051610a0f916008840191602090910190611559565b506101208201518051610a2c916009840191602090910190611559565b506101408201518051610a4991600a840191602090910190611559565b506101608201518051610a6691600b840191602090910190611559565b505050610a77606680546001019055565b6000610a8260665490565b60008d815260696020908152604080832080546001810182559084529282902090920183905584820151908501518551925193945090927f9b048cc70b58a333b5184ed639eb85d73e3d6509476cc6bc369273e996e97a8c92610ae59291611a02565b60405180910390a29e9d5050505050505050505050505050565b600060688281548110610b1457610b14611984565b90600052602060002090600c0201600801600160688481548110610b3a57610b3a611984565b90600052602060002090600c020160080180549050610b5991906119eb565b81548110610b6957610b69611984565b90600052602060002001549050919050565b6067546000906001600160a01b0316610b92611327565b6001600160a01b031614610be85760405162461bcd60e51b815260206004820152601e60248201527f43616e206f6e6c792062652063616c6c656420627920726567697374727900006044820152606401610536565b600060688381548110610bfd57610bfd611984565b90600052602060002090600c0201600501546001610c1b9190611a24565b905060688381548110610c3057610c30611984565b90600052602060002090600c020160040154811115610ca25760405162461bcd60e51b815260206004820152602860248201527f4d6178206e756d626572206f66206c6963656e6365732068617665206265656e6044820152671034b9b9bab2b21760c11b6064820152608401610536565b806068848154811061058857610588611984565b60608060688381548110610ccc57610ccc611984565b90600052602060002090600c020160090160688481548110610cf057610cf0611984565b90600052602060002090600c0201600a0181805480602002602001604051908101604052809291908181526020018280548015610d4c57602002820191906000526020600020905b815481526020019060010190808311610d38575b5050505050915080805480602002602001604051908101604052809291908181526020018280548015610d9e57602002820191906000526020600020905b815481526020019060010190808311610d8a575b5050505050905091509150915091565b600060606000806000806060806060600060688b81548110610dd257610dd2611984565b60009182526020909120604080516101808101909152600c909202018054829060ff166002811115610e0657610e066115e3565b6002811115610e1757610e176115e3565b8152602001600182018054610e2b9061199a565b80601f0160208091040260200160405190810160405280929190818152602001828054610e579061199a565b8015610ea45780601f10610e7957610100808354040283529160200191610ea4565b820191906000526020600020905b815481529060010190602001808311610e8757829003601f168201915b5050505050815260200160028201548152602001600382015481526020016004820154815260200160058201548152602001600682015481526020016007820154815260200160088201805480602002602001604051908101604052809291908181526020018280548015610f3857602002820191906000526020600020905b815481526020019060010190808311610f24575b5050505050815260200160098201805480602002602001604051908101604052809291908181526020018280548015610f9057602002820191906000526020600020905b815481526020019060010190808311610f7c575b50505050508152602001600a8201805480602002602001604051908101604052809291908181526020018280548015610fe857602002820191906000526020600020905b815481526020019060010190808311610fd4575b50505050508152602001600b820180548060200260200160405190810160405280929190818152602001828054801561104057602002820191906000526020600020905b81548152602001906001019080831161102c575b505050505081525050905080600001516002811115611061576110616115e3565b81602001518260400151836060015184608001518560a00151866101000151876101200151886101400151995099509950995099509950995099509950509193959799909294969850565b6067546001600160a01b03166110c0611327565b6001600160a01b0316146111165760405162461bcd60e51b815260206004820152601e60248201527f43616e206f6e6c792062652063616c6c656420627920726567697374727900006044820152606401610536565b6068828154811061112957611129611984565b60009182526020808320600b600c909302019190910180546001810182559083529120015550565b6067546001600160a01b0316611165611327565b6001600160a01b0316146111bb5760405162461bcd60e51b815260206004820152601e60248201527f43616e206f6e6c792062652063616c6c656420627920726567697374727900006044820152606401610536565b6000606883815481106111d0576111d0611984565b90600052602060002090600c0201600501549050606883815481106111f7576111f7611984565b90600052602060002090600c02016004015481106112885760405162461bcd60e51b815260206004820152604260248201527f4d6178206e756d626572206f66206c6963656e6365732068617665206265656e60448201527f206973737565642e2043616e74206372656174652061206e657720617563746960648201526137b760f11b608482015260a401610536565b6068838154811061129b5761129b611984565b600091825260208083206008600c90930201919091018054600181018255908352912001919091555050565b600081815260696020908152604091829020805483518184028101840190945280845260609392830182828015610481576020028201919060005260206000209081548152602001906001019080831161046d5750505050509050919050565b6033546000906001600160a01b031633141561134a575060131936013560601c90565b503390565b600054610100900460ff166113ba5760405162461bcd60e51b815260206004820152602b60248201527f496e697469616c697a61626c653a20636f6e7472616374206973206e6f74206960448201526a6e697469616c697a696e6760a81b6064820152608401610536565b6113c26113ce565b6113cb8161143b565b50565b600054610100900460ff166114395760405162461bcd60e51b815260206004820152602b60248201527f496e697469616c697a61626c653a20636f6e7472616374206973206e6f74206960448201526a6e697469616c697a696e6760a81b6064820152608401610536565b565b600054610100900460ff166114a65760405162461bcd60e51b815260206004820152602b60248201527f496e697469616c697a61626c653a20636f6e7472616374206973206e6f74206960448201526a6e697469616c697a696e6760a81b6064820152608401610536565b6033805473ffffffffffffffffffffffffffffffffffffffff19166001600160a01b0392909216919091179055565b8280546114e19061199a565b90600052602060002090601f0160209004810192826115035760008555611549565b82601f1061151c57805160ff1916838001178555611549565b82800160010185558215611549579182015b8281111561154957825182559160200191906001019061152e565b50611555929150611593565b5090565b828054828255906000526020600020908101928215611549579160200282018281111561154957825182559160200191906001019061152e565b5b808211156115555760008155600101611594565b6000602082840312156115ba57600080fd5b5035919050565b600080604083850312156115d457600080fd5b50508035926020909101359150565b634e487b7160e01b600052602160045260246000fd5b6003811061161757634e487b7160e01b600052602160045260246000fd5b9052565b6000815180845260005b8181101561164157602081850181015186830182015201611625565b81811115611653576000602083870101525b50601f01601f19169290920160200192915050565b6000610100611677838c6115f9565b8060208401526116898184018b61161b565b604084019990995250506060810195909552608085019390935260a084019190915260c083015260e09091015292915050565b600081518084526020808501945080840160005b838110156116ec578151875295820195908201906001016116d0565b509495945050505050565b60208152600061170a60208301846116bc565b9392505050565b80356001600160a01b038116811461059f57600080fd5b6000806040838503121561173b57600080fd5b61174483611711565b915061175260208401611711565b90509250929050565b60008083601f84011261176d57600080fd5b50813567ffffffffffffffff81111561178557600080fd5b60208301915083602082850101111561179d57600080fd5b9250929050565b60008083601f8401126117b657600080fd5b50813567ffffffffffffffff8111156117ce57600080fd5b6020830191508360208260051b850101111561179d57600080fd5b60008060008060008060008060008060e08b8d03121561180857600080fd5b8a356003811061181757600080fd5b995060208b013567ffffffffffffffff8082111561183457600080fd5b6118408e838f0161175b565b909b50995060408d0135985060608d0135975060808d0135965060a08d013591508082111561186e57600080fd5b61187a8e838f016117a4565b909650945060c08d013591508082111561189357600080fd5b506118a08d828e016117a4565b915080935050809150509295989b9194979a5092959850565b6000602082840312156118cb57600080fd5b61170a82611711565b6040815260006118e760408301856116bc565b82810360208401526118f981856116bc565b95945050505050565b600061012060ff8c16835280602084015261191f8184018c61161b565b90508960408401528860608401528760808401528660a084015282810360c084015261194b81876116bc565b905082810360e084015261195f81866116bc565b905082810361010084015261197481856116bc565b9c9b505050505050505050505050565b634e487b7160e01b600052603260045260246000fd5b600181811c908216806119ae57607f821691505b602082108114156119cf57634e487b7160e01b600052602260045260246000fd5b50919050565b634e487b7160e01b600052601160045260246000fd5b6000828210156119fd576119fd6119d5565b500390565b604081526000611a15604083018561161b565b905061170a60208301846115f9565b60008219821115611a3757611a376119d5565b50019056fea2646970667358221220d043a0db25ab41c351b7d02d606a016771ec7a1b32ca6101c95d8e9c19b4fcd764736f6c634300080c0033",
  "immutableReferences": {},
  "source": "// SPDX-License-Identifier: MIT\n\npragma solidity ^0.8.12;\n\nimport \"@openzeppelin/contracts-upgradeable/proxy/utils/Initializable.sol\";\nimport \"@openzeppelin/contracts-upgradeable/utils/CountersUpgradeable.sol\";\nimport \"./patches/ERC2771ContextUpgradeable.sol\";\nimport \"./interfaces/IPublicationManager.sol\";\n\ncontract PublicationManager is IPublicationManager, Initializable, ERC2771ContextUpgradeable {\n    // Need a flag for unset Ids\n    uint256 constant ID_NONE = type(uint256).max;\n\n    using CountersUpgradeable for CountersUpgradeable.Counter;\n\n    CountersUpgradeable.Counter _pubIds;\n\n    address registry;\n\n    modifier onlyRegistry() {\n        require(_msgSender() == registry, \"Can only be called by registry\");\n        _;\n    }\n\n    struct Publication {\n        PricingStrategy pricingStrategy;\n        string publicationUri; //IPFS blob address of the publication\n        uint256 authorId; //id of the auther\n        uint256 sellPrice;\n        uint256 maxNumberOfLicences;\n        uint256 licencesIssued;\n        uint256 nextVersion;\n        uint256 previousVersion;\n        uint256[] auctionIds; //ids of bids on the publication\n        uint256[] contributors;\n        uint256[] contributorsWeightings; //scaled by 1e2 to repres entat\n        uint256[] donations;\n    }\n\n    Publication[] public publications;\n\n    mapping(uint256 => uint256[]) public publicationOwners;\n\n    event NewPublication(uint256 indexed _authorId, string _publicationUri, PricingStrategy _pricingStrategy);\n\n    event PublicationUpdated(uint256 indexed _authorId, string _oldUri, string _newUri);\n\n    function initialize(address _unicoinRegistry, address _trustedForwarder) public initializer {\n        __ERC2771Context_init(_trustedForwarder);\n\n        registry = _unicoinRegistry;\n    }\n\n    function _createPublication(\n        PricingStrategy _pricingStrategy,\n        string calldata _publicationUri,\n        uint256 _authorId,\n        uint256 _fixedSellPrice,\n        uint256 _maxNumberOfLicences,\n        uint256[] calldata _contributors,\n        uint256[] calldata _contributorsWeightings\n    ) public onlyRegistry returns (uint256) {\n        require(bytes(_publicationUri).length > 0, \"Publication URI should not be empty.\");\n\n        if (PricingStrategy(_pricingStrategy) == PricingStrategy.FixedRate) {\n            require(_fixedSellPrice > 0, \"Fixed sell price cant be zero\");\n        } else {\n            require(_fixedSellPrice == 0, \"Fixed sell price must be zero for auction\");\n        }\n\n        uint256[] memory auctionIds;\n        uint256[] memory donations;\n\n        Publication memory publication = Publication(\n            _pricingStrategy,\n            _publicationUri,\n            _authorId,\n            _fixedSellPrice,\n            _maxNumberOfLicences,\n            ID_NONE, // New publication has no next or prior versions\n            ID_NONE,\n            0, //start with no licences issued\n            auctionIds,\n            _contributors,\n            _contributorsWeightings,\n            donations\n        );\n\n        publications.push(publication);\n        _pubIds.increment();\n        uint256 publicationId = _pubIds.current();\n\n        publicationOwners[_authorId].push(publicationId);\n\n        // Referencing pub properties due to stack depth\n        emit NewPublication(publication.authorId, publication.publicationUri, publication.pricingStrategy);\n\n        return publicationId;\n    }\n\n    function _addAuctionToPublication(uint256 _publicationId, uint256 _auctionId) public onlyRegistry {\n        uint256 licenceNo = publications[_publicationId].licencesIssued;\n        require(\n            licenceNo < publications[_publicationId].maxNumberOfLicences,\n            \"Max number of licences have been issued. Cant create a new auction\"\n        );\n        publications[_publicationId].auctionIds.push(_auctionId);\n    }\n\n    function addNewLicenceToPublication(uint256 _publicationId) public onlyRegistry returns (uint256) {\n        uint256 licenceNo = publications[_publicationId].licencesIssued + 1;\n        require(\n            licenceNo <= publications[_publicationId].maxNumberOfLicences,\n            \"Max number of licences have been issued.\"\n        );\n        publications[_publicationId].licencesIssued = licenceNo;\n        return licenceNo;\n    }\n\n    function revokeLicence(uint256 _publication_Id) public onlyRegistry returns (uint256) {\n        uint256 licenceNo = publications[_publication_Id].licencesIssued - 1;\n        publications[_publication_Id].licencesIssued = licenceNo;\n        return licenceNo;\n    }\n\n    function getAuthorId(uint256 _publicationId) public view returns (uint256) {\n        return publications[_publicationId].authorId;\n    }\n\n    function _getContributers(uint256 _publicationId) public view returns (uint256[] memory, uint256[] memory) {\n        return (publications[_publicationId].contributors, publications[_publicationId].contributorsWeightings);\n    }\n\n    function getLatestAuctionId(uint256 _publicationId) public view returns (uint256) {\n        return publications[_publicationId].auctionIds[publications[_publicationId].auctionIds.length - 1];\n    }\n\n    function getPublication(uint256 _publicationId)\n        public\n        view\n        returns (\n            uint8,\n            string memory,\n            uint256,\n            uint256,\n            uint256,\n            uint256,\n            uint256[] memory,\n            uint256[] memory,\n            uint256[] memory\n        )\n    {\n        Publication memory publication = publications[_publicationId];\n        return (\n            uint8(publication.pricingStrategy),\n            publication.publicationUri,\n            publication.authorId,\n            publication.sellPrice,\n            publication.maxNumberOfLicences,\n            publication.licencesIssued,\n            publication.auctionIds,\n            publication.contributors,\n            publication.contributorsWeightings\n        );\n    }\n\n    function getPublicationLength() public view returns (uint256) {\n        return publications.length;\n    }\n\n    function getPublicationAuctions(uint256 _publicationId) public view returns (uint256[] memory) {\n        return publications[_publicationId].auctionIds;\n    }\n\n    function GetPublicationPricingStrategy(uint256 _publicationId) public view returns (uint8) {\n        return uint8(publications[_publicationId].pricingStrategy);\n    }\n\n    function getAuthorPublications(uint256 _authorId) public view returns (uint256[] memory) {\n        return publicationOwners[_authorId];\n    }\n\n    function recordDonation(uint256 _publicationId, uint256 _donationAmount) public onlyRegistry {\n        publications[_publicationId].donations.push(_donationAmount);\n    }\n}\n",
  "sourcePath": "/home/azureuser/unicoin/unicoin2.0/contracts/PublicationManager.sol",
  "compiler": {
    "name": "solc",
    "version": "0.8.12+commit.f00d7308.Emscripten.clang"
  },
  "schemaVersion": "3.4.6",
  "updatedAt": "2022-03-16T11:23:44.746Z",
  "devdoc": {
    "kind": "dev",
    "methods": {},
    "version": 1
  },
  "userdoc": {
    "kind": "user",
    "methods": {},
    "version": 1
  }
}