{
  "contractName": "PublicationManager",
  "abi": [
    {
      "anonymous": false,
      "inputs": [
        {
          "indexed": true,
          "internalType": "uint256",
          "name": "_author_Id",
          "type": "uint256"
        },
        {
          "indexed": false,
          "internalType": "string",
          "name": "_publication_uri",
          "type": "string"
        },
        {
          "indexed": false,
          "internalType": "enum PublicationManager.PricingStrategy",
          "name": "_pricingStrategy",
          "type": "uint8"
        }
      ],
      "name": "NewPublication",
      "type": "event"
    },
    {
      "constant": true,
      "inputs": [
        {
          "internalType": "uint256",
          "name": "",
          "type": "uint256"
        },
        {
          "internalType": "uint256",
          "name": "",
          "type": "uint256"
        }
      ],
      "name": "publicationOwners",
      "outputs": [
        {
          "internalType": "uint256",
          "name": "",
          "type": "uint256"
        }
      ],
      "payable": false,
      "stateMutability": "view",
      "type": "function"
    },
    {
      "constant": true,
      "inputs": [
        {
          "internalType": "uint256",
          "name": "",
          "type": "uint256"
        }
      ],
      "name": "publications",
      "outputs": [
        {
          "internalType": "enum PublicationManager.PricingStrategy",
          "name": "pricingStrategy",
          "type": "uint8"
        },
        {
          "internalType": "string",
          "name": "publication_uri",
          "type": "string"
        },
        {
          "internalType": "uint256",
          "name": "author_id",
          "type": "uint256"
        },
        {
          "internalType": "uint256",
          "name": "sell_price",
          "type": "uint256"
        },
        {
          "internalType": "uint256",
          "name": "maxNumberOfLicences",
          "type": "uint256"
        },
        {
          "internalType": "uint256",
          "name": "licencesIssued",
          "type": "uint256"
        }
      ],
      "payable": false,
      "stateMutability": "view",
      "type": "function"
    },
    {
      "constant": false,
      "inputs": [
        {
          "internalType": "address",
          "name": "_unicoinRegistry",
          "type": "address"
        }
      ],
      "name": "initialize",
      "outputs": [],
      "payable": false,
      "stateMutability": "nonpayable",
      "type": "function"
    },
    {
      "constant": false,
      "inputs": [
        {
          "internalType": "uint8",
          "name": "_pricing_stratergy",
          "type": "uint8"
        },
        {
          "internalType": "string",
          "name": "_publication_uri",
          "type": "string"
        },
        {
          "internalType": "uint256",
          "name": "_author_Id",
          "type": "uint256"
        },
        {
          "internalType": "uint256",
          "name": "_fixed_sell_price",
          "type": "uint256"
        },
        {
          "internalType": "uint256",
          "name": "_maxNumberOfLicences",
          "type": "uint256"
        },
        {
          "internalType": "uint256[]",
          "name": "_contributors",
          "type": "uint256[]"
        },
        {
          "internalType": "uint256[]",
          "name": "_contributors_weightings",
          "type": "uint256[]"
        }
      ],
      "name": "_createPublication",
      "outputs": [
        {
          "internalType": "uint256",
          "name": "",
          "type": "uint256"
        }
      ],
      "payable": false,
      "stateMutability": "nonpayable",
      "type": "function"
    },
    {
      "constant": false,
      "inputs": [
        {
          "internalType": "uint256",
          "name": "_publication_Id",
          "type": "uint256"
        },
        {
          "internalType": "uint256",
          "name": "_auction_Id",
          "type": "uint256"
        }
      ],
      "name": "_addAuctionToPublication",
      "outputs": [],
      "payable": false,
      "stateMutability": "nonpayable",
      "type": "function"
    },
    {
      "constant": false,
      "inputs": [
        {
          "internalType": "uint256",
          "name": "_publication_Id",
          "type": "uint256"
        }
      ],
      "name": "addNewLicenceToPublication",
      "outputs": [
        {
          "internalType": "uint256",
          "name": "",
          "type": "uint256"
        }
      ],
      "payable": false,
      "stateMutability": "nonpayable",
      "type": "function"
    },
    {
      "constant": false,
      "inputs": [
        {
          "internalType": "uint256",
          "name": "_publication_Id",
          "type": "uint256"
        }
      ],
      "name": "revokeLicence",
      "outputs": [
        {
          "internalType": "uint256",
          "name": "",
          "type": "uint256"
        }
      ],
      "payable": false,
      "stateMutability": "nonpayable",
      "type": "function"
    },
    {
      "constant": true,
      "inputs": [
        {
          "internalType": "uint256",
          "name": "_publication_Id",
          "type": "uint256"
        }
      ],
      "name": "getAuthorId",
      "outputs": [
        {
          "internalType": "uint256",
          "name": "",
          "type": "uint256"
        }
      ],
      "payable": false,
      "stateMutability": "view",
      "type": "function"
    },
    {
      "constant": true,
      "inputs": [
        {
          "internalType": "uint256",
          "name": "_publication_Id",
          "type": "uint256"
        }
      ],
      "name": "_getContributers",
      "outputs": [
        {
          "internalType": "uint256[]",
          "name": "",
          "type": "uint256[]"
        },
        {
          "internalType": "uint256[]",
          "name": "",
          "type": "uint256[]"
        }
      ],
      "payable": false,
      "stateMutability": "view",
      "type": "function"
    },
    {
      "constant": true,
      "inputs": [
        {
          "internalType": "uint256",
          "name": "_publication_Id",
          "type": "uint256"
        }
      ],
      "name": "getLatestAuctionId",
      "outputs": [
        {
          "internalType": "uint256",
          "name": "",
          "type": "uint256"
        }
      ],
      "payable": false,
      "stateMutability": "view",
      "type": "function"
    },
    {
      "constant": true,
      "inputs": [
        {
          "internalType": "uint256",
          "name": "_publication_Id",
          "type": "uint256"
        }
      ],
      "name": "getPublication",
      "outputs": [
        {
          "internalType": "uint8",
          "name": "",
          "type": "uint8"
        },
        {
          "internalType": "string",
          "name": "",
          "type": "string"
        },
        {
          "internalType": "uint256",
          "name": "",
          "type": "uint256"
        },
        {
          "internalType": "uint256",
          "name": "",
          "type": "uint256"
        },
        {
          "internalType": "uint256",
          "name": "",
          "type": "uint256"
        },
        {
          "internalType": "uint256",
          "name": "",
          "type": "uint256"
        },
        {
          "internalType": "uint256[]",
          "name": "",
          "type": "uint256[]"
        },
        {
          "internalType": "uint256[]",
          "name": "",
          "type": "uint256[]"
        },
        {
          "internalType": "uint256[]",
          "name": "",
          "type": "uint256[]"
        }
      ],
      "payable": false,
      "stateMutability": "view",
      "type": "function"
    },
    {
      "constant": true,
      "inputs": [],
      "name": "getPublicationLength",
      "outputs": [
        {
          "internalType": "uint256",
          "name": "",
          "type": "uint256"
        }
      ],
      "payable": false,
      "stateMutability": "view",
      "type": "function"
    },
    {
      "constant": true,
      "inputs": [
        {
          "internalType": "uint256",
          "name": "_publication_Id",
          "type": "uint256"
        }
      ],
      "name": "getPublicationAuctions",
      "outputs": [
        {
          "internalType": "uint256[]",
          "name": "",
          "type": "uint256[]"
        }
      ],
      "payable": false,
      "stateMutability": "view",
      "type": "function"
    },
    {
      "constant": true,
      "inputs": [
        {
          "internalType": "uint256",
          "name": "_publication_Id",
          "type": "uint256"
        }
      ],
      "name": "GetPublicationPricingStrategy",
      "outputs": [
        {
          "internalType": "uint8",
          "name": "",
          "type": "uint8"
        }
      ],
      "payable": false,
      "stateMutability": "view",
      "type": "function"
    },
    {
      "constant": true,
      "inputs": [
        {
          "internalType": "uint256",
          "name": "_author_Id",
          "type": "uint256"
        }
      ],
      "name": "getAuthorPublications",
      "outputs": [
        {
          "internalType": "uint256[]",
          "name": "",
          "type": "uint256[]"
        }
      ],
      "payable": false,
      "stateMutability": "view",
      "type": "function"
    },
    {
      "constant": false,
      "inputs": [
        {
          "internalType": "uint256",
          "name": "_publication_Id",
          "type": "uint256"
        },
        {
          "internalType": "uint256",
          "name": "_donationAmount",
          "type": "uint256"
        }
      ],
      "name": "recordDonation",
      "outputs": [],
      "payable": false,
      "stateMutability": "nonpayable",
      "type": "function"
    }
  ],
  "bytecode": "0x608060405234801561001057600080fd5b50611864806100206000396000f3fe608060405234801561001057600080fd5b50600436106101005760003560e01c8063755f538c11610097578063bfaca0c611610066578063bfaca0c614610725578063c4d66de81461074a578063f8290cde14610770578063f88e44a31461079357610100565b8063755f538c146104c15780637ece03bb146104de5780639d273ddc146104e6578063a564e83c1461059c57610100565b806330a966e0116100d357806330a966e01461028a5780633a7ae75d146102bd578063497e192e146102da5780636c6167c6146104a457610100565b806310a6d0d514610105578063142af1ca146101345780631fd5bbab14610157578063207f29371461021d575b600080fd5b6101226004803603602081101561011b57600080fd5b50356107b0565b60408051918252519081900360200190f35b6101226004803603604081101561014a57600080fd5b50803590602001356107d8565b6101746004803603602081101561016d57600080fd5b5035610806565b6040518087600281111561018457fe5b60ff16815260200180602001868152602001858152602001848152602001838152602001828103825287818151815260200191508051906020019080838360005b838110156101dd5781810151838201526020016101c5565b50505050905090810190601f16801561020a5780820380516001836020036101000a031916815260200191505b5097505050505050505060405180910390f35b61023a6004803603602081101561023357600080fd5b50356108dc565b60408051602080825283518183015283519192839290830191858101910280838360005b8381101561027657818101518382015260200161025e565b505050509050019250505060405180910390f35b6102a7600480360360208110156102a057600080fd5b5035610952565b6040805160ff9092168252519081900360200190f35b610122600480360360208110156102d357600080fd5b5035610986565b610122600480360360e08110156102f057600080fd5b60ff823516919081019060408101602082013564010000000081111561031557600080fd5b82018360208201111561032757600080fd5b8035906020019184600183028401116401000000008311171561034957600080fd5b91908080601f01602080910402602001604051908101604052809392919081815260200183838082843760009201919091525092958435956020860135956040810135955091935091506080810190606001356401000000008111156103ae57600080fd5b8201836020820111156103c057600080fd5b803590602001918460208302840111640100000000831117156103e257600080fd5b919080806020026020016040519081016040528093929190818152602001838360200280828437600092019190915250929594936020810193503591505064010000000081111561043257600080fd5b82018360208201111561044457600080fd5b8035906020019184602083028401116401000000008311171561046657600080fd5b919080806020026020016040519081016040528093929190818152602001838360200280828437600092019190915250929550610a36945050505050565b610122600480360360208110156104ba57600080fd5b5035610e0f565b610122600480360360208110156104d757600080fd5b5035610e70565b610122610f63565b610503600480360360208110156104fc57600080fd5b5035610f6a565b604051808060200180602001838103835285818151815260200191508051906020019060200280838360005b8381101561054757818101518382015260200161052f565b50505050905001838103825284818151815260200191508051906020019060200280838360005b8381101561058657818101518382015260200161056e565b5050505090500194505050505060405180910390f35b6105b9600480360360208110156105b257600080fd5b5035611056565b604051808a60ff1660ff1681526020018060200189815260200188815260200187815260200186815260200180602001806020018060200185810385528d818151815260200191508051906020019080838360005b8381101561062657818101518382015260200161060e565b50505050905090810190601f1680156106535780820380516001836020036101000a031916815260200191505b508581038452885181528851602091820191808b01910280838360005b83811015610688578181015183820152602001610670565b50505050905001858103835287818151815260200191508051906020019060200280838360005b838110156106c75781810151838201526020016106af565b50505050905001858103825286818151815260200191508051906020019060200280838360005b838110156107065781810151838201526020016106ee565b505050509050019d505050505050505050505050505060405180910390f35b6107486004803603604081101561073b57600080fd5b5080359060200135611348565b005b6107486004803603602081101561076057600080fd5b50356001600160a01b03166113dc565b6107486004803603604081101561078657600080fd5b50803590602001356114a7565b61023a600480360360208110156107a957600080fd5b50356115be565b6000603382815481106107bf57fe5b90600052602060002090600a0201600201549050919050565b603460205281600052604060002081815481106107f157fe5b90600052602060002001600091509150505481565b6033818154811061081357fe5b6000918252602091829020600a9091020180546001808301805460408051601f600260001996851615610100029690960190931694909404918201879004870284018701905280835260ff90931695509293909291908301828280156108ba5780601f1061088f576101008083540402835291602001916108ba565b820191906000526020600020905b81548152906001019060200180831161089d57829003601f168201915b5050505050908060020154908060030154908060040154908060050154905086565b6060603382815481106108eb57fe5b90600052602060002090600a020160060180548060200260200160405190810160405280929190818152602001828054801561094657602002820191906000526020600020905b815481526020019060010190808311610932575b50505050509050919050565b60006033828154811061096157fe5b60009182526020909120600a909102015460ff16600281111561098057fe5b92915050565b6035546000906001600160a01b031633146109e8576040805162461bcd60e51b815260206004820152601e60248201527f43616e206f6e6c792062652063616c6c65642062792072656769737472790000604482015290519081900360640190fd5b60006001603384815481106109f957fe5b90600052602060002090600a0201600501540390508060338481548110610a1c57fe5b60009182526020909120600a909102016005015592915050565b6035546000906001600160a01b03163314610a98576040805162461bcd60e51b815260206004820152601e60248201527f43616e206f6e6c792062652063616c6c65642062792072656769737472790000604482015290519081900360640190fd5b6000875111610ad85760405162461bcd60e51b815260040180806020018281038252602481526020018061174b6024913960400191505060405180910390fd5b60018860ff166002811115610ae957fe5b6002811115610af457fe5b1415610b545760008511610b4f576040805162461bcd60e51b815260206004820152601d60248201527f46697865642073656c6c2070726963652063616e74206265207a65726f000000604482015290519081900360640190fd5b610b91565b8415610b915760405162461bcd60e51b81526004018080602001828103825260298152602001806117b16029913960400191505060405180910390fd5b606080610b9c611624565b6040518061014001604052808c60ff166002811115610bb757fe5b6002811115610bc257fe5b8152602081018c9052604081018b9052606081018a905260808101899052600060a0820181905260c0820186905260e0820189905261010082018890526101209091018490526033805460018181018084559284528451600a9092027f82a75bdeeae8604d839476ae9efd8b0e15aa447e21bfd7f41283bb54e22c9a820180549596509394909386929091829060ff191686836002811115610c6057fe5b02179055506020828101518051610c7d9260018501920190611678565b5060408201516002820155606082015160038201556080820151600482015560a0820151600582015560c08201518051610cc19160068401916020909101906116f6565b5060e08201518051610cdd9160078401916020909101906116f6565b506101008201518051610cfa9160088401916020909101906116f6565b506101208201518051610d179160098401916020909101906116f6565b50505060008c81526034602090815260408220805460018101825590835291209290910391018190559050897f9b048cc70b58a333b5184ed639eb85d73e3d6509476cc6bc369273e996e97a8c8c60ff8f166002811115610d7457fe5b6040518080602001836002811115610d8857fe5b60ff168152602001828103825284818151815260200191508051906020019080838360005b83811015610dc5578181015183820152602001610dad565b50505050905090810190601f168015610df25780820380516001836020036101000a031916815260200191505b50935050505060405180910390a29b9a5050505050505050505050565b600060338281548110610e1e57fe5b90600052602060002090600a0201600601600160338481548110610e3e57fe5b90600052602060002090600a0201600601805490500381548110610e5e57fe5b90600052602060002001549050919050565b6035546000906001600160a01b03163314610ed2576040805162461bcd60e51b815260206004820152601e60248201527f43616e206f6e6c792062652063616c6c65642062792072656769737472790000604482015290519081900360640190fd5b600060338381548110610ee157fe5b90600052602060002090600a020160050154600101905060338381548110610f0557fe5b90600052602060002090600a020160040154811115610f555760405162461bcd60e51b81526004018080602001828103825260288152602001806118086028913960400191505060405180910390fd5b8060338481548110610a1c57fe5b6033545b90565b60608060338381548110610f7a57fe5b90600052602060002090600a020160070160338481548110610f9857fe5b90600052602060002090600a020160080181805480602002602001604051908101604052809291908181526020018280548015610ff457602002820191906000526020600020905b815481526020019060010190808311610fe0575b505050505091508080548060200260200160405190810160405280929190818152602001828054801561104657602002820191906000526020600020905b815481526020019060010190808311611032575b5050505050905091509150915091565b60006060600080600080606080606061106d611624565b60338b8154811061107a57fe5b60009182526020909120604080516101408101909152600a909202018054829060ff1660028111156110a857fe5b60028111156110b357fe5b8152602001600182018054600181600116156101000203166002900480601f0160208091040260200160405190810160405280929190818152602001828054600181600116156101000203166002900480156111505780601f1061112557610100808354040283529160200191611150565b820191906000526020600020905b81548152906001019060200180831161113357829003601f168201915b5050505050815260200160028201548152602001600382015481526020016004820154815260200160058201548152602001600682018054806020026020016040519081016040528092919081815260200182805480156111d057602002820191906000526020600020905b8154815260200190600101908083116111bc575b505050505081526020016007820180548060200260200160405190810160405280929190818152602001828054801561122857602002820191906000526020600020905b815481526020019060010190808311611214575b505050505081526020016008820180548060200260200160405190810160405280929190818152602001828054801561128057602002820191906000526020600020905b81548152602001906001019080831161126c575b50505050508152602001600982018054806020026020016040519081016040528092919081815260200182805480156112d857602002820191906000526020600020905b8154815260200190600101908083116112c4575b5050505050815250509050806000015160028111156112f357fe5b81602001518260400151836060015184608001518560a001518660c001518760e00151886101000151879750829250819150809050995099509950995099509950995099509950509193959799909294969850565b6035546001600160a01b031633146113a7576040805162461bcd60e51b815260206004820152601e60248201527f43616e206f6e6c792062652063616c6c65642062792072656769737472790000604482015290519081900360640190fd5b603382815481106113b457fe5b600091825260208083206009600a909302019190910180546001810182559083529120015550565b600054610100900460ff16806113f557506113f561161e565b80611403575060005460ff16155b61143e5760405162461bcd60e51b815260040180806020018281038252602e8152602001806117da602e913960400191505060405180910390fd5b600054610100900460ff16158015611469576000805460ff1961ff0019909116610100171660011790555b6035805473ffffffffffffffffffffffffffffffffffffffff19166001600160a01b03841617905580156114a3576000805461ff00191690555b5050565b6035546001600160a01b03163314611506576040805162461bcd60e51b815260206004820152601e60248201527f43616e206f6e6c792062652063616c6c65642062792072656769737472790000604482015290519081900360640190fd5b60006033838154811061151557fe5b90600052602060002090600a02016005015490506033838154811061153657fe5b90600052602060002090600a02016004015481106115855760405162461bcd60e51b815260040180806020018281038252604281526020018061176f6042913960600191505060405180910390fd5b6033838154811061159257fe5b600091825260208083206006600a90930201919091018054600181018255908352912001919091555050565b60008181526034602090815260409182902080548351818402810184019094528084526060939283018282801561094657602002820191906000526020600020908154815260200190600101908083116109325750505050509050919050565b303b1590565b60408051610140810190915280600081526020016060815260200160008152602001600081526020016000815260200160008152602001606081526020016060815260200160608152602001606081525090565b828054600181600116156101000203166002900490600052602060002090601f016020900481019282601f106116b957805160ff19168380011785556116e6565b828001600101855582156116e6579182015b828111156116e65782518255916020019190600101906116cb565b506116f2929150611730565b5090565b8280548282559060005260206000209081019282156116e657916020028201828111156116e65782518255916020019190600101906116cb565b610f6791905b808211156116f2576000815560010161173656fe5075626c69636174696f6e205552492073686f756c64206e6f7420626520656d7074792e4d6178206e756d626572206f66206c6963656e6365732068617665206265656e206973737565642e2043616e74206372656174652061206e65772061756374696f6e46697865642073656c6c207072696365206d757374206265207a65726f20666f722061756374696f6e436f6e747261637420696e7374616e63652068617320616c7265616479206265656e20696e697469616c697a65644d6178206e756d626572206f66206c6963656e6365732068617665206265656e206973737565642ea265627a7a72315820fbbeb73895a95746f2274e1cb0ce2fad8ca939a659719b74c8948a3eb1d1333564736f6c634300050c0032",
  "source": "pragma solidity ^0.5.12;\r\n\r\nimport \"@openzeppelin/upgrades/contracts/Initializable.sol\";\r\n\r\ncontract PublicationManager is Initializable {\r\n    enum PricingStrategy { PrivateAuction, FixedRate, PrivateAuctionHarberger }\r\n\r\n    struct Publication {\r\n        PricingStrategy pricingStrategy;\r\n        string publication_uri; //IPFS blob address of the publication\r\n        uint256 author_id; //id of the auther\r\n        uint256 sell_price;\r\n        uint256 maxNumberOfLicences;\r\n        uint256 licencesIssued;\r\n        uint256[] auction_ids; //ids of bids on the publication\r\n        uint256[] contributors;\r\n        uint256[] contributors_weightings; //scaled by 1e2 to repres entat\r\n        uint256[] donations;\r\n    }\r\n\r\n    Publication[] public publications;\r\n\r\n    mapping(uint256 => uint256[]) public publicationOwners;\r\n\r\n    address registry;\r\n\r\n    modifier onlyRegistry() {\r\n        require(msg.sender == registry, \"Can only be called by registry\");\r\n        _;\r\n    }\r\n\r\n    event NewPublication(uint256 indexed _author_Id, string _publication_uri, PricingStrategy _pricingStrategy);\r\n\r\n    function initialize(address _unicoinRegistry) public initializer {\r\n        registry = _unicoinRegistry;\r\n    }\r\n\r\n    function _createPublication(\r\n        uint8 _pricing_stratergy,\r\n        string memory _publication_uri,\r\n        uint256 _author_Id,\r\n        uint256 _fixed_sell_price,\r\n        uint256 _maxNumberOfLicences,\r\n        uint256[] memory _contributors,\r\n        uint256[] memory _contributors_weightings\r\n    ) public onlyRegistry returns (uint256) {\r\n        require(bytes(_publication_uri).length > 0, \"Publication URI should not be empty.\");\r\n\r\n        if (PricingStrategy(_pricing_stratergy) == PricingStrategy.FixedRate) {\r\n            require(_fixed_sell_price > 0, \"Fixed sell price cant be zero\");\r\n        } else {\r\n            require(_fixed_sell_price == 0, \"Fixed sell price must be zero for auction\");\r\n        }\r\n\r\n        uint256[] memory auction_ids;\r\n        uint256[] memory donations;\r\n        Publication memory publication = Publication(\r\n            PricingStrategy(_pricing_stratergy),\r\n            _publication_uri,\r\n            _author_Id,\r\n            _fixed_sell_price,\r\n            _maxNumberOfLicences,\r\n            0, //start with no licences issued\r\n            auction_ids,\r\n            _contributors,\r\n            _contributors_weightings,\r\n            donations\r\n        );\r\n        uint256 publicationId = publications.push(publication) - 1;\r\n        publicationOwners[_author_Id].push(publicationId);\r\n\r\n        emit NewPublication(_author_Id, _publication_uri, PricingStrategy(_pricing_stratergy));\r\n\r\n        return publicationId;\r\n    }\r\n\r\n    function _addAuctionToPublication(uint256 _publication_Id, uint256 _auction_Id) public onlyRegistry {\r\n        uint256 licenceNo = publications[_publication_Id].licencesIssued;\r\n        require(\r\n            licenceNo < publications[_publication_Id].maxNumberOfLicences,\r\n            \"Max number of licences have been issued. Cant create a new auction\"\r\n        );\r\n        publications[_publication_Id].auction_ids.push(_auction_Id);\r\n    }\r\n\r\n    function addNewLicenceToPublication(uint256 _publication_Id) public onlyRegistry returns (uint256) {\r\n        uint256 licenceNo = publications[_publication_Id].licencesIssued + 1;\r\n        require(\r\n            licenceNo <= publications[_publication_Id].maxNumberOfLicences,\r\n            \"Max number of licences have been issued.\"\r\n        );\r\n        publications[_publication_Id].licencesIssued = licenceNo;\r\n        return licenceNo;\r\n    }\r\n\r\n    function revokeLicence(uint256 _publication_Id) public onlyRegistry returns (uint256) {\r\n        uint256 licenceNo = publications[_publication_Id].licencesIssued - 1;\r\n        publications[_publication_Id].licencesIssued = licenceNo;\r\n        return licenceNo;\r\n    }\r\n\r\n    function getAuthorId(uint256 _publication_Id) public view returns (uint256) {\r\n        return publications[_publication_Id].author_id;\r\n    }\r\n\r\n    function _getContributers(uint256 _publication_Id) public view returns (uint256[] memory, uint256[] memory) {\r\n        return (publications[_publication_Id].contributors, publications[_publication_Id].contributors_weightings);\r\n    }\r\n\r\n    function getLatestAuctionId(uint256 _publication_Id) public view returns (uint256) {\r\n        return publications[_publication_Id].auction_ids[publications[_publication_Id].auction_ids.length - 1];\r\n    }\r\n\r\n    function getPublication(uint256 _publication_Id)\r\n        public\r\n        view\r\n        returns (\r\n            uint8,\r\n            string memory,\r\n            uint256,\r\n            uint256,\r\n            uint256,\r\n            uint256,\r\n            uint256[] memory,\r\n            uint256[] memory,\r\n            uint256[] memory\r\n        )\r\n    {\r\n        Publication memory publication = publications[_publication_Id];\r\n        return (\r\n            uint8(publication.pricingStrategy),\r\n            publication.publication_uri,\r\n            publication.author_id,\r\n            publication.sell_price,\r\n            publication.maxNumberOfLicences,\r\n            publication.licencesIssued,\r\n            publication.auction_ids,\r\n            publication.contributors,\r\n            publication.contributors_weightings\r\n        );\r\n    }\r\n\r\n    function getPublicationLength() public view returns (uint256) {\r\n        return publications.length;\r\n    }\r\n\r\n    function getPublicationAuctions(uint256 _publication_Id) public view returns (uint256[] memory) {\r\n        return publications[_publication_Id].auction_ids;\r\n    }\r\n\r\n    function GetPublicationPricingStrategy(uint256 _publication_Id) public view returns (uint8) {\r\n        return uint8(publications[_publication_Id].pricingStrategy);\r\n    }\r\n\r\n    function getAuthorPublications(uint256 _author_Id) public view returns (uint256[] memory) {\r\n        return publicationOwners[_author_Id];\r\n    }\r\n\r\n    function recordDonation(uint256 _publication_Id, uint256 _donationAmount) public onlyRegistry {\r\n        publications[_publication_Id].donations.push(_donationAmount);\r\n    }\r\n}\r\n",
  "sourcePath": "E:\\Masters thesis\\Unicoin\\contracts\\PublicationManager.sol",
  "compiler": {
    "name": "solc",
    "version": "0.5.12+commit.7709ece9.Emscripten.clang"
  },
  "schemaVersion": "3.4.4",
  "updatedAt": "2022-02-05T13:32:01.121Z",
  "devdoc": {
    "methods": {}
  },
  "userdoc": {
    "methods": {}
  }
}