{
  "contractName": "PublicationManager",
  "abi": [
    {
      "anonymous": false,
      "inputs": [
        {
          "indexed": true,
          "internalType": "uint256",
          "name": "_author_Id",
          "type": "uint256"
        },
        {
          "indexed": false,
          "internalType": "string",
          "name": "_publication_uri",
          "type": "string"
        },
        {
          "indexed": false,
          "internalType": "enum PublicationManager.PricingStrategy",
          "name": "_pricingStrategy",
          "type": "uint8"
        }
      ],
      "name": "NewPublication",
      "type": "event"
    },
    {
      "constant": true,
      "inputs": [
        {
          "internalType": "uint256",
          "name": "",
          "type": "uint256"
        },
        {
          "internalType": "uint256",
          "name": "",
          "type": "uint256"
        }
      ],
      "name": "publicationOwners",
      "outputs": [
        {
          "internalType": "uint256",
          "name": "",
          "type": "uint256"
        }
      ],
      "payable": false,
      "stateMutability": "view",
      "type": "function"
    },
    {
      "constant": true,
      "inputs": [
        {
          "internalType": "uint256",
          "name": "",
          "type": "uint256"
        }
      ],
      "name": "publications",
      "outputs": [
        {
          "internalType": "enum PublicationManager.PricingStrategy",
          "name": "pricingStrategy",
          "type": "uint8"
        },
        {
          "internalType": "string",
          "name": "publication_uri",
          "type": "string"
        },
        {
          "internalType": "uint256",
          "name": "author_id",
          "type": "uint256"
        },
        {
          "internalType": "uint256",
          "name": "sell_price",
          "type": "uint256"
        },
        {
          "internalType": "uint256",
          "name": "maxNumberOfLicences",
          "type": "uint256"
        },
        {
          "internalType": "uint256",
          "name": "licencesIssued",
          "type": "uint256"
        }
      ],
      "payable": false,
      "stateMutability": "view",
      "type": "function"
    },
    {
      "constant": false,
      "inputs": [
        {
          "internalType": "address",
          "name": "_unicoinRegistry",
          "type": "address"
        }
      ],
      "name": "initialize",
      "outputs": [],
      "payable": false,
      "stateMutability": "nonpayable",
      "type": "function"
    },
    {
      "constant": false,
      "inputs": [
        {
          "internalType": "uint8",
          "name": "_pricing_stratergy",
          "type": "uint8"
        },
        {
          "internalType": "string",
          "name": "_publication_uri",
          "type": "string"
        },
        {
          "internalType": "uint256",
          "name": "_author_Id",
          "type": "uint256"
        },
        {
          "internalType": "uint256",
          "name": "_fixed_sell_price",
          "type": "uint256"
        },
        {
          "internalType": "uint256",
          "name": "_maxNumberOfLicences",
          "type": "uint256"
        },
        {
          "internalType": "uint256[]",
          "name": "_contributors",
          "type": "uint256[]"
        },
        {
          "internalType": "uint256[]",
          "name": "_contributors_weightings",
          "type": "uint256[]"
        }
      ],
      "name": "_createPublication",
      "outputs": [
        {
          "internalType": "uint256",
          "name": "",
          "type": "uint256"
        }
      ],
      "payable": false,
      "stateMutability": "nonpayable",
      "type": "function"
    },
    {
      "constant": false,
      "inputs": [
        {
          "internalType": "uint256",
          "name": "_publication_Id",
          "type": "uint256"
        },
        {
          "internalType": "uint256",
          "name": "_auction_Id",
          "type": "uint256"
        }
      ],
      "name": "_addAuctionToPublication",
      "outputs": [],
      "payable": false,
      "stateMutability": "nonpayable",
      "type": "function"
    },
    {
      "constant": false,
      "inputs": [
        {
          "internalType": "uint256",
          "name": "_publication_Id",
          "type": "uint256"
        }
      ],
      "name": "addNewLicenceToPublication",
      "outputs": [
        {
          "internalType": "uint256",
          "name": "",
          "type": "uint256"
        }
      ],
      "payable": false,
      "stateMutability": "nonpayable",
      "type": "function"
    },
    {
      "constant": false,
      "inputs": [
        {
          "internalType": "uint256",
          "name": "_publication_Id",
          "type": "uint256"
        }
      ],
      "name": "revokeLicence",
      "outputs": [
        {
          "internalType": "uint256",
          "name": "",
          "type": "uint256"
        }
      ],
      "payable": false,
      "stateMutability": "nonpayable",
      "type": "function"
    },
    {
      "constant": true,
      "inputs": [
        {
          "internalType": "uint256",
          "name": "_publication_Id",
          "type": "uint256"
        }
      ],
      "name": "getAuthorId",
      "outputs": [
        {
          "internalType": "uint256",
          "name": "",
          "type": "uint256"
        }
      ],
      "payable": false,
      "stateMutability": "view",
      "type": "function"
    },
    {
      "constant": true,
      "inputs": [
        {
          "internalType": "uint256",
          "name": "_publication_Id",
          "type": "uint256"
        }
      ],
      "name": "_getContributers",
      "outputs": [
        {
          "internalType": "uint256[]",
          "name": "",
          "type": "uint256[]"
        },
        {
          "internalType": "uint256[]",
          "name": "",
          "type": "uint256[]"
        }
      ],
      "payable": false,
      "stateMutability": "view",
      "type": "function"
    },
    {
      "constant": true,
      "inputs": [
        {
          "internalType": "uint256",
          "name": "_publication_Id",
          "type": "uint256"
        }
      ],
      "name": "getLatestAuctionId",
      "outputs": [
        {
          "internalType": "uint256",
          "name": "",
          "type": "uint256"
        }
      ],
      "payable": false,
      "stateMutability": "view",
      "type": "function"
    },
    {
      "constant": true,
      "inputs": [
        {
          "internalType": "uint256",
          "name": "_publication_Id",
          "type": "uint256"
        }
      ],
      "name": "getPublication",
      "outputs": [
        {
          "internalType": "uint8",
          "name": "",
          "type": "uint8"
        },
        {
          "internalType": "string",
          "name": "",
          "type": "string"
        },
        {
          "internalType": "uint256",
          "name": "",
          "type": "uint256"
        },
        {
          "internalType": "uint256",
          "name": "",
          "type": "uint256"
        },
        {
          "internalType": "uint256",
          "name": "",
          "type": "uint256"
        },
        {
          "internalType": "uint256",
          "name": "",
          "type": "uint256"
        },
        {
          "internalType": "uint256[]",
          "name": "",
          "type": "uint256[]"
        },
        {
          "internalType": "uint256[]",
          "name": "",
          "type": "uint256[]"
        },
        {
          "internalType": "uint256[]",
          "name": "",
          "type": "uint256[]"
        }
      ],
      "payable": false,
      "stateMutability": "view",
      "type": "function"
    },
    {
      "constant": true,
      "inputs": [],
      "name": "getPublicationLength",
      "outputs": [
        {
          "internalType": "uint256",
          "name": "",
          "type": "uint256"
        }
      ],
      "payable": false,
      "stateMutability": "view",
      "type": "function"
    },
    {
      "constant": true,
      "inputs": [
        {
          "internalType": "uint256",
          "name": "_publication_Id",
          "type": "uint256"
        }
      ],
      "name": "getPublicationAuctions",
      "outputs": [
        {
          "internalType": "uint256[]",
          "name": "",
          "type": "uint256[]"
        }
      ],
      "payable": false,
      "stateMutability": "view",
      "type": "function"
    },
    {
      "constant": true,
      "inputs": [
        {
          "internalType": "uint256",
          "name": "_publication_Id",
          "type": "uint256"
        }
      ],
      "name": "GetPublicationPricingStrategy",
      "outputs": [
        {
          "internalType": "uint8",
          "name": "",
          "type": "uint8"
        }
      ],
      "payable": false,
      "stateMutability": "view",
      "type": "function"
    },
    {
      "constant": true,
      "inputs": [
        {
          "internalType": "uint256",
          "name": "_author_Id",
          "type": "uint256"
        }
      ],
      "name": "getAuthorPublications",
      "outputs": [
        {
          "internalType": "uint256[]",
          "name": "",
          "type": "uint256[]"
        }
      ],
      "payable": false,
      "stateMutability": "view",
      "type": "function"
    },
    {
      "constant": false,
      "inputs": [
        {
          "internalType": "uint256",
          "name": "_publication_Id",
          "type": "uint256"
        },
        {
          "internalType": "uint256",
          "name": "_donationAmount",
          "type": "uint256"
        }
      ],
      "name": "recordDonation",
      "outputs": [],
      "payable": false,
      "stateMutability": "nonpayable",
      "type": "function"
    }
  ],
  "bytecode": "0x608060405234801561001057600080fd5b50611e74806100206000396000f3fe608060405234801561001057600080fd5b50600436106101005760003560e01c8063755f538c11610097578063bfaca0c611610066578063bfaca0c6146108af578063c4d66de8146108e7578063f8290cde1461092b578063f88e44a31461096357610100565b8063755f538c146105dc5780637ece03bb1461061e5780639d273ddc1461063c578063a564e83c1461070757610100565b806330a966e0116100d357806330a966e0146102ee5780633a7ae75d14610336578063497e192e146103785780636c6167c61461059a57610100565b806310a6d0d514610105578063142af1ca146101475780631fd5bbab14610193578063207f29371461026b575b600080fd5b6101316004803603602081101561011b57600080fd5b81019080803590602001909291905050506109e6565b6040518082815260200191505060405180910390f35b61017d6004803603604081101561015d57600080fd5b810190808035906020019092919080359060200190929190505050610a0e565b6040518082815260200191505060405180910390f35b6101bf600480360360208110156101a957600080fd5b8101908080359060200190929190505050610a3c565b604051808760028111156101cf57fe5b60ff16815260200180602001868152602001858152602001848152602001838152602001828103825287818151815260200191508051906020019080838360005b8381101561022b578082015181840152602081019050610210565b50505050905090810190601f1680156102585780820380516001836020036101000a031916815260200191505b5097505050505050505060405180910390f35b6102976004803603602081101561028157600080fd5b8101908080359060200190929190505050610b2a565b6040518080602001828103825283818151815260200191508051906020019060200280838360005b838110156102da5780820151818401526020810190506102bf565b505050509050019250505060405180910390f35b61031a6004803603602081101561030457600080fd5b8101908080359060200190929190505050610ba0565b604051808260ff1660ff16815260200191505060405180910390f35b6103626004803603602081101561034c57600080fd5b8101908080359060200190929190505050610be0565b6040518082815260200191505060405180910390f35b610584600480360360e081101561038e57600080fd5b81019080803560ff169060200190929190803590602001906401000000008111156103b857600080fd5b8201836020820111156103ca57600080fd5b803590602001918460018302840111640100000000831117156103ec57600080fd5b91908080601f016020809104026020016040519081016040528093929190818152602001838380828437600081840152601f19601f8201169050808301925050505050505091929192908035906020019092919080359060200190929190803590602001909291908035906020019064010000000081111561046d57600080fd5b82018360208201111561047f57600080fd5b803590602001918460208302840111640100000000831117156104a157600080fd5b919080806020026020016040519081016040528093929190818152602001838360200280828437600081840152601f19601f8201169050808301925050505050505091929192908035906020019064010000000081111561050157600080fd5b82018360208201111561051357600080fd5b8035906020019184602083028401116401000000008311171561053557600080fd5b919080806020026020016040519081016040528093929190818152602001838360200280828437600081840152601f19601f820116905080830192505050505050509192919290505050610cf7565b6040518082815260200191505060405180910390f35b6105c6600480360360208110156105b057600080fd5b81019080803590602001909291905050506111b1565b6040518082815260200191505060405180910390f35b610608600480360360208110156105f257600080fd5b8101908080359060200190929190505050611212565b6040518082815260200191505060405180910390f35b6106266113a0565b6040518082815260200191505060405180910390f35b6106686004803603602081101561065257600080fd5b81019080803590602001909291905050506113ad565b604051808060200180602001838103835285818151815260200191508051906020019060200280838360005b838110156106af578082015181840152602081019050610694565b50505050905001838103825284818151815260200191508051906020019060200280838360005b838110156106f15780820151818401526020810190506106d6565b5050505090500194505050505060405180910390f35b6107336004803603602081101561071d57600080fd5b8101908080359060200190929190505050611499565b604051808a60ff1660ff1681526020018060200189815260200188815260200187815260200186815260200180602001806020018060200185810385528d818151815260200191508051906020019080838360005b838110156107a3578082015181840152602081019050610788565b50505050905090810190601f1680156107d05780820380516001836020036101000a031916815260200191505b50858103845288818151815260200191508051906020019060200280838360005b8381101561080c5780820151818401526020810190506107f1565b50505050905001858103835287818151815260200191508051906020019060200280838360005b8381101561084e578082015181840152602081019050610833565b50505050905001858103825286818151815260200191508051906020019060200280838360005b83811015610890578082015181840152602081019050610875565b505050509050019d505050505050505050505050505060405180910390f35b6108e5600480360360408110156108c557600080fd5b810190808035906020019092919080359060200190929190505050611795565b005b610929600480360360208110156108fd57600080fd5b81019080803573ffffffffffffffffffffffffffffffffffffffff1690602001909291905050506118a4565b005b6109616004803603604081101561094157600080fd5b8101908080359060200190929190803590602001909291905050506119e5565b005b61098f6004803603602081101561097957600080fd5b8101908080359060200190929190505050611b8e565b6040518080602001828103825283818151815260200191508051906020019060200280838360005b838110156109d25780820151818401526020810190506109b7565b505050509050019250505060405180910390f35b6000603382815481106109f557fe5b90600052602060002090600a0201600201549050919050565b60346020528160005260406000208181548110610a2757fe5b90600052602060002001600091509150505481565b60338181548110610a4957fe5b90600052602060002090600a02016000915090508060000160009054906101000a900460ff1690806001018054600181600116156101000203166002900480601f016020809104026020016040519081016040528092919081815260200182805460018160011615610100020316600290048015610b085780601f10610add57610100808354040283529160200191610b08565b820191906000526020600020905b815481529060010190602001808311610aeb57829003601f168201915b5050505050908060020154908060030154908060040154908060050154905086565b606060338281548110610b3957fe5b90600052602060002090600a0201600601805480602002602001604051908101604052809291908181526020018280548015610b9457602002820191906000526020600020905b815481526020019060010190808311610b80575b50505050509050919050565b600060338281548110610baf57fe5b90600052602060002090600a020160000160009054906101000a900460ff166002811115610bd957fe5b9050919050565b6000603560009054906101000a900473ffffffffffffffffffffffffffffffffffffffff1673ffffffffffffffffffffffffffffffffffffffff163373ffffffffffffffffffffffffffffffffffffffff1614610ca5576040517f08c379a000000000000000000000000000000000000000000000000000000000815260040180806020018281038252601e8152602001807f43616e206f6e6c792062652063616c6c6564206279207265676973747279000081525060200191505060405180910390fd5b6000600160338481548110610cb657fe5b90600052602060002090600a0201600501540390508060338481548110610cd957fe5b90600052602060002090600a02016005018190555080915050919050565b6000603560009054906101000a900473ffffffffffffffffffffffffffffffffffffffff1673ffffffffffffffffffffffffffffffffffffffff163373ffffffffffffffffffffffffffffffffffffffff1614610dbc576040517f08c379a000000000000000000000000000000000000000000000000000000000815260040180806020018281038252601e8152602001807f43616e206f6e6c792062652063616c6c6564206279207265676973747279000081525060200191505060405180910390fd5b6000875111610e16576040517f08c379a0000000000000000000000000000000000000000000000000000000008152600401808060200182810382526024815260200180611d5b6024913960400191505060405180910390fd5b60016002811115610e2357fe5b8860ff166002811115610e3257fe5b6002811115610e3d57fe5b1415610ebf576000851015610eba576040517f08c379a000000000000000000000000000000000000000000000000000000000815260040180806020018281038252601d8152602001807f46697865642073656c6c2070726963652063616e74206265207a65726f00000081525060200191505060405180910390fd5b610f19565b60008514610f18576040517f08c379a0000000000000000000000000000000000000000000000000000000008152600401808060200182810382526029815260200180611dc16029913960400191505060405180910390fd5b5b606080610f24611c0a565b6040518061014001604052808c60ff166002811115610f3f57fe5b6002811115610f4a57fe5b81526020018b81526020018a815260200189815260200188815260200160008152602001848152602001878152602001868152602001838152509050600060016033839080600181540180825580915050906001820390600052602060002090600a02016000909192909190915060008201518160000160006101000a81548160ff02191690836002811115610fdc57fe5b02179055506020820151816001019080519060200190610ffd929190611c68565b5060408201518160020155606082015181600301556080820151816004015560a0820151816005015560c0820151816006019080519060200190611042929190611ce8565b5060e082015181600701908051906020019061105f929190611ce8565b5061010082015181600801908051906020019061107d929190611ce8565b5061012082015181600901908051906020019061109b929190611ce8565b505050039050603460008b8152602001908152602001600020819080600181540180825580915050906001820390600052602060002001600090919290919091505550897f9b048cc70b58a333b5184ed639eb85d73e3d6509476cc6bc369273e996e97a8c8c8e60ff16600281111561111057fe5b604051808060200183600281111561112457fe5b60ff168152602001828103825284818151815260200191508051906020019080838360005b83811015611164578082015181840152602081019050611149565b50505050905090810190601f1680156111915780820380516001836020036101000a031916815260200191505b50935050505060405180910390a280945050505050979650505050505050565b6000603382815481106111c057fe5b90600052602060002090600a02016006016001603384815481106111e057fe5b90600052602060002090600a020160060180549050038154811061120057fe5b90600052602060002001549050919050565b6000603560009054906101000a900473ffffffffffffffffffffffffffffffffffffffff1673ffffffffffffffffffffffffffffffffffffffff163373ffffffffffffffffffffffffffffffffffffffff16146112d7576040517f08c379a000000000000000000000000000000000000000000000000000000000815260040180806020018281038252601e8152602001807f43616e206f6e6c792062652063616c6c6564206279207265676973747279000081525060200191505060405180910390fd5b60006001603384815481106112e857fe5b90600052602060002090600a0201600501540190506033838154811061130a57fe5b90600052602060002090600a020160040154811115611374576040517f08c379a0000000000000000000000000000000000000000000000000000000008152600401808060200182810382526028815260200180611e186028913960400191505060405180910390fd5b806033848154811061138257fe5b90600052602060002090600a02016005018190555080915050919050565b6000603380549050905090565b606080603383815481106113bd57fe5b90600052602060002090600a0201600701603384815481106113db57fe5b90600052602060002090600a02016008018180548060200260200160405190810160405280929190818152602001828054801561143757602002820191906000526020600020905b815481526020019060010190808311611423575b505050505091508080548060200260200160405190810160405280929190818152602001828054801561148957602002820191906000526020600020905b815481526020019060010190808311611475575b5050505050905091509150915091565b6000606060008060008060608060606114b0611c0a565b60338b815481106114bd57fe5b90600052602060002090600a0201604051806101400160405290816000820160009054906101000a900460ff1660028111156114f557fe5b600281111561150057fe5b8152602001600182018054600181600116156101000203166002900480601f01602080910402602001604051908101604052809291908181526020018280546001816001161561010002031660029004801561159d5780601f106115725761010080835404028352916020019161159d565b820191906000526020600020905b81548152906001019060200180831161158057829003601f168201915b50505050508152602001600282015481526020016003820154815260200160048201548152602001600582015481526020016006820180548060200260200160405190810160405280929190818152602001828054801561161d57602002820191906000526020600020905b815481526020019060010190808311611609575b505050505081526020016007820180548060200260200160405190810160405280929190818152602001828054801561167557602002820191906000526020600020905b815481526020019060010190808311611661575b50505050508152602001600882018054806020026020016040519081016040528092919081815260200182805480156116cd57602002820191906000526020600020905b8154815260200190600101908083116116b9575b505050505081526020016009820180548060200260200160405190810160405280929190818152602001828054801561172557602002820191906000526020600020905b815481526020019060010190808311611711575b50505050508152505090508060000151600281111561174057fe5b81602001518260400151836060015184608001518560a001518660c001518760e00151886101000151879750829250819150809050995099509950995099509950995099509950509193959799909294969850565b603560009054906101000a900473ffffffffffffffffffffffffffffffffffffffff1673ffffffffffffffffffffffffffffffffffffffff163373ffffffffffffffffffffffffffffffffffffffff1614611858576040517f08c379a000000000000000000000000000000000000000000000000000000000815260040180806020018281038252601e8152602001807f43616e206f6e6c792062652063616c6c6564206279207265676973747279000081525060200191505060405180910390fd5b6033828154811061186557fe5b90600052602060002090600a02016009018190806001815401808255809150509060018203906000526020600020016000909192909190915055505050565b600060019054906101000a900460ff16806118c357506118c2611bf9565b5b806118da57506000809054906101000a900460ff16155b61192f576040517f08c379a000000000000000000000000000000000000000000000000000000000815260040180806020018281038252602e815260200180611dea602e913960400191505060405180910390fd5b60008060019054906101000a900460ff16159050801561197f576001600060016101000a81548160ff02191690831515021790555060016000806101000a81548160ff0219169083151502179055505b81603560006101000a81548173ffffffffffffffffffffffffffffffffffffffff021916908373ffffffffffffffffffffffffffffffffffffffff16021790555080156119e15760008060016101000a81548160ff0219169083151502179055505b5050565b603560009054906101000a900473ffffffffffffffffffffffffffffffffffffffff1673ffffffffffffffffffffffffffffffffffffffff163373ffffffffffffffffffffffffffffffffffffffff1614611aa8576040517f08c379a000000000000000000000000000000000000000000000000000000000815260040180806020018281038252601e8152602001807f43616e206f6e6c792062652063616c6c6564206279207265676973747279000081525060200191505060405180910390fd5b600060338381548110611ab757fe5b90600052602060002090600a020160050154905060338381548110611ad857fe5b90600052602060002090600a0201600401548110611b41576040517f08c379a0000000000000000000000000000000000000000000000000000000008152600401808060200182810382526042815260200180611d7f6042913960600191505060405180910390fd5b60338381548110611b4e57fe5b90600052602060002090600a0201600601829080600181540180825580915050906001820390600052602060002001600090919290919091505550505050565b606060346000838152602001908152602001600020805480602002602001604051908101604052809291908181526020018280548015611bed57602002820191906000526020600020905b815481526020019060010190808311611bd9575b50505050509050919050565b600080303b90506000811491505090565b60405180610140016040528060006002811115611c2357fe5b81526020016060815260200160008152602001600081526020016000815260200160008152602001606081526020016060815260200160608152602001606081525090565b828054600181600116156101000203166002900490600052602060002090601f016020900481019282601f10611ca957805160ff1916838001178555611cd7565b82800160010185558215611cd7579182015b82811115611cd6578251825591602001919060010190611cbb565b5b509050611ce49190611d35565b5090565b828054828255906000526020600020908101928215611d24579160200282015b82811115611d23578251825591602001919060010190611d08565b5b509050611d319190611d35565b5090565b611d5791905b80821115611d53576000816000905550600101611d3b565b5090565b9056fe5075626c69636174696f6e205552492073686f756c64206e6f7420626520656d7074792e4d6178206e756d626572206f66206c6963656e6365732068617665206265656e206973737565642e2043616e74206372656174652061206e65772061756374696f6e46697865642073656c6c207072696365206d757374206265207a65726f20666f722061756374696f6e436f6e747261637420696e7374616e63652068617320616c7265616479206265656e20696e697469616c697a65644d6178206e756d626572206f66206c6963656e6365732068617665206265656e206973737565642ea265627a7a723158203685e0b3c5190b432c09259a481214801af0ccc7698cafcfa8adfad481392ca164736f6c634300050c0032",
  "source": "pragma solidity ^0.5.12;\n\nimport \"@openzeppelin/upgrades/contracts/Initializable.sol\";\n\ncontract PublicationManager is Initializable {\n    enum PricingStrategy {PrivateAuction, FixedRate, PrivateAuctionHarberger}\n\n    struct Publication {\n        PricingStrategy pricingStrategy;\n        string publication_uri; //IPFS blob address of the publication\n        uint256 author_id; //id of the auther\n        uint256 sell_price;\n        uint256 maxNumberOfLicences;\n        uint256 licencesIssued;\n        uint256[] auction_ids; //ids of bids on the publication\n        uint256[] contributors;\n        uint256[] contributors_weightings; //scaled by 1e2 to repres entat\n        uint256[] donations;\n    }\n\n    Publication[] public publications;\n\n    mapping(uint256 => uint256[]) public publicationOwners;\n\n    address registry;\n\n    modifier onlyRegistry() {\n        require(msg.sender == registry, \"Can only be called by registry\");\n        _;\n    }\n\n    event NewPublication(\n        uint256 indexed _author_Id,\n        string _publication_uri,\n        PricingStrategy _pricingStrategy\n    );\n\n    function initialize(address _unicoinRegistry) public initializer {\n        registry = _unicoinRegistry;\n    }\n\n    function _createPublication(\n        uint8 _pricing_stratergy,\n        string memory _publication_uri,\n        uint256 _author_Id,\n        uint256 _fixed_sell_price,\n        uint256 _maxNumberOfLicences,\n        uint256[] memory _contributors,\n        uint256[] memory _contributors_weightings\n    ) public onlyRegistry returns (uint256) {\n        require(\n            bytes(_publication_uri).length > 0,\n            \"Publication URI should not be empty.\"\n        );\n\n        if (PricingStrategy(_pricing_stratergy) == PricingStrategy.FixedRate) {\n            require(_fixed_sell_price >= 0, \"Fixed sell price cant be zero\");\n        } else {\n            require(\n                _fixed_sell_price == 0,\n                \"Fixed sell price must be zero for auction\"\n            );\n        }\n\n        uint256[] memory auction_ids;\n        uint256[] memory donations;\n        Publication memory publication = Publication(\n            PricingStrategy(_pricing_stratergy),\n            _publication_uri,\n            _author_Id,\n            _fixed_sell_price,\n            _maxNumberOfLicences,\n            0, //start with no licences issued\n            auction_ids,\n            _contributors,\n            _contributors_weightings,\n            donations\n        );\n        uint256 publicationId = publications.push(publication) - 1;\n        publicationOwners[_author_Id].push(publicationId);\n\n        emit NewPublication(\n            _author_Id,\n            _publication_uri,\n            PricingStrategy(_pricing_stratergy)\n        );\n\n        return (publicationId);\n    }\n\n    function _addAuctionToPublication(\n        uint256 _publication_Id,\n        uint256 _auction_Id\n    ) public onlyRegistry {\n        uint256 licenceNo = publications[_publication_Id].licencesIssued;\n        require(\n            licenceNo < publications[_publication_Id].maxNumberOfLicences,\n            \"Max number of licences have been issued. Cant create a new auction\"\n        );\n        publications[_publication_Id].auction_ids.push(_auction_Id);\n    }\n\n    function addNewLicenceToPublication(uint256 _publication_Id)\n        public\n        onlyRegistry\n        returns (uint256)\n    {\n        uint256 licenceNo = publications[_publication_Id].licencesIssued + 1;\n        require(\n            licenceNo <= publications[_publication_Id].maxNumberOfLicences,\n            \"Max number of licences have been issued.\"\n        );\n        publications[_publication_Id].licencesIssued = licenceNo;\n        return licenceNo;\n    }\n\n    function revokeLicence(uint256 _publication_Id)\n        public\n        onlyRegistry\n        returns (uint256)\n    {\n        uint256 licenceNo = publications[_publication_Id].licencesIssued - 1;\n        publications[_publication_Id].licencesIssued = licenceNo;\n        return licenceNo;\n    }\n\n    function getAuthorId(uint256 _publication_Id)\n        public\n        view\n        returns (uint256)\n    {\n        return publications[_publication_Id].author_id;\n    }\n\n    function _getContributers(uint256 _publication_Id)\n        public\n        view\n        returns (uint256[] memory, uint256[] memory)\n    {\n        return (\n            publications[_publication_Id].contributors,\n            publications[_publication_Id].contributors_weightings\n        );\n    }\n\n    function getLatestAuctionId(uint256 _publication_Id)\n        public\n        view\n        returns (uint256)\n    {\n        return\n            publications[_publication_Id]\n                .auction_ids[publications[_publication_Id].auction_ids.length -\n                1];\n    }\n\n    function getPublication(uint256 _publication_Id)\n        public\n        view\n        returns (\n            uint8,\n            string memory,\n            uint256,\n            uint256,\n            uint256,\n            uint256,\n            uint256[] memory,\n            uint256[] memory,\n            uint256[] memory\n        )\n    {\n        Publication memory publication = publications[_publication_Id];\n        return (\n            uint8(publication.pricingStrategy),\n            publication.publication_uri,\n            publication.author_id,\n            publication.sell_price,\n            publication.maxNumberOfLicences,\n            publication.licencesIssued,\n            publication.auction_ids,\n            publication.contributors,\n            publication.contributors_weightings\n        );\n    }\n\n    function getPublicationLength() public view returns (uint256) {\n        return publications.length;\n    }\n\n    function getPublicationAuctions(uint256 _publication_Id)\n        public\n        view\n        returns (uint256[] memory)\n    {\n        return publications[_publication_Id].auction_ids;\n    }\n\n    function GetPublicationPricingStrategy(uint256 _publication_Id)\n        public\n        view\n        returns (uint8)\n    {\n        return uint8(publications[_publication_Id].pricingStrategy);\n    }\n\n    function getAuthorPublications(uint256 _author_Id)\n        public\n        view\n        returns (uint256[] memory)\n    {\n        return publicationOwners[_author_Id];\n    }\n\n    function recordDonation(uint256 _publication_Id, uint256 _donationAmount)\n        public\n        onlyRegistry\n    {\n        publications[_publication_Id].donations.push(_donationAmount);\n    }\n}\n",
  "sourcePath": "/Users/chris/Projects/unicoindapp/contracts/PublicationManager.sol",
  "compiler": {
    "name": "solc",
    "version": "0.5.12+commit.7709ece9.Emscripten.clang"
  },
  "schemaVersion": "3.0.16",
  "updatedAt": "2019-12-01T06:30:58.552Z",
  "devdoc": {
    "methods": {}
  },
  "userdoc": {
    "methods": {}
  }
}