{
  "contractName": "PublicationManager",
  "abi": [
    {
      "constant": true,
      "inputs": [
        {
          "name": "",
          "type": "uint256"
        },
        {
          "name": "",
          "type": "uint256"
        }
      ],
      "name": "publicationOwners",
      "outputs": [
        {
          "name": "",
          "type": "uint256"
        }
      ],
      "payable": false,
      "stateMutability": "view",
      "type": "function"
    },
    {
      "constant": true,
      "inputs": [
        {
          "name": "",
          "type": "uint256"
        }
      ],
      "name": "publications",
      "outputs": [
        {
          "name": "author_id",
          "type": "uint256"
        },
        {
          "name": "publication_uri",
          "type": "string"
        },
        {
          "name": "pricingStratergy",
          "type": "uint8"
        },
        {
          "name": "sell_price",
          "type": "uint256"
        }
      ],
      "payable": false,
      "stateMutability": "view",
      "type": "function"
    },
    {
      "constant": false,
      "inputs": [],
      "name": "initialize",
      "outputs": [],
      "payable": false,
      "stateMutability": "nonpayable",
      "type": "function"
    }
  ],
  "bytecode": "0x608060405234801561001057600080fd5b506103e0806100206000396000f3fe608060405234801561001057600080fd5b50600436106100415760003560e01c8063142af1ca146100465780631fd5bbab146100925780638129fc1c1461015c575b600080fd5b61007c6004803603604081101561005c57600080fd5b810190808035906020019092919080359060200190929190505050610166565b6040518082815260200191505060405180910390f35b6100be600480360360208110156100a857600080fd5b8101908080359060200190929190505050610194565b60405180858152602001806020018460028111156100d857fe5b60ff168152602001838152602001828103825285818151815260200191508051906020019080838360005b8381101561011e578082015181840152602081019050610103565b50505050905090810190601f16801561014b5780820380516001836020036101000a031916815260200191505b509550505050505060405180910390f35b610164610276565b005b6034602052816000526040600020818154811061017f57fe5b90600052602060002001600091509150505481565b603381815481106101a157fe5b9060005260206000209060070201600091509050806000015490806001018054600181600116156101000203166002900480601f0160208091040260200160405190810160405280929190818152602001828054600181600116156101000203166002900480156102535780601f1061022857610100808354040283529160200191610253565b820191906000526020600020905b81548152906001019060200180831161023657829003601f168201915b5050505050908060030160009054906101000a900460ff16908060040154905084565b600060019054906101000a900460ff16806102955750610294610375565b5b806102ac57506000809054906101000a900460ff16155b610301576040517f08c379a000000000000000000000000000000000000000000000000000000000815260040180806020018281038252602e815260200180610387602e913960400191505060405180910390fd5b60008060019054906101000a900460ff161590508015610351576001600060016101000a81548160ff02191690831515021790555060016000806101000a81548160ff0219169083151502179055505b80156103725760008060016101000a81548160ff0219169083151502179055505b50565b600080303b9050600081149150509056fe436f6e747261637420696e7374616e63652068617320616c7265616479206265656e20696e697469616c697a6564a165627a7a72305820914dc131007b7edf24508b4d570887a1788b82176659015de83d33cfe61b58ad0029",
  "source": "pragma solidity ^0.5.0;\n\nimport \"@openzeppelin/upgrades/contracts/Initializable.sol\";\n\ncontract PublicationManager is Initializable {\n\n    enum PricingStratergy {fixedRate, controlledAuction, privateAuction}\n    \n    struct Publication {\n        uint256 author_id;  //id of the auther\n        string publication_uri; //IPFS blob address of the publication\n        uint256[] auction_ids; //ids of bids on the publication\n        PricingStratergy pricingStratergy;\n        uint256 sell_price;\n        uint256[] contributors;\n        uint256[] contributors_weightings;\n    }\n    /// @notice Creates an array of publications for every published document\n    Publication[] public publications;\n\n    /// @notice The mapping below will map the addresses of all the successful bidders' addresses to the ID of their owned publications\n    mapping(uint256 => uint256[]) public publicationOwners;\n    \n    address registry;\n    \n    modifier onlyRegistry(){\n        require(msg.sender == registry,\"Can only be called by registry\");\n        _;\n    }\n    \n    function initialize () public initializer {\n        \n    }\n}",
  "sourcePath": "/Users/chris/Projects/unicoindapp/contracts/PublicationManager.sol",
  "compiler": {
    "name": "solc",
    "version": "0.5.8+commit.23d335f2.Emscripten.clang"
  },
  "schemaVersion": "3.0.16",
  "updatedAt": "2019-11-21T13:46:52.113Z",
  "devdoc": {
    "methods": {}
  },
  "userdoc": {
    "methods": {}
  }
}