{
  "contractName": "PublicationManager",
  "abi": [
    {
      "inputs": [
        {
          "internalType": "address",
          "name": "unicoinRegistry",
          "type": "address"
        },
        {
          "internalType": "address",
          "name": "trustedForwarder",
          "type": "address"
        }
      ],
      "stateMutability": "nonpayable",
      "type": "constructor"
    },
    {
      "anonymous": false,
      "inputs": [
        {
          "indexed": false,
          "internalType": "uint8",
          "name": "version",
          "type": "uint8"
        }
      ],
      "name": "Initialized",
      "type": "event"
    },
    {
      "anonymous": false,
      "inputs": [
        {
          "indexed": true,
          "internalType": "address",
          "name": "_publisherAddress",
          "type": "address"
        },
        {
          "indexed": false,
          "internalType": "string",
          "name": "_publicationUri",
          "type": "string"
        },
        {
          "indexed": false,
          "internalType": "enum SharedStructures.PricingStrategy",
          "name": "_pricingStrategy",
          "type": "uint8"
        }
      ],
      "name": "NewPublication",
      "type": "event"
    },
    {
      "anonymous": false,
      "inputs": [
        {
          "indexed": false,
          "internalType": "address",
          "name": "oldOwner",
          "type": "address"
        },
        {
          "indexed": false,
          "internalType": "address",
          "name": "newOwner",
          "type": "address"
        },
        {
          "indexed": false,
          "internalType": "uint256",
          "name": "oldPubId",
          "type": "uint256"
        },
        {
          "indexed": false,
          "internalType": "uint256",
          "name": "newPubId",
          "type": "uint256"
        }
      ],
      "name": "PublicationOwnerUpdated",
      "type": "event"
    },
    {
      "anonymous": false,
      "inputs": [
        {
          "indexed": true,
          "internalType": "address",
          "name": "_ownerId",
          "type": "address"
        },
        {
          "indexed": false,
          "internalType": "uint256",
          "name": "oldPubId",
          "type": "uint256"
        },
        {
          "indexed": false,
          "internalType": "uint256",
          "name": "newPubId",
          "type": "uint256"
        }
      ],
      "name": "PublicationUpdated",
      "type": "event"
    },
    {
      "inputs": [
        {
          "internalType": "uint256",
          "name": "",
          "type": "uint256"
        },
        {
          "internalType": "uint256",
          "name": "",
          "type": "uint256"
        }
      ],
      "name": "_citations",
      "outputs": [
        {
          "internalType": "uint256",
          "name": "publicationId",
          "type": "uint256"
        },
        {
          "internalType": "uint16",
          "name": "weighting",
          "type": "uint16"
        }
      ],
      "stateMutability": "view",
      "type": "function"
    },
    {
      "inputs": [
        {
          "internalType": "uint256",
          "name": "",
          "type": "uint256"
        },
        {
          "internalType": "uint256",
          "name": "",
          "type": "uint256"
        }
      ],
      "name": "_contributions",
      "outputs": [
        {
          "internalType": "address",
          "name": "contributorAddress",
          "type": "address"
        },
        {
          "internalType": "uint16",
          "name": "weighting",
          "type": "uint16"
        },
        {
          "internalType": "uint256",
          "name": "balance",
          "type": "uint256"
        },
        {
          "internalType": "uint256",
          "name": "lifetimeAllocations",
          "type": "uint256"
        }
      ],
      "stateMutability": "view",
      "type": "function"
    },
    {
      "inputs": [
        {
          "internalType": "address",
          "name": "forwarder",
          "type": "address"
        }
      ],
      "name": "isTrustedForwarder",
      "outputs": [
        {
          "internalType": "bool",
          "name": "",
          "type": "bool"
        }
      ],
      "stateMutability": "view",
      "type": "function"
    },
    {
      "inputs": [
        {
          "internalType": "address",
          "name": "",
          "type": "address"
        },
        {
          "internalType": "uint256",
          "name": "",
          "type": "uint256"
        }
      ],
      "name": "publicationOwners",
      "outputs": [
        {
          "internalType": "uint256",
          "name": "",
          "type": "uint256"
        }
      ],
      "stateMutability": "view",
      "type": "function"
    },
    {
      "inputs": [
        {
          "internalType": "uint256",
          "name": "",
          "type": "uint256"
        }
      ],
      "name": "publications",
      "outputs": [
        {
          "internalType": "enum SharedStructures.PricingStrategy",
          "name": "pricingStrategy",
          "type": "uint8"
        },
        {
          "internalType": "string",
          "name": "publicationUri",
          "type": "string"
        },
        {
          "internalType": "enum SharedStructures.PublicationStatus",
          "name": "publicationStatus",
          "type": "uint8"
        },
        {
          "internalType": "address",
          "name": "ownerAddress",
          "type": "address"
        },
        {
          "internalType": "uint256",
          "name": "sellPrice",
          "type": "uint256"
        },
        {
          "internalType": "uint8",
          "name": "maxNumberOfLicences",
          "type": "uint8"
        },
        {
          "internalType": "uint256",
          "name": "licencesIssued",
          "type": "uint256"
        },
        {
          "internalType": "uint256",
          "name": "previousVersion",
          "type": "uint256"
        },
        {
          "internalType": "uint256",
          "name": "contributionsId",
          "type": "uint256"
        },
        {
          "internalType": "uint256",
          "name": "citationsId",
          "type": "uint256"
        },
        {
          "internalType": "uint256",
          "name": "lifetimeEarnings",
          "type": "uint256"
        }
      ],
      "stateMutability": "view",
      "type": "function"
    },
    {
      "inputs": [
        {
          "internalType": "enum SharedStructures.PricingStrategy",
          "name": "_pricingStrategy",
          "type": "uint8"
        },
        {
          "internalType": "string",
          "name": "_publicationUri",
          "type": "string"
        },
        {
          "internalType": "address",
          "name": "_ownerAddress",
          "type": "address"
        },
        {
          "internalType": "uint256",
          "name": "_fixedSellPrice",
          "type": "uint256"
        },
        {
          "internalType": "uint8",
          "name": "_maxNumberOfLicences",
          "type": "uint8"
        },
        {
          "components": [
            {
              "internalType": "address",
              "name": "contributorAddress",
              "type": "address"
            },
            {
              "internalType": "uint16",
              "name": "weighting",
              "type": "uint16"
            },
            {
              "internalType": "uint256",
              "name": "balance",
              "type": "uint256"
            },
            {
              "internalType": "uint256",
              "name": "lifetimeAllocations",
              "type": "uint256"
            }
          ],
          "internalType": "struct SharedStructures.Contribution[]",
          "name": "contributors",
          "type": "tuple[]"
        },
        {
          "components": [
            {
              "internalType": "uint256",
              "name": "publicationId",
              "type": "uint256"
            },
            {
              "internalType": "uint16",
              "name": "weighting",
              "type": "uint16"
            }
          ],
          "internalType": "struct SharedStructures.Citation[]",
          "name": "citations",
          "type": "tuple[]"
        }
      ],
      "name": "_createPublication",
      "outputs": [
        {
          "internalType": "uint256",
          "name": "publicationId",
          "type": "uint256"
        }
      ],
      "stateMutability": "nonpayable",
      "type": "function"
    },
    {
      "inputs": [
        {
          "internalType": "uint256",
          "name": "publicationId",
          "type": "uint256"
        },
        {
          "internalType": "enum SharedStructures.PricingStrategy",
          "name": "pricingStrategy",
          "type": "uint8"
        },
        {
          "internalType": "string",
          "name": "publicationUri",
          "type": "string"
        },
        {
          "internalType": "uint256",
          "name": "fixedSellPrice",
          "type": "uint256"
        },
        {
          "internalType": "uint8",
          "name": "maxNumberOfLicences",
          "type": "uint8"
        },
        {
          "components": [
            {
              "internalType": "address",
              "name": "contributorAddress",
              "type": "address"
            },
            {
              "internalType": "uint16",
              "name": "weighting",
              "type": "uint16"
            },
            {
              "internalType": "uint256",
              "name": "balance",
              "type": "uint256"
            },
            {
              "internalType": "uint256",
              "name": "lifetimeAllocations",
              "type": "uint256"
            }
          ],
          "internalType": "struct SharedStructures.Contribution[]",
          "name": "contributors",
          "type": "tuple[]"
        },
        {
          "components": [
            {
              "internalType": "uint256",
              "name": "publicationId",
              "type": "uint256"
            },
            {
              "internalType": "uint16",
              "name": "weighting",
              "type": "uint16"
            }
          ],
          "internalType": "struct SharedStructures.Citation[]",
          "name": "citations",
          "type": "tuple[]"
        }
      ],
      "name": "_replacePublication",
      "outputs": [
        {
          "internalType": "uint256",
          "name": "newPublicationId",
          "type": "uint256"
        }
      ],
      "stateMutability": "nonpayable",
      "type": "function"
    },
    {
      "inputs": [
        {
          "internalType": "uint256",
          "name": "publicationId",
          "type": "uint256"
        },
        {
          "internalType": "address",
          "name": "newOwner",
          "type": "address"
        }
      ],
      "name": "_changeOwner",
      "outputs": [
        {
          "internalType": "uint256",
          "name": "newPublicationId",
          "type": "uint256"
        }
      ],
      "stateMutability": "nonpayable",
      "type": "function"
    },
    {
      "inputs": [
        {
          "internalType": "uint256",
          "name": "_publicationId",
          "type": "uint256"
        },
        {
          "internalType": "uint256",
          "name": "_auctionId",
          "type": "uint256"
        }
      ],
      "name": "_addAuctionToPublication",
      "outputs": [],
      "stateMutability": "nonpayable",
      "type": "function"
    },
    {
      "inputs": [
        {
          "internalType": "uint256",
          "name": "_publicationId",
          "type": "uint256"
        }
      ],
      "name": "addNewLicenceToPublication",
      "outputs": [
        {
          "internalType": "uint256",
          "name": "",
          "type": "uint256"
        }
      ],
      "stateMutability": "nonpayable",
      "type": "function"
    },
    {
      "inputs": [
        {
          "internalType": "uint256",
          "name": "_publication_Id",
          "type": "uint256"
        }
      ],
      "name": "revokeLicence",
      "outputs": [
        {
          "internalType": "uint256",
          "name": "",
          "type": "uint256"
        }
      ],
      "stateMutability": "nonpayable",
      "type": "function"
    },
    {
      "inputs": [
        {
          "internalType": "uint256",
          "name": "_publicationId",
          "type": "uint256"
        }
      ],
      "name": "getOwnerAddress",
      "outputs": [
        {
          "internalType": "address",
          "name": "",
          "type": "address"
        }
      ],
      "stateMutability": "view",
      "type": "function"
    },
    {
      "inputs": [
        {
          "internalType": "uint256",
          "name": "_publicationId",
          "type": "uint256"
        }
      ],
      "name": "_getContributors",
      "outputs": [
        {
          "components": [
            {
              "internalType": "address",
              "name": "contributorAddress",
              "type": "address"
            },
            {
              "internalType": "uint16",
              "name": "weighting",
              "type": "uint16"
            },
            {
              "internalType": "uint256",
              "name": "balance",
              "type": "uint256"
            },
            {
              "internalType": "uint256",
              "name": "lifetimeAllocations",
              "type": "uint256"
            }
          ],
          "internalType": "struct SharedStructures.Contribution[]",
          "name": "",
          "type": "tuple[]"
        }
      ],
      "stateMutability": "view",
      "type": "function"
    },
    {
      "inputs": [
        {
          "internalType": "uint256",
          "name": "_publicationId",
          "type": "uint256"
        }
      ],
      "name": "getLatestAuctionId",
      "outputs": [
        {
          "internalType": "uint256",
          "name": "",
          "type": "uint256"
        }
      ],
      "stateMutability": "view",
      "type": "function"
    },
    {
      "inputs": [
        {
          "internalType": "uint256",
          "name": "_publicationId",
          "type": "uint256"
        }
      ],
      "name": "getPublication",
      "outputs": [
        {
          "components": [
            {
              "internalType": "enum SharedStructures.PricingStrategy",
              "name": "pricingStrategy",
              "type": "uint8"
            },
            {
              "internalType": "string",
              "name": "publicationUri",
              "type": "string"
            },
            {
              "internalType": "enum SharedStructures.PublicationStatus",
              "name": "publicationStatus",
              "type": "uint8"
            },
            {
              "internalType": "address",
              "name": "ownerAddress",
              "type": "address"
            },
            {
              "internalType": "uint256",
              "name": "sellPrice",
              "type": "uint256"
            },
            {
              "internalType": "uint8",
              "name": "maxNumberOfLicences",
              "type": "uint8"
            },
            {
              "internalType": "uint256",
              "name": "licencesIssued",
              "type": "uint256"
            },
            {
              "internalType": "uint256",
              "name": "previousVersion",
              "type": "uint256"
            },
            {
              "internalType": "uint256[]",
              "name": "auctionIds",
              "type": "uint256[]"
            },
            {
              "internalType": "uint256",
              "name": "contributionsId",
              "type": "uint256"
            },
            {
              "internalType": "uint256[]",
              "name": "donations",
              "type": "uint256[]"
            },
            {
              "internalType": "uint256",
              "name": "citationsId",
              "type": "uint256"
            },
            {
              "internalType": "uint256",
              "name": "lifetimeEarnings",
              "type": "uint256"
            }
          ],
          "internalType": "struct SharedStructures.Publication",
          "name": "",
          "type": "tuple"
        }
      ],
      "stateMutability": "view",
      "type": "function"
    },
    {
      "inputs": [],
      "name": "getPublicationLength",
      "outputs": [
        {
          "internalType": "uint256",
          "name": "",
          "type": "uint256"
        }
      ],
      "stateMutability": "view",
      "type": "function"
    },
    {
      "inputs": [
        {
          "internalType": "uint256",
          "name": "_publicationId",
          "type": "uint256"
        }
      ],
      "name": "getPublicationAuctions",
      "outputs": [
        {
          "internalType": "uint256[]",
          "name": "",
          "type": "uint256[]"
        }
      ],
      "stateMutability": "view",
      "type": "function"
    },
    {
      "inputs": [
        {
          "internalType": "uint256",
          "name": "_publicationId",
          "type": "uint256"
        }
      ],
      "name": "GetPublicationPricingStrategy",
      "outputs": [
        {
          "internalType": "uint8",
          "name": "",
          "type": "uint8"
        }
      ],
      "stateMutability": "view",
      "type": "function"
    },
    {
      "inputs": [
        {
          "internalType": "address",
          "name": "_publisherAddress",
          "type": "address"
        }
      ],
      "name": "getAllPublications",
      "outputs": [
        {
          "internalType": "uint256[]",
          "name": "",
          "type": "uint256[]"
        }
      ],
      "stateMutability": "view",
      "type": "function"
    },
    {
      "inputs": [
        {
          "internalType": "uint256",
          "name": "_publicationId",
          "type": "uint256"
        },
        {
          "internalType": "uint256",
          "name": "_donationAmount",
          "type": "uint256"
        }
      ],
      "name": "recordDonation",
      "outputs": [],
      "stateMutability": "nonpayable",
      "type": "function"
    }
  ],
  "bytecode": "0x60c034620000f957601f620024d938819003918201601f19168301916001600160401b03831184841017620000fe578084926040948552833981010312620000f9576200005a6020620000528362000114565b920162000114565b608052620000676200018d565b9081620000e4575b60a052620000a8575b6040516123069081620001d38239608051818181610f6301526121e2015260a05181818161011c015261143c0152f35b61ff0019600054166000557f7f26b83ff96e1f2b6a682f133852f6798a09c465da95921460cefb3847402498602060405160018152a162000078565b61010061ff001960005416176000556200006f565b600080fd5b634e487b7160e01b600052604160045260246000fd5b51906001600160a01b0382168203620000f957565b156200013157565b60405162461bcd60e51b815260206004820152602e60248201527f496e697469616c697a61626c653a20636f6e747261637420697320616c72656160448201526d191e481a5b9a5d1a585b1a5e995960921b6064820152608490fd5b60005460ff8160081c16600014620001b25750620001ad303b1562000129565b600090565b80620001c5600160ff8194161062000129565b60ff19161760005560019056fe60c0604052600436101561001257600080fd5b60003560e01c80630381eea414611933578063196c60f0146118eb5780631fd5bbab146116da578063207f29371461169f57806330a966e01461166a5780633a7ae75d146116205780633dc53772146114045780634c38c5d614610f8a578063572b6c0514610f3957806369c4d7fa146108365780636c6167c6146107e0578063755f538c1461070b5780637ece03bb146106ed57806387d8ccb81461056f578063982c97c4146104e4578063a4f16a0e14610478578063a564e83c1461025a578063bfaca0c614610232578063dd550958146101fb5763f8290cde146100f857600080fd5b346101f65761010636611c72565b6101446101116121df565b6001600160a01b03807f000000000000000000000000000000000000000000000000000000000000000016911614611cbc565b600561014f83611a0d565b50015460ff600461015f85611a0d565b50015416111561018057600761017761017e93611a0d565b50016121a8565b005b60405162461bcd60e51b815260206004820152604260248201527f4d6178206e756d626572206f66206c6963656e6365732068617665206265656e60448201527f206973737565642e2043616e74206372656174652061206e657720617563746960648201526137b760f11b608482015260a490fd5b600080fd5b346101f65760203660031901126101f65760206001600160a01b036002610223600435611a0d565b50015460081c16604051908152f35b346101f65761017e610177600961024836611c72565b92906102556101116121df565b611a0d565b346101f65760203660031901126101f657600061018060405161027c81611a82565b828152606060208201528260408201528260608201528260808201528260a08201528260c08201528260e082015260606101008201528261012082015260606101408201528261016082015201526102d5600435611a0d565b50600b604051916102e583611a82565b6102f360ff82541684611e73565b6102ff60018201611ac1565b60208401526001600160a01b03600282015461032160ff821660408701611ec6565b60081c1660608401526003810154608084015260ff60048201541660a0840152600581015460c0840152600681015460e084015261036160078201612281565b610100840152600881015461012084015261037e60098201612281565b610140840152600a81015461016084015201546101808201526040518091602082526103ae602083018251611b67565b6101806104616103cf60208401516101a060408701526101c0860190611b74565b6103e160408501516060870190611bc5565b6001600160a01b036060850151166080860152608084015160a086015260ff60a08501511660c086015260c084015160e086015260e084015161010086015261043e61010085015191601f19928388830301610120890152611c88565b906101208501516101408701526101408501519086830301610160870152611c88565b916101608101518285015201516101a08301520390f35b346101f65761048636611c72565b906067548110156101f6577f9787eeb91fe3101235e4a76063c7023ecb40f923f97916639c598592fa30d6ae019081548110156101f65760409160005260206000209060011b0161ffff600182549201541682519182526020820152f35b346101f6576104f236611c72565b906066548110156101f6577f46501879b8ca8525e8c2fd519e2fbfcfa2ebea26501294aa02cbfcfb12e94354019081548110156101f65760809160005260036020600020910201805490600260018201549101549061ffff604051936001600160a01b038116855260a01c16602084015260408301526060820152f35b346101f6576020806003193601126101f657600861058e600435611a0d565b5001546066548110156106d75760666000527f46501879b8ca8525e8c2fd519e2fbfcfa2ebea26501294aa02cbfcfb12e943540190815467ffffffffffffffff8082116106c157604051916105e8848260051b0184611a9f565b80835283830191829560005284600020926000905b83821061066a57604080518881528751818a018190528a928201908a60005b8281106106295784840385f35b855180516001600160a01b031685528083015161ffff168584015260408082015190860152606090810151908501529481019460809093019260010161061c565b60405160808101818110858211176106c1576001926003928a9260405261ffff89546001600160a01b038116835260a01c1683820152848901546040820152600289015460608201528152019501910190936105fd565b634e487b7160e01b600052604160045260246000fd5b634e487b7160e01b600052603260045260246000fd5b346101f65760003660031901126101f6576020606554604051908152f35b346101f65760203660031901126101f65760043561072a6101116121df565b600561073582611a0d565b50015460011981116107ca5760010160ff600461075184611a0d565b50015416811161077457806005610769602094611a0d565b500155604051908152f35b60405162461bcd60e51b815260206004820152602860248201527f4d6178206e756d626572206f66206c6963656e6365732068617665206265656e6044820152671034b9b9bab2b21760c11b6064820152608490fd5b634e487b7160e01b600052601160045260246000fd5b346101f65760203660031901126101f657600435600761080961080283611a0d565b5092611a0d565b500154600181106107ca576020916108289160001901906007016119f5565b90546040519160031b1c8152f35b346101f65760e03660031901126101f657600560243510156101f65760443567ffffffffffffffff81116101f657610872903690600401611bd2565b61087a611c00565b9160a43567ffffffffffffffff81116101f65761089b903690600401611c10565b909160c43567ffffffffffffffff81116101f6576108bd903690600401611c41565b9590946108cb6101116121df565b60026108d8600435611a0d565b5080608052015492600660ff85161015610ca75783600460ff809616141580610f2c575b6109059061221f565b60805185815416916003820154876004840154166005840154916001600160a01b03600886015494610952600b600a8901549801549861094a6040518060a052611a82565b60a051611e73565b610960600160805101611ac1565b602060a05101526109788c8216604060a05101611ec6565b60081c16606060a0510152608060a051015260a08051015260c060a051015260043560e060a05101526109af600760805101612281565b61010060a051015261012060a05101526109cd600960805101612281565b61014060a051015261016060a051015261018060a0510152600460243503610f19575b81610f00575b5050600160643501610ef1575b1660018101610ee5575b5080610db5575b505081610d90575b5050606554600160401b8110156106c157806001610a3d9201606555611a0d565b610d7a5760a0518051906005821015610ca75760209160ff80198554169116178355015180519067ffffffffffffffff82116106c1578190610a826001850154611a48565b601f8111610d3a575b50602090601f8311600114610cc857600092610cbd575b50508160011b916000199060031b1c19161760018201555b60a05160408101516006811015610ca7576002830190815460ff74ffffffffffffffffffffffffffffffffffffffff00606086015160081b169216906affffffffffffffffffffff60a81b1617179055608081015160038301556004820160ff60a08301511660ff1982541617905560c0810151600583015560e08101516006830155610100810151805190600160401b82116106c157602060078501918254848455808510610c8a575b50019060005260206000206000915b838310610c745785856101208101516008830155610140810151805190600160401b82116106c1576020906009850154836009870155808410610c54575b50016009840160005260206000206000915b838310610c3e57610160850151600a870155610180850151600b870155606554600181106107ca57602090600019016001600160a01b036002608051015460081c167f8d77481fbb84d2369691e19e996d33eb1dfbc8767a50fda660e887ff012d677f6040805160043581528486820152a2604051908152f35b6001602082829351855501920192019190610bc4565b610c6e906009870160005284846000209182019101611ed2565b85610bb2565b6001602082829351855501920192019190610b74565b610ca1908460005285846000209182019101611ed2565b86610b65565b634e487b7160e01b600052602160045260246000fd5b015190508380610aa2565b9250600184016000526020600020906000935b601f1984168510610d1f576001945083601f19811610610d06575b505050811b016001820155610aba565b015160001960f88460031b161c19169055838080610cf6565b81810151835560209485019460019093019290910190610cdb565b610d6a90600186016000526020600020601f850160051c81019160208610610d70575b601f0160051c0190611ed2565b84610a8b565b9091508190610d5d565b634e487b7160e01b600052600060045260246000fd5b81610d9a91611d77565b600181106107ca576000190161016060a05101528080610a1c565b606654600160401b8110156106c157806001610dd492016066556119be565b929092610d7a57600160401b82116106c1578254828455808310610e9a575b509160005260206000206000925b828410610e2a5750505050606654600181106107ca576000190161012060a05101528280610a14565b8035906001600160a01b03821682036101f657608060039160019385546001600160a01b0361ffff60a01b610e6160208601611d68565b60a01b1692169069ffffffffffffffffffff60b01b16171785556040810135848601556060810135600286015501920193019290610e01565b610ea390611d38565b610eac83611d38565b908460005260206000209182015b8183018110610eca575050610df3565b80600060039255600060018201556000600282015501610eba565b60a08051015284610a0d565b606435608060a0510152610a03565b610f0b913691611e7f565b602060a051015286806109f6565b610f2760243560a051611e73565b6109f0565b50808516600114156108fc565b346101f65760203660031901126101f6576020610f5461196d565b604051906001600160a01b03807f0000000000000000000000000000000000000000000000000000000000000000169116148152f35b346101f65760e03660031901126101f657600560043510156101f65767ffffffffffffffff6024358181116101f657610fc7903690600401611bd2565b9190604435916001600160a01b03831683036101f657610fe5611c00565b60a4358281116101f657610ffd903690600401611c10565b9260c4359081116101f657611016903690600401611c41565b6110216101116121df565b87156113b3576004803514611349576004356001036112e2576064351561129d5761104b91611d77565b60675492600184106107ca57606654600160401b8110156106c15780600161107692016066556119be565b929092610d7a57600160401b82116106c1578254828455808310611254575b509160005260206000206000925b8284106111e4575050505060665492600184106107ca576110de90604051966110cb88611a82565b6110d760043589611e73565b3691611e7f565b92602086019384526000604087015260ff60608701926001600160a01b038716845260643560808901521660a0870152600060c0870152600019928380928160e08a015260606101008a015201610120880152606061014088015201610160860152600061018086015261115185611ee9565b606554600181106107ca576001600160a01b0392839101941660005260686020526111808460406000206121a8565b511690519251926005841015610ca7576111cf7f1805d90dee6c38ecdec0af8a8334da5427bc0e3f5cd41e6c4a2ea59f9ae77877916020956111d9604051938493604085526040850190611b74565b9188840190611b67565b0390a2604051908152f35b8035906001600160a01b03821682036101f657608060039160019385546001600160a01b0361ffff60a01b61121b60208601611d68565b60a01b1692169069ffffffffffffffffffff60b01b161717855560408101358486015560608101356002860155019201930192906110a3565b61125d90611d38565b61126683611d38565b84600052602060002091820191015b8181106112825750611095565b80600060039255600060018201556000600282015501611275565b60405162461bcd60e51b815260206004820152601d60248201527f46697865642073656c6c2070726963652063616e74206265207a65726f0000006044820152606490fd5b6064356112f25761104b91611d77565b60405162461bcd60e51b815260206004820152602960248201527f46697865642073656c6c207072696365206d757374206265207a65726f20666f604482015268391030bab1ba34b7b760b91b6064820152608490fd5b608460405162461bcd60e51b815260206004820152604060248201527f546865204e554c4c2070726963696e672073747261746567792063616e6e6f7460448201527f206265207573656420746f206372656174652061207075626c69636174696f6e6064820152fd5b60405162461bcd60e51b8152602060048201526024808201527f5075626c69636174696f6e205552492073686f756c64206e6f7420626520656d604482015263383a3c9760e11b6064820152608490fd5b346101f65760403660031901126101f6576004356024356001600160a01b038082168092036101f6576114636114386121df565b82167f0000000000000000000000000000000000000000000000000000000000000000831614611cbc565b61146c83611a0d565b5091600283019260ff8454166006811015610ca757600481141580611615575b6114959061221f565b82156115c657816114e39161153c600960ff61155396541693600381015460ff600483015416600583015490600884015492611503600a860154986114e9600b8801549b6040519d8e611a82565b8d611e73565b6114f560018801611ac1565b60208d015260408c01611ec6565b8b60608b015260808a015260a089015260c08801528b60e088015261152a60078301612281565b61010088015261012087015201612281565b610140840152610160830152610180820152611ee9565b60655490600182106107ca576020947f786bc0a1c4d4487ed3eef962aec1229e129b056489edcb37dc16b283c92832d093608093600019019583600052606888526115a28760406000206121a8565b5460081c1691604051928352868301526040820152836060820152a1604051908152f35b60405162461bcd60e51b815260206004820152602160248201527f4e6577206f776e6572206d75737420626520612076616c6964206164647265736044820152607360f81b6064820152608490fd5b50600181141561148c565b346101f65760203660031901126101f65760043561163f6101116121df565b600561164a82611a0d565b500154600181106107ca5760209160056107699260001901928392611a0d565b346101f65760203660031901126101f65760ff611688600435611a0d565b5054166005811015610ca757602090604051908152f35b346101f65760203660031901126101f6576116d66116ca60076116c3600435611a0d565b5001612281565b60405191829182611983565b0390f35b346101f65760203660031901126101f6576004356065548110156101f657600c6118959160656000520260ff817f8ff97419363ffd7000167f130ef7168fbea05faf9251824ca5043f113cc6a7c7015416906117577f8ff97419363ffd7000167f130ef7168fbea05faf9251824ca5043f113cc6a7c88201611ac1565b7f8ff97419363ffd7000167f130ef7168fbea05faf9251824ca5043f113cc6a7c9820154917f8ff97419363ffd7000167f130ef7168fbea05faf9251824ca5043f113cc6a7ca81015460ff7f8ff97419363ffd7000167f130ef7168fbea05faf9251824ca5043f113cc6a7cb830154167f8ff97419363ffd7000167f130ef7168fbea05faf9251824ca5043f113cc6a7cc8301547f8ff97419363ffd7000167f130ef7168fbea05faf9251824ca5043f113cc6a7cd840154917f8ff97419363ffd7000167f130ef7168fbea05faf9251824ca5043f113cc6a7cf850154936001600160a01b036118a77f8ff97419363ffd7000167f130ef7168fbea05faf9251824ca5043f113cc6a7d27f8ff97419363ffd7000167f130ef7168fbea05faf9251824ca5043f113cc6a7d1890154980154986040519c8d809d611b67565b61016060208d018190528c0190611b74565b986118b860408c0160ff8316611bc5565b60081c1660608a0152608089015260a088015260c087015260e08601526101008501526101208401526101408301520390f35b346101f65760403660031901126101f65761190461196d565b6001600160a01b0360243591166000526068602052604060002080548210156101f657602091610828916119f5565b346101f65760203660031901126101f6576001600160a01b0361195461196d565b1660005260686020526116d66116ca6040600020612281565b600435906001600160a01b03821682036101f657565b6020908160408183019282815285518094520193019160005b8281106119aa575050505090565b83518552938101939281019260010161199c565b6066548110156106d75760666000527f46501879b8ca8525e8c2fd519e2fbfcfa2ebea26501294aa02cbfcfb12e943540190600090565b80548210156106d75760005260206000200190600090565b6065548110156106d757600c906065600052027f8ff97419363ffd7000167f130ef7168fbea05faf9251824ca5043f113cc6a7c70190600090565b90600182811c92168015611a78575b6020831014611a6257565b634e487b7160e01b600052602260045260246000fd5b91607f1691611a57565b6101a0810190811067ffffffffffffffff8211176106c157604052565b90601f8019910116810190811067ffffffffffffffff8211176106c157604052565b9060405191826000825492611ad584611a48565b908184526001948581169081600014611b445750600114611b01575b5050611aff92500383611a9f565b565b9093915060005260209081600020936000915b818310611b2c575050611aff93508201013880611af1565b85548884018501529485019487945091830191611b14565b915050611aff94506020925060ff191682840152151560051b8201013880611af1565b906005821015610ca75752565b91908251928382526000905b848210611bad575092806020939411611ba0575b601f01601f1916010190565b6000838284010152611b94565b90602090818082850101519082860101520190611b80565b906006821015610ca75752565b9181601f840112156101f65782359167ffffffffffffffff83116101f657602083818601950101116101f657565b6084359060ff821682036101f657565b9181601f840112156101f65782359167ffffffffffffffff83116101f6576020808501948460071b0101116101f657565b9181601f840112156101f65782359167ffffffffffffffff83116101f6576020808501948460061b0101116101f657565b60409060031901126101f6576004359060243590565b90815180825260208080930193019160005b828110611ca8575050505090565b835185529381019392810192600101611c9a565b15611cc357565b60405162461bcd60e51b815260206004820152601e60248201527f43616e206f6e6c792062652063616c6c656420627920726567697374727900006044820152606490fd5b7f7fffffffffffffffffffffffffffffffffffffffffffffffffffffffffffffff81116001166107ca5760011b90565b7f555555555555555555555555555555555555555555555555555555555555555581116001166107ca5760030290565b3561ffff811681036101f65790565b90606754600160401b808210156106c157600193848301806067558310156106d757600092606784527f9787eeb91fe3101235e4a76063c7023ecb40f923f97916639c598592fa30d6ae01918411611e5f578154848355808510611e22575b509082526020808320915b848410611df057505050505050565b6002604082889335865583860161ffff611e0b878401611d68565b1661ffff1982541617905501930193019291611de1565b611e2b90611d08565b611e3485611d08565b8385526020852091820191015b818110611e4e5750611dd6565b808560029255858882015501611e41565b634e487b7160e01b83526041600452602483fd5b6005821015610ca75752565b92919267ffffffffffffffff82116106c15760405191611ea9601f8201601f191660200184611a9f565b8294818452818301116101f6578281602093846000960137010152565b6006821015610ca75752565b818110611edd575050565b60008155600101611ed2565b60655490600160401b91828110156106c157611f0c600191828101606555611a0d565b939093610d7a5782516005811015610ca75760ff199060ff828754169116178555828501906020918286015180519067ffffffffffffffff82116106c1578190611f568454611a48565b601f8111612178575b508590601f83116001146121155760009261210a575b5050600019600383901b1c191690861b1790555b6002860160408601516006811015610ca757815460ff74ffffffffffffffffffffffffffffffffffffffff0060608a015160081b169216906affffffffffffffffffffff60a81b161717905560808501516003870155600486019060ff60a0870151169082541617905560c0840151600586015560e0840151600686015560078501610100850151908151918483116106c157839082548484558085106120ed575b50019060005282600020856000925b858585106120d9575050505050506101208401516008860155600985019061014085015180519384116106c157819083548585558086106120bc575b500191600052806000206000925b8484106120a95750505050505061018081610160600b930151600a8501550151910155565b8051825592850192908501908201612084565b6120d3908560005286846000209182019101611ed2565b38612076565b81839251855501920192019190869061203a565b612104908460005285846000209182019101611ed2565b3861202b565b015190503880611f75565b90889350601f1983169185600052876000209260005b898282106121625750508411612149575b505050811b019055611f89565b015160001960f88460031b161c1916905538808061213c565b8385015186558c9790950194938401930161212b565b6121a2908560005287600020601f850160051c810191898610610d7057601f0160051c0190611ed2565b38611f5f565b8054600160401b8110156106c1576121c5916001820181556119f5565b819291549060031b600019811b9283911b16911916179055565b337f00000000000000000000000000000000000000000000000000000000000000006001600160a01b03160361221b5736601319013560601c90565b3390565b1561222657565b60405162461bcd60e51b815260206004820152602d60248201527f436f6e747261637420697320696e20616e20696e76616c69642073746174652060448201526c1d1bc81899481d5c19185d1959609a1b6064820152608490fd5b9060405191828154918282526020928383019160005283600020936000905b8282106122b657505050611aff92500383611a9f565b8554845260019586019588955093810193909101906122a056fea26469706673582212206b0967f8e4b2b00106a6e9532035517a8c33876b168282cd4ba0d3d7a0b1af4864736f6c634300080f0033",
  "immutableReferences": {
    "1508": [
      {
        "length": 32,
        "start": 3939
      },
      {
        "length": 32,
        "start": 8674
      }
    ],
    "7322": [
      {
        "length": 32,
        "start": 284
      },
      {
        "length": 32,
        "start": 5180
      }
    ]
  },
  "source": "// SPDX-License-Identifier: MIT\r\n\r\npragma solidity ^0.8.12;\r\n\r\nimport \"@openzeppelin/contracts-upgradeable/proxy/utils/Initializable.sol\";\r\n//import \"./patches/ERC2771ContextUpgradeable.sol\";\r\nimport \"@openzeppelin/contracts-upgradeable/metatx/ERC2771ContextUpgradeable.sol\";\r\nimport \"./interfaces/IPublicationManager.sol\";\r\nimport \"./library/SharedStructures.sol\";\r\n\r\ncontract PublicationManager is IPublicationManager, Initializable, ERC2771ContextUpgradeable {\r\n    // Need a flag for unset values where 0 is a valid option\r\n    uint256 constant ID_NONE = type(uint256).max;\r\n\r\n    address immutable _registry;\r\n\r\n    modifier onlyRegistry() {\r\n        require(_msgSender() == _registry, \"Can only be called by registry\");\r\n        _;\r\n    }\r\n\r\n    SharedStructures.Publication[] public publications;\r\n    SharedStructures.Contribution[][] public  _contributions;\r\n    SharedStructures.Citation[][] public _citations;\r\n\r\n    mapping(address => uint256[]) public publicationOwners;\r\n\r\n    event NewPublication(address indexed _publisherAddress, string _publicationUri, SharedStructures.PricingStrategy _pricingStrategy);\r\n\r\n    event PublicationUpdated(address indexed _ownerId, uint256 oldPubId, uint256 newPubId);\r\n\r\n    event PublicationOwnerUpdated(address oldOwner, address newOwner, uint256 oldPubId, uint256 newPubId);\r\n\r\n\r\n    // This contract is upgradeable, but we can use constructor instead of initializer for optimisation benefits for immutables.\r\n    constructor (address unicoinRegistry, address trustedForwarder) ERC2771ContextUpgradeable(trustedForwarder) initializer {\r\n        _registry = unicoinRegistry;\r\n    }\r\n\r\n\r\n    function _createPublication(\r\n        SharedStructures.PricingStrategy _pricingStrategy,\r\n        string calldata _publicationUri,\r\n        address _ownerAddress,\r\n        uint256 _fixedSellPrice,\r\n        uint8 _maxNumberOfLicences,\r\n        SharedStructures.Contribution[] calldata contributors,\r\n        SharedStructures.Citation[] calldata citations\r\n    ) public onlyRegistry returns (uint256 publicationId) {\r\n        require(bytes(_publicationUri).length > 0, \"Publication URI should not be empty.\");\r\n        require(_pricingStrategy != SharedStructures.PricingStrategy.NULL, \"The NULL pricing strategy cannot be used to create a publication\");\r\n\r\n        if (_pricingStrategy == SharedStructures.PricingStrategy.FixedRate) {\r\n            require(_fixedSellPrice > 0, \"Fixed sell price cant be zero\");\r\n        } else {\r\n            require(_fixedSellPrice == 0, \"Fixed sell price must be zero for auction\");\r\n        }\r\n\r\n        uint256[] memory auctionIds;\r\n        uint256[] memory donations;\r\n\r\n        //SharedStructures.Citation[] storage __citations = citations;\r\n\r\n        _citations.push(citations);\r\n        uint256 citationsId = _citations.length - 1;\r\n\r\n        _contributions.push(contributors);\r\n        uint256 contributionsId = _contributions.length - 1;\r\n        \r\n\r\n        SharedStructures.Publication memory publication = SharedStructures.Publication(\r\n            _pricingStrategy,\r\n            _publicationUri, //IPFS blob address of the publication\r\n            SharedStructures.PublicationStatus.Published,\r\n            _ownerAddress, // Address of publisher of this version\r\n            _fixedSellPrice,\r\n            _maxNumberOfLicences,\r\n            0, // number of licenses issued starts as 0\r\n            ID_NONE, // No previous version\r\n            auctionIds, //ids of bids on the publication\r\n            contributionsId,\r\n            donations,\r\n            citationsId,\r\n            0 // No earnings to date\r\n        );\r\n\r\n        publications.push(publication);\r\n        publicationId = publications.length - 1;\r\n\r\n        publicationOwners[_ownerAddress].push(publicationId);\r\n\r\n        // Referencing pub properties due to stack depth\r\n        emit NewPublication(\r\n            publication.ownerAddress, \r\n            publication.publicationUri, \r\n            publication.pricingStrategy\r\n        );\r\n\r\n        return publicationId;\r\n    }\r\n\r\n    function _replacePublication(\r\n        uint256 publicationId,\r\n        SharedStructures.PricingStrategy pricingStrategy,\r\n        string calldata publicationUri,\r\n        uint256 fixedSellPrice,\r\n        uint8 maxNumberOfLicences,\r\n        SharedStructures.Contribution[] calldata contributors,\r\n        SharedStructures.Citation[] calldata citations\r\n    ) public onlyRegistry returns (uint256 newPublicationId) {\r\n\r\n        SharedStructures.Publication storage oldpub = publications[publicationId];\r\n\r\n        require(oldpub.publicationStatus != SharedStructures.PublicationStatus.Unitialized &&\r\n            oldpub.publicationStatus != SharedStructures.PublicationStatus.Replaced,\r\n            \"Contract is in an invalid state to be updated\");\r\n\r\n        SharedStructures.Publication memory newpub = SharedStructures.Publication(\r\n            oldpub.pricingStrategy,\r\n            oldpub.publicationUri,\r\n            oldpub.publicationStatus,\r\n            oldpub.ownerAddress,\r\n            oldpub.sellPrice,\r\n            oldpub.maxNumberOfLicences,\r\n            oldpub.licencesIssued,\r\n            publicationId,\r\n            oldpub.auctionIds,\r\n            oldpub.contributionsId,\r\n            oldpub.donations,\r\n            oldpub.citationsId,\r\n            oldpub.lifetimeEarnings\r\n        );\r\n\r\n        if (pricingStrategy != SharedStructures.PricingStrategy.NULL) newpub.pricingStrategy = pricingStrategy;\r\n        if (bytes(publicationUri).length != 0) newpub.publicationUri = publicationUri;\r\n        if (fixedSellPrice != ID_NONE) newpub.sellPrice = fixedSellPrice;\r\n        if (maxNumberOfLicences != ID_NONE) newpub.maxNumberOfLicences = maxNumberOfLicences;\r\n        if (contributors.length != 0) {\r\n            _contributions.push(contributors);\r\n            newpub.contributionsId = _contributions.length - 1;\r\n        }\r\n        if (citations.length != 0) {\r\n            _citations.push(citations);\r\n            newpub.citationsId = citations.length - 1;\r\n        }\r\n\r\n        publications.push(newpub);\r\n        newPublicationId = publications.length - 1;\r\n\r\n        emit PublicationUpdated(oldpub.ownerAddress, publicationId, newPublicationId);\r\n\r\n        return newPublicationId;\r\n    }\r\n\r\n    function _changeOwner(\r\n        uint256 publicationId,\r\n        address newOwner\r\n    ) public onlyRegistry returns (uint256 newPublicationId) {\r\n\r\n        SharedStructures.Publication storage oldpub = publications[publicationId];\r\n\r\n        require(oldpub.publicationStatus != SharedStructures.PublicationStatus.Unitialized &&\r\n            oldpub.publicationStatus != SharedStructures.PublicationStatus.Replaced,\r\n            \"Contract is in an invalid state to be updated\");\r\n\r\n        require(newOwner != address(0), \"New owner must be a valid address\");\r\n\r\n        SharedStructures.Publication memory newpub = SharedStructures.Publication(\r\n            oldpub.pricingStrategy,\r\n            oldpub.publicationUri,\r\n            oldpub.publicationStatus,\r\n            newOwner,\r\n            oldpub.sellPrice,\r\n            oldpub.maxNumberOfLicences,\r\n            oldpub.licencesIssued,\r\n            publicationId,\r\n            oldpub.auctionIds,\r\n            oldpub.contributionsId,\r\n            oldpub.donations,\r\n            oldpub.citationsId,\r\n            oldpub.lifetimeEarnings\r\n        );\r\n\r\n        publications.push(newpub);\r\n        newPublicationId = publications.length - 1;\r\n\r\n        publicationOwners[newOwner].push(newPublicationId);\r\n\r\n        emit PublicationOwnerUpdated(oldpub.ownerAddress, newOwner, publicationId, newPublicationId);\r\n\r\n        return newPublicationId;\r\n    }\r\n\r\n    function _addAuctionToPublication(uint256 _publicationId, uint256 _auctionId) public onlyRegistry {\r\n        uint256 licenceNo = publications[_publicationId].licencesIssued;\r\n        require(\r\n            licenceNo < publications[_publicationId].maxNumberOfLicences,\r\n            \"Max number of licences have been issued. Cant create a new auction\"\r\n        );\r\n        publications[_publicationId].auctionIds.push(_auctionId);\r\n    }\r\n\r\n    function addNewLicenceToPublication(uint256 _publicationId) public onlyRegistry returns (uint256) {\r\n        uint256 licenceNo = publications[_publicationId].licencesIssued + 1;\r\n        require(\r\n            licenceNo <= publications[_publicationId].maxNumberOfLicences,\r\n            \"Max number of licences have been issued.\"\r\n        );\r\n        publications[_publicationId].licencesIssued = licenceNo;\r\n        return licenceNo;\r\n    }\r\n\r\n    function revokeLicence(uint256 _publication_Id) public onlyRegistry returns (uint256) {\r\n        uint256 licenceNo = publications[_publication_Id].licencesIssued - 1;\r\n        publications[_publication_Id].licencesIssued = licenceNo;\r\n        return licenceNo;\r\n    }\r\n\r\n    function getOwnerAddress(uint256 _publicationId) external view returns (address) {\r\n        return publications[_publicationId].ownerAddress;\r\n    }\r\n\r\n    function _getContributors(uint256 _publicationId) external view returns (SharedStructures.Contribution[] memory) {\r\n        uint256 contributionsId = publications[_publicationId].contributionsId;\r\n\r\n        return _contributions[contributionsId];\r\n    }\r\n\r\n    function getLatestAuctionId(uint256 _publicationId) public view returns (uint256) {\r\n        return publications[_publicationId].auctionIds[publications[_publicationId].auctionIds.length - 1];\r\n    }\r\n\r\n    function getPublication(uint256 _publicationId)\r\n        public\r\n        view\r\n        returns (SharedStructures.Publication memory)\r\n        /*returns (\r\n            uint8,\r\n            string memory,\r\n            uint256,\r\n            uint256,\r\n            uint256,\r\n            uint256,\r\n            uint256[] memory,\r\n            uint256[] memory,\r\n            uint256[] memory\r\n        )*/\r\n    {\r\n        return publications[_publicationId];\r\n\r\n        /*Publication memory publication = publications[_publicationId];\r\n        return (\r\n            uint8(publication.pricingStrategy),\r\n            publication.publicationUri,\r\n            publication.authorId,\r\n            publication.sellPrice,\r\n            publication.maxNumberOfLicences,\r\n            publication.licencesIssued,\r\n            publication.auctionIds,\r\n            publication.contributors,\r\n            publication.contributorsWeightings\r\n        );*/\r\n    }\r\n\r\n    function getPublicationLength() public view returns (uint256) {\r\n        return publications.length;\r\n    }\r\n\r\n    function getPublicationAuctions(uint256 _publicationId) public view returns (uint256[] memory) {\r\n        return publications[_publicationId].auctionIds;\r\n    }\r\n\r\n    function GetPublicationPricingStrategy(uint256 _publicationId) public view returns (uint8) {\r\n        return uint8(publications[_publicationId].pricingStrategy);\r\n    }\r\n\r\n    function getAllPublications(address _publisherAddress) public view returns (uint256[] memory) {\r\n        return publicationOwners[_publisherAddress];\r\n    }\r\n\r\n    function recordDonation(uint256 _publicationId, uint256 _donationAmount) public onlyRegistry {\r\n        publications[_publicationId].donations.push(_donationAmount);\r\n    }\r\n}\r\n",
  "sourcePath": "E:\\Masters thesis\\Unicoin\\contracts\\PublicationManager.sol",
  "compiler": {
    "name": "solc",
    "version": "0.8.15+commit.e14f2714.Emscripten.clang"
  },
  "schemaVersion": "3.4.5",
  "updatedAt": "2022-06-16T13:48:24.368Z",
  "devdoc": {
    "kind": "dev",
    "methods": {
      "_changeOwner(uint256,address)": {
        "params": {
          "newOwner": "The address of the new owner of the publication",
          "publicationId": "The publication being updated"
        },
        "returns": {
          "newPublicationId": "The identifier for the new version of the publication"
        }
      },
      "_replacePublication(uint256,uint8,string,uint256,uint8,(address,uint16,uint256,uint256)[],(uint256,uint16)[])": {
        "params": {
          "citations": "An array of `Citation`s for this publication. An empty array will cause there to be no changes.",
          "contributors": "An array of `Contribution`s for this publication. An empty array will cause there to be no changes.",
          "fixedSellPrice": "If this publication is to be sold at a fixed price, the price that has been set. A value of type(uint256).max indicates the value should be unchanged",
          "maxNumberOfLicences": "The total number of licenses allowed to be in force at a given time. A value of type(uint256).max indicates the value should be unchanged",
          "pricingStrategy": "a PricingStrategy enum specifying how licenses will be sold for this publication. NULL indicates the value should be unchanged.",
          "publicationId": "The publication being replaced",
          "publicationUri": "the IPFS address of the uploaded paper. An empty string indicates the value should be unchanged."
        },
        "returns": {
          "newPublicationId": "The identifier for the new version of the publication."
        }
      }
    },
    "version": 1
  },
  "userdoc": {
    "kind": "user",
    "methods": {
      "_changeOwner(uint256,address)": {
        "notice": "Replaces a publication with a new version, with a change in ownership"
      },
      "_replacePublication(uint256,uint8,string,uint256,uint8,(address,uint16,uint256,uint256)[],(uint256,uint16)[])": {
        "notice": "Creates a new version of a publication, and marks the old version as replaced"
      }
    },
    "version": 1
  }
}