{
  "contractName": "UnicoinRegistry",
  "abi": [
    {
      "anonymous": false,
      "inputs": [
        {
          "indexed": true,
          "internalType": "address",
          "name": "oldRelayHub",
          "type": "address"
        },
        {
          "indexed": true,
          "internalType": "address",
          "name": "newRelayHub",
          "type": "address"
        }
      ],
      "name": "RelayHubChanged",
      "type": "event"
    },
    {
      "constant": true,
      "inputs": [],
      "name": "getHubAddr",
      "outputs": [
        {
          "internalType": "address",
          "name": "",
          "type": "address"
        }
      ],
      "payable": false,
      "stateMutability": "view",
      "type": "function"
    },
    {
      "constant": false,
      "inputs": [
        {
          "internalType": "bytes",
          "name": "context",
          "type": "bytes"
        },
        {
          "internalType": "bool",
          "name": "success",
          "type": "bool"
        },
        {
          "internalType": "uint256",
          "name": "actualCharge",
          "type": "uint256"
        },
        {
          "internalType": "bytes32",
          "name": "preRetVal",
          "type": "bytes32"
        }
      ],
      "name": "postRelayedCall",
      "outputs": [],
      "payable": false,
      "stateMutability": "nonpayable",
      "type": "function"
    },
    {
      "constant": false,
      "inputs": [
        {
          "internalType": "bytes",
          "name": "context",
          "type": "bytes"
        }
      ],
      "name": "preRelayedCall",
      "outputs": [
        {
          "internalType": "bytes32",
          "name": "",
          "type": "bytes32"
        }
      ],
      "payable": false,
      "stateMutability": "nonpayable",
      "type": "function"
    },
    {
      "constant": true,
      "inputs": [],
      "name": "relayHubVersion",
      "outputs": [
        {
          "internalType": "string",
          "name": "",
          "type": "string"
        }
      ],
      "payable": false,
      "stateMutability": "view",
      "type": "function"
    },
    {
      "constant": false,
      "inputs": [],
      "name": "setDefaultRelayHub",
      "outputs": [],
      "payable": false,
      "stateMutability": "nonpayable",
      "type": "function"
    },
    {
      "constant": false,
      "inputs": [
        {
          "internalType": "address",
          "name": "_auctionManager",
          "type": "address"
        },
        {
          "internalType": "address",
          "name": "_licenceManager",
          "type": "address"
        },
        {
          "internalType": "address",
          "name": "_publicationManager",
          "type": "address"
        },
        {
          "internalType": "address",
          "name": "_userManager",
          "type": "address"
        },
        {
          "internalType": "address",
          "name": "_vault",
          "type": "address"
        }
      ],
      "name": "initialize",
      "outputs": [],
      "payable": false,
      "stateMutability": "nonpayable",
      "type": "function"
    },
    {
      "constant": false,
      "inputs": [],
      "name": "initialize",
      "outputs": [],
      "payable": false,
      "stateMutability": "nonpayable",
      "type": "function"
    },
    {
      "constant": true,
      "inputs": [
        {
          "internalType": "address",
          "name": "",
          "type": "address"
        },
        {
          "internalType": "address",
          "name": "",
          "type": "address"
        },
        {
          "internalType": "bytes",
          "name": "",
          "type": "bytes"
        },
        {
          "internalType": "uint256",
          "name": "",
          "type": "uint256"
        },
        {
          "internalType": "uint256",
          "name": "",
          "type": "uint256"
        },
        {
          "internalType": "uint256",
          "name": "",
          "type": "uint256"
        },
        {
          "internalType": "uint256",
          "name": "",
          "type": "uint256"
        },
        {
          "internalType": "bytes",
          "name": "",
          "type": "bytes"
        },
        {
          "internalType": "uint256",
          "name": "",
          "type": "uint256"
        }
      ],
      "name": "acceptRelayedCall",
      "outputs": [
        {
          "internalType": "uint256",
          "name": "",
          "type": "uint256"
        },
        {
          "internalType": "bytes",
          "name": "",
          "type": "bytes"
        }
      ],
      "payable": false,
      "stateMutability": "view",
      "type": "function"
    },
    {
      "constant": false,
      "inputs": [
        {
          "internalType": "address",
          "name": "_owner",
          "type": "address"
        }
      ],
      "name": "setOwner",
      "outputs": [],
      "payable": false,
      "stateMutability": "nonpayable",
      "type": "function"
    },
    {
      "constant": false,
      "inputs": [
        {
          "internalType": "string",
          "name": "_profile_uri",
          "type": "string"
        }
      ],
      "name": "registerUser",
      "outputs": [],
      "payable": false,
      "stateMutability": "nonpayable",
      "type": "function"
    },
    {
      "constant": false,
      "inputs": [
        {
          "internalType": "string",
          "name": "_publication_uri",
          "type": "string"
        },
        {
          "internalType": "uint8",
          "name": "_pricing_Strategy",
          "type": "uint8"
        },
        {
          "internalType": "uint256",
          "name": "_auctionFloor",
          "type": "uint256"
        },
        {
          "internalType": "uint256",
          "name": "_auctionStartTime",
          "type": "uint256"
        },
        {
          "internalType": "uint256",
          "name": "_auctionDuration",
          "type": "uint256"
        },
        {
          "internalType": "uint256",
          "name": "_fixed_sell_price",
          "type": "uint256"
        },
        {
          "internalType": "uint256",
          "name": "_maxNumberOfLicences",
          "type": "uint256"
        },
        {
          "internalType": "uint256[]",
          "name": "_contributors",
          "type": "uint256[]"
        },
        {
          "internalType": "uint256[]",
          "name": "_contributors_weightings",
          "type": "uint256[]"
        }
      ],
      "name": "createPublication",
      "outputs": [],
      "payable": false,
      "stateMutability": "nonpayable",
      "type": "function"
    },
    {
      "constant": false,
      "inputs": [
        {
          "internalType": "bytes32",
          "name": "_bidHash",
          "type": "bytes32"
        },
        {
          "internalType": "uint256",
          "name": "_publication_Id",
          "type": "uint256"
        }
      ],
      "name": "commitSealedBid",
      "outputs": [],
      "payable": false,
      "stateMutability": "nonpayable",
      "type": "function"
    },
    {
      "constant": false,
      "inputs": [
        {
          "internalType": "uint256",
          "name": "_bid",
          "type": "uint256"
        },
        {
          "internalType": "uint256",
          "name": "_salt",
          "type": "uint256"
        },
        {
          "internalType": "uint256",
          "name": "_publication_Id",
          "type": "uint256"
        },
        {
          "internalType": "uint256",
          "name": "_bid_Id",
          "type": "uint256"
        }
      ],
      "name": "revealSealedBid",
      "outputs": [
        {
          "internalType": "uint256",
          "name": "",
          "type": "uint256"
        }
      ],
      "payable": false,
      "stateMutability": "nonpayable",
      "type": "function"
    },
    {
      "constant": false,
      "inputs": [
        {
          "internalType": "uint256",
          "name": "_auction_Id",
          "type": "uint256"
        }
      ],
      "name": "finalizeAuction",
      "outputs": [
        {
          "internalType": "uint256",
          "name": "",
          "type": "uint256"
        }
      ],
      "payable": false,
      "stateMutability": "nonpayable",
      "type": "function"
    },
    {
      "constant": false,
      "inputs": [],
      "name": "buyLicenceFixedRate",
      "outputs": [],
      "payable": false,
      "stateMutability": "nonpayable",
      "type": "function"
    },
    {
      "constant": true,
      "inputs": [
        {
          "internalType": "address",
          "name": "_address",
          "type": "address"
        }
      ],
      "name": "getPublicationsAuthorAddress",
      "outputs": [
        {
          "internalType": "uint256[]",
          "name": "",
          "type": "uint256[]"
        }
      ],
      "payable": false,
      "stateMutability": "view",
      "type": "function"
    },
    {
      "constant": true,
      "inputs": [
        {
          "internalType": "uint256",
          "name": "_author_Id",
          "type": "uint256"
        }
      ],
      "name": "getPublicationsAuthorId",
      "outputs": [
        {
          "internalType": "uint256[]",
          "name": "",
          "type": "uint256[]"
        }
      ],
      "payable": false,
      "stateMutability": "view",
      "type": "function"
    },
    {
      "constant": true,
      "inputs": [
        {
          "internalType": "uint256",
          "name": "_publication_Id",
          "type": "uint256"
        }
      ],
      "name": "getPublicationLicences",
      "outputs": [
        {
          "internalType": "uint256[]",
          "name": "",
          "type": "uint256[]"
        }
      ],
      "payable": false,
      "stateMutability": "view",
      "type": "function"
    },
    {
      "constant": true,
      "inputs": [
        {
          "internalType": "address",
          "name": "_address",
          "type": "address"
        }
      ],
      "name": "getBids",
      "outputs": [
        {
          "internalType": "uint256[]",
          "name": "",
          "type": "uint256[]"
        }
      ],
      "payable": false,
      "stateMutability": "view",
      "type": "function"
    },
    {
      "constant": true,
      "inputs": [
        {
          "internalType": "uint256",
          "name": "_publication_Id",
          "type": "uint256"
        }
      ],
      "name": "getPublicationAuctions",
      "outputs": [
        {
          "internalType": "uint256[]",
          "name": "",
          "type": "uint256[]"
        }
      ],
      "payable": false,
      "stateMutability": "view",
      "type": "function"
    },
    {
      "constant": true,
      "inputs": [],
      "name": "getPublicationLength",
      "outputs": [
        {
          "internalType": "uint256",
          "name": "",
          "type": "uint256"
        }
      ],
      "payable": false,
      "stateMutability": "view",
      "type": "function"
    },
    {
      "constant": true,
      "inputs": [
        {
          "internalType": "uint256",
          "name": "_publication_Id",
          "type": "uint256"
        }
      ],
      "name": "getPublication",
      "outputs": [
        {
          "internalType": "uint8",
          "name": "",
          "type": "uint8"
        },
        {
          "internalType": "string",
          "name": "",
          "type": "string"
        },
        {
          "internalType": "uint256",
          "name": "",
          "type": "uint256"
        },
        {
          "internalType": "uint256",
          "name": "",
          "type": "uint256"
        },
        {
          "internalType": "uint256",
          "name": "",
          "type": "uint256"
        },
        {
          "internalType": "uint256",
          "name": "",
          "type": "uint256"
        },
        {
          "internalType": "uint256[]",
          "name": "",
          "type": "uint256[]"
        },
        {
          "internalType": "uint256[]",
          "name": "",
          "type": "uint256[]"
        },
        {
          "internalType": "uint256[]",
          "name": "",
          "type": "uint256[]"
        }
      ],
      "payable": false,
      "stateMutability": "view",
      "type": "function"
    },
    {
      "constant": true,
      "inputs": [
        {
          "internalType": "address",
          "name": "_address",
          "type": "address"
        }
      ],
      "name": "getLicenceForAddress",
      "outputs": [
        {
          "internalType": "uint256[]",
          "name": "",
          "type": "uint256[]"
        }
      ],
      "payable": false,
      "stateMutability": "view",
      "type": "function"
    },
    {
      "constant": true,
      "inputs": [
        {
          "internalType": "uint256",
          "name": "_user_Id",
          "type": "uint256"
        }
      ],
      "name": "getLicenceForUserId",
      "outputs": [
        {
          "internalType": "uint256[]",
          "name": "",
          "type": "uint256[]"
        }
      ],
      "payable": false,
      "stateMutability": "view",
      "type": "function"
    },
    {
      "constant": true,
      "inputs": [
        {
          "internalType": "uint256",
          "name": "_licence_Id",
          "type": "uint256"
        }
      ],
      "name": "getLicence",
      "outputs": [
        {
          "internalType": "uint256",
          "name": "",
          "type": "uint256"
        },
        {
          "internalType": "uint256",
          "name": "",
          "type": "uint256"
        },
        {
          "internalType": "uint256",
          "name": "",
          "type": "uint256"
        }
      ],
      "payable": false,
      "stateMutability": "view",
      "type": "function"
    },
    {
      "constant": false,
      "inputs": [
        {
          "internalType": "uint256",
          "name": "_publication_Id",
          "type": "uint256"
        },
        {
          "internalType": "uint256",
          "name": "_value",
          "type": "uint256"
        }
      ],
      "name": "donate",
      "outputs": [],
      "payable": false,
      "stateMutability": "nonpayable",
      "type": "function"
    },
    {
      "constant": true,
      "inputs": [],
      "name": "isCallerRegistered",
      "outputs": [
        {
          "internalType": "bool",
          "name": "",
          "type": "bool"
        }
      ],
      "payable": false,
      "stateMutability": "view",
      "type": "function"
    },
    {
      "constant": true,
      "inputs": [],
      "name": "getCallerId",
      "outputs": [
        {
          "internalType": "uint256",
          "name": "",
          "type": "uint256"
        }
      ],
      "payable": false,
      "stateMutability": "view",
      "type": "function"
    },
    {
      "constant": true,
      "inputs": [
        {
          "internalType": "uint256",
          "name": "_user_Id",
          "type": "uint256"
        }
      ],
      "name": "getUserAddress",
      "outputs": [
        {
          "internalType": "address",
          "name": "",
          "type": "address"
        }
      ],
      "payable": false,
      "stateMutability": "view",
      "type": "function"
    },
    {
      "constant": true,
      "inputs": [
        {
          "internalType": "uint256",
          "name": "_user_Id",
          "type": "uint256"
        },
        {
          "internalType": "uint256",
          "name": "_amount",
          "type": "uint256"
        }
      ],
      "name": "canBidderPay",
      "outputs": [
        {
          "internalType": "bool",
          "name": "",
          "type": "bool"
        }
      ],
      "payable": false,
      "stateMutability": "view",
      "type": "function"
    },
    {
      "constant": true,
      "inputs": [
        {
          "internalType": "uint256",
          "name": "_bidder_Id",
          "type": "uint256"
        }
      ],
      "name": "getBidderBids",
      "outputs": [
        {
          "internalType": "uint256[]",
          "name": "",
          "type": "uint256[]"
        }
      ],
      "payable": false,
      "stateMutability": "view",
      "type": "function"
    }
  ],
  "bytecode": "0x6080604052614bc1806100136000396000f3fe608060405234801561001057600080fd5b50600436106101e55760003560e01c806374e861d61161010f5780639dccae82116100a2578063e06e0e2211610071578063e06e0e221461108c578063e808386314611125578063ec297be614611167578063fbd9d2eb1461119f576101e5565b80639dccae8214610d2f578063a564e83c14610dc8578063a8020ee714610f70578063ad61ccd514611009576101e5565b806383947ea0116100de57806383947ea01461085a578063897f1e4a14610a1b5780638f7cfb6614610a9e57806390d976e214610cc1576101e5565b806374e861d61461075b5780637ece03bb146107a557806380274db7146107c35780638129fc1c14610850576101e5565b8063207f293711610187578063522b0e2311610156578063522b0e23146105ab5780635bc2ff781461062e57806368c5051f14610650578063704f1b94146106a0576101e5565b8063207f2937146103df5780632207fc6a146104625780632cedebee146104c257806351a3534914610512576101e5565b80631220e2ff116101c35780631220e2ff146102af57806313af4035146102b95780631459457a146102fd5780631aa5b7e9146103c1576101e5565b806304686b4a146101ea5780630cdd53f6146101f457806311fcd5461461022c575b600080fd5b6101f2611222565b005b61022a6004803603604081101561020a57600080fd5b810190808035906020019092919080359060200190929190505050611224565b005b6102586004803603602081101561024257600080fd5b810190808035906020019092919050505061191c565b6040518080602001828103825283818151815260200191508051906020019060200280838360005b8381101561029b578082015181840152602081019050610280565b505050509050019250505060405180910390f35b6102b7611a6d565b005b6102fb600480360360208110156102cf57600080fd5b81019080803573ffffffffffffffffffffffffffffffffffffffff169060200190929190505050611a8c565b005b6103bf600480360360a081101561031357600080fd5b81019080803573ffffffffffffffffffffffffffffffffffffffff169060200190929190803573ffffffffffffffffffffffffffffffffffffffff169060200190929190803573ffffffffffffffffffffffffffffffffffffffff169060200190929190803573ffffffffffffffffffffffffffffffffffffffff169060200190929190803573ffffffffffffffffffffffffffffffffffffffff169060200190929190505050611b76565b005b6103c9611e08565b6040518082815260200191505060405180910390f35b61040b600480360360208110156103f557600080fd5b8101908080359060200190929190505050611f62565b6040518080602001828103825283818151815260200191508051906020019060200280838360005b8381101561044e578082015181840152602081019050610433565b505050509050019250505060405180910390f35b6104ac6004803603608081101561047857600080fd5b81019080803590602001909291908035906020019092919080359060200190929190803590602001909291905050506120b3565b6040518082815260200191505060405180910390f35b6104ee600480360360208110156104d857600080fd5b8101908080359060200190929190505050612229565b60405180848152602001838152602001828152602001935050505060405180910390f35b6105546004803603602081101561052857600080fd5b81019080803573ffffffffffffffffffffffffffffffffffffffff1690602001909291905050506122fd565b6040518080602001828103825283818151815260200191508051906020019060200280838360005b8381101561059757808201518184015260208101905061057c565b505050509050019250505060405180910390f35b6105d7600480360360208110156105c157600080fd5b810190808035906020019092919050505061252d565b6040518080602001828103825283818151815260200191508051906020019060200280838360005b8381101561061a5780820151818401526020810190506105ff565b505050509050019250505060405180910390f35b61063661267e565b604051808215151515815260200191505060405180910390f35b6106866004803603604081101561066657600080fd5b81019080803590602001909291908035906020019092919050505061275f565b604051808215151515815260200191505060405180910390f35b610759600480360360208110156106b657600080fd5b81019080803590602001906401000000008111156106d357600080fd5b8201836020820111156106e557600080fd5b8035906020019184600183028401116401000000008311171561070757600080fd5b91908080601f016020809104026020016040519081016040528093929190818152602001838380828437600081840152601f19601f820116905080830192505050505050509192919290505050612858565b005b61076361294d565b604051808273ffffffffffffffffffffffffffffffffffffffff1673ffffffffffffffffffffffffffffffffffffffff16815260200191505060405180910390f35b6107ad612977565b6040518082815260200191505060405180910390f35b61083a600480360360208110156107d957600080fd5b81019080803590602001906401000000008111156107f657600080fd5b82018360208201111561080857600080fd5b8035906020019184600183028401116401000000008311171561082a57600080fd5b9091929391929390505050612a21565b6040518082815260200191505060405180910390f35b610858612b03565b005b610999600480360361012081101561087157600080fd5b81019080803573ffffffffffffffffffffffffffffffffffffffff169060200190929190803573ffffffffffffffffffffffffffffffffffffffff169060200190929190803590602001906401000000008111156108ce57600080fd5b8201836020820111156108e057600080fd5b8035906020019184600183028401116401000000008311171561090257600080fd5b9091929391929390803590602001909291908035906020019092919080359060200190929190803590602001909291908035906020019064010000000081111561094b57600080fd5b82018360208201111561095d57600080fd5b8035906020019184600183028401116401000000008311171561097f57600080fd5b909192939192939080359060200190929190505050612c62565b6040518083815260200180602001828103825283818151815260200191508051906020019080838360005b838110156109df5780820151818401526020810190506109c4565b50505050905090810190601f168015610a0c5780820380516001836020036101000a031916815260200191505b50935050505060405180910390f35b610a4760048036036020811015610a3157600080fd5b8101908080359060200190929190505050612c82565b6040518080602001828103825283818151815260200191508051906020019060200280838360005b83811015610a8a578082015181840152602081019050610a6f565b505050509050019250505060405180910390f35b610cbf6004803603610120811015610ab557600080fd5b8101908080359060200190640100000000811115610ad257600080fd5b820183602082011115610ae457600080fd5b80359060200191846001830284011164010000000083111715610b0657600080fd5b91908080601f016020809104026020016040519081016040528093929190818152602001838380828437600081840152601f19601f820116905080830192505050505050509192919290803560ff169060200190929190803590602001909291908035906020019092919080359060200190929190803590602001909291908035906020019092919080359060200190640100000000811115610ba857600080fd5b820183602082011115610bba57600080fd5b80359060200191846020830284011164010000000083111715610bdc57600080fd5b919080806020026020016040519081016040528093929190818152602001838360200280828437600081840152601f19601f82011690508083019250505050505050919291929080359060200190640100000000811115610c3c57600080fd5b820183602082011115610c4e57600080fd5b80359060200191846020830284011164010000000083111715610c7057600080fd5b919080806020026020016040519081016040528093929190818152602001838360200280828437600081840152601f19601f820116905080830192505050505050509192919290505050612dd3565b005b610ced60048036036020811015610cd757600080fd5b81019080803590602001909291905050506131a8565b604051808273ffffffffffffffffffffffffffffffffffffffff1673ffffffffffffffffffffffffffffffffffffffff16815260200191505060405180910390f35b610d7160048036036020811015610d4557600080fd5b81019080803573ffffffffffffffffffffffffffffffffffffffff16906020019092919050505061325f565b6040518080602001828103825283818151815260200191508051906020019060200280838360005b83811015610db4578082015181840152602081019050610d99565b505050509050019250505060405180910390f35b610df460048036036020811015610dde57600080fd5b810190808035906020019092919050505061348f565b604051808a60ff1660ff1681526020018060200189815260200188815260200187815260200186815260200180602001806020018060200185810385528d818151815260200191508051906020019080838360005b83811015610e64578082015181840152602081019050610e49565b50505050905090810190601f168015610e915780820380516001836020036101000a031916815260200191505b50858103845288818151815260200191508051906020019060200280838360005b83811015610ecd578082015181840152602081019050610eb2565b50505050905001858103835287818151815260200191508051906020019060200280838360005b83811015610f0f578082015181840152602081019050610ef4565b50505050905001858103825286818151815260200191508051906020019060200280838360005b83811015610f51578082015181840152602081019050610f36565b505050509050019d505050505050505050505050505060405180910390f35b610fb260048036036020811015610f8657600080fd5b81019080803573ffffffffffffffffffffffffffffffffffffffff169060200190929190505050613815565b6040518080602001828103825283818151815260200191508051906020019060200280838360005b83811015610ff5578082015181840152602081019050610fda565b505050509050019250505060405180910390f35b611011613906565b6040518080602001828103825283818151815260200191508051906020019080838360005b83811015611051578082015181840152602081019050611036565b50505050905090810190601f16801561107e5780820380516001836020036101000a031916815260200191505b509250505060405180910390f35b611123600480360360808110156110a257600080fd5b81019080803590602001906401000000008111156110bf57600080fd5b8201836020820111156110d157600080fd5b803590602001918460018302840111640100000000831117156110f357600080fd5b90919293919293908035151590602001909291908035906020019092919080359060200190929190505050613943565b005b6111516004803603602081101561113b57600080fd5b8101908080359060200190929190505050613a25565b6040518082815260200191505060405180910390f35b61119d6004803603604081101561117d57600080fd5b81019080803590602001909291908035906020019092919050505061458c565b005b6111cb600480360360208110156111b557600080fd5b8101908080359060200190929190505050614711565b6040518080602001828103825283818151815260200191508051906020019060200280838360005b8381101561120e5780820151818401526020810190506111f3565b505050509050019250505060405180910390f35b565b6000603760009054906101000a900473ffffffffffffffffffffffffffffffffffffffff1673ffffffffffffffffffffffffffffffffffffffff166310a6d0d5846040518263ffffffff1660e01b81526004018082815260200191505060206040518083038186803b15801561129957600080fd5b505afa1580156112ad573d6000803e3d6000fd5b505050506040513d60208110156112c357600080fd5b810190808051906020019092919050505090506000603860009054906101000a900473ffffffffffffffffffffffffffffffffffffffff1673ffffffffffffffffffffffffffffffffffffffff166390d976e2836040518263ffffffff1660e01b81526004018082815260200191505060206040518083038186803b15801561134b57600080fd5b505afa15801561135f573d6000803e3d6000fd5b505050506040513d602081101561137557600080fd5b81019080805190602001909291905050509050606080603760009054906101000a900473ffffffffffffffffffffffffffffffffffffffff1673ffffffffffffffffffffffffffffffffffffffff16639d273ddc876040518263ffffffff1660e01b81526004018082815260200191505060006040518083038186803b1580156113fe57600080fd5b505afa158015611412573d6000803e3d6000fd5b505050506040513d6000823e3d601f19601f82011682018060405250604081101561143c57600080fd5b810190808051604051939291908464010000000082111561145c57600080fd5b8382019150602082018581111561147257600080fd5b825186602082028301116401000000008211171561148f57600080fd5b8083526020830192505050908051906020019060200280838360005b838110156114c65780820151818401526020810190506114ab565b50505050905001604052602001805160405193929190846401000000008211156114ef57600080fd5b8382019150602082018581111561150557600080fd5b825186602082028301116401000000008211171561152257600080fd5b8083526020830192505050908051906020019060200280838360005b8381101561155957808201518184015260208101905061153e565b50505050905001604052505050915091506060603860009054906101000a900473ffffffffffffffffffffffffffffffffffffffff1673ffffffffffffffffffffffffffffffffffffffff16637f4f2e84846040518263ffffffff1660e01b81526004018080602001828103825283818151815260200191508051906020019060200280838360005b838110156115fd5780820151818401526020810190506115e2565b505050509050019250505060006040518083038186803b15801561162057600080fd5b505afa158015611634573d6000803e3d6000fd5b505050506040513d6000823e3d601f19601f82011682018060405250602081101561165e57600080fd5b810190808051604051939291908464010000000082111561167e57600080fd5b8382019150602082018581111561169457600080fd5b82518660208202830111640100000000821117156116b157600080fd5b8083526020830192505050908051906020019060200280838360005b838110156116e85780820151818401526020810190506116cd565b505050509050016040525050509050603960009054906101000a900473ffffffffffffffffffffffffffffffffffffffff1673ffffffffffffffffffffffffffffffffffffffff1663841aee53338684868b6040518663ffffffff1660e01b8152600401808673ffffffffffffffffffffffffffffffffffffffff1673ffffffffffffffffffffffffffffffffffffffff1681526020018573ffffffffffffffffffffffffffffffffffffffff1673ffffffffffffffffffffffffffffffffffffffff1681526020018060200180602001848152602001838103835286818151815260200191508051906020019060200280838360005b838110156117fa5780820151818401526020810190506117df565b50505050905001838103825285818151815260200191508051906020019060200280838360005b8381101561183c578082015181840152602081019050611821565b50505050905001975050505050505050602060405180830381600087803b15801561186657600080fd5b505af115801561187a573d6000803e3d6000fd5b505050506040513d602081101561189057600080fd5b8101908080519060200190929190505050611913576040517f08c379a000000000000000000000000000000000000000000000000000000000815260040180806020018281038252601e8152602001807f42756c6b2061756374696f6e20736574746c656d656e74206661696c6564000081525060200191505060405180910390fd5b50505050505050565b6060603760009054906101000a900473ffffffffffffffffffffffffffffffffffffffff1673ffffffffffffffffffffffffffffffffffffffff1663f88e44a3836040518263ffffffff1660e01b81526004018082815260200191505060006040518083038186803b15801561199157600080fd5b505afa1580156119a5573d6000803e3d6000fd5b505050506040513d6000823e3d601f19601f8201168201806040525060208110156119cf57600080fd5b81019080805160405193929190846401000000008211156119ef57600080fd5b83820191506020820185811115611a0557600080fd5b8251866020820283011164010000000082111715611a2257600080fd5b8083526020830192505050908051906020019060200280838360005b83811015611a59578082015181840152602081019050611a3e565b505050509050016040525050509050919050565b611a8a73d216153c06e857cd7f72665e0af1d7d82172f494614862565b565b3373ffffffffffffffffffffffffffffffffffffffff16603460009054906101000a900473ffffffffffffffffffffffffffffffffffffffff1673ffffffffffffffffffffffffffffffffffffffff1614611b32576040517f08c379a0000000000000000000000000000000000000000000000000000000008152600401808060200182810382526027815260200180614b426027913960400191505060405180910390fd5b80603460006101000a81548173ffffffffffffffffffffffffffffffffffffffff021916908373ffffffffffffffffffffffffffffffffffffffff16021790555050565b600060019054906101000a900460ff1680611b955750611b94614a33565b5b80611bac57506000809054906101000a900460ff16155b611c01576040517f08c379a000000000000000000000000000000000000000000000000000000000815260040180806020018281038252602e815260200180614ae7602e913960400191505060405180910390fd5b60008060019054906101000a900460ff161590508015611c51576001600060016101000a81548160ff02191690831515021790555060016000806101000a81548160ff0219169083151502179055505b33603460006101000a81548173ffffffffffffffffffffffffffffffffffffffff021916908373ffffffffffffffffffffffffffffffffffffffff160217905550611c9a612b03565b85603560006101000a81548173ffffffffffffffffffffffffffffffffffffffff021916908373ffffffffffffffffffffffffffffffffffffffff16021790555084603660006101000a81548173ffffffffffffffffffffffffffffffffffffffff021916908373ffffffffffffffffffffffffffffffffffffffff16021790555083603760006101000a81548173ffffffffffffffffffffffffffffffffffffffff021916908373ffffffffffffffffffffffffffffffffffffffff16021790555082603860006101000a81548173ffffffffffffffffffffffffffffffffffffffff021916908373ffffffffffffffffffffffffffffffffffffffff16021790555081603960006101000a81548173ffffffffffffffffffffffffffffffffffffffff021916908373ffffffffffffffffffffffffffffffffffffffff1602179055508015611e005760008060016101000a81548160ff0219169083151502179055505b505050505050565b600080603860009054906101000a900473ffffffffffffffffffffffffffffffffffffffff1673ffffffffffffffffffffffffffffffffffffffff16632b956ff7336040518263ffffffff1660e01b8152600401808273ffffffffffffffffffffffffffffffffffffffff1673ffffffffffffffffffffffffffffffffffffffff16815260200191505060206040518083038186803b158015611eaa57600080fd5b505afa158015611ebe573d6000803e3d6000fd5b505050506040513d6020811015611ed457600080fd5b810190808051906020019092919050505090506000811415611f5e576040517f08c379a00000000000000000000000000000000000000000000000000000000081526004018080602001828103825260198152602001807f43616c6c6572206973206e6f742072656769737465726564210000000000000081525060200191505060405180910390fd5b5090565b6060603760009054906101000a900473ffffffffffffffffffffffffffffffffffffffff1673ffffffffffffffffffffffffffffffffffffffff1663207f2937836040518263ffffffff1660e01b81526004018082815260200191505060006040518083038186803b158015611fd757600080fd5b505afa158015611feb573d6000803e3d6000fd5b505050506040513d6000823e3d601f19601f82011682018060405250602081101561201557600080fd5b810190808051604051939291908464010000000082111561203557600080fd5b8382019150602082018581111561204b57600080fd5b825186602082028301116401000000008211171561206857600080fd5b8083526020830192505050908051906020019060200280838360005b8381101561209f578082015181840152602081019050612084565b505050509050016040525050509050919050565b600080603760009054906101000a900473ffffffffffffffffffffffffffffffffffffffff1673ffffffffffffffffffffffffffffffffffffffff16636c6167c6856040518263ffffffff1660e01b81526004018082815260200191505060206040518083038186803b15801561212957600080fd5b505afa15801561213d573d6000803e3d6000fd5b505050506040513d602081101561215357600080fd5b810190808051906020019092919050505090506000612170611e08565b9050603560009054906101000a900473ffffffffffffffffffffffffffffffffffffffff1673ffffffffffffffffffffffffffffffffffffffff166394d0f15e88888588866040518663ffffffff1660e01b81526004018086815260200185815260200184815260200183815260200182815260200195505050505050600060405180830381600087803b15801561220757600080fd5b505af115801561221b573d6000803e3d6000fd5b505050505050949350505050565b6000806000603660009054906101000a900473ffffffffffffffffffffffffffffffffffffffff1673ffffffffffffffffffffffffffffffffffffffff16632cedebee856040518263ffffffff1660e01b81526004018082815260200191505060606040518083038186803b1580156122a157600080fd5b505afa1580156122b5573d6000803e3d6000fd5b505050506040513d60608110156122cb57600080fd5b810190808051906020019092919080519060200190929190805190602001909291905050509250925092509193909250565b60606000603860009054906101000a900473ffffffffffffffffffffffffffffffffffffffff1673ffffffffffffffffffffffffffffffffffffffff16632b956ff7846040518263ffffffff1660e01b8152600401808273ffffffffffffffffffffffffffffffffffffffff1673ffffffffffffffffffffffffffffffffffffffff16815260200191505060206040518083038186803b1580156123a057600080fd5b505afa1580156123b4573d6000803e3d6000fd5b505050506040513d60208110156123ca57600080fd5b81019080805190602001909291905050509050603760009054906101000a900473ffffffffffffffffffffffffffffffffffffffff1673ffffffffffffffffffffffffffffffffffffffff1663f88e44a3826040518263ffffffff1660e01b81526004018082815260200191505060006040518083038186803b15801561245057600080fd5b505afa158015612464573d6000803e3d6000fd5b505050506040513d6000823e3d601f19601f82011682018060405250602081101561248e57600080fd5b81019080805160405193929190846401000000008211156124ae57600080fd5b838201915060208201858111156124c457600080fd5b82518660208202830111640100000000821117156124e157600080fd5b8083526020830192505050908051906020019060200280838360005b838110156125185780820151818401526020810190506124fd565b50505050905001604052505050915050919050565b6060603660009054906101000a900473ffffffffffffffffffffffffffffffffffffffff1673ffffffffffffffffffffffffffffffffffffffff16639787bb41836040518263ffffffff1660e01b81526004018082815260200191505060006040518083038186803b1580156125a257600080fd5b505afa1580156125b6573d6000803e3d6000fd5b505050506040513d6000823e3d601f19601f8201168201806040525060208110156125e057600080fd5b810190808051604051939291908464010000000082111561260057600080fd5b8382019150602082018581111561261657600080fd5b825186602082028301116401000000008211171561263357600080fd5b8083526020830192505050908051906020019060200280838360005b8381101561266a57808201518184015260208101905061264f565b505050509050016040525050509050919050565b6000603860009054906101000a900473ffffffffffffffffffffffffffffffffffffffff1673ffffffffffffffffffffffffffffffffffffffff166338b6a3a1336040518263ffffffff1660e01b8152600401808273ffffffffffffffffffffffffffffffffffffffff1673ffffffffffffffffffffffffffffffffffffffff16815260200191505060206040518083038186803b15801561271f57600080fd5b505afa158015612733573d6000803e3d6000fd5b505050506040513d602081101561274957600080fd5b8101908080519060200190929190505050905090565b60008061276b846131a8565b9050603960009054906101000a900473ffffffffffffffffffffffffffffffffffffffff1673ffffffffffffffffffffffffffffffffffffffff1663123beb5182856040518363ffffffff1660e01b8152600401808373ffffffffffffffffffffffffffffffffffffffff1673ffffffffffffffffffffffffffffffffffffffff1681526020018281526020019250505060206040518083038186803b15801561281457600080fd5b505afa158015612828573d6000803e3d6000fd5b505050506040513d602081101561283e57600080fd5b810190808051906020019092919050505091505092915050565b603860009054906101000a900473ffffffffffffffffffffffffffffffffffffffff1673ffffffffffffffffffffffffffffffffffffffff1663cf06c8ca826040518263ffffffff1660e01b81526004018080602001828103825283818151815260200191508051906020019080838360005b838110156128e65780820151818401526020810190506128cb565b50505050905090810190601f1680156129135780820380516001836020036101000a031916815260200191505b5092505050600060405180830381600087803b15801561293257600080fd5b505af1158015612946573d6000803e3d6000fd5b5050505050565b6000603360009054906101000a900473ffffffffffffffffffffffffffffffffffffffff16905090565b6000603760009054906101000a900473ffffffffffffffffffffffffffffffffffffffff1673ffffffffffffffffffffffffffffffffffffffff16637ece03bb6040518163ffffffff1660e01b815260040160206040518083038186803b1580156129e157600080fd5b505afa1580156129f5573d6000803e3d6000fd5b505050506040513d6020811015612a0b57600080fd5b8101908080519060200190929190505050905090565b6000612a2b61294d565b73ffffffffffffffffffffffffffffffffffffffff163373ffffffffffffffffffffffffffffffffffffffff1614612aae576040517f08c379a0000000000000000000000000000000000000000000000000000000008152600401808060200182810382526024815260200180614b696024913960400191505060405180910390fd5b612afb83838080601f016020809104026020016040519081016040528093929190818152602001838380828437600081840152601f19601f82011690508083019250505050505050614a44565b905092915050565b600060019054906101000a900460ff1680612b225750612b21614a33565b5b80612b3957506000809054906101000a900460ff16155b612b8e576040517f08c379a000000000000000000000000000000000000000000000000000000000815260040180806020018281038252602e815260200180614ae7602e913960400191505060405180910390fd5b60008060019054906101000a900460ff161590508015612bde576001600060016101000a81548160ff02191690831515021790555060016000806101000a81548160ff0219169083151502179055505b600073ffffffffffffffffffffffffffffffffffffffff16603360009054906101000a900473ffffffffffffffffffffffffffffffffffffffff1673ffffffffffffffffffffffffffffffffffffffff161415612c3e57612c3d611a6d565b5b8015612c5f5760008060016101000a81548160ff0219169083151502179055505b50565b60006060612c6e614a4b565b915091509b509b9950505050505050505050565b6060603560009054906101000a900473ffffffffffffffffffffffffffffffffffffffff1673ffffffffffffffffffffffffffffffffffffffff1663897f1e4a836040518263ffffffff1660e01b81526004018082815260200191505060006040518083038186803b158015612cf757600080fd5b505afa158015612d0b573d6000803e3d6000fd5b505050506040513d6000823e3d601f19601f820116820180604052506020811015612d3557600080fd5b8101908080516040519392919084640100000000821115612d5557600080fd5b83820191506020820185811115612d6b57600080fd5b8251866020820283011164010000000082111715612d8857600080fd5b8083526020830192505050908051906020019060200280838360005b83811015612dbf578082015181840152602081019050612da4565b505050509050016040525050509050919050565b612ddb61267e565b612e30576040517f08c379a0000000000000000000000000000000000000000000000000000000008152600401808060200182810382526033815260200180614a866033913960400191505060405180910390fd5b6000612e3a611e08565b90506000603760009054906101000a900473ffffffffffffffffffffffffffffffffffffffff1673ffffffffffffffffffffffffffffffffffffffff1663497e192e8b8d858a8a8a8a6040518863ffffffff1660e01b8152600401808860ff1660ff16815260200180602001878152602001868152602001858152602001806020018060200184810384528a818151815260200191508051906020019080838360005b83811015612ef8578082015181840152602081019050612edd565b50505050905090810190601f168015612f255780820380516001836020036101000a031916815260200191505b50848103835286818151815260200191508051906020019060200280838360005b83811015612f61578082015181840152602081019050612f46565b50505050905001848103825285818151815260200191508051906020019060200280838360005b83811015612fa3578082015181840152602081019050612f88565b505050509050019a5050505050505050505050602060405180830381600087803b158015612fd057600080fd5b505af1158015612fe4573d6000803e3d6000fd5b505050506040513d6020811015612ffa57600080fd5b8101908080519060200190929190505050905060018081111561301957fe5b8a60ff16600181111561302857fe5b600181111561303357fe5b1461319b576000603560009054906101000a900473ffffffffffffffffffffffffffffffffffffffff1673ffffffffffffffffffffffffffffffffffffffff1663b8f4e5a5838c8c8c6040518563ffffffff1660e01b815260040180858152602001848152602001838152602001828152602001945050505050602060405180830381600087803b1580156130c757600080fd5b505af11580156130db573d6000803e3d6000fd5b505050506040513d60208110156130f157600080fd5b81019080805190602001909291905050509050603760009054906101000a900473ffffffffffffffffffffffffffffffffffffffff1673ffffffffffffffffffffffffffffffffffffffff1663f8290cde83836040518363ffffffff1660e01b81526004018083815260200182815260200192505050600060405180830381600087803b15801561318157600080fd5b505af1158015613195573d6000803e3d6000fd5b50505050505b5050505050505050505050565b6000603860009054906101000a900473ffffffffffffffffffffffffffffffffffffffff1673ffffffffffffffffffffffffffffffffffffffff166390d976e2836040518263ffffffff1660e01b81526004018082815260200191505060206040518083038186803b15801561321d57600080fd5b505afa158015613231573d6000803e3d6000fd5b505050506040513d602081101561324757600080fd5b81019080805190602001909291905050509050919050565b60606000603860009054906101000a900473ffffffffffffffffffffffffffffffffffffffff1673ffffffffffffffffffffffffffffffffffffffff16632b956ff7846040518263ffffffff1660e01b8152600401808273ffffffffffffffffffffffffffffffffffffffff1673ffffffffffffffffffffffffffffffffffffffff16815260200191505060206040518083038186803b15801561330257600080fd5b505afa158015613316573d6000803e3d6000fd5b505050506040513d602081101561332c57600080fd5b81019080805190602001909291905050509050603560009054906101000a900473ffffffffffffffffffffffffffffffffffffffff1673ffffffffffffffffffffffffffffffffffffffff1663897f1e4a826040518263ffffffff1660e01b81526004018082815260200191505060006040518083038186803b1580156133b257600080fd5b505afa1580156133c6573d6000803e3d6000fd5b505050506040513d6000823e3d601f19601f8201168201806040525060208110156133f057600080fd5b810190808051604051939291908464010000000082111561341057600080fd5b8382019150602082018581111561342657600080fd5b825186602082028301116401000000008211171561344357600080fd5b8083526020830192505050908051906020019060200280838360005b8381101561347a57808201518184015260208101905061345f565b50505050905001604052505050915050919050565b600060606000806000806060806060603760009054906101000a900473ffffffffffffffffffffffffffffffffffffffff1673ffffffffffffffffffffffffffffffffffffffff1663a564e83c8b6040518263ffffffff1660e01b81526004018082815260200191505060006040518083038186803b15801561351157600080fd5b505afa158015613525573d6000803e3d6000fd5b505050506040513d6000823e3d601f19601f8201168201806040525061012081101561355057600080fd5b81019080805190602001909291908051604051939291908464010000000082111561357a57600080fd5b8382019150602082018581111561359057600080fd5b82518660018202830111640100000000821117156135ad57600080fd5b8083526020830192505050908051906020019080838360005b838110156135e15780820151818401526020810190506135c6565b50505050905090810190601f16801561360e5780820380516001836020036101000a031916815260200191505b50604052602001805190602001909291908051906020019092919080519060200190929190805190602001909291908051604051939291908464010000000082111561365957600080fd5b8382019150602082018581111561366f57600080fd5b825186602082028301116401000000008211171561368c57600080fd5b8083526020830192505050908051906020019060200280838360005b838110156136c35780820151818401526020810190506136a8565b50505050905001604052602001805160405193929190846401000000008211156136ec57600080fd5b8382019150602082018581111561370257600080fd5b825186602082028301116401000000008211171561371f57600080fd5b8083526020830192505050908051906020019060200280838360005b8381101561375657808201518184015260208101905061373b565b505050509050016040526020018051604051939291908464010000000082111561377f57600080fd5b8382019150602082018581111561379557600080fd5b82518660208202830111640100000000821117156137b257600080fd5b8083526020830192505050908051906020019060200280838360005b838110156137e95780820151818401526020810190506137ce565b505050509050016040525050509850985098509850985098509850985098509193959799909294969850565b60606000603860009054906101000a900473ffffffffffffffffffffffffffffffffffffffff1673ffffffffffffffffffffffffffffffffffffffff16632b956ff7846040518263ffffffff1660e01b8152600401808273ffffffffffffffffffffffffffffffffffffffff1673ffffffffffffffffffffffffffffffffffffffff16815260200191505060206040518083038186803b1580156138b857600080fd5b505afa1580156138cc573d6000803e3d6000fd5b505050506040513d60208110156138e257600080fd5b810190808051906020019092919050505090506138fe8161252d565b915050919050565b60606040518060400160405280600581526020017f312e302e30000000000000000000000000000000000000000000000000000000815250905090565b61394b61294d565b73ffffffffffffffffffffffffffffffffffffffff163373ffffffffffffffffffffffffffffffffffffffff16146139ce576040517f08c379a0000000000000000000000000000000000000000000000000000000008152600401808060200182810382526024815260200180614b696024913960400191505060405180910390fd5b613a1e85858080601f016020809104026020016040519081016040528093929190818152602001838380828437600081840152601f19601f82011690508083019250505050505050848484614a6f565b5050505050565b600080600080603560009054906101000a900473ffffffffffffffffffffffffffffffffffffffff1673ffffffffffffffffffffffffffffffffffffffff1663e8083863866040518263ffffffff1660e01b815260040180828152602001915050606060405180830381600087803b158015613aa057600080fd5b505af1158015613ab4573d6000803e3d6000fd5b505050506040513d6060811015613aca57600080fd5b8101908080519060200190929190805190602001909291908051906020019092919050505092509250925060008311613b6b576040517f08c379a000000000000000000000000000000000000000000000000000000000815260040180806020018281038252601a8152602001807f496e76616c69642077696e6e696e672062696420616d6f756e7400000000000081525060200191505060405180910390fd5b60008211613be1576040517f08c379a00000000000000000000000000000000000000000000000000000000081526004018080602001828103825260168152602001807f496e76616c69642077696e6e696e67206269642049640000000000000000000081525060200191505060405180910390fd5b60008111613c57576040517f08c379a00000000000000000000000000000000000000000000000000000000081526004018080602001828103825260168152602001807f496e76616c6964207075626c69636174696f6e2049640000000000000000000081525060200191505060405180910390fd5b6000603760009054906101000a900473ffffffffffffffffffffffffffffffffffffffff1673ffffffffffffffffffffffffffffffffffffffff166310a6d0d5836040518263ffffffff1660e01b81526004018082815260200191505060206040518083038186803b158015613ccc57600080fd5b505afa158015613ce0573d6000803e3d6000fd5b505050506040513d6020811015613cf657600080fd5b810190808051906020019092919050505090506000603860009054906101000a900473ffffffffffffffffffffffffffffffffffffffff1673ffffffffffffffffffffffffffffffffffffffff166390d976e2836040518263ffffffff1660e01b81526004018082815260200191505060206040518083038186803b158015613d7e57600080fd5b505afa158015613d92573d6000803e3d6000fd5b505050506040513d6020811015613da857600080fd5b810190808051906020019092919050505090506000603860009054906101000a900473ffffffffffffffffffffffffffffffffffffffff1673ffffffffffffffffffffffffffffffffffffffff166390d976e2866040518263ffffffff1660e01b81526004018082815260200191505060206040518083038186803b158015613e3057600080fd5b505afa158015613e44573d6000803e3d6000fd5b505050506040513d6020811015613e5a57600080fd5b81019080805190602001909291905050509050606080603760009054906101000a900473ffffffffffffffffffffffffffffffffffffffff1673ffffffffffffffffffffffffffffffffffffffff16639d273ddc876040518263ffffffff1660e01b81526004018082815260200191505060006040518083038186803b158015613ee357600080fd5b505afa158015613ef7573d6000803e3d6000fd5b505050506040513d6000823e3d601f19601f820116820180604052506040811015613f2157600080fd5b8101908080516040519392919084640100000000821115613f4157600080fd5b83820191506020820185811115613f5757600080fd5b8251866020820283011164010000000082111715613f7457600080fd5b8083526020830192505050908051906020019060200280838360005b83811015613fab578082015181840152602081019050613f90565b5050505090500160405260200180516040519392919084640100000000821115613fd457600080fd5b83820191506020820185811115613fea57600080fd5b825186602082028301116401000000008211171561400757600080fd5b8083526020830192505050908051906020019060200280838360005b8381101561403e578082015181840152602081019050614023565b50505050905001604052505050915091506060603860009054906101000a900473ffffffffffffffffffffffffffffffffffffffff1673ffffffffffffffffffffffffffffffffffffffff16637f4f2e84846040518263ffffffff1660e01b81526004018080602001828103825283818151815260200191508051906020019060200280838360005b838110156140e25780820151818401526020810190506140c7565b505050509050019250505060006040518083038186803b15801561410557600080fd5b505afa158015614119573d6000803e3d6000fd5b505050506040513d6000823e3d601f19601f82011682018060405250602081101561414357600080fd5b810190808051604051939291908464010000000082111561416357600080fd5b8382019150602082018581111561417957600080fd5b825186602082028301116401000000008211171561419657600080fd5b8083526020830192505050908051906020019060200280838360005b838110156141cd5780820151818401526020810190506141b2565b505050509050016040525050509050603960009054906101000a900473ffffffffffffffffffffffffffffffffffffffff1673ffffffffffffffffffffffffffffffffffffffff1663841aee53858784868e6040518663ffffffff1660e01b8152600401808673ffffffffffffffffffffffffffffffffffffffff1673ffffffffffffffffffffffffffffffffffffffff1681526020018573ffffffffffffffffffffffffffffffffffffffff1673ffffffffffffffffffffffffffffffffffffffff1681526020018060200180602001848152602001838103835286818151815260200191508051906020019060200280838360005b838110156142df5780820151818401526020810190506142c4565b50505050905001838103825285818151815260200191508051906020019060200280838360005b83811015614321578082015181840152602081019050614306565b50505050905001975050505050505050602060405180830381600087803b15801561434b57600080fd5b505af115801561435f573d6000803e3d6000fd5b505050506040513d602081101561437557600080fd5b81019080805190602001909291905050506143f8576040517f08c379a000000000000000000000000000000000000000000000000000000000815260040180806020018281038252601e8152602001807f42756c6b2061756374696f6e20736574746c656d656e74206661696c6564000081525060200191505060405180910390fd5b6000603760009054906101000a900473ffffffffffffffffffffffffffffffffffffffff1673ffffffffffffffffffffffffffffffffffffffff1663755f538c896040518263ffffffff1660e01b815260040180828152602001915050602060405180830381600087803b15801561446f57600080fd5b505af1158015614483573d6000803e3d6000fd5b505050506040513d602081101561449957600080fd5b81019080805190602001909291905050509050603660009054906101000a900473ffffffffffffffffffffffffffffffffffffffff1673ffffffffffffffffffffffffffffffffffffffff1663af5485a8868b8b856040518563ffffffff1660e01b8152600401808573ffffffffffffffffffffffffffffffffffffffff1673ffffffffffffffffffffffffffffffffffffffff168152602001848152602001838152602001828152602001945050505050600060405180830381600087803b15801561456557600080fd5b505af1158015614579573d6000803e3d6000fd5b5050505050505050505050505050919050565b6000603760009054906101000a900473ffffffffffffffffffffffffffffffffffffffff1673ffffffffffffffffffffffffffffffffffffffff16636c6167c6836040518263ffffffff1660e01b81526004018082815260200191505060206040518083038186803b15801561460157600080fd5b505afa158015614615573d6000803e3d6000fd5b505050506040513d602081101561462b57600080fd5b810190808051906020019092919050505090506000614648611e08565b9050603560009054906101000a900473ffffffffffffffffffffffffffffffffffffffff1673ffffffffffffffffffffffffffffffffffffffff16633288895a8584846040518463ffffffff1660e01b8152600401808481526020018381526020018281526020019350505050602060405180830381600087803b1580156146cf57600080fd5b505af11580156146e3573d6000803e3d6000fd5b505050506040513d60208110156146f957600080fd5b81019080805190602001909291905050505050505050565b6060603660009054906101000a900473ffffffffffffffffffffffffffffffffffffffff1673ffffffffffffffffffffffffffffffffffffffff1663fbd9d2eb836040518263ffffffff1660e01b81526004018082815260200191505060006040518083038186803b15801561478657600080fd5b505afa15801561479a573d6000803e3d6000fd5b505050506040513d6000823e3d601f19601f8201168201806040525060208110156147c457600080fd5b81019080805160405193929190846401000000008211156147e457600080fd5b838201915060208201858111156147fa57600080fd5b825186602082028301116401000000008211171561481757600080fd5b8083526020830192505050908051906020019060200280838360005b8381101561484e578082015181840152602081019050614833565b505050509050016040525050509050919050565b6000603360009054906101000a900473ffffffffffffffffffffffffffffffffffffffff169050600073ffffffffffffffffffffffffffffffffffffffff168273ffffffffffffffffffffffffffffffffffffffff16141561490f576040517f08c379a000000000000000000000000000000000000000000000000000000000815260040180806020018281038252602e815260200180614ab9602e913960400191505060405180910390fd5b8073ffffffffffffffffffffffffffffffffffffffff168273ffffffffffffffffffffffffffffffffffffffff161415614994576040517f08c379a000000000000000000000000000000000000000000000000000000000815260040180806020018281038252602d815260200180614b15602d913960400191505060405180910390fd5b8173ffffffffffffffffffffffffffffffffffffffff168173ffffffffffffffffffffffffffffffffffffffff167fb9f84b8e65164b14439ae3620df0a4d8786d896996c0282b683f9d8c08f046e860405160405180910390a381603360006101000a81548173ffffffffffffffffffffffffffffffffffffffff021916908373ffffffffffffffffffffffffffffffffffffffff1602179055505050565b600080303b90506000811491505090565b6000919050565b60006060614a6760405180602001604052806000815250614a75565b915091509091565b50505050565b600060606000839150915091509156fe43616e74206372656174652061207075626c69636174696f6e20696620796f7520617265206e6f74207265676973746572656447534e526563697069656e743a206e65772052656c617948756220697320746865207a65726f2061646472657373436f6e747261637420696e7374616e63652068617320616c7265616479206265656e20696e697469616c697a656447534e526563697069656e743a206e65772052656c6179487562206973207468652063757272656e74206f6e654f6e6c79206f776e65722063616e206368616e676520746865206f776e6572206164647265737347534e526563697069656e743a2063616c6c6572206973206e6f742052656c6179487562a265627a7a72315820df9444cd4ad36b2d2502d22ad2800482b8bf8c85e6b36173e42d805ef5731a4564736f6c634300050c0032",
  "source": "pragma solidity ^0.5.12;\n\n/// @title UniCoin smart contract\n/// @author Chris Maree\n\nimport \"@openzeppelin/contracts-ethereum-package/contracts/GSN/GSNRecipient.sol\";\nimport \"@openzeppelin/upgrades/contracts/Initializable.sol\";\n\nimport \"./AuctionManager.sol\";\nimport \"./LicenceManager.sol\";\nimport \"./PublicationManager.sol\";\nimport \"./UserManager.sol\";\nimport \"./Vault.sol\";\n\ncontract UnicoinRegistry is Initializable, GSNRecipient {\n    address owner;\n\n    AuctionManager private auctionManager;\n    LicenceManager private licenceManager;\n    PublicationManager private publicationManager;\n    UserManager private userManager;\n    Vault private vault;\n\n    enum PricingStrategy {PrivateAuction, FixedRate}\n\n    function initialize(\n        address _auctionManager,\n        address _licenceManager,\n        address _publicationManager,\n        address _userManager,\n        address _vault\n    ) public initializer {\n        owner = msg.sender;\n\n        GSNRecipient.initialize();\n\n        auctionManager = AuctionManager(_auctionManager);\n        licenceManager = LicenceManager(_licenceManager);\n        publicationManager = PublicationManager(_publicationManager);\n        userManager = UserManager(_userManager);\n        vault = Vault(_vault);\n\n    }\n\n    // accept all requests\n    function acceptRelayedCall(\n        address,\n        address,\n        bytes calldata,\n        uint256,\n        uint256,\n        uint256,\n        uint256,\n        bytes calldata,\n        uint256\n    ) external view returns (uint256, bytes memory) {\n        return _approveRelayedCall();\n    }\n\n    function _preRelayedCall(bytes memory context) internal returns (bytes32) {\n        // solhint-disable-previous-line no-empty-blocks\n    }\n\n    function _postRelayedCall(\n        bytes memory context,\n        bool,\n        uint256 actualCharge,\n        bytes32\n    ) internal {\n        // solhint-disable-previous-line no-empty-blocks\n    }\n\n    function setOwner(address _owner) public {\n        require(owner == msg.sender, \"Only owner can change the owner address\");\n        owner = _owner;\n    }\n\n    function registerUser(string memory _profile_uri) public {\n        userManager._registerUser(_profile_uri);\n    }\n    function createPublication(\n        string memory _publication_uri,\n        uint8 _pricing_Strategy,\n        uint256 _auctionFloor,\n        uint256 _auctionStartTime,\n        uint256 _auctionDuration,\n        uint256 _fixed_sell_price,\n        uint256 _maxNumberOfLicences,\n        uint256[] memory _contributors,\n        uint256[] memory _contributors_weightings\n    ) public {\n        require(\n            isCallerRegistered(),\n            \"Cant create a publication if you are not registered\"\n        );\n        uint256 author_id = getCallerId();\n        uint256 publicationId = publicationManager._createPublication(\n            _pricing_Strategy,\n            _publication_uri,\n            author_id,\n            _fixed_sell_price,\n            _maxNumberOfLicences,\n            _contributors,\n            _contributors_weightings\n        );\n\n        if (PricingStrategy(_pricing_Strategy) != PricingStrategy.FixedRate) {\n            uint256 auctionId = auctionManager._createAuction(\n                publicationId,\n                _auctionFloor,\n                _auctionStartTime,\n                _auctionDuration\n            );\n            publicationManager._addAuctionToPublication(\n                publicationId,\n                auctionId\n            );\n        }\n    }\n\n    function commitSealedBid(bytes32 _bidHash, uint256 _publication_Id) public {\n        uint256 auction_Id = publicationManager.getLatestAuctionId(\n            _publication_Id\n        );\n        uint256 bidder_Id = getCallerId();\n        auctionManager.commitSealedBid(_bidHash, auction_Id, bidder_Id);\n    }\n\n    function revealSealedBid(\n        uint256 _bid,\n        uint256 _salt,\n        uint256 _publication_Id,\n        uint256 _bid_Id\n    ) public returns (uint256) {\n        uint256 auction_Id = publicationManager.getLatestAuctionId(\n            _publication_Id\n        );\n        uint256 bidder_Id = getCallerId();\n        auctionManager.revealSealedBid(\n            _bid,\n            _salt,\n            auction_Id,\n            _bid_Id,\n            bidder_Id\n        );\n    }\n\n    function finalizeAuction(uint256 _auction_Id) public returns (uint256) {\n        (uint256 winningBidAmount, uint256 winningBiderId, uint256 publicationId) = auctionManager\n            .finalizeAuction(_auction_Id);\n\n        require(winningBidAmount > 0, \"Invalid winning bid amount\");\n        require(winningBiderId > 0, \"Invalid winning bid Id\");\n        require(publicationId > 0, \"Invalid publication Id\");\n\n        uint256 authorId = publicationManager.getAuthorId(publicationId);\n        address authorAddress = userManager.getUserAddress(authorId);\n        address winningBidderAddress = userManager.getUserAddress(\n            winningBiderId\n        );\n\n        (uint256[] memory contributorIds, uint256[] memory contributorWeightings) = publicationManager\n            ._getContributers(publicationId);\n\n        address[] memory contributorAddresses = userManager.getAddressArray(\n            contributorIds\n        );\n\n        require(\n            vault.settleBulkPayment(\n                winningBidderAddress,\n                authorAddress,\n                contributorAddresses,\n                contributorWeightings,\n                winningBidAmount\n            ),\n            \"Bulk auction settlement failed\"\n        );\n\n        uint256 publicationLicenceNo = publicationManager\n            .addNewLicenceToPublication(publicationId);\n\n        licenceManager.registerNewLicence(\n            winningBidderAddress,\n            winningBiderId,\n            publicationId,\n            publicationLicenceNo\n        );\n    }\n\n    function buyLicenceFixedRate() public {}\n\n    function getPublicationsAuthorAddress(address _address)\n        public\n        view\n        returns (uint256[] memory)\n    {\n        uint256 author_Id = userManager.getUserId(_address);\n        return publicationManager.getAuthorPublications(author_Id);\n    }\n\n    function getPublicationsAuthorId(uint256 _author_Id)\n        public\n        view\n        returns (uint256[] memory)\n    {\n        return publicationManager.getAuthorPublications(_author_Id);\n    }\n\n    function getPublicationLicences(uint256 _publication_Id)\n        public\n        view\n        returns (uint256[] memory)\n    {\n        return licenceManager.getPublicationLicences(_publication_Id);\n    }\n\n    function getBids(address _address) public view returns (uint256[] memory) {\n        uint256 userAddress = userManager.getUserId(_address);\n        return auctionManager.getBidderBids(userAddress);\n    }\n\n    function getPublicationAuctions(uint256 _publication_Id)\n        public\n        view\n        returns (uint256[] memory)\n    {\n        return publicationManager.getPublicationAuctions(_publication_Id);\n    }\n\n    function getPublicationLength() public view returns (uint256) {\n        return publicationManager.getPublicationLength();\n    }\n\n    function getPublication(uint256 _publication_Id)\n        public\n        view\n        returns (\n            uint8,\n            string memory,\n            uint256,\n            uint256,\n            uint256,\n            uint256,\n            uint256[] memory,\n            uint256[] memory,\n            uint256[] memory\n        )\n    {\n        return (publicationManager.getPublication(_publication_Id));\n    }\n\n    function getLicenceForAddress(address _address)\n        public\n        view\n        returns (uint256[] memory)\n    {\n        uint256 user_Id = userManager.getUserId(_address);\n        return getLicenceForUserId(user_Id);\n    }\n\n    function getLicenceForUserId(uint256 _user_Id)\n        public\n        view\n        returns (uint256[] memory)\n    {\n        return licenceManager.getLicenceForUser(_user_Id);\n    }\n\n    function getLicence(uint256 _licence_Id)\n        public\n        view\n        returns (uint256, uint256, uint256)\n    {\n        return (licenceManager.getLicence(_licence_Id));\n    }\n\n    function donate(uint256 _publication_Id, uint256 _value) public {\n        uint256 authorId = publicationManager.getAuthorId(_publication_Id);\n        address authorAddress = userManager.getUserAddress(authorId);\n\n        (uint256[] memory contributorIds, uint256[] memory contributorWeightings) = publicationManager\n            ._getContributers(_publication_Id);\n\n        address[] memory contributorAddresses = userManager.getAddressArray(\n            contributorIds\n        );\n\n        require(\n            vault.settleBulkPayment(\n                msg.sender,\n                authorAddress,\n                contributorAddresses,\n                contributorWeightings,\n                _value\n            ),\n            \"Bulk auction settlement failed\"\n        );\n    }\n\n    function isCallerRegistered() public view returns (bool) {\n        return userManager.isAddressRegistered(msg.sender);\n    }\n\n    function getCallerId() public view returns (uint256) {\n        uint256 callerId = userManager.getUserId(msg.sender);\n        require(callerId != 0, \"Caller is not registered!\");\n    }\n\n    function getUserAddress(uint256 _user_Id) public view returns (address) {\n        return userManager.getUserAddress(_user_Id);\n    }\n\n    function canBidderPay(uint256 _user_Id, uint256 _amount)\n        public\n        view\n        returns (bool)\n    {\n        address userAddress = getUserAddress(_user_Id);\n        return vault.canBidderPay(userAddress, _amount);\n    }\n\n    function getBidderBids(uint256 _bidder_Id)\n        public\n        view\n        returns (uint256[] memory)\n    {\n        return auctionManager.getBidderBids(_bidder_Id);\n    }\n}\n",
  "sourcePath": "/Users/chris/Projects/unicoindapp/contracts/UnicoinRegistry.sol",
  "compiler": {
    "name": "solc",
    "version": "0.5.12+commit.7709ece9.Emscripten.clang"
  },
  "schemaVersion": "3.0.16",
  "updatedAt": "2019-11-27T14:14:24.259Z",
  "devdoc": {
    "methods": {
      "getHubAddr()": {
        "details": "Returns the address of the {IRelayHub} contract for this recipient."
      },
      "postRelayedCall(bytes,bool,uint256,bytes32)": {
        "details": "See `IRelayRecipient.postRelayedCall`.     * This function should not be overriden directly, use `_postRelayedCall` instead.     * * Requirements:     * - the caller must be the `RelayHub` contract."
      },
      "preRelayedCall(bytes)": {
        "details": "See `IRelayRecipient.preRelayedCall`.     * This function should not be overriden directly, use `_preRelayedCall` instead.     * * Requirements:     * - the caller must be the `RelayHub` contract."
      },
      "relayHubVersion()": {
        "details": "Returns the version string of the {IRelayHub} for which this recipient implementation was built. If {_upgradeRelayHub} is used, the new {IRelayHub} instance should be compatible with this version."
      }
    }
  },
  "userdoc": {
    "methods": {}
  }
}