{
  "contractName": "UnicoinRegistry",
  "abi": [
    {
      "anonymous": false,
      "inputs": [
        {
          "indexed": true,
          "internalType": "address",
          "name": "oldRelayHub",
          "type": "address"
        },
        {
          "indexed": true,
          "internalType": "address",
          "name": "newRelayHub",
          "type": "address"
        }
      ],
      "name": "RelayHubChanged",
      "type": "event"
    },
    {
      "constant": true,
      "inputs": [],
      "name": "getHubAddr",
      "outputs": [
        {
          "internalType": "address",
          "name": "",
          "type": "address"
        }
      ],
      "payable": false,
      "stateMutability": "view",
      "type": "function"
    },
    {
      "constant": false,
      "inputs": [
        {
          "internalType": "bytes",
          "name": "context",
          "type": "bytes"
        },
        {
          "internalType": "bool",
          "name": "success",
          "type": "bool"
        },
        {
          "internalType": "uint256",
          "name": "actualCharge",
          "type": "uint256"
        },
        {
          "internalType": "bytes32",
          "name": "preRetVal",
          "type": "bytes32"
        }
      ],
      "name": "postRelayedCall",
      "outputs": [],
      "payable": false,
      "stateMutability": "nonpayable",
      "type": "function"
    },
    {
      "constant": false,
      "inputs": [
        {
          "internalType": "bytes",
          "name": "context",
          "type": "bytes"
        }
      ],
      "name": "preRelayedCall",
      "outputs": [
        {
          "internalType": "bytes32",
          "name": "",
          "type": "bytes32"
        }
      ],
      "payable": false,
      "stateMutability": "nonpayable",
      "type": "function"
    },
    {
      "constant": true,
      "inputs": [],
      "name": "relayHubVersion",
      "outputs": [
        {
          "internalType": "string",
          "name": "",
          "type": "string"
        }
      ],
      "payable": false,
      "stateMutability": "view",
      "type": "function"
    },
    {
      "constant": false,
      "inputs": [],
      "name": "setDefaultRelayHub",
      "outputs": [],
      "payable": false,
      "stateMutability": "nonpayable",
      "type": "function"
    },
    {
      "constant": false,
      "inputs": [],
      "name": "initialize",
      "outputs": [],
      "payable": false,
      "stateMutability": "nonpayable",
      "type": "function"
    },
    {
      "constant": false,
      "inputs": [
        {
          "internalType": "address",
          "name": "_auctionManager",
          "type": "address"
        },
        {
          "internalType": "address",
          "name": "_licenceManager",
          "type": "address"
        },
        {
          "internalType": "address",
          "name": "_publicationManager",
          "type": "address"
        },
        {
          "internalType": "address",
          "name": "_userManager",
          "type": "address"
        },
        {
          "internalType": "address",
          "name": "_harbergerTaxManager",
          "type": "address"
        },
        {
          "internalType": "address",
          "name": "_vault",
          "type": "address"
        }
      ],
      "name": "initialize",
      "outputs": [],
      "payable": false,
      "stateMutability": "nonpayable",
      "type": "function"
    },
    {
      "constant": true,
      "inputs": [
        {
          "internalType": "address",
          "name": "",
          "type": "address"
        },
        {
          "internalType": "address",
          "name": "",
          "type": "address"
        },
        {
          "internalType": "bytes",
          "name": "",
          "type": "bytes"
        },
        {
          "internalType": "uint256",
          "name": "",
          "type": "uint256"
        },
        {
          "internalType": "uint256",
          "name": "",
          "type": "uint256"
        },
        {
          "internalType": "uint256",
          "name": "",
          "type": "uint256"
        },
        {
          "internalType": "uint256",
          "name": "",
          "type": "uint256"
        },
        {
          "internalType": "bytes",
          "name": "",
          "type": "bytes"
        },
        {
          "internalType": "uint256",
          "name": "",
          "type": "uint256"
        }
      ],
      "name": "acceptRelayedCall",
      "outputs": [
        {
          "internalType": "uint256",
          "name": "",
          "type": "uint256"
        },
        {
          "internalType": "bytes",
          "name": "",
          "type": "bytes"
        }
      ],
      "payable": false,
      "stateMutability": "view",
      "type": "function"
    },
    {
      "constant": false,
      "inputs": [
        {
          "internalType": "address",
          "name": "_owner",
          "type": "address"
        }
      ],
      "name": "setOwner",
      "outputs": [],
      "payable": false,
      "stateMutability": "nonpayable",
      "type": "function"
    },
    {
      "constant": false,
      "inputs": [
        {
          "internalType": "string",
          "name": "_profile_uri",
          "type": "string"
        }
      ],
      "name": "registerUser",
      "outputs": [
        {
          "internalType": "uint256",
          "name": "",
          "type": "uint256"
        }
      ],
      "payable": false,
      "stateMutability": "nonpayable",
      "type": "function"
    },
    {
      "constant": false,
      "inputs": [
        {
          "internalType": "uint8",
          "name": "_pricing_Strategy",
          "type": "uint8"
        },
        {
          "internalType": "string",
          "name": "_publication_uri",
          "type": "string"
        },
        {
          "internalType": "uint256",
          "name": "_auctionFloor",
          "type": "uint256"
        },
        {
          "internalType": "uint256",
          "name": "_auctionStartTime",
          "type": "uint256"
        },
        {
          "internalType": "uint256",
          "name": "_auctionDuration",
          "type": "uint256"
        },
        {
          "internalType": "uint256",
          "name": "_fixed_sell_price",
          "type": "uint256"
        },
        {
          "internalType": "uint256",
          "name": "_maxNumberOfLicences",
          "type": "uint256"
        },
        {
          "internalType": "uint256[]",
          "name": "_contributors",
          "type": "uint256[]"
        },
        {
          "internalType": "uint256[]",
          "name": "_contributors_weightings",
          "type": "uint256[]"
        }
      ],
      "name": "createPublication",
      "outputs": [],
      "payable": false,
      "stateMutability": "nonpayable",
      "type": "function"
    },
    {
      "constant": false,
      "inputs": [
        {
          "internalType": "bytes32",
          "name": "_bidHash",
          "type": "bytes32"
        },
        {
          "internalType": "uint256",
          "name": "_publication_Id",
          "type": "uint256"
        }
      ],
      "name": "commitSealedBid",
      "outputs": [],
      "payable": false,
      "stateMutability": "nonpayable",
      "type": "function"
    },
    {
      "constant": false,
      "inputs": [
        {
          "internalType": "uint256",
          "name": "_bid",
          "type": "uint256"
        },
        {
          "internalType": "uint256",
          "name": "_salt",
          "type": "uint256"
        },
        {
          "internalType": "uint256",
          "name": "_publication_Id",
          "type": "uint256"
        },
        {
          "internalType": "uint256",
          "name": "_bid_Id",
          "type": "uint256"
        }
      ],
      "name": "revealSealedBid",
      "outputs": [
        {
          "internalType": "uint256",
          "name": "",
          "type": "uint256"
        }
      ],
      "payable": false,
      "stateMutability": "nonpayable",
      "type": "function"
    },
    {
      "constant": false,
      "inputs": [
        {
          "internalType": "uint256",
          "name": "_auction_Id",
          "type": "uint256"
        }
      ],
      "name": "finalizeAuction",
      "outputs": [
        {
          "internalType": "uint256",
          "name": "",
          "type": "uint256"
        }
      ],
      "payable": false,
      "stateMutability": "nonpayable",
      "type": "function"
    },
    {
      "constant": false,
      "inputs": [],
      "name": "buyLicenceFixedRate",
      "outputs": [],
      "payable": false,
      "stateMutability": "nonpayable",
      "type": "function"
    },
    {
      "constant": false,
      "inputs": [
        {
          "internalType": "uint256",
          "name": "_buyOut_Id",
          "type": "uint256"
        }
      ],
      "name": "finalizeBuyoutOffer",
      "outputs": [],
      "payable": false,
      "stateMutability": "nonpayable",
      "type": "function"
    },
    {
      "constant": true,
      "inputs": [
        {
          "internalType": "uint256",
          "name": "_publication_Id",
          "type": "uint256"
        }
      ],
      "name": "getMinBuyOutAmount",
      "outputs": [
        {
          "internalType": "uint256",
          "name": "",
          "type": "uint256"
        }
      ],
      "payable": false,
      "stateMutability": "view",
      "type": "function"
    },
    {
      "constant": true,
      "inputs": [
        {
          "internalType": "address",
          "name": "_address",
          "type": "address"
        }
      ],
      "name": "getPublicationsAuthorAddress",
      "outputs": [
        {
          "internalType": "uint256[]",
          "name": "",
          "type": "uint256[]"
        }
      ],
      "payable": false,
      "stateMutability": "view",
      "type": "function"
    },
    {
      "constant": true,
      "inputs": [
        {
          "internalType": "uint256",
          "name": "_author_Id",
          "type": "uint256"
        }
      ],
      "name": "getPublicationsAuthorId",
      "outputs": [
        {
          "internalType": "uint256[]",
          "name": "",
          "type": "uint256[]"
        }
      ],
      "payable": false,
      "stateMutability": "view",
      "type": "function"
    },
    {
      "constant": true,
      "inputs": [
        {
          "internalType": "uint256",
          "name": "_publication_Id",
          "type": "uint256"
        }
      ],
      "name": "getPublicationLicences",
      "outputs": [
        {
          "internalType": "uint256[]",
          "name": "",
          "type": "uint256[]"
        }
      ],
      "payable": false,
      "stateMutability": "view",
      "type": "function"
    },
    {
      "constant": true,
      "inputs": [
        {
          "internalType": "address",
          "name": "_address",
          "type": "address"
        }
      ],
      "name": "getBids",
      "outputs": [
        {
          "internalType": "uint256[]",
          "name": "",
          "type": "uint256[]"
        }
      ],
      "payable": false,
      "stateMutability": "view",
      "type": "function"
    },
    {
      "constant": true,
      "inputs": [
        {
          "internalType": "uint256",
          "name": "_publication_Id",
          "type": "uint256"
        }
      ],
      "name": "getPublicationAuctions",
      "outputs": [
        {
          "internalType": "uint256[]",
          "name": "",
          "type": "uint256[]"
        }
      ],
      "payable": false,
      "stateMutability": "view",
      "type": "function"
    },
    {
      "constant": true,
      "inputs": [],
      "name": "getPublicationLength",
      "outputs": [
        {
          "internalType": "uint256",
          "name": "",
          "type": "uint256"
        }
      ],
      "payable": false,
      "stateMutability": "view",
      "type": "function"
    },
    {
      "constant": true,
      "inputs": [
        {
          "internalType": "uint256",
          "name": "_publication_Id",
          "type": "uint256"
        }
      ],
      "name": "getPublication",
      "outputs": [
        {
          "internalType": "uint8",
          "name": "",
          "type": "uint8"
        },
        {
          "internalType": "string",
          "name": "",
          "type": "string"
        },
        {
          "internalType": "uint256",
          "name": "",
          "type": "uint256"
        },
        {
          "internalType": "uint256",
          "name": "",
          "type": "uint256"
        },
        {
          "internalType": "uint256",
          "name": "",
          "type": "uint256"
        },
        {
          "internalType": "uint256",
          "name": "",
          "type": "uint256"
        },
        {
          "internalType": "uint256[]",
          "name": "",
          "type": "uint256[]"
        },
        {
          "internalType": "uint256[]",
          "name": "",
          "type": "uint256[]"
        },
        {
          "internalType": "uint256[]",
          "name": "",
          "type": "uint256[]"
        }
      ],
      "payable": false,
      "stateMutability": "view",
      "type": "function"
    },
    {
      "constant": true,
      "inputs": [
        {
          "internalType": "address",
          "name": "_address",
          "type": "address"
        }
      ],
      "name": "getLicenceForAddress",
      "outputs": [
        {
          "internalType": "uint256[]",
          "name": "",
          "type": "uint256[]"
        }
      ],
      "payable": false,
      "stateMutability": "view",
      "type": "function"
    },
    {
      "constant": true,
      "inputs": [
        {
          "internalType": "uint256",
          "name": "_user_Id",
          "type": "uint256"
        }
      ],
      "name": "getLicenceForUserId",
      "outputs": [
        {
          "internalType": "uint256[]",
          "name": "",
          "type": "uint256[]"
        }
      ],
      "payable": false,
      "stateMutability": "view",
      "type": "function"
    },
    {
      "constant": true,
      "inputs": [
        {
          "internalType": "uint256",
          "name": "_licence_Id",
          "type": "uint256"
        }
      ],
      "name": "getLicence",
      "outputs": [
        {
          "internalType": "uint256",
          "name": "",
          "type": "uint256"
        },
        {
          "internalType": "uint256",
          "name": "",
          "type": "uint256"
        },
        {
          "internalType": "uint256",
          "name": "",
          "type": "uint256"
        },
        {
          "internalType": "uint8",
          "name": "",
          "type": "uint8"
        }
      ],
      "payable": false,
      "stateMutability": "view",
      "type": "function"
    },
    {
      "constant": false,
      "inputs": [
        {
          "internalType": "uint256",
          "name": "_publication_Id",
          "type": "uint256"
        },
        {
          "internalType": "uint256",
          "name": "_value",
          "type": "uint256"
        }
      ],
      "name": "donate",
      "outputs": [],
      "payable": false,
      "stateMutability": "nonpayable",
      "type": "function"
    },
    {
      "constant": true,
      "inputs": [],
      "name": "isCallerRegistered",
      "outputs": [
        {
          "internalType": "bool",
          "name": "",
          "type": "bool"
        }
      ],
      "payable": false,
      "stateMutability": "view",
      "type": "function"
    },
    {
      "constant": true,
      "inputs": [],
      "name": "getCallerId",
      "outputs": [
        {
          "internalType": "uint256",
          "name": "",
          "type": "uint256"
        }
      ],
      "payable": false,
      "stateMutability": "view",
      "type": "function"
    },
    {
      "constant": true,
      "inputs": [
        {
          "internalType": "uint256",
          "name": "_user_Id",
          "type": "uint256"
        }
      ],
      "name": "getUserAddress",
      "outputs": [
        {
          "internalType": "address",
          "name": "",
          "type": "address"
        }
      ],
      "payable": false,
      "stateMutability": "view",
      "type": "function"
    },
    {
      "constant": true,
      "inputs": [
        {
          "internalType": "uint256",
          "name": "_user_Id",
          "type": "uint256"
        },
        {
          "internalType": "uint256",
          "name": "_amount",
          "type": "uint256"
        }
      ],
      "name": "canAddressPay",
      "outputs": [
        {
          "internalType": "bool",
          "name": "",
          "type": "bool"
        }
      ],
      "payable": false,
      "stateMutability": "view",
      "type": "function"
    },
    {
      "constant": true,
      "inputs": [
        {
          "internalType": "uint256",
          "name": "_bidder_Id",
          "type": "uint256"
        }
      ],
      "name": "getBidderBids",
      "outputs": [
        {
          "internalType": "uint256[]",
          "name": "",
          "type": "uint256[]"
        }
      ],
      "payable": false,
      "stateMutability": "view",
      "type": "function"
    },
    {
      "constant": true,
      "inputs": [],
      "name": "getBlockTime",
      "outputs": [
        {
          "internalType": "uint256",
          "name": "",
          "type": "uint256"
        }
      ],
      "payable": false,
      "stateMutability": "view",
      "type": "function"
    },
    {
      "constant": false,
      "inputs": [
        {
          "internalType": "uint256",
          "name": "_auction_Id",
          "type": "uint256"
        }
      ],
      "name": "getAuctionStatus",
      "outputs": [
        {
          "internalType": "uint256",
          "name": "",
          "type": "uint256"
        }
      ],
      "payable": false,
      "stateMutability": "nonpayable",
      "type": "function"
    },
    {
      "constant": false,
      "inputs": [
        {
          "internalType": "uint256",
          "name": "_publication_Id",
          "type": "uint256"
        },
        {
          "internalType": "uint256",
          "name": "_newStartTime",
          "type": "uint256"
        }
      ],
      "name": "updateAuctionStartTime",
      "outputs": [],
      "payable": false,
      "stateMutability": "nonpayable",
      "type": "function"
    },
    {
      "constant": true,
      "inputs": [
        {
          "internalType": "uint256",
          "name": "_publication_Id",
          "type": "uint256"
        }
      ],
      "name": "getPublicationBids",
      "outputs": [
        {
          "internalType": "uint256[]",
          "name": "",
          "type": "uint256[]"
        }
      ],
      "payable": false,
      "stateMutability": "view",
      "type": "function"
    },
    {
      "constant": true,
      "inputs": [
        {
          "internalType": "uint256",
          "name": "_bid_Id",
          "type": "uint256"
        }
      ],
      "name": "getBid",
      "outputs": [
        {
          "internalType": "bytes32",
          "name": "",
          "type": "bytes32"
        },
        {
          "internalType": "uint256",
          "name": "",
          "type": "uint256"
        },
        {
          "internalType": "uint256",
          "name": "",
          "type": "uint256"
        },
        {
          "internalType": "uint8",
          "name": "",
          "type": "uint8"
        },
        {
          "internalType": "uint256",
          "name": "",
          "type": "uint256"
        },
        {
          "internalType": "uint256",
          "name": "",
          "type": "uint256"
        },
        {
          "internalType": "uint256",
          "name": "",
          "type": "uint256"
        }
      ],
      "payable": false,
      "stateMutability": "view",
      "type": "function"
    },
    {
      "constant": true,
      "inputs": [
        {
          "internalType": "uint256",
          "name": "_publication_Id",
          "type": "uint256"
        }
      ],
      "name": "getPublicationAuctionBidLength",
      "outputs": [
        {
          "internalType": "uint256",
          "name": "",
          "type": "uint256"
        }
      ],
      "payable": false,
      "stateMutability": "view",
      "type": "function"
    },
    {
      "constant": true,
      "inputs": [
        {
          "internalType": "uint256",
          "name": "tokenId",
          "type": "uint256"
        }
      ],
      "name": "ownerOf",
      "outputs": [
        {
          "internalType": "address",
          "name": "",
          "type": "address"
        }
      ],
      "payable": false,
      "stateMutability": "view",
      "type": "function"
    }
  ],
  "bytecode": "0x6080604052615f39806100136000396000f3fe608060405234801561001057600080fd5b50600436106102485760003560e01c80637ece03bb1161013b578063a8020ee7116100b8578063e06e0e221161007c578063e06e0e221461139b578063e808386314611434578063ec297be614611476578063fbd9d2eb146114ae578063ff42e8791461153157610248565b8063a8020ee71461111d578063ad61ccd5146111b6578063b3208f1214611239578063b7b668af14611289578063cc2a9a5b146112b757610248565b8063897f1e4a116100ff578063897f1e4a14610db357806390d976e214610e365780639ae001ff14610ea45780639dccae8214610edc578063a564e83c14610f7557610248565b80637ece03bb14610b1f57806380274db714610b3d5780638129fc1c14610bca57806383947ea014610bd457806387ceff0914610d9557610248565b80633c889e6f116101c9578063628389131161018d57806362838913146109145780636352211e14610956578063704f1b94146109c457806374e861d614610a935780637765c52c14610add57610248565b80633c889e6f146106e15780633e7646041461075357806351a35349146107d6578063522b0e231461086f5780635bc2ff78146108f257610248565b806314b37f581161021057806314b37f58146103605780631aa5b7e914610583578063207f2937146105a15780632207fc6a146106245780632cedebee1461068457610248565b806304686b4a1461024d5780630cdd53f61461025757806311fcd5461461028f5780631220e2ff1461031257806313af40351461031c575b600080fd5b610255611573565b005b61028d6004803603604081101561026d57600080fd5b810190808035906020019092919080359060200190929190505050611575565b005b6102bb600480360360208110156102a557600080fd5b8101908080359060200190929190505050611c6d565b6040518080602001828103825283818151815260200191508051906020019060200280838360005b838110156102fe5780820151818401526020810190506102e3565b505050509050019250505060405180910390f35b61031a611dbe565b005b61035e6004803603602081101561033257600080fd5b81019080803573ffffffffffffffffffffffffffffffffffffffff169060200190929190505050611ddd565b005b610581600480360361012081101561037757600080fd5b81019080803560ff169060200190929190803590602001906401000000008111156103a157600080fd5b8201836020820111156103b357600080fd5b803590602001918460018302840111640100000000831117156103d557600080fd5b91908080601f016020809104026020016040519081016040528093929190818152602001838380828437600081840152601f19601f82011690508083019250505050505050919291929080359060200190929190803590602001909291908035906020019092919080359060200190929190803590602001909291908035906020019064010000000081111561046a57600080fd5b82018360208201111561047c57600080fd5b8035906020019184602083028401116401000000008311171561049e57600080fd5b919080806020026020016040519081016040528093929190818152602001838360200280828437600081840152601f19601f820116905080830192505050505050509192919290803590602001906401000000008111156104fe57600080fd5b82018360208201111561051057600080fd5b8035906020019184602083028401116401000000008311171561053257600080fd5b919080806020026020016040519081016040528093929190818152602001838360200280828437600081840152601f19601f820116905080830192505050505050509192919290505050611ec7565b005b61058b61229d565b6040518082815260200191505060405180910390f35b6105cd600480360360208110156105b757600080fd5b81019080803590602001909291905050506123fa565b6040518080602001828103825283818151815260200191508051906020019060200280838360005b838110156106105780820151818401526020810190506105f5565b505050509050019250505060405180910390f35b61066e6004803603608081101561063a57600080fd5b810190808035906020019092919080359060200190929190803590602001909291908035906020019092919050505061254b565b6040518082815260200191505060405180910390f35b6106b06004803603602081101561069a57600080fd5b81019080803590602001909291905050506126c1565b604051808581526020018481526020018381526020018260ff1660ff16815260200194505050505060405180910390f35b61070d600480360360208110156106f757600080fd5b81019080803590602001909291905050506127a2565b604051808881526020018781526020018681526020018560ff1660ff16815260200184815260200183815260200182815260200197505050505050505060405180910390f35b61077f6004803603602081101561076957600080fd5b81019080803590602001909291905050506128b0565b6040518080602001828103825283818151815260200191508051906020019060200280838360005b838110156107c25780820151818401526020810190506107a7565b505050509050019250505060405180910390f35b610818600480360360208110156107ec57600080fd5b81019080803573ffffffffffffffffffffffffffffffffffffffff169060200190929190505050612ab4565b6040518080602001828103825283818151815260200191508051906020019060200280838360005b8381101561085b578082015181840152602081019050610840565b505050509050019250505060405180910390f35b61089b6004803603602081101561088557600080fd5b8101908080359060200190929190505050612ce4565b6040518080602001828103825283818151815260200191508051906020019060200280838360005b838110156108de5780820151818401526020810190506108c3565b505050509050019250505060405180910390f35b6108fa612e35565b604051808215151515815260200191505060405180910390f35b6109406004803603602081101561092a57600080fd5b8101908080359060200190929190505050612f16565b6040518082815260200191505060405180910390f35b6109826004803603602081101561096c57600080fd5b8101908080359060200190929190505050612f1d565b604051808273ffffffffffffffffffffffffffffffffffffffff1673ffffffffffffffffffffffffffffffffffffffff16815260200191505060405180910390f35b610a7d600480360360208110156109da57600080fd5b81019080803590602001906401000000008111156109f757600080fd5b820183602082011115610a0957600080fd5b80359060200191846001830284011164010000000083111715610a2b57600080fd5b91908080601f016020809104026020016040519081016040528093929190818152602001838380828437600081840152601f19601f820116905080830192505050505050509192919290505050612fd4565b6040518082815260200191505060405180910390f35b610a9b61312b565b604051808273ffffffffffffffffffffffffffffffffffffffff1673ffffffffffffffffffffffffffffffffffffffff16815260200191505060405180910390f35b610b0960048036036020811015610af357600080fd5b8101908080359060200190929190505050613155565b6040518082815260200191505060405180910390f35b610b27613219565b6040518082815260200191505060405180910390f35b610bb460048036036020811015610b5357600080fd5b8101908080359060200190640100000000811115610b7057600080fd5b820183602082011115610b8257600080fd5b80359060200191846001830284011164010000000083111715610ba457600080fd5b90919293919293905050506132c3565b6040518082815260200191505060405180910390f35b610bd26133a5565b005b610d136004803603610120811015610beb57600080fd5b81019080803573ffffffffffffffffffffffffffffffffffffffff169060200190929190803573ffffffffffffffffffffffffffffffffffffffff16906020019092919080359060200190640100000000811115610c4857600080fd5b820183602082011115610c5a57600080fd5b80359060200191846001830284011164010000000083111715610c7c57600080fd5b90919293919293908035906020019092919080359060200190929190803590602001909291908035906020019092919080359060200190640100000000811115610cc557600080fd5b820183602082011115610cd757600080fd5b80359060200191846001830284011164010000000083111715610cf957600080fd5b909192939192939080359060200190929190505050613504565b6040518083815260200180602001828103825283818151815260200191508051906020019080838360005b83811015610d59578082015181840152602081019050610d3e565b50505050905090810190601f168015610d865780820380516001836020036101000a031916815260200191505b50935050505060405180910390f35b610d9d613524565b6040518082815260200191505060405180910390f35b610ddf60048036036020811015610dc957600080fd5b810190808035906020019092919050505061352c565b6040518080602001828103825283818151815260200191508051906020019060200280838360005b83811015610e22578082015181840152602081019050610e07565b505050509050019250505060405180910390f35b610e6260048036036020811015610e4c57600080fd5b810190808035906020019092919050505061367d565b604051808273ffffffffffffffffffffffffffffffffffffffff1673ffffffffffffffffffffffffffffffffffffffff16815260200191505060405180910390f35b610eda60048036036040811015610eba57600080fd5b810190808035906020019092919080359060200190929190505050613734565b005b610f1e60048036036020811015610ef257600080fd5b81019080803573ffffffffffffffffffffffffffffffffffffffff169060200190929190505050613992565b6040518080602001828103825283818151815260200191508051906020019060200280838360005b83811015610f61578082015181840152602081019050610f46565b505050509050019250505060405180910390f35b610fa160048036036020811015610f8b57600080fd5b8101908080359060200190929190505050613bc2565b604051808a60ff1660ff1681526020018060200189815260200188815260200187815260200186815260200180602001806020018060200185810385528d818151815260200191508051906020019080838360005b83811015611011578082015181840152602081019050610ff6565b50505050905090810190601f16801561103e5780820380516001836020036101000a031916815260200191505b50858103845288818151815260200191508051906020019060200280838360005b8381101561107a57808201518184015260208101905061105f565b50505050905001858103835287818151815260200191508051906020019060200280838360005b838110156110bc5780820151818401526020810190506110a1565b50505050905001858103825286818151815260200191508051906020019060200280838360005b838110156110fe5780820151818401526020810190506110e3565b505050509050019d505050505050505050505050505060405180910390f35b61115f6004803603602081101561113357600080fd5b81019080803573ffffffffffffffffffffffffffffffffffffffff169060200190929190505050613f48565b6040518080602001828103825283818151815260200191508051906020019060200280838360005b838110156111a2578082015181840152602081019050611187565b505050509050019250505060405180910390f35b6111be614039565b6040518080602001828103825283818151815260200191508051906020019080838360005b838110156111fe5780820151818401526020810190506111e3565b50505050905090810190601f16801561122b5780820380516001836020036101000a031916815260200191505b509250505060405180910390f35b61126f6004803603604081101561124f57600080fd5b810190808035906020019092919080359060200190929190505050614076565b604051808215151515815260200191505060405180910390f35b6112b56004803603602081101561129f57600080fd5b810190808035906020019092919050505061416f565b005b611399600480360360c08110156112cd57600080fd5b81019080803573ffffffffffffffffffffffffffffffffffffffff169060200190929190803573ffffffffffffffffffffffffffffffffffffffff169060200190929190803573ffffffffffffffffffffffffffffffffffffffff169060200190929190803573ffffffffffffffffffffffffffffffffffffffff169060200190929190803573ffffffffffffffffffffffffffffffffffffffff169060200190929190803573ffffffffffffffffffffffffffffffffffffffff1690602001909291905050506146aa565b005b611432600480360360808110156113b157600080fd5b81019080803590602001906401000000008111156113ce57600080fd5b8201836020820111156113e057600080fd5b8035906020019184600183028401116401000000008311171561140257600080fd5b9091929391929390803515159060200190929190803590602001909291908035906020019092919050505061497e565b005b6114606004803603602081101561144a57600080fd5b8101908080359060200190929190505050614a60565b6040518082815260200191505060405180910390f35b6114ac6004803603604081101561148c57600080fd5b81019080803590602001909291908035906020019092919050505061576f565b005b6114da600480360360208110156114c457600080fd5b81019080803590602001909291905050506158f4565b6040518080602001828103825283818151815260200191508051906020019060200280838360005b8381101561151d578082015181840152602081019050611502565b505050509050019250505060405180910390f35b61155d6004803603602081101561154757600080fd5b8101908080359060200190929190505050615a45565b6040518082815260200191505060405180910390f35b565b6000603760009054906101000a900473ffffffffffffffffffffffffffffffffffffffff1673ffffffffffffffffffffffffffffffffffffffff166310a6d0d5846040518263ffffffff1660e01b81526004018082815260200191505060206040518083038186803b1580156115ea57600080fd5b505afa1580156115fe573d6000803e3d6000fd5b505050506040513d602081101561161457600080fd5b810190808051906020019092919050505090506000603860009054906101000a900473ffffffffffffffffffffffffffffffffffffffff1673ffffffffffffffffffffffffffffffffffffffff166390d976e2836040518263ffffffff1660e01b81526004018082815260200191505060206040518083038186803b15801561169c57600080fd5b505afa1580156116b0573d6000803e3d6000fd5b505050506040513d60208110156116c657600080fd5b81019080805190602001909291905050509050606080603760009054906101000a900473ffffffffffffffffffffffffffffffffffffffff1673ffffffffffffffffffffffffffffffffffffffff16639d273ddc876040518263ffffffff1660e01b81526004018082815260200191505060006040518083038186803b15801561174f57600080fd5b505afa158015611763573d6000803e3d6000fd5b505050506040513d6000823e3d601f19601f82011682018060405250604081101561178d57600080fd5b81019080805160405193929190846401000000008211156117ad57600080fd5b838201915060208201858111156117c357600080fd5b82518660208202830111640100000000821117156117e057600080fd5b8083526020830192505050908051906020019060200280838360005b838110156118175780820151818401526020810190506117fc565b505050509050016040526020018051604051939291908464010000000082111561184057600080fd5b8382019150602082018581111561185657600080fd5b825186602082028301116401000000008211171561187357600080fd5b8083526020830192505050908051906020019060200280838360005b838110156118aa57808201518184015260208101905061188f565b50505050905001604052505050915091506060603860009054906101000a900473ffffffffffffffffffffffffffffffffffffffff1673ffffffffffffffffffffffffffffffffffffffff16637f4f2e84846040518263ffffffff1660e01b81526004018080602001828103825283818151815260200191508051906020019060200280838360005b8381101561194e578082015181840152602081019050611933565b505050509050019250505060006040518083038186803b15801561197157600080fd5b505afa158015611985573d6000803e3d6000fd5b505050506040513d6000823e3d601f19601f8201168201806040525060208110156119af57600080fd5b81019080805160405193929190846401000000008211156119cf57600080fd5b838201915060208201858111156119e557600080fd5b8251866020820283011164010000000082111715611a0257600080fd5b8083526020830192505050908051906020019060200280838360005b83811015611a39578082015181840152602081019050611a1e565b505050509050016040525050509050603a60009054906101000a900473ffffffffffffffffffffffffffffffffffffffff1673ffffffffffffffffffffffffffffffffffffffff1663841aee53338684868b6040518663ffffffff1660e01b8152600401808673ffffffffffffffffffffffffffffffffffffffff1673ffffffffffffffffffffffffffffffffffffffff1681526020018573ffffffffffffffffffffffffffffffffffffffff1673ffffffffffffffffffffffffffffffffffffffff1681526020018060200180602001848152602001838103835286818151815260200191508051906020019060200280838360005b83811015611b4b578082015181840152602081019050611b30565b50505050905001838103825285818151815260200191508051906020019060200280838360005b83811015611b8d578082015181840152602081019050611b72565b50505050905001975050505050505050602060405180830381600087803b158015611bb757600080fd5b505af1158015611bcb573d6000803e3d6000fd5b505050506040513d6020811015611be157600080fd5b8101908080519060200190929190505050611c64576040517f08c379a000000000000000000000000000000000000000000000000000000000815260040180806020018281038252601e8152602001807f42756c6b2061756374696f6e20736574746c656d656e74206661696c6564000081525060200191505060405180910390fd5b50505050505050565b6060603760009054906101000a900473ffffffffffffffffffffffffffffffffffffffff1673ffffffffffffffffffffffffffffffffffffffff1663f88e44a3836040518263ffffffff1660e01b81526004018082815260200191505060006040518083038186803b158015611ce257600080fd5b505afa158015611cf6573d6000803e3d6000fd5b505050506040513d6000823e3d601f19601f820116820180604052506020811015611d2057600080fd5b8101908080516040519392919084640100000000821115611d4057600080fd5b83820191506020820185811115611d5657600080fd5b8251866020820283011164010000000082111715611d7357600080fd5b8083526020830192505050908051906020019060200280838360005b83811015611daa578082015181840152602081019050611d8f565b505050509050016040525050509050919050565b611ddb73d216153c06e857cd7f72665e0af1d7d82172f494615bae565b565b3373ffffffffffffffffffffffffffffffffffffffff16603460009054906101000a900473ffffffffffffffffffffffffffffffffffffffff1673ffffffffffffffffffffffffffffffffffffffff1614611e83576040517f08c379a0000000000000000000000000000000000000000000000000000000008152600401808060200182810382526027815260200180615eba6027913960400191505060405180910390fd5b80603460006101000a81548173ffffffffffffffffffffffffffffffffffffffff021916908373ffffffffffffffffffffffffffffffffffffffff16021790555050565b611ecf612e35565b611f24576040517f08c379a0000000000000000000000000000000000000000000000000000000008152600401808060200182810382526033815260200180615dd26033913960400191505060405180910390fd5b6000611f2e61229d565b90506000603760009054906101000a900473ffffffffffffffffffffffffffffffffffffffff1673ffffffffffffffffffffffffffffffffffffffff1663497e192e8c8c858a8a8a8a6040518863ffffffff1660e01b8152600401808860ff1660ff16815260200180602001878152602001868152602001858152602001806020018060200184810384528a818151815260200191508051906020019080838360005b83811015611fec578082015181840152602081019050611fd1565b50505050905090810190601f1680156120195780820380516001836020036101000a031916815260200191505b50848103835286818151815260200191508051906020019060200280838360005b8381101561205557808201518184015260208101905061203a565b50505050905001848103825285818151815260200191508051906020019060200280838360005b8381101561209757808201518184015260208101905061207c565b505050509050019a5050505050505050505050602060405180830381600087803b1580156120c457600080fd5b505af11580156120d8573d6000803e3d6000fd5b505050506040513d60208110156120ee57600080fd5b810190808051906020019092919050505090506001600281111561210e57fe5b8b60ff16600281111561211d57fe5b600281111561212857fe5b14612290576000603560009054906101000a900473ffffffffffffffffffffffffffffffffffffffff1673ffffffffffffffffffffffffffffffffffffffff1663b8f4e5a5838c8c8c6040518563ffffffff1660e01b815260040180858152602001848152602001838152602001828152602001945050505050602060405180830381600087803b1580156121bc57600080fd5b505af11580156121d0573d6000803e3d6000fd5b505050506040513d60208110156121e657600080fd5b81019080805190602001909291905050509050603760009054906101000a900473ffffffffffffffffffffffffffffffffffffffff1673ffffffffffffffffffffffffffffffffffffffff1663f8290cde83836040518363ffffffff1660e01b81526004018083815260200182815260200192505050600060405180830381600087803b15801561227657600080fd5b505af115801561228a573d6000803e3d6000fd5b50505050505b5050505050505050505050565b600080603860009054906101000a900473ffffffffffffffffffffffffffffffffffffffff1673ffffffffffffffffffffffffffffffffffffffff16632b956ff7336040518263ffffffff1660e01b8152600401808273ffffffffffffffffffffffffffffffffffffffff1673ffffffffffffffffffffffffffffffffffffffff16815260200191505060206040518083038186803b15801561233f57600080fd5b505afa158015612353573d6000803e3d6000fd5b505050506040513d602081101561236957600080fd5b8101908080519060200190929190505050905060008114156123f3576040517f08c379a00000000000000000000000000000000000000000000000000000000081526004018080602001828103825260198152602001807f43616c6c6572206973206e6f742072656769737465726564210000000000000081525060200191505060405180910390fd5b8091505090565b6060603760009054906101000a900473ffffffffffffffffffffffffffffffffffffffff1673ffffffffffffffffffffffffffffffffffffffff1663207f2937836040518263ffffffff1660e01b81526004018082815260200191505060006040518083038186803b15801561246f57600080fd5b505afa158015612483573d6000803e3d6000fd5b505050506040513d6000823e3d601f19601f8201168201806040525060208110156124ad57600080fd5b81019080805160405193929190846401000000008211156124cd57600080fd5b838201915060208201858111156124e357600080fd5b825186602082028301116401000000008211171561250057600080fd5b8083526020830192505050908051906020019060200280838360005b8381101561253757808201518184015260208101905061251c565b505050509050016040525050509050919050565b600080603760009054906101000a900473ffffffffffffffffffffffffffffffffffffffff1673ffffffffffffffffffffffffffffffffffffffff16636c6167c6856040518263ffffffff1660e01b81526004018082815260200191505060206040518083038186803b1580156125c157600080fd5b505afa1580156125d5573d6000803e3d6000fd5b505050506040513d60208110156125eb57600080fd5b81019080805190602001909291905050509050600061260861229d565b9050603560009054906101000a900473ffffffffffffffffffffffffffffffffffffffff1673ffffffffffffffffffffffffffffffffffffffff166394d0f15e88888588866040518663ffffffff1660e01b81526004018086815260200185815260200184815260200183815260200182815260200195505050505050600060405180830381600087803b15801561269f57600080fd5b505af11580156126b3573d6000803e3d6000fd5b505050505050949350505050565b600080600080603660009054906101000a900473ffffffffffffffffffffffffffffffffffffffff1673ffffffffffffffffffffffffffffffffffffffff16632cedebee866040518263ffffffff1660e01b81526004018082815260200191505060806040518083038186803b15801561273a57600080fd5b505afa15801561274e573d6000803e3d6000fd5b505050506040513d608081101561276457600080fd5b810190808051906020019092919080519060200190929190805190602001909291908051906020019092919050505093509350935093509193509193565b6000806000806000806000603560009054906101000a900473ffffffffffffffffffffffffffffffffffffffff1673ffffffffffffffffffffffffffffffffffffffff16633c889e6f896040518263ffffffff1660e01b81526004018082815260200191505060e06040518083038186803b15801561282057600080fd5b505afa158015612834573d6000803e3d6000fd5b505050506040513d60e081101561284a57600080fd5b81019080805190602001909291908051906020019092919080519060200190929190805190602001909291908051906020019092919080519060200190929190805190602001909291905050509650965096509650965096509650919395979092949650565b60606000603760009054906101000a900473ffffffffffffffffffffffffffffffffffffffff1673ffffffffffffffffffffffffffffffffffffffff16636c6167c6846040518263ffffffff1660e01b81526004018082815260200191505060206040518083038186803b15801561292757600080fd5b505afa15801561293b573d6000803e3d6000fd5b505050506040513d602081101561295157600080fd5b81019080805190602001909291905050509050603560009054906101000a900473ffffffffffffffffffffffffffffffffffffffff1673ffffffffffffffffffffffffffffffffffffffff166370b4768e826040518263ffffffff1660e01b81526004018082815260200191505060006040518083038186803b1580156129d757600080fd5b505afa1580156129eb573d6000803e3d6000fd5b505050506040513d6000823e3d601f19601f820116820180604052506020811015612a1557600080fd5b8101908080516040519392919084640100000000821115612a3557600080fd5b83820191506020820185811115612a4b57600080fd5b8251866020820283011164010000000082111715612a6857600080fd5b8083526020830192505050908051906020019060200280838360005b83811015612a9f578082015181840152602081019050612a84565b50505050905001604052505050915050919050565b60606000603860009054906101000a900473ffffffffffffffffffffffffffffffffffffffff1673ffffffffffffffffffffffffffffffffffffffff16632b956ff7846040518263ffffffff1660e01b8152600401808273ffffffffffffffffffffffffffffffffffffffff1673ffffffffffffffffffffffffffffffffffffffff16815260200191505060206040518083038186803b158015612b5757600080fd5b505afa158015612b6b573d6000803e3d6000fd5b505050506040513d6020811015612b8157600080fd5b81019080805190602001909291905050509050603760009054906101000a900473ffffffffffffffffffffffffffffffffffffffff1673ffffffffffffffffffffffffffffffffffffffff1663f88e44a3826040518263ffffffff1660e01b81526004018082815260200191505060006040518083038186803b158015612c0757600080fd5b505afa158015612c1b573d6000803e3d6000fd5b505050506040513d6000823e3d601f19601f820116820180604052506020811015612c4557600080fd5b8101908080516040519392919084640100000000821115612c6557600080fd5b83820191506020820185811115612c7b57600080fd5b8251866020820283011164010000000082111715612c9857600080fd5b8083526020830192505050908051906020019060200280838360005b83811015612ccf578082015181840152602081019050612cb4565b50505050905001604052505050915050919050565b6060603660009054906101000a900473ffffffffffffffffffffffffffffffffffffffff1673ffffffffffffffffffffffffffffffffffffffff16639787bb41836040518263ffffffff1660e01b81526004018082815260200191505060006040518083038186803b158015612d5957600080fd5b505afa158015612d6d573d6000803e3d6000fd5b505050506040513d6000823e3d601f19601f820116820180604052506020811015612d9757600080fd5b8101908080516040519392919084640100000000821115612db757600080fd5b83820191506020820185811115612dcd57600080fd5b8251866020820283011164010000000082111715612dea57600080fd5b8083526020830192505050908051906020019060200280838360005b83811015612e21578082015181840152602081019050612e06565b505050509050016040525050509050919050565b6000603860009054906101000a900473ffffffffffffffffffffffffffffffffffffffff1673ffffffffffffffffffffffffffffffffffffffff166338b6a3a1336040518263ffffffff1660e01b8152600401808273ffffffffffffffffffffffffffffffffffffffff1673ffffffffffffffffffffffffffffffffffffffff16815260200191505060206040518083038186803b158015612ed657600080fd5b505afa158015612eea573d6000803e3d6000fd5b505050506040513d6020811015612f0057600080fd5b8101908080519060200190929190505050905090565b6000919050565b6000603660009054906101000a900473ffffffffffffffffffffffffffffffffffffffff1673ffffffffffffffffffffffffffffffffffffffff16636352211e836040518263ffffffff1660e01b81526004018082815260200191505060206040518083038186803b158015612f9257600080fd5b505afa158015612fa6573d6000803e3d6000fd5b505050506040513d6020811015612fbc57600080fd5b81019080805190602001909291905050509050919050565b600080603860009054906101000a900473ffffffffffffffffffffffffffffffffffffffff1673ffffffffffffffffffffffffffffffffffffffff16636ec3877f84336040518363ffffffff1660e01b815260040180806020018373ffffffffffffffffffffffffffffffffffffffff1673ffffffffffffffffffffffffffffffffffffffff168152602001828103825284818151815260200191508051906020019080838360005b8381101561309857808201518184015260208101905061307d565b50505050905090810190601f1680156130c55780820380516001836020036101000a031916815260200191505b509350505050602060405180830381600087803b1580156130e557600080fd5b505af11580156130f9573d6000803e3d6000fd5b505050506040513d602081101561310f57600080fd5b8101908080519060200190929190505050905080915050919050565b6000603360009054906101000a900473ffffffffffffffffffffffffffffffffffffffff16905090565b6000603560009054906101000a900473ffffffffffffffffffffffffffffffffffffffff1673ffffffffffffffffffffffffffffffffffffffff16637765c52c836040518263ffffffff1660e01b815260040180828152602001915050602060405180830381600087803b1580156131cc57600080fd5b505af11580156131e0573d6000803e3d6000fd5b505050506040513d60208110156131f657600080fd5b8101908080519060200190929190505050600381111561321257fe5b9050919050565b6000603760009054906101000a900473ffffffffffffffffffffffffffffffffffffffff1673ffffffffffffffffffffffffffffffffffffffff16637ece03bb6040518163ffffffff1660e01b815260040160206040518083038186803b15801561328357600080fd5b505afa158015613297573d6000803e3d6000fd5b505050506040513d60208110156132ad57600080fd5b8101908080519060200190929190505050905090565b60006132cd61312b565b73ffffffffffffffffffffffffffffffffffffffff163373ffffffffffffffffffffffffffffffffffffffff1614613350576040517f08c379a0000000000000000000000000000000000000000000000000000000008152600401808060200182810382526024815260200180615ee16024913960400191505060405180910390fd5b61339d83838080601f016020809104026020016040519081016040528093929190818152602001838380828437600081840152601f19601f82011690508083019250505050505050615d7f565b905092915050565b600060019054906101000a900460ff16806133c457506133c3615d86565b5b806133db57506000809054906101000a900460ff16155b613430576040517f08c379a000000000000000000000000000000000000000000000000000000000815260040180806020018281038252602e815260200180615e5f602e913960400191505060405180910390fd5b60008060019054906101000a900460ff161590508015613480576001600060016101000a81548160ff02191690831515021790555060016000806101000a81548160ff0219169083151502179055505b600073ffffffffffffffffffffffffffffffffffffffff16603360009054906101000a900473ffffffffffffffffffffffffffffffffffffffff1673ffffffffffffffffffffffffffffffffffffffff1614156134e0576134df611dbe565b5b80156135015760008060016101000a81548160ff0219169083151502179055505b50565b60006060613510615d97565b915091509b509b9950505050505050505050565b600042905090565b6060603560009054906101000a900473ffffffffffffffffffffffffffffffffffffffff1673ffffffffffffffffffffffffffffffffffffffff1663897f1e4a836040518263ffffffff1660e01b81526004018082815260200191505060006040518083038186803b1580156135a157600080fd5b505afa1580156135b5573d6000803e3d6000fd5b505050506040513d6000823e3d601f19601f8201168201806040525060208110156135df57600080fd5b81019080805160405193929190846401000000008211156135ff57600080fd5b8382019150602082018581111561361557600080fd5b825186602082028301116401000000008211171561363257600080fd5b8083526020830192505050908051906020019060200280838360005b8381101561366957808201518184015260208101905061364e565b505050509050016040525050509050919050565b6000603860009054906101000a900473ffffffffffffffffffffffffffffffffffffffff1673ffffffffffffffffffffffffffffffffffffffff166390d976e2836040518263ffffffff1660e01b81526004018082815260200191505060206040518083038186803b1580156136f257600080fd5b505afa158015613706573d6000803e3d6000fd5b505050506040513d602081101561371c57600080fd5b81019080805190602001909291905050509050919050565b600061373e61229d565b9050603760009054906101000a900473ffffffffffffffffffffffffffffffffffffffff1673ffffffffffffffffffffffffffffffffffffffff166310a6d0d5846040518263ffffffff1660e01b81526004018082815260200191505060206040518083038186803b1580156137b357600080fd5b505afa1580156137c7573d6000803e3d6000fd5b505050506040513d60208110156137dd57600080fd5b81019080805190602001909291905050508114613845576040517f08c379a000000000000000000000000000000000000000000000000000000000815260040180806020018281038252602c815260200180615e33602c913960400191505060405180910390fd5b6000603760009054906101000a900473ffffffffffffffffffffffffffffffffffffffff1673ffffffffffffffffffffffffffffffffffffffff16636c6167c6856040518263ffffffff1660e01b81526004018082815260200191505060206040518083038186803b1580156138ba57600080fd5b505afa1580156138ce573d6000803e3d6000fd5b505050506040513d60208110156138e457600080fd5b81019080805190602001909291905050509050603560009054906101000a900473ffffffffffffffffffffffffffffffffffffffff1673ffffffffffffffffffffffffffffffffffffffff16639ae001ff82856040518363ffffffff1660e01b81526004018083815260200182815260200192505050600060405180830381600087803b15801561397457600080fd5b505af1158015613988573d6000803e3d6000fd5b5050505050505050565b60606000603860009054906101000a900473ffffffffffffffffffffffffffffffffffffffff1673ffffffffffffffffffffffffffffffffffffffff16632b956ff7846040518263ffffffff1660e01b8152600401808273ffffffffffffffffffffffffffffffffffffffff1673ffffffffffffffffffffffffffffffffffffffff16815260200191505060206040518083038186803b158015613a3557600080fd5b505afa158015613a49573d6000803e3d6000fd5b505050506040513d6020811015613a5f57600080fd5b81019080805190602001909291905050509050603560009054906101000a900473ffffffffffffffffffffffffffffffffffffffff1673ffffffffffffffffffffffffffffffffffffffff1663897f1e4a826040518263ffffffff1660e01b81526004018082815260200191505060006040518083038186803b158015613ae557600080fd5b505afa158015613af9573d6000803e3d6000fd5b505050506040513d6000823e3d601f19601f820116820180604052506020811015613b2357600080fd5b8101908080516040519392919084640100000000821115613b4357600080fd5b83820191506020820185811115613b5957600080fd5b8251866020820283011164010000000082111715613b7657600080fd5b8083526020830192505050908051906020019060200280838360005b83811015613bad578082015181840152602081019050613b92565b50505050905001604052505050915050919050565b600060606000806000806060806060603760009054906101000a900473ffffffffffffffffffffffffffffffffffffffff1673ffffffffffffffffffffffffffffffffffffffff1663a564e83c8b6040518263ffffffff1660e01b81526004018082815260200191505060006040518083038186803b158015613c4457600080fd5b505afa158015613c58573d6000803e3d6000fd5b505050506040513d6000823e3d601f19601f82011682018060405250610120811015613c8357600080fd5b810190808051906020019092919080516040519392919084640100000000821115613cad57600080fd5b83820191506020820185811115613cc357600080fd5b8251866001820283011164010000000082111715613ce057600080fd5b8083526020830192505050908051906020019080838360005b83811015613d14578082015181840152602081019050613cf9565b50505050905090810190601f168015613d415780820380516001836020036101000a031916815260200191505b506040526020018051906020019092919080519060200190929190805190602001909291908051906020019092919080516040519392919084640100000000821115613d8c57600080fd5b83820191506020820185811115613da257600080fd5b8251866020820283011164010000000082111715613dbf57600080fd5b8083526020830192505050908051906020019060200280838360005b83811015613df6578082015181840152602081019050613ddb565b5050505090500160405260200180516040519392919084640100000000821115613e1f57600080fd5b83820191506020820185811115613e3557600080fd5b8251866020820283011164010000000082111715613e5257600080fd5b8083526020830192505050908051906020019060200280838360005b83811015613e89578082015181840152602081019050613e6e565b5050505090500160405260200180516040519392919084640100000000821115613eb257600080fd5b83820191506020820185811115613ec857600080fd5b8251866020820283011164010000000082111715613ee557600080fd5b8083526020830192505050908051906020019060200280838360005b83811015613f1c578082015181840152602081019050613f01565b505050509050016040525050509850985098509850985098509850985098509193959799909294969850565b60606000603860009054906101000a900473ffffffffffffffffffffffffffffffffffffffff1673ffffffffffffffffffffffffffffffffffffffff16632b956ff7846040518263ffffffff1660e01b8152600401808273ffffffffffffffffffffffffffffffffffffffff1673ffffffffffffffffffffffffffffffffffffffff16815260200191505060206040518083038186803b158015613feb57600080fd5b505afa158015613fff573d6000803e3d6000fd5b505050506040513d602081101561401557600080fd5b8101908080519060200190929190505050905061403181612ce4565b915050919050565b60606040518060400160405280600581526020017f312e302e30000000000000000000000000000000000000000000000000000000815250905090565b6000806140828461367d565b9050603a60009054906101000a900473ffffffffffffffffffffffffffffffffffffffff1673ffffffffffffffffffffffffffffffffffffffff16637a3e00cd82856040518363ffffffff1660e01b8152600401808373ffffffffffffffffffffffffffffffffffffffff1673ffffffffffffffffffffffffffffffffffffffff1681526020018281526020019250505060206040518083038186803b15801561412b57600080fd5b505afa15801561413f573d6000803e3d6000fd5b505050506040513d602081101561415557600080fd5b810190808051906020019092919050505091505092915050565b6000603960009054906101000a900473ffffffffffffffffffffffffffffffffffffffff1673ffffffffffffffffffffffffffffffffffffffff1663e95b2590836040518263ffffffff1660e01b815260040180828152602001915050602060405180830381600087803b1580156141e657600080fd5b505af11580156141fa573d6000803e3d6000fd5b505050506040513d602081101561421057600080fd5b8101908080519060200190929190505050905080156146a6576000603960009054906101000a900473ffffffffffffffffffffffffffffffffffffffff1673ffffffffffffffffffffffffffffffffffffffff16635859eec1846040518263ffffffff1660e01b81526004018082815260200191505060206040518083038186803b15801561429e57600080fd5b505afa1580156142b2573d6000803e3d6000fd5b505050506040513d60208110156142c857600080fd5b810190808051906020019092919050505090506000603960009054906101000a900473ffffffffffffffffffffffffffffffffffffffff1673ffffffffffffffffffffffffffffffffffffffff166372d8e819856040518263ffffffff1660e01b81526004018082815260200191505060206040518083038186803b15801561435057600080fd5b505afa158015614364573d6000803e3d6000fd5b505050506040513d602081101561437a57600080fd5b810190808051906020019092919050505090506000603860009054906101000a900473ffffffffffffffffffffffffffffffffffffffff1673ffffffffffffffffffffffffffffffffffffffff166390d976e2836040518263ffffffff1660e01b81526004018082815260200191505060206040518083038186803b15801561440257600080fd5b505afa158015614416573d6000803e3d6000fd5b505050506040513d602081101561442c57600080fd5b810190808051906020019092919050505090506000603660009054906101000a900473ffffffffffffffffffffffffffffffffffffffff1673ffffffffffffffffffffffffffffffffffffffff166392c6830f856040518263ffffffff1660e01b81526004018082815260200191505060206040518083038186803b1580156144b457600080fd5b505afa1580156144c8573d6000803e3d6000fd5b505050506040513d60208110156144de57600080fd5b810190808051906020019092919050505090506000603860009054906101000a900473ffffffffffffffffffffffffffffffffffffffff1673ffffffffffffffffffffffffffffffffffffffff166390d976e2836040518263ffffffff1660e01b81526004018082815260200191505060206040518083038186803b15801561456657600080fd5b505afa15801561457a573d6000803e3d6000fd5b505050506040513d602081101561459057600080fd5b81019080805190602001909291905050509050603660009054906101000a900473ffffffffffffffffffffffffffffffffffffffff1673ffffffffffffffffffffffffffffffffffffffff16635c290cc6868684876040518563ffffffff1660e01b8152600401808581526020018481526020018373ffffffffffffffffffffffffffffffffffffffff1673ffffffffffffffffffffffffffffffffffffffff1681526020018273ffffffffffffffffffffffffffffffffffffffff1673ffffffffffffffffffffffffffffffffffffffff168152602001945050505050600060405180830381600087803b15801561468857600080fd5b505af115801561469c573d6000803e3d6000fd5b5050505050505050505b5050565b600060019054906101000a900460ff16806146c957506146c8615d86565b5b806146e057506000809054906101000a900460ff16155b614735576040517f08c379a000000000000000000000000000000000000000000000000000000000815260040180806020018281038252602e815260200180615e5f602e913960400191505060405180910390fd5b60008060019054906101000a900460ff161590508015614785576001600060016101000a81548160ff02191690831515021790555060016000806101000a81548160ff0219169083151502179055505b33603460006101000a81548173ffffffffffffffffffffffffffffffffffffffff021916908373ffffffffffffffffffffffffffffffffffffffff1602179055506147ce6133a5565b86603560006101000a81548173ffffffffffffffffffffffffffffffffffffffff021916908373ffffffffffffffffffffffffffffffffffffffff16021790555085603660006101000a81548173ffffffffffffffffffffffffffffffffffffffff021916908373ffffffffffffffffffffffffffffffffffffffff16021790555084603760006101000a81548173ffffffffffffffffffffffffffffffffffffffff021916908373ffffffffffffffffffffffffffffffffffffffff16021790555083603860006101000a81548173ffffffffffffffffffffffffffffffffffffffff021916908373ffffffffffffffffffffffffffffffffffffffff16021790555082603960006101000a81548173ffffffffffffffffffffffffffffffffffffffff021916908373ffffffffffffffffffffffffffffffffffffffff16021790555081603a60006101000a81548173ffffffffffffffffffffffffffffffffffffffff021916908373ffffffffffffffffffffffffffffffffffffffff16021790555080156149755760008060016101000a81548160ff0219169083151502179055505b50505050505050565b61498661312b565b73ffffffffffffffffffffffffffffffffffffffff163373ffffffffffffffffffffffffffffffffffffffff1614614a09576040517f08c379a0000000000000000000000000000000000000000000000000000000008152600401808060200182810382526024815260200180615ee16024913960400191505060405180910390fd5b614a5985858080601f016020809104026020016040519081016040528093929190818152602001838380828437600081840152601f19601f82011690508083019250505050505050848484615dbb565b5050505050565b600080600080603560009054906101000a900473ffffffffffffffffffffffffffffffffffffffff1673ffffffffffffffffffffffffffffffffffffffff1663e8083863866040518263ffffffff1660e01b815260040180828152602001915050606060405180830381600087803b158015614adb57600080fd5b505af1158015614aef573d6000803e3d6000fd5b505050506040513d6060811015614b0557600080fd5b8101908080519060200190929190805190602001909291908051906020019092919050505092509250925060008311614ba6576040517f08c379a000000000000000000000000000000000000000000000000000000000815260040180806020018281038252601a8152602001807f496e76616c69642077696e6e696e672062696420616d6f756e7400000000000081525060200191505060405180910390fd5b60008211614c1c576040517f08c379a00000000000000000000000000000000000000000000000000000000081526004018080602001828103825260168152602001807f496e76616c69642077696e6e696e67206269642049640000000000000000000081525060200191505060405180910390fd5b60008111614c92576040517f08c379a00000000000000000000000000000000000000000000000000000000081526004018080602001828103825260168152602001807f496e76616c6964207075626c69636174696f6e2049640000000000000000000081525060200191505060405180910390fd5b6000603760009054906101000a900473ffffffffffffffffffffffffffffffffffffffff1673ffffffffffffffffffffffffffffffffffffffff166310a6d0d5836040518263ffffffff1660e01b81526004018082815260200191505060206040518083038186803b158015614d0757600080fd5b505afa158015614d1b573d6000803e3d6000fd5b505050506040513d6020811015614d3157600080fd5b810190808051906020019092919050505090506000603860009054906101000a900473ffffffffffffffffffffffffffffffffffffffff1673ffffffffffffffffffffffffffffffffffffffff166390d976e2836040518263ffffffff1660e01b81526004018082815260200191505060206040518083038186803b158015614db957600080fd5b505afa158015614dcd573d6000803e3d6000fd5b505050506040513d6020811015614de357600080fd5b810190808051906020019092919050505090506000603860009054906101000a900473ffffffffffffffffffffffffffffffffffffffff1673ffffffffffffffffffffffffffffffffffffffff166390d976e2866040518263ffffffff1660e01b81526004018082815260200191505060206040518083038186803b158015614e6b57600080fd5b505afa158015614e7f573d6000803e3d6000fd5b505050506040513d6020811015614e9557600080fd5b81019080805190602001909291905050509050606080603760009054906101000a900473ffffffffffffffffffffffffffffffffffffffff1673ffffffffffffffffffffffffffffffffffffffff16639d273ddc876040518263ffffffff1660e01b81526004018082815260200191505060006040518083038186803b158015614f1e57600080fd5b505afa158015614f32573d6000803e3d6000fd5b505050506040513d6000823e3d601f19601f820116820180604052506040811015614f5c57600080fd5b8101908080516040519392919084640100000000821115614f7c57600080fd5b83820191506020820185811115614f9257600080fd5b8251866020820283011164010000000082111715614faf57600080fd5b8083526020830192505050908051906020019060200280838360005b83811015614fe6578082015181840152602081019050614fcb565b505050509050016040526020018051604051939291908464010000000082111561500f57600080fd5b8382019150602082018581111561502557600080fd5b825186602082028301116401000000008211171561504257600080fd5b8083526020830192505050908051906020019060200280838360005b8381101561507957808201518184015260208101905061505e565b50505050905001604052505050915091506060603860009054906101000a900473ffffffffffffffffffffffffffffffffffffffff1673ffffffffffffffffffffffffffffffffffffffff16637f4f2e84846040518263ffffffff1660e01b81526004018080602001828103825283818151815260200191508051906020019060200280838360005b8381101561511d578082015181840152602081019050615102565b505050509050019250505060006040518083038186803b15801561514057600080fd5b505afa158015615154573d6000803e3d6000fd5b505050506040513d6000823e3d601f19601f82011682018060405250602081101561517e57600080fd5b810190808051604051939291908464010000000082111561519e57600080fd5b838201915060208201858111156151b457600080fd5b82518660208202830111640100000000821117156151d157600080fd5b8083526020830192505050908051906020019060200280838360005b838110156152085780820151818401526020810190506151ed565b505050509050016040525050509050603a60009054906101000a900473ffffffffffffffffffffffffffffffffffffffff1673ffffffffffffffffffffffffffffffffffffffff1663841aee53858784868e6040518663ffffffff1660e01b8152600401808673ffffffffffffffffffffffffffffffffffffffff1673ffffffffffffffffffffffffffffffffffffffff1681526020018573ffffffffffffffffffffffffffffffffffffffff1673ffffffffffffffffffffffffffffffffffffffff1681526020018060200180602001848152602001838103835286818151815260200191508051906020019060200280838360005b8381101561531a5780820151818401526020810190506152ff565b50505050905001838103825285818151815260200191508051906020019060200280838360005b8381101561535c578082015181840152602081019050615341565b50505050905001975050505050505050602060405180830381600087803b15801561538657600080fd5b505af115801561539a573d6000803e3d6000fd5b505050506040513d60208110156153b057600080fd5b8101908080519060200190929190505050615433576040517f08c379a000000000000000000000000000000000000000000000000000000000815260040180806020018281038252601e8152602001807f42756c6b2061756374696f6e20736574746c656d656e74206661696c6564000081525060200191505060405180910390fd5b6000603760009054906101000a900473ffffffffffffffffffffffffffffffffffffffff1673ffffffffffffffffffffffffffffffffffffffff1663755f538c896040518263ffffffff1660e01b815260040180828152602001915050602060405180830381600087803b1580156154aa57600080fd5b505af11580156154be573d6000803e3d6000fd5b505050506040513d60208110156154d457600080fd5b810190808051906020019092919050505090506000603660009054906101000a900473ffffffffffffffffffffffffffffffffffffffff1673ffffffffffffffffffffffffffffffffffffffff1663af5485a8878c8c866040518563ffffffff1660e01b8152600401808573ffffffffffffffffffffffffffffffffffffffff1673ffffffffffffffffffffffffffffffffffffffff168152602001848152602001838152602001828152602001945050505050602060405180830381600087803b1580156155a257600080fd5b505af11580156155b6573d6000803e3d6000fd5b505050506040513d60208110156155cc57600080fd5b810190808051906020019092919050505090506002808111156155eb57fe5b60ff16603760009054906101000a900473ffffffffffffffffffffffffffffffffffffffff1673ffffffffffffffffffffffffffffffffffffffff166330a966e08b6040518263ffffffff1660e01b81526004018082815260200191505060206040518083038186803b15801561566157600080fd5b505afa158015615675573d6000803e3d6000fd5b505050506040513d602081101561568b57600080fd5b810190808051906020019092919050505060ff16141561575f57603960009054906101000a900473ffffffffffffffffffffffffffffffffffffffff1673ffffffffffffffffffffffffffffffffffffffff1663776c0248828d6040518363ffffffff1660e01b81526004018083815260200182815260200192505050602060405180830381600087803b15801561572257600080fd5b505af1158015615736573d6000803e3d6000fd5b505050506040513d602081101561574c57600080fd5b8101908080519060200190929190505050505b5050505050505050505050919050565b6000603760009054906101000a900473ffffffffffffffffffffffffffffffffffffffff1673ffffffffffffffffffffffffffffffffffffffff16636c6167c6836040518263ffffffff1660e01b81526004018082815260200191505060206040518083038186803b1580156157e457600080fd5b505afa1580156157f8573d6000803e3d6000fd5b505050506040513d602081101561580e57600080fd5b81019080805190602001909291905050509050600061582b61229d565b9050603560009054906101000a900473ffffffffffffffffffffffffffffffffffffffff1673ffffffffffffffffffffffffffffffffffffffff1663908e27eb8584846040518463ffffffff1660e01b8152600401808481526020018381526020018281526020019350505050602060405180830381600087803b1580156158b257600080fd5b505af11580156158c6573d6000803e3d6000fd5b505050506040513d60208110156158dc57600080fd5b81019080805190602001909291905050505050505050565b6060603660009054906101000a900473ffffffffffffffffffffffffffffffffffffffff1673ffffffffffffffffffffffffffffffffffffffff1663fbd9d2eb836040518263ffffffff1660e01b81526004018082815260200191505060006040518083038186803b15801561596957600080fd5b505afa15801561597d573d6000803e3d6000fd5b505050506040513d6000823e3d601f19601f8201168201806040525060208110156159a757600080fd5b81019080805160405193929190846401000000008211156159c757600080fd5b838201915060208201858111156159dd57600080fd5b82518660208202830111640100000000821117156159fa57600080fd5b8083526020830192505050908051906020019060200280838360005b83811015615a31578082015181840152602081019050615a16565b505050509050016040525050509050919050565b600080603760009054906101000a900473ffffffffffffffffffffffffffffffffffffffff1673ffffffffffffffffffffffffffffffffffffffff16636c6167c6846040518263ffffffff1660e01b81526004018082815260200191505060206040518083038186803b158015615abb57600080fd5b505afa158015615acf573d6000803e3d6000fd5b505050506040513d6020811015615ae557600080fd5b81019080805190602001909291905050509050603560009054906101000a900473ffffffffffffffffffffffffffffffffffffffff1673ffffffffffffffffffffffffffffffffffffffff16637a88dece826040518263ffffffff1660e01b81526004018082815260200191505060206040518083038186803b158015615b6b57600080fd5b505afa158015615b7f573d6000803e3d6000fd5b505050506040513d6020811015615b9557600080fd5b8101908080519060200190929190505050915050919050565b6000603360009054906101000a900473ffffffffffffffffffffffffffffffffffffffff169050600073ffffffffffffffffffffffffffffffffffffffff168273ffffffffffffffffffffffffffffffffffffffff161415615c5b576040517f08c379a000000000000000000000000000000000000000000000000000000000815260040180806020018281038252602e815260200180615e05602e913960400191505060405180910390fd5b8073ffffffffffffffffffffffffffffffffffffffff168273ffffffffffffffffffffffffffffffffffffffff161415615ce0576040517f08c379a000000000000000000000000000000000000000000000000000000000815260040180806020018281038252602d815260200180615e8d602d913960400191505060405180910390fd5b8173ffffffffffffffffffffffffffffffffffffffff168173ffffffffffffffffffffffffffffffffffffffff167fb9f84b8e65164b14439ae3620df0a4d8786d896996c0282b683f9d8c08f046e860405160405180910390a381603360006101000a81548173ffffffffffffffffffffffffffffffffffffffff021916908373ffffffffffffffffffffffffffffffffffffffff1602179055505050565b6000919050565b600080303b90506000811491505090565b60006060615db360405180602001604052806000815250615dc1565b915091509091565b50505050565b600060606000839150915091509156fe43616e74206372656174652061207075626c69636174696f6e20696620796f7520617265206e6f74207265676973746572656447534e526563697069656e743a206e65772052656c617948756220697320746865207a65726f20616464726573734f6e6c7920746865207075626c69736865722063616e206d6f64696679207468652073746172742074696d65436f6e747261637420696e7374616e63652068617320616c7265616479206265656e20696e697469616c697a656447534e526563697069656e743a206e65772052656c6179487562206973207468652063757272656e74206f6e654f6e6c79206f776e65722063616e206368616e676520746865206f776e6572206164647265737347534e526563697069656e743a2063616c6c6572206973206e6f742052656c6179487562a265627a7a72315820d6a5737e1b0a62442e812b48a5e9f465189ed389e1bd92f1e783da7ea5686bb764736f6c634300050c0032",
  "source": "pragma solidity ^0.5.12;\n\n/// @title UniCoin smart contract\n/// @author Chris Maree\n\nimport \"@openzeppelin/contracts-ethereum-package/contracts/GSN/GSNRecipient.sol\";\nimport \"@openzeppelin/upgrades/contracts/Initializable.sol\";\n\nimport \"./interfaces/iAuctionManager.sol\";\nimport \"./interfaces/iLicenceManager.sol\";\nimport \"./interfaces/iPublicationManager.sol\";\nimport \"./interfaces/iUserManager.sol\";\nimport \"./interfaces/iVault.sol\";\nimport \"./interfaces/iHarbergerTaxManager.sol\";\n\ncontract UnicoinRegistry is Initializable, GSNRecipient {\n    address owner;\n\n    IAuctionManager private auctionManager;\n    ILicenceManager private licenceManager;\n    IPublicationManager private publicationManager;\n    IUserManager private userManager;\n    IHarbergerTaxManager private harbergerTaxManager;\n    IVault private vault;\n\n    enum PricingStrategy {PrivateAuction, FixedRate, PrivateAuctionHarberger}\n\n    function initialize(\n        address _auctionManager,\n        address _licenceManager,\n        address _publicationManager,\n        address _userManager,\n        address _harbergerTaxManager,\n        address _vault\n    ) public initializer {\n        owner = msg.sender;\n\n        GSNRecipient.initialize();\n\n        auctionManager = IAuctionManager(_auctionManager);\n        licenceManager = ILicenceManager(_licenceManager);\n        publicationManager = IPublicationManager(_publicationManager);\n        userManager = IUserManager(_userManager);\n        harbergerTaxManager = IHarbergerTaxManager(_harbergerTaxManager);\n        vault = IVault(_vault);\n    }\n\n    // accept all requests\n    function acceptRelayedCall(\n        address,\n        address,\n        bytes calldata,\n        uint256,\n        uint256,\n        uint256,\n        uint256,\n        bytes calldata,\n        uint256\n    ) external view returns (uint256, bytes memory) {\n        return _approveRelayedCall();\n    }\n\n    function _preRelayedCall(bytes memory context) internal returns (bytes32) {\n        // solhint-disable-previous-line no-empty-blocks\n    }\n\n    function _postRelayedCall(\n        bytes memory context,\n        bool,\n        uint256 actualCharge,\n        bytes32\n    ) internal {\n        // solhint-disable-previous-line no-empty-blocks\n    }\n\n    function setOwner(address _owner) public {\n        require(owner == msg.sender, \"Only owner can change the owner address\");\n        owner = _owner;\n    }\n\n    function registerUser(string memory _profile_uri) public returns (uint256) {\n        uint256 user_Id = userManager._registerUser(_profile_uri, msg.sender);\n        return user_Id;\n    }\n    function createPublication(\n        uint8 _pricing_Strategy,\n        string memory _publication_uri,\n        uint256 _auctionFloor,\n        uint256 _auctionStartTime,\n        uint256 _auctionDuration,\n        uint256 _fixed_sell_price,\n        uint256 _maxNumberOfLicences,\n        uint256[] memory _contributors,\n        uint256[] memory _contributors_weightings\n    ) public {\n        require(\n            isCallerRegistered(),\n            \"Cant create a publication if you are not registered\"\n        );\n        uint256 author_id = getCallerId();\n        uint256 publicationId = publicationManager._createPublication(\n            _pricing_Strategy,\n            _publication_uri,\n            author_id,\n            _fixed_sell_price,\n            _maxNumberOfLicences,\n            _contributors,\n            _contributors_weightings\n        );\n\n        if (PricingStrategy(_pricing_Strategy) != PricingStrategy.FixedRate) {\n            uint256 auctionId = auctionManager._createAuction(\n                publicationId,\n                _auctionFloor,\n                _auctionStartTime,\n                _auctionDuration\n            );\n            publicationManager._addAuctionToPublication(\n                publicationId,\n                auctionId\n            );\n        }\n    }\n\n    function commitSealedBid(bytes32 _bidHash, uint256 _publication_Id) public {\n        uint256 auction_Id = publicationManager.getLatestAuctionId(\n            _publication_Id\n        );\n        uint256 bidder_Id = getCallerId();\n        auctionManager._commitSealedBid(_bidHash, auction_Id, bidder_Id);\n    }\n\n    function revealSealedBid(\n        uint256 _bid,\n        uint256 _salt,\n        uint256 _publication_Id,\n        uint256 _bid_Id\n    ) public returns (uint256) {\n        uint256 auction_Id = publicationManager.getLatestAuctionId(\n            _publication_Id\n        );\n        uint256 bidder_Id = getCallerId();\n        auctionManager.revealSealedBid(\n            _bid,\n            _salt,\n            auction_Id,\n            _bid_Id,\n            bidder_Id\n        );\n    }\n\n    function finalizeAuction(uint256 _auction_Id) public returns (uint256) {\n        (uint256 winningBidAmount, uint256 winningBiderId, uint256 publicationId) = auctionManager\n            .finalizeAuction(_auction_Id);\n\n        require(winningBidAmount > 0, \"Invalid winning bid amount\");\n        require(winningBiderId > 0, \"Invalid winning bid Id\");\n        require(publicationId > 0, \"Invalid publication Id\");\n\n        uint256 authorId = publicationManager.getAuthorId(publicationId);\n        address authorAddress = userManager.getUserAddress(authorId);\n        address winningBidderAddress = userManager.getUserAddress(\n            winningBiderId\n        );\n\n        (uint256[] memory contributorIds, uint256[] memory contributorWeightings) = publicationManager\n            ._getContributers(publicationId);\n\n        address[] memory contributorAddresses = userManager.getAddressArray(\n            contributorIds\n        );\n\n        require(\n            vault.settleBulkPayment(\n                winningBidderAddress,\n                authorAddress,\n                contributorAddresses,\n                contributorWeightings,\n                winningBidAmount\n            ),\n            \"Bulk auction settlement failed\"\n        );\n\n        uint256 publicationLicenceNo = publicationManager\n            .addNewLicenceToPublication(publicationId);\n\n        uint256 licence_Id = licenceManager.registerNewLicence(\n            winningBidderAddress,\n            winningBiderId,\n            publicationId,\n            publicationLicenceNo\n        );\n        if (\n            uint8(\n                publicationManager.GetPublicationPricingStrategy(publicationId)\n            ) ==\n            uint8(PricingStrategy.PrivateAuctionHarberger)\n        ) {\n            harbergerTaxManager.createTaxObject(licence_Id, winningBidAmount);\n        }\n    }\n\n    function buyLicenceFixedRate() public {}\n\n    // function claimHarbergerTax(uint256 _publication_Id)\n    //     public\n    //     returns (uint256)\n    // {\n    //     uint256 licence_Id = licenceManager.getMostRecentPublicationLicence(\n    //         _publication_Id\n    //     );\n    //     uint256 taxObject_Id = harbergerTaxManager.getLicenceTaxObjectId(\n    //         licence_Id\n    //     );\n    //     uint256 outstandingTax = harbergerTaxManager.calculateOutstandingTax(\n    //         taxObject_Id\n    //     );\n    //     address licenceOwner = licenceManager.ownerOf(licence_Id);\n    //     bool licenceOwnerSolvent = vault.canAddressPay(\n    //         licenceOwner,\n    //         outstandingTax\n    //     );\n\n    //     if (licenceOwnerSolvent) {\n    //         //the licence owner can pay the tax and all contributers are paid\n    //         uint256 authorId = publicationManager.getAuthorId(_publication_Id);\n    //         address authorAddress = userManager.getUserAddress(authorId);\n    //         (uint256[] memory contributorIds, uint256[] memory contributorWeightings) = publicationManager\n    //             ._getContributers(_publication_Id);\n    //         address[] memory contributorAddresses = userManager.getAddressArray(\n    //             contributorIds\n    //         );\n    //         require(\n    //             vault.settleBulkPayment(\n    //                 licenceOwner,\n    //                 authorAddress,\n    //                 contributorAddresses,\n    //                 contributorWeightings,\n    //                 outstandingTax\n    //             ),\n    //             \"Bulk harberger settlement failed\"\n    //         );\n\n    //         harbergerTaxManager._updateTaxObjectLastPayment(taxObject_Id);\n\n    //         return outstandingTax; //returns the total tax sent\n    //     }\n    //     //the licence owner cant pay the tax. they loose their licence which is placed for auction again\n    //     if (!licenceOwnerSolvent) {\n    //         licenceManager.revokeLicence(licence_Id);\n    //         publicationManager.revokeLicence(_publication_Id);\n    //         harbergerTaxManager.revokeTaxObject(taxObject_Id);\n\n    //         //create a new auction\n    //         uint256 auctionId = auctionManager._createAuction(\n    //             _publication_Id,\n    //             0, //auction floor\n    //             now, //auction start time\n    //             60 * 60 * 24 * 30 // one month duration for the auction\n    //         );\n    //         publicationManager._addAuctionToPublication(\n    //             _publication_Id,\n    //             auctionId\n    //         );\n    //         return 0;\n    //     }\n    // }\n\n    // function updateLicenceHarbergerValuation(\n    //     uint256 _licence_Id,\n    //     uint256 _newValuation\n    // ) public returns (uint256) {\n    //     uint256 licenceOwner_Id = licenceManager.getLicenceOwnerId(_licence_Id);\n    //     require(\n    //         licenceOwner_Id == getCallerId(),\n    //         \"Only the current licence owner can update the  valuation\"\n    //     );\n\n    //     uint256 taxObject_Id = harbergerTaxManager.getLicenceTaxObjectId(\n    //         _licence_Id\n    //     );\n\n    //     harbergerTaxManager._updateTaxObjectValuation(\n    //         taxObject_Id,\n    //         _newValuation\n    //     );\n    // }\n\n    // function createHarbergerBuyOut(uint256 _licence_Id, uint256 _buyOutAmount)\n    //     public\n    // {\n    //     uint256 taxObject_Id = harbergerTaxManager.getLicenceTaxObjectId(\n    //         _licence_Id\n    //     );\n    //     uint256 buyOutOwner_Id = getCallerId();\n\n    //     harbergerTaxManager.submitBuyOut(\n    //         taxObject_Id,\n    //         _buyOutAmount,\n    //         buyOutOwner_Id\n    //     );\n    // }\n\n    function finalizeBuyoutOffer(uint256 _buyOut_Id) public {\n        bool offerSucceeded = harbergerTaxManager.finalizeBuyOutOffer(\n            _buyOut_Id\n        );\n        if (offerSucceeded) {\n            uint256 licence_Id = harbergerTaxManager.getBuyOutLicenceId(\n                _buyOut_Id\n            );\n            uint256 buyOutOwner_Id = harbergerTaxManager.getBuyOutOwnerId(\n                _buyOut_Id\n            );\n\n            address buyOutOwner_address = userManager.getUserAddress(\n                buyOutOwner_Id\n            );\n\n            uint256 previousOwner_Id = licenceManager.getLicenceOwnerId(\n                licence_Id\n            );\n\n            address previousOwner_address = userManager.getUserAddress(\n                previousOwner_Id\n            );\n\n            licenceManager.allocateLicenceToNewOwner(\n                licence_Id,\n                buyOutOwner_Id,\n                previousOwner_address,\n                buyOutOwner_address\n            );\n        }\n    }\n\n    function getMinBuyOutAmount(uint256 _publication_Id)\n        public\n        view\n        returns (uint256)\n    {}\n\n    function getPublicationsAuthorAddress(address _address)\n        public\n        view\n        returns (uint256[] memory)\n    {\n        uint256 author_Id = userManager.getUserId(_address);\n        return publicationManager.getAuthorPublications(author_Id);\n    }\n\n    function getPublicationsAuthorId(uint256 _author_Id)\n        public\n        view\n        returns (uint256[] memory)\n    {\n        return publicationManager.getAuthorPublications(_author_Id);\n    }\n\n    function getPublicationLicences(uint256 _publication_Id)\n        public\n        view\n        returns (uint256[] memory)\n    {\n        return licenceManager.getPublicationLicences(_publication_Id);\n    }\n\n    function getBids(address _address) public view returns (uint256[] memory) {\n        uint256 userAddress = userManager.getUserId(_address);\n        return auctionManager.getBidderBids(userAddress);\n    }\n\n    function getPublicationAuctions(uint256 _publication_Id)\n        public\n        view\n        returns (uint256[] memory)\n    {\n        return publicationManager.getPublicationAuctions(_publication_Id);\n    }\n\n    function getPublicationLength() public view returns (uint256) {\n        return publicationManager.getPublicationLength();\n    }\n\n    function getPublication(uint256 _publication_Id)\n        public\n        view\n        returns (\n            uint8,\n            string memory,\n            uint256,\n            uint256,\n            uint256,\n            uint256,\n            uint256[] memory,\n            uint256[] memory,\n            uint256[] memory\n        )\n    {\n        return (publicationManager.getPublication(_publication_Id));\n    }\n\n    function getLicenceForAddress(address _address)\n        public\n        view\n        returns (uint256[] memory)\n    {\n        uint256 user_Id = userManager.getUserId(_address);\n        return getLicenceForUserId(user_Id);\n    }\n\n    function getLicenceForUserId(uint256 _user_Id)\n        public\n        view\n        returns (uint256[] memory)\n    {\n        return licenceManager.getLicenceForUser(_user_Id);\n    }\n\n    function getLicence(uint256 _licence_Id)\n        public\n        view\n        returns (uint256, uint256, uint256, uint8)\n    {\n        return (licenceManager.getLicence(_licence_Id));\n    }\n\n    function donate(uint256 _publication_Id, uint256 _value) public {\n        uint256 authorId = publicationManager.getAuthorId(_publication_Id);\n        address authorAddress = userManager.getUserAddress(authorId);\n\n        (uint256[] memory contributorIds, uint256[] memory contributorWeightings) = publicationManager\n            ._getContributers(_publication_Id);\n\n        address[] memory contributorAddresses = userManager.getAddressArray(\n            contributorIds\n        );\n\n        require(\n            vault.settleBulkPayment(\n                msg.sender,\n                authorAddress,\n                contributorAddresses,\n                contributorWeightings,\n                _value\n            ),\n            \"Bulk auction settlement failed\"\n        );\n    }\n\n    function isCallerRegistered() public view returns (bool) {\n        return userManager.isAddressRegistered(msg.sender);\n    }\n\n    function getCallerId() public view returns (uint256) {\n        uint256 callerId = userManager.getUserId(msg.sender);\n        require(callerId != 0, \"Caller is not registered!\");\n        return callerId;\n    }\n\n    function getUserAddress(uint256 _user_Id) public view returns (address) {\n        return userManager.getUserAddress(_user_Id);\n    }\n\n    function canAddressPay(uint256 _user_Id, uint256 _amount)\n        public\n        view\n        returns (bool)\n    {\n        address userAddress = getUserAddress(_user_Id);\n        return vault.canAddressPay(userAddress, _amount);\n    }\n\n    function getBidderBids(uint256 _bidder_Id)\n        public\n        view\n        returns (uint256[] memory)\n    {\n        return auctionManager.getBidderBids(_bidder_Id);\n    }\n\n    function getBlockTime() public view returns (uint256) {\n        return now;\n    }\n\n    function getAuctionStatus(uint256 _auction_Id) public returns (uint256) {\n        return uint256(auctionManager.getAuctionStatus(_auction_Id));\n    }\n\n    function updateAuctionStartTime(\n        uint256 _publication_Id,\n        uint256 _newStartTime\n    ) public {\n        uint256 caller_Id = getCallerId();\n        require(\n            caller_Id == publicationManager.getAuthorId(_publication_Id),\n            \"Only the publisher can modify the start time\"\n        );\n        uint256 auction_Id = publicationManager.getLatestAuctionId(\n            _publication_Id\n        );\n        auctionManager.updateAuctionStartTime(auction_Id, _newStartTime);\n    }\n\n    function getPublicationBids(uint256 _publication_Id)\n        public\n        view\n        returns (uint256[] memory)\n    {\n        uint256 auction_Id = publicationManager.getLatestAuctionId(\n            _publication_Id\n        );\n        return (auctionManager.getAuctionBids(auction_Id));\n    }\n\n    function getBid(uint256 _bid_Id)\n        public\n        view\n        returns (bytes32, uint256, uint256, uint8, uint256, uint256, uint256)\n    {\n        return (auctionManager.getBid(_bid_Id));\n    }\n\n    function getPublicationAuctionBidLength(uint256 _publication_Id)\n        public\n        view\n        returns (uint256)\n    {\n        uint256 auction_Id = publicationManager.getLatestAuctionId(\n            _publication_Id\n        );\n        return auctionManager.getNumberOfBidsInAuction(auction_Id);\n    }\n    function ownerOf(uint256 tokenId) public view returns (address) {\n        return licenceManager.ownerOf(tokenId);\n    }\n\n}\n",
  "sourcePath": "/Users/chris/Projects/unicoindapp/contracts/UnicoinRegistry.sol",
  "compiler": {
    "name": "solc",
    "version": "0.5.12+commit.7709ece9.Emscripten.clang"
  },
  "schemaVersion": "3.0.16",
  "updatedAt": "2019-12-01T12:16:29.802Z",
  "devdoc": {
    "methods": {
      "getHubAddr()": {
        "details": "Returns the address of the {IRelayHub} contract for this recipient."
      },
      "postRelayedCall(bytes,bool,uint256,bytes32)": {
        "details": "See `IRelayRecipient.postRelayedCall`.     * This function should not be overriden directly, use `_postRelayedCall` instead.     * * Requirements:     * - the caller must be the `RelayHub` contract."
      },
      "preRelayedCall(bytes)": {
        "details": "See `IRelayRecipient.preRelayedCall`.     * This function should not be overriden directly, use `_preRelayedCall` instead.     * * Requirements:     * - the caller must be the `RelayHub` contract."
      },
      "relayHubVersion()": {
        "details": "Returns the version string of the {IRelayHub} for which this recipient implementation was built. If {_upgradeRelayHub} is used, the new {IRelayHub} instance should be compatible with this version."
      }
    }
  },
  "userdoc": {
    "methods": {}
  }
}