{
  "contractName": "UnicoinRegistry",
  "abi": [
    {
      "anonymous": false,
      "inputs": [
        {
          "indexed": false,
          "internalType": "uint8",
          "name": "version",
          "type": "uint8"
        }
      ],
      "name": "Initialized",
      "type": "event"
    },
    {
      "inputs": [
        {
          "internalType": "address",
          "name": "forwarder",
          "type": "address"
        }
      ],
      "name": "isTrustedForwarder",
      "outputs": [
        {
          "internalType": "bool",
          "name": "",
          "type": "bool"
        }
      ],
      "stateMutability": "view",
      "type": "function"
    },
    {
      "inputs": [],
      "name": "trustedForwarder",
      "outputs": [
        {
          "internalType": "address",
          "name": "",
          "type": "address"
        }
      ],
      "stateMutability": "view",
      "type": "function"
    },
    {
      "inputs": [],
      "name": "versionRecipient",
      "outputs": [
        {
          "internalType": "string",
          "name": "",
          "type": "string"
        }
      ],
      "stateMutability": "pure",
      "type": "function"
    },
    {
      "inputs": [
        {
          "internalType": "address",
          "name": "_auctionManager",
          "type": "address"
        },
        {
          "internalType": "address",
          "name": "_licenceManager",
          "type": "address"
        },
        {
          "internalType": "address",
          "name": "_publicationManager",
          "type": "address"
        },
        {
          "internalType": "address",
          "name": "_userManager",
          "type": "address"
        },
        {
          "internalType": "address",
          "name": "_harbergerTaxManager",
          "type": "address"
        },
        {
          "internalType": "address",
          "name": "_vault",
          "type": "address"
        },
        {
          "internalType": "address",
          "name": "_forwarder",
          "type": "address"
        }
      ],
      "name": "initialize",
      "outputs": [],
      "stateMutability": "nonpayable",
      "type": "function"
    },
    {
      "inputs": [
        {
          "internalType": "address",
          "name": "_owner",
          "type": "address"
        }
      ],
      "name": "setOwner",
      "outputs": [],
      "stateMutability": "nonpayable",
      "type": "function"
    },
    {
      "inputs": [
        {
          "internalType": "string",
          "name": "_profileUri",
          "type": "string"
        }
      ],
      "name": "registerUser",
      "outputs": [
        {
          "internalType": "uint256",
          "name": "",
          "type": "uint256"
        }
      ],
      "stateMutability": "nonpayable",
      "type": "function"
    },
    {
      "inputs": [
        {
          "internalType": "enum SharedStructures.PricingStrategy",
          "name": "_pricingStrategy",
          "type": "uint8"
        },
        {
          "internalType": "string",
          "name": "_publicationUri",
          "type": "string"
        },
        {
          "internalType": "uint256",
          "name": "_auctionFloor",
          "type": "uint256"
        },
        {
          "internalType": "uint256",
          "name": "_auctionStartTime",
          "type": "uint256"
        },
        {
          "internalType": "uint256",
          "name": "_auctionDuration",
          "type": "uint256"
        },
        {
          "internalType": "uint256",
          "name": "_fixedSellPrice",
          "type": "uint256"
        },
        {
          "internalType": "uint8",
          "name": "_maxNumberOfLicences",
          "type": "uint8"
        },
        {
          "components": [
            {
              "internalType": "address",
              "name": "contributorAddress",
              "type": "address"
            },
            {
              "internalType": "uint16",
              "name": "weighting",
              "type": "uint16"
            },
            {
              "internalType": "uint256",
              "name": "balance",
              "type": "uint256"
            },
            {
              "internalType": "uint256",
              "name": "lifetimeAllocations",
              "type": "uint256"
            }
          ],
          "internalType": "struct SharedStructures.Contribution[]",
          "name": "_contributors",
          "type": "tuple[]"
        },
        {
          "components": [
            {
              "internalType": "uint256",
              "name": "publicationId",
              "type": "uint256"
            },
            {
              "internalType": "uint16",
              "name": "weighting",
              "type": "uint16"
            }
          ],
          "internalType": "struct SharedStructures.Citation[]",
          "name": "_citations",
          "type": "tuple[]"
        }
      ],
      "name": "createPublication",
      "outputs": [],
      "stateMutability": "nonpayable",
      "type": "function"
    },
    {
      "inputs": [
        {
          "internalType": "bytes32",
          "name": "_bidHash",
          "type": "bytes32"
        },
        {
          "internalType": "uint256",
          "name": "_publicationId",
          "type": "uint256"
        }
      ],
      "name": "commitSealedBid",
      "outputs": [],
      "stateMutability": "nonpayable",
      "type": "function"
    },
    {
      "inputs": [
        {
          "internalType": "uint256",
          "name": "_bid",
          "type": "uint256"
        },
        {
          "internalType": "uint256",
          "name": "_salt",
          "type": "uint256"
        },
        {
          "internalType": "uint256",
          "name": "_publicationId",
          "type": "uint256"
        },
        {
          "internalType": "uint256",
          "name": "_bidId",
          "type": "uint256"
        }
      ],
      "name": "revealSealedBid",
      "outputs": [
        {
          "internalType": "uint256",
          "name": "",
          "type": "uint256"
        }
      ],
      "stateMutability": "nonpayable",
      "type": "function"
    },
    {
      "inputs": [
        {
          "internalType": "uint256",
          "name": "_auctionId",
          "type": "uint256"
        }
      ],
      "name": "finalizeAuction",
      "outputs": [
        {
          "internalType": "uint256",
          "name": "",
          "type": "uint256"
        }
      ],
      "stateMutability": "nonpayable",
      "type": "function"
    },
    {
      "inputs": [],
      "name": "buyLicenceFixedRate",
      "outputs": [],
      "stateMutability": "nonpayable",
      "type": "function"
    },
    {
      "inputs": [
        {
          "internalType": "uint256",
          "name": "_publicationId",
          "type": "uint256"
        }
      ],
      "name": "claimHarbergerTax",
      "outputs": [
        {
          "internalType": "uint256",
          "name": "",
          "type": "uint256"
        }
      ],
      "stateMutability": "nonpayable",
      "type": "function"
    },
    {
      "inputs": [
        {
          "internalType": "uint256",
          "name": "_licenceId",
          "type": "uint256"
        },
        {
          "internalType": "uint256",
          "name": "_newValuation",
          "type": "uint256"
        }
      ],
      "name": "updateLicenceHarbergerValuation",
      "outputs": [
        {
          "internalType": "uint256",
          "name": "",
          "type": "uint256"
        }
      ],
      "stateMutability": "nonpayable",
      "type": "function"
    },
    {
      "inputs": [
        {
          "internalType": "uint256",
          "name": "_licenceId",
          "type": "uint256"
        },
        {
          "internalType": "uint256",
          "name": "_buyOutAmount",
          "type": "uint256"
        }
      ],
      "name": "createHarbergerBuyOut",
      "outputs": [
        {
          "internalType": "uint256",
          "name": "",
          "type": "uint256"
        }
      ],
      "stateMutability": "nonpayable",
      "type": "function"
    },
    {
      "inputs": [
        {
          "internalType": "uint256",
          "name": "_buyOutId",
          "type": "uint256"
        }
      ],
      "name": "finalizeBuyoutOffer",
      "outputs": [
        {
          "internalType": "bool",
          "name": "",
          "type": "bool"
        }
      ],
      "stateMutability": "nonpayable",
      "type": "function"
    },
    {
      "inputs": [
        {
          "internalType": "uint256",
          "name": "_taxObjectId",
          "type": "uint256"
        }
      ],
      "name": "getTaxObject",
      "outputs": [
        {
          "components": [
            {
              "internalType": "uint256",
              "name": "licenceId",
              "type": "uint256"
            },
            {
              "internalType": "uint256",
              "name": "ratePerBlock",
              "type": "uint256"
            },
            {
              "internalType": "uint256",
              "name": "lastPayment",
              "type": "uint256"
            },
            {
              "internalType": "uint256",
              "name": "numberOfOutBids",
              "type": "uint256"
            },
            {
              "internalType": "uint256",
              "name": "currentAssignedValue",
              "type": "uint256"
            },
            {
              "internalType": "uint256[]",
              "name": "buyOuts",
              "type": "uint256[]"
            },
            {
              "internalType": "enum SharedStructures.TaxObjectStatus",
              "name": "status",
              "type": "uint8"
            }
          ],
          "internalType": "struct SharedStructures.TaxObject",
          "name": "",
          "type": "tuple"
        }
      ],
      "stateMutability": "view",
      "type": "function"
    },
    {
      "inputs": [],
      "name": "getTaxObjectLength",
      "outputs": [
        {
          "internalType": "uint256",
          "name": "",
          "type": "uint256"
        }
      ],
      "stateMutability": "view",
      "type": "function"
    },
    {
      "inputs": [
        {
          "internalType": "uint256",
          "name": "_publicationId",
          "type": "uint256"
        }
      ],
      "name": "getMinBuyOutAmount",
      "outputs": [
        {
          "internalType": "uint256",
          "name": "",
          "type": "uint256"
        }
      ],
      "stateMutability": "view",
      "type": "function"
    },
    {
      "inputs": [
        {
          "internalType": "address",
          "name": "_address",
          "type": "address"
        }
      ],
      "name": "getPublicationsAuthorAddress",
      "outputs": [
        {
          "internalType": "uint256[]",
          "name": "",
          "type": "uint256[]"
        }
      ],
      "stateMutability": "view",
      "type": "function"
    },
    {
      "inputs": [
        {
          "internalType": "uint256",
          "name": "_publicationId",
          "type": "uint256"
        }
      ],
      "name": "getPublicationLicences",
      "outputs": [
        {
          "internalType": "uint256[]",
          "name": "",
          "type": "uint256[]"
        }
      ],
      "stateMutability": "view",
      "type": "function"
    },
    {
      "inputs": [
        {
          "internalType": "address",
          "name": "_address",
          "type": "address"
        }
      ],
      "name": "getBids",
      "outputs": [
        {
          "internalType": "uint256[]",
          "name": "",
          "type": "uint256[]"
        }
      ],
      "stateMutability": "view",
      "type": "function"
    },
    {
      "inputs": [
        {
          "internalType": "uint256",
          "name": "_publicationId",
          "type": "uint256"
        }
      ],
      "name": "getPublicationAuctions",
      "outputs": [
        {
          "internalType": "uint256[]",
          "name": "",
          "type": "uint256[]"
        }
      ],
      "stateMutability": "view",
      "type": "function"
    },
    {
      "inputs": [],
      "name": "getPublicationLength",
      "outputs": [
        {
          "internalType": "uint256",
          "name": "",
          "type": "uint256"
        }
      ],
      "stateMutability": "view",
      "type": "function"
    },
    {
      "inputs": [
        {
          "internalType": "uint256",
          "name": "_publicationId",
          "type": "uint256"
        }
      ],
      "name": "getPublication",
      "outputs": [
        {
          "components": [
            {
              "internalType": "enum SharedStructures.PricingStrategy",
              "name": "pricingStrategy",
              "type": "uint8"
            },
            {
              "internalType": "string",
              "name": "publicationUri",
              "type": "string"
            },
            {
              "internalType": "enum SharedStructures.PublicationStatus",
              "name": "publicationStatus",
              "type": "uint8"
            },
            {
              "internalType": "address",
              "name": "ownerAddress",
              "type": "address"
            },
            {
              "internalType": "uint256",
              "name": "sellPrice",
              "type": "uint256"
            },
            {
              "internalType": "uint8",
              "name": "maxNumberOfLicences",
              "type": "uint8"
            },
            {
              "internalType": "uint256",
              "name": "licencesIssued",
              "type": "uint256"
            },
            {
              "internalType": "uint256",
              "name": "previousVersion",
              "type": "uint256"
            },
            {
              "internalType": "uint256[]",
              "name": "auctionIds",
              "type": "uint256[]"
            },
            {
              "internalType": "uint256",
              "name": "contributionsId",
              "type": "uint256"
            },
            {
              "internalType": "uint256[]",
              "name": "donations",
              "type": "uint256[]"
            },
            {
              "internalType": "uint256",
              "name": "citationsId",
              "type": "uint256"
            },
            {
              "internalType": "uint256",
              "name": "lifetimeEarnings",
              "type": "uint256"
            }
          ],
          "internalType": "struct SharedStructures.Publication",
          "name": "",
          "type": "tuple"
        }
      ],
      "stateMutability": "view",
      "type": "function"
    },
    {
      "inputs": [
        {
          "internalType": "address",
          "name": "_address",
          "type": "address"
        }
      ],
      "name": "getLicenceForAddress",
      "outputs": [
        {
          "internalType": "uint256[]",
          "name": "",
          "type": "uint256[]"
        }
      ],
      "stateMutability": "view",
      "type": "function"
    },
    {
      "inputs": [
        {
          "internalType": "uint256",
          "name": "_licenceId",
          "type": "uint256"
        }
      ],
      "name": "getLicence",
      "outputs": [
        {
          "components": [
            {
              "internalType": "address",
              "name": "ownerAddress",
              "type": "address"
            },
            {
              "internalType": "uint256",
              "name": "publicationId",
              "type": "uint256"
            },
            {
              "internalType": "uint256",
              "name": "publicationLicenceNo",
              "type": "uint256"
            },
            {
              "internalType": "enum SharedStructures.LicenceStatus",
              "name": "status",
              "type": "uint8"
            }
          ],
          "internalType": "struct SharedStructures.Licence",
          "name": "",
          "type": "tuple"
        }
      ],
      "stateMutability": "view",
      "type": "function"
    },
    {
      "inputs": [
        {
          "internalType": "uint256",
          "name": "_publicationId",
          "type": "uint256"
        },
        {
          "internalType": "uint256",
          "name": "_value",
          "type": "uint256"
        }
      ],
      "name": "donate",
      "outputs": [],
      "stateMutability": "nonpayable",
      "type": "function"
    },
    {
      "inputs": [],
      "name": "isCallerRegistered",
      "outputs": [
        {
          "internalType": "bool",
          "name": "",
          "type": "bool"
        }
      ],
      "stateMutability": "view",
      "type": "function"
    },
    {
      "inputs": [
        {
          "internalType": "address",
          "name": "userAddress",
          "type": "address"
        },
        {
          "internalType": "uint256",
          "name": "_amount",
          "type": "uint256"
        }
      ],
      "name": "canAddressPay",
      "outputs": [
        {
          "internalType": "bool",
          "name": "",
          "type": "bool"
        }
      ],
      "stateMutability": "view",
      "type": "function"
    },
    {
      "inputs": [
        {
          "internalType": "address",
          "name": "bidderAddress",
          "type": "address"
        }
      ],
      "name": "getBidderBids",
      "outputs": [
        {
          "internalType": "uint256[]",
          "name": "",
          "type": "uint256[]"
        }
      ],
      "stateMutability": "view",
      "type": "function"
    },
    {
      "inputs": [],
      "name": "getBlockTime",
      "outputs": [
        {
          "internalType": "uint256",
          "name": "",
          "type": "uint256"
        }
      ],
      "stateMutability": "view",
      "type": "function"
    },
    {
      "inputs": [
        {
          "internalType": "uint256",
          "name": "_auctionId",
          "type": "uint256"
        }
      ],
      "name": "getAuctionStatus",
      "outputs": [
        {
          "internalType": "uint256",
          "name": "",
          "type": "uint256"
        }
      ],
      "stateMutability": "nonpayable",
      "type": "function"
    },
    {
      "inputs": [
        {
          "internalType": "uint256",
          "name": "_publicationId",
          "type": "uint256"
        },
        {
          "internalType": "uint256",
          "name": "_newStartTime",
          "type": "uint256"
        }
      ],
      "name": "updateAuctionStartTime",
      "outputs": [],
      "stateMutability": "nonpayable",
      "type": "function"
    },
    {
      "inputs": [
        {
          "internalType": "uint256",
          "name": "_publicationId",
          "type": "uint256"
        }
      ],
      "name": "getPublicationBids",
      "outputs": [
        {
          "internalType": "uint256[]",
          "name": "",
          "type": "uint256[]"
        }
      ],
      "stateMutability": "view",
      "type": "function"
    },
    {
      "inputs": [
        {
          "internalType": "uint256",
          "name": "_bidId",
          "type": "uint256"
        }
      ],
      "name": "getBid",
      "outputs": [
        {
          "components": [
            {
              "internalType": "bytes32",
              "name": "commitBid",
              "type": "bytes32"
            },
            {
              "internalType": "uint256",
              "name": "revealedBid",
              "type": "uint256"
            },
            {
              "internalType": "uint256",
              "name": "revealedSalt",
              "type": "uint256"
            },
            {
              "internalType": "enum SharedStructures.BidStatus",
              "name": "status",
              "type": "uint8"
            },
            {
              "internalType": "uint256",
              "name": "publicationId",
              "type": "uint256"
            },
            {
              "internalType": "uint256",
              "name": "auctionId",
              "type": "uint256"
            },
            {
              "internalType": "address",
              "name": "bidderAddress",
              "type": "address"
            }
          ],
          "internalType": "struct SharedStructures.Bid",
          "name": "",
          "type": "tuple"
        }
      ],
      "stateMutability": "view",
      "type": "function"
    },
    {
      "inputs": [
        {
          "internalType": "uint256",
          "name": "_publicationId",
          "type": "uint256"
        }
      ],
      "name": "getPublicationAuctionBidLength",
      "outputs": [
        {
          "internalType": "uint256",
          "name": "",
          "type": "uint256"
        }
      ],
      "stateMutability": "view",
      "type": "function"
    },
    {
      "inputs": [
        {
          "internalType": "uint256",
          "name": "tokenId",
          "type": "uint256"
        }
      ],
      "name": "ownerOf",
      "outputs": [
        {
          "internalType": "address",
          "name": "",
          "type": "address"
        }
      ],
      "stateMutability": "view",
      "type": "function"
    },
    {
      "inputs": [
        {
          "internalType": "uint256",
          "name": "_taxObjectId",
          "type": "uint256"
        }
      ],
      "name": "getOutstandingTax",
      "outputs": [
        {
          "internalType": "uint256",
          "name": "",
          "type": "uint256"
        }
      ],
      "stateMutability": "view",
      "type": "function"
    },
    {
      "inputs": [
        {
          "internalType": "uint256",
          "name": "_taxObjectId",
          "type": "uint256"
        }
      ],
      "name": "getMinBuyOutPrice",
      "outputs": [
        {
          "internalType": "uint256",
          "name": "",
          "type": "uint256"
        }
      ],
      "stateMutability": "view",
      "type": "function"
    },
    {
      "inputs": [
        {
          "internalType": "uint256",
          "name": "_licenceId",
          "type": "uint256"
        }
      ],
      "name": "getLicenceTaxObjectId",
      "outputs": [
        {
          "internalType": "uint256",
          "name": "",
          "type": "uint256"
        }
      ],
      "stateMutability": "view",
      "type": "function"
    },
    {
      "inputs": [
        {
          "internalType": "uint256",
          "name": "_publicationId",
          "type": "uint256"
        }
      ],
      "name": "getMostRecentPublicationLicence",
      "outputs": [
        {
          "internalType": "uint256",
          "name": "",
          "type": "uint256"
        }
      ],
      "stateMutability": "view",
      "type": "function"
    },
    {
      "inputs": [
        {
          "internalType": "uint256",
          "name": "_auctionId",
          "type": "uint256"
        }
      ],
      "name": "getAuction",
      "outputs": [
        {
          "components": [
            {
              "internalType": "uint256",
              "name": "publicationId",
              "type": "uint256"
            },
            {
              "internalType": "uint256",
              "name": "auctionFloor",
              "type": "uint256"
            },
            {
              "internalType": "uint256",
              "name": "startingTime",
              "type": "uint256"
            },
            {
              "internalType": "uint256",
              "name": "duration",
              "type": "uint256"
            },
            {
              "internalType": "uint256[]",
              "name": "auctionBidIds",
              "type": "uint256[]"
            },
            {
              "internalType": "uint256",
              "name": "winningBidId",
              "type": "uint256"
            },
            {
              "internalType": "enum SharedStructures.AuctionStatus",
              "name": "status",
              "type": "uint8"
            }
          ],
          "internalType": "struct SharedStructures.Auction",
          "name": "",
          "type": "tuple"
        }
      ],
      "stateMutability": "view",
      "type": "function"
    }
  ],
  "bytecode": "0x6080806040523461001657613453908161001c8239f35b600080fdfe6080806040526004361015610014575b600080fd5b600090813560e01c90816303b43c77146122325750806304686b4a1461221c5780630cdd53f6146120de57806313af40351461203b578063207f293714611fe05780632207fc6a14611ee357806328260cf914611e905780632cedebee14611d7a5780633587647614611c3f5780633c889e6f14611add5780633e76460414611a1b57806346ac9a36146119fc578063486ff0cd146119755780634beb8224146115ca5780634cd541841461157757806351a3534914611514578063572b6c05146114df5780635bc2ff78146114ba578063625d8e7814610e0f578063628389131461149d5780636352211e1461140b578063704f1b941461133f5780637765c52c1461129a57806378bd7935146110fa5780637a3e00cd1461105e5780637da0a877146110385780637ece03bb14610fec57806387ceff0914610fd15780639ae001ff14610e195780639dccae8214610e0f578063a564e83c14610abb578063a8020ee714610a57578063b352c82d14610a04578063b4c0bd9d146109b1578063b7b668af14610791578063d74298df146106b7578063e808386314610690578063eb12cdc3146104f7578063ec297be6146103fa578063fbd9d2eb1461036c578063fd8446e9146102ed5763ff42e879146101f057600080fd5b346102ea57602090816003193601126102ea5760246001600160a01b0383816003541660405193848092633630b3e360e11b825260043560048301525afa9182156102df5790849184936102ae575b506001541691602460405180948193633d446f6760e11b835260048301525afa9182156102a25791610275575b50604051908152f35b90508181813d831161029b575b61028c81836125a7565b8101031261000f57513861026c565b503d610282565b604051903d90823e3d90fd5b8281939294503d83116102d8575b6102c681836125a7565b8101031261000f57839051913861023f565b503d6102bc565b6040513d85823e3d90fd5b80fd5b50346102ea57806003193601126102ea5760049060206001600160a01b03600554166040519384809263fd8446e960e01b82525afa9081156102a2579061033a575b602090604051908152f35b506020813d8211610364575b81610353602093836125a7565b8101031261000f576020905161032f565b3d9150610346565b50346102ea5760203660031901126102ea576024816001600160a01b03600254166040519283809263fbd9d2eb60e01b825260043560048301525afa9081156103ef57826103c893926103cc575b5050604051918291826123ff565b0390f35b6103e892503d8091833e6103e081836125a7565b810190613396565b38806103ba565b6040513d84823e3d90fd5b50346102ea5760403660031901126102ea576001600160a01b038060035416906040518092633630b3e360e11b8252602435600483015281602460209586935afa80156104ec57839185916104bd575b506064610455612626565b918685600154166040519687958694633cabc27560e21b8652600435600487015260248601521660448401525af180156102df57610494575b82604051f35b813d83116104b6575b6104a781836125a7565b8101031261000f57388061048e565b503d61049d565b82819392503d83116104e5575b6104d481836125a7565b8101031261000f578290513861044a565b503d6104ca565b6040513d86823e3d90fd5b50346102ea5760208060031936011261068c57604051916105178361256e565b80835280828401528060408401528060c060609482868201528260808201528560a082015201526024816001600160a01b03600554166040519283809263eb12cdc360e01b825260043560048301525afa9182156102a25780926105da575b505060405192828493845282518185015282015160408401526040820151818401528101516080830152608081015160a083015260c06105c560a083015160e0838601526101008501906125e5565b9101516105d18161243a565b60e08301520390f35b9091503d8082843e6105ec81846125a7565b8201838382031261068c57825167ffffffffffffffff9384821161068457019060e08282031261068857604051936106238561256e565b8251855285830151868601526040830151604086015286830151878601526080830151608086015260a08301519081116106845782916106669160c09401613338565b60a085015201519060028210156102ea575060c08201523880610576565b8380fd5b8280fd5b5080fd5b50346102ea5760203660031901126102ea5760206106af600435612932565b604051908152f35b50346102ea576106c6366123d3565b60055460405163b4c0bd9d60e01b81526004810193909352602093926001600160a01b03929183168582602481845afa918215610786578693929186918293610752575b509060649291610718612626565b96604051978896879563086f5d6560e21b8752600487015260248601521660448401525af19182156102a257916102755750604051908152f35b925093905081813d831161077f575b61076b81836125a7565b8101031261000f575185928590606461070a565b503d610761565b6040513d87823e3d90fd5b50346102ea57602090816003193601126102ea576004356001600160a01b039082848360055416602460405180948193630e95b25960e41b83528760048401525af19081156104ec578491610984575b506107f1575b5050604051908152f35b600554604051635859eec160e01b815260048101839052908316918582602481865afa918215610786579086918693610953575b50602460405180958193634142681360e01b835260048301525afa9182156104ec57849261091c575b508260025416604051926327eaf52960e21b84528260048501528684602481855afa9384156109115786946108da575b50813b156108d65791856064928682969560405198899788966301a6350560e51b885260048801521660248601521660448401525af180156103ef57908291156107e7576108cb9061253e565b6102ea5780386107e7565b8580fd5b9093508681813d831161090a575b6108f281836125a7565b810103126108d65761090390612724565b923861087e565b503d6108e8565b6040513d88823e3d90fd5b9091508481813d831161094c575b61093481836125a7565b810103126106845761094590612724565b903861084e565b503d61092a565b8281939294503d831161097d575b61096b81836125a7565b8101031261000f578590519138610825565b503d610961565b6109a49150853d87116109aa575b61099c81836125a7565b810190612836565b386107e1565b503d610992565b50346102ea57602090816003193601126102ea576024826001600160a01b03600554166040519283809263b4c0bd9d60e01b825260043560048301525afa9182156102a257916102755750604051908152f35b50346102ea57602090816003193601126102ea576024826001600160a01b036005541660405192838092634511371960e11b825260043560048301525afa9182156102a257916102755750604051908152f35b50346102ea5760203660031901126102ea57610a716123e9565b816001600160a01b03602481600254169360405194859384926334767e5760e21b84521660048301525afa9081156103ef57826103c893926103cc575050604051918291826123ff565b50346102ea5760203660031901126102ea5780610180604051610add8161258a565b828152606060208201528260408201528260608201528260808201528260a08201528260c08201528260e082015260606101008201528261012082015260606101408201528261016082015201526024816001600160a01b0360035416604051928380926329593a0f60e21b825260043560048301525afa9081156103ef578291610c5f575b506040519060208252610b7a602083018251612619565b6020810151610b976101a0918260408601526101c085019061248f565b936040830151906006821015610c4b5750610c3684956101809260608701526001600160a01b036060860151166080870152608085015160a087015260ff60a08601511660c087015260c085015160e087015260e0850151610100870152610c1361010086015191601f199283898303016101208a01526125e5565b9061012086015161014088015261014086015190878303016101608801526125e5565b92610160810151828601520151908301520390f35b634e487b7160e01b81526021600452602490fd5b90503d8083833e610c7081836125a7565b602082828101031261068857815167ffffffffffffffff8111610684576101a081840183850103126106845760405192610ca98461258a565b8181015160058110156108d65784526020828201015167ffffffffffffffff81116108d657838201601f82858501010112156108d65780838301015190610cef826125c9565b91610cfd60405193846125a7565b8083528584016020828488880101010111610e0b57610d2691602080850191878701010161245a565b60208501526040828201015160068110156108d6576040850152610d4e606083830101612724565b6060850152608082820101516080850152610d6d60a083830101612924565b60a085015280820160c0818101519086015260e08082015190860152610100015167ffffffffffffffff81116108d657610dae908483019084840101613338565b610100850152808201610120818101519086015261014001519267ffffffffffffffff84116108d65761018093610deb9183019084840101613338565b610140850152016101608181015190840152015161018082015238610b63565b8780fd5b505061000f6124b4565b50346102ea57610e28366123d3565b610e33929192612626565b6001600160a01b03806003541660405192631baaa12b60e31b84528660048501526020938481602481865afa8015610fc65784908890610f8c575b81925016911603610f3257828596602460405180948193633630b3e360e11b835260048301525afa928315610786578593610eff575b50506001541691823b15610efa5760448492836040519586948593639ae001ff60e01b8552600485015260248401525af180156103ef57610ee6575b50604051f35b610eef9061253e565b6102ea578038610ee0565b505050fd5b819550809293503d8311610f2b575b610f1881836125a7565b8101031261000f57839251903880610ea4565b503d610f0e565b60405162461bcd60e51b815260048101849052602c60248201527f4f6e6c7920746865207075626c69736865722063616e206d6f6469667920746860448201526b652073746172742074696d6560a01b6064820152608490fd5b50508481813d8311610fbf575b610fa381836125a7565b81010312610fbb5783610fb68192612724565b610e6e565b8680fd5b503d610f99565b6040513d89823e3d90fd5b50346102ea57806003193601126102ea576020604051428152f35b50346102ea57806003193601126102ea5760049060206001600160a01b036003541660405193848092637ece03bb60e01b82525afa9081156102a2579061033a57602090604051908152f35b50346102ea57806003193601126102ea576001600160a01b036020915416604051908152f35b50346102ea5760403660031901126102ea576110be602061107d6123e9565b6001600160a01b03600654166040518080958194637a3e00cd60e01b83526024359060048401602090939291936001600160a01b0360408201951681520152565b03915afa9081156103ef57602092916110dd575b506040519015158152f35b6110f49150823d81116109aa5761099c81836125a7565b386110d2565b50346102ea5760208060031936011261068c57602460405161111b8161256e565b83815283838201528360408201528360c060609282848201528360808201528260a08201520152836001600160a01b0360015416604051938480926378bd793560e01b825260043560048301525afa9182156104ec5784926111f0575b50604051928084528251818501528201516040840152604082015181840152810151608083015260c06111bb608083015160e060a08601526101008501906125e5565b9160a081015182850152015160048110156111dc5782935060e08301520390f35b634e487b7160e01b84526021600452602484fd5b9091503d8085833e61120281836125a7565b8101838282031261129657815167ffffffffffffffff92838211610fbb570160e0818303126108d657604051926112388461256e565b8151845285820151868501526040820151604085015284820151858501526080820151908111610fbb5760c092611270918301613338565b608084015260a081015160a0840152015160048110156112965760c08201529038611178565b8480fd5b50346102ea57602090816003193601126102ea5780826001600160a01b0360015416602460405180958193631dd9714b60e21b835260043560048401525af19182156113325781926112fa575b506004821015610c4b5750604051908152f35b9091508281813d831161132b575b61131281836125a7565b8101031261068c5751600481101561068c5790386112e7565b503d611308565b50604051903d90823e3d90fd5b50346102ea57602090816003193601126102ea5760043567ffffffffffffffff811161068c573660238201121561068c57806004013561137e816125c9565b9161138c60405193846125a7565b81835236602483830101116106845781849260248793018386013783010152826001600160a01b0380600454166113eb856113c5612626565b9560405196879586948593636ec3877f60e01b855260406004860152604485019061248f565b9116602483015203925af19182156102a257916102755750604051908152f35b50346102ea57602090816003193601126102ea576001600160a01b036024838260025416604051928380926331a9108f60e11b825260043560048301525afa9283156102a2578093611463575b505060405191168152f35b909192508382813d8311611496575b61147c81836125a7565b810103126102ea575061148e90612724565b903880611458565b503d611472565b50346102ea5760203660031901126102ea57602090604051908152f35b50346102ea57806003193601126102ea5760206114d56133bf565b6040519015158152f35b50346102ea5760203660031901126102ea576020906114fc6123e9565b906001600160a01b0380915416911614604051908152f35b50346102ea5760203660031901126102ea5761152e6123e9565b816001600160a01b036024816003541693604051948593849262e07ba960e21b84521660048301525afa9081156103ef57826103c893926103cc575050604051918291826123ff565b50346102ea57602090816003193601126102ea576024826001600160a01b036002541660405192838092631335506160e21b825260043560048301525afa9182156102a257916102755750604051908152f35b50346102ea576101203660031901126102ea57600560043510156102ea5767ffffffffffffffff9081602435116102ea573660236024350112156102ea576024356004013582811161068c5736602482813501011161068c5760c4359060ff821682036106885760e43591848311610684573660238401121561068457826004013590858211611296573660248360071b860101116112965761010435958087116108d657366023880112156108d65786600401359081116108d6573660248260061b890101116108d65761169d6133bf565b1561190a576001600160a01b03926024610124856003541694836116bf612626565b60ff8a8d6101046040519d8e63261c62eb60e11b81526116e460048201600435612619565b60e08b8201528160e4820152818b80350184830137010152601f80199101168b01938a6101048601931660448d015260a43560648d01521660848b01526101008a84030160a48b01525201960190875b8181106118bd575050508385036003190160c485015280855260209485019660240190865b81811061189257505050828491818781819a03925af19182156104ec578492611860575b5060016004350361178f575b83604051f35b8383826001541660846040518094819363b8f4e5a560e01b835288600484015260443560248401526064356044840152833560648401525af193841561078657859461182d575b50506003541691823b15610efa5760448492836040519586948593637c14866f60e11b8552600485015260248401525af180156103ef57611819575b8080611789565b6118229061253e565b6102ea578038611812565b819550809294503d8311611859575b61184681836125a7565b8101031261000f578392519138806117d6565b503d61183c565b935090508183813d811161188b575b61187981836125a7565b8101031261000f57839251903861177d565b503d61186f565b90919760408060019261ffff6118ad8b8e8035855201612715565b16818b0152019901929101611759565b90919687359086821680920361000f576001918152602061ffff6118e2828c01612715565b1690820152604089810135908201526060808a01359082015260809081019801929101611734565b60405162461bcd60e51b815260206004820152603460248201527f43616e2774206372656174652061207075626c69636174696f6e20696620796f60448201527f7520617265206e6f7420726567697374657265640000000000000000000000006064820152608490fd5b50346102ea57806003193601126102ea57604051604081019080821067ffffffffffffffff8311176119e6576103c891604052601481527f332e302e302d616c706861302b756e69636f696e000000000000000000000000602082015260405191829160208352602083019061248f565b634e487b7160e01b600052604160045260246000fd5b50346102ea5760203660031901126102ea5760206106af600435612d9e565b50346102ea5760203660031901126102ea576024816001600160a01b036020816003541660405194858092633630b3e360e11b825260043560048301525afa9283156103ef578293611aa7575b50600154169160246040518094819363385a3b4760e11b835260048301525afa9081156103ef57826103c893926103cc575050604051918291826123ff565b915091506020813d8211611ad5575b81611ac3602093836125a7565b8101031261000f578290519138611a68565b3d9150611ab6565b50346102ea5760208060031936011261068c578160249260c0604051611b028161256e565b82815282858201528260408201528260608201528260808201528260a082015201526001600160a01b039060e0826001541660405195868092633c889e6f851b825260043560048301525afa938415611332578194611bb0575b5060405192845184528085015190840152604084015160408401526060840151906003821015610c4b575060e09360c09160608501526080810151608085015260a081015160a085015201511660c0820152f35b90935060e0813d60e011611c37575b81611bcc60e093836125a7565b810103126106845760405190611be18261256e565b80518252838101518483015260408101516040830152606081015160038110156108d657611c2b9160c09160608501526080810151608085015260a081015160a085015201612724565b60c08201529238611b5c565b3d9150611bbf565b50346102ea5760e03660031901126102ea57611c596123e9565b6024356001600160a01b0380821680920361000f5760443581811680910361000f5760643582811680910361000f576084359183831680930361000f5760a4359484861680960361000f5760c4359480861680960361000f57611cba6126cc565b9788611d64575b81611cca612626565b16966001600160a01b031997886007541617600755876000541617600055168560015416176001558460025416176002558360035416176003558260045416176004558160055416176005556006541617600655611d2757604051f35b805460ff60a81b19168155604051600181527f7f26b83ff96e1f2b6a682f133852f6798a09c465da95921460cefb384740249890602090a1604051f35b895460ff60a81b1916600160a81b178a55611cc1565b50346102ea57602090816003193601126102ea57806060604051611d9d81612552565b828152828582015282604082015201526001600160a01b039060246080836002541660405192838092631676f5f760e11b825260043560048301525afa9182156102a2578092611e1c575b608084606085886040519382511684528082015190840152604081015160408401520151611e158161243a565b6060820152f35b9091506080823d8211611e88575b81611e37608093836125a7565b810103126102ea57606060405192611e4e84612552565b611e5781612724565b845285810151868501526040810151604085015201519060028210156102ea57506060808301919091528390611de8565b3d9150611e2a565b50346102ea57602090816003193601126102ea576024826001600160a01b036005541660405192838092631c59b01360e11b825260043560048301525afa9182156102a257916102755750604051908152f35b50346102ea5760803660031901126102ea576001600160a01b038160246020836003541660405192838092633630b3e360e11b825260443560048301525afa9081156103ef578291611fac575b50611f39612626565b90836001541690813b15610684578360a49260405196879586946334d2d55760e21b865260043560048701526024356024870152604486015260643560648601521660848401525af180156103ef57611f98575b602082604051908152f35b611fa2829161253e565b6102ea5738611f8d565b9150506020813d8211611fd8575b81611fc7602093836125a7565b8101031261000f5782905138611f30565b3d9150611fba565b50346102ea5760203660031901126102ea576024816001600160a01b03600354166040519283809263207f293760e01b825260043560048301525afa9081156103ef57826103c893926103cc575050604051918291826123ff565b50346102ea5760203660031901126102ea576120556123e9565b600754906001600160a01b03908161206b612626565b16828416036120895716906001600160a01b03191617600755604051f35b60405162461bcd60e51b815260206004820152602760248201527f4f6e6c79206f776e65722063616e206368616e676520746865206f776e6572206044820152666164647265737360c81b6064820152608490fd5b50346102ea576120ed366123d3565b6001600160a01b03806003541690604051631baaa12b60e31b8152846004820152856020958683602481885afa9283156103ef5782936121e5575b506024604051809681936310fb199760e31b835260048301525afa91821561091157859387936121c1575b50600654169086612162612626565b6121826040519788968795869463eabfa09960e01b86526004860161284e565b03925af19081156102df5761219f9284926121a4575b50506128d8565b604051f35b6121ba9250803d106109aa5761099c81836125a7565b3880612198565b6121de9193503d8089833e6121d681836125a7565b810190612750565b9138612153565b9092508681813d8311612215575b6121fd81836125a7565b8101031261068c5761220e90612724565b9138612128565b503d6121f3565b50346102ea57806003193601126102ea57604051f35b82346102ea57612241366123d3565b6001600160a01b038481600254166327eaf52960e21b825284600483015281602460209889935afa90811561078657859161239e575b508180612282612626565b169116036123335760055416916040519063b4c0bd9d60e01b825260048201528481602481865afa9081156104ec578491612306575b50823b15610684579060448492836040519586948593631116c47960e31b8552600485015260248401525af180156103ef576122f75750604051908152f35b6123009061253e565b8261026c565b90508481813d831161232c575b61231d81836125a7565b810103126106845751856122b8565b503d612313565b60405162461bcd60e51b815260048101869052603860248201527f4f6e6c79207468652063757272656e74206c6963656e6365206f776e6572206360448201527f616e2075706461746520746865202076616c756174696f6e00000000000000006064820152608490fd5b90508581813d83116123cc575b6123b581836125a7565b81010312611296576123c690612724565b86612277565b503d6123ab565b604090600319011261000f576004359060243590565b600435906001600160a01b038216820361000f57565b6020908160408183019282815285518094520193019160005b828110612426575050505090565b835185529381019392810192600101612418565b6002111561244457565b634e487b7160e01b600052602160045260246000fd5b918091926000905b82821061247a575011612473575050565b6000910152565b91508060209183015181860152018291612462565b906020916124a88151809281855285808601910161245a565b601f01601f1916010190565b503461000f57602036600319011261000f576124ce6123e9565b60006001600160a01b0360248160015416936040519485938492630c4bb1cf60e31b84521660048301525afa8015612532576103c891600091612519575b50604051918291826123ff565b61252c913d8091833e6103e081836125a7565b3861250c565b6040513d6000823e3d90fd5b67ffffffffffffffff81116119e657604052565b6080810190811067ffffffffffffffff8211176119e657604052565b60e0810190811067ffffffffffffffff8211176119e657604052565b6101a0810190811067ffffffffffffffff8211176119e657604052565b90601f8019910116810190811067ffffffffffffffff8211176119e657604052565b67ffffffffffffffff81116119e657601f01601f191660200190565b90815180825260208080930193019160005b828110612605575050505090565b8351855293810193928101926001016125f7565b9060058210156124445752565b601436101580612646575b156126425736601319013560601c90565b3390565b506001600160a01b03600054163314612631565b1561266157565b60405162461bcd60e51b815260206004820152602e60248201527f496e697469616c697a61626c653a20636f6e747261637420697320616c72656160448201527f647920696e697469616c697a65640000000000000000000000000000000000006064820152608490fd5b60005460ff8160a81c166000146126ee57506126e9303b1561265a565b600090565b612700600160ff8360a01c161061265a565b60ff60a01b1916600160a01b17600055600190565b359061ffff8216820361000f57565b51906001600160a01b038216820361000f57565b67ffffffffffffffff81116119e65760051b60200190565b906020808383031261000f57825167ffffffffffffffff9384821161000f57019082601f8301121561000f57815161278781612738565b94604094612797865197886125a7565b828752838088019360071b8601019481861161000f578401925b8584106127c2575050505050505090565b608090818584031261000f578751918201828110858211176128215788526127e985612724565b8252858501519061ffff8216820361000f57828792836080950152898701518a820152606080880151908201528152019301926127b1565b60246000634e487b7160e01b81526041600452fd5b9081602091031261000f5751801515810361000f5790565b9493929091608090818701916001600160a01b03809516885284602092168289015260409080828a015284518094528260a08a019501956000925b85841061289f5750505050505060609150930152565b87518051831688528086015161ffff16888701528082015188830152606090810151908801529684019695820195600190930192612889565b156128df57565b60405162461bcd60e51b815260206004820152601e60248201527f42756c6b2061756374696f6e20736574746c656d656e74206661696c656400006044820152606490fd5b519060ff8216820361000f57565b6001600160a01b0380600154169060409283519363e808386360e01b8552600491828601526024916060868481600080995af1958615612d94578596612d17575b50855115612d0e576020938487018181511615612ccc5783880190815115612c8a5782600354168251865190631baaa12b60e31b82528682015288818981855afa908115612c47578a91612c51575b50898451898951809581936310fb199760e31b83528b8301525afa918215612c47579089918b93612c2b575b5085600654168c8c89612a1a8a89511693518d519889978896879563eabfa09960e01b8752860161284e565b03925af1908115612c04578994939291612a3b918691612c0e575b506128d8565b87836003541688845189519788938492631d57d4e360e21b84528b8401525af1938415612c04579088918a95612bcf575b5060648480600254169251168b8551938a519889958694633fe4815560e01b86528c8601528d85015260448401525af1928315612b96578893612ba0575b508682600354169151878751809481936301854b3760e51b8352898301525afa908115612b96578891612b5c575b5060ff16600214612aef575b505050505050505190565b859287604492600554168a5187519889968795630eed804960e31b87528601528401525af1908115612b535750612b2a575b80808080612ae4565b813d8311612b4c575b612b3d81836125a7565b810103126102ea578080612b21565b503d612b33565b513d85823e3d90fd5b90508681813d8311612b8f575b612b7381836125a7565b81010312610e0b5760ff612b88600292612924565b9150612ad8565b503d612b69565b85513d8a823e3d90fd5b9092508681813d8311612bc8575b612bb881836125a7565b81010312610e0b57519138612aaa565b503d612bae565b8281939296503d8311612bfd575b612be781836125a7565b81010312612bf9578790519338612a6c565b8880fd5b503d612bdd565b86513d8b823e3d90fd5b612c2591508a3d8c116109aa5761099c81836125a7565b38612a35565b612c409193503d808d833e6121d681836125a7565b91386129ee565b87513d8c823e3d90fd5b90508881813d8311612c83575b612c6881836125a7565b81010312612c7f57612c7990612724565b386129c2565b8980fd5b503d612c5e565b845162461bcd60e51b81528085018890526016818801527f496e76616c6964207075626c69636174696f6e204964000000000000000000006044820152606490fd5b835162461bcd60e51b81528084018790526016818701527f496e76616c69642077696e6e696e6720626964204964000000000000000000006044820152606490fd5b50505050905090565b9095506060813d8211612d8c575b81612d32606093836125a7565b81010312611296578151906060820182811067ffffffffffffffff821117612d7a578352805182528290612d6860208201612724565b60208401520151828201529438612973565b634e487b7160e01b8752604188528487fd5b3d9150612d25565b82513d87823e3d90fd5b6000906001600160a01b03806002541691604091825193631335506160e21b8552600491838387015260209160249683818981855afa90811561306157899161330b575b50600554875163b4c0bd9d60e01b81528681018390529290841685848b81845afa9384156131f3578a929187918d966132d7575b508a5193848092634511371960e11b8252888c8301525afa9182156131f3578a9187918d946132a5575b508a51928380926331a9108f60e11b8252878c8301525afa9081156131f3578b9161326c575b506006548951637a3e00cd60e01b81526001600160a01b038316818a0190815260208101859052918716918890829081906040010381855afa908115613262578d91613245575b5061308e575050508260025416803b15612c7f578980918a8a5180948193633a7ae75d60e01b978884528c8401525af18015613084579185918b9361306b575b50898560035416918a51948593849283528b8b8401525af1801561306157908491613038575b5050816005541690813b15612bf957889188839289519485938492631af19b2b60e31b84528a8401525af1801561301a57908891613024575b50828260015416608488518094819363b8f4e5a560e01b83528a8a840152818d84015242604484015262278d0060648401525af192831561301a578893612fea575b50506003541690813b15610fbb57918660449281959487519889968795637c14866f60e11b87528601528401525af1908115612fe15750908291612fd157505090565b612fda9061253e565b6102ea5790565b513d84823e3d90fd5b9080929350813d8311613013575b61300281836125a7565b8101031261000f5751903880612f8e565b503d612ff8565b86513d8a823e3d90fd5b61302d9061253e565b610fbb578638612f4c565b813d831161305a575b61304b81836125a7565b8101031261000f578238612f13565b503d613041565b87513d8b823e3d90fd5b6130779193925061253e565b612bf95783899138612eed565b88513d8c823e3d90fd5b9092508460039b9a9694979998929b541692885192631baaa12b60e31b8452808b85015285848981885afa93841561323b57908c9182956131fd575b50888c8c5197889384926310fb199760e31b84528301525afa9384156131f357908b8b8e8896959483986131d3575b50613118908d519889978896879563eabfa09960e01b8752860161284e565b03925af190811561301a5788916131b6575b501561317657506005541693843b156108d65790859291838551968794859363709b1da960e11b85528401525af1908115612fe1575061316957505090565b6131729061253e565b5090565b85818460649388519362461bcd60e51b85528401528201527f42756c6b2068617262657267657220736574746c656d656e74206661696c65646044820152fd5b6131cd9150823d84116109aa5761099c81836125a7565b3861312a565b6131189198506131ec903d8086833e6121d681836125a7565b97906130f9565b89513d8d823e3d90fd5b87809296508193503d8311613234575b61321781836125a7565b81010312613230576132298c91612724565b93386130ca565b8b80fd5b503d61320d565b8a513d8e823e3d90fd5b61325c9150883d8a116109aa5761099c81836125a7565b38612ead565b8b513d8f823e3d90fd5b90508581813d831161329e575b61328381836125a7565b8101031261329a5761329490612724565b38612e66565b8a80fd5b503d613279565b9250925081813d83116132d0575b6132bd81836125a7565b8101031261329a57858a91519238612e40565b503d6132b3565b929350945081813d8311613304575b6132f081836125a7565b8101031261329a5790858a92519438612e16565b503d6132e6565b90508381813d8311613331575b61332281836125a7565b81010312612bf9575138612de2565b503d613318565b81601f8201121561000f5780519161334f83612738565b9261335d60405194856125a7565b808452602092838086019260051b82010192831161000f578301905b828210613387575050505090565b81518152908301908301613379565b9060208282031261000f57815167ffffffffffffffff811161000f576133bc9201613338565b90565b6001600160a01b03602081600454169160246133d9612626565b60405194859384926338b6a3a160e01b84521660048301525afa90811561253257600091613405575090565b6133bc915060203d81116109aa5761099c81836125a756fea2646970667358221220ed9171102cbf3c9ad9311f730bc3f0a0e26864815835e6835a5d95b866324ad964736f6c634300080f0033",
  "immutableReferences": {},
  "source": "// SPDX-License-Identifier: MIT\n\npragma solidity ^0.8.9;\n\n/// @title UniCoin smart contract\n/// @author Chris Maree\n\nimport \"@opengsn/contracts/src/BaseRelayRecipient.sol\";\nimport \"@openzeppelin/contracts-upgradeable/proxy/utils/Initializable.sol\";\n\nimport \"./interfaces/IAuctionManager.sol\";\nimport \"./interfaces/ILicenceManager.sol\";\nimport \"./interfaces/IPublicationManager.sol\";\nimport \"./interfaces/IUserManager.sol\";\nimport \"./interfaces/IVault.sol\";\nimport \"./interfaces/IHarbergerTaxManager.sol\";\n\nimport \"./library/SharedStructures.sol\";\n\ncontract UnicoinRegistry is BaseRelayRecipient, Initializable {\n    function versionRecipient() public pure override returns (string memory) {\n        return \"3.0.0-alpha0+unicoin\";\n    }\n\n    IAuctionManager private auctionManager;\n    ILicenceManager private licenceManager;\n    IPublicationManager private publicationManager;\n    IUserManager private userManager;\n    IHarbergerTaxManager private harbergerTaxManager;\n    IVault private vault;\n\n    address owner;\n\n    //string public override versionRecipient = \"2.2.6+opengsn.unicoinregistry\";\n\n    function initialize(\n        address _auctionManager,\n        address _licenceManager,\n        address _publicationManager,\n        address _userManager,\n        address _harbergerTaxManager,\n        address _vault,\n        address _forwarder\n    ) public initializer {\n        owner = _msgSender();\n\n        _setTrustedForwarder(_forwarder);\n\n        //GSNRecipient.initialize();\n\n        auctionManager = IAuctionManager(_auctionManager);\n        licenceManager = ILicenceManager(_licenceManager);\n        publicationManager = IPublicationManager(_publicationManager);\n        userManager = IUserManager(_userManager);\n        harbergerTaxManager = IHarbergerTaxManager(_harbergerTaxManager);\n        vault = IVault(_vault);\n\n        //trustedForwarder = _forwarder;\n    }\n\n    // accept all requests\n    /*function acceptRelayedCall(\n        address,\n        address,\n        bytes calldata,\n        uint256,\n        uint256,\n        uint256,\n        uint256,\n        bytes calldata,\n        uint256\n    ) external view returns (uint256, bytes memory) {\n        return _approveRelayedCall();\n    }*/\n\n    function _preRelayedCall(bytes memory context) internal returns (bytes32) {\n        // solhint-disable-previous-line no-empty-blocks\n    }\n\n    function _postRelayedCall(\n        bytes memory context,\n        bool,\n        uint256 actualCharge,\n        bytes32\n    ) internal {\n        // solhint-disable-previous-line no-empty-blocks\n    }\n\n    function setOwner(address _owner) public {\n        require(owner == _msgSender(), \"Only owner can change the owner address\");\n        owner = _owner;\n    }\n\n    function registerUser(string memory _profileUri) public returns (uint256) {\n        uint256 userId = userManager._registerUser(_profileUri, _msgSender());\n        return userId;\n    }\n\n    function createPublication(\n        SharedStructures.PricingStrategy _pricingStrategy,\n        string calldata _publicationUri,\n        uint256 _auctionFloor,\n        uint256 _auctionStartTime,\n        uint256 _auctionDuration,\n        uint256 _fixedSellPrice,\n        uint8 _maxNumberOfLicences,\n        SharedStructures.Contribution[] calldata _contributors,\n        SharedStructures.Citation[] calldata _citations\n    ) public {\n        require(isCallerRegistered(), \"Can't create a publication if you are not registered\");\n\n        //uint256 authorId = getCallerId();\n\n        uint256 publicationId = publicationManager._createPublication(\n            _pricingStrategy,\n            _publicationUri,\n            _msgSender(),\n            _fixedSellPrice,\n            _maxNumberOfLicences,\n            _contributors,\n            _citations\n        );\n\n        if (_pricingStrategy != SharedStructures.PricingStrategy.FixedRate) {\n            uint256 auctionId = auctionManager._createAuction(\n                publicationId,\n                _auctionFloor,\n                _auctionStartTime,\n                _auctionDuration\n            );\n            publicationManager._addAuctionToPublication(publicationId, auctionId);\n        }\n    }\n\n    function commitSealedBid(bytes32 _bidHash, uint256 _publicationId) public {\n        uint256 auctionId = publicationManager.getLatestAuctionId(_publicationId);\n        address bidderAddress = _msgSender();\n\n        auctionManager._commitSealedBid(_bidHash, auctionId, bidderAddress);\n    }\n\n    function revealSealedBid(\n        uint256 _bid,\n        uint256 _salt,\n        uint256 _publicationId,\n        uint256 _bidId\n    ) public returns (uint256) {\n        uint256 auctionId = publicationManager.getLatestAuctionId(_publicationId);\n        address bidderAddress = _msgSender();\n\n        auctionManager.revealSealedBid(_bid, _salt, auctionId, _bidId, bidderAddress);\n    }\n\n    function finalizeAuction(uint256 _auctionId) public returns (uint256) {\n        //(uint256 winningBidAmount, address winningBidderAddress, uint256 publicationId) = auctionManager.finalizeAuction(\n        //    _auctionId\n        //);\n\n        SharedStructures.AuctionResult memory auctionRes = auctionManager.finalizeAuction(_auctionId);\n\n        if (auctionRes.winningAmount == 0) {\n            return 0; //no one won the auction\n        }\n        require(auctionRes.winnerAddress != address(0), \"Invalid winning bid Id\");\n        require(auctionRes.publicationId > 0, \"Invalid publication Id\");\n\n        address ownerAddress = publicationManager.getOwnerAddress(auctionRes.publicationId);\n        //address authorAddress = userManager.getUserAddress(authorId);\n        //address winningBidderAddress = userManager.getUserAddress(winningBidderId);\n\n        // (uint256[] memory contributorIds, uint256[] memory contributorWeightings) = publicationManager._getContributers(\n        //    publicationId\n        //);\n\n        SharedStructures.Contribution[] memory contributors = publicationManager._getContributors(\n            auctionRes.publicationId\n        );\n\n        //address[] memory contributorAddresses = userManager.getAddressArray(contributorIds);\n\n        require(\n            vault.settleBulkPayment(auctionRes.winnerAddress, ownerAddress, contributors, auctionRes.winningAmount),\n            \"Bulk auction settlement failed\"\n        );\n\n        uint256 publicationLicenceNo = publicationManager.addNewLicenceToPublication(auctionRes.publicationId);\n\n        uint256 licenceId = licenceManager.registerNewLicence(\n            auctionRes.winnerAddress,\n            //winningBidderId,\n            auctionRes.publicationId,\n            publicationLicenceNo\n        );\n        if (\n            publicationManager.GetPublicationPricingStrategy(auctionRes.publicationId) ==\n            uint8(SharedStructures.PricingStrategy.PrivateAuctionHarberger)\n        ) {\n            harbergerTaxManager.createTaxObject(licenceId, auctionRes.winningAmount);\n        }\n        return auctionRes.winningAmount;\n    }\n\n    function buyLicenceFixedRate() public {}\n\n    function claimHarbergerTax(uint256 _publicationId) public returns (uint256) {\n        uint256 licenceId = licenceManager.getMostRecentPublicationLicence(_publicationId);\n        uint256 taxObjectId = harbergerTaxManager.getLicenceTaxObjectId(licenceId);\n        uint256 outstandingTax = harbergerTaxManager.calculateOutstandingTax(taxObjectId);\n        address licenceOwner = licenceManager.ownerOf(licenceId);\n        bool licenceOwnerSolvent = vault.canAddressPay(licenceOwner, outstandingTax);\n\n        if (licenceOwnerSolvent) {\n            //the licence owner can pay the tax and all contributers are paid\n            address authorAddress = publicationManager.getOwnerAddress(_publicationId);\n            //address authorAddress = userManager.getUserAddress(authorId);\n\n            //(uint256[] memory contributorIds, uint256[] memory contributorWeightings) = publicationManager\n            //    ._getContributers(_publicationId);\n\n            SharedStructures.Contribution[] memory contributors = publicationManager._getContributors(_publicationId);\n\n            //address[] memory contributorAddresses = userManager.getAddressArray(contributorIds);\n\n            require(\n                vault.settleBulkPayment(\n                    licenceOwner,\n                    authorAddress,\n                    contributors,\n                    //contributorAddresses,\n                    //contributorWeightings,\n                    outstandingTax\n                ),\n                \"Bulk harberger settlement failed\"\n            );\n\n            harbergerTaxManager._updateTaxObjectLastPayment(taxObjectId);\n\n            return outstandingTax; //returns the total tax sent\n        }\n        // the licence owner cant pay the tax. they loose their licence which is placed for auction again\n        if (!licenceOwnerSolvent) {\n            licenceManager.revokeLicence(licenceId);\n            publicationManager.revokeLicence(_publicationId);\n            harbergerTaxManager.revokeTaxObject(taxObjectId);\n\n            //create a new auction\n            uint256 auctionId = auctionManager._createAuction(\n                _publicationId,\n                0, //auction floor\n                block.timestamp, //auction start time\n                60 * 60 * 24 * 30 // one month duration for the auction\n            );\n            publicationManager._addAuctionToPublication(_publicationId, auctionId);\n            return 0;\n        }\n    }\n\n    function updateLicenceHarbergerValuation(uint256 _licenceId, uint256 _newValuation) public returns (uint256) {\n        address licenceOwnerAddress = licenceManager.getLicenceOwnerAddress(_licenceId);\n\n        require(licenceOwnerAddress == _msgSender(), \"Only the current licence owner can update the  valuation\");\n\n        uint256 taxObjectId = harbergerTaxManager.getLicenceTaxObjectId(_licenceId);\n\n        harbergerTaxManager._updateTaxObjectValuation(taxObjectId, _newValuation);\n    }\n\n    function createHarbergerBuyOut(uint256 _licenceId, uint256 _buyOutAmount) public returns (uint256) {\n        uint256 taxObjectId = harbergerTaxManager.getLicenceTaxObjectId(_licenceId);\n        address buyOutOwnerId = _msgSender();\n\n        uint256 buyOutId = harbergerTaxManager.submitBuyOut(taxObjectId, _buyOutAmount, buyOutOwnerId);\n        return buyOutId;\n    }\n\n    function finalizeBuyoutOffer(uint256 _buyOutId) public returns (bool) {\n        bool offerSucceeded = harbergerTaxManager.finalizeBuyOutOffer(_buyOutId);\n\n        if (offerSucceeded) {\n            uint256 licenceId = harbergerTaxManager.getBuyOutLicenceId(_buyOutId);\n\n            //uint256 buyOutOwnerId = harbergerTaxManager.getBuyOutOwnerId(_buyOutId);\n\n            //address buyOutOwnerAddress = userManager.getUserAddress(buyOutOwnerId);\n\n            address buyoutOwnerAddress = harbergerTaxManager.getBuyOutOwnerAddress(_buyOutId);\n\n            address previousOwnerAddress = licenceManager.getLicenceOwnerAddress(licenceId);\n\n            licenceManager.allocateLicenceToNewOwner(\n                licenceId,\n                // buyOutOwnerId,\n                previousOwnerAddress,\n                buyoutOwnerAddress\n            );\n        }\n    }\n\n    function getTaxObject(uint256 _taxObjectId) public view returns (SharedStructures.TaxObject memory) {\n        return (harbergerTaxManager.getTaxObject(_taxObjectId));\n    }\n\n    /*function getBuyOut(uint256 _buyOutId) public view returns (uint256, uint256, uint256, uint256, uint8) {\n        return (harbergerTaxManager.getBuyOut(_buyOutId));\n    }*/\n\n    function getTaxObjectLength() public view returns (uint256) {\n        return harbergerTaxManager.getTaxObjectLength();\n    }\n\n    function getMinBuyOutAmount(uint256 _publicationId) public view returns (uint256) {}\n\n    function getPublicationsAuthorAddress(address _address) public view returns (uint256[] memory) {\n        return publicationManager.getAllPublications(_address);\n    }\n\n    /*function getPublicationsAuthorId(uint256 _authorId) public view returns (uint256[] memory) {\n        return publicationManager.getAuthorPublications(_authorId);\n    }*/\n\n    function getPublicationLicences(uint256 _publicationId) public view returns (uint256[] memory) {\n        return licenceManager.getPublicationLicences(_publicationId);\n    }\n\n    function getBids(address _address) public view returns (uint256[] memory) {\n        return auctionManager.getBidderBids(_address);\n    }\n\n    function getPublicationAuctions(uint256 _publicationId) public view returns (uint256[] memory) {\n        return publicationManager.getPublicationAuctions(_publicationId);\n    }\n\n    function getPublicationLength() public view returns (uint256) {\n        return publicationManager.getPublicationLength();\n    }\n\n    function getPublication(uint256 _publicationId) public view returns (SharedStructures.Publication memory) {\n        return (publicationManager.getPublication(_publicationId));\n    }\n\n    function getLicenceForAddress(address _address) public view returns (uint256[] memory) {\n        return licenceManager.getLicenceForUser(_address);\n    }\n\n    /*function getLicenceForUserId(uint256 _userId) public view returns (uint256[] memory) {\n        return licenceManager.getLicenceForUser(_userId);\n    }*/\n\n    function getLicence(uint256 _licenceId) public view returns (SharedStructures.Licence memory) {\n        return (licenceManager.getLicence(_licenceId));\n    }\n\n    function donate(uint256 _publicationId, uint256 _value) public {\n        address authorAddress = publicationManager.getOwnerAddress(_publicationId);\n\n        SharedStructures.Contribution[] memory contributors = publicationManager._getContributors(_publicationId);\n\n        require(\n            vault.settleBulkPayment(_msgSender(), authorAddress, contributors, _value),\n            \"Bulk auction settlement failed\"\n        );\n    }\n\n    function isCallerRegistered() public view returns (bool) {\n        return userManager.isAddressRegistered(_msgSender());\n    }\n\n    /*function getCallerId() public view returns (uint256) {\n        uint256 callerId = userManager.getUserId(_msgSender());\n        require(callerId != 0, \"Caller is not registered!\");\n        return callerId;\n    }*/\n\n    /*function getUserAddress(uint256 _userId) public view returns (address) {\n        return userManager.getUserAddress(_userId);\n    }*/\n\n    function canAddressPay(address userAddress, uint256 _amount) public view returns (bool) {\n        return vault.canAddressPay(userAddress, _amount);\n    }\n\n    function getBidderBids(address bidderAddress) public view returns (uint256[] memory) {\n        return auctionManager.getBidderBids(bidderAddress);\n    }\n\n    function getBlockTime() public view returns (uint256) {\n        return block.timestamp;\n    }\n\n    function getAuctionStatus(uint256 _auctionId) public returns (uint256) {\n        return uint256(auctionManager.getAuctionStatus(_auctionId));\n    }\n\n    function updateAuctionStartTime(uint256 _publicationId, uint256 _newStartTime) public {\n        //address callerAddress = _msgSender();\n\n        require(\n            _msgSender() == publicationManager.getOwnerAddress(_publicationId),\n            \"Only the publisher can modify the start time\"\n        );\n\n        uint256 auctionId = publicationManager.getLatestAuctionId(_publicationId);\n\n        auctionManager.updateAuctionStartTime(auctionId, _newStartTime);\n    }\n\n    function getPublicationBids(uint256 _publicationId) public view returns (uint256[] memory) {\n        uint256 auctionId = publicationManager.getLatestAuctionId(_publicationId);\n        return (auctionManager.getAuctionBids(auctionId));\n    }\n\n    function getBid(uint256 _bidId) public view returns (SharedStructures.Bid memory) {\n        return (auctionManager.getBid(_bidId));\n    }\n\n    function getPublicationAuctionBidLength(uint256 _publicationId) public view returns (uint256) {\n        uint256 auctionId = publicationManager.getLatestAuctionId(_publicationId);\n        return auctionManager.getNumberOfBidsInAuction(auctionId);\n    }\n\n    function ownerOf(uint256 tokenId) public view returns (address) {\n        return licenceManager.ownerOf(tokenId);\n    }\n\n    function getOutstandingTax(uint256 _taxObjectId) public view returns (uint256) {\n        return harbergerTaxManager.calculateOutstandingTax(_taxObjectId);\n    }\n\n    function getMinBuyOutPrice(uint256 _taxObjectId) public view returns (uint256) {\n        return harbergerTaxManager.calculateMinBuyOutPrice(_taxObjectId);\n    }\n\n    function getLicenceTaxObjectId(uint256 _licenceId) public view returns (uint256) {\n        return harbergerTaxManager.getLicenceTaxObjectId(_licenceId);\n    }\n\n    /*function getLicenceBuyOuts(uint256 _licenceId)\n        public\n        view\n        returns (\n            uint256[] memory,\n            uint256[] memory,\n            uint256[] memory,\n            uint256[] memory,\n            IHarbergerTaxManager.BuyOutStatus[] memory\n        )\n    {\n        return (harbergerTaxManager.getLicenceBuyOuts(_licenceId));\n    }*/\n\n    function getMostRecentPublicationLicence(uint256 _publicationId) public view returns (uint256) {\n        return licenceManager.getMostRecentPublicationLicence(_publicationId);\n    }\n\n    function getAuction(uint256 _auctionId) public view returns (SharedStructures.Auction memory) {\n        return (auctionManager.getAuction(_auctionId));\n    }\n}\n",
  "sourcePath": "/home/azureuser/unicoin/unicoin2.0/contracts/UnicoinRegistry.sol",
  "compiler": {
    "name": "solc",
    "version": "0.8.15+commit.e14f2714.Emscripten.clang"
  },
  "schemaVersion": "3.4.6",
  "updatedAt": "2022-06-18T19:39:02.071Z",
  "devdoc": {
    "kind": "dev",
    "methods": {},
    "version": 1
  },
  "userdoc": {
    "kind": "user",
    "methods": {
      "isTrustedForwarder(address)": {
        "notice": "return if the forwarder is trusted to forward relayed transactions to us. the forwarder is required to verify the sender's signature, and verify the call is not a replay."
      }
    },
    "version": 1
  }
}