{
  "contractName": "UnicoinRegistry",
  "abi": [
    {
      "anonymous": false,
      "inputs": [
        {
          "indexed": true,
          "internalType": "address",
          "name": "oldRelayHub",
          "type": "address"
        },
        {
          "indexed": true,
          "internalType": "address",
          "name": "newRelayHub",
          "type": "address"
        }
      ],
      "name": "RelayHubChanged",
      "type": "event"
    },
    {
      "constant": true,
      "inputs": [],
      "name": "getHubAddr",
      "outputs": [
        {
          "internalType": "address",
          "name": "",
          "type": "address"
        }
      ],
      "payable": false,
      "stateMutability": "view",
      "type": "function"
    },
    {
      "constant": false,
      "inputs": [
        {
          "internalType": "bytes",
          "name": "context",
          "type": "bytes"
        },
        {
          "internalType": "bool",
          "name": "success",
          "type": "bool"
        },
        {
          "internalType": "uint256",
          "name": "actualCharge",
          "type": "uint256"
        },
        {
          "internalType": "bytes32",
          "name": "preRetVal",
          "type": "bytes32"
        }
      ],
      "name": "postRelayedCall",
      "outputs": [],
      "payable": false,
      "stateMutability": "nonpayable",
      "type": "function"
    },
    {
      "constant": false,
      "inputs": [
        {
          "internalType": "bytes",
          "name": "context",
          "type": "bytes"
        }
      ],
      "name": "preRelayedCall",
      "outputs": [
        {
          "internalType": "bytes32",
          "name": "",
          "type": "bytes32"
        }
      ],
      "payable": false,
      "stateMutability": "nonpayable",
      "type": "function"
    },
    {
      "constant": true,
      "inputs": [],
      "name": "relayHubVersion",
      "outputs": [
        {
          "internalType": "string",
          "name": "",
          "type": "string"
        }
      ],
      "payable": false,
      "stateMutability": "view",
      "type": "function"
    },
    {
      "constant": false,
      "inputs": [],
      "name": "setDefaultRelayHub",
      "outputs": [],
      "payable": false,
      "stateMutability": "nonpayable",
      "type": "function"
    },
    {
      "constant": false,
      "inputs": [],
      "name": "initialize",
      "outputs": [],
      "payable": false,
      "stateMutability": "nonpayable",
      "type": "function"
    },
    {
      "constant": false,
      "inputs": [
        {
          "internalType": "address",
          "name": "_auctionManager",
          "type": "address"
        },
        {
          "internalType": "address",
          "name": "_licenceManager",
          "type": "address"
        },
        {
          "internalType": "address",
          "name": "_publicationManager",
          "type": "address"
        },
        {
          "internalType": "address",
          "name": "_userManager",
          "type": "address"
        },
        {
          "internalType": "address",
          "name": "_harbergerTaxManager",
          "type": "address"
        },
        {
          "internalType": "address",
          "name": "_vault",
          "type": "address"
        }
      ],
      "name": "initialize",
      "outputs": [],
      "payable": false,
      "stateMutability": "nonpayable",
      "type": "function"
    },
    {
      "constant": true,
      "inputs": [
        {
          "internalType": "address",
          "name": "",
          "type": "address"
        },
        {
          "internalType": "address",
          "name": "",
          "type": "address"
        },
        {
          "internalType": "bytes",
          "name": "",
          "type": "bytes"
        },
        {
          "internalType": "uint256",
          "name": "",
          "type": "uint256"
        },
        {
          "internalType": "uint256",
          "name": "",
          "type": "uint256"
        },
        {
          "internalType": "uint256",
          "name": "",
          "type": "uint256"
        },
        {
          "internalType": "uint256",
          "name": "",
          "type": "uint256"
        },
        {
          "internalType": "bytes",
          "name": "",
          "type": "bytes"
        },
        {
          "internalType": "uint256",
          "name": "",
          "type": "uint256"
        }
      ],
      "name": "acceptRelayedCall",
      "outputs": [
        {
          "internalType": "uint256",
          "name": "",
          "type": "uint256"
        },
        {
          "internalType": "bytes",
          "name": "",
          "type": "bytes"
        }
      ],
      "payable": false,
      "stateMutability": "view",
      "type": "function"
    },
    {
      "constant": false,
      "inputs": [
        {
          "internalType": "address",
          "name": "_owner",
          "type": "address"
        }
      ],
      "name": "setOwner",
      "outputs": [],
      "payable": false,
      "stateMutability": "nonpayable",
      "type": "function"
    },
    {
      "constant": false,
      "inputs": [
        {
          "internalType": "string",
          "name": "_profile_uri",
          "type": "string"
        }
      ],
      "name": "registerUser",
      "outputs": [
        {
          "internalType": "uint256",
          "name": "",
          "type": "uint256"
        }
      ],
      "payable": false,
      "stateMutability": "nonpayable",
      "type": "function"
    },
    {
      "constant": false,
      "inputs": [
        {
          "internalType": "uint8",
          "name": "_pricing_Strategy",
          "type": "uint8"
        },
        {
          "internalType": "string",
          "name": "_publication_uri",
          "type": "string"
        },
        {
          "internalType": "uint256",
          "name": "_auctionFloor",
          "type": "uint256"
        },
        {
          "internalType": "uint256",
          "name": "_auctionStartTime",
          "type": "uint256"
        },
        {
          "internalType": "uint256",
          "name": "_auctionDuration",
          "type": "uint256"
        },
        {
          "internalType": "uint256",
          "name": "_fixed_sell_price",
          "type": "uint256"
        },
        {
          "internalType": "uint256",
          "name": "_maxNumberOfLicences",
          "type": "uint256"
        },
        {
          "internalType": "uint256[]",
          "name": "_contributors",
          "type": "uint256[]"
        },
        {
          "internalType": "uint256[]",
          "name": "_contributors_weightings",
          "type": "uint256[]"
        }
      ],
      "name": "createPublication",
      "outputs": [],
      "payable": false,
      "stateMutability": "nonpayable",
      "type": "function"
    },
    {
      "constant": false,
      "inputs": [
        {
          "internalType": "bytes32",
          "name": "_bidHash",
          "type": "bytes32"
        },
        {
          "internalType": "uint256",
          "name": "_publication_Id",
          "type": "uint256"
        }
      ],
      "name": "commitSealedBid",
      "outputs": [],
      "payable": false,
      "stateMutability": "nonpayable",
      "type": "function"
    },
    {
      "constant": false,
      "inputs": [
        {
          "internalType": "uint256",
          "name": "_bid",
          "type": "uint256"
        },
        {
          "internalType": "uint256",
          "name": "_salt",
          "type": "uint256"
        },
        {
          "internalType": "uint256",
          "name": "_publication_Id",
          "type": "uint256"
        },
        {
          "internalType": "uint256",
          "name": "_bid_Id",
          "type": "uint256"
        }
      ],
      "name": "revealSealedBid",
      "outputs": [
        {
          "internalType": "uint256",
          "name": "",
          "type": "uint256"
        }
      ],
      "payable": false,
      "stateMutability": "nonpayable",
      "type": "function"
    },
    {
      "constant": false,
      "inputs": [
        {
          "internalType": "uint256",
          "name": "_auction_Id",
          "type": "uint256"
        }
      ],
      "name": "finalizeAuction",
      "outputs": [
        {
          "internalType": "uint256",
          "name": "",
          "type": "uint256"
        }
      ],
      "payable": false,
      "stateMutability": "nonpayable",
      "type": "function"
    },
    {
      "constant": false,
      "inputs": [],
      "name": "buyLicenceFixedRate",
      "outputs": [],
      "payable": false,
      "stateMutability": "nonpayable",
      "type": "function"
    },
    {
      "constant": false,
      "inputs": [
        {
          "internalType": "uint256",
          "name": "_publication_Id",
          "type": "uint256"
        }
      ],
      "name": "claimHarbergerTax",
      "outputs": [
        {
          "internalType": "uint256",
          "name": "",
          "type": "uint256"
        }
      ],
      "payable": false,
      "stateMutability": "nonpayable",
      "type": "function"
    },
    {
      "constant": false,
      "inputs": [
        {
          "internalType": "uint256",
          "name": "_licence_Id",
          "type": "uint256"
        },
        {
          "internalType": "uint256",
          "name": "_newValuation",
          "type": "uint256"
        }
      ],
      "name": "updateLicenceHarbergerValuation",
      "outputs": [
        {
          "internalType": "uint256",
          "name": "",
          "type": "uint256"
        }
      ],
      "payable": false,
      "stateMutability": "nonpayable",
      "type": "function"
    },
    {
      "constant": false,
      "inputs": [
        {
          "internalType": "uint256",
          "name": "_licence_Id",
          "type": "uint256"
        },
        {
          "internalType": "uint256",
          "name": "_buyOutAmount",
          "type": "uint256"
        }
      ],
      "name": "createHarbergerBuyOut",
      "outputs": [
        {
          "internalType": "uint256",
          "name": "",
          "type": "uint256"
        }
      ],
      "payable": false,
      "stateMutability": "nonpayable",
      "type": "function"
    },
    {
      "constant": false,
      "inputs": [
        {
          "internalType": "uint256",
          "name": "_buyOut_Id",
          "type": "uint256"
        }
      ],
      "name": "finalizeBuyoutOffer",
      "outputs": [
        {
          "internalType": "bool",
          "name": "",
          "type": "bool"
        }
      ],
      "payable": false,
      "stateMutability": "nonpayable",
      "type": "function"
    },
    {
      "constant": true,
      "inputs": [
        {
          "internalType": "uint256",
          "name": "_taxObject_Id",
          "type": "uint256"
        }
      ],
      "name": "getTaxObject",
      "outputs": [
        {
          "internalType": "uint256",
          "name": "",
          "type": "uint256"
        },
        {
          "internalType": "uint256",
          "name": "",
          "type": "uint256"
        },
        {
          "internalType": "uint256",
          "name": "",
          "type": "uint256"
        },
        {
          "internalType": "uint256",
          "name": "",
          "type": "uint256"
        },
        {
          "internalType": "uint256",
          "name": "",
          "type": "uint256"
        },
        {
          "internalType": "uint256[]",
          "name": "",
          "type": "uint256[]"
        },
        {
          "internalType": "uint8",
          "name": "",
          "type": "uint8"
        }
      ],
      "payable": false,
      "stateMutability": "view",
      "type": "function"
    },
    {
      "constant": true,
      "inputs": [
        {
          "internalType": "uint256",
          "name": "_buyOut_Id",
          "type": "uint256"
        }
      ],
      "name": "getBuyOut",
      "outputs": [
        {
          "internalType": "uint256",
          "name": "",
          "type": "uint256"
        },
        {
          "internalType": "uint256",
          "name": "",
          "type": "uint256"
        },
        {
          "internalType": "uint256",
          "name": "",
          "type": "uint256"
        },
        {
          "internalType": "uint256",
          "name": "",
          "type": "uint256"
        },
        {
          "internalType": "uint8",
          "name": "",
          "type": "uint8"
        }
      ],
      "payable": false,
      "stateMutability": "view",
      "type": "function"
    },
    {
      "constant": true,
      "inputs": [],
      "name": "getTaxObjectLength",
      "outputs": [
        {
          "internalType": "uint256",
          "name": "",
          "type": "uint256"
        }
      ],
      "payable": false,
      "stateMutability": "view",
      "type": "function"
    },
    {
      "constant": true,
      "inputs": [
        {
          "internalType": "uint256",
          "name": "_publication_Id",
          "type": "uint256"
        }
      ],
      "name": "getMinBuyOutAmount",
      "outputs": [
        {
          "internalType": "uint256",
          "name": "",
          "type": "uint256"
        }
      ],
      "payable": false,
      "stateMutability": "view",
      "type": "function"
    },
    {
      "constant": true,
      "inputs": [
        {
          "internalType": "address",
          "name": "_address",
          "type": "address"
        }
      ],
      "name": "getPublicationsAuthorAddress",
      "outputs": [
        {
          "internalType": "uint256[]",
          "name": "",
          "type": "uint256[]"
        }
      ],
      "payable": false,
      "stateMutability": "view",
      "type": "function"
    },
    {
      "constant": true,
      "inputs": [
        {
          "internalType": "uint256",
          "name": "_author_Id",
          "type": "uint256"
        }
      ],
      "name": "getPublicationsAuthorId",
      "outputs": [
        {
          "internalType": "uint256[]",
          "name": "",
          "type": "uint256[]"
        }
      ],
      "payable": false,
      "stateMutability": "view",
      "type": "function"
    },
    {
      "constant": true,
      "inputs": [
        {
          "internalType": "uint256",
          "name": "_publication_Id",
          "type": "uint256"
        }
      ],
      "name": "getPublicationLicences",
      "outputs": [
        {
          "internalType": "uint256[]",
          "name": "",
          "type": "uint256[]"
        }
      ],
      "payable": false,
      "stateMutability": "view",
      "type": "function"
    },
    {
      "constant": true,
      "inputs": [
        {
          "internalType": "address",
          "name": "_address",
          "type": "address"
        }
      ],
      "name": "getBids",
      "outputs": [
        {
          "internalType": "uint256[]",
          "name": "",
          "type": "uint256[]"
        }
      ],
      "payable": false,
      "stateMutability": "view",
      "type": "function"
    },
    {
      "constant": true,
      "inputs": [
        {
          "internalType": "uint256",
          "name": "_publication_Id",
          "type": "uint256"
        }
      ],
      "name": "getPublicationAuctions",
      "outputs": [
        {
          "internalType": "uint256[]",
          "name": "",
          "type": "uint256[]"
        }
      ],
      "payable": false,
      "stateMutability": "view",
      "type": "function"
    },
    {
      "constant": true,
      "inputs": [],
      "name": "getPublicationLength",
      "outputs": [
        {
          "internalType": "uint256",
          "name": "",
          "type": "uint256"
        }
      ],
      "payable": false,
      "stateMutability": "view",
      "type": "function"
    },
    {
      "constant": true,
      "inputs": [
        {
          "internalType": "uint256",
          "name": "_publication_Id",
          "type": "uint256"
        }
      ],
      "name": "getPublication",
      "outputs": [
        {
          "internalType": "uint8",
          "name": "",
          "type": "uint8"
        },
        {
          "internalType": "string",
          "name": "",
          "type": "string"
        },
        {
          "internalType": "uint256",
          "name": "",
          "type": "uint256"
        },
        {
          "internalType": "uint256",
          "name": "",
          "type": "uint256"
        },
        {
          "internalType": "uint256",
          "name": "",
          "type": "uint256"
        },
        {
          "internalType": "uint256",
          "name": "",
          "type": "uint256"
        },
        {
          "internalType": "uint256[]",
          "name": "",
          "type": "uint256[]"
        },
        {
          "internalType": "uint256[]",
          "name": "",
          "type": "uint256[]"
        },
        {
          "internalType": "uint256[]",
          "name": "",
          "type": "uint256[]"
        }
      ],
      "payable": false,
      "stateMutability": "view",
      "type": "function"
    },
    {
      "constant": true,
      "inputs": [
        {
          "internalType": "address",
          "name": "_address",
          "type": "address"
        }
      ],
      "name": "getLicenceForAddress",
      "outputs": [
        {
          "internalType": "uint256[]",
          "name": "",
          "type": "uint256[]"
        }
      ],
      "payable": false,
      "stateMutability": "view",
      "type": "function"
    },
    {
      "constant": true,
      "inputs": [
        {
          "internalType": "uint256",
          "name": "_user_Id",
          "type": "uint256"
        }
      ],
      "name": "getLicenceForUserId",
      "outputs": [
        {
          "internalType": "uint256[]",
          "name": "",
          "type": "uint256[]"
        }
      ],
      "payable": false,
      "stateMutability": "view",
      "type": "function"
    },
    {
      "constant": true,
      "inputs": [
        {
          "internalType": "uint256",
          "name": "_licence_Id",
          "type": "uint256"
        }
      ],
      "name": "getLicence",
      "outputs": [
        {
          "internalType": "uint256",
          "name": "",
          "type": "uint256"
        },
        {
          "internalType": "uint256",
          "name": "",
          "type": "uint256"
        },
        {
          "internalType": "uint256",
          "name": "",
          "type": "uint256"
        },
        {
          "internalType": "uint8",
          "name": "",
          "type": "uint8"
        }
      ],
      "payable": false,
      "stateMutability": "view",
      "type": "function"
    },
    {
      "constant": false,
      "inputs": [
        {
          "internalType": "uint256",
          "name": "_publication_Id",
          "type": "uint256"
        },
        {
          "internalType": "uint256",
          "name": "_value",
          "type": "uint256"
        }
      ],
      "name": "donate",
      "outputs": [],
      "payable": false,
      "stateMutability": "nonpayable",
      "type": "function"
    },
    {
      "constant": true,
      "inputs": [],
      "name": "isCallerRegistered",
      "outputs": [
        {
          "internalType": "bool",
          "name": "",
          "type": "bool"
        }
      ],
      "payable": false,
      "stateMutability": "view",
      "type": "function"
    },
    {
      "constant": true,
      "inputs": [],
      "name": "getCallerId",
      "outputs": [
        {
          "internalType": "uint256",
          "name": "",
          "type": "uint256"
        }
      ],
      "payable": false,
      "stateMutability": "view",
      "type": "function"
    },
    {
      "constant": true,
      "inputs": [
        {
          "internalType": "uint256",
          "name": "_user_Id",
          "type": "uint256"
        }
      ],
      "name": "getUserAddress",
      "outputs": [
        {
          "internalType": "address",
          "name": "",
          "type": "address"
        }
      ],
      "payable": false,
      "stateMutability": "view",
      "type": "function"
    },
    {
      "constant": true,
      "inputs": [
        {
          "internalType": "uint256",
          "name": "_user_Id",
          "type": "uint256"
        },
        {
          "internalType": "uint256",
          "name": "_amount",
          "type": "uint256"
        }
      ],
      "name": "canAddressPay",
      "outputs": [
        {
          "internalType": "bool",
          "name": "",
          "type": "bool"
        }
      ],
      "payable": false,
      "stateMutability": "view",
      "type": "function"
    },
    {
      "constant": true,
      "inputs": [
        {
          "internalType": "uint256",
          "name": "_bidder_Id",
          "type": "uint256"
        }
      ],
      "name": "getBidderBids",
      "outputs": [
        {
          "internalType": "uint256[]",
          "name": "",
          "type": "uint256[]"
        }
      ],
      "payable": false,
      "stateMutability": "view",
      "type": "function"
    },
    {
      "constant": true,
      "inputs": [],
      "name": "getBlockTime",
      "outputs": [
        {
          "internalType": "uint256",
          "name": "",
          "type": "uint256"
        }
      ],
      "payable": false,
      "stateMutability": "view",
      "type": "function"
    },
    {
      "constant": false,
      "inputs": [
        {
          "internalType": "uint256",
          "name": "_auction_Id",
          "type": "uint256"
        }
      ],
      "name": "getAuctionStatus",
      "outputs": [
        {
          "internalType": "uint256",
          "name": "",
          "type": "uint256"
        }
      ],
      "payable": false,
      "stateMutability": "nonpayable",
      "type": "function"
    },
    {
      "constant": false,
      "inputs": [
        {
          "internalType": "uint256",
          "name": "_publication_Id",
          "type": "uint256"
        },
        {
          "internalType": "uint256",
          "name": "_newStartTime",
          "type": "uint256"
        }
      ],
      "name": "updateAuctionStartTime",
      "outputs": [],
      "payable": false,
      "stateMutability": "nonpayable",
      "type": "function"
    },
    {
      "constant": true,
      "inputs": [
        {
          "internalType": "uint256",
          "name": "_publication_Id",
          "type": "uint256"
        }
      ],
      "name": "getPublicationBids",
      "outputs": [
        {
          "internalType": "uint256[]",
          "name": "",
          "type": "uint256[]"
        }
      ],
      "payable": false,
      "stateMutability": "view",
      "type": "function"
    },
    {
      "constant": true,
      "inputs": [
        {
          "internalType": "uint256",
          "name": "_bid_Id",
          "type": "uint256"
        }
      ],
      "name": "getBid",
      "outputs": [
        {
          "internalType": "bytes32",
          "name": "",
          "type": "bytes32"
        },
        {
          "internalType": "uint256",
          "name": "",
          "type": "uint256"
        },
        {
          "internalType": "uint256",
          "name": "",
          "type": "uint256"
        },
        {
          "internalType": "uint8",
          "name": "",
          "type": "uint8"
        },
        {
          "internalType": "uint256",
          "name": "",
          "type": "uint256"
        },
        {
          "internalType": "uint256",
          "name": "",
          "type": "uint256"
        },
        {
          "internalType": "uint256",
          "name": "",
          "type": "uint256"
        }
      ],
      "payable": false,
      "stateMutability": "view",
      "type": "function"
    },
    {
      "constant": true,
      "inputs": [
        {
          "internalType": "uint256",
          "name": "_publication_Id",
          "type": "uint256"
        }
      ],
      "name": "getPublicationAuctionBidLength",
      "outputs": [
        {
          "internalType": "uint256",
          "name": "",
          "type": "uint256"
        }
      ],
      "payable": false,
      "stateMutability": "view",
      "type": "function"
    },
    {
      "constant": true,
      "inputs": [
        {
          "internalType": "uint256",
          "name": "tokenId",
          "type": "uint256"
        }
      ],
      "name": "ownerOf",
      "outputs": [
        {
          "internalType": "address",
          "name": "",
          "type": "address"
        }
      ],
      "payable": false,
      "stateMutability": "view",
      "type": "function"
    },
    {
      "constant": true,
      "inputs": [
        {
          "internalType": "uint256",
          "name": "_taxObject_Id",
          "type": "uint256"
        }
      ],
      "name": "getOutstandingTax",
      "outputs": [
        {
          "internalType": "uint256",
          "name": "",
          "type": "uint256"
        }
      ],
      "payable": false,
      "stateMutability": "view",
      "type": "function"
    },
    {
      "constant": true,
      "inputs": [
        {
          "internalType": "uint256",
          "name": "_taxObject_Id",
          "type": "uint256"
        }
      ],
      "name": "getMinBuyOutPrice",
      "outputs": [
        {
          "internalType": "uint256",
          "name": "",
          "type": "uint256"
        }
      ],
      "payable": false,
      "stateMutability": "view",
      "type": "function"
    },
    {
      "constant": true,
      "inputs": [
        {
          "internalType": "uint256",
          "name": "_licence_Id",
          "type": "uint256"
        }
      ],
      "name": "getLicenceTaxObjectId",
      "outputs": [
        {
          "internalType": "uint256",
          "name": "",
          "type": "uint256"
        }
      ],
      "payable": false,
      "stateMutability": "view",
      "type": "function"
    },
    {
      "constant": true,
      "inputs": [
        {
          "internalType": "uint256",
          "name": "_licence_Id",
          "type": "uint256"
        }
      ],
      "name": "getLicenceBuyOuts",
      "outputs": [
        {
          "internalType": "uint256[]",
          "name": "",
          "type": "uint256[]"
        },
        {
          "internalType": "uint256[]",
          "name": "",
          "type": "uint256[]"
        },
        {
          "internalType": "uint256[]",
          "name": "",
          "type": "uint256[]"
        },
        {
          "internalType": "uint256[]",
          "name": "",
          "type": "uint256[]"
        },
        {
          "internalType": "uint8[]",
          "name": "",
          "type": "uint8[]"
        }
      ],
      "payable": false,
      "stateMutability": "view",
      "type": "function"
    },
    {
      "constant": true,
      "inputs": [
        {
          "internalType": "uint256",
          "name": "_publication_Id",
          "type": "uint256"
        }
      ],
      "name": "getMostRecentPublicationLicence",
      "outputs": [
        {
          "internalType": "uint256",
          "name": "",
          "type": "uint256"
        }
      ],
      "payable": false,
      "stateMutability": "view",
      "type": "function"
    },
    {
      "constant": true,
      "inputs": [
        {
          "internalType": "uint256",
          "name": "_auction_Id",
          "type": "uint256"
        }
      ],
      "name": "getAuction",
      "outputs": [
        {
          "internalType": "uint256",
          "name": "",
          "type": "uint256"
        },
        {
          "internalType": "uint256",
          "name": "",
          "type": "uint256"
        },
        {
          "internalType": "uint256",
          "name": "",
          "type": "uint256"
        },
        {
          "internalType": "uint256",
          "name": "",
          "type": "uint256"
        },
        {
          "internalType": "uint256[]",
          "name": "",
          "type": "uint256[]"
        },
        {
          "internalType": "uint256",
          "name": "",
          "type": "uint256"
        },
        {
          "internalType": "uint8",
          "name": "",
          "type": "uint8"
        }
      ],
      "payable": false,
      "stateMutability": "view",
      "type": "function"
    }
  ],
  "bytecode": "0x60806040526158bc806100136000396000f3fe608060405234801561001057600080fd5b506004361061034c5760003560e01c806380274db7116101bd578063b4c0bd9d116100f9578063e8083863116100a2578063ec297be61161007c578063ec297be61461121c578063fbd9d2eb1461123f578063fd8446e91461125c578063ff42e879146112645761034c565b8063e808386314610ff4578063eb12cdc314611011578063eb9c6e81146110975761034c565b8063cc2a9a5b116100d3578063cc2a9a5b14610f07578063d74298df14610f55578063e06e0e2214610f785761034c565b8063b4c0bd9d14610e82578063b7b668af14610e9f578063c960331114610ebc5761034c565b80639ae001ff11610166578063a8020ee711610140578063a8020ee714610d9f578063ad61ccd514610dc5578063b3208f1214610e42578063b352c82d14610e655761034c565b80639ae001ff14610bcd5780639dccae8214610bf0578063a564e83c14610c165761034c565b806387ceff091161019757806387ceff0914610b8b578063897f1e4a14610b9357806390d976e214610bb05761034c565b806380274db7146109a85780638129fc1c14610a1657806383947ea014610a1e5761034c565b80633e7646041161028c578063628389131161023557806374e861d61161020f57806374e861d6146108da5780637765c52c146108e257806378bd7935146108ff5780637ece03bb146109a05761034c565b806362838913146107e05780636352211e146107fd578063704f1b94146108365761034c565b806351a353491161026657806351a3534914610781578063522b0e23146107a75780635bc2ff78146107c45761034c565b80633e7646041461072a57806346ac9a36146107475780634cd54184146107645761034c565b806314b37f58116102f95780632207fc6a116102d35780632207fc6a1461064157806328260cf9146106705780632cedebee1461068d5780633c889e6f146106d35761034c565b806314b37f581461044e5780631aa5b7e91461061c578063207f2937146106245761034c565b806311fcd5461161032a57806311fcd546146103b35780631220e2ff1461042057806313af4035146104285761034c565b806303b43c771461035157806304686b4a146103865780630cdd53f614610390575b600080fd5b6103746004803603604081101561036757600080fd5b5080359060200135611281565b60408051918252519081900360200190f35b61038e611434565b005b61038e600480360360408110156103a657600080fd5b5080359060200135611436565b6103d0600480360360208110156103c957600080fd5b50356119c3565b60408051602080825283518183015283519192839290830191858101910280838360005b8381101561040c5781810151838201526020016103f4565b505050509050019250505060405180910390f35b61038e611ade565b61038e6004803603602081101561043e57600080fd5b50356001600160a01b0316611afb565b61038e600480360361012081101561046557600080fd5b60ff8235169190810190604081016020820135600160201b81111561048957600080fd5b82018360208201111561049b57600080fd5b803590602001918460018302840111600160201b831117156104bc57600080fd5b91908080601f016020809104026020016040519081016040528093929190818152602001838380828437600092019190915250929584359560208601359560408101359550606081013594506080810135935060c081019060a00135600160201b81111561052957600080fd5b82018360208201111561053b57600080fd5b803590602001918460208302840111600160201b8311171561055c57600080fd5b9190808060200260200160405190810160405280939291908181526020018383602002808284376000920191909152509295949360208101935035915050600160201b8111156105ab57600080fd5b8201836020820111156105bd57600080fd5b803590602001918460208302840111600160201b831117156105de57600080fd5b919080806020026020016040519081016040528093929190818152602001838360200280828437600092019190915250929550611b66945050505050565b610374611e7d565b6103d06004803603602081101561063a57600080fd5b5035611f52565b6103746004803603608081101561065757600080fd5b5080359060208101359060408101359060600135611f9e565b6103746004803603602081101561068657600080fd5b50356120b5565b6106aa600480360360208110156106a357600080fd5b5035612133565b6040805194855260208501939093528383019190915260ff166060830152519081900360800190f35b6106f0600480360360208110156106e957600080fd5b50356121d1565b6040805197885260208801969096528686019490945260ff9092166060860152608085015260a084015260c0830152519081900360e00190f35b6103d06004803603602081101561074057600080fd5b5035612297565b6103746004803603602081101561075d57600080fd5b5035612433565b6103746004803603602081101561077a57600080fd5b5035612f17565b6103d06004803603602081101561079757600080fd5b50356001600160a01b0316612f63565b6103d0600480360360208110156107bd57600080fd5b503561302e565b6107cc61307a565b604080519115158252519081900360200190f35b610374600480360360208110156107f657600080fd5b50356130f6565b61081a6004803603602081101561081357600080fd5b50356130fc565b604080516001600160a01b039092168252519081900360200190f35b6103746004803603602081101561084c57600080fd5b810190602081018135600160201b81111561086657600080fd5b82018360208201111561087857600080fd5b803590602001918460018302840111600160201b8311171561089957600080fd5b91908080601f016020809104026020016040519081016040528093929190818152602001838380828437600092019190915250929550613148945050505050565b61081a613237565b610374600480360360208110156108f857600080fd5b5035613246565b61091c6004803603602081101561091557600080fd5b50356132d0565b60405180888152602001878152602001868152602001858152602001806020018481526020018360ff1660ff168152602001828103825285818151815260200191508051906020019060200280838360005b8381101561098657818101518382015260200161096e565b505050509050019850505050505050505060405180910390f35b610374613441565b610374600480360360208110156109be57600080fd5b810190602081018135600160201b8111156109d857600080fd5b8201836020820111156109ea57600080fd5b803590602001918460018302840111600160201b83111715610a0b57600080fd5b509092509050613486565b61038e613525565b610b0c6004803603610120811015610a3557600080fd5b6001600160a01b038235811692602081013590911691810190606081016040820135600160201b811115610a6857600080fd5b820183602082011115610a7a57600080fd5b803590602001918460018302840111600160201b83111715610a9b57600080fd5b9193909282359260208101359260408201359260608301359260a081019060800135600160201b811115610ace57600080fd5b820183602082011115610ae057600080fd5b803590602001918460018302840111600160201b83111715610b0157600080fd5b9193509150356135df565b6040518083815260200180602001828103825283818151815260200191508051906020019080838360005b83811015610b4f578181015183820152602001610b37565b50505050905090810190601f168015610b7c5780820380516001836020036101000a031916815260200191505b50935050505060405180910390f35b6103746135ff565b6103d060048036036020811015610ba957600080fd5b5035613603565b61081a60048036036020811015610bc657600080fd5b503561364f565b61038e60048036036040811015610be357600080fd5b508035906020013561369b565b6103d060048036036020811015610c0657600080fd5b50356001600160a01b031661384a565b610c3360048036036020811015610c2c57600080fd5b5035613915565b604051808a60ff1660ff1681526020018060200189815260200188815260200187815260200186815260200180602001806020018060200185810385528d818151815260200191508051906020019080838360005b83811015610ca0578181015183820152602001610c88565b50505050905090810190601f168015610ccd5780820380516001836020036101000a031916815260200191505b508581038452885181528851602091820191808b01910280838360005b83811015610d02578181015183820152602001610cea565b50505050905001858103835287818151815260200191508051906020019060200280838360005b83811015610d41578181015183820152602001610d29565b50505050905001858103825286818151815260200191508051906020019060200280838360005b83811015610d80578181015183820152602001610d68565b505050509050019d505050505050505050505050505060405180910390f35b6103d060048036036020811015610db557600080fd5b50356001600160a01b0316613c39565b610dcd613cc0565b6040805160208082528351818301528351919283929083019185019080838360005b83811015610e07578181015183820152602001610def565b50505050905090810190601f168015610e345780820380516001836020036101000a031916815260200191505b509250505060405180910390f35b6107cc60048036036040811015610e5857600080fd5b5080359060200135613cdf565b61037460048036036020811015610e7b57600080fd5b5035613d75565b61037460048036036020811015610e9857600080fd5b5035613dc1565b6107cc60048036036020811015610eb557600080fd5b5035613e0d565b610ed960048036036020811015610ed257600080fd5b503561418d565b60408051958652602086019490945284840192909252606084015260ff166080830152519081900360a00190f35b61038e600480360360c0811015610f1d57600080fd5b506001600160a01b038135811691602081013582169160408201358116916060810135821691608082013581169160a0013516614241565b61037460048036036040811015610f6b57600080fd5b5080359060200135614364565b61038e60048036036080811015610f8e57600080fd5b810190602081018135600160201b811115610fa857600080fd5b820183602082011115610fba57600080fd5b803590602001918460018302840111600160201b83111715610fdb57600080fd5b9193509150803515159060208101359060400135614484565b6103746004803603602081101561100a57600080fd5b5035614526565b61102e6004803603602081101561102757600080fd5b5035614e9e565b60405180888152602001878152602001868152602001858152602001848152602001806020018360ff1660ff168152602001828103825284818151815260200191508051906020019060200280838360008381101561098657818101518382015260200161096e565b6110b4600480360360208110156110ad57600080fd5b503561500e565b60405180806020018060200180602001806020018060200186810386528b818151815260200191508051906020019060200280838360005b838110156111045781810151838201526020016110ec565b5050505090500186810385528a818151815260200191508051906020019060200280838360005b8381101561114357818101518382015260200161112b565b50505050905001868103845289818151815260200191508051906020019060200280838360005b8381101561118257818101518382015260200161116a565b50505050905001868103835288818151815260200191508051906020019060200280838360005b838110156111c15781810151838201526020016111a9565b50505050905001868103825287818151815260200191508051906020019060200280838360005b838110156112005781810151838201526020016111e8565b505050509050019a505050505050505050505060405180910390f35b61038e6004803603604081101561123257600080fd5b5080359060200135615361565b6103d06004803603602081101561125557600080fd5b5035615476565b6103746154c2565b6103746004803603602081101561127a57600080fd5b5035615507565b603654604080516392c6830f60e01b815260048101859052905160009283926001600160a01b03909116916392c6830f91602480820192602092909190829003018186803b1580156112d257600080fd5b505afa1580156112e6573d6000803e3d6000fd5b505050506040513d60208110156112fc57600080fd5b50519050611308611e7d565b81146113455760405162461bcd60e51b81526004018080602001828103825260388152602001806157506038913960400191505060405180910390fd5b6039546040805163b4c0bd9d60e01b81526004810187905290516000926001600160a01b03169163b4c0bd9d916024808301926020929190829003018186803b15801561139157600080fd5b505afa1580156113a5573d6000803e3d6000fd5b505050506040513d60208110156113bb57600080fd5b505160395460408051631116c47960e31b8152600481018490526024810188905290519293506001600160a01b03909116916388b623c89160448082019260009290919082900301818387803b15801561141457600080fd5b505af1158015611428573d6000803e3d6000fd5b50505050505092915050565b565b603754604080516310a6d0d560e01b81526004810185905290516000926001600160a01b0316916310a6d0d5916024808301926020929190829003018186803b15801561148257600080fd5b505afa158015611496573d6000803e3d6000fd5b505050506040513d60208110156114ac57600080fd5b50516038546040805163486cbb7160e11b81526004810184905290519293506000926001600160a01b03909216916390d976e291602480820192602092909190829003018186803b15801561150057600080fd5b505afa158015611514573d6000803e3d6000fd5b505050506040513d602081101561152a57600080fd5b505160375460408051632749cf7760e21b815260048101889052905192935060609283926001600160a01b031691639d273ddc916024808301926000929190829003018186803b15801561157d57600080fd5b505afa158015611591573d6000803e3d6000fd5b505050506040513d6000823e601f3d908101601f1916820160409081528110156115ba57600080fd5b8101908080516040519392919084600160201b8211156115d957600080fd5b9083019060208201858111156115ee57600080fd5b82518660208202830111600160201b8211171561160a57600080fd5b82525081516020918201928201910280838360005b8381101561163757818101518382015260200161161f565b5050505090500160405260200180516040519392919084600160201b82111561165f57600080fd5b90830190602082018581111561167457600080fd5b82518660208202830111600160201b8211171561169057600080fd5b82525081516020918201928201910280838360005b838110156116bd5781810151838201526020016116a5565b50505050919091016040819052603854631fd3cba160e21b8252602060048301818152895160248501528951999b509799506060986001600160a01b0390921697637f4f2e8497508b96509450849350604490920191808601910280838360005b8381101561173657818101518382015260200161171e565b505050509050019250505060006040518083038186803b15801561175957600080fd5b505afa15801561176d573d6000803e3d6000fd5b505050506040513d6000823e601f3d908101601f19168201604052602081101561179657600080fd5b8101908080516040519392919084600160201b8211156117b557600080fd5b9083019060208201858111156117ca57600080fd5b82518660208202830111600160201b821117156117e657600080fd5b82525081516020918201928201910280838360005b838110156118135781810151838201526020016117fb565b505050509050016040525050509050603a60009054906101000a90046001600160a01b03166001600160a01b031663841aee53338684868b6040518663ffffffff1660e01b815260040180866001600160a01b03166001600160a01b03168152602001856001600160a01b03166001600160a01b031681526020018060200180602001848152602001838103835286818151815260200191508051906020019060200280838360005b838110156118d45781810151838201526020016118bc565b50505050905001838103825285818151815260200191508051906020019060200280838360005b838110156119135781810151838201526020016118fb565b50505050905001975050505050505050602060405180830381600087803b15801561193d57600080fd5b505af1158015611951573d6000803e3d6000fd5b505050506040513d602081101561196757600080fd5b50516119ba576040805162461bcd60e51b815260206004820152601e60248201527f42756c6b2061756374696f6e20736574746c656d656e74206661696c65640000604482015290519081900360640190fd5b50505050505050565b6037546040805163f88e44a360e01b81526004810184905290516060926001600160a01b03169163f88e44a3916024808301926000929190829003018186803b158015611a0f57600080fd5b505afa158015611a23573d6000803e3d6000fd5b505050506040513d6000823e601f3d908101601f191682016040526020811015611a4c57600080fd5b8101908080516040519392919084600160201b821115611a6b57600080fd5b908301906020820185811115611a8057600080fd5b82518660208202830111600160201b82111715611a9c57600080fd5b82525081516020918201928201910280838360005b83811015611ac9578181015183820152602001611ab1565b5050505090500160405250505090505b919050565b61143473d216153c06e857cd7f72665e0af1d7d82172f4946155e7565b6034546001600160a01b03163314611b445760405162461bcd60e51b815260040180806020018281038252602781526020018061583d6027913960400191505060405180910390fd5b603480546001600160a01b0319166001600160a01b0392909216919091179055565b611b6e61307a565b611ba95760405162461bcd60e51b815260040180806020018281038252603381526020018061571d6033913960400191505060405180910390fd5b6000611bb3611e7d565b90506000603760009054906101000a90046001600160a01b03166001600160a01b031663497e192e8c8c858a8a8a8a6040518863ffffffff1660e01b8152600401808860ff1660ff16815260200180602001878152602001868152602001858152602001806020018060200184810384528a818151815260200191508051906020019080838360005b83811015611c54578181015183820152602001611c3c565b50505050905090810190601f168015611c815780820380516001836020036101000a031916815260200191505b508481038352865181528651602091820191808901910280838360005b83811015611cb6578181015183820152602001611c9e565b50505050905001848103825285818151815260200191508051906020019060200280838360005b83811015611cf5578181015183820152602001611cdd565b505050509050019a5050505050505050505050602060405180830381600087803b158015611d2257600080fd5b505af1158015611d36573d6000803e3d6000fd5b505050506040513d6020811015611d4c57600080fd5b5051905060018b60ff166002811115611d6157fe5b6002811115611d6c57fe5b14611e70576035546040805163b8f4e5a560e01b815260048101849052602481018c9052604481018b9052606481018a905290516000926001600160a01b03169163b8f4e5a591608480830192602092919082900301818787803b158015611dd357600080fd5b505af1158015611de7573d6000803e3d6000fd5b505050506040513d6020811015611dfd57600080fd5b505160375460408051637c14866f60e11b8152600481018690526024810184905290519293506001600160a01b039091169163f8290cde9160448082019260009290919082900301818387803b158015611e5657600080fd5b505af1158015611e6a573d6000803e3d6000fd5b50505050505b5050505050505050505050565b60385460408051632b956ff760e01b8152336004820152905160009283926001600160a01b0390911691632b956ff791602480820192602092909190829003018186803b158015611ecd57600080fd5b505afa158015611ee1573d6000803e3d6000fd5b505050506040513d6020811015611ef757600080fd5b5051905080611f4d576040805162461bcd60e51b815260206004820152601960248201527f43616c6c6572206973206e6f7420726567697374657265642100000000000000604482015290519081900360640190fd5b905090565b6037546040805163207f293760e01b81526004810184905290516060926001600160a01b03169163207f2937916024808301926000929190829003018186803b158015611a0f57600080fd5b60375460408051633630b3e360e11b815260048101859052905160009283926001600160a01b0390911691636c6167c691602480820192602092909190829003018186803b158015611fef57600080fd5b505afa158015612003573d6000803e3d6000fd5b505050506040513d602081101561201957600080fd5b505190506000612027611e7d565b60355460408051634a6878af60e11b8152600481018b9052602481018a905260448101869052606481018890526084810184905290519293506001600160a01b03909116916394d0f15e9160a48082019260009290919082900301818387803b15801561209357600080fd5b505af11580156120a7573d6000803e3d6000fd5b505050505050949350505050565b60395460408051631c59b01360e11b81526004810184905290516000926001600160a01b0316916338b36026916024808301926020929190829003018186803b15801561210157600080fd5b505afa158015612115573d6000803e3d6000fd5b505050506040513d602081101561212b57600080fd5b505192915050565b60365460408051631676f5f760e11b81526004810184905290516000928392839283926001600160a01b031691632cedebee916024808301926080929190829003018186803b15801561218557600080fd5b505afa158015612199573d6000803e3d6000fd5b505050506040513d60808110156121af57600080fd5b5080516020820151604083015160609093015191989097509195509350915050565b6000806000806000806000603560009054906101000a90046001600160a01b03166001600160a01b0316633c889e6f896040518263ffffffff1660e01b81526004018082815260200191505060e06040518083038186803b15801561223557600080fd5b505afa158015612249573d6000803e3d6000fd5b505050506040513d60e081101561225f57600080fd5b508051602082015160408301516060840151608085015160a086015160c090960151949e939d50919b50995097509195509350915050565b60375460408051633630b3e360e11b81526004810184905290516060926000926001600160a01b0390911691636c6167c691602480820192602092909190829003018186803b1580156122e957600080fd5b505afa1580156122fd573d6000803e3d6000fd5b505050506040513d602081101561231357600080fd5b50516035546040805163385a3b4760e11b81526004810184905290519293506001600160a01b03909116916370b4768e91602480820192600092909190829003018186803b15801561236457600080fd5b505afa158015612378573d6000803e3d6000fd5b505050506040513d6000823e601f3d908101601f1916820160405260208110156123a157600080fd5b8101908080516040519392919084600160201b8211156123c057600080fd5b9083019060208201858111156123d557600080fd5b82518660208202830111600160201b821117156123f157600080fd5b82525081516020918201928201910280838360005b8381101561241e578181015183820152602001612406565b50505050905001604052505050915050919050565b60365460408051631335506160e21b815260048101849052905160009283926001600160a01b0390911691634cd5418491602480820192602092909190829003018186803b15801561248457600080fd5b505afa158015612498573d6000803e3d6000fd5b505050506040513d60208110156124ae57600080fd5b50516039546040805163b4c0bd9d60e01b81526004810184905290519293506000926001600160a01b039092169163b4c0bd9d91602480820192602092909190829003018186803b15801561250257600080fd5b505afa158015612516573d6000803e3d6000fd5b505050506040513d602081101561252c57600080fd5b505160395460408051634511371960e11b81526004810184905290519293506000926001600160a01b0390921691638a226e3291602480820192602092909190829003018186803b15801561258057600080fd5b505afa158015612594573d6000803e3d6000fd5b505050506040513d60208110156125aa57600080fd5b5051603654604080516331a9108f60e11b81526004810187905290519293506000926001600160a01b0390921691636352211e91602480820192602092909190829003018186803b1580156125fe57600080fd5b505afa158015612612573d6000803e3d6000fd5b505050506040513d602081101561262857600080fd5b5051603a5460408051637a3e00cd60e01b81526001600160a01b0380851660048301526024820187905291519394506000939190921691637a3e00cd916044808301926020929190829003018186803b15801561268457600080fd5b505afa158015612698573d6000803e3d6000fd5b505050506040513d60208110156126ae57600080fd5b505190508015612cb357603754604080516310a6d0d560e01b8152600481018a905290516000926001600160a01b0316916310a6d0d5916024808301926020929190829003018186803b15801561270457600080fd5b505afa158015612718573d6000803e3d6000fd5b505050506040513d602081101561272e57600080fd5b50516038546040805163486cbb7160e11b81526004810184905290519293506000926001600160a01b03909216916390d976e291602480820192602092909190829003018186803b15801561278257600080fd5b505afa158015612796573d6000803e3d6000fd5b505050506040513d60208110156127ac57600080fd5b505160375460408051632749cf7760e21b8152600481018d9052905192935060609283926001600160a01b031691639d273ddc916024808301926000929190829003018186803b1580156127ff57600080fd5b505afa158015612813573d6000803e3d6000fd5b505050506040513d6000823e601f3d908101601f19168201604090815281101561283c57600080fd5b8101908080516040519392919084600160201b82111561285b57600080fd5b90830190602082018581111561287057600080fd5b82518660208202830111600160201b8211171561288c57600080fd5b82525081516020918201928201910280838360005b838110156128b95781810151838201526020016128a1565b5050505090500160405260200180516040519392919084600160201b8211156128e157600080fd5b9083019060208201858111156128f657600080fd5b82518660208202830111600160201b8211171561291257600080fd5b82525081516020918201928201910280838360005b8381101561293f578181015183820152602001612927565b50505050919091016040819052603854631fd3cba160e21b8252602060048301818152895160248501528951999b509799506060986001600160a01b0390921697637f4f2e8497508b96509450849350604490920191808601910280838360005b838110156129b85781810151838201526020016129a0565b505050509050019250505060006040518083038186803b1580156129db57600080fd5b505afa1580156129ef573d6000803e3d6000fd5b505050506040513d6000823e601f3d908101601f191682016040526020811015612a1857600080fd5b8101908080516040519392919084600160201b821115612a3757600080fd5b908301906020820185811115612a4c57600080fd5b82518660208202830111600160201b82111715612a6857600080fd5b82525081516020918201928201910280838360005b83811015612a95578181015183820152602001612a7d565b505050509050016040525050509050603a60009054906101000a90046001600160a01b03166001600160a01b031663841aee53888684868d6040518663ffffffff1660e01b815260040180866001600160a01b03166001600160a01b03168152602001856001600160a01b03166001600160a01b031681526020018060200180602001848152602001838103835286818151815260200191508051906020019060200280838360005b83811015612b56578181015183820152602001612b3e565b50505050905001838103825285818151815260200191508051906020019060200280838360005b83811015612b95578181015183820152602001612b7d565b50505050905001975050505050505050602060405180830381600087803b158015612bbf57600080fd5b505af1158015612bd3573d6000803e3d6000fd5b505050506040513d6020811015612be957600080fd5b5051612c3c576040805162461bcd60e51b815260206004820181905260248201527f42756c6b2068617262657267657220736574746c656d656e74206661696c6564604482015290519081900360640190fd5b6039546040805163709b1da960e11b8152600481018c905290516001600160a01b039092169163e1363b529160248082019260009290919082900301818387803b158015612c8957600080fd5b505af1158015612c9d573d6000803e3d6000fd5b50505050879a5050505050505050505050611ad9565b80612f0d5760365460408051633a7ae75d60e01b81526004810188905290516001600160a01b0390921691633a7ae75d9160248082019260009290919082900301818387803b158015612d0557600080fd5b505af1158015612d19573d6000803e3d6000fd5b505060375460408051633a7ae75d60e01b8152600481018c905290516001600160a01b039092169350633a7ae75d92506024808201926020929091908290030181600087803b158015612d6b57600080fd5b505af1158015612d7f573d6000803e3d6000fd5b505050506040513d6020811015612d9557600080fd5b505060395460408051631af19b2b60e31b81526004810187905290516001600160a01b039092169163d78cd9589160248082019260009290919082900301818387803b158015612de457600080fd5b505af1158015612df8573d6000803e3d6000fd5b50506035546040805163b8f4e5a560e01b8152600481018c905260006024820181905242604483015262278d00606483015291519194506001600160a01b03909216925063b8f4e5a59160848082019260209290919082900301818787803b158015612e6357600080fd5b505af1158015612e77573d6000803e3d6000fd5b505050506040513d6020811015612e8d57600080fd5b505160375460408051637c14866f60e11b8152600481018c90526024810184905290519293506001600160a01b039091169163f8290cde9160448082019260009290919082900301818387803b158015612ee657600080fd5b505af1158015612efa573d6000803e3d6000fd5b5050505060009650505050505050611ad9565b5050505050919050565b60365460408051631335506160e21b81526004810184905290516000926001600160a01b031691634cd54184916024808301926020929190829003018186803b15801561210157600080fd5b60385460408051632b956ff760e01b81526001600160a01b03848116600483015291516060936000931691632b956ff7916024808301926020929190829003018186803b158015612fb357600080fd5b505afa158015612fc7573d6000803e3d6000fd5b505050506040513d6020811015612fdd57600080fd5b50516037546040805163f88e44a360e01b81526004810184905290519293506001600160a01b039091169163f88e44a391602480820192600092909190829003018186803b15801561236457600080fd5b60365460408051639787bb4160e01b81526004810184905290516060926001600160a01b031691639787bb41916024808301926000929190829003018186803b158015611a0f57600080fd5b603854604080516338b6a3a160e01b815233600482015290516000926001600160a01b0316916338b6a3a1916024808301926020929190829003018186803b1580156130c557600080fd5b505afa1580156130d9573d6000803e3d6000fd5b505050506040513d60208110156130ef57600080fd5b5051905090565b50600090565b603654604080516331a9108f60e11b81526004810184905290516000926001600160a01b031691636352211e916024808301926020929190829003018186803b15801561210157600080fd5b60385460408051636ec3877f60e01b815233602482018190526004820192835284516044830152845160009485946001600160a01b0390911693636ec3877f938893909291829160649091019060208601908083838c5b838110156131b757818101518382015260200161319f565b50505050905090810190601f1680156131e45780820380516001836020036101000a031916815260200191505b509350505050602060405180830381600087803b15801561320457600080fd5b505af1158015613218573d6000803e3d6000fd5b505050506040513d602081101561322e57600080fd5b50519392505050565b6033546001600160a01b031690565b60355460408051631dd9714b60e21b81526004810184905290516000926001600160a01b031691637765c52c91602480830192602092919082900301818787803b15801561329357600080fd5b505af11580156132a7573d6000803e3d6000fd5b505050506040513d60208110156132bd57600080fd5b505160038111156132ca57fe5b92915050565b6000806000806060600080603560009054906101000a90046001600160a01b03166001600160a01b03166378bd7935896040518263ffffffff1660e01b81526004018082815260200191505060006040518083038186803b15801561333457600080fd5b505afa158015613348573d6000803e3d6000fd5b505050506040513d6000823e601f3d908101601f1916820160405260e081101561337157600080fd5b8151602083015160408085015160608601516080870180519351959794969295919491939282019284600160201b8211156133ab57600080fd5b9083019060208201858111156133c057600080fd5b82518660208202830111600160201b821117156133dc57600080fd5b82525081516020918201928201910280838360005b838110156134095781810151838201526020016133f1565b505050509190910160409081526020830151920151989f50969d50949b50929950909750919550929350505050919395979092949650565b60375460408051637ece03bb60e01b815290516000926001600160a01b031691637ece03bb916004808301926020929190829003018186803b1580156130c557600080fd5b6000613490613237565b6001600160a01b0316336001600160a01b0316146134df5760405162461bcd60e51b81526004018080602001828103825260248152602001806158646024913960400191505060405180910390fd5b61351e83838080601f0160208091040260200160405190810160405280939291908181526020018383808284376000920191909152506130f692505050565b9392505050565b600054610100900460ff168061353e575061353e6156e7565b8061354c575060005460ff16155b6135875760405162461bcd60e51b815260040180806020018281038252602e8152602001806157e2602e913960400191505060405180910390fd5b600054610100900460ff161580156135b2576000805460ff1961ff0019909116610100171660011790555b6033546001600160a01b03166135ca576135ca611ade565b80156135dc576000805461ff00191690555b50565b600060606135eb6156ed565b915091509b509b9950505050505050505050565b4290565b603554604080516344bf8f2560e11b81526004810184905290516060926001600160a01b03169163897f1e4a916024808301926000929190829003018186803b158015611a0f57600080fd5b6038546040805163486cbb7160e11b81526004810184905290516000926001600160a01b0316916390d976e2916024808301926020929190829003018186803b15801561210157600080fd5b60006136a5611e7d565b603754604080516310a6d0d560e01b81526004810187905290519293506001600160a01b03909116916310a6d0d591602480820192602092909190829003018186803b1580156136f457600080fd5b505afa158015613708573d6000803e3d6000fd5b505050506040513d602081101561371e57600080fd5b5051811461375d5760405162461bcd60e51b815260040180806020018281038252602c8152602001806157b6602c913960400191505060405180910390fd5b60375460408051633630b3e360e11b81526004810186905290516000926001600160a01b031691636c6167c6916024808301926020929190829003018186803b1580156137a957600080fd5b505afa1580156137bd573d6000803e3d6000fd5b505050506040513d60208110156137d357600080fd5b505160355460408051639ae001ff60e01b8152600481018490526024810187905290519293506001600160a01b0390911691639ae001ff9160448082019260009290919082900301818387803b15801561382c57600080fd5b505af1158015613840573d6000803e3d6000fd5b5050505050505050565b60385460408051632b956ff760e01b81526001600160a01b03848116600483015291516060936000931691632b956ff7916024808301926020929190829003018186803b15801561389a57600080fd5b505afa1580156138ae573d6000803e3d6000fd5b505050506040513d60208110156138c457600080fd5b5051603554604080516344bf8f2560e11b81526004810184905290519293506001600160a01b039091169163897f1e4a91602480820192600092909190829003018186803b15801561236457600080fd5b600060606000806000806060806060603760009054906101000a90046001600160a01b03166001600160a01b031663a564e83c8b6040518263ffffffff1660e01b81526004018082815260200191505060006040518083038186803b15801561397d57600080fd5b505afa158015613991573d6000803e3d6000fd5b505050506040513d6000823e601f3d908101601f191682016040526101208110156139bb57600080fd5b815160208301805160405192949293830192919084600160201b8211156139e157600080fd5b9083019060208201858111156139f657600080fd5b8251600160201b811182820188101715613a0f57600080fd5b82525081516020918201929091019080838360005b83811015613a3c578181015183820152602001613a24565b50505050905090810190601f168015613a695780820380516001836020036101000a031916815260200191505b5060408181526020830151908301516060840151608085015160a09095018051939792969195949384600160201b821115613aa357600080fd5b908301906020820185811115613ab857600080fd5b82518660208202830111600160201b82111715613ad457600080fd5b82525081516020918201928201910280838360005b83811015613b01578181015183820152602001613ae9565b5050505090500160405260200180516040519392919084600160201b821115613b2957600080fd5b908301906020820185811115613b3e57600080fd5b82518660208202830111600160201b82111715613b5a57600080fd5b82525081516020918201928201910280838360005b83811015613b87578181015183820152602001613b6f565b5050505090500160405260200180516040519392919084600160201b821115613baf57600080fd5b908301906020820185811115613bc457600080fd5b82518660208202830111600160201b82111715613be057600080fd5b82525081516020918201928201910280838360005b83811015613c0d578181015183820152602001613bf5565b505050509050016040525050509850985098509850985098509850985098509193959799909294969850565b60385460408051632b956ff760e01b81526001600160a01b03848116600483015291516060936000931691632b956ff7916024808301926020929190829003018186803b158015613c8957600080fd5b505afa158015613c9d573d6000803e3d6000fd5b505050506040513d6020811015613cb357600080fd5b5051905061351e8161302e565b6040805180820190915260058152640312e302e360dc1b602082015290565b600080613ceb8461364f565b603a5460408051637a3e00cd60e01b81526001600160a01b038085166004830152602482018890529151939450911691637a3e00cd91604480820192602092909190829003018186803b158015613d4157600080fd5b505afa158015613d55573d6000803e3d6000fd5b505050506040513d6020811015613d6b57600080fd5b5051949350505050565b60395460408051634511371960e11b81526004810184905290516000926001600160a01b031691638a226e32916024808301926020929190829003018186803b15801561210157600080fd5b6039546040805163b4c0bd9d60e01b81526004810184905290516000926001600160a01b03169163b4c0bd9d916024808301926020929190829003018186803b15801561210157600080fd5b60395460408051630e95b25960e41b815260048101849052905160009283926001600160a01b039091169163e95b25909160248082019260209290919082900301818787803b158015613e5f57600080fd5b505af1158015613e73573d6000803e3d6000fd5b505050506040513d6020811015613e8957600080fd5b5051905080156141875760395460408051635859eec160e01b81526004810186905290516000926001600160a01b031691635859eec1916024808301926020929190829003018186803b158015613edf57600080fd5b505afa158015613ef3573d6000803e3d6000fd5b505050506040513d6020811015613f0957600080fd5b5051603954604080516372d8e81960e01b81526004810188905290519293506000926001600160a01b03909216916372d8e81991602480820192602092909190829003018186803b158015613f5d57600080fd5b505afa158015613f71573d6000803e3d6000fd5b505050506040513d6020811015613f8757600080fd5b50516038546040805163486cbb7160e11b81526004810184905290519293506000926001600160a01b03909216916390d976e291602480820192602092909190829003018186803b158015613fdb57600080fd5b505afa158015613fef573d6000803e3d6000fd5b505050506040513d602081101561400557600080fd5b5051603654604080516392c6830f60e01b81526004810187905290519293506000926001600160a01b03909216916392c6830f91602480820192602092909190829003018186803b15801561405957600080fd5b505afa15801561406d573d6000803e3d6000fd5b505050506040513d602081101561408357600080fd5b50516038546040805163486cbb7160e11b81526004810184905290519293506000926001600160a01b03909216916390d976e291602480820192602092909190829003018186803b1580156140d757600080fd5b505afa1580156140eb573d6000803e3d6000fd5b505050506040513d602081101561410157600080fd5b505160365460408051632e14866360e11b815260048101899052602481018890526001600160a01b03808516604483015287811660648301529151939450911691635c290cc69160848082019260009290919082900301818387803b15801561416957600080fd5b505af115801561417d573d6000803e3d6000fd5b5050505050505050505b50919050565b6000806000806000603960009054906101000a90046001600160a01b03166001600160a01b031663c9603311876040518263ffffffff1660e01b81526004018082815260200191505060a06040518083038186803b1580156141ee57600080fd5b505afa158015614202573d6000803e3d6000fd5b505050506040513d60a081101561421857600080fd5b508051602082015160408301516060840151608090940151929a91995097509195509350915050565b600054610100900460ff168061425a575061425a6156e7565b80614268575060005460ff16155b6142a35760405162461bcd60e51b815260040180806020018281038252602e8152602001806157e2602e913960400191505060405180910390fd5b600054610100900460ff161580156142ce576000805460ff1961ff0019909116610100171660011790555b603480546001600160a01b031916331790556142e8613525565b603580546001600160a01b03199081166001600160a01b038a811691909117909255603680548216898416179055603780548216888416179055603880548216878416179055603980548216868416179055603a805490911691841691909117905580156119ba576000805461ff001916905550505050505050565b6039546040805163b4c0bd9d60e01b815260048101859052905160009283926001600160a01b039091169163b4c0bd9d91602480820192602092909190829003018186803b1580156143b557600080fd5b505afa1580156143c9573d6000803e3d6000fd5b505050506040513d60208110156143df57600080fd5b5051905060006143ed611e7d565b603954604080516313772f9560e11b815260048101869052602481018890526044810184905290519293506000926001600160a01b03909216916326ee5f2a9160648082019260209290919082900301818787803b15801561444e57600080fd5b505af1158015614462573d6000803e3d6000fd5b505050506040513d602081101561447857600080fd5b50519695505050505050565b61448c613237565b6001600160a01b0316336001600160a01b0316146144db5760405162461bcd60e51b81526004018080602001828103825260248152602001806158646024913960400191505060405180910390fd5b61451f85858080601f016020809104026020016040519081016040528093929190818152602001838380828437600092019190915250879250869150859050615711565b5050505050565b6035546040805163e808386360e01b81526004810184905290516000928392839283926001600160a01b03169163e808386391602480830192606092919082900301818787803b15801561457957600080fd5b505af115801561458d573d6000803e3d6000fd5b505050506040513d60608110156145a357600080fd5b50805160208201516040909201519094509092509050826145ca5760009350505050611ad9565b6000821161461f576040805162461bcd60e51b815260206004820152601660248201527f496e76616c69642077696e6e696e672062696420496400000000000000000000604482015290519081900360640190fd5b60008111614674576040805162461bcd60e51b815260206004820152601660248201527f496e76616c6964207075626c69636174696f6e20496400000000000000000000604482015290519081900360640190fd5b603754604080516310a6d0d560e01b81526004810184905290516000926001600160a01b0316916310a6d0d5916024808301926020929190829003018186803b1580156146c057600080fd5b505afa1580156146d4573d6000803e3d6000fd5b505050506040513d60208110156146ea57600080fd5b50516038546040805163486cbb7160e11b81526004810184905290519293506000926001600160a01b03909216916390d976e291602480820192602092909190829003018186803b15801561473e57600080fd5b505afa158015614752573d6000803e3d6000fd5b505050506040513d602081101561476857600080fd5b50516038546040805163486cbb7160e11b81526004810188905290519293506000926001600160a01b03909216916390d976e291602480820192602092909190829003018186803b1580156147bc57600080fd5b505afa1580156147d0573d6000803e3d6000fd5b505050506040513d60208110156147e657600080fd5b505160375460408051632749cf7760e21b815260048101889052905192935060609283926001600160a01b031691639d273ddc916024808301926000929190829003018186803b15801561483957600080fd5b505afa15801561484d573d6000803e3d6000fd5b505050506040513d6000823e601f3d908101601f19168201604090815281101561487657600080fd5b8101908080516040519392919084600160201b82111561489557600080fd5b9083019060208201858111156148aa57600080fd5b82518660208202830111600160201b821117156148c657600080fd5b82525081516020918201928201910280838360005b838110156148f35781810151838201526020016148db565b5050505090500160405260200180516040519392919084600160201b82111561491b57600080fd5b90830190602082018581111561493057600080fd5b82518660208202830111600160201b8211171561494c57600080fd5b82525081516020918201928201910280838360005b83811015614979578181015183820152602001614961565b50505050919091016040819052603854631fd3cba160e21b8252602060048301818152895160248501528951999b509799506060986001600160a01b0390921697637f4f2e8497508b96509450849350604490920191808601910280838360005b838110156149f25781810151838201526020016149da565b505050509050019250505060006040518083038186803b158015614a1557600080fd5b505afa158015614a29573d6000803e3d6000fd5b505050506040513d6000823e601f3d908101601f191682016040526020811015614a5257600080fd5b8101908080516040519392919084600160201b821115614a7157600080fd5b908301906020820185811115614a8657600080fd5b82518660208202830111600160201b82111715614aa257600080fd5b82525081516020918201928201910280838360005b83811015614acf578181015183820152602001614ab7565b505050509050016040525050509050603a60009054906101000a90046001600160a01b03166001600160a01b031663841aee53858784868e6040518663ffffffff1660e01b815260040180866001600160a01b03166001600160a01b03168152602001856001600160a01b03166001600160a01b031681526020018060200180602001848152602001838103835286818151815260200191508051906020019060200280838360005b83811015614b90578181015183820152602001614b78565b50505050905001838103825285818151815260200191508051906020019060200280838360005b83811015614bcf578181015183820152602001614bb7565b50505050905001975050505050505050602060405180830381600087803b158015614bf957600080fd5b505af1158015614c0d573d6000803e3d6000fd5b505050506040513d6020811015614c2357600080fd5b5051614c76576040805162461bcd60e51b815260206004820152601e60248201527f42756c6b2061756374696f6e20736574746c656d656e74206661696c65640000604482015290519081900360640190fd5b60375460408051631d57d4e360e21b8152600481018a905290516000926001600160a01b03169163755f538c91602480830192602092919082900301818787803b158015614cc357600080fd5b505af1158015614cd7573d6000803e3d6000fd5b505050506040513d6020811015614ced57600080fd5b5051603654604080516315ea90b560e31b81526001600160a01b038981166004830152602482018e9052604482018d9052606482018590529151939450600093919092169163af5485a891608480830192602092919082900301818787803b158015614d5857600080fd5b505af1158015614d6c573d6000803e3d6000fd5b505050506040513d6020811015614d8257600080fd5b5051603754604080516301854b3760e51b8152600481018d905290519293506002926001600160a01b03909216916330a966e091602480820192602092909190829003018186803b158015614dd657600080fd5b505afa158015614dea573d6000803e3d6000fd5b505050506040513d6020811015614e0057600080fd5b505160ff161415614e8d5760395460408051630eed804960e31b815260048101849052602481018e905290516001600160a01b039092169163776c0248916044808201926020929091908290030181600087803b158015614e6057600080fd5b505af1158015614e74573d6000803e3d6000fd5b505050506040513d6020811015614e8a57600080fd5b50505b50989b9a5050505050505050505050565b600080600080600060606000603960009054906101000a90046001600160a01b03166001600160a01b031663eb12cdc3896040518263ffffffff1660e01b81526004018082815260200191505060006040518083038186803b158015614f0357600080fd5b505afa158015614f17573d6000803e3d6000fd5b505050506040513d6000823e601f3d908101601f1916820160405260e0811015614f4057600080fd5b815160208301516040808501516060860151608087015160a088018051945196989597939692959194929382019284600160201b821115614f8057600080fd5b908301906020820185811115614f9557600080fd5b82518660208202830111600160201b82111715614fb157600080fd5b82525081516020918201928201910280838360005b83811015614fde578181015183820152602001614fc6565b50505050919091016040525060200151979e50959c50939a50919850965094509192505050919395979092949650565b6060806060806060603960009054906101000a90046001600160a01b03166001600160a01b031663eb9c6e81876040518263ffffffff1660e01b81526004018082815260200191505060006040518083038186803b15801561506f57600080fd5b505afa158015615083573d6000803e3d6000fd5b505050506040513d6000823e601f3d908101601f1916820160405260a08110156150ac57600080fd5b8101908080516040519392919084600160201b8211156150cb57600080fd5b9083019060208201858111156150e057600080fd5b82518660208202830111600160201b821117156150fc57600080fd5b82525081516020918201928201910280838360005b83811015615129578181015183820152602001615111565b5050505090500160405260200180516040519392919084600160201b82111561515157600080fd5b90830190602082018581111561516657600080fd5b82518660208202830111600160201b8211171561518257600080fd5b82525081516020918201928201910280838360005b838110156151af578181015183820152602001615197565b5050505090500160405260200180516040519392919084600160201b8211156151d757600080fd5b9083019060208201858111156151ec57600080fd5b82518660208202830111600160201b8211171561520857600080fd5b82525081516020918201928201910280838360005b8381101561523557818101518382015260200161521d565b5050505090500160405260200180516040519392919084600160201b82111561525d57600080fd5b90830190602082018581111561527257600080fd5b82518660208202830111600160201b8211171561528e57600080fd5b82525081516020918201928201910280838360005b838110156152bb5781810151838201526020016152a3565b5050505090500160405260200180516040519392919084600160201b8211156152e357600080fd5b9083019060208201858111156152f857600080fd5b82518660208202830111600160201b8211171561531457600080fd5b82525081516020918201928201910280838360005b83811015615341578181015183820152602001615329565b505050509050016040525050509450945094509450945091939590929450565b60375460408051633630b3e360e11b81526004810184905290516000926001600160a01b031691636c6167c6916024808301926020929190829003018186803b1580156153ad57600080fd5b505afa1580156153c1573d6000803e3d6000fd5b505050506040513d60208110156153d757600080fd5b5051905060006153e5611e7d565b6035546040805163908e27eb60e01b815260048101889052602481018690526044810184905290519293506001600160a01b039091169163908e27eb916064808201926020929091908290030181600087803b15801561544457600080fd5b505af1158015615458573d6000803e3d6000fd5b505050506040513d602081101561546e57600080fd5b505050505050565b6036546040805163fbd9d2eb60e01b81526004810184905290516060926001600160a01b03169163fbd9d2eb916024808301926000929190829003018186803b158015611a0f57600080fd5b6039546040805163fd8446e960e01b815290516000926001600160a01b03169163fd8446e9916004808301926020929190829003018186803b1580156130c557600080fd5b60375460408051633630b3e360e11b815260048101849052905160009283926001600160a01b0390911691636c6167c691602480820192602092909190829003018186803b15801561555857600080fd5b505afa15801561556c573d6000803e3d6000fd5b505050506040513d602081101561558257600080fd5b505160355460408051633d446f6760e11b81526004810184905290519293506001600160a01b0390911691637a88dece91602480820192602092909190829003018186803b1580156155d357600080fd5b505afa158015613218573d6000803e3d6000fd5b6033546001600160a01b039081169082166156335760405162461bcd60e51b815260040180806020018281038252602e815260200180615788602e913960400191505060405180910390fd5b806001600160a01b0316826001600160a01b031614156156845760405162461bcd60e51b815260040180806020018281038252602d815260200180615810602d913960400191505060405180910390fd5b816001600160a01b0316816001600160a01b03167fb9f84b8e65164b14439ae3620df0a4d8786d896996c0282b683f9d8c08f046e860405160405180910390a350603380546001600160a01b0319166001600160a01b0392909216919091179055565b303b1590565b6000606061570960405180602001604052806000815250615717565b915091509091565b50505050565b60009156fe43616e74206372656174652061207075626c69636174696f6e20696620796f7520617265206e6f7420726567697374657265644f6e6c79207468652063757272656e74206c6963656e6365206f776e65722063616e2075706461746520746865202076616c756174696f6e47534e526563697069656e743a206e65772052656c617948756220697320746865207a65726f20616464726573734f6e6c7920746865207075626c69736865722063616e206d6f64696679207468652073746172742074696d65436f6e747261637420696e7374616e63652068617320616c7265616479206265656e20696e697469616c697a656447534e526563697069656e743a206e65772052656c6179487562206973207468652063757272656e74206f6e654f6e6c79206f776e65722063616e206368616e676520746865206f776e6572206164647265737347534e526563697069656e743a2063616c6c6572206973206e6f742052656c6179487562a265627a7a7231582071d16ad8e7883acbaf90deae73fe7457980224a3de1dfab58e22bbe994e2502264736f6c634300050c0032",
  "source": "pragma solidity ^0.5.12;\n\n/// @title UniCoin smart contract\n/// @author Chris Maree\n\nimport \"@openzeppelin/contracts-ethereum-package/contracts/GSN/GSNRecipient.sol\";\nimport \"@openzeppelin/upgrades/contracts/Initializable.sol\";\n\nimport \"./interfaces/iAuctionManager.sol\";\nimport \"./interfaces/iLicenceManager.sol\";\nimport \"./interfaces/iPublicationManager.sol\";\nimport \"./interfaces/iUserManager.sol\";\nimport \"./interfaces/iVault.sol\";\nimport \"./interfaces/iHarbergerTaxManager.sol\";\n\ncontract UnicoinRegistry is Initializable, GSNRecipient {\n    address owner;\n\n    IAuctionManager private auctionManager;\n    ILicenceManager private licenceManager;\n    IPublicationManager private publicationManager;\n    IUserManager private userManager;\n    IHarbergerTaxManager private harbergerTaxManager;\n    IVault private vault;\n\n    enum PricingStrategy { PrivateAuction, FixedRate, PrivateAuctionHarberger }\n\n    function initialize(\n        address _auctionManager,\n        address _licenceManager,\n        address _publicationManager,\n        address _userManager,\n        address _harbergerTaxManager,\n        address _vault\n    ) public initializer {\n        owner = msg.sender;\n\n        GSNRecipient.initialize();\n\n        auctionManager = IAuctionManager(_auctionManager);\n        licenceManager = ILicenceManager(_licenceManager);\n        publicationManager = IPublicationManager(_publicationManager);\n        userManager = IUserManager(_userManager);\n        harbergerTaxManager = IHarbergerTaxManager(_harbergerTaxManager);\n        vault = IVault(_vault);\n    }\n\n    // accept all requests\n    function acceptRelayedCall(\n        address,\n        address,\n        bytes calldata,\n        uint256,\n        uint256,\n        uint256,\n        uint256,\n        bytes calldata,\n        uint256\n    ) external view returns (uint256, bytes memory) {\n        return _approveRelayedCall();\n    }\n\n    function _preRelayedCall(bytes memory context) internal returns (bytes32) {\n        // solhint-disable-previous-line no-empty-blocks\n    }\n\n    function _postRelayedCall(bytes memory context, bool, uint256 actualCharge, bytes32) internal {\n        // solhint-disable-previous-line no-empty-blocks\n    }\n\n    function setOwner(address _owner) public {\n        require(owner == msg.sender, \"Only owner can change the owner address\");\n        owner = _owner;\n    }\n\n    function registerUser(string memory _profile_uri) public returns (uint256) {\n        uint256 user_Id = userManager._registerUser(_profile_uri, msg.sender);\n        return user_Id;\n    }\n    function createPublication(\n        uint8 _pricing_Strategy,\n        string memory _publication_uri,\n        uint256 _auctionFloor,\n        uint256 _auctionStartTime,\n        uint256 _auctionDuration,\n        uint256 _fixed_sell_price,\n        uint256 _maxNumberOfLicences,\n        uint256[] memory _contributors,\n        uint256[] memory _contributors_weightings\n    ) public {\n        require(isCallerRegistered(), \"Cant create a publication if you are not registered\");\n        uint256 author_id = getCallerId();\n        uint256 publicationId = publicationManager._createPublication(\n            _pricing_Strategy,\n            _publication_uri,\n            author_id,\n            _fixed_sell_price,\n            _maxNumberOfLicences,\n            _contributors,\n            _contributors_weightings\n        );\n\n        if (PricingStrategy(_pricing_Strategy) != PricingStrategy.FixedRate) {\n            uint256 auctionId = auctionManager._createAuction(\n                publicationId,\n                _auctionFloor,\n                _auctionStartTime,\n                _auctionDuration\n            );\n            publicationManager._addAuctionToPublication(publicationId, auctionId);\n        }\n    }\n\n    function commitSealedBid(bytes32 _bidHash, uint256 _publication_Id) public {\n        uint256 auction_Id = publicationManager.getLatestAuctionId(_publication_Id);\n        uint256 bidder_Id = getCallerId();\n        auctionManager._commitSealedBid(_bidHash, auction_Id, bidder_Id);\n    }\n\n    function revealSealedBid(uint256 _bid, uint256 _salt, uint256 _publication_Id, uint256 _bid_Id)\n        public\n        returns (uint256)\n    {\n        uint256 auction_Id = publicationManager.getLatestAuctionId(_publication_Id);\n        uint256 bidder_Id = getCallerId();\n        auctionManager.revealSealedBid(_bid, _salt, auction_Id, _bid_Id, bidder_Id);\n    }\n\n    function finalizeAuction(uint256 _auction_Id) public returns (uint256) {\n        (uint256 winningBidAmount, uint256 winningBiderId, uint256 publicationId) = auctionManager.finalizeAuction(\n            _auction_Id\n        );\n\n        if (winningBidAmount == 0) {\n            return 0; //no one won the auction\n        }\n        require(winningBiderId > 0, \"Invalid winning bid Id\");\n        require(publicationId > 0, \"Invalid publication Id\");\n\n        uint256 authorId = publicationManager.getAuthorId(publicationId);\n        address authorAddress = userManager.getUserAddress(authorId);\n        address winningBidderAddress = userManager.getUserAddress(winningBiderId);\n\n        (uint256[] memory contributorIds, uint256[] memory contributorWeightings) = publicationManager._getContributers(\n            publicationId\n        );\n\n        address[] memory contributorAddresses = userManager.getAddressArray(contributorIds);\n\n        require(\n            vault.settleBulkPayment(\n                winningBidderAddress,\n                authorAddress,\n                contributorAddresses,\n                contributorWeightings,\n                winningBidAmount\n            ),\n            \"Bulk auction settlement failed\"\n        );\n\n        uint256 publicationLicenceNo = publicationManager.addNewLicenceToPublication(publicationId);\n\n        uint256 licence_Id = licenceManager.registerNewLicence(\n            winningBidderAddress,\n            winningBiderId,\n            publicationId,\n            publicationLicenceNo\n        );\n        if (\n            publicationManager.GetPublicationPricingStrategy(publicationId) ==\n            uint8(PricingStrategy.PrivateAuctionHarberger)\n        ) {\n            harbergerTaxManager.createTaxObject(licence_Id, winningBidAmount);\n        }\n        return winningBidAmount;\n    }\n\n    function buyLicenceFixedRate() public {}\n\n    function claimHarbergerTax(uint256 _publication_Id) public returns (uint256) {\n        uint256 licence_Id = licenceManager.getMostRecentPublicationLicence(_publication_Id);\n        uint256 taxObject_Id = harbergerTaxManager.getLicenceTaxObjectId(licence_Id);\n        uint256 outstandingTax = harbergerTaxManager.calculateOutstandingTax(taxObject_Id);\n        address licenceOwner = licenceManager.ownerOf(licence_Id);\n        bool licenceOwnerSolvent = vault.canAddressPay(licenceOwner, outstandingTax);\n\n        if (licenceOwnerSolvent) {\n            //the licence owner can pay the tax and all contributers are paid\n            uint256 authorId = publicationManager.getAuthorId(_publication_Id);\n            address authorAddress = userManager.getUserAddress(authorId);\n            (uint256[] memory contributorIds, uint256[] memory contributorWeightings) = publicationManager\n                ._getContributers(_publication_Id);\n            address[] memory contributorAddresses = userManager.getAddressArray(contributorIds);\n            require(\n                vault.settleBulkPayment(\n                    licenceOwner,\n                    authorAddress,\n                    contributorAddresses,\n                    contributorWeightings,\n                    outstandingTax\n                ),\n                \"Bulk harberger settlement failed\"\n            );\n\n            harbergerTaxManager._updateTaxObjectLastPayment(taxObject_Id);\n\n            return outstandingTax; //returns the total tax sent\n        }\n        // the licence owner cant pay the tax. they loose their licence which is placed for auction again\n        if (!licenceOwnerSolvent) {\n            licenceManager.revokeLicence(licence_Id);\n            publicationManager.revokeLicence(_publication_Id);\n            harbergerTaxManager.revokeTaxObject(taxObject_Id);\n\n            //create a new auction\n            uint256 auctionId = auctionManager._createAuction(\n                _publication_Id,\n                0, //auction floor\n                now, //auction start time\n                60 * 60 * 24 * 30 // one month duration for the auction\n            );\n            publicationManager._addAuctionToPublication(_publication_Id, auctionId);\n            return 0;\n        }\n    }\n\n    function updateLicenceHarbergerValuation(uint256 _licence_Id, uint256 _newValuation) public returns (uint256) {\n        uint256 licenceOwner_Id = licenceManager.getLicenceOwnerId(_licence_Id);\n        require(licenceOwner_Id == getCallerId(), \"Only the current licence owner can update the  valuation\");\n\n        uint256 taxObject_Id = harbergerTaxManager.getLicenceTaxObjectId(_licence_Id);\n\n        harbergerTaxManager._updateTaxObjectValuation(taxObject_Id, _newValuation);\n    }\n\n    function createHarbergerBuyOut(uint256 _licence_Id, uint256 _buyOutAmount) public returns (uint256) {\n        uint256 taxObject_Id = harbergerTaxManager.getLicenceTaxObjectId(_licence_Id);\n        uint256 buyOutOwner_Id = getCallerId();\n\n        uint256 buyOut_Id = harbergerTaxManager.submitBuyOut(taxObject_Id, _buyOutAmount, buyOutOwner_Id);\n        return buyOut_Id;\n    }\n\n    function finalizeBuyoutOffer(uint256 _buyOut_Id) public returns (bool) {\n        bool offerSucceeded = harbergerTaxManager.finalizeBuyOutOffer(_buyOut_Id);\n        if (offerSucceeded) {\n            uint256 licence_Id = harbergerTaxManager.getBuyOutLicenceId(_buyOut_Id);\n            uint256 buyOutOwner_Id = harbergerTaxManager.getBuyOutOwnerId(_buyOut_Id);\n\n            address buyOutOwner_address = userManager.getUserAddress(buyOutOwner_Id);\n\n            uint256 previousOwner_Id = licenceManager.getLicenceOwnerId(licence_Id);\n\n            address previousOwner_address = userManager.getUserAddress(previousOwner_Id);\n\n            licenceManager.allocateLicenceToNewOwner(\n                licence_Id,\n                buyOutOwner_Id,\n                previousOwner_address,\n                buyOutOwner_address\n            );\n        }\n    }\n\n    function getTaxObject(uint256 _taxObject_Id)\n        public\n        view\n        returns (uint256, uint256, uint256, uint256, uint256, uint256[] memory, uint8)\n    {\n        return (harbergerTaxManager.getTaxObject(_taxObject_Id));\n    }\n\n    function getBuyOut(uint256 _buyOut_Id) public view returns (uint256, uint256, uint256, uint256, uint8) {\n        return (harbergerTaxManager.getBuyOut(_buyOut_Id));\n    }\n\n    function getTaxObjectLength() public view returns (uint256) {\n        return harbergerTaxManager.getTaxObjectLength();\n    }\n\n    function getMinBuyOutAmount(uint256 _publication_Id) public view returns (uint256) {}\n\n    function getPublicationsAuthorAddress(address _address) public view returns (uint256[] memory) {\n        uint256 author_Id = userManager.getUserId(_address);\n        return publicationManager.getAuthorPublications(author_Id);\n    }\n\n    function getPublicationsAuthorId(uint256 _author_Id) public view returns (uint256[] memory) {\n        return publicationManager.getAuthorPublications(_author_Id);\n    }\n\n    function getPublicationLicences(uint256 _publication_Id) public view returns (uint256[] memory) {\n        return licenceManager.getPublicationLicences(_publication_Id);\n    }\n\n    function getBids(address _address) public view returns (uint256[] memory) {\n        uint256 userAddress = userManager.getUserId(_address);\n        return auctionManager.getBidderBids(userAddress);\n    }\n\n    function getPublicationAuctions(uint256 _publication_Id) public view returns (uint256[] memory) {\n        return publicationManager.getPublicationAuctions(_publication_Id);\n    }\n\n    function getPublicationLength() public view returns (uint256) {\n        return publicationManager.getPublicationLength();\n    }\n\n    function getPublication(uint256 _publication_Id)\n        public\n        view\n        returns (\n            uint8,\n            string memory,\n            uint256,\n            uint256,\n            uint256,\n            uint256,\n            uint256[] memory,\n            uint256[] memory,\n            uint256[] memory\n        )\n    {\n        return (publicationManager.getPublication(_publication_Id));\n    }\n\n    function getLicenceForAddress(address _address) public view returns (uint256[] memory) {\n        uint256 user_Id = userManager.getUserId(_address);\n        return getLicenceForUserId(user_Id);\n    }\n\n    function getLicenceForUserId(uint256 _user_Id) public view returns (uint256[] memory) {\n        return licenceManager.getLicenceForUser(_user_Id);\n    }\n\n    function getLicence(uint256 _licence_Id) public view returns (uint256, uint256, uint256, uint8) {\n        return (licenceManager.getLicence(_licence_Id));\n    }\n\n    function donate(uint256 _publication_Id, uint256 _value) public {\n        uint256 authorId = publicationManager.getAuthorId(_publication_Id);\n        address authorAddress = userManager.getUserAddress(authorId);\n\n        (uint256[] memory contributorIds, uint256[] memory contributorWeightings) = publicationManager._getContributers(\n            _publication_Id\n        );\n\n        address[] memory contributorAddresses = userManager.getAddressArray(contributorIds);\n\n        require(\n            vault.settleBulkPayment(msg.sender, authorAddress, contributorAddresses, contributorWeightings, _value),\n            \"Bulk auction settlement failed\"\n        );\n    }\n\n    function isCallerRegistered() public view returns (bool) {\n        return userManager.isAddressRegistered(msg.sender);\n    }\n\n    function getCallerId() public view returns (uint256) {\n        uint256 callerId = userManager.getUserId(msg.sender);\n        require(callerId != 0, \"Caller is not registered!\");\n        return callerId;\n    }\n\n    function getUserAddress(uint256 _user_Id) public view returns (address) {\n        return userManager.getUserAddress(_user_Id);\n    }\n\n    function canAddressPay(uint256 _user_Id, uint256 _amount) public view returns (bool) {\n        address userAddress = getUserAddress(_user_Id);\n        return vault.canAddressPay(userAddress, _amount);\n    }\n\n    function getBidderBids(uint256 _bidder_Id) public view returns (uint256[] memory) {\n        return auctionManager.getBidderBids(_bidder_Id);\n    }\n\n    function getBlockTime() public view returns (uint256) {\n        return now;\n    }\n\n    function getAuctionStatus(uint256 _auction_Id) public returns (uint256) {\n        return uint256(auctionManager.getAuctionStatus(_auction_Id));\n    }\n\n    function updateAuctionStartTime(uint256 _publication_Id, uint256 _newStartTime) public {\n        uint256 caller_Id = getCallerId();\n        require(\n            caller_Id == publicationManager.getAuthorId(_publication_Id),\n            \"Only the publisher can modify the start time\"\n        );\n        uint256 auction_Id = publicationManager.getLatestAuctionId(_publication_Id);\n        auctionManager.updateAuctionStartTime(auction_Id, _newStartTime);\n    }\n\n    function getPublicationBids(uint256 _publication_Id) public view returns (uint256[] memory) {\n        uint256 auction_Id = publicationManager.getLatestAuctionId(_publication_Id);\n        return (auctionManager.getAuctionBids(auction_Id));\n    }\n\n    function getBid(uint256 _bid_Id) public view returns (bytes32, uint256, uint256, uint8, uint256, uint256, uint256) {\n        return (auctionManager.getBid(_bid_Id));\n    }\n\n    function getPublicationAuctionBidLength(uint256 _publication_Id) public view returns (uint256) {\n        uint256 auction_Id = publicationManager.getLatestAuctionId(_publication_Id);\n        return auctionManager.getNumberOfBidsInAuction(auction_Id);\n    }\n    function ownerOf(uint256 tokenId) public view returns (address) {\n        return licenceManager.ownerOf(tokenId);\n    }\n\n    function getOutstandingTax(uint256 _taxObject_Id) public view returns (uint256) {\n        return harbergerTaxManager.calculateOutstandingTax(_taxObject_Id);\n    }\n\n    function getMinBuyOutPrice(uint256 _taxObject_Id) public view returns (uint256) {\n        return harbergerTaxManager.calculateMinBuyOutPrice(_taxObject_Id);\n    }\n\n    function getLicenceTaxObjectId(uint256 _licence_Id) public view returns (uint256) {\n        return harbergerTaxManager.getLicenceTaxObjectId(_licence_Id);\n    }\n\n    function getLicenceBuyOuts(uint256 _licence_Id)\n        public\n        view\n        returns (uint256[] memory, uint256[] memory, uint256[] memory, uint256[] memory, uint8[] memory)\n    {\n        return (harbergerTaxManager.getLicenceBuyOuts(_licence_Id));\n    }\n\n    function getMostRecentPublicationLicence(uint256 _publication_Id) public view returns (uint256) {\n        return licenceManager.getMostRecentPublicationLicence(_publication_Id);\n    }\n\n    function getAuction(uint256 _auction_Id)\n        public\n        view\n        returns (uint256, uint256, uint256, uint256, uint256[] memory, uint256, uint8)\n    {\n        return (auctionManager.getAuction(_auction_Id));\n    }\n}\n",
  "sourcePath": "/Users/chris/Projects/unicoin2.0/contracts/UnicoinRegistry.sol",
  "compiler": {
    "name": "solc",
    "version": "0.5.12+commit.7709ece9.Emscripten.clang"
  },
  "schemaVersion": "3.0.16",
  "updatedAt": "2020-02-01T17:28:20.947Z",
  "devdoc": {
    "methods": {
      "getHubAddr()": {
        "details": "Returns the address of the {IRelayHub} contract for this recipient."
      },
      "postRelayedCall(bytes,bool,uint256,bytes32)": {
        "details": "See `IRelayRecipient.postRelayedCall`.     * This function should not be overriden directly, use `_postRelayedCall` instead.     * * Requirements:     * - the caller must be the `RelayHub` contract."
      },
      "preRelayedCall(bytes)": {
        "details": "See `IRelayRecipient.preRelayedCall`.     * This function should not be overriden directly, use `_preRelayedCall` instead.     * * Requirements:     * - the caller must be the `RelayHub` contract."
      },
      "relayHubVersion()": {
        "details": "Returns the version string of the {IRelayHub} for which this recipient implementation was built. If {_upgradeRelayHub} is used, the new {IRelayHub} instance should be compatible with this version."
      }
    }
  },
  "userdoc": {
    "methods": {}
  }
}