{
  "contractName": "UnicoinRegistry",
  "abi": [
    {
      "anonymous": false,
      "inputs": [
        {
          "indexed": true,
          "internalType": "address",
          "name": "oldRelayHub",
          "type": "address"
        },
        {
          "indexed": true,
          "internalType": "address",
          "name": "newRelayHub",
          "type": "address"
        }
      ],
      "name": "RelayHubChanged",
      "type": "event"
    },
    {
      "constant": true,
      "inputs": [],
      "name": "getHubAddr",
      "outputs": [
        {
          "internalType": "address",
          "name": "",
          "type": "address"
        }
      ],
      "payable": false,
      "stateMutability": "view",
      "type": "function"
    },
    {
      "constant": false,
      "inputs": [
        {
          "internalType": "bytes",
          "name": "context",
          "type": "bytes"
        },
        {
          "internalType": "bool",
          "name": "success",
          "type": "bool"
        },
        {
          "internalType": "uint256",
          "name": "actualCharge",
          "type": "uint256"
        },
        {
          "internalType": "bytes32",
          "name": "preRetVal",
          "type": "bytes32"
        }
      ],
      "name": "postRelayedCall",
      "outputs": [],
      "payable": false,
      "stateMutability": "nonpayable",
      "type": "function"
    },
    {
      "constant": false,
      "inputs": [
        {
          "internalType": "bytes",
          "name": "context",
          "type": "bytes"
        }
      ],
      "name": "preRelayedCall",
      "outputs": [
        {
          "internalType": "bytes32",
          "name": "",
          "type": "bytes32"
        }
      ],
      "payable": false,
      "stateMutability": "nonpayable",
      "type": "function"
    },
    {
      "constant": true,
      "inputs": [],
      "name": "relayHubVersion",
      "outputs": [
        {
          "internalType": "string",
          "name": "",
          "type": "string"
        }
      ],
      "payable": false,
      "stateMutability": "view",
      "type": "function"
    },
    {
      "constant": false,
      "inputs": [],
      "name": "setDefaultRelayHub",
      "outputs": [],
      "payable": false,
      "stateMutability": "nonpayable",
      "type": "function"
    },
    {
      "constant": false,
      "inputs": [],
      "name": "initialize",
      "outputs": [],
      "payable": false,
      "stateMutability": "nonpayable",
      "type": "function"
    },
    {
      "constant": false,
      "inputs": [
        {
          "internalType": "address",
          "name": "_auctionManager",
          "type": "address"
        },
        {
          "internalType": "address",
          "name": "_licenceManager",
          "type": "address"
        },
        {
          "internalType": "address",
          "name": "_publicationManager",
          "type": "address"
        },
        {
          "internalType": "address",
          "name": "_userManager",
          "type": "address"
        },
        {
          "internalType": "address",
          "name": "_harbergerTaxManager",
          "type": "address"
        },
        {
          "internalType": "address",
          "name": "_vault",
          "type": "address"
        }
      ],
      "name": "initialize",
      "outputs": [],
      "payable": false,
      "stateMutability": "nonpayable",
      "type": "function"
    },
    {
      "constant": true,
      "inputs": [
        {
          "internalType": "address",
          "name": "",
          "type": "address"
        },
        {
          "internalType": "address",
          "name": "",
          "type": "address"
        },
        {
          "internalType": "bytes",
          "name": "",
          "type": "bytes"
        },
        {
          "internalType": "uint256",
          "name": "",
          "type": "uint256"
        },
        {
          "internalType": "uint256",
          "name": "",
          "type": "uint256"
        },
        {
          "internalType": "uint256",
          "name": "",
          "type": "uint256"
        },
        {
          "internalType": "uint256",
          "name": "",
          "type": "uint256"
        },
        {
          "internalType": "bytes",
          "name": "",
          "type": "bytes"
        },
        {
          "internalType": "uint256",
          "name": "",
          "type": "uint256"
        }
      ],
      "name": "acceptRelayedCall",
      "outputs": [
        {
          "internalType": "uint256",
          "name": "",
          "type": "uint256"
        },
        {
          "internalType": "bytes",
          "name": "",
          "type": "bytes"
        }
      ],
      "payable": false,
      "stateMutability": "view",
      "type": "function"
    },
    {
      "constant": false,
      "inputs": [
        {
          "internalType": "address",
          "name": "_owner",
          "type": "address"
        }
      ],
      "name": "setOwner",
      "outputs": [],
      "payable": false,
      "stateMutability": "nonpayable",
      "type": "function"
    },
    {
      "constant": false,
      "inputs": [
        {
          "internalType": "string",
          "name": "_profile_uri",
          "type": "string"
        }
      ],
      "name": "registerUser",
      "outputs": [
        {
          "internalType": "uint256",
          "name": "",
          "type": "uint256"
        }
      ],
      "payable": false,
      "stateMutability": "nonpayable",
      "type": "function"
    },
    {
      "constant": false,
      "inputs": [
        {
          "internalType": "uint8",
          "name": "_pricing_Strategy",
          "type": "uint8"
        },
        {
          "internalType": "string",
          "name": "_publication_uri",
          "type": "string"
        },
        {
          "internalType": "uint256",
          "name": "_auctionFloor",
          "type": "uint256"
        },
        {
          "internalType": "uint256",
          "name": "_auctionStartTime",
          "type": "uint256"
        },
        {
          "internalType": "uint256",
          "name": "_auctionDuration",
          "type": "uint256"
        },
        {
          "internalType": "uint256",
          "name": "_fixed_sell_price",
          "type": "uint256"
        },
        {
          "internalType": "uint256",
          "name": "_maxNumberOfLicences",
          "type": "uint256"
        },
        {
          "internalType": "uint256[]",
          "name": "_contributors",
          "type": "uint256[]"
        },
        {
          "internalType": "uint256[]",
          "name": "_contributors_weightings",
          "type": "uint256[]"
        }
      ],
      "name": "createPublication",
      "outputs": [],
      "payable": false,
      "stateMutability": "nonpayable",
      "type": "function"
    },
    {
      "constant": false,
      "inputs": [
        {
          "internalType": "bytes32",
          "name": "_bidHash",
          "type": "bytes32"
        },
        {
          "internalType": "uint256",
          "name": "_publication_Id",
          "type": "uint256"
        }
      ],
      "name": "commitSealedBid",
      "outputs": [],
      "payable": false,
      "stateMutability": "nonpayable",
      "type": "function"
    },
    {
      "constant": false,
      "inputs": [
        {
          "internalType": "uint256",
          "name": "_bid",
          "type": "uint256"
        },
        {
          "internalType": "uint256",
          "name": "_salt",
          "type": "uint256"
        },
        {
          "internalType": "uint256",
          "name": "_publication_Id",
          "type": "uint256"
        },
        {
          "internalType": "uint256",
          "name": "_bid_Id",
          "type": "uint256"
        }
      ],
      "name": "revealSealedBid",
      "outputs": [
        {
          "internalType": "uint256",
          "name": "",
          "type": "uint256"
        }
      ],
      "payable": false,
      "stateMutability": "nonpayable",
      "type": "function"
    },
    {
      "constant": false,
      "inputs": [
        {
          "internalType": "uint256",
          "name": "_auction_Id",
          "type": "uint256"
        }
      ],
      "name": "finalizeAuction",
      "outputs": [
        {
          "internalType": "uint256",
          "name": "",
          "type": "uint256"
        }
      ],
      "payable": false,
      "stateMutability": "nonpayable",
      "type": "function"
    },
    {
      "constant": false,
      "inputs": [],
      "name": "buyLicenceFixedRate",
      "outputs": [],
      "payable": false,
      "stateMutability": "nonpayable",
      "type": "function"
    },
    {
      "constant": false,
      "inputs": [
        {
          "internalType": "uint256",
          "name": "_publication_Id",
          "type": "uint256"
        }
      ],
      "name": "claimHarbergerTax",
      "outputs": [
        {
          "internalType": "uint256",
          "name": "",
          "type": "uint256"
        }
      ],
      "payable": false,
      "stateMutability": "nonpayable",
      "type": "function"
    },
    {
      "constant": true,
      "inputs": [
        {
          "internalType": "address",
          "name": "_address",
          "type": "address"
        }
      ],
      "name": "getPublicationsAuthorAddress",
      "outputs": [
        {
          "internalType": "uint256[]",
          "name": "",
          "type": "uint256[]"
        }
      ],
      "payable": false,
      "stateMutability": "view",
      "type": "function"
    },
    {
      "constant": true,
      "inputs": [
        {
          "internalType": "uint256",
          "name": "_author_Id",
          "type": "uint256"
        }
      ],
      "name": "getPublicationsAuthorId",
      "outputs": [
        {
          "internalType": "uint256[]",
          "name": "",
          "type": "uint256[]"
        }
      ],
      "payable": false,
      "stateMutability": "view",
      "type": "function"
    },
    {
      "constant": true,
      "inputs": [
        {
          "internalType": "uint256",
          "name": "_publication_Id",
          "type": "uint256"
        }
      ],
      "name": "getPublicationLicences",
      "outputs": [
        {
          "internalType": "uint256[]",
          "name": "",
          "type": "uint256[]"
        }
      ],
      "payable": false,
      "stateMutability": "view",
      "type": "function"
    },
    {
      "constant": true,
      "inputs": [
        {
          "internalType": "address",
          "name": "_address",
          "type": "address"
        }
      ],
      "name": "getBids",
      "outputs": [
        {
          "internalType": "uint256[]",
          "name": "",
          "type": "uint256[]"
        }
      ],
      "payable": false,
      "stateMutability": "view",
      "type": "function"
    },
    {
      "constant": true,
      "inputs": [
        {
          "internalType": "uint256",
          "name": "_publication_Id",
          "type": "uint256"
        }
      ],
      "name": "getPublicationAuctions",
      "outputs": [
        {
          "internalType": "uint256[]",
          "name": "",
          "type": "uint256[]"
        }
      ],
      "payable": false,
      "stateMutability": "view",
      "type": "function"
    },
    {
      "constant": true,
      "inputs": [],
      "name": "getPublicationLength",
      "outputs": [
        {
          "internalType": "uint256",
          "name": "",
          "type": "uint256"
        }
      ],
      "payable": false,
      "stateMutability": "view",
      "type": "function"
    },
    {
      "constant": true,
      "inputs": [
        {
          "internalType": "uint256",
          "name": "_publication_Id",
          "type": "uint256"
        }
      ],
      "name": "getPublication",
      "outputs": [
        {
          "internalType": "uint8",
          "name": "",
          "type": "uint8"
        },
        {
          "internalType": "string",
          "name": "",
          "type": "string"
        },
        {
          "internalType": "uint256",
          "name": "",
          "type": "uint256"
        },
        {
          "internalType": "uint256",
          "name": "",
          "type": "uint256"
        },
        {
          "internalType": "uint256",
          "name": "",
          "type": "uint256"
        },
        {
          "internalType": "uint256",
          "name": "",
          "type": "uint256"
        },
        {
          "internalType": "uint256[]",
          "name": "",
          "type": "uint256[]"
        },
        {
          "internalType": "uint256[]",
          "name": "",
          "type": "uint256[]"
        },
        {
          "internalType": "uint256[]",
          "name": "",
          "type": "uint256[]"
        }
      ],
      "payable": false,
      "stateMutability": "view",
      "type": "function"
    },
    {
      "constant": true,
      "inputs": [
        {
          "internalType": "address",
          "name": "_address",
          "type": "address"
        }
      ],
      "name": "getLicenceForAddress",
      "outputs": [
        {
          "internalType": "uint256[]",
          "name": "",
          "type": "uint256[]"
        }
      ],
      "payable": false,
      "stateMutability": "view",
      "type": "function"
    },
    {
      "constant": true,
      "inputs": [
        {
          "internalType": "uint256",
          "name": "_user_Id",
          "type": "uint256"
        }
      ],
      "name": "getLicenceForUserId",
      "outputs": [
        {
          "internalType": "uint256[]",
          "name": "",
          "type": "uint256[]"
        }
      ],
      "payable": false,
      "stateMutability": "view",
      "type": "function"
    },
    {
      "constant": true,
      "inputs": [
        {
          "internalType": "uint256",
          "name": "_licence_Id",
          "type": "uint256"
        }
      ],
      "name": "getLicence",
      "outputs": [
        {
          "internalType": "uint256",
          "name": "",
          "type": "uint256"
        },
        {
          "internalType": "uint256",
          "name": "",
          "type": "uint256"
        },
        {
          "internalType": "uint256",
          "name": "",
          "type": "uint256"
        },
        {
          "internalType": "uint8",
          "name": "",
          "type": "uint8"
        }
      ],
      "payable": false,
      "stateMutability": "view",
      "type": "function"
    },
    {
      "constant": false,
      "inputs": [
        {
          "internalType": "uint256",
          "name": "_publication_Id",
          "type": "uint256"
        },
        {
          "internalType": "uint256",
          "name": "_value",
          "type": "uint256"
        }
      ],
      "name": "donate",
      "outputs": [],
      "payable": false,
      "stateMutability": "nonpayable",
      "type": "function"
    },
    {
      "constant": true,
      "inputs": [],
      "name": "isCallerRegistered",
      "outputs": [
        {
          "internalType": "bool",
          "name": "",
          "type": "bool"
        }
      ],
      "payable": false,
      "stateMutability": "view",
      "type": "function"
    },
    {
      "constant": true,
      "inputs": [],
      "name": "getCallerId",
      "outputs": [
        {
          "internalType": "uint256",
          "name": "",
          "type": "uint256"
        }
      ],
      "payable": false,
      "stateMutability": "view",
      "type": "function"
    },
    {
      "constant": true,
      "inputs": [
        {
          "internalType": "uint256",
          "name": "_user_Id",
          "type": "uint256"
        }
      ],
      "name": "getUserAddress",
      "outputs": [
        {
          "internalType": "address",
          "name": "",
          "type": "address"
        }
      ],
      "payable": false,
      "stateMutability": "view",
      "type": "function"
    },
    {
      "constant": true,
      "inputs": [
        {
          "internalType": "uint256",
          "name": "_user_Id",
          "type": "uint256"
        },
        {
          "internalType": "uint256",
          "name": "_amount",
          "type": "uint256"
        }
      ],
      "name": "canAddressPay",
      "outputs": [
        {
          "internalType": "bool",
          "name": "",
          "type": "bool"
        }
      ],
      "payable": false,
      "stateMutability": "view",
      "type": "function"
    },
    {
      "constant": true,
      "inputs": [
        {
          "internalType": "uint256",
          "name": "_bidder_Id",
          "type": "uint256"
        }
      ],
      "name": "getBidderBids",
      "outputs": [
        {
          "internalType": "uint256[]",
          "name": "",
          "type": "uint256[]"
        }
      ],
      "payable": false,
      "stateMutability": "view",
      "type": "function"
    },
    {
      "constant": true,
      "inputs": [],
      "name": "getBlockTime",
      "outputs": [
        {
          "internalType": "uint256",
          "name": "",
          "type": "uint256"
        }
      ],
      "payable": false,
      "stateMutability": "view",
      "type": "function"
    },
    {
      "constant": false,
      "inputs": [
        {
          "internalType": "uint256",
          "name": "_auction_Id",
          "type": "uint256"
        }
      ],
      "name": "getAuctionStatus",
      "outputs": [
        {
          "internalType": "uint256",
          "name": "",
          "type": "uint256"
        }
      ],
      "payable": false,
      "stateMutability": "nonpayable",
      "type": "function"
    },
    {
      "constant": false,
      "inputs": [
        {
          "internalType": "uint256",
          "name": "_publication_Id",
          "type": "uint256"
        },
        {
          "internalType": "uint256",
          "name": "_newStartTime",
          "type": "uint256"
        }
      ],
      "name": "updateAuctionStartTime",
      "outputs": [],
      "payable": false,
      "stateMutability": "nonpayable",
      "type": "function"
    },
    {
      "constant": true,
      "inputs": [
        {
          "internalType": "uint256",
          "name": "_publication_Id",
          "type": "uint256"
        }
      ],
      "name": "getPublicationBids",
      "outputs": [
        {
          "internalType": "uint256[]",
          "name": "",
          "type": "uint256[]"
        }
      ],
      "payable": false,
      "stateMutability": "view",
      "type": "function"
    },
    {
      "constant": true,
      "inputs": [
        {
          "internalType": "uint256",
          "name": "_bid_Id",
          "type": "uint256"
        }
      ],
      "name": "getBid",
      "outputs": [
        {
          "internalType": "bytes32",
          "name": "",
          "type": "bytes32"
        },
        {
          "internalType": "uint256",
          "name": "",
          "type": "uint256"
        },
        {
          "internalType": "uint256",
          "name": "",
          "type": "uint256"
        },
        {
          "internalType": "uint8",
          "name": "",
          "type": "uint8"
        },
        {
          "internalType": "uint256",
          "name": "",
          "type": "uint256"
        },
        {
          "internalType": "uint256",
          "name": "",
          "type": "uint256"
        },
        {
          "internalType": "uint256",
          "name": "",
          "type": "uint256"
        }
      ],
      "payable": false,
      "stateMutability": "view",
      "type": "function"
    },
    {
      "constant": true,
      "inputs": [
        {
          "internalType": "uint256",
          "name": "_publication_Id",
          "type": "uint256"
        }
      ],
      "name": "getPublicationAuctionBidLength",
      "outputs": [
        {
          "internalType": "uint256",
          "name": "",
          "type": "uint256"
        }
      ],
      "payable": false,
      "stateMutability": "view",
      "type": "function"
    },
    {
      "constant": true,
      "inputs": [
        {
          "internalType": "uint256",
          "name": "tokenId",
          "type": "uint256"
        }
      ],
      "name": "ownerOf",
      "outputs": [
        {
          "internalType": "address",
          "name": "",
          "type": "address"
        }
      ],
      "payable": false,
      "stateMutability": "view",
      "type": "function"
    }
  ],
  "bytecode": "0x60806040526167f7806100136000396000f3fe608060405234801561001057600080fd5b506004361061023d5760003560e01c80637765c52c1161013b578063a564e83c116100b8578063e06e0e221161007c578063e06e0e2214611362578063e8083863146113fb578063ec297be61461143d578063fbd9d2eb14611475578063ff42e879146114f85761023d565b8063a564e83c14610f6a578063a8020ee714611112578063ad61ccd5146111ab578063b3208f121461122e578063cc2a9a5b1461127e5761023d565b806387ceff09116100ff57806387ceff0914610d8a578063897f1e4a14610da857806390d976e214610e2b5780639ae001ff14610e995780639dccae8214610ed15761023d565b80637765c52c14610ad25780637ece03bb14610b1457806380274db714610b325780638129fc1c14610bbf57806383947ea014610bc95761023d565b80632cedebee116101c9578063522b0e231161018d578063522b0e23146108a65780635bc2ff78146109295780636352211e1461094b578063704f1b94146109b957806374e861d614610a885761023d565b80632cedebee146106795780633c889e6f146106d65780633e7646041461074857806346ac9a36146107cb57806351a353491461080d5761023d565b806313af40351161021057806313af40351461031157806314b37f58146103555780631aa5b7e914610578578063207f2937146105965780632207fc6a146106195761023d565b806304686b4a146102425780630cdd53f61461024c57806311fcd546146102845780631220e2ff14610307575b600080fd5b61024a61153a565b005b6102826004803603604081101561026257600080fd5b81019080803590602001909291908035906020019092919050505061153c565b005b6102b06004803603602081101561029a57600080fd5b8101908080359060200190929190505050611c34565b6040518080602001828103825283818151815260200191508051906020019060200280838360005b838110156102f35780820151818401526020810190506102d8565b505050509050019250505060405180910390f35b61030f611d85565b005b6103536004803603602081101561032757600080fd5b81019080803573ffffffffffffffffffffffffffffffffffffffff169060200190929190505050611da4565b005b610576600480360361012081101561036c57600080fd5b81019080803560ff1690602001909291908035906020019064010000000081111561039657600080fd5b8201836020820111156103a857600080fd5b803590602001918460018302840111640100000000831117156103ca57600080fd5b91908080601f016020809104026020016040519081016040528093929190818152602001838380828437600081840152601f19601f82011690508083019250505050505050919291929080359060200190929190803590602001909291908035906020019092919080359060200190929190803590602001909291908035906020019064010000000081111561045f57600080fd5b82018360208201111561047157600080fd5b8035906020019184602083028401116401000000008311171561049357600080fd5b919080806020026020016040519081016040528093929190818152602001838360200280828437600081840152601f19601f820116905080830192505050505050509192919290803590602001906401000000008111156104f357600080fd5b82018360208201111561050557600080fd5b8035906020019184602083028401116401000000008311171561052757600080fd5b919080806020026020016040519081016040528093929190818152602001838360200280828437600081840152601f19601f820116905080830192505050505050509192919290505050611e8e565b005b610580612264565b6040518082815260200191505060405180910390f35b6105c2600480360360208110156105ac57600080fd5b81019080803590602001909291905050506123c1565b6040518080602001828103825283818151815260200191508051906020019060200280838360005b838110156106055780820151818401526020810190506105ea565b505050509050019250505060405180910390f35b6106636004803603608081101561062f57600080fd5b8101908080359060200190929190803590602001909291908035906020019092919080359060200190929190505050612512565b6040518082815260200191505060405180910390f35b6106a56004803603602081101561068f57600080fd5b8101908080359060200190929190505050612688565b604051808581526020018481526020018381526020018260ff1660ff16815260200194505050505060405180910390f35b610702600480360360208110156106ec57600080fd5b8101908080359060200190929190505050612769565b604051808881526020018781526020018681526020018560ff1660ff16815260200184815260200183815260200182815260200197505050505050505060405180910390f35b6107746004803603602081101561075e57600080fd5b8101908080359060200190929190505050612877565b6040518080602001828103825283818151815260200191508051906020019060200280838360005b838110156107b757808201518184015260208101905061079c565b505050509050019250505060405180910390f35b6107f7600480360360208110156107e157600080fd5b8101908080359060200190929190505050612a7b565b6040518082815260200191505060405180910390f35b61084f6004803603602081101561082357600080fd5b81019080803573ffffffffffffffffffffffffffffffffffffffff169060200190929190505050613877565b6040518080602001828103825283818151815260200191508051906020019060200280838360005b83811015610892578082015181840152602081019050610877565b505050509050019250505060405180910390f35b6108d2600480360360208110156108bc57600080fd5b8101908080359060200190929190505050613aa7565b6040518080602001828103825283818151815260200191508051906020019060200280838360005b838110156109155780820151818401526020810190506108fa565b505050509050019250505060405180910390f35b610931613bf8565b604051808215151515815260200191505060405180910390f35b6109776004803603602081101561096157600080fd5b8101908080359060200190929190505050613cd9565b604051808273ffffffffffffffffffffffffffffffffffffffff1673ffffffffffffffffffffffffffffffffffffffff16815260200191505060405180910390f35b610a72600480360360208110156109cf57600080fd5b81019080803590602001906401000000008111156109ec57600080fd5b8201836020820111156109fe57600080fd5b80359060200191846001830284011164010000000083111715610a2057600080fd5b91908080601f016020809104026020016040519081016040528093929190818152602001838380828437600081840152601f19601f820116905080830192505050505050509192919290505050613d90565b6040518082815260200191505060405180910390f35b610a90613ee7565b604051808273ffffffffffffffffffffffffffffffffffffffff1673ffffffffffffffffffffffffffffffffffffffff16815260200191505060405180910390f35b610afe60048036036020811015610ae857600080fd5b8101908080359060200190929190505050613f11565b6040518082815260200191505060405180910390f35b610b1c613fd5565b6040518082815260200191505060405180910390f35b610ba960048036036020811015610b4857600080fd5b8101908080359060200190640100000000811115610b6557600080fd5b820183602082011115610b7757600080fd5b80359060200191846001830284011164010000000083111715610b9957600080fd5b909192939192939050505061407f565b6040518082815260200191505060405180910390f35b610bc7614161565b005b610d086004803603610120811015610be057600080fd5b81019080803573ffffffffffffffffffffffffffffffffffffffff169060200190929190803573ffffffffffffffffffffffffffffffffffffffff16906020019092919080359060200190640100000000811115610c3d57600080fd5b820183602082011115610c4f57600080fd5b80359060200191846001830284011164010000000083111715610c7157600080fd5b90919293919293908035906020019092919080359060200190929190803590602001909291908035906020019092919080359060200190640100000000811115610cba57600080fd5b820183602082011115610ccc57600080fd5b80359060200191846001830284011164010000000083111715610cee57600080fd5b9091929391929390803590602001909291905050506142c0565b6040518083815260200180602001828103825283818151815260200191508051906020019080838360005b83811015610d4e578082015181840152602081019050610d33565b50505050905090810190601f168015610d7b5780820380516001836020036101000a031916815260200191505b50935050505060405180910390f35b610d926142e0565b6040518082815260200191505060405180910390f35b610dd460048036036020811015610dbe57600080fd5b81019080803590602001909291905050506142e8565b6040518080602001828103825283818151815260200191508051906020019060200280838360005b83811015610e17578082015181840152602081019050610dfc565b505050509050019250505060405180910390f35b610e5760048036036020811015610e4157600080fd5b8101908080359060200190929190505050614439565b604051808273ffffffffffffffffffffffffffffffffffffffff1673ffffffffffffffffffffffffffffffffffffffff16815260200191505060405180910390f35b610ecf60048036036040811015610eaf57600080fd5b8101908080359060200190929190803590602001909291905050506144f0565b005b610f1360048036036020811015610ee757600080fd5b81019080803573ffffffffffffffffffffffffffffffffffffffff16906020019092919050505061474e565b6040518080602001828103825283818151815260200191508051906020019060200280838360005b83811015610f56578082015181840152602081019050610f3b565b505050509050019250505060405180910390f35b610f9660048036036020811015610f8057600080fd5b810190808035906020019092919050505061497e565b604051808a60ff1660ff1681526020018060200189815260200188815260200187815260200186815260200180602001806020018060200185810385528d818151815260200191508051906020019080838360005b83811015611006578082015181840152602081019050610feb565b50505050905090810190601f1680156110335780820380516001836020036101000a031916815260200191505b50858103845288818151815260200191508051906020019060200280838360005b8381101561106f578082015181840152602081019050611054565b50505050905001858103835287818151815260200191508051906020019060200280838360005b838110156110b1578082015181840152602081019050611096565b50505050905001858103825286818151815260200191508051906020019060200280838360005b838110156110f35780820151818401526020810190506110d8565b505050509050019d505050505050505050505050505060405180910390f35b6111546004803603602081101561112857600080fd5b81019080803573ffffffffffffffffffffffffffffffffffffffff169060200190929190505050614d04565b6040518080602001828103825283818151815260200191508051906020019060200280838360005b8381101561119757808201518184015260208101905061117c565b505050509050019250505060405180910390f35b6111b3614df5565b6040518080602001828103825283818151815260200191508051906020019080838360005b838110156111f35780820151818401526020810190506111d8565b50505050905090810190601f1680156112205780820380516001836020036101000a031916815260200191505b509250505060405180910390f35b6112646004803603604081101561124457600080fd5b810190808035906020019092919080359060200190929190505050614e32565b604051808215151515815260200191505060405180910390f35b611360600480360360c081101561129457600080fd5b81019080803573ffffffffffffffffffffffffffffffffffffffff169060200190929190803573ffffffffffffffffffffffffffffffffffffffff169060200190929190803573ffffffffffffffffffffffffffffffffffffffff169060200190929190803573ffffffffffffffffffffffffffffffffffffffff169060200190929190803573ffffffffffffffffffffffffffffffffffffffff169060200190929190803573ffffffffffffffffffffffffffffffffffffffff169060200190929190505050614f2b565b005b6113f96004803603608081101561137857600080fd5b810190808035906020019064010000000081111561139557600080fd5b8201836020820111156113a757600080fd5b803590602001918460018302840111640100000000831117156113c957600080fd5b909192939192939080351515906020019092919080359060200190929190803590602001909291905050506151ff565b005b6114276004803603602081101561141157600080fd5b81019080803590602001909291905050506152e1565b6040518082815260200191505060405180910390f35b6114736004803603604081101561145357600080fd5b810190808035906020019092919080359060200190929190505050615ff0565b005b6114a16004803603602081101561148b57600080fd5b8101908080359060200190929190505050616175565b6040518080602001828103825283818151815260200191508051906020019060200280838360005b838110156114e45780820151818401526020810190506114c9565b505050509050019250505060405180910390f35b6115246004803603602081101561150e57600080fd5b81019080803590602001909291905050506162c6565b6040518082815260200191505060405180910390f35b565b6000603760009054906101000a900473ffffffffffffffffffffffffffffffffffffffff1673ffffffffffffffffffffffffffffffffffffffff166310a6d0d5846040518263ffffffff1660e01b81526004018082815260200191505060206040518083038186803b1580156115b157600080fd5b505afa1580156115c5573d6000803e3d6000fd5b505050506040513d60208110156115db57600080fd5b810190808051906020019092919050505090506000603860009054906101000a900473ffffffffffffffffffffffffffffffffffffffff1673ffffffffffffffffffffffffffffffffffffffff166390d976e2836040518263ffffffff1660e01b81526004018082815260200191505060206040518083038186803b15801561166357600080fd5b505afa158015611677573d6000803e3d6000fd5b505050506040513d602081101561168d57600080fd5b81019080805190602001909291905050509050606080603760009054906101000a900473ffffffffffffffffffffffffffffffffffffffff1673ffffffffffffffffffffffffffffffffffffffff16639d273ddc876040518263ffffffff1660e01b81526004018082815260200191505060006040518083038186803b15801561171657600080fd5b505afa15801561172a573d6000803e3d6000fd5b505050506040513d6000823e3d601f19601f82011682018060405250604081101561175457600080fd5b810190808051604051939291908464010000000082111561177457600080fd5b8382019150602082018581111561178a57600080fd5b82518660208202830111640100000000821117156117a757600080fd5b8083526020830192505050908051906020019060200280838360005b838110156117de5780820151818401526020810190506117c3565b505050509050016040526020018051604051939291908464010000000082111561180757600080fd5b8382019150602082018581111561181d57600080fd5b825186602082028301116401000000008211171561183a57600080fd5b8083526020830192505050908051906020019060200280838360005b83811015611871578082015181840152602081019050611856565b50505050905001604052505050915091506060603860009054906101000a900473ffffffffffffffffffffffffffffffffffffffff1673ffffffffffffffffffffffffffffffffffffffff16637f4f2e84846040518263ffffffff1660e01b81526004018080602001828103825283818151815260200191508051906020019060200280838360005b838110156119155780820151818401526020810190506118fa565b505050509050019250505060006040518083038186803b15801561193857600080fd5b505afa15801561194c573d6000803e3d6000fd5b505050506040513d6000823e3d601f19601f82011682018060405250602081101561197657600080fd5b810190808051604051939291908464010000000082111561199657600080fd5b838201915060208201858111156119ac57600080fd5b82518660208202830111640100000000821117156119c957600080fd5b8083526020830192505050908051906020019060200280838360005b83811015611a005780820151818401526020810190506119e5565b505050509050016040525050509050603a60009054906101000a900473ffffffffffffffffffffffffffffffffffffffff1673ffffffffffffffffffffffffffffffffffffffff1663841aee53338684868b6040518663ffffffff1660e01b8152600401808673ffffffffffffffffffffffffffffffffffffffff1673ffffffffffffffffffffffffffffffffffffffff1681526020018573ffffffffffffffffffffffffffffffffffffffff1673ffffffffffffffffffffffffffffffffffffffff1681526020018060200180602001848152602001838103835286818151815260200191508051906020019060200280838360005b83811015611b12578082015181840152602081019050611af7565b50505050905001838103825285818151815260200191508051906020019060200280838360005b83811015611b54578082015181840152602081019050611b39565b50505050905001975050505050505050602060405180830381600087803b158015611b7e57600080fd5b505af1158015611b92573d6000803e3d6000fd5b505050506040513d6020811015611ba857600080fd5b8101908080519060200190929190505050611c2b576040517f08c379a000000000000000000000000000000000000000000000000000000000815260040180806020018281038252601e8152602001807f42756c6b2061756374696f6e20736574746c656d656e74206661696c6564000081525060200191505060405180910390fd5b50505050505050565b6060603760009054906101000a900473ffffffffffffffffffffffffffffffffffffffff1673ffffffffffffffffffffffffffffffffffffffff1663f88e44a3836040518263ffffffff1660e01b81526004018082815260200191505060006040518083038186803b158015611ca957600080fd5b505afa158015611cbd573d6000803e3d6000fd5b505050506040513d6000823e3d601f19601f820116820180604052506020811015611ce757600080fd5b8101908080516040519392919084640100000000821115611d0757600080fd5b83820191506020820185811115611d1d57600080fd5b8251866020820283011164010000000082111715611d3a57600080fd5b8083526020830192505050908051906020019060200280838360005b83811015611d71578082015181840152602081019050611d56565b505050509050016040525050509050919050565b611da273d216153c06e857cd7f72665e0af1d7d82172f49461642f565b565b3373ffffffffffffffffffffffffffffffffffffffff16603460009054906101000a900473ffffffffffffffffffffffffffffffffffffffff1673ffffffffffffffffffffffffffffffffffffffff1614611e4a576040517f08c379a000000000000000000000000000000000000000000000000000000000815260040180806020018281038252602781526020018061673b6027913960400191505060405180910390fd5b80603460006101000a81548173ffffffffffffffffffffffffffffffffffffffff021916908373ffffffffffffffffffffffffffffffffffffffff16021790555050565b611e96613bf8565b611eeb576040517f08c379a00000000000000000000000000000000000000000000000000000000081526004018080602001828103825260338152602001806166536033913960400191505060405180910390fd5b6000611ef5612264565b90506000603760009054906101000a900473ffffffffffffffffffffffffffffffffffffffff1673ffffffffffffffffffffffffffffffffffffffff1663497e192e8c8c858a8a8a8a6040518863ffffffff1660e01b8152600401808860ff1660ff16815260200180602001878152602001868152602001858152602001806020018060200184810384528a818151815260200191508051906020019080838360005b83811015611fb3578082015181840152602081019050611f98565b50505050905090810190601f168015611fe05780820380516001836020036101000a031916815260200191505b50848103835286818151815260200191508051906020019060200280838360005b8381101561201c578082015181840152602081019050612001565b50505050905001848103825285818151815260200191508051906020019060200280838360005b8381101561205e578082015181840152602081019050612043565b505050509050019a5050505050505050505050602060405180830381600087803b15801561208b57600080fd5b505af115801561209f573d6000803e3d6000fd5b505050506040513d60208110156120b557600080fd5b81019080805190602001909291905050509050600160028111156120d557fe5b8b60ff1660028111156120e457fe5b60028111156120ef57fe5b14612257576000603560009054906101000a900473ffffffffffffffffffffffffffffffffffffffff1673ffffffffffffffffffffffffffffffffffffffff1663b8f4e5a5838c8c8c6040518563ffffffff1660e01b815260040180858152602001848152602001838152602001828152602001945050505050602060405180830381600087803b15801561218357600080fd5b505af1158015612197573d6000803e3d6000fd5b505050506040513d60208110156121ad57600080fd5b81019080805190602001909291905050509050603760009054906101000a900473ffffffffffffffffffffffffffffffffffffffff1673ffffffffffffffffffffffffffffffffffffffff1663f8290cde83836040518363ffffffff1660e01b81526004018083815260200182815260200192505050600060405180830381600087803b15801561223d57600080fd5b505af1158015612251573d6000803e3d6000fd5b50505050505b5050505050505050505050565b600080603860009054906101000a900473ffffffffffffffffffffffffffffffffffffffff1673ffffffffffffffffffffffffffffffffffffffff16632b956ff7336040518263ffffffff1660e01b8152600401808273ffffffffffffffffffffffffffffffffffffffff1673ffffffffffffffffffffffffffffffffffffffff16815260200191505060206040518083038186803b15801561230657600080fd5b505afa15801561231a573d6000803e3d6000fd5b505050506040513d602081101561233057600080fd5b8101908080519060200190929190505050905060008114156123ba576040517f08c379a00000000000000000000000000000000000000000000000000000000081526004018080602001828103825260198152602001807f43616c6c6572206973206e6f742072656769737465726564210000000000000081525060200191505060405180910390fd5b8091505090565b6060603760009054906101000a900473ffffffffffffffffffffffffffffffffffffffff1673ffffffffffffffffffffffffffffffffffffffff1663207f2937836040518263ffffffff1660e01b81526004018082815260200191505060006040518083038186803b15801561243657600080fd5b505afa15801561244a573d6000803e3d6000fd5b505050506040513d6000823e3d601f19601f82011682018060405250602081101561247457600080fd5b810190808051604051939291908464010000000082111561249457600080fd5b838201915060208201858111156124aa57600080fd5b82518660208202830111640100000000821117156124c757600080fd5b8083526020830192505050908051906020019060200280838360005b838110156124fe5780820151818401526020810190506124e3565b505050509050016040525050509050919050565b600080603760009054906101000a900473ffffffffffffffffffffffffffffffffffffffff1673ffffffffffffffffffffffffffffffffffffffff16636c6167c6856040518263ffffffff1660e01b81526004018082815260200191505060206040518083038186803b15801561258857600080fd5b505afa15801561259c573d6000803e3d6000fd5b505050506040513d60208110156125b257600080fd5b8101908080519060200190929190505050905060006125cf612264565b9050603560009054906101000a900473ffffffffffffffffffffffffffffffffffffffff1673ffffffffffffffffffffffffffffffffffffffff166394d0f15e88888588866040518663ffffffff1660e01b81526004018086815260200185815260200184815260200183815260200182815260200195505050505050600060405180830381600087803b15801561266657600080fd5b505af115801561267a573d6000803e3d6000fd5b505050505050949350505050565b600080600080603660009054906101000a900473ffffffffffffffffffffffffffffffffffffffff1673ffffffffffffffffffffffffffffffffffffffff16632cedebee866040518263ffffffff1660e01b81526004018082815260200191505060806040518083038186803b15801561270157600080fd5b505afa158015612715573d6000803e3d6000fd5b505050506040513d608081101561272b57600080fd5b810190808051906020019092919080519060200190929190805190602001909291908051906020019092919050505093509350935093509193509193565b6000806000806000806000603560009054906101000a900473ffffffffffffffffffffffffffffffffffffffff1673ffffffffffffffffffffffffffffffffffffffff16633c889e6f896040518263ffffffff1660e01b81526004018082815260200191505060e06040518083038186803b1580156127e757600080fd5b505afa1580156127fb573d6000803e3d6000fd5b505050506040513d60e081101561281157600080fd5b81019080805190602001909291908051906020019092919080519060200190929190805190602001909291908051906020019092919080519060200190929190805190602001909291905050509650965096509650965096509650919395979092949650565b60606000603760009054906101000a900473ffffffffffffffffffffffffffffffffffffffff1673ffffffffffffffffffffffffffffffffffffffff16636c6167c6846040518263ffffffff1660e01b81526004018082815260200191505060206040518083038186803b1580156128ee57600080fd5b505afa158015612902573d6000803e3d6000fd5b505050506040513d602081101561291857600080fd5b81019080805190602001909291905050509050603560009054906101000a900473ffffffffffffffffffffffffffffffffffffffff1673ffffffffffffffffffffffffffffffffffffffff166370b4768e826040518263ffffffff1660e01b81526004018082815260200191505060006040518083038186803b15801561299e57600080fd5b505afa1580156129b2573d6000803e3d6000fd5b505050506040513d6000823e3d601f19601f8201168201806040525060208110156129dc57600080fd5b81019080805160405193929190846401000000008211156129fc57600080fd5b83820191506020820185811115612a1257600080fd5b8251866020820283011164010000000082111715612a2f57600080fd5b8083526020830192505050908051906020019060200280838360005b83811015612a66578082015181840152602081019050612a4b565b50505050905001604052505050915050919050565b600080603660009054906101000a900473ffffffffffffffffffffffffffffffffffffffff1673ffffffffffffffffffffffffffffffffffffffff1663fbd9d2eb846040518263ffffffff1660e01b81526004018082815260200191505060006040518083038186803b158015612af157600080fd5b505afa158015612b05573d6000803e3d6000fd5b505050506040513d6000823e3d601f19601f820116820180604052506020811015612b2f57600080fd5b8101908080516040519392919084640100000000821115612b4f57600080fd5b83820191506020820185811115612b6557600080fd5b8251866020820283011164010000000082111715612b8257600080fd5b8083526020830192505050908051906020019060200280838360005b83811015612bb9578082015181840152602081019050612b9e565b50505050905001604052505050600081518110612bd257fe5b602002602001015190506000603960009054906101000a900473ffffffffffffffffffffffffffffffffffffffff1673ffffffffffffffffffffffffffffffffffffffff1663b4c0bd9d836040518263ffffffff1660e01b81526004018082815260200191505060206040518083038186803b158015612c5157600080fd5b505afa158015612c65573d6000803e3d6000fd5b505050506040513d6020811015612c7b57600080fd5b810190808051906020019092919050505090506000603960009054906101000a900473ffffffffffffffffffffffffffffffffffffffff1673ffffffffffffffffffffffffffffffffffffffff16638a226e32836040518263ffffffff1660e01b81526004018082815260200191505060206040518083038186803b158015612d0357600080fd5b505afa158015612d17573d6000803e3d6000fd5b505050506040513d6020811015612d2d57600080fd5b810190808051906020019092919050505090506000603660009054906101000a900473ffffffffffffffffffffffffffffffffffffffff1673ffffffffffffffffffffffffffffffffffffffff16636352211e856040518263ffffffff1660e01b81526004018082815260200191505060206040518083038186803b158015612db557600080fd5b505afa158015612dc9573d6000803e3d6000fd5b505050506040513d6020811015612ddf57600080fd5b810190808051906020019092919050505090506000603a60009054906101000a900473ffffffffffffffffffffffffffffffffffffffff1673ffffffffffffffffffffffffffffffffffffffff16637a3e00cd83856040518363ffffffff1660e01b8152600401808373ffffffffffffffffffffffffffffffffffffffff1673ffffffffffffffffffffffffffffffffffffffff1681526020018281526020019250505060206040518083038186803b158015612e9b57600080fd5b505afa158015612eaf573d6000803e3d6000fd5b505050506040513d6020811015612ec557600080fd5b8101908080519060200190929190505050905080156135c2576000603760009054906101000a900473ffffffffffffffffffffffffffffffffffffffff1673ffffffffffffffffffffffffffffffffffffffff166310a6d0d5896040518263ffffffff1660e01b81526004018082815260200191505060206040518083038186803b158015612f5357600080fd5b505afa158015612f67573d6000803e3d6000fd5b505050506040513d6020811015612f7d57600080fd5b810190808051906020019092919050505090506000603860009054906101000a900473ffffffffffffffffffffffffffffffffffffffff1673ffffffffffffffffffffffffffffffffffffffff166390d976e2836040518263ffffffff1660e01b81526004018082815260200191505060206040518083038186803b15801561300557600080fd5b505afa158015613019573d6000803e3d6000fd5b505050506040513d602081101561302f57600080fd5b81019080805190602001909291905050509050606080603760009054906101000a900473ffffffffffffffffffffffffffffffffffffffff1673ffffffffffffffffffffffffffffffffffffffff16639d273ddc8c6040518263ffffffff1660e01b81526004018082815260200191505060006040518083038186803b1580156130b857600080fd5b505afa1580156130cc573d6000803e3d6000fd5b505050506040513d6000823e3d601f19601f8201168201806040525060408110156130f657600080fd5b810190808051604051939291908464010000000082111561311657600080fd5b8382019150602082018581111561312c57600080fd5b825186602082028301116401000000008211171561314957600080fd5b8083526020830192505050908051906020019060200280838360005b83811015613180578082015181840152602081019050613165565b50505050905001604052602001805160405193929190846401000000008211156131a957600080fd5b838201915060208201858111156131bf57600080fd5b82518660208202830111640100000000821117156131dc57600080fd5b8083526020830192505050908051906020019060200280838360005b838110156132135780820151818401526020810190506131f8565b50505050905001604052505050915091506060603860009054906101000a900473ffffffffffffffffffffffffffffffffffffffff1673ffffffffffffffffffffffffffffffffffffffff16637f4f2e84846040518263ffffffff1660e01b81526004018080602001828103825283818151815260200191508051906020019060200280838360005b838110156132b757808201518184015260208101905061329c565b505050509050019250505060006040518083038186803b1580156132da57600080fd5b505afa1580156132ee573d6000803e3d6000fd5b505050506040513d6000823e3d601f19601f82011682018060405250602081101561331857600080fd5b810190808051604051939291908464010000000082111561333857600080fd5b8382019150602082018581111561334e57600080fd5b825186602082028301116401000000008211171561336b57600080fd5b8083526020830192505050908051906020019060200280838360005b838110156133a2578082015181840152602081019050613387565b505050509050016040525050509050603a60009054906101000a900473ffffffffffffffffffffffffffffffffffffffff1673ffffffffffffffffffffffffffffffffffffffff1663841aee53888684868d6040518663ffffffff1660e01b8152600401808673ffffffffffffffffffffffffffffffffffffffff1673ffffffffffffffffffffffffffffffffffffffff1681526020018573ffffffffffffffffffffffffffffffffffffffff1673ffffffffffffffffffffffffffffffffffffffff1681526020018060200180602001848152602001838103835286818151815260200191508051906020019060200280838360005b838110156134b4578082015181840152602081019050613499565b50505050905001838103825285818151815260200191508051906020019060200280838360005b838110156134f65780820151818401526020810190506134db565b50505050905001975050505050505050602060405180830381600087803b15801561352057600080fd5b505af1158015613534573d6000803e3d6000fd5b505050506040513d602081101561354a57600080fd5b81019080805190602001909291905050506135b0576040517f08c379a000000000000000000000000000000000000000000000000000000000815260040180806020018281038252603d815260200180616786603d913960400191505060405180910390fd5b879a5050505050505050505050613872565b8061386c57603660009054906101000a900473ffffffffffffffffffffffffffffffffffffffff1673ffffffffffffffffffffffffffffffffffffffff16633a7ae75d866040518263ffffffff1660e01b815260040180828152602001915050600060405180830381600087803b15801561363c57600080fd5b505af1158015613650573d6000803e3d6000fd5b50505050603760009054906101000a900473ffffffffffffffffffffffffffffffffffffffff1673ffffffffffffffffffffffffffffffffffffffff16633a7ae75d886040518263ffffffff1660e01b815260040180828152602001915050602060405180830381600087803b1580156136c957600080fd5b505af11580156136dd573d6000803e3d6000fd5b505050506040513d60208110156136f357600080fd5b8101908080519060200190929190505050506000603560009054906101000a900473ffffffffffffffffffffffffffffffffffffffff1673ffffffffffffffffffffffffffffffffffffffff1663b8f4e5a58960004262278d006040518563ffffffff1660e01b815260040180858152602001848152602001838152602001828152602001945050505050602060405180830381600087803b15801561379857600080fd5b505af11580156137ac573d6000803e3d6000fd5b505050506040513d60208110156137c257600080fd5b81019080805190602001909291905050509050603760009054906101000a900473ffffffffffffffffffffffffffffffffffffffff1673ffffffffffffffffffffffffffffffffffffffff1663f8290cde89836040518363ffffffff1660e01b81526004018083815260200182815260200192505050600060405180830381600087803b15801561385257600080fd5b505af1158015613866573d6000803e3d6000fd5b50505050505b50505050505b919050565b60606000603860009054906101000a900473ffffffffffffffffffffffffffffffffffffffff1673ffffffffffffffffffffffffffffffffffffffff16632b956ff7846040518263ffffffff1660e01b8152600401808273ffffffffffffffffffffffffffffffffffffffff1673ffffffffffffffffffffffffffffffffffffffff16815260200191505060206040518083038186803b15801561391a57600080fd5b505afa15801561392e573d6000803e3d6000fd5b505050506040513d602081101561394457600080fd5b81019080805190602001909291905050509050603760009054906101000a900473ffffffffffffffffffffffffffffffffffffffff1673ffffffffffffffffffffffffffffffffffffffff1663f88e44a3826040518263ffffffff1660e01b81526004018082815260200191505060006040518083038186803b1580156139ca57600080fd5b505afa1580156139de573d6000803e3d6000fd5b505050506040513d6000823e3d601f19601f820116820180604052506020811015613a0857600080fd5b8101908080516040519392919084640100000000821115613a2857600080fd5b83820191506020820185811115613a3e57600080fd5b8251866020820283011164010000000082111715613a5b57600080fd5b8083526020830192505050908051906020019060200280838360005b83811015613a92578082015181840152602081019050613a77565b50505050905001604052505050915050919050565b6060603660009054906101000a900473ffffffffffffffffffffffffffffffffffffffff1673ffffffffffffffffffffffffffffffffffffffff16639787bb41836040518263ffffffff1660e01b81526004018082815260200191505060006040518083038186803b158015613b1c57600080fd5b505afa158015613b30573d6000803e3d6000fd5b505050506040513d6000823e3d601f19601f820116820180604052506020811015613b5a57600080fd5b8101908080516040519392919084640100000000821115613b7a57600080fd5b83820191506020820185811115613b9057600080fd5b8251866020820283011164010000000082111715613bad57600080fd5b8083526020830192505050908051906020019060200280838360005b83811015613be4578082015181840152602081019050613bc9565b505050509050016040525050509050919050565b6000603860009054906101000a900473ffffffffffffffffffffffffffffffffffffffff1673ffffffffffffffffffffffffffffffffffffffff166338b6a3a1336040518263ffffffff1660e01b8152600401808273ffffffffffffffffffffffffffffffffffffffff1673ffffffffffffffffffffffffffffffffffffffff16815260200191505060206040518083038186803b158015613c9957600080fd5b505afa158015613cad573d6000803e3d6000fd5b505050506040513d6020811015613cc357600080fd5b8101908080519060200190929190505050905090565b6000603660009054906101000a900473ffffffffffffffffffffffffffffffffffffffff1673ffffffffffffffffffffffffffffffffffffffff16636352211e836040518263ffffffff1660e01b81526004018082815260200191505060206040518083038186803b158015613d4e57600080fd5b505afa158015613d62573d6000803e3d6000fd5b505050506040513d6020811015613d7857600080fd5b81019080805190602001909291905050509050919050565b600080603860009054906101000a900473ffffffffffffffffffffffffffffffffffffffff1673ffffffffffffffffffffffffffffffffffffffff16636ec3877f84336040518363ffffffff1660e01b815260040180806020018373ffffffffffffffffffffffffffffffffffffffff1673ffffffffffffffffffffffffffffffffffffffff168152602001828103825284818151815260200191508051906020019080838360005b83811015613e54578082015181840152602081019050613e39565b50505050905090810190601f168015613e815780820380516001836020036101000a031916815260200191505b509350505050602060405180830381600087803b158015613ea157600080fd5b505af1158015613eb5573d6000803e3d6000fd5b505050506040513d6020811015613ecb57600080fd5b8101908080519060200190929190505050905080915050919050565b6000603360009054906101000a900473ffffffffffffffffffffffffffffffffffffffff16905090565b6000603560009054906101000a900473ffffffffffffffffffffffffffffffffffffffff1673ffffffffffffffffffffffffffffffffffffffff16637765c52c836040518263ffffffff1660e01b815260040180828152602001915050602060405180830381600087803b158015613f8857600080fd5b505af1158015613f9c573d6000803e3d6000fd5b505050506040513d6020811015613fb257600080fd5b81019080805190602001909291905050506003811115613fce57fe5b9050919050565b6000603760009054906101000a900473ffffffffffffffffffffffffffffffffffffffff1673ffffffffffffffffffffffffffffffffffffffff16637ece03bb6040518163ffffffff1660e01b815260040160206040518083038186803b15801561403f57600080fd5b505afa158015614053573d6000803e3d6000fd5b505050506040513d602081101561406957600080fd5b8101908080519060200190929190505050905090565b6000614089613ee7565b73ffffffffffffffffffffffffffffffffffffffff163373ffffffffffffffffffffffffffffffffffffffff161461410c576040517f08c379a00000000000000000000000000000000000000000000000000000000081526004018080602001828103825260248152602001806167626024913960400191505060405180910390fd5b61415983838080601f016020809104026020016040519081016040528093929190818152602001838380828437600081840152601f19601f82011690508083019250505050505050616600565b905092915050565b600060019054906101000a900460ff1680614180575061417f616607565b5b8061419757506000809054906101000a900460ff16155b6141ec576040517f08c379a000000000000000000000000000000000000000000000000000000000815260040180806020018281038252602e8152602001806166e0602e913960400191505060405180910390fd5b60008060019054906101000a900460ff16159050801561423c576001600060016101000a81548160ff02191690831515021790555060016000806101000a81548160ff0219169083151502179055505b600073ffffffffffffffffffffffffffffffffffffffff16603360009054906101000a900473ffffffffffffffffffffffffffffffffffffffff1673ffffffffffffffffffffffffffffffffffffffff16141561429c5761429b611d85565b5b80156142bd5760008060016101000a81548160ff0219169083151502179055505b50565b600060606142cc616618565b915091509b509b9950505050505050505050565b600042905090565b6060603560009054906101000a900473ffffffffffffffffffffffffffffffffffffffff1673ffffffffffffffffffffffffffffffffffffffff1663897f1e4a836040518263ffffffff1660e01b81526004018082815260200191505060006040518083038186803b15801561435d57600080fd5b505afa158015614371573d6000803e3d6000fd5b505050506040513d6000823e3d601f19601f82011682018060405250602081101561439b57600080fd5b81019080805160405193929190846401000000008211156143bb57600080fd5b838201915060208201858111156143d157600080fd5b82518660208202830111640100000000821117156143ee57600080fd5b8083526020830192505050908051906020019060200280838360005b8381101561442557808201518184015260208101905061440a565b505050509050016040525050509050919050565b6000603860009054906101000a900473ffffffffffffffffffffffffffffffffffffffff1673ffffffffffffffffffffffffffffffffffffffff166390d976e2836040518263ffffffff1660e01b81526004018082815260200191505060206040518083038186803b1580156144ae57600080fd5b505afa1580156144c2573d6000803e3d6000fd5b505050506040513d60208110156144d857600080fd5b81019080805190602001909291905050509050919050565b60006144fa612264565b9050603760009054906101000a900473ffffffffffffffffffffffffffffffffffffffff1673ffffffffffffffffffffffffffffffffffffffff166310a6d0d5846040518263ffffffff1660e01b81526004018082815260200191505060206040518083038186803b15801561456f57600080fd5b505afa158015614583573d6000803e3d6000fd5b505050506040513d602081101561459957600080fd5b81019080805190602001909291905050508114614601576040517f08c379a000000000000000000000000000000000000000000000000000000000815260040180806020018281038252602c8152602001806166b4602c913960400191505060405180910390fd5b6000603760009054906101000a900473ffffffffffffffffffffffffffffffffffffffff1673ffffffffffffffffffffffffffffffffffffffff16636c6167c6856040518263ffffffff1660e01b81526004018082815260200191505060206040518083038186803b15801561467657600080fd5b505afa15801561468a573d6000803e3d6000fd5b505050506040513d60208110156146a057600080fd5b81019080805190602001909291905050509050603560009054906101000a900473ffffffffffffffffffffffffffffffffffffffff1673ffffffffffffffffffffffffffffffffffffffff16639ae001ff82856040518363ffffffff1660e01b81526004018083815260200182815260200192505050600060405180830381600087803b15801561473057600080fd5b505af1158015614744573d6000803e3d6000fd5b5050505050505050565b60606000603860009054906101000a900473ffffffffffffffffffffffffffffffffffffffff1673ffffffffffffffffffffffffffffffffffffffff16632b956ff7846040518263ffffffff1660e01b8152600401808273ffffffffffffffffffffffffffffffffffffffff1673ffffffffffffffffffffffffffffffffffffffff16815260200191505060206040518083038186803b1580156147f157600080fd5b505afa158015614805573d6000803e3d6000fd5b505050506040513d602081101561481b57600080fd5b81019080805190602001909291905050509050603560009054906101000a900473ffffffffffffffffffffffffffffffffffffffff1673ffffffffffffffffffffffffffffffffffffffff1663897f1e4a826040518263ffffffff1660e01b81526004018082815260200191505060006040518083038186803b1580156148a157600080fd5b505afa1580156148b5573d6000803e3d6000fd5b505050506040513d6000823e3d601f19601f8201168201806040525060208110156148df57600080fd5b81019080805160405193929190846401000000008211156148ff57600080fd5b8382019150602082018581111561491557600080fd5b825186602082028301116401000000008211171561493257600080fd5b8083526020830192505050908051906020019060200280838360005b8381101561496957808201518184015260208101905061494e565b50505050905001604052505050915050919050565b600060606000806000806060806060603760009054906101000a900473ffffffffffffffffffffffffffffffffffffffff1673ffffffffffffffffffffffffffffffffffffffff1663a564e83c8b6040518263ffffffff1660e01b81526004018082815260200191505060006040518083038186803b158015614a0057600080fd5b505afa158015614a14573d6000803e3d6000fd5b505050506040513d6000823e3d601f19601f82011682018060405250610120811015614a3f57600080fd5b810190808051906020019092919080516040519392919084640100000000821115614a6957600080fd5b83820191506020820185811115614a7f57600080fd5b8251866001820283011164010000000082111715614a9c57600080fd5b8083526020830192505050908051906020019080838360005b83811015614ad0578082015181840152602081019050614ab5565b50505050905090810190601f168015614afd5780820380516001836020036101000a031916815260200191505b506040526020018051906020019092919080519060200190929190805190602001909291908051906020019092919080516040519392919084640100000000821115614b4857600080fd5b83820191506020820185811115614b5e57600080fd5b8251866020820283011164010000000082111715614b7b57600080fd5b8083526020830192505050908051906020019060200280838360005b83811015614bb2578082015181840152602081019050614b97565b5050505090500160405260200180516040519392919084640100000000821115614bdb57600080fd5b83820191506020820185811115614bf157600080fd5b8251866020820283011164010000000082111715614c0e57600080fd5b8083526020830192505050908051906020019060200280838360005b83811015614c45578082015181840152602081019050614c2a565b5050505090500160405260200180516040519392919084640100000000821115614c6e57600080fd5b83820191506020820185811115614c8457600080fd5b8251866020820283011164010000000082111715614ca157600080fd5b8083526020830192505050908051906020019060200280838360005b83811015614cd8578082015181840152602081019050614cbd565b505050509050016040525050509850985098509850985098509850985098509193959799909294969850565b60606000603860009054906101000a900473ffffffffffffffffffffffffffffffffffffffff1673ffffffffffffffffffffffffffffffffffffffff16632b956ff7846040518263ffffffff1660e01b8152600401808273ffffffffffffffffffffffffffffffffffffffff1673ffffffffffffffffffffffffffffffffffffffff16815260200191505060206040518083038186803b158015614da757600080fd5b505afa158015614dbb573d6000803e3d6000fd5b505050506040513d6020811015614dd157600080fd5b81019080805190602001909291905050509050614ded81613aa7565b915050919050565b60606040518060400160405280600581526020017f312e302e30000000000000000000000000000000000000000000000000000000815250905090565b600080614e3e84614439565b9050603a60009054906101000a900473ffffffffffffffffffffffffffffffffffffffff1673ffffffffffffffffffffffffffffffffffffffff16637a3e00cd82856040518363ffffffff1660e01b8152600401808373ffffffffffffffffffffffffffffffffffffffff1673ffffffffffffffffffffffffffffffffffffffff1681526020018281526020019250505060206040518083038186803b158015614ee757600080fd5b505afa158015614efb573d6000803e3d6000fd5b505050506040513d6020811015614f1157600080fd5b810190808051906020019092919050505091505092915050565b600060019054906101000a900460ff1680614f4a5750614f49616607565b5b80614f6157506000809054906101000a900460ff16155b614fb6576040517f08c379a000000000000000000000000000000000000000000000000000000000815260040180806020018281038252602e8152602001806166e0602e913960400191505060405180910390fd5b60008060019054906101000a900460ff161590508015615006576001600060016101000a81548160ff02191690831515021790555060016000806101000a81548160ff0219169083151502179055505b33603460006101000a81548173ffffffffffffffffffffffffffffffffffffffff021916908373ffffffffffffffffffffffffffffffffffffffff16021790555061504f614161565b86603560006101000a81548173ffffffffffffffffffffffffffffffffffffffff021916908373ffffffffffffffffffffffffffffffffffffffff16021790555085603660006101000a81548173ffffffffffffffffffffffffffffffffffffffff021916908373ffffffffffffffffffffffffffffffffffffffff16021790555084603760006101000a81548173ffffffffffffffffffffffffffffffffffffffff021916908373ffffffffffffffffffffffffffffffffffffffff16021790555083603860006101000a81548173ffffffffffffffffffffffffffffffffffffffff021916908373ffffffffffffffffffffffffffffffffffffffff16021790555082603960006101000a81548173ffffffffffffffffffffffffffffffffffffffff021916908373ffffffffffffffffffffffffffffffffffffffff16021790555081603a60006101000a81548173ffffffffffffffffffffffffffffffffffffffff021916908373ffffffffffffffffffffffffffffffffffffffff16021790555080156151f65760008060016101000a81548160ff0219169083151502179055505b50505050505050565b615207613ee7565b73ffffffffffffffffffffffffffffffffffffffff163373ffffffffffffffffffffffffffffffffffffffff161461528a576040517f08c379a00000000000000000000000000000000000000000000000000000000081526004018080602001828103825260248152602001806167626024913960400191505060405180910390fd5b6152da85858080601f016020809104026020016040519081016040528093929190818152602001838380828437600081840152601f19601f8201169050808301925050505050505084848461663c565b5050505050565b600080600080603560009054906101000a900473ffffffffffffffffffffffffffffffffffffffff1673ffffffffffffffffffffffffffffffffffffffff1663e8083863866040518263ffffffff1660e01b815260040180828152602001915050606060405180830381600087803b15801561535c57600080fd5b505af1158015615370573d6000803e3d6000fd5b505050506040513d606081101561538657600080fd5b8101908080519060200190929190805190602001909291908051906020019092919050505092509250925060008311615427576040517f08c379a000000000000000000000000000000000000000000000000000000000815260040180806020018281038252601a8152602001807f496e76616c69642077696e6e696e672062696420616d6f756e7400000000000081525060200191505060405180910390fd5b6000821161549d576040517f08c379a00000000000000000000000000000000000000000000000000000000081526004018080602001828103825260168152602001807f496e76616c69642077696e6e696e67206269642049640000000000000000000081525060200191505060405180910390fd5b60008111615513576040517f08c379a00000000000000000000000000000000000000000000000000000000081526004018080602001828103825260168152602001807f496e76616c6964207075626c69636174696f6e2049640000000000000000000081525060200191505060405180910390fd5b6000603760009054906101000a900473ffffffffffffffffffffffffffffffffffffffff1673ffffffffffffffffffffffffffffffffffffffff166310a6d0d5836040518263ffffffff1660e01b81526004018082815260200191505060206040518083038186803b15801561558857600080fd5b505afa15801561559c573d6000803e3d6000fd5b505050506040513d60208110156155b257600080fd5b810190808051906020019092919050505090506000603860009054906101000a900473ffffffffffffffffffffffffffffffffffffffff1673ffffffffffffffffffffffffffffffffffffffff166390d976e2836040518263ffffffff1660e01b81526004018082815260200191505060206040518083038186803b15801561563a57600080fd5b505afa15801561564e573d6000803e3d6000fd5b505050506040513d602081101561566457600080fd5b810190808051906020019092919050505090506000603860009054906101000a900473ffffffffffffffffffffffffffffffffffffffff1673ffffffffffffffffffffffffffffffffffffffff166390d976e2866040518263ffffffff1660e01b81526004018082815260200191505060206040518083038186803b1580156156ec57600080fd5b505afa158015615700573d6000803e3d6000fd5b505050506040513d602081101561571657600080fd5b81019080805190602001909291905050509050606080603760009054906101000a900473ffffffffffffffffffffffffffffffffffffffff1673ffffffffffffffffffffffffffffffffffffffff16639d273ddc876040518263ffffffff1660e01b81526004018082815260200191505060006040518083038186803b15801561579f57600080fd5b505afa1580156157b3573d6000803e3d6000fd5b505050506040513d6000823e3d601f19601f8201168201806040525060408110156157dd57600080fd5b81019080805160405193929190846401000000008211156157fd57600080fd5b8382019150602082018581111561581357600080fd5b825186602082028301116401000000008211171561583057600080fd5b8083526020830192505050908051906020019060200280838360005b8381101561586757808201518184015260208101905061584c565b505050509050016040526020018051604051939291908464010000000082111561589057600080fd5b838201915060208201858111156158a657600080fd5b82518660208202830111640100000000821117156158c357600080fd5b8083526020830192505050908051906020019060200280838360005b838110156158fa5780820151818401526020810190506158df565b50505050905001604052505050915091506060603860009054906101000a900473ffffffffffffffffffffffffffffffffffffffff1673ffffffffffffffffffffffffffffffffffffffff16637f4f2e84846040518263ffffffff1660e01b81526004018080602001828103825283818151815260200191508051906020019060200280838360005b8381101561599e578082015181840152602081019050615983565b505050509050019250505060006040518083038186803b1580156159c157600080fd5b505afa1580156159d5573d6000803e3d6000fd5b505050506040513d6000823e3d601f19601f8201168201806040525060208110156159ff57600080fd5b8101908080516040519392919084640100000000821115615a1f57600080fd5b83820191506020820185811115615a3557600080fd5b8251866020820283011164010000000082111715615a5257600080fd5b8083526020830192505050908051906020019060200280838360005b83811015615a89578082015181840152602081019050615a6e565b505050509050016040525050509050603a60009054906101000a900473ffffffffffffffffffffffffffffffffffffffff1673ffffffffffffffffffffffffffffffffffffffff1663841aee53858784868e6040518663ffffffff1660e01b8152600401808673ffffffffffffffffffffffffffffffffffffffff1673ffffffffffffffffffffffffffffffffffffffff1681526020018573ffffffffffffffffffffffffffffffffffffffff1673ffffffffffffffffffffffffffffffffffffffff1681526020018060200180602001848152602001838103835286818151815260200191508051906020019060200280838360005b83811015615b9b578082015181840152602081019050615b80565b50505050905001838103825285818151815260200191508051906020019060200280838360005b83811015615bdd578082015181840152602081019050615bc2565b50505050905001975050505050505050602060405180830381600087803b158015615c0757600080fd5b505af1158015615c1b573d6000803e3d6000fd5b505050506040513d6020811015615c3157600080fd5b8101908080519060200190929190505050615cb4576040517f08c379a000000000000000000000000000000000000000000000000000000000815260040180806020018281038252601e8152602001807f42756c6b2061756374696f6e20736574746c656d656e74206661696c6564000081525060200191505060405180910390fd5b6000603760009054906101000a900473ffffffffffffffffffffffffffffffffffffffff1673ffffffffffffffffffffffffffffffffffffffff1663755f538c896040518263ffffffff1660e01b815260040180828152602001915050602060405180830381600087803b158015615d2b57600080fd5b505af1158015615d3f573d6000803e3d6000fd5b505050506040513d6020811015615d5557600080fd5b810190808051906020019092919050505090506000603660009054906101000a900473ffffffffffffffffffffffffffffffffffffffff1673ffffffffffffffffffffffffffffffffffffffff1663af5485a8878c8c866040518563ffffffff1660e01b8152600401808573ffffffffffffffffffffffffffffffffffffffff1673ffffffffffffffffffffffffffffffffffffffff168152602001848152602001838152602001828152602001945050505050602060405180830381600087803b158015615e2357600080fd5b505af1158015615e37573d6000803e3d6000fd5b505050506040513d6020811015615e4d57600080fd5b81019080805190602001909291905050509050600280811115615e6c57fe5b60ff16603760009054906101000a900473ffffffffffffffffffffffffffffffffffffffff1673ffffffffffffffffffffffffffffffffffffffff166330a966e08b6040518263ffffffff1660e01b81526004018082815260200191505060206040518083038186803b158015615ee257600080fd5b505afa158015615ef6573d6000803e3d6000fd5b505050506040513d6020811015615f0c57600080fd5b810190808051906020019092919050505060ff161415615fe057603960009054906101000a900473ffffffffffffffffffffffffffffffffffffffff1673ffffffffffffffffffffffffffffffffffffffff1663776c0248828d6040518363ffffffff1660e01b81526004018083815260200182815260200192505050602060405180830381600087803b158015615fa357600080fd5b505af1158015615fb7573d6000803e3d6000fd5b505050506040513d6020811015615fcd57600080fd5b8101908080519060200190929190505050505b5050505050505050505050919050565b6000603760009054906101000a900473ffffffffffffffffffffffffffffffffffffffff1673ffffffffffffffffffffffffffffffffffffffff16636c6167c6836040518263ffffffff1660e01b81526004018082815260200191505060206040518083038186803b15801561606557600080fd5b505afa158015616079573d6000803e3d6000fd5b505050506040513d602081101561608f57600080fd5b8101908080519060200190929190505050905060006160ac612264565b9050603560009054906101000a900473ffffffffffffffffffffffffffffffffffffffff1673ffffffffffffffffffffffffffffffffffffffff1663908e27eb8584846040518463ffffffff1660e01b8152600401808481526020018381526020018281526020019350505050602060405180830381600087803b15801561613357600080fd5b505af1158015616147573d6000803e3d6000fd5b505050506040513d602081101561615d57600080fd5b81019080805190602001909291905050505050505050565b6060603660009054906101000a900473ffffffffffffffffffffffffffffffffffffffff1673ffffffffffffffffffffffffffffffffffffffff1663fbd9d2eb836040518263ffffffff1660e01b81526004018082815260200191505060006040518083038186803b1580156161ea57600080fd5b505afa1580156161fe573d6000803e3d6000fd5b505050506040513d6000823e3d601f19601f82011682018060405250602081101561622857600080fd5b810190808051604051939291908464010000000082111561624857600080fd5b8382019150602082018581111561625e57600080fd5b825186602082028301116401000000008211171561627b57600080fd5b8083526020830192505050908051906020019060200280838360005b838110156162b2578082015181840152602081019050616297565b505050509050016040525050509050919050565b600080603760009054906101000a900473ffffffffffffffffffffffffffffffffffffffff1673ffffffffffffffffffffffffffffffffffffffff16636c6167c6846040518263ffffffff1660e01b81526004018082815260200191505060206040518083038186803b15801561633c57600080fd5b505afa158015616350573d6000803e3d6000fd5b505050506040513d602081101561636657600080fd5b81019080805190602001909291905050509050603560009054906101000a900473ffffffffffffffffffffffffffffffffffffffff1673ffffffffffffffffffffffffffffffffffffffff16637a88dece826040518263ffffffff1660e01b81526004018082815260200191505060206040518083038186803b1580156163ec57600080fd5b505afa158015616400573d6000803e3d6000fd5b505050506040513d602081101561641657600080fd5b8101908080519060200190929190505050915050919050565b6000603360009054906101000a900473ffffffffffffffffffffffffffffffffffffffff169050600073ffffffffffffffffffffffffffffffffffffffff168273ffffffffffffffffffffffffffffffffffffffff1614156164dc576040517f08c379a000000000000000000000000000000000000000000000000000000000815260040180806020018281038252602e815260200180616686602e913960400191505060405180910390fd5b8073ffffffffffffffffffffffffffffffffffffffff168273ffffffffffffffffffffffffffffffffffffffff161415616561576040517f08c379a000000000000000000000000000000000000000000000000000000000815260040180806020018281038252602d81526020018061670e602d913960400191505060405180910390fd5b8173ffffffffffffffffffffffffffffffffffffffff168173ffffffffffffffffffffffffffffffffffffffff167fb9f84b8e65164b14439ae3620df0a4d8786d896996c0282b683f9d8c08f046e860405160405180910390a381603360006101000a81548173ffffffffffffffffffffffffffffffffffffffff021916908373ffffffffffffffffffffffffffffffffffffffff1602179055505050565b6000919050565b600080303b90506000811491505090565b6000606061663460405180602001604052806000815250616642565b915091509091565b50505050565b600060606000839150915091509156fe43616e74206372656174652061207075626c69636174696f6e20696620796f7520617265206e6f74207265676973746572656447534e526563697069656e743a206e65772052656c617948756220697320746865207a65726f20616464726573734f6e6c7920746865207075626c69736865722063616e206d6f64696679207468652073746172742074696d65436f6e747261637420696e7374616e63652068617320616c7265616479206265656e20696e697469616c697a656447534e526563697069656e743a206e65772052656c6179487562206973207468652063757272656e74206f6e654f6e6c79206f776e65722063616e206368616e676520746865206f776e6572206164647265737347534e526563697069656e743a2063616c6c6572206973206e6f742052656c617948756242756c6b20686172626572676572206765745461784f626a656374285f7461784f626a6563745f4964293b20736574746c656d656e74206661696c6564a265627a7a72315820550a5a2a63ca9bcc2b949336ad40b9fc12bb6552819656e21bc03a78dbf2176a64736f6c634300050c0032",
  "source": "pragma solidity ^0.5.12;\n\n/// @title UniCoin smart contract\n/// @author Chris Maree\n\nimport \"@openzeppelin/contracts-ethereum-package/contracts/GSN/GSNRecipient.sol\";\nimport \"@openzeppelin/upgrades/contracts/Initializable.sol\";\n\nimport \"./AuctionManager.sol\";\nimport \"./LicenceManager.sol\";\nimport \"./PublicationManager.sol\";\nimport \"./UserManager.sol\";\nimport \"./Vault.sol\";\nimport \"./HarbergerTaxManager.sol\";\n\ncontract UnicoinRegistry is Initializable, GSNRecipient {\n    address owner;\n\n    AuctionManager private auctionManager;\n    LicenceManager private licenceManager;\n    PublicationManager private publicationManager;\n    UserManager private userManager;\n    HarbergerTaxManager private harbergerTaxManager;\n    Vault private vault;\n\n    enum PricingStrategy {PrivateAuction, FixedRate, PrivateAuctionHarberger}\n\n    function initialize(\n        address _auctionManager,\n        address _licenceManager,\n        address _publicationManager,\n        address _userManager,\n        address _harbergerTaxManager,\n        address _vault\n    ) public initializer {\n        owner = msg.sender;\n\n        GSNRecipient.initialize();\n\n        auctionManager = AuctionManager(_auctionManager);\n        licenceManager = LicenceManager(_licenceManager);\n        publicationManager = PublicationManager(_publicationManager);\n        userManager = UserManager(_userManager);\n        harbergerTaxManager = HarbergerTaxManager(_harbergerTaxManager);\n        vault = Vault(_vault);\n    }\n\n    // accept all requests\n    function acceptRelayedCall(\n        address,\n        address,\n        bytes calldata,\n        uint256,\n        uint256,\n        uint256,\n        uint256,\n        bytes calldata,\n        uint256\n    ) external view returns (uint256, bytes memory) {\n        return _approveRelayedCall();\n    }\n\n    function _preRelayedCall(bytes memory context) internal returns (bytes32) {\n        // solhint-disable-previous-line no-empty-blocks\n    }\n\n    function _postRelayedCall(\n        bytes memory context,\n        bool,\n        uint256 actualCharge,\n        bytes32\n    ) internal {\n        // solhint-disable-previous-line no-empty-blocks\n    }\n\n    function setOwner(address _owner) public {\n        require(owner == msg.sender, \"Only owner can change the owner address\");\n        owner = _owner;\n    }\n\n    function registerUser(string memory _profile_uri) public returns (uint256) {\n        uint256 user_Id = userManager._registerUser(_profile_uri, msg.sender);\n        return user_Id;\n    }\n    function createPublication(\n        uint8 _pricing_Strategy,\n        string memory _publication_uri,\n        uint256 _auctionFloor,\n        uint256 _auctionStartTime,\n        uint256 _auctionDuration,\n        uint256 _fixed_sell_price,\n        uint256 _maxNumberOfLicences,\n        uint256[] memory _contributors,\n        uint256[] memory _contributors_weightings\n    ) public {\n        require(\n            isCallerRegistered(),\n            \"Cant create a publication if you are not registered\"\n        );\n        uint256 author_id = getCallerId();\n        uint256 publicationId = publicationManager._createPublication(\n            _pricing_Strategy,\n            _publication_uri,\n            author_id,\n            _fixed_sell_price,\n            _maxNumberOfLicences,\n            _contributors,\n            _contributors_weightings\n        );\n\n        if (PricingStrategy(_pricing_Strategy) != PricingStrategy.FixedRate) {\n            uint256 auctionId = auctionManager._createAuction(\n                publicationId,\n                _auctionFloor,\n                _auctionStartTime,\n                _auctionDuration\n            );\n            publicationManager._addAuctionToPublication(\n                publicationId,\n                auctionId\n            );\n        }\n    }\n\n    function commitSealedBid(bytes32 _bidHash, uint256 _publication_Id) public {\n        uint256 auction_Id = publicationManager.getLatestAuctionId(\n            _publication_Id\n        );\n        uint256 bidder_Id = getCallerId();\n        auctionManager._commitSealedBid(_bidHash, auction_Id, bidder_Id);\n    }\n\n    function revealSealedBid(\n        uint256 _bid,\n        uint256 _salt,\n        uint256 _publication_Id,\n        uint256 _bid_Id\n    ) public returns (uint256) {\n        uint256 auction_Id = publicationManager.getLatestAuctionId(\n            _publication_Id\n        );\n        uint256 bidder_Id = getCallerId();\n        auctionManager.revealSealedBid(\n            _bid,\n            _salt,\n            auction_Id,\n            _bid_Id,\n            bidder_Id\n        );\n    }\n\n    function finalizeAuction(uint256 _auction_Id) public returns (uint256) {\n        (uint256 winningBidAmount, uint256 winningBiderId, uint256 publicationId) = auctionManager\n            .finalizeAuction(_auction_Id);\n\n        require(winningBidAmount > 0, \"Invalid winning bid amount\");\n        require(winningBiderId > 0, \"Invalid winning bid Id\");\n        require(publicationId > 0, \"Invalid publication Id\");\n\n        uint256 authorId = publicationManager.getAuthorId(publicationId);\n        address authorAddress = userManager.getUserAddress(authorId);\n        address winningBidderAddress = userManager.getUserAddress(\n            winningBiderId\n        );\n\n        (uint256[] memory contributorIds, uint256[] memory contributorWeightings) = publicationManager\n            ._getContributers(publicationId);\n\n        address[] memory contributorAddresses = userManager.getAddressArray(\n            contributorIds\n        );\n\n        require(\n            vault.settleBulkPayment(\n                winningBidderAddress,\n                authorAddress,\n                contributorAddresses,\n                contributorWeightings,\n                winningBidAmount\n            ),\n            \"Bulk auction settlement failed\"\n        );\n\n        uint256 publicationLicenceNo = publicationManager\n            .addNewLicenceToPublication(publicationId);\n\n        uint256 licence_Id = licenceManager.registerNewLicence(\n            winningBidderAddress,\n            winningBiderId,\n            publicationId,\n            publicationLicenceNo\n        );\n        if (\n            uint8(publicationManager.GetPublicationPricingStrategy(publicationId)) ==\n            uint8(PricingStrategy.PrivateAuctionHarberger)\n        ) {\n            harbergerTaxManager.createTaxObject(licence_Id, winningBidAmount);\n        }\n    }\n\n    function buyLicenceFixedRate() public {}\n\n    function claimHarbergerTax(uint256 _publication_Id)\n        public\n        returns (uint256)\n    {\n        uint256 licence_Id = licenceManager.getPublicationLicences(\n            _publication_Id\n        )[0];\n        uint256 taxObject_Id = harbergerTaxManager.getLicenceTaxObjectId(\n            licence_Id\n        );\n        uint256 outstandingTax = harbergerTaxManager.calculateOutstandingTax(\n            taxObject_Id\n        );\n        address licenceOwner = licenceManager.ownerOf(licence_Id);\n        bool licenceOwnerSolvent = vault.canAddressPay(\n            licenceOwner,\n            outstandingTax\n        );\n\n        if (licenceOwnerSolvent) {\n            //the licence owner can pay the tax and all contributers are paid\n            uint256 authorId = publicationManager.getAuthorId(_publication_Id);\n            address authorAddress = userManager.getUserAddress(authorId);\n            (uint256[] memory contributorIds, uint256[] memory contributorWeightings) = publicationManager\n                ._getContributers(_publication_Id);\n            address[] memory contributorAddresses = userManager.getAddressArray(\n                contributorIds\n            );\n            require(\n                vault.settleBulkPayment(\n                    licenceOwner,\n                    authorAddress,\n                    contributorAddresses,\n                    contributorWeightings,\n                    outstandingTax\n                ),\n                \"Bulk harberger getTaxObject(_taxObject_Id); settlement failed\"\n            );\n            return outstandingTax;\n        }\n        //the licence owner cant pay the tax. they loose their licence which is placed for auction again\n        if (!licenceOwnerSolvent) {\n            licenceManager.revokeLicence(licence_Id);\n            publicationManager.revokeLicence(_publication_Id);\n            uint256 auctionId = auctionManager._createAuction(\n                _publication_Id,\n                0, //auction floor\n                now, //auction start time\n                60 * 60 * 24 * 30 // one month duration for the auction\n            );\n            publicationManager._addAuctionToPublication(\n                _publication_Id,\n                auctionId\n            );\n        }\n    }\n\n    function getPublicationsAuthorAddress(address _address)\n        public\n        view\n        returns (uint256[] memory)\n    {\n        uint256 author_Id = userManager.getUserId(_address);\n        return publicationManager.getAuthorPublications(author_Id);\n    }\n\n    function getPublicationsAuthorId(uint256 _author_Id)\n        public\n        view\n        returns (uint256[] memory)\n    {\n        return publicationManager.getAuthorPublications(_author_Id);\n    }\n\n    function getPublicationLicences(uint256 _publication_Id)\n        public\n        view\n        returns (uint256[] memory)\n    {\n        return licenceManager.getPublicationLicences(_publication_Id);\n    }\n\n    function getBids(address _address) public view returns (uint256[] memory) {\n        uint256 userAddress = userManager.getUserId(_address);\n        return auctionManager.getBidderBids(userAddress);\n    }\n\n    function getPublicationAuctions(uint256 _publication_Id)\n        public\n        view\n        returns (uint256[] memory)\n    {\n        return publicationManager.getPublicationAuctions(_publication_Id);\n    }\n\n    function getPublicationLength() public view returns (uint256) {\n        return publicationManager.getPublicationLength();\n    }\n\n    function getPublication(uint256 _publication_Id)\n        public\n        view\n        returns (\n            uint8,\n            string memory,\n            uint256,\n            uint256,\n            uint256,\n            uint256,\n            uint256[] memory,\n            uint256[] memory,\n            uint256[] memory\n        )\n    {\n        return (publicationManager.getPublication(_publication_Id));\n    }\n\n    function getLicenceForAddress(address _address)\n        public\n        view\n        returns (uint256[] memory)\n    {\n        uint256 user_Id = userManager.getUserId(_address);\n        return getLicenceForUserId(user_Id);\n    }\n\n    function getLicenceForUserId(uint256 _user_Id)\n        public\n        view\n        returns (uint256[] memory)\n    {\n        return licenceManager.getLicenceForUser(_user_Id);\n    }\n\n    function getLicence(uint256 _licence_Id)\n        public\n        view\n        returns (uint256, uint256, uint256, uint8)\n    {\n        return (licenceManager.getLicence(_licence_Id));\n    }\n\n    function donate(uint256 _publication_Id, uint256 _value) public {\n        uint256 authorId = publicationManager.getAuthorId(_publication_Id);\n        address authorAddress = userManager.getUserAddress(authorId);\n\n        (uint256[] memory contributorIds, uint256[] memory contributorWeightings) = publicationManager\n            ._getContributers(_publication_Id);\n\n        address[] memory contributorAddresses = userManager.getAddressArray(\n            contributorIds\n        );\n\n        require(\n            vault.settleBulkPayment(\n                msg.sender,\n                authorAddress,\n                contributorAddresses,\n                contributorWeightings,\n                _value\n            ),\n            \"Bulk auction settlement failed\"\n        );\n    }\n\n    function isCallerRegistered() public view returns (bool) {\n        return userManager.isAddressRegistered(msg.sender);\n    }\n\n    function getCallerId() public view returns (uint256) {\n        uint256 callerId = userManager.getUserId(msg.sender);\n        require(callerId != 0, \"Caller is not registered!\");\n        return callerId;\n    }\n\n    function getUserAddress(uint256 _user_Id) public view returns (address) {\n        return userManager.getUserAddress(_user_Id);\n    }\n\n    function canAddressPay(uint256 _user_Id, uint256 _amount)\n        public\n        view\n        returns (bool)\n    {\n        address userAddress = getUserAddress(_user_Id);\n        return vault.canAddressPay(userAddress, _amount);\n    }\n\n    function getBidderBids(uint256 _bidder_Id)\n        public\n        view\n        returns (uint256[] memory)\n    {\n        return auctionManager.getBidderBids(_bidder_Id);\n    }\n\n    function getBlockTime() public view returns (uint256) {\n        return now;\n    }\n\n    function getAuctionStatus(uint256 _auction_Id) public returns (uint256) {\n        return uint256(auctionManager.getAuctionStatus(_auction_Id));\n    }\n\n    function updateAuctionStartTime(\n        uint256 _publication_Id,\n        uint256 _newStartTime\n    ) public {\n        uint256 caller_Id = getCallerId();\n        require(\n            caller_Id == publicationManager.getAuthorId(_publication_Id),\n            \"Only the publisher can modify the start time\"\n        );\n        uint256 auction_Id = publicationManager.getLatestAuctionId(\n            _publication_Id\n        );\n        auctionManager.updateAuctionStartTime(auction_Id, _newStartTime);\n    }\n\n    function getPublicationBids(uint256 _publication_Id)\n        public\n        view\n        returns (uint256[] memory)\n    {\n        uint256 auction_Id = publicationManager.getLatestAuctionId(\n            _publication_Id\n        );\n        return (auctionManager.getAuctionBids(auction_Id));\n    }\n\n    function getBid(uint256 _bid_Id)\n        public\n        view\n        returns (bytes32, uint256, uint256, uint8, uint256, uint256, uint256)\n    {\n        return (auctionManager.getBid(_bid_Id));\n    }\n\n    function getPublicationAuctionBidLength(uint256 _publication_Id)\n        public\n        view\n        returns (uint256)\n    {\n        uint256 auction_Id = publicationManager.getLatestAuctionId(\n            _publication_Id\n        );\n        return auctionManager.getNumberOfBidsInAuction(auction_Id);\n    }\n    function ownerOf(uint256 tokenId) public view returns (address) {\n        return licenceManager.ownerOf(tokenId);\n    }\n\n}\n",
  "sourcePath": "/Users/chris/Projects/unicoindapp/contracts/UnicoinRegistry.sol",
  "compiler": {
    "name": "solc",
    "version": "0.5.12+commit.7709ece9.Emscripten.clang"
  },
  "schemaVersion": "3.0.16",
  "updatedAt": "2019-12-01T06:31:39.149Z",
  "devdoc": {
    "methods": {
      "getHubAddr()": {
        "details": "Returns the address of the {IRelayHub} contract for this recipient."
      },
      "postRelayedCall(bytes,bool,uint256,bytes32)": {
        "details": "See `IRelayRecipient.postRelayedCall`.     * This function should not be overriden directly, use `_postRelayedCall` instead.     * * Requirements:     * - the caller must be the `RelayHub` contract."
      },
      "preRelayedCall(bytes)": {
        "details": "See `IRelayRecipient.preRelayedCall`.     * This function should not be overriden directly, use `_preRelayedCall` instead.     * * Requirements:     * - the caller must be the `RelayHub` contract."
      },
      "relayHubVersion()": {
        "details": "Returns the version string of the {IRelayHub} for which this recipient implementation was built. If {_upgradeRelayHub} is used, the new {IRelayHub} instance should be compatible with this version."
      }
    }
  },
  "userdoc": {
    "methods": {}
  }
}