{
  "contractName": "UnicoinRegistry",
  "abi": [
    {
      "anonymous": false,
      "inputs": [
        {
          "indexed": true,
          "internalType": "address",
          "name": "oldRelayHub",
          "type": "address"
        },
        {
          "indexed": true,
          "internalType": "address",
          "name": "newRelayHub",
          "type": "address"
        }
      ],
      "name": "RelayHubChanged",
      "type": "event"
    },
    {
      "constant": true,
      "inputs": [],
      "name": "getHubAddr",
      "outputs": [
        {
          "internalType": "address",
          "name": "",
          "type": "address"
        }
      ],
      "payable": false,
      "stateMutability": "view",
      "type": "function"
    },
    {
      "constant": false,
      "inputs": [
        {
          "internalType": "bytes",
          "name": "context",
          "type": "bytes"
        },
        {
          "internalType": "bool",
          "name": "success",
          "type": "bool"
        },
        {
          "internalType": "uint256",
          "name": "actualCharge",
          "type": "uint256"
        },
        {
          "internalType": "bytes32",
          "name": "preRetVal",
          "type": "bytes32"
        }
      ],
      "name": "postRelayedCall",
      "outputs": [],
      "payable": false,
      "stateMutability": "nonpayable",
      "type": "function"
    },
    {
      "constant": false,
      "inputs": [
        {
          "internalType": "bytes",
          "name": "context",
          "type": "bytes"
        }
      ],
      "name": "preRelayedCall",
      "outputs": [
        {
          "internalType": "bytes32",
          "name": "",
          "type": "bytes32"
        }
      ],
      "payable": false,
      "stateMutability": "nonpayable",
      "type": "function"
    },
    {
      "constant": true,
      "inputs": [],
      "name": "relayHubVersion",
      "outputs": [
        {
          "internalType": "string",
          "name": "",
          "type": "string"
        }
      ],
      "payable": false,
      "stateMutability": "view",
      "type": "function"
    },
    {
      "constant": false,
      "inputs": [],
      "name": "setDefaultRelayHub",
      "outputs": [],
      "payable": false,
      "stateMutability": "nonpayable",
      "type": "function"
    },
    {
      "constant": false,
      "inputs": [],
      "name": "initialize",
      "outputs": [],
      "payable": false,
      "stateMutability": "nonpayable",
      "type": "function"
    },
    {
      "constant": false,
      "inputs": [
        {
          "internalType": "address",
          "name": "_auctionManager",
          "type": "address"
        },
        {
          "internalType": "address",
          "name": "_licenceManager",
          "type": "address"
        },
        {
          "internalType": "address",
          "name": "_publicationManager",
          "type": "address"
        },
        {
          "internalType": "address",
          "name": "_userManager",
          "type": "address"
        },
        {
          "internalType": "address",
          "name": "_harbergerTaxManager",
          "type": "address"
        },
        {
          "internalType": "address",
          "name": "_vault",
          "type": "address"
        }
      ],
      "name": "initialize",
      "outputs": [],
      "payable": false,
      "stateMutability": "nonpayable",
      "type": "function"
    },
    {
      "constant": true,
      "inputs": [
        {
          "internalType": "address",
          "name": "",
          "type": "address"
        },
        {
          "internalType": "address",
          "name": "",
          "type": "address"
        },
        {
          "internalType": "bytes",
          "name": "",
          "type": "bytes"
        },
        {
          "internalType": "uint256",
          "name": "",
          "type": "uint256"
        },
        {
          "internalType": "uint256",
          "name": "",
          "type": "uint256"
        },
        {
          "internalType": "uint256",
          "name": "",
          "type": "uint256"
        },
        {
          "internalType": "uint256",
          "name": "",
          "type": "uint256"
        },
        {
          "internalType": "bytes",
          "name": "",
          "type": "bytes"
        },
        {
          "internalType": "uint256",
          "name": "",
          "type": "uint256"
        }
      ],
      "name": "acceptRelayedCall",
      "outputs": [
        {
          "internalType": "uint256",
          "name": "",
          "type": "uint256"
        },
        {
          "internalType": "bytes",
          "name": "",
          "type": "bytes"
        }
      ],
      "payable": false,
      "stateMutability": "view",
      "type": "function"
    },
    {
      "constant": false,
      "inputs": [
        {
          "internalType": "address",
          "name": "_owner",
          "type": "address"
        }
      ],
      "name": "setOwner",
      "outputs": [],
      "payable": false,
      "stateMutability": "nonpayable",
      "type": "function"
    },
    {
      "constant": false,
      "inputs": [
        {
          "internalType": "string",
          "name": "_profile_uri",
          "type": "string"
        }
      ],
      "name": "registerUser",
      "outputs": [
        {
          "internalType": "uint256",
          "name": "",
          "type": "uint256"
        }
      ],
      "payable": false,
      "stateMutability": "nonpayable",
      "type": "function"
    },
    {
      "constant": false,
      "inputs": [
        {
          "internalType": "uint8",
          "name": "_pricing_Strategy",
          "type": "uint8"
        },
        {
          "internalType": "string",
          "name": "_publication_uri",
          "type": "string"
        },
        {
          "internalType": "uint256",
          "name": "_auctionFloor",
          "type": "uint256"
        },
        {
          "internalType": "uint256",
          "name": "_auctionStartTime",
          "type": "uint256"
        },
        {
          "internalType": "uint256",
          "name": "_auctionDuration",
          "type": "uint256"
        },
        {
          "internalType": "uint256",
          "name": "_fixed_sell_price",
          "type": "uint256"
        },
        {
          "internalType": "uint256",
          "name": "_maxNumberOfLicences",
          "type": "uint256"
        },
        {
          "internalType": "uint256[]",
          "name": "_contributors",
          "type": "uint256[]"
        },
        {
          "internalType": "uint256[]",
          "name": "_contributors_weightings",
          "type": "uint256[]"
        }
      ],
      "name": "createPublication",
      "outputs": [],
      "payable": false,
      "stateMutability": "nonpayable",
      "type": "function"
    },
    {
      "constant": false,
      "inputs": [
        {
          "internalType": "bytes32",
          "name": "_bidHash",
          "type": "bytes32"
        },
        {
          "internalType": "uint256",
          "name": "_publication_Id",
          "type": "uint256"
        }
      ],
      "name": "commitSealedBid",
      "outputs": [],
      "payable": false,
      "stateMutability": "nonpayable",
      "type": "function"
    },
    {
      "constant": false,
      "inputs": [
        {
          "internalType": "uint256",
          "name": "_bid",
          "type": "uint256"
        },
        {
          "internalType": "uint256",
          "name": "_salt",
          "type": "uint256"
        },
        {
          "internalType": "uint256",
          "name": "_publication_Id",
          "type": "uint256"
        },
        {
          "internalType": "uint256",
          "name": "_bid_Id",
          "type": "uint256"
        }
      ],
      "name": "revealSealedBid",
      "outputs": [
        {
          "internalType": "uint256",
          "name": "",
          "type": "uint256"
        }
      ],
      "payable": false,
      "stateMutability": "nonpayable",
      "type": "function"
    },
    {
      "constant": false,
      "inputs": [
        {
          "internalType": "uint256",
          "name": "_auction_Id",
          "type": "uint256"
        }
      ],
      "name": "finalizeAuction",
      "outputs": [
        {
          "internalType": "uint256",
          "name": "",
          "type": "uint256"
        }
      ],
      "payable": false,
      "stateMutability": "nonpayable",
      "type": "function"
    },
    {
      "constant": false,
      "inputs": [],
      "name": "buyLicenceFixedRate",
      "outputs": [],
      "payable": false,
      "stateMutability": "nonpayable",
      "type": "function"
    },
    {
      "constant": false,
      "inputs": [
        {
          "internalType": "uint256",
          "name": "_publication_Id",
          "type": "uint256"
        }
      ],
      "name": "claimHarbergerTax",
      "outputs": [
        {
          "internalType": "uint256",
          "name": "",
          "type": "uint256"
        }
      ],
      "payable": false,
      "stateMutability": "nonpayable",
      "type": "function"
    },
    {
      "constant": false,
      "inputs": [
        {
          "internalType": "uint256",
          "name": "_licence_Id",
          "type": "uint256"
        },
        {
          "internalType": "uint256",
          "name": "_newValuation",
          "type": "uint256"
        }
      ],
      "name": "updateLicenceHarbergerValuation",
      "outputs": [
        {
          "internalType": "uint256",
          "name": "",
          "type": "uint256"
        }
      ],
      "payable": false,
      "stateMutability": "nonpayable",
      "type": "function"
    },
    {
      "constant": false,
      "inputs": [
        {
          "internalType": "uint256",
          "name": "_licence_Id",
          "type": "uint256"
        },
        {
          "internalType": "uint256",
          "name": "_buyOutAmount",
          "type": "uint256"
        }
      ],
      "name": "createHarbergerBuyOut",
      "outputs": [],
      "payable": false,
      "stateMutability": "nonpayable",
      "type": "function"
    },
    {
      "constant": false,
      "inputs": [
        {
          "internalType": "uint256",
          "name": "_buyOut_Id",
          "type": "uint256"
        }
      ],
      "name": "finalizeBuyoutOffer",
      "outputs": [],
      "payable": false,
      "stateMutability": "nonpayable",
      "type": "function"
    },
    {
      "constant": true,
      "inputs": [
        {
          "internalType": "uint256",
          "name": "_licence_Id",
          "type": "uint256"
        }
      ],
      "name": "getMinBuyOutAmount",
      "outputs": [
        {
          "internalType": "uint256",
          "name": "",
          "type": "uint256"
        }
      ],
      "payable": false,
      "stateMutability": "view",
      "type": "function"
    },
    {
      "constant": true,
      "inputs": [
        {
          "internalType": "address",
          "name": "_address",
          "type": "address"
        }
      ],
      "name": "getPublicationsAuthorAddress",
      "outputs": [
        {
          "internalType": "uint256[]",
          "name": "",
          "type": "uint256[]"
        }
      ],
      "payable": false,
      "stateMutability": "view",
      "type": "function"
    },
    {
      "constant": true,
      "inputs": [
        {
          "internalType": "uint256",
          "name": "_author_Id",
          "type": "uint256"
        }
      ],
      "name": "getPublicationsAuthorId",
      "outputs": [
        {
          "internalType": "uint256[]",
          "name": "",
          "type": "uint256[]"
        }
      ],
      "payable": false,
      "stateMutability": "view",
      "type": "function"
    },
    {
      "constant": true,
      "inputs": [
        {
          "internalType": "uint256",
          "name": "_publication_Id",
          "type": "uint256"
        }
      ],
      "name": "getPublicationLicences",
      "outputs": [
        {
          "internalType": "uint256[]",
          "name": "",
          "type": "uint256[]"
        }
      ],
      "payable": false,
      "stateMutability": "view",
      "type": "function"
    },
    {
      "constant": true,
      "inputs": [
        {
          "internalType": "address",
          "name": "_address",
          "type": "address"
        }
      ],
      "name": "getBids",
      "outputs": [
        {
          "internalType": "uint256[]",
          "name": "",
          "type": "uint256[]"
        }
      ],
      "payable": false,
      "stateMutability": "view",
      "type": "function"
    },
    {
      "constant": true,
      "inputs": [
        {
          "internalType": "uint256",
          "name": "_publication_Id",
          "type": "uint256"
        }
      ],
      "name": "getPublicationAuctions",
      "outputs": [
        {
          "internalType": "uint256[]",
          "name": "",
          "type": "uint256[]"
        }
      ],
      "payable": false,
      "stateMutability": "view",
      "type": "function"
    },
    {
      "constant": true,
      "inputs": [],
      "name": "getPublicationLength",
      "outputs": [
        {
          "internalType": "uint256",
          "name": "",
          "type": "uint256"
        }
      ],
      "payable": false,
      "stateMutability": "view",
      "type": "function"
    },
    {
      "constant": true,
      "inputs": [
        {
          "internalType": "uint256",
          "name": "_publication_Id",
          "type": "uint256"
        }
      ],
      "name": "getPublication",
      "outputs": [
        {
          "internalType": "uint8",
          "name": "",
          "type": "uint8"
        },
        {
          "internalType": "string",
          "name": "",
          "type": "string"
        },
        {
          "internalType": "uint256",
          "name": "",
          "type": "uint256"
        },
        {
          "internalType": "uint256",
          "name": "",
          "type": "uint256"
        },
        {
          "internalType": "uint256",
          "name": "",
          "type": "uint256"
        },
        {
          "internalType": "uint256",
          "name": "",
          "type": "uint256"
        },
        {
          "internalType": "uint256[]",
          "name": "",
          "type": "uint256[]"
        },
        {
          "internalType": "uint256[]",
          "name": "",
          "type": "uint256[]"
        },
        {
          "internalType": "uint256[]",
          "name": "",
          "type": "uint256[]"
        }
      ],
      "payable": false,
      "stateMutability": "view",
      "type": "function"
    },
    {
      "constant": true,
      "inputs": [
        {
          "internalType": "address",
          "name": "_address",
          "type": "address"
        }
      ],
      "name": "getLicenceForAddress",
      "outputs": [
        {
          "internalType": "uint256[]",
          "name": "",
          "type": "uint256[]"
        }
      ],
      "payable": false,
      "stateMutability": "view",
      "type": "function"
    },
    {
      "constant": true,
      "inputs": [
        {
          "internalType": "uint256",
          "name": "_user_Id",
          "type": "uint256"
        }
      ],
      "name": "getLicenceForUserId",
      "outputs": [
        {
          "internalType": "uint256[]",
          "name": "",
          "type": "uint256[]"
        }
      ],
      "payable": false,
      "stateMutability": "view",
      "type": "function"
    },
    {
      "constant": true,
      "inputs": [
        {
          "internalType": "uint256",
          "name": "_licence_Id",
          "type": "uint256"
        }
      ],
      "name": "getLicence",
      "outputs": [
        {
          "internalType": "uint256",
          "name": "",
          "type": "uint256"
        },
        {
          "internalType": "uint256",
          "name": "",
          "type": "uint256"
        },
        {
          "internalType": "uint256",
          "name": "",
          "type": "uint256"
        },
        {
          "internalType": "uint8",
          "name": "",
          "type": "uint8"
        }
      ],
      "payable": false,
      "stateMutability": "view",
      "type": "function"
    },
    {
      "constant": false,
      "inputs": [
        {
          "internalType": "uint256",
          "name": "_publication_Id",
          "type": "uint256"
        },
        {
          "internalType": "uint256",
          "name": "_value",
          "type": "uint256"
        }
      ],
      "name": "donate",
      "outputs": [],
      "payable": false,
      "stateMutability": "nonpayable",
      "type": "function"
    },
    {
      "constant": true,
      "inputs": [],
      "name": "isCallerRegistered",
      "outputs": [
        {
          "internalType": "bool",
          "name": "",
          "type": "bool"
        }
      ],
      "payable": false,
      "stateMutability": "view",
      "type": "function"
    },
    {
      "constant": true,
      "inputs": [],
      "name": "getCallerId",
      "outputs": [
        {
          "internalType": "uint256",
          "name": "",
          "type": "uint256"
        }
      ],
      "payable": false,
      "stateMutability": "view",
      "type": "function"
    },
    {
      "constant": true,
      "inputs": [
        {
          "internalType": "uint256",
          "name": "_user_Id",
          "type": "uint256"
        }
      ],
      "name": "getUserAddress",
      "outputs": [
        {
          "internalType": "address",
          "name": "",
          "type": "address"
        }
      ],
      "payable": false,
      "stateMutability": "view",
      "type": "function"
    },
    {
      "constant": true,
      "inputs": [
        {
          "internalType": "uint256",
          "name": "_user_Id",
          "type": "uint256"
        },
        {
          "internalType": "uint256",
          "name": "_amount",
          "type": "uint256"
        }
      ],
      "name": "canAddressPay",
      "outputs": [
        {
          "internalType": "bool",
          "name": "",
          "type": "bool"
        }
      ],
      "payable": false,
      "stateMutability": "view",
      "type": "function"
    },
    {
      "constant": true,
      "inputs": [
        {
          "internalType": "uint256",
          "name": "_bidder_Id",
          "type": "uint256"
        }
      ],
      "name": "getBidderBids",
      "outputs": [
        {
          "internalType": "uint256[]",
          "name": "",
          "type": "uint256[]"
        }
      ],
      "payable": false,
      "stateMutability": "view",
      "type": "function"
    },
    {
      "constant": true,
      "inputs": [],
      "name": "getBlockTime",
      "outputs": [
        {
          "internalType": "uint256",
          "name": "",
          "type": "uint256"
        }
      ],
      "payable": false,
      "stateMutability": "view",
      "type": "function"
    },
    {
      "constant": false,
      "inputs": [
        {
          "internalType": "uint256",
          "name": "_auction_Id",
          "type": "uint256"
        }
      ],
      "name": "getAuctionStatus",
      "outputs": [
        {
          "internalType": "uint256",
          "name": "",
          "type": "uint256"
        }
      ],
      "payable": false,
      "stateMutability": "nonpayable",
      "type": "function"
    },
    {
      "constant": false,
      "inputs": [
        {
          "internalType": "uint256",
          "name": "_publication_Id",
          "type": "uint256"
        },
        {
          "internalType": "uint256",
          "name": "_newStartTime",
          "type": "uint256"
        }
      ],
      "name": "updateAuctionStartTime",
      "outputs": [],
      "payable": false,
      "stateMutability": "nonpayable",
      "type": "function"
    },
    {
      "constant": true,
      "inputs": [
        {
          "internalType": "uint256",
          "name": "_publication_Id",
          "type": "uint256"
        }
      ],
      "name": "getPublicationBids",
      "outputs": [
        {
          "internalType": "uint256[]",
          "name": "",
          "type": "uint256[]"
        }
      ],
      "payable": false,
      "stateMutability": "view",
      "type": "function"
    },
    {
      "constant": true,
      "inputs": [
        {
          "internalType": "uint256",
          "name": "_bid_Id",
          "type": "uint256"
        }
      ],
      "name": "getBid",
      "outputs": [
        {
          "internalType": "bytes32",
          "name": "",
          "type": "bytes32"
        },
        {
          "internalType": "uint256",
          "name": "",
          "type": "uint256"
        },
        {
          "internalType": "uint256",
          "name": "",
          "type": "uint256"
        },
        {
          "internalType": "uint8",
          "name": "",
          "type": "uint8"
        },
        {
          "internalType": "uint256",
          "name": "",
          "type": "uint256"
        },
        {
          "internalType": "uint256",
          "name": "",
          "type": "uint256"
        },
        {
          "internalType": "uint256",
          "name": "",
          "type": "uint256"
        }
      ],
      "payable": false,
      "stateMutability": "view",
      "type": "function"
    },
    {
      "constant": true,
      "inputs": [
        {
          "internalType": "uint256",
          "name": "_publication_Id",
          "type": "uint256"
        }
      ],
      "name": "getPublicationAuctionBidLength",
      "outputs": [
        {
          "internalType": "uint256",
          "name": "",
          "type": "uint256"
        }
      ],
      "payable": false,
      "stateMutability": "view",
      "type": "function"
    },
    {
      "constant": true,
      "inputs": [
        {
          "internalType": "uint256",
          "name": "tokenId",
          "type": "uint256"
        }
      ],
      "name": "ownerOf",
      "outputs": [
        {
          "internalType": "address",
          "name": "",
          "type": "address"
        }
      ],
      "payable": false,
      "stateMutability": "view",
      "type": "function"
    }
  ],
  "bytecode": "0x608060405261737e806100136000396000f3fe608060405234801561001057600080fd5b50600436106102695760003560e01c80637765c52c11610151578063a8020ee7116100c3578063d74298df11610087578063d74298df1461144a578063e06e0e2214611482578063e80838631461151b578063ec297be61461155d578063fbd9d2eb14611595578063ff42e8791461161857610269565b8063a8020ee7146111cc578063ad61ccd514611265578063b3208f12146112e8578063b7b668af14611338578063cc2a9a5b1461136657610269565b806387ceff091161011557806387ceff0914610e44578063897f1e4a14610e6257806390d976e214610ee55780639ae001ff14610f535780639dccae8214610f8b578063a564e83c1461102457610269565b80637765c52c14610b8c5780637ece03bb14610bce57806380274db714610bec5780638129fc1c14610c7957806383947ea014610c8357610269565b80632cedebee116101ea578063522b0e23116101ae578063522b0e231461091e5780635bc2ff78146109a157806362838913146109c35780636352211e14610a05578063704f1b9414610a7357806374e861d614610b4257610269565b80632cedebee146106f15780633c889e6f1461074e5780633e764604146107c057806346ac9a361461084357806351a353491461088557610269565b806313af40351161023157806313af40351461038957806314b37f58146103cd5780631aa5b7e9146105f0578063207f29371461060e5780632207fc6a1461069157610269565b806303b43c771461026e57806304686b4a146102ba5780630cdd53f6146102c457806311fcd546146102fc5780631220e2ff1461037f575b600080fd5b6102a46004803603604081101561028457600080fd5b81019080803590602001909291908035906020019092919050505061165a565b6040518082815260200191505060405180910390f35b6102c26118bb565b005b6102fa600480360360408110156102da57600080fd5b8101908080359060200190929190803590602001909291905050506118bd565b005b6103286004803603602081101561031257600080fd5b8101908080359060200190929190505050611fb5565b6040518080602001828103825283818151815260200191508051906020019060200280838360005b8381101561036b578082015181840152602081019050610350565b505050509050019250505060405180910390f35b610387612106565b005b6103cb6004803603602081101561039f57600080fd5b81019080803573ffffffffffffffffffffffffffffffffffffffff169060200190929190505050612125565b005b6105ee60048036036101208110156103e457600080fd5b81019080803560ff1690602001909291908035906020019064010000000081111561040e57600080fd5b82018360208201111561042057600080fd5b8035906020019184600183028401116401000000008311171561044257600080fd5b91908080601f016020809104026020016040519081016040528093929190818152602001838380828437600081840152601f19601f8201169050808301925050505050505091929192908035906020019092919080359060200190929190803590602001909291908035906020019092919080359060200190929190803590602001906401000000008111156104d757600080fd5b8201836020820111156104e957600080fd5b8035906020019184602083028401116401000000008311171561050b57600080fd5b919080806020026020016040519081016040528093929190818152602001838360200280828437600081840152601f19601f8201169050808301925050505050505091929192908035906020019064010000000081111561056b57600080fd5b82018360208201111561057d57600080fd5b8035906020019184602083028401116401000000008311171561059f57600080fd5b919080806020026020016040519081016040528093929190818152602001838360200280828437600081840152601f19601f82011690508083019250505050505050919291929050505061220f565b005b6105f86125e5565b6040518082815260200191505060405180910390f35b61063a6004803603602081101561062457600080fd5b8101908080359060200190929190505050612742565b6040518080602001828103825283818151815260200191508051906020019060200280838360005b8381101561067d578082015181840152602081019050610662565b505050509050019250505060405180910390f35b6106db600480360360808110156106a757600080fd5b8101908080359060200190929190803590602001909291908035906020019092919080359060200190929190505050612893565b6040518082815260200191505060405180910390f35b61071d6004803603602081101561070757600080fd5b8101908080359060200190929190505050612a09565b604051808581526020018481526020018381526020018260ff1660ff16815260200194505050505060405180910390f35b61077a6004803603602081101561076457600080fd5b8101908080359060200190929190505050612aea565b604051808881526020018781526020018681526020018560ff1660ff16815260200184815260200183815260200182815260200197505050505050505060405180910390f35b6107ec600480360360208110156107d657600080fd5b8101908080359060200190929190505050612bf8565b6040518080602001828103825283818151815260200191508051906020019060200280838360005b8381101561082f578082015181840152602081019050610814565b505050509050019250505060405180910390f35b61086f6004803603602081101561085957600080fd5b8101908080359060200190929190505050612dfc565b6040518082815260200191505060405180910390f35b6108c76004803603602081101561089b57600080fd5b81019080803573ffffffffffffffffffffffffffffffffffffffff169060200190929190505050613d3c565b6040518080602001828103825283818151815260200191508051906020019060200280838360005b8381101561090a5780820151818401526020810190506108ef565b505050509050019250505060405180910390f35b61094a6004803603602081101561093457600080fd5b8101908080359060200190929190505050613f6c565b6040518080602001828103825283818151815260200191508051906020019060200280838360005b8381101561098d578082015181840152602081019050610972565b505050509050019250505060405180910390f35b6109a96140bd565b604051808215151515815260200191505060405180910390f35b6109ef600480360360208110156109d957600080fd5b810190808035906020019092919050505061419e565b6040518082815260200191505060405180910390f35b610a3160048036036020811015610a1b57600080fd5b81019080803590602001909291905050506141a5565b604051808273ffffffffffffffffffffffffffffffffffffffff1673ffffffffffffffffffffffffffffffffffffffff16815260200191505060405180910390f35b610b2c60048036036020811015610a8957600080fd5b8101908080359060200190640100000000811115610aa657600080fd5b820183602082011115610ab857600080fd5b80359060200191846001830284011164010000000083111715610ada57600080fd5b91908080601f016020809104026020016040519081016040528093929190818152602001838380828437600081840152601f19601f82011690508083019250505050505050919291929050505061425c565b6040518082815260200191505060405180910390f35b610b4a6143b3565b604051808273ffffffffffffffffffffffffffffffffffffffff1673ffffffffffffffffffffffffffffffffffffffff16815260200191505060405180910390f35b610bb860048036036020811015610ba257600080fd5b81019080803590602001909291905050506143dd565b6040518082815260200191505060405180910390f35b610bd66144a1565b6040518082815260200191505060405180910390f35b610c6360048036036020811015610c0257600080fd5b8101908080359060200190640100000000811115610c1f57600080fd5b820183602082011115610c3157600080fd5b80359060200191846001830284011164010000000083111715610c5357600080fd5b909192939192939050505061454b565b6040518082815260200191505060405180910390f35b610c8161462d565b005b610dc26004803603610120811015610c9a57600080fd5b81019080803573ffffffffffffffffffffffffffffffffffffffff169060200190929190803573ffffffffffffffffffffffffffffffffffffffff16906020019092919080359060200190640100000000811115610cf757600080fd5b820183602082011115610d0957600080fd5b80359060200191846001830284011164010000000083111715610d2b57600080fd5b90919293919293908035906020019092919080359060200190929190803590602001909291908035906020019092919080359060200190640100000000811115610d7457600080fd5b820183602082011115610d8657600080fd5b80359060200191846001830284011164010000000083111715610da857600080fd5b90919293919293908035906020019092919050505061478c565b6040518083815260200180602001828103825283818151815260200191508051906020019080838360005b83811015610e08578082015181840152602081019050610ded565b50505050905090810190601f168015610e355780820380516001836020036101000a031916815260200191505b50935050505060405180910390f35b610e4c6147ac565b6040518082815260200191505060405180910390f35b610e8e60048036036020811015610e7857600080fd5b81019080803590602001909291905050506147b4565b6040518080602001828103825283818151815260200191508051906020019060200280838360005b83811015610ed1578082015181840152602081019050610eb6565b505050509050019250505060405180910390f35b610f1160048036036020811015610efb57600080fd5b8101908080359060200190929190505050614905565b604051808273ffffffffffffffffffffffffffffffffffffffff1673ffffffffffffffffffffffffffffffffffffffff16815260200191505060405180910390f35b610f8960048036036040811015610f6957600080fd5b8101908080359060200190929190803590602001909291905050506149bc565b005b610fcd60048036036020811015610fa157600080fd5b81019080803573ffffffffffffffffffffffffffffffffffffffff169060200190929190505050614c1a565b6040518080602001828103825283818151815260200191508051906020019060200280838360005b83811015611010578082015181840152602081019050610ff5565b505050509050019250505060405180910390f35b6110506004803603602081101561103a57600080fd5b8101908080359060200190929190505050614e4a565b604051808a60ff1660ff1681526020018060200189815260200188815260200187815260200186815260200180602001806020018060200185810385528d818151815260200191508051906020019080838360005b838110156110c05780820151818401526020810190506110a5565b50505050905090810190601f1680156110ed5780820380516001836020036101000a031916815260200191505b50858103845288818151815260200191508051906020019060200280838360005b8381101561112957808201518184015260208101905061110e565b50505050905001858103835287818151815260200191508051906020019060200280838360005b8381101561116b578082015181840152602081019050611150565b50505050905001858103825286818151815260200191508051906020019060200280838360005b838110156111ad578082015181840152602081019050611192565b505050509050019d505050505050505050505050505060405180910390f35b61120e600480360360208110156111e257600080fd5b81019080803573ffffffffffffffffffffffffffffffffffffffff1690602001909291905050506151d0565b6040518080602001828103825283818151815260200191508051906020019060200280838360005b83811015611251578082015181840152602081019050611236565b505050509050019250505060405180910390f35b61126d6152c1565b6040518080602001828103825283818151815260200191508051906020019080838360005b838110156112ad578082015181840152602081019050611292565b50505050905090810190601f1680156112da5780820380516001836020036101000a031916815260200191505b509250505060405180910390f35b61131e600480360360408110156112fe57600080fd5b8101908080359060200190929190803590602001909291905050506152fe565b604051808215151515815260200191505060405180910390f35b6113646004803603602081101561134e57600080fd5b81019080803590602001909291905050506153f7565b005b611448600480360360c081101561137c57600080fd5b81019080803573ffffffffffffffffffffffffffffffffffffffff169060200190929190803573ffffffffffffffffffffffffffffffffffffffff169060200190929190803573ffffffffffffffffffffffffffffffffffffffff169060200190929190803573ffffffffffffffffffffffffffffffffffffffff169060200190929190803573ffffffffffffffffffffffffffffffffffffffff169060200190929190803573ffffffffffffffffffffffffffffffffffffffff169060200190929190505050615932565b005b6114806004803603604081101561146057600080fd5b810190808035906020019092919080359060200190929190505050615c06565b005b6115196004803603608081101561149857600080fd5b81019080803590602001906401000000008111156114b557600080fd5b8201836020820111156114c757600080fd5b803590602001918460018302840111640100000000831117156114e957600080fd5b90919293919293908035151590602001909291908035906020019092919080359060200190929190505050615d8b565b005b6115476004803603602081101561153157600080fd5b8101908080359060200190929190505050615e6d565b6040518082815260200191505060405180910390f35b6115936004803603604081101561157357600080fd5b810190808035906020019092919080359060200190929190505050616b7c565b005b6115c1600480360360208110156115ab57600080fd5b8101908080359060200190929190505050616d01565b6040518080602001828103825283818151815260200191508051906020019060200280838360005b838110156116045780820151818401526020810190506115e9565b505050509050019250505060405180910390f35b6116446004803603602081101561162e57600080fd5b8101908080359060200190929190505050616e52565b6040518082815260200191505060405180910390f35b600080603660009054906101000a900473ffffffffffffffffffffffffffffffffffffffff1673ffffffffffffffffffffffffffffffffffffffff166392c6830f856040518263ffffffff1660e01b81526004018082815260200191505060206040518083038186803b1580156116d057600080fd5b505afa1580156116e4573d6000803e3d6000fd5b505050506040513d60208110156116fa57600080fd5b810190808051906020019092919050505090506117156125e5565b811461176c576040517f08c379a00000000000000000000000000000000000000000000000000000000081526004018080602001828103825260388152602001806172126038913960400191505060405180910390fd5b6000603960009054906101000a900473ffffffffffffffffffffffffffffffffffffffff1673ffffffffffffffffffffffffffffffffffffffff1663b4c0bd9d866040518263ffffffff1660e01b81526004018082815260200191505060206040518083038186803b1580156117e157600080fd5b505afa1580156117f5573d6000803e3d6000fd5b505050506040513d602081101561180b57600080fd5b81019080805190602001909291905050509050603960009054906101000a900473ffffffffffffffffffffffffffffffffffffffff1673ffffffffffffffffffffffffffffffffffffffff166388b623c882866040518363ffffffff1660e01b81526004018083815260200182815260200192505050600060405180830381600087803b15801561189b57600080fd5b505af11580156118af573d6000803e3d6000fd5b50505050505092915050565b565b6000603760009054906101000a900473ffffffffffffffffffffffffffffffffffffffff1673ffffffffffffffffffffffffffffffffffffffff166310a6d0d5846040518263ffffffff1660e01b81526004018082815260200191505060206040518083038186803b15801561193257600080fd5b505afa158015611946573d6000803e3d6000fd5b505050506040513d602081101561195c57600080fd5b810190808051906020019092919050505090506000603860009054906101000a900473ffffffffffffffffffffffffffffffffffffffff1673ffffffffffffffffffffffffffffffffffffffff166390d976e2836040518263ffffffff1660e01b81526004018082815260200191505060206040518083038186803b1580156119e457600080fd5b505afa1580156119f8573d6000803e3d6000fd5b505050506040513d6020811015611a0e57600080fd5b81019080805190602001909291905050509050606080603760009054906101000a900473ffffffffffffffffffffffffffffffffffffffff1673ffffffffffffffffffffffffffffffffffffffff16639d273ddc876040518263ffffffff1660e01b81526004018082815260200191505060006040518083038186803b158015611a9757600080fd5b505afa158015611aab573d6000803e3d6000fd5b505050506040513d6000823e3d601f19601f820116820180604052506040811015611ad557600080fd5b8101908080516040519392919084640100000000821115611af557600080fd5b83820191506020820185811115611b0b57600080fd5b8251866020820283011164010000000082111715611b2857600080fd5b8083526020830192505050908051906020019060200280838360005b83811015611b5f578082015181840152602081019050611b44565b5050505090500160405260200180516040519392919084640100000000821115611b8857600080fd5b83820191506020820185811115611b9e57600080fd5b8251866020820283011164010000000082111715611bbb57600080fd5b8083526020830192505050908051906020019060200280838360005b83811015611bf2578082015181840152602081019050611bd7565b50505050905001604052505050915091506060603860009054906101000a900473ffffffffffffffffffffffffffffffffffffffff1673ffffffffffffffffffffffffffffffffffffffff16637f4f2e84846040518263ffffffff1660e01b81526004018080602001828103825283818151815260200191508051906020019060200280838360005b83811015611c96578082015181840152602081019050611c7b565b505050509050019250505060006040518083038186803b158015611cb957600080fd5b505afa158015611ccd573d6000803e3d6000fd5b505050506040513d6000823e3d601f19601f820116820180604052506020811015611cf757600080fd5b8101908080516040519392919084640100000000821115611d1757600080fd5b83820191506020820185811115611d2d57600080fd5b8251866020820283011164010000000082111715611d4a57600080fd5b8083526020830192505050908051906020019060200280838360005b83811015611d81578082015181840152602081019050611d66565b505050509050016040525050509050603a60009054906101000a900473ffffffffffffffffffffffffffffffffffffffff1673ffffffffffffffffffffffffffffffffffffffff1663841aee53338684868b6040518663ffffffff1660e01b8152600401808673ffffffffffffffffffffffffffffffffffffffff1673ffffffffffffffffffffffffffffffffffffffff1681526020018573ffffffffffffffffffffffffffffffffffffffff1673ffffffffffffffffffffffffffffffffffffffff1681526020018060200180602001848152602001838103835286818151815260200191508051906020019060200280838360005b83811015611e93578082015181840152602081019050611e78565b50505050905001838103825285818151815260200191508051906020019060200280838360005b83811015611ed5578082015181840152602081019050611eba565b50505050905001975050505050505050602060405180830381600087803b158015611eff57600080fd5b505af1158015611f13573d6000803e3d6000fd5b505050506040513d6020811015611f2957600080fd5b8101908080519060200190929190505050611fac576040517f08c379a000000000000000000000000000000000000000000000000000000000815260040180806020018281038252601e8152602001807f42756c6b2061756374696f6e20736574746c656d656e74206661696c6564000081525060200191505060405180910390fd5b50505050505050565b6060603760009054906101000a900473ffffffffffffffffffffffffffffffffffffffff1673ffffffffffffffffffffffffffffffffffffffff1663f88e44a3836040518263ffffffff1660e01b81526004018082815260200191505060006040518083038186803b15801561202a57600080fd5b505afa15801561203e573d6000803e3d6000fd5b505050506040513d6000823e3d601f19601f82011682018060405250602081101561206857600080fd5b810190808051604051939291908464010000000082111561208857600080fd5b8382019150602082018581111561209e57600080fd5b82518660208202830111640100000000821117156120bb57600080fd5b8083526020830192505050908051906020019060200280838360005b838110156120f25780820151818401526020810190506120d7565b505050509050016040525050509050919050565b61212373d216153c06e857cd7f72665e0af1d7d82172f494616fbb565b565b3373ffffffffffffffffffffffffffffffffffffffff16603460009054906101000a900473ffffffffffffffffffffffffffffffffffffffff1673ffffffffffffffffffffffffffffffffffffffff16146121cb576040517f08c379a00000000000000000000000000000000000000000000000000000000081526004018080602001828103825260278152602001806172ff6027913960400191505060405180910390fd5b80603460006101000a81548173ffffffffffffffffffffffffffffffffffffffff021916908373ffffffffffffffffffffffffffffffffffffffff16021790555050565b6122176140bd565b61226c576040517f08c379a00000000000000000000000000000000000000000000000000000000081526004018080602001828103825260338152602001806171df6033913960400191505060405180910390fd5b60006122766125e5565b90506000603760009054906101000a900473ffffffffffffffffffffffffffffffffffffffff1673ffffffffffffffffffffffffffffffffffffffff1663497e192e8c8c858a8a8a8a6040518863ffffffff1660e01b8152600401808860ff1660ff16815260200180602001878152602001868152602001858152602001806020018060200184810384528a818151815260200191508051906020019080838360005b83811015612334578082015181840152602081019050612319565b50505050905090810190601f1680156123615780820380516001836020036101000a031916815260200191505b50848103835286818151815260200191508051906020019060200280838360005b8381101561239d578082015181840152602081019050612382565b50505050905001848103825285818151815260200191508051906020019060200280838360005b838110156123df5780820151818401526020810190506123c4565b505050509050019a5050505050505050505050602060405180830381600087803b15801561240c57600080fd5b505af1158015612420573d6000803e3d6000fd5b505050506040513d602081101561243657600080fd5b810190808051906020019092919050505090506001600281111561245657fe5b8b60ff16600281111561246557fe5b600281111561247057fe5b146125d8576000603560009054906101000a900473ffffffffffffffffffffffffffffffffffffffff1673ffffffffffffffffffffffffffffffffffffffff1663b8f4e5a5838c8c8c6040518563ffffffff1660e01b815260040180858152602001848152602001838152602001828152602001945050505050602060405180830381600087803b15801561250457600080fd5b505af1158015612518573d6000803e3d6000fd5b505050506040513d602081101561252e57600080fd5b81019080805190602001909291905050509050603760009054906101000a900473ffffffffffffffffffffffffffffffffffffffff1673ffffffffffffffffffffffffffffffffffffffff1663f8290cde83836040518363ffffffff1660e01b81526004018083815260200182815260200192505050600060405180830381600087803b1580156125be57600080fd5b505af11580156125d2573d6000803e3d6000fd5b50505050505b5050505050505050505050565b600080603860009054906101000a900473ffffffffffffffffffffffffffffffffffffffff1673ffffffffffffffffffffffffffffffffffffffff16632b956ff7336040518263ffffffff1660e01b8152600401808273ffffffffffffffffffffffffffffffffffffffff1673ffffffffffffffffffffffffffffffffffffffff16815260200191505060206040518083038186803b15801561268757600080fd5b505afa15801561269b573d6000803e3d6000fd5b505050506040513d60208110156126b157600080fd5b81019080805190602001909291905050509050600081141561273b576040517f08c379a00000000000000000000000000000000000000000000000000000000081526004018080602001828103825260198152602001807f43616c6c6572206973206e6f742072656769737465726564210000000000000081525060200191505060405180910390fd5b8091505090565b6060603760009054906101000a900473ffffffffffffffffffffffffffffffffffffffff1673ffffffffffffffffffffffffffffffffffffffff1663207f2937836040518263ffffffff1660e01b81526004018082815260200191505060006040518083038186803b1580156127b757600080fd5b505afa1580156127cb573d6000803e3d6000fd5b505050506040513d6000823e3d601f19601f8201168201806040525060208110156127f557600080fd5b810190808051604051939291908464010000000082111561281557600080fd5b8382019150602082018581111561282b57600080fd5b825186602082028301116401000000008211171561284857600080fd5b8083526020830192505050908051906020019060200280838360005b8381101561287f578082015181840152602081019050612864565b505050509050016040525050509050919050565b600080603760009054906101000a900473ffffffffffffffffffffffffffffffffffffffff1673ffffffffffffffffffffffffffffffffffffffff16636c6167c6856040518263ffffffff1660e01b81526004018082815260200191505060206040518083038186803b15801561290957600080fd5b505afa15801561291d573d6000803e3d6000fd5b505050506040513d602081101561293357600080fd5b8101908080519060200190929190505050905060006129506125e5565b9050603560009054906101000a900473ffffffffffffffffffffffffffffffffffffffff1673ffffffffffffffffffffffffffffffffffffffff166394d0f15e88888588866040518663ffffffff1660e01b81526004018086815260200185815260200184815260200183815260200182815260200195505050505050600060405180830381600087803b1580156129e757600080fd5b505af11580156129fb573d6000803e3d6000fd5b505050505050949350505050565b600080600080603660009054906101000a900473ffffffffffffffffffffffffffffffffffffffff1673ffffffffffffffffffffffffffffffffffffffff16632cedebee866040518263ffffffff1660e01b81526004018082815260200191505060806040518083038186803b158015612a8257600080fd5b505afa158015612a96573d6000803e3d6000fd5b505050506040513d6080811015612aac57600080fd5b810190808051906020019092919080519060200190929190805190602001909291908051906020019092919050505093509350935093509193509193565b6000806000806000806000603560009054906101000a900473ffffffffffffffffffffffffffffffffffffffff1673ffffffffffffffffffffffffffffffffffffffff16633c889e6f896040518263ffffffff1660e01b81526004018082815260200191505060e06040518083038186803b158015612b6857600080fd5b505afa158015612b7c573d6000803e3d6000fd5b505050506040513d60e0811015612b9257600080fd5b81019080805190602001909291908051906020019092919080519060200190929190805190602001909291908051906020019092919080519060200190929190805190602001909291905050509650965096509650965096509650919395979092949650565b60606000603760009054906101000a900473ffffffffffffffffffffffffffffffffffffffff1673ffffffffffffffffffffffffffffffffffffffff16636c6167c6846040518263ffffffff1660e01b81526004018082815260200191505060206040518083038186803b158015612c6f57600080fd5b505afa158015612c83573d6000803e3d6000fd5b505050506040513d6020811015612c9957600080fd5b81019080805190602001909291905050509050603560009054906101000a900473ffffffffffffffffffffffffffffffffffffffff1673ffffffffffffffffffffffffffffffffffffffff166370b4768e826040518263ffffffff1660e01b81526004018082815260200191505060006040518083038186803b158015612d1f57600080fd5b505afa158015612d33573d6000803e3d6000fd5b505050506040513d6000823e3d601f19601f820116820180604052506020811015612d5d57600080fd5b8101908080516040519392919084640100000000821115612d7d57600080fd5b83820191506020820185811115612d9357600080fd5b8251866020820283011164010000000082111715612db057600080fd5b8083526020830192505050908051906020019060200280838360005b83811015612de7578082015181840152602081019050612dcc565b50505050905001604052505050915050919050565b600080603660009054906101000a900473ffffffffffffffffffffffffffffffffffffffff1673ffffffffffffffffffffffffffffffffffffffff1663fbd9d2eb846040518263ffffffff1660e01b81526004018082815260200191505060006040518083038186803b158015612e7257600080fd5b505afa158015612e86573d6000803e3d6000fd5b505050506040513d6000823e3d601f19601f820116820180604052506020811015612eb057600080fd5b8101908080516040519392919084640100000000821115612ed057600080fd5b83820191506020820185811115612ee657600080fd5b8251866020820283011164010000000082111715612f0357600080fd5b8083526020830192505050908051906020019060200280838360005b83811015612f3a578082015181840152602081019050612f1f565b50505050905001604052505050600081518110612f5357fe5b602002602001015190506000603960009054906101000a900473ffffffffffffffffffffffffffffffffffffffff1673ffffffffffffffffffffffffffffffffffffffff1663b4c0bd9d836040518263ffffffff1660e01b81526004018082815260200191505060206040518083038186803b158015612fd257600080fd5b505afa158015612fe6573d6000803e3d6000fd5b505050506040513d6020811015612ffc57600080fd5b810190808051906020019092919050505090506000603960009054906101000a900473ffffffffffffffffffffffffffffffffffffffff1673ffffffffffffffffffffffffffffffffffffffff16638a226e32836040518263ffffffff1660e01b81526004018082815260200191505060206040518083038186803b15801561308457600080fd5b505afa158015613098573d6000803e3d6000fd5b505050506040513d60208110156130ae57600080fd5b810190808051906020019092919050505090506000603660009054906101000a900473ffffffffffffffffffffffffffffffffffffffff1673ffffffffffffffffffffffffffffffffffffffff16636352211e856040518263ffffffff1660e01b81526004018082815260200191505060206040518083038186803b15801561313657600080fd5b505afa15801561314a573d6000803e3d6000fd5b505050506040513d602081101561316057600080fd5b810190808051906020019092919050505090506000603a60009054906101000a900473ffffffffffffffffffffffffffffffffffffffff1673ffffffffffffffffffffffffffffffffffffffff16637a3e00cd83856040518363ffffffff1660e01b8152600401808373ffffffffffffffffffffffffffffffffffffffff1673ffffffffffffffffffffffffffffffffffffffff1681526020018281526020019250505060206040518083038186803b15801561321c57600080fd5b505afa158015613230573d6000803e3d6000fd5b505050506040513d602081101561324657600080fd5b8101908080519060200190929190505050905080156139ed576000603760009054906101000a900473ffffffffffffffffffffffffffffffffffffffff1673ffffffffffffffffffffffffffffffffffffffff166310a6d0d5896040518263ffffffff1660e01b81526004018082815260200191505060206040518083038186803b1580156132d457600080fd5b505afa1580156132e8573d6000803e3d6000fd5b505050506040513d60208110156132fe57600080fd5b810190808051906020019092919050505090506000603860009054906101000a900473ffffffffffffffffffffffffffffffffffffffff1673ffffffffffffffffffffffffffffffffffffffff166390d976e2836040518263ffffffff1660e01b81526004018082815260200191505060206040518083038186803b15801561338657600080fd5b505afa15801561339a573d6000803e3d6000fd5b505050506040513d60208110156133b057600080fd5b81019080805190602001909291905050509050606080603760009054906101000a900473ffffffffffffffffffffffffffffffffffffffff1673ffffffffffffffffffffffffffffffffffffffff16639d273ddc8c6040518263ffffffff1660e01b81526004018082815260200191505060006040518083038186803b15801561343957600080fd5b505afa15801561344d573d6000803e3d6000fd5b505050506040513d6000823e3d601f19601f82011682018060405250604081101561347757600080fd5b810190808051604051939291908464010000000082111561349757600080fd5b838201915060208201858111156134ad57600080fd5b82518660208202830111640100000000821117156134ca57600080fd5b8083526020830192505050908051906020019060200280838360005b838110156135015780820151818401526020810190506134e6565b505050509050016040526020018051604051939291908464010000000082111561352a57600080fd5b8382019150602082018581111561354057600080fd5b825186602082028301116401000000008211171561355d57600080fd5b8083526020830192505050908051906020019060200280838360005b83811015613594578082015181840152602081019050613579565b50505050905001604052505050915091506060603860009054906101000a900473ffffffffffffffffffffffffffffffffffffffff1673ffffffffffffffffffffffffffffffffffffffff16637f4f2e84846040518263ffffffff1660e01b81526004018080602001828103825283818151815260200191508051906020019060200280838360005b8381101561363857808201518184015260208101905061361d565b505050509050019250505060006040518083038186803b15801561365b57600080fd5b505afa15801561366f573d6000803e3d6000fd5b505050506040513d6000823e3d601f19601f82011682018060405250602081101561369957600080fd5b81019080805160405193929190846401000000008211156136b957600080fd5b838201915060208201858111156136cf57600080fd5b82518660208202830111640100000000821117156136ec57600080fd5b8083526020830192505050908051906020019060200280838360005b83811015613723578082015181840152602081019050613708565b505050509050016040525050509050603a60009054906101000a900473ffffffffffffffffffffffffffffffffffffffff1673ffffffffffffffffffffffffffffffffffffffff1663841aee53888684868d6040518663ffffffff1660e01b8152600401808673ffffffffffffffffffffffffffffffffffffffff1673ffffffffffffffffffffffffffffffffffffffff1681526020018573ffffffffffffffffffffffffffffffffffffffff1673ffffffffffffffffffffffffffffffffffffffff1681526020018060200180602001848152602001838103835286818151815260200191508051906020019060200280838360005b8381101561383557808201518184015260208101905061381a565b50505050905001838103825285818151815260200191508051906020019060200280838360005b8381101561387757808201518184015260208101905061385c565b50505050905001975050505050505050602060405180830381600087803b1580156138a157600080fd5b505af11580156138b5573d6000803e3d6000fd5b505050506040513d60208110156138cb57600080fd5b810190808051906020019092919050505061394e576040517f08c379a00000000000000000000000000000000000000000000000000000000081526004018080602001828103825260208152602001807f42756c6b2068617262657267657220736574746c656d656e74206661696c656481525060200191505060405180910390fd5b603960009054906101000a900473ffffffffffffffffffffffffffffffffffffffff1673ffffffffffffffffffffffffffffffffffffffff1663e1363b528a6040518263ffffffff1660e01b815260040180828152602001915050600060405180830381600087803b1580156139c357600080fd5b505af11580156139d7573d6000803e3d6000fd5b50505050879a5050505050505050505050613d37565b80613d3157603660009054906101000a900473ffffffffffffffffffffffffffffffffffffffff1673ffffffffffffffffffffffffffffffffffffffff16633a7ae75d866040518263ffffffff1660e01b815260040180828152602001915050600060405180830381600087803b158015613a6757600080fd5b505af1158015613a7b573d6000803e3d6000fd5b50505050603760009054906101000a900473ffffffffffffffffffffffffffffffffffffffff1673ffffffffffffffffffffffffffffffffffffffff16633a7ae75d886040518263ffffffff1660e01b815260040180828152602001915050602060405180830381600087803b158015613af457600080fd5b505af1158015613b08573d6000803e3d6000fd5b505050506040513d6020811015613b1e57600080fd5b810190808051906020019092919050505050603960009054906101000a900473ffffffffffffffffffffffffffffffffffffffff1673ffffffffffffffffffffffffffffffffffffffff1663d78cd958856040518263ffffffff1660e01b815260040180828152602001915050600060405180830381600087803b158015613ba557600080fd5b505af1158015613bb9573d6000803e3d6000fd5b505050506000603560009054906101000a900473ffffffffffffffffffffffffffffffffffffffff1673ffffffffffffffffffffffffffffffffffffffff1663b8f4e5a58960004262278d006040518563ffffffff1660e01b815260040180858152602001848152602001838152602001828152602001945050505050602060405180830381600087803b158015613c5057600080fd5b505af1158015613c64573d6000803e3d6000fd5b505050506040513d6020811015613c7a57600080fd5b81019080805190602001909291905050509050603760009054906101000a900473ffffffffffffffffffffffffffffffffffffffff1673ffffffffffffffffffffffffffffffffffffffff1663f8290cde89836040518363ffffffff1660e01b81526004018083815260200182815260200192505050600060405180830381600087803b158015613d0a57600080fd5b505af1158015613d1e573d6000803e3d6000fd5b5050505060009650505050505050613d37565b50505050505b919050565b60606000603860009054906101000a900473ffffffffffffffffffffffffffffffffffffffff1673ffffffffffffffffffffffffffffffffffffffff16632b956ff7846040518263ffffffff1660e01b8152600401808273ffffffffffffffffffffffffffffffffffffffff1673ffffffffffffffffffffffffffffffffffffffff16815260200191505060206040518083038186803b158015613ddf57600080fd5b505afa158015613df3573d6000803e3d6000fd5b505050506040513d6020811015613e0957600080fd5b81019080805190602001909291905050509050603760009054906101000a900473ffffffffffffffffffffffffffffffffffffffff1673ffffffffffffffffffffffffffffffffffffffff1663f88e44a3826040518263ffffffff1660e01b81526004018082815260200191505060006040518083038186803b158015613e8f57600080fd5b505afa158015613ea3573d6000803e3d6000fd5b505050506040513d6000823e3d601f19601f820116820180604052506020811015613ecd57600080fd5b8101908080516040519392919084640100000000821115613eed57600080fd5b83820191506020820185811115613f0357600080fd5b8251866020820283011164010000000082111715613f2057600080fd5b8083526020830192505050908051906020019060200280838360005b83811015613f57578082015181840152602081019050613f3c565b50505050905001604052505050915050919050565b6060603660009054906101000a900473ffffffffffffffffffffffffffffffffffffffff1673ffffffffffffffffffffffffffffffffffffffff16639787bb41836040518263ffffffff1660e01b81526004018082815260200191505060006040518083038186803b158015613fe157600080fd5b505afa158015613ff5573d6000803e3d6000fd5b505050506040513d6000823e3d601f19601f82011682018060405250602081101561401f57600080fd5b810190808051604051939291908464010000000082111561403f57600080fd5b8382019150602082018581111561405557600080fd5b825186602082028301116401000000008211171561407257600080fd5b8083526020830192505050908051906020019060200280838360005b838110156140a957808201518184015260208101905061408e565b505050509050016040525050509050919050565b6000603860009054906101000a900473ffffffffffffffffffffffffffffffffffffffff1673ffffffffffffffffffffffffffffffffffffffff166338b6a3a1336040518263ffffffff1660e01b8152600401808273ffffffffffffffffffffffffffffffffffffffff1673ffffffffffffffffffffffffffffffffffffffff16815260200191505060206040518083038186803b15801561415e57600080fd5b505afa158015614172573d6000803e3d6000fd5b505050506040513d602081101561418857600080fd5b8101908080519060200190929190505050905090565b6000919050565b6000603660009054906101000a900473ffffffffffffffffffffffffffffffffffffffff1673ffffffffffffffffffffffffffffffffffffffff16636352211e836040518263ffffffff1660e01b81526004018082815260200191505060206040518083038186803b15801561421a57600080fd5b505afa15801561422e573d6000803e3d6000fd5b505050506040513d602081101561424457600080fd5b81019080805190602001909291905050509050919050565b600080603860009054906101000a900473ffffffffffffffffffffffffffffffffffffffff1673ffffffffffffffffffffffffffffffffffffffff16636ec3877f84336040518363ffffffff1660e01b815260040180806020018373ffffffffffffffffffffffffffffffffffffffff1673ffffffffffffffffffffffffffffffffffffffff168152602001828103825284818151815260200191508051906020019080838360005b83811015614320578082015181840152602081019050614305565b50505050905090810190601f16801561434d5780820380516001836020036101000a031916815260200191505b509350505050602060405180830381600087803b15801561436d57600080fd5b505af1158015614381573d6000803e3d6000fd5b505050506040513d602081101561439757600080fd5b8101908080519060200190929190505050905080915050919050565b6000603360009054906101000a900473ffffffffffffffffffffffffffffffffffffffff16905090565b6000603560009054906101000a900473ffffffffffffffffffffffffffffffffffffffff1673ffffffffffffffffffffffffffffffffffffffff16637765c52c836040518263ffffffff1660e01b815260040180828152602001915050602060405180830381600087803b15801561445457600080fd5b505af1158015614468573d6000803e3d6000fd5b505050506040513d602081101561447e57600080fd5b8101908080519060200190929190505050600381111561449a57fe5b9050919050565b6000603760009054906101000a900473ffffffffffffffffffffffffffffffffffffffff1673ffffffffffffffffffffffffffffffffffffffff16637ece03bb6040518163ffffffff1660e01b815260040160206040518083038186803b15801561450b57600080fd5b505afa15801561451f573d6000803e3d6000fd5b505050506040513d602081101561453557600080fd5b8101908080519060200190929190505050905090565b60006145556143b3565b73ffffffffffffffffffffffffffffffffffffffff163373ffffffffffffffffffffffffffffffffffffffff16146145d8576040517f08c379a00000000000000000000000000000000000000000000000000000000081526004018080602001828103825260248152602001806173266024913960400191505060405180910390fd5b61462583838080601f016020809104026020016040519081016040528093929190818152602001838380828437600081840152601f19601f8201169050808301925050505050505061718c565b905092915050565b600060019054906101000a900460ff168061464c575061464b617193565b5b8061466357506000809054906101000a900460ff16155b6146b8576040517f08c379a000000000000000000000000000000000000000000000000000000000815260040180806020018281038252602e8152602001806172a4602e913960400191505060405180910390fd5b60008060019054906101000a900460ff161590508015614708576001600060016101000a81548160ff02191690831515021790555060016000806101000a81548160ff0219169083151502179055505b600073ffffffffffffffffffffffffffffffffffffffff16603360009054906101000a900473ffffffffffffffffffffffffffffffffffffffff1673ffffffffffffffffffffffffffffffffffffffff16141561476857614767612106565b5b80156147895760008060016101000a81548160ff0219169083151502179055505b50565b600060606147986171a4565b915091509b509b9950505050505050505050565b600042905090565b6060603560009054906101000a900473ffffffffffffffffffffffffffffffffffffffff1673ffffffffffffffffffffffffffffffffffffffff1663897f1e4a836040518263ffffffff1660e01b81526004018082815260200191505060006040518083038186803b15801561482957600080fd5b505afa15801561483d573d6000803e3d6000fd5b505050506040513d6000823e3d601f19601f82011682018060405250602081101561486757600080fd5b810190808051604051939291908464010000000082111561488757600080fd5b8382019150602082018581111561489d57600080fd5b82518660208202830111640100000000821117156148ba57600080fd5b8083526020830192505050908051906020019060200280838360005b838110156148f15780820151818401526020810190506148d6565b505050509050016040525050509050919050565b6000603860009054906101000a900473ffffffffffffffffffffffffffffffffffffffff1673ffffffffffffffffffffffffffffffffffffffff166390d976e2836040518263ffffffff1660e01b81526004018082815260200191505060206040518083038186803b15801561497a57600080fd5b505afa15801561498e573d6000803e3d6000fd5b505050506040513d60208110156149a457600080fd5b81019080805190602001909291905050509050919050565b60006149c66125e5565b9050603760009054906101000a900473ffffffffffffffffffffffffffffffffffffffff1673ffffffffffffffffffffffffffffffffffffffff166310a6d0d5846040518263ffffffff1660e01b81526004018082815260200191505060206040518083038186803b158015614a3b57600080fd5b505afa158015614a4f573d6000803e3d6000fd5b505050506040513d6020811015614a6557600080fd5b81019080805190602001909291905050508114614acd576040517f08c379a000000000000000000000000000000000000000000000000000000000815260040180806020018281038252602c815260200180617278602c913960400191505060405180910390fd5b6000603760009054906101000a900473ffffffffffffffffffffffffffffffffffffffff1673ffffffffffffffffffffffffffffffffffffffff16636c6167c6856040518263ffffffff1660e01b81526004018082815260200191505060206040518083038186803b158015614b4257600080fd5b505afa158015614b56573d6000803e3d6000fd5b505050506040513d6020811015614b6c57600080fd5b81019080805190602001909291905050509050603560009054906101000a900473ffffffffffffffffffffffffffffffffffffffff1673ffffffffffffffffffffffffffffffffffffffff16639ae001ff82856040518363ffffffff1660e01b81526004018083815260200182815260200192505050600060405180830381600087803b158015614bfc57600080fd5b505af1158015614c10573d6000803e3d6000fd5b5050505050505050565b60606000603860009054906101000a900473ffffffffffffffffffffffffffffffffffffffff1673ffffffffffffffffffffffffffffffffffffffff16632b956ff7846040518263ffffffff1660e01b8152600401808273ffffffffffffffffffffffffffffffffffffffff1673ffffffffffffffffffffffffffffffffffffffff16815260200191505060206040518083038186803b158015614cbd57600080fd5b505afa158015614cd1573d6000803e3d6000fd5b505050506040513d6020811015614ce757600080fd5b81019080805190602001909291905050509050603560009054906101000a900473ffffffffffffffffffffffffffffffffffffffff1673ffffffffffffffffffffffffffffffffffffffff1663897f1e4a826040518263ffffffff1660e01b81526004018082815260200191505060006040518083038186803b158015614d6d57600080fd5b505afa158015614d81573d6000803e3d6000fd5b505050506040513d6000823e3d601f19601f820116820180604052506020811015614dab57600080fd5b8101908080516040519392919084640100000000821115614dcb57600080fd5b83820191506020820185811115614de157600080fd5b8251866020820283011164010000000082111715614dfe57600080fd5b8083526020830192505050908051906020019060200280838360005b83811015614e35578082015181840152602081019050614e1a565b50505050905001604052505050915050919050565b600060606000806000806060806060603760009054906101000a900473ffffffffffffffffffffffffffffffffffffffff1673ffffffffffffffffffffffffffffffffffffffff1663a564e83c8b6040518263ffffffff1660e01b81526004018082815260200191505060006040518083038186803b158015614ecc57600080fd5b505afa158015614ee0573d6000803e3d6000fd5b505050506040513d6000823e3d601f19601f82011682018060405250610120811015614f0b57600080fd5b810190808051906020019092919080516040519392919084640100000000821115614f3557600080fd5b83820191506020820185811115614f4b57600080fd5b8251866001820283011164010000000082111715614f6857600080fd5b8083526020830192505050908051906020019080838360005b83811015614f9c578082015181840152602081019050614f81565b50505050905090810190601f168015614fc95780820380516001836020036101000a031916815260200191505b50604052602001805190602001909291908051906020019092919080519060200190929190805190602001909291908051604051939291908464010000000082111561501457600080fd5b8382019150602082018581111561502a57600080fd5b825186602082028301116401000000008211171561504757600080fd5b8083526020830192505050908051906020019060200280838360005b8381101561507e578082015181840152602081019050615063565b50505050905001604052602001805160405193929190846401000000008211156150a757600080fd5b838201915060208201858111156150bd57600080fd5b82518660208202830111640100000000821117156150da57600080fd5b8083526020830192505050908051906020019060200280838360005b838110156151115780820151818401526020810190506150f6565b505050509050016040526020018051604051939291908464010000000082111561513a57600080fd5b8382019150602082018581111561515057600080fd5b825186602082028301116401000000008211171561516d57600080fd5b8083526020830192505050908051906020019060200280838360005b838110156151a4578082015181840152602081019050615189565b505050509050016040525050509850985098509850985098509850985098509193959799909294969850565b60606000603860009054906101000a900473ffffffffffffffffffffffffffffffffffffffff1673ffffffffffffffffffffffffffffffffffffffff16632b956ff7846040518263ffffffff1660e01b8152600401808273ffffffffffffffffffffffffffffffffffffffff1673ffffffffffffffffffffffffffffffffffffffff16815260200191505060206040518083038186803b15801561527357600080fd5b505afa158015615287573d6000803e3d6000fd5b505050506040513d602081101561529d57600080fd5b810190808051906020019092919050505090506152b981613f6c565b915050919050565b60606040518060400160405280600581526020017f312e302e30000000000000000000000000000000000000000000000000000000815250905090565b60008061530a84614905565b9050603a60009054906101000a900473ffffffffffffffffffffffffffffffffffffffff1673ffffffffffffffffffffffffffffffffffffffff16637a3e00cd82856040518363ffffffff1660e01b8152600401808373ffffffffffffffffffffffffffffffffffffffff1673ffffffffffffffffffffffffffffffffffffffff1681526020018281526020019250505060206040518083038186803b1580156153b357600080fd5b505afa1580156153c7573d6000803e3d6000fd5b505050506040513d60208110156153dd57600080fd5b810190808051906020019092919050505091505092915050565b6000603960009054906101000a900473ffffffffffffffffffffffffffffffffffffffff1673ffffffffffffffffffffffffffffffffffffffff1663e95b2590836040518263ffffffff1660e01b815260040180828152602001915050602060405180830381600087803b15801561546e57600080fd5b505af1158015615482573d6000803e3d6000fd5b505050506040513d602081101561549857600080fd5b81019080805190602001909291905050509050801561592e576000603960009054906101000a900473ffffffffffffffffffffffffffffffffffffffff1673ffffffffffffffffffffffffffffffffffffffff16635859eec1846040518263ffffffff1660e01b81526004018082815260200191505060206040518083038186803b15801561552657600080fd5b505afa15801561553a573d6000803e3d6000fd5b505050506040513d602081101561555057600080fd5b810190808051906020019092919050505090506000603960009054906101000a900473ffffffffffffffffffffffffffffffffffffffff1673ffffffffffffffffffffffffffffffffffffffff166372d8e819856040518263ffffffff1660e01b81526004018082815260200191505060206040518083038186803b1580156155d857600080fd5b505afa1580156155ec573d6000803e3d6000fd5b505050506040513d602081101561560257600080fd5b810190808051906020019092919050505090506000603860009054906101000a900473ffffffffffffffffffffffffffffffffffffffff1673ffffffffffffffffffffffffffffffffffffffff166390d976e2836040518263ffffffff1660e01b81526004018082815260200191505060206040518083038186803b15801561568a57600080fd5b505afa15801561569e573d6000803e3d6000fd5b505050506040513d60208110156156b457600080fd5b810190808051906020019092919050505090506000603660009054906101000a900473ffffffffffffffffffffffffffffffffffffffff1673ffffffffffffffffffffffffffffffffffffffff166392c6830f856040518263ffffffff1660e01b81526004018082815260200191505060206040518083038186803b15801561573c57600080fd5b505afa158015615750573d6000803e3d6000fd5b505050506040513d602081101561576657600080fd5b810190808051906020019092919050505090506000603860009054906101000a900473ffffffffffffffffffffffffffffffffffffffff1673ffffffffffffffffffffffffffffffffffffffff166390d976e2836040518263ffffffff1660e01b81526004018082815260200191505060206040518083038186803b1580156157ee57600080fd5b505afa158015615802573d6000803e3d6000fd5b505050506040513d602081101561581857600080fd5b81019080805190602001909291905050509050603660009054906101000a900473ffffffffffffffffffffffffffffffffffffffff1673ffffffffffffffffffffffffffffffffffffffff16635c290cc6868684876040518563ffffffff1660e01b8152600401808581526020018481526020018373ffffffffffffffffffffffffffffffffffffffff1673ffffffffffffffffffffffffffffffffffffffff1681526020018273ffffffffffffffffffffffffffffffffffffffff1673ffffffffffffffffffffffffffffffffffffffff168152602001945050505050600060405180830381600087803b15801561591057600080fd5b505af1158015615924573d6000803e3d6000fd5b5050505050505050505b5050565b600060019054906101000a900460ff16806159515750615950617193565b5b8061596857506000809054906101000a900460ff16155b6159bd576040517f08c379a000000000000000000000000000000000000000000000000000000000815260040180806020018281038252602e8152602001806172a4602e913960400191505060405180910390fd5b60008060019054906101000a900460ff161590508015615a0d576001600060016101000a81548160ff02191690831515021790555060016000806101000a81548160ff0219169083151502179055505b33603460006101000a81548173ffffffffffffffffffffffffffffffffffffffff021916908373ffffffffffffffffffffffffffffffffffffffff160217905550615a5661462d565b86603560006101000a81548173ffffffffffffffffffffffffffffffffffffffff021916908373ffffffffffffffffffffffffffffffffffffffff16021790555085603660006101000a81548173ffffffffffffffffffffffffffffffffffffffff021916908373ffffffffffffffffffffffffffffffffffffffff16021790555084603760006101000a81548173ffffffffffffffffffffffffffffffffffffffff021916908373ffffffffffffffffffffffffffffffffffffffff16021790555083603860006101000a81548173ffffffffffffffffffffffffffffffffffffffff021916908373ffffffffffffffffffffffffffffffffffffffff16021790555082603960006101000a81548173ffffffffffffffffffffffffffffffffffffffff021916908373ffffffffffffffffffffffffffffffffffffffff16021790555081603a60006101000a81548173ffffffffffffffffffffffffffffffffffffffff021916908373ffffffffffffffffffffffffffffffffffffffff1602179055508015615bfd5760008060016101000a81548160ff0219169083151502179055505b50505050505050565b6000603960009054906101000a900473ffffffffffffffffffffffffffffffffffffffff1673ffffffffffffffffffffffffffffffffffffffff1663b4c0bd9d846040518263ffffffff1660e01b81526004018082815260200191505060206040518083038186803b158015615c7b57600080fd5b505afa158015615c8f573d6000803e3d6000fd5b505050506040513d6020811015615ca557600080fd5b810190808051906020019092919050505090506000615cc26125e5565b9050603960009054906101000a900473ffffffffffffffffffffffffffffffffffffffff1673ffffffffffffffffffffffffffffffffffffffff166326ee5f2a8385846040518463ffffffff1660e01b8152600401808481526020018381526020018281526020019350505050602060405180830381600087803b158015615d4957600080fd5b505af1158015615d5d573d6000803e3d6000fd5b505050506040513d6020811015615d7357600080fd5b81019080805190602001909291905050505050505050565b615d936143b3565b73ffffffffffffffffffffffffffffffffffffffff163373ffffffffffffffffffffffffffffffffffffffff1614615e16576040517f08c379a00000000000000000000000000000000000000000000000000000000081526004018080602001828103825260248152602001806173266024913960400191505060405180910390fd5b615e6685858080601f016020809104026020016040519081016040528093929190818152602001838380828437600081840152601f19601f820116905080830192505050505050508484846171c8565b5050505050565b600080600080603560009054906101000a900473ffffffffffffffffffffffffffffffffffffffff1673ffffffffffffffffffffffffffffffffffffffff1663e8083863866040518263ffffffff1660e01b815260040180828152602001915050606060405180830381600087803b158015615ee857600080fd5b505af1158015615efc573d6000803e3d6000fd5b505050506040513d6060811015615f1257600080fd5b8101908080519060200190929190805190602001909291908051906020019092919050505092509250925060008311615fb3576040517f08c379a000000000000000000000000000000000000000000000000000000000815260040180806020018281038252601a8152602001807f496e76616c69642077696e6e696e672062696420616d6f756e7400000000000081525060200191505060405180910390fd5b60008211616029576040517f08c379a00000000000000000000000000000000000000000000000000000000081526004018080602001828103825260168152602001807f496e76616c69642077696e6e696e67206269642049640000000000000000000081525060200191505060405180910390fd5b6000811161609f576040517f08c379a00000000000000000000000000000000000000000000000000000000081526004018080602001828103825260168152602001807f496e76616c6964207075626c69636174696f6e2049640000000000000000000081525060200191505060405180910390fd5b6000603760009054906101000a900473ffffffffffffffffffffffffffffffffffffffff1673ffffffffffffffffffffffffffffffffffffffff166310a6d0d5836040518263ffffffff1660e01b81526004018082815260200191505060206040518083038186803b15801561611457600080fd5b505afa158015616128573d6000803e3d6000fd5b505050506040513d602081101561613e57600080fd5b810190808051906020019092919050505090506000603860009054906101000a900473ffffffffffffffffffffffffffffffffffffffff1673ffffffffffffffffffffffffffffffffffffffff166390d976e2836040518263ffffffff1660e01b81526004018082815260200191505060206040518083038186803b1580156161c657600080fd5b505afa1580156161da573d6000803e3d6000fd5b505050506040513d60208110156161f057600080fd5b810190808051906020019092919050505090506000603860009054906101000a900473ffffffffffffffffffffffffffffffffffffffff1673ffffffffffffffffffffffffffffffffffffffff166390d976e2866040518263ffffffff1660e01b81526004018082815260200191505060206040518083038186803b15801561627857600080fd5b505afa15801561628c573d6000803e3d6000fd5b505050506040513d60208110156162a257600080fd5b81019080805190602001909291905050509050606080603760009054906101000a900473ffffffffffffffffffffffffffffffffffffffff1673ffffffffffffffffffffffffffffffffffffffff16639d273ddc876040518263ffffffff1660e01b81526004018082815260200191505060006040518083038186803b15801561632b57600080fd5b505afa15801561633f573d6000803e3d6000fd5b505050506040513d6000823e3d601f19601f82011682018060405250604081101561636957600080fd5b810190808051604051939291908464010000000082111561638957600080fd5b8382019150602082018581111561639f57600080fd5b82518660208202830111640100000000821117156163bc57600080fd5b8083526020830192505050908051906020019060200280838360005b838110156163f35780820151818401526020810190506163d8565b505050509050016040526020018051604051939291908464010000000082111561641c57600080fd5b8382019150602082018581111561643257600080fd5b825186602082028301116401000000008211171561644f57600080fd5b8083526020830192505050908051906020019060200280838360005b8381101561648657808201518184015260208101905061646b565b50505050905001604052505050915091506060603860009054906101000a900473ffffffffffffffffffffffffffffffffffffffff1673ffffffffffffffffffffffffffffffffffffffff16637f4f2e84846040518263ffffffff1660e01b81526004018080602001828103825283818151815260200191508051906020019060200280838360005b8381101561652a57808201518184015260208101905061650f565b505050509050019250505060006040518083038186803b15801561654d57600080fd5b505afa158015616561573d6000803e3d6000fd5b505050506040513d6000823e3d601f19601f82011682018060405250602081101561658b57600080fd5b81019080805160405193929190846401000000008211156165ab57600080fd5b838201915060208201858111156165c157600080fd5b82518660208202830111640100000000821117156165de57600080fd5b8083526020830192505050908051906020019060200280838360005b838110156166155780820151818401526020810190506165fa565b505050509050016040525050509050603a60009054906101000a900473ffffffffffffffffffffffffffffffffffffffff1673ffffffffffffffffffffffffffffffffffffffff1663841aee53858784868e6040518663ffffffff1660e01b8152600401808673ffffffffffffffffffffffffffffffffffffffff1673ffffffffffffffffffffffffffffffffffffffff1681526020018573ffffffffffffffffffffffffffffffffffffffff1673ffffffffffffffffffffffffffffffffffffffff1681526020018060200180602001848152602001838103835286818151815260200191508051906020019060200280838360005b8381101561672757808201518184015260208101905061670c565b50505050905001838103825285818151815260200191508051906020019060200280838360005b8381101561676957808201518184015260208101905061674e565b50505050905001975050505050505050602060405180830381600087803b15801561679357600080fd5b505af11580156167a7573d6000803e3d6000fd5b505050506040513d60208110156167bd57600080fd5b8101908080519060200190929190505050616840576040517f08c379a000000000000000000000000000000000000000000000000000000000815260040180806020018281038252601e8152602001807f42756c6b2061756374696f6e20736574746c656d656e74206661696c6564000081525060200191505060405180910390fd5b6000603760009054906101000a900473ffffffffffffffffffffffffffffffffffffffff1673ffffffffffffffffffffffffffffffffffffffff1663755f538c896040518263ffffffff1660e01b815260040180828152602001915050602060405180830381600087803b1580156168b757600080fd5b505af11580156168cb573d6000803e3d6000fd5b505050506040513d60208110156168e157600080fd5b810190808051906020019092919050505090506000603660009054906101000a900473ffffffffffffffffffffffffffffffffffffffff1673ffffffffffffffffffffffffffffffffffffffff1663af5485a8878c8c866040518563ffffffff1660e01b8152600401808573ffffffffffffffffffffffffffffffffffffffff1673ffffffffffffffffffffffffffffffffffffffff168152602001848152602001838152602001828152602001945050505050602060405180830381600087803b1580156169af57600080fd5b505af11580156169c3573d6000803e3d6000fd5b505050506040513d60208110156169d957600080fd5b810190808051906020019092919050505090506002808111156169f857fe5b60ff16603760009054906101000a900473ffffffffffffffffffffffffffffffffffffffff1673ffffffffffffffffffffffffffffffffffffffff166330a966e08b6040518263ffffffff1660e01b81526004018082815260200191505060206040518083038186803b158015616a6e57600080fd5b505afa158015616a82573d6000803e3d6000fd5b505050506040513d6020811015616a9857600080fd5b810190808051906020019092919050505060ff161415616b6c57603960009054906101000a900473ffffffffffffffffffffffffffffffffffffffff1673ffffffffffffffffffffffffffffffffffffffff1663776c0248828d6040518363ffffffff1660e01b81526004018083815260200182815260200192505050602060405180830381600087803b158015616b2f57600080fd5b505af1158015616b43573d6000803e3d6000fd5b505050506040513d6020811015616b5957600080fd5b8101908080519060200190929190505050505b5050505050505050505050919050565b6000603760009054906101000a900473ffffffffffffffffffffffffffffffffffffffff1673ffffffffffffffffffffffffffffffffffffffff16636c6167c6836040518263ffffffff1660e01b81526004018082815260200191505060206040518083038186803b158015616bf157600080fd5b505afa158015616c05573d6000803e3d6000fd5b505050506040513d6020811015616c1b57600080fd5b810190808051906020019092919050505090506000616c386125e5565b9050603560009054906101000a900473ffffffffffffffffffffffffffffffffffffffff1673ffffffffffffffffffffffffffffffffffffffff1663908e27eb8584846040518463ffffffff1660e01b8152600401808481526020018381526020018281526020019350505050602060405180830381600087803b158015616cbf57600080fd5b505af1158015616cd3573d6000803e3d6000fd5b505050506040513d6020811015616ce957600080fd5b81019080805190602001909291905050505050505050565b6060603660009054906101000a900473ffffffffffffffffffffffffffffffffffffffff1673ffffffffffffffffffffffffffffffffffffffff1663fbd9d2eb836040518263ffffffff1660e01b81526004018082815260200191505060006040518083038186803b158015616d7657600080fd5b505afa158015616d8a573d6000803e3d6000fd5b505050506040513d6000823e3d601f19601f820116820180604052506020811015616db457600080fd5b8101908080516040519392919084640100000000821115616dd457600080fd5b83820191506020820185811115616dea57600080fd5b8251866020820283011164010000000082111715616e0757600080fd5b8083526020830192505050908051906020019060200280838360005b83811015616e3e578082015181840152602081019050616e23565b505050509050016040525050509050919050565b600080603760009054906101000a900473ffffffffffffffffffffffffffffffffffffffff1673ffffffffffffffffffffffffffffffffffffffff16636c6167c6846040518263ffffffff1660e01b81526004018082815260200191505060206040518083038186803b158015616ec857600080fd5b505afa158015616edc573d6000803e3d6000fd5b505050506040513d6020811015616ef257600080fd5b81019080805190602001909291905050509050603560009054906101000a900473ffffffffffffffffffffffffffffffffffffffff1673ffffffffffffffffffffffffffffffffffffffff16637a88dece826040518263ffffffff1660e01b81526004018082815260200191505060206040518083038186803b158015616f7857600080fd5b505afa158015616f8c573d6000803e3d6000fd5b505050506040513d6020811015616fa257600080fd5b8101908080519060200190929190505050915050919050565b6000603360009054906101000a900473ffffffffffffffffffffffffffffffffffffffff169050600073ffffffffffffffffffffffffffffffffffffffff168273ffffffffffffffffffffffffffffffffffffffff161415617068576040517f08c379a000000000000000000000000000000000000000000000000000000000815260040180806020018281038252602e81526020018061724a602e913960400191505060405180910390fd5b8073ffffffffffffffffffffffffffffffffffffffff168273ffffffffffffffffffffffffffffffffffffffff1614156170ed576040517f08c379a000000000000000000000000000000000000000000000000000000000815260040180806020018281038252602d8152602001806172d2602d913960400191505060405180910390fd5b8173ffffffffffffffffffffffffffffffffffffffff168173ffffffffffffffffffffffffffffffffffffffff167fb9f84b8e65164b14439ae3620df0a4d8786d896996c0282b683f9d8c08f046e860405160405180910390a381603360006101000a81548173ffffffffffffffffffffffffffffffffffffffff021916908373ffffffffffffffffffffffffffffffffffffffff1602179055505050565b6000919050565b600080303b90506000811491505090565b600060606171c0604051806020016040528060008152506171ce565b915091509091565b50505050565b600060606000839150915091509156fe43616e74206372656174652061207075626c69636174696f6e20696620796f7520617265206e6f7420726567697374657265644f6e6c79207468652063757272656e74206c6963656e6365206f776e65722063616e2075706461746520746865202076616c756174696f6e47534e526563697069656e743a206e65772052656c617948756220697320746865207a65726f20616464726573734f6e6c7920746865207075626c69736865722063616e206d6f64696679207468652073746172742074696d65436f6e747261637420696e7374616e63652068617320616c7265616479206265656e20696e697469616c697a656447534e526563697069656e743a206e65772052656c6179487562206973207468652063757272656e74206f6e654f6e6c79206f776e65722063616e206368616e676520746865206f776e6572206164647265737347534e526563697069656e743a2063616c6c6572206973206e6f742052656c6179487562a265627a7a7231582090ef28647f9400a27ecbe033725d310407ec2053aaadc5d5b079e6487908a97564736f6c634300050c0032",
  "source": "pragma solidity ^0.5.12;\n\n/// @title UniCoin smart contract\n/// @author Chris Maree\n\nimport \"@openzeppelin/contracts-ethereum-package/contracts/GSN/GSNRecipient.sol\";\nimport \"@openzeppelin/upgrades/contracts/Initializable.sol\";\n\nimport \"./AuctionManager.sol\";\nimport \"./LicenceManager.sol\";\nimport \"./PublicationManager.sol\";\nimport \"./UserManager.sol\";\nimport \"./Vault.sol\";\nimport \"./HarbergerTaxManager.sol\";\n\ncontract UnicoinRegistry is Initializable, GSNRecipient {\n    address owner;\n\n    AuctionManager private auctionManager;\n    LicenceManager private licenceManager;\n    PublicationManager private publicationManager;\n    UserManager private userManager;\n    HarbergerTaxManager private harbergerTaxManager;\n    Vault private vault;\n\n    enum PricingStrategy {PrivateAuction, FixedRate, PrivateAuctionHarberger}\n\n    function initialize(\n        address _auctionManager,\n        address _licenceManager,\n        address _publicationManager,\n        address _userManager,\n        address _harbergerTaxManager,\n        address _vault\n    ) public initializer {\n        owner = msg.sender;\n\n        GSNRecipient.initialize();\n\n        auctionManager = AuctionManager(_auctionManager);\n        licenceManager = LicenceManager(_licenceManager);\n        publicationManager = PublicationManager(_publicationManager);\n        userManager = UserManager(_userManager);\n        harbergerTaxManager = HarbergerTaxManager(_harbergerTaxManager);\n        vault = Vault(_vault);\n    }\n\n    // accept all requests\n    function acceptRelayedCall(\n        address,\n        address,\n        bytes calldata,\n        uint256,\n        uint256,\n        uint256,\n        uint256,\n        bytes calldata,\n        uint256\n    ) external view returns (uint256, bytes memory) {\n        return _approveRelayedCall();\n    }\n\n    function _preRelayedCall(bytes memory context) internal returns (bytes32) {\n        // solhint-disable-previous-line no-empty-blocks\n    }\n\n    function _postRelayedCall(\n        bytes memory context,\n        bool,\n        uint256 actualCharge,\n        bytes32\n    ) internal {\n        // solhint-disable-previous-line no-empty-blocks\n    }\n\n    function setOwner(address _owner) public {\n        require(owner == msg.sender, \"Only owner can change the owner address\");\n        owner = _owner;\n    }\n\n    function registerUser(string memory _profile_uri) public returns (uint256) {\n        uint256 user_Id = userManager._registerUser(_profile_uri, msg.sender);\n        return user_Id;\n    }\n    function createPublication(\n        uint8 _pricing_Strategy,\n        string memory _publication_uri,\n        uint256 _auctionFloor,\n        uint256 _auctionStartTime,\n        uint256 _auctionDuration,\n        uint256 _fixed_sell_price,\n        uint256 _maxNumberOfLicences,\n        uint256[] memory _contributors,\n        uint256[] memory _contributors_weightings\n    ) public {\n        require(\n            isCallerRegistered(),\n            \"Cant create a publication if you are not registered\"\n        );\n        uint256 author_id = getCallerId();\n        uint256 publicationId = publicationManager._createPublication(\n            _pricing_Strategy,\n            _publication_uri,\n            author_id,\n            _fixed_sell_price,\n            _maxNumberOfLicences,\n            _contributors,\n            _contributors_weightings\n        );\n\n        if (PricingStrategy(_pricing_Strategy) != PricingStrategy.FixedRate) {\n            uint256 auctionId = auctionManager._createAuction(\n                publicationId,\n                _auctionFloor,\n                _auctionStartTime,\n                _auctionDuration\n            );\n            publicationManager._addAuctionToPublication(\n                publicationId,\n                auctionId\n            );\n        }\n    }\n\n    function commitSealedBid(bytes32 _bidHash, uint256 _publication_Id) public {\n        uint256 auction_Id = publicationManager.getLatestAuctionId(\n            _publication_Id\n        );\n        uint256 bidder_Id = getCallerId();\n        auctionManager._commitSealedBid(_bidHash, auction_Id, bidder_Id);\n    }\n\n    function revealSealedBid(\n        uint256 _bid,\n        uint256 _salt,\n        uint256 _publication_Id,\n        uint256 _bid_Id\n    ) public returns (uint256) {\n        uint256 auction_Id = publicationManager.getLatestAuctionId(\n            _publication_Id\n        );\n        uint256 bidder_Id = getCallerId();\n        auctionManager.revealSealedBid(\n            _bid,\n            _salt,\n            auction_Id,\n            _bid_Id,\n            bidder_Id\n        );\n    }\n\n    function finalizeAuction(uint256 _auction_Id) public returns (uint256) {\n        (uint256 winningBidAmount, uint256 winningBiderId, uint256 publicationId) = auctionManager\n            .finalizeAuction(_auction_Id);\n\n        require(winningBidAmount > 0, \"Invalid winning bid amount\");\n        require(winningBiderId > 0, \"Invalid winning bid Id\");\n        require(publicationId > 0, \"Invalid publication Id\");\n\n        uint256 authorId = publicationManager.getAuthorId(publicationId);\n        address authorAddress = userManager.getUserAddress(authorId);\n        address winningBidderAddress = userManager.getUserAddress(\n            winningBiderId\n        );\n\n        (uint256[] memory contributorIds, uint256[] memory contributorWeightings) = publicationManager\n            ._getContributers(publicationId);\n\n        address[] memory contributorAddresses = userManager.getAddressArray(\n            contributorIds\n        );\n\n        require(\n            vault.settleBulkPayment(\n                winningBidderAddress,\n                authorAddress,\n                contributorAddresses,\n                contributorWeightings,\n                winningBidAmount\n            ),\n            \"Bulk auction settlement failed\"\n        );\n\n        uint256 publicationLicenceNo = publicationManager\n            .addNewLicenceToPublication(publicationId);\n\n        uint256 licence_Id = licenceManager.registerNewLicence(\n            winningBidderAddress,\n            winningBiderId,\n            publicationId,\n            publicationLicenceNo\n        );\n        if (\n            uint8(\n                publicationManager.GetPublicationPricingStrategy(publicationId)\n            ) ==\n            uint8(PricingStrategy.PrivateAuctionHarberger)\n        ) {\n            harbergerTaxManager.createTaxObject(licence_Id, winningBidAmount);\n        }\n    }\n\n    function buyLicenceFixedRate() public {}\n\n    function claimHarbergerTax(uint256 _publication_Id)\n        public\n        returns (uint256)\n    {\n        uint256 licence_Id = licenceManager.getPublicationLicences(\n            _publication_Id\n        )[0];\n        uint256 taxObject_Id = harbergerTaxManager.getLicenceTaxObjectId(\n            licence_Id\n        );\n        uint256 outstandingTax = harbergerTaxManager.calculateOutstandingTax(\n            taxObject_Id\n        );\n        address licenceOwner = licenceManager.ownerOf(licence_Id);\n        bool licenceOwnerSolvent = vault.canAddressPay(\n            licenceOwner,\n            outstandingTax\n        );\n\n        if (licenceOwnerSolvent) {\n            //the licence owner can pay the tax and all contributers are paid\n            uint256 authorId = publicationManager.getAuthorId(_publication_Id);\n            address authorAddress = userManager.getUserAddress(authorId);\n            (uint256[] memory contributorIds, uint256[] memory contributorWeightings) = publicationManager\n                ._getContributers(_publication_Id);\n            address[] memory contributorAddresses = userManager.getAddressArray(\n                contributorIds\n            );\n            require(\n                vault.settleBulkPayment(\n                    licenceOwner,\n                    authorAddress,\n                    contributorAddresses,\n                    contributorWeightings,\n                    outstandingTax\n                ),\n                \"Bulk harberger settlement failed\"\n            );\n\n            harbergerTaxManager._updateTaxObjectLastPayment(taxObject_Id);\n\n            return outstandingTax; //returns the total tax sent\n        }\n        //the licence owner cant pay the tax. they loose their licence which is placed for auction again\n        if (!licenceOwnerSolvent) {\n            licenceManager.revokeLicence(licence_Id);\n            publicationManager.revokeLicence(_publication_Id);\n            harbergerTaxManager.revokeTaxObject(taxObject_Id);\n\n            //create a new auction\n            uint256 auctionId = auctionManager._createAuction(\n                _publication_Id,\n                0, //auction floor\n                now, //auction start time\n                60 * 60 * 24 * 30 // one month duration for the auction\n            );\n            publicationManager._addAuctionToPublication(\n                _publication_Id,\n                auctionId\n            );\n            return 0;\n        }\n    }\n\n    function updateLicenceHarbergerValuation(\n        uint256 _licence_Id,\n        uint256 _newValuation\n    ) public returns (uint256) {\n        uint256 licenceOwner_Id = licenceManager.getLicenceOwnerId(_licence_Id);\n        require(\n            licenceOwner_Id == getCallerId(),\n            \"Only the current licence owner can update the  valuation\"\n        );\n\n        uint256 taxObject_Id = harbergerTaxManager.getLicenceTaxObjectId(\n            _licence_Id\n        );\n\n        harbergerTaxManager._updateTaxObjectValuation(\n            taxObject_Id,\n            _newValuation\n        );\n    }\n\n    function createHarbergerBuyOut(uint256 _licence_Id, uint256 _buyOutAmount)\n        public\n    {\n        uint256 taxObject_Id = harbergerTaxManager.getLicenceTaxObjectId(\n            _licence_Id\n        );\n        uint256 buyOutOwner_Id = getCallerId();\n\n        harbergerTaxManager.submitBuyOut(\n            taxObject_Id,\n            _buyOutAmount,\n            buyOutOwner_Id\n        );\n    }\n\n    function finalizeBuyoutOffer(uint256 _buyOut_Id) public {\n        bool offerSucceeded = harbergerTaxManager.finalizeBuyOutOffer(\n            _buyOut_Id\n        );\n        if (offerSucceeded) {\n            uint256 licence_Id = harbergerTaxManager.getBuyOutLicenceId(\n                _buyOut_Id\n            );\n            uint256 buyOutOwner_Id = harbergerTaxManager.getBuyOutOwnerId(\n                _buyOut_Id\n            );\n\n            address buyOutOwner_address = userManager.getUserAddress(\n                buyOutOwner_Id\n            );\n\n            uint256 previousOwner_Id = licenceManager.getLicenceOwnerId(\n                licence_Id\n            );\n\n            address previousOwner_address = userManager.getUserAddress(\n                previousOwner_Id\n            );\n\n            licenceManager.allocateLicenceToNewOwner(licence_Id,buyOutOwner_Id,previousOwner_address,buyOutOwner_address);\n        }\n    }\n\n    function getMinBuyOutAmount(uint256 _licence_Id)\n        public\n        view\n        returns (uint256)\n    {}\n\n    function getPublicationsAuthorAddress(address _address)\n        public\n        view\n        returns (uint256[] memory)\n    {\n        uint256 author_Id = userManager.getUserId(_address);\n        return publicationManager.getAuthorPublications(author_Id);\n    }\n\n    function getPublicationsAuthorId(uint256 _author_Id)\n        public\n        view\n        returns (uint256[] memory)\n    {\n        return publicationManager.getAuthorPublications(_author_Id);\n    }\n\n    function getPublicationLicences(uint256 _publication_Id)\n        public\n        view\n        returns (uint256[] memory)\n    {\n        return licenceManager.getPublicationLicences(_publication_Id);\n    }\n\n    function getBids(address _address) public view returns (uint256[] memory) {\n        uint256 userAddress = userManager.getUserId(_address);\n        return auctionManager.getBidderBids(userAddress);\n    }\n\n    function getPublicationAuctions(uint256 _publication_Id)\n        public\n        view\n        returns (uint256[] memory)\n    {\n        return publicationManager.getPublicationAuctions(_publication_Id);\n    }\n\n    function getPublicationLength() public view returns (uint256) {\n        return publicationManager.getPublicationLength();\n    }\n\n    function getPublication(uint256 _publication_Id)\n        public\n        view\n        returns (\n            uint8,\n            string memory,\n            uint256,\n            uint256,\n            uint256,\n            uint256,\n            uint256[] memory,\n            uint256[] memory,\n            uint256[] memory\n        )\n    {\n        return (publicationManager.getPublication(_publication_Id));\n    }\n\n    function getLicenceForAddress(address _address)\n        public\n        view\n        returns (uint256[] memory)\n    {\n        uint256 user_Id = userManager.getUserId(_address);\n        return getLicenceForUserId(user_Id);\n    }\n\n    function getLicenceForUserId(uint256 _user_Id)\n        public\n        view\n        returns (uint256[] memory)\n    {\n        return licenceManager.getLicenceForUser(_user_Id);\n    }\n\n    function getLicence(uint256 _licence_Id)\n        public\n        view\n        returns (uint256, uint256, uint256, uint8)\n    {\n        return (licenceManager.getLicence(_licence_Id));\n    }\n\n    function donate(uint256 _publication_Id, uint256 _value) public {\n        uint256 authorId = publicationManager.getAuthorId(_publication_Id);\n        address authorAddress = userManager.getUserAddress(authorId);\n\n        (uint256[] memory contributorIds, uint256[] memory contributorWeightings) = publicationManager\n            ._getContributers(_publication_Id);\n\n        address[] memory contributorAddresses = userManager.getAddressArray(\n            contributorIds\n        );\n\n        require(\n            vault.settleBulkPayment(\n                msg.sender,\n                authorAddress,\n                contributorAddresses,\n                contributorWeightings,\n                _value\n            ),\n            \"Bulk auction settlement failed\"\n        );\n    }\n\n    function isCallerRegistered() public view returns (bool) {\n        return userManager.isAddressRegistered(msg.sender);\n    }\n\n    function getCallerId() public view returns (uint256) {\n        uint256 callerId = userManager.getUserId(msg.sender);\n        require(callerId != 0, \"Caller is not registered!\");\n        return callerId;\n    }\n\n    function getUserAddress(uint256 _user_Id) public view returns (address) {\n        return userManager.getUserAddress(_user_Id);\n    }\n\n    function canAddressPay(uint256 _user_Id, uint256 _amount)\n        public\n        view\n        returns (bool)\n    {\n        address userAddress = getUserAddress(_user_Id);\n        return vault.canAddressPay(userAddress, _amount);\n    }\n\n    function getBidderBids(uint256 _bidder_Id)\n        public\n        view\n        returns (uint256[] memory)\n    {\n        return auctionManager.getBidderBids(_bidder_Id);\n    }\n\n    function getBlockTime() public view returns (uint256) {\n        return now;\n    }\n\n    function getAuctionStatus(uint256 _auction_Id) public returns (uint256) {\n        return uint256(auctionManager.getAuctionStatus(_auction_Id));\n    }\n\n    function updateAuctionStartTime(\n        uint256 _publication_Id,\n        uint256 _newStartTime\n    ) public {\n        uint256 caller_Id = getCallerId();\n        require(\n            caller_Id == publicationManager.getAuthorId(_publication_Id),\n            \"Only the publisher can modify the start time\"\n        );\n        uint256 auction_Id = publicationManager.getLatestAuctionId(\n            _publication_Id\n        );\n        auctionManager.updateAuctionStartTime(auction_Id, _newStartTime);\n    }\n\n    function getPublicationBids(uint256 _publication_Id)\n        public\n        view\n        returns (uint256[] memory)\n    {\n        uint256 auction_Id = publicationManager.getLatestAuctionId(\n            _publication_Id\n        );\n        return (auctionManager.getAuctionBids(auction_Id));\n    }\n\n    function getBid(uint256 _bid_Id)\n        public\n        view\n        returns (bytes32, uint256, uint256, uint8, uint256, uint256, uint256)\n    {\n        return (auctionManager.getBid(_bid_Id));\n    }\n\n    function getPublicationAuctionBidLength(uint256 _publication_Id)\n        public\n        view\n        returns (uint256)\n    {\n        uint256 auction_Id = publicationManager.getLatestAuctionId(\n            _publication_Id\n        );\n        return auctionManager.getNumberOfBidsInAuction(auction_Id);\n    }\n    function ownerOf(uint256 tokenId) public view returns (address) {\n        return licenceManager.ownerOf(tokenId);\n    }\n\n}\n",
  "sourcePath": "/Users/chris/Projects/unicoindapp/contracts/UnicoinRegistry.sol",
  "compiler": {
    "name": "solc",
    "version": "0.5.12+commit.7709ece9.Emscripten.clang"
  },
  "schemaVersion": "3.0.16",
  "updatedAt": "2019-12-01T07:59:40.982Z",
  "devdoc": {
    "methods": {
      "getHubAddr()": {
        "details": "Returns the address of the {IRelayHub} contract for this recipient."
      },
      "postRelayedCall(bytes,bool,uint256,bytes32)": {
        "details": "See `IRelayRecipient.postRelayedCall`.     * This function should not be overriden directly, use `_postRelayedCall` instead.     * * Requirements:     * - the caller must be the `RelayHub` contract."
      },
      "preRelayedCall(bytes)": {
        "details": "See `IRelayRecipient.preRelayedCall`.     * This function should not be overriden directly, use `_preRelayedCall` instead.     * * Requirements:     * - the caller must be the `RelayHub` contract."
      },
      "relayHubVersion()": {
        "details": "Returns the version string of the {IRelayHub} for which this recipient implementation was built. If {_upgradeRelayHub} is used, the new {IRelayHub} instance should be compatible with this version."
      }
    }
  },
  "userdoc": {
    "methods": {}
  }
}