{
  "contractName": "UnicoinRegistry",
  "abi": [
    {
      "anonymous": false,
      "inputs": [
        {
          "indexed": true,
          "internalType": "address",
          "name": "oldRelayHub",
          "type": "address"
        },
        {
          "indexed": true,
          "internalType": "address",
          "name": "newRelayHub",
          "type": "address"
        }
      ],
      "name": "RelayHubChanged",
      "type": "event"
    },
    {
      "constant": true,
      "inputs": [],
      "name": "getHubAddr",
      "outputs": [
        {
          "internalType": "address",
          "name": "",
          "type": "address"
        }
      ],
      "payable": false,
      "stateMutability": "view",
      "type": "function"
    },
    {
      "constant": false,
      "inputs": [
        {
          "internalType": "bytes",
          "name": "context",
          "type": "bytes"
        },
        {
          "internalType": "bool",
          "name": "success",
          "type": "bool"
        },
        {
          "internalType": "uint256",
          "name": "actualCharge",
          "type": "uint256"
        },
        {
          "internalType": "bytes32",
          "name": "preRetVal",
          "type": "bytes32"
        }
      ],
      "name": "postRelayedCall",
      "outputs": [],
      "payable": false,
      "stateMutability": "nonpayable",
      "type": "function"
    },
    {
      "constant": false,
      "inputs": [
        {
          "internalType": "bytes",
          "name": "context",
          "type": "bytes"
        }
      ],
      "name": "preRelayedCall",
      "outputs": [
        {
          "internalType": "bytes32",
          "name": "",
          "type": "bytes32"
        }
      ],
      "payable": false,
      "stateMutability": "nonpayable",
      "type": "function"
    },
    {
      "constant": true,
      "inputs": [],
      "name": "relayHubVersion",
      "outputs": [
        {
          "internalType": "string",
          "name": "",
          "type": "string"
        }
      ],
      "payable": false,
      "stateMutability": "view",
      "type": "function"
    },
    {
      "constant": false,
      "inputs": [],
      "name": "setDefaultRelayHub",
      "outputs": [],
      "payable": false,
      "stateMutability": "nonpayable",
      "type": "function"
    },
    {
      "constant": false,
      "inputs": [
        {
          "internalType": "address",
          "name": "_auctionManager",
          "type": "address"
        },
        {
          "internalType": "address",
          "name": "_licenceManager",
          "type": "address"
        },
        {
          "internalType": "address",
          "name": "_publicationManager",
          "type": "address"
        },
        {
          "internalType": "address",
          "name": "_userManager",
          "type": "address"
        },
        {
          "internalType": "address",
          "name": "_vault",
          "type": "address"
        }
      ],
      "name": "initialize",
      "outputs": [],
      "payable": false,
      "stateMutability": "nonpayable",
      "type": "function"
    },
    {
      "constant": false,
      "inputs": [],
      "name": "initialize",
      "outputs": [],
      "payable": false,
      "stateMutability": "nonpayable",
      "type": "function"
    },
    {
      "constant": true,
      "inputs": [
        {
          "internalType": "address",
          "name": "",
          "type": "address"
        },
        {
          "internalType": "address",
          "name": "",
          "type": "address"
        },
        {
          "internalType": "bytes",
          "name": "",
          "type": "bytes"
        },
        {
          "internalType": "uint256",
          "name": "",
          "type": "uint256"
        },
        {
          "internalType": "uint256",
          "name": "",
          "type": "uint256"
        },
        {
          "internalType": "uint256",
          "name": "",
          "type": "uint256"
        },
        {
          "internalType": "uint256",
          "name": "",
          "type": "uint256"
        },
        {
          "internalType": "bytes",
          "name": "",
          "type": "bytes"
        },
        {
          "internalType": "uint256",
          "name": "",
          "type": "uint256"
        }
      ],
      "name": "acceptRelayedCall",
      "outputs": [
        {
          "internalType": "uint256",
          "name": "",
          "type": "uint256"
        },
        {
          "internalType": "bytes",
          "name": "",
          "type": "bytes"
        }
      ],
      "payable": false,
      "stateMutability": "view",
      "type": "function"
    },
    {
      "constant": false,
      "inputs": [
        {
          "internalType": "address",
          "name": "_owner",
          "type": "address"
        }
      ],
      "name": "setOwner",
      "outputs": [],
      "payable": false,
      "stateMutability": "nonpayable",
      "type": "function"
    },
    {
      "constant": false,
      "inputs": [
        {
          "internalType": "string",
          "name": "_profile_uri",
          "type": "string"
        }
      ],
      "name": "registerUser",
      "outputs": [
        {
          "internalType": "uint256",
          "name": "",
          "type": "uint256"
        }
      ],
      "payable": false,
      "stateMutability": "nonpayable",
      "type": "function"
    },
    {
      "constant": false,
      "inputs": [
        {
          "internalType": "uint8",
          "name": "_pricing_Strategy",
          "type": "uint8"
        },
        {
          "internalType": "string",
          "name": "_publication_uri",
          "type": "string"
        },
        {
          "internalType": "uint256",
          "name": "_auctionFloor",
          "type": "uint256"
        },
        {
          "internalType": "uint256",
          "name": "_auctionStartTime",
          "type": "uint256"
        },
        {
          "internalType": "uint256",
          "name": "_auctionDuration",
          "type": "uint256"
        },
        {
          "internalType": "uint256",
          "name": "_fixed_sell_price",
          "type": "uint256"
        },
        {
          "internalType": "uint256",
          "name": "_maxNumberOfLicences",
          "type": "uint256"
        },
        {
          "internalType": "uint256[]",
          "name": "_contributors",
          "type": "uint256[]"
        },
        {
          "internalType": "uint256[]",
          "name": "_contributors_weightings",
          "type": "uint256[]"
        }
      ],
      "name": "createPublication",
      "outputs": [],
      "payable": false,
      "stateMutability": "nonpayable",
      "type": "function"
    },
    {
      "constant": false,
      "inputs": [
        {
          "internalType": "bytes32",
          "name": "_bidHash",
          "type": "bytes32"
        },
        {
          "internalType": "uint256",
          "name": "_publication_Id",
          "type": "uint256"
        }
      ],
      "name": "commitSealedBid",
      "outputs": [],
      "payable": false,
      "stateMutability": "nonpayable",
      "type": "function"
    },
    {
      "constant": false,
      "inputs": [
        {
          "internalType": "uint256",
          "name": "_bid",
          "type": "uint256"
        },
        {
          "internalType": "uint256",
          "name": "_salt",
          "type": "uint256"
        },
        {
          "internalType": "uint256",
          "name": "_publication_Id",
          "type": "uint256"
        },
        {
          "internalType": "uint256",
          "name": "_bid_Id",
          "type": "uint256"
        }
      ],
      "name": "revealSealedBid",
      "outputs": [
        {
          "internalType": "uint256",
          "name": "",
          "type": "uint256"
        }
      ],
      "payable": false,
      "stateMutability": "nonpayable",
      "type": "function"
    },
    {
      "constant": false,
      "inputs": [
        {
          "internalType": "uint256",
          "name": "_auction_Id",
          "type": "uint256"
        }
      ],
      "name": "finalizeAuction",
      "outputs": [
        {
          "internalType": "uint256",
          "name": "",
          "type": "uint256"
        }
      ],
      "payable": false,
      "stateMutability": "nonpayable",
      "type": "function"
    },
    {
      "constant": false,
      "inputs": [],
      "name": "buyLicenceFixedRate",
      "outputs": [],
      "payable": false,
      "stateMutability": "nonpayable",
      "type": "function"
    },
    {
      "constant": true,
      "inputs": [
        {
          "internalType": "address",
          "name": "_address",
          "type": "address"
        }
      ],
      "name": "getPublicationsAuthorAddress",
      "outputs": [
        {
          "internalType": "uint256[]",
          "name": "",
          "type": "uint256[]"
        }
      ],
      "payable": false,
      "stateMutability": "view",
      "type": "function"
    },
    {
      "constant": true,
      "inputs": [
        {
          "internalType": "uint256",
          "name": "_author_Id",
          "type": "uint256"
        }
      ],
      "name": "getPublicationsAuthorId",
      "outputs": [
        {
          "internalType": "uint256[]",
          "name": "",
          "type": "uint256[]"
        }
      ],
      "payable": false,
      "stateMutability": "view",
      "type": "function"
    },
    {
      "constant": true,
      "inputs": [
        {
          "internalType": "uint256",
          "name": "_publication_Id",
          "type": "uint256"
        }
      ],
      "name": "getPublicationLicences",
      "outputs": [
        {
          "internalType": "uint256[]",
          "name": "",
          "type": "uint256[]"
        }
      ],
      "payable": false,
      "stateMutability": "view",
      "type": "function"
    },
    {
      "constant": true,
      "inputs": [
        {
          "internalType": "address",
          "name": "_address",
          "type": "address"
        }
      ],
      "name": "getBids",
      "outputs": [
        {
          "internalType": "uint256[]",
          "name": "",
          "type": "uint256[]"
        }
      ],
      "payable": false,
      "stateMutability": "view",
      "type": "function"
    },
    {
      "constant": true,
      "inputs": [
        {
          "internalType": "uint256",
          "name": "_publication_Id",
          "type": "uint256"
        }
      ],
      "name": "getPublicationAuctions",
      "outputs": [
        {
          "internalType": "uint256[]",
          "name": "",
          "type": "uint256[]"
        }
      ],
      "payable": false,
      "stateMutability": "view",
      "type": "function"
    },
    {
      "constant": true,
      "inputs": [],
      "name": "getPublicationLength",
      "outputs": [
        {
          "internalType": "uint256",
          "name": "",
          "type": "uint256"
        }
      ],
      "payable": false,
      "stateMutability": "view",
      "type": "function"
    },
    {
      "constant": true,
      "inputs": [
        {
          "internalType": "uint256",
          "name": "_publication_Id",
          "type": "uint256"
        }
      ],
      "name": "getPublication",
      "outputs": [
        {
          "internalType": "uint8",
          "name": "",
          "type": "uint8"
        },
        {
          "internalType": "string",
          "name": "",
          "type": "string"
        },
        {
          "internalType": "uint256",
          "name": "",
          "type": "uint256"
        },
        {
          "internalType": "uint256",
          "name": "",
          "type": "uint256"
        },
        {
          "internalType": "uint256",
          "name": "",
          "type": "uint256"
        },
        {
          "internalType": "uint256",
          "name": "",
          "type": "uint256"
        },
        {
          "internalType": "uint256[]",
          "name": "",
          "type": "uint256[]"
        },
        {
          "internalType": "uint256[]",
          "name": "",
          "type": "uint256[]"
        },
        {
          "internalType": "uint256[]",
          "name": "",
          "type": "uint256[]"
        }
      ],
      "payable": false,
      "stateMutability": "view",
      "type": "function"
    },
    {
      "constant": true,
      "inputs": [
        {
          "internalType": "address",
          "name": "_address",
          "type": "address"
        }
      ],
      "name": "getLicenceForAddress",
      "outputs": [
        {
          "internalType": "uint256[]",
          "name": "",
          "type": "uint256[]"
        }
      ],
      "payable": false,
      "stateMutability": "view",
      "type": "function"
    },
    {
      "constant": true,
      "inputs": [
        {
          "internalType": "uint256",
          "name": "_user_Id",
          "type": "uint256"
        }
      ],
      "name": "getLicenceForUserId",
      "outputs": [
        {
          "internalType": "uint256[]",
          "name": "",
          "type": "uint256[]"
        }
      ],
      "payable": false,
      "stateMutability": "view",
      "type": "function"
    },
    {
      "constant": true,
      "inputs": [
        {
          "internalType": "uint256",
          "name": "_licence_Id",
          "type": "uint256"
        }
      ],
      "name": "getLicence",
      "outputs": [
        {
          "internalType": "uint256",
          "name": "",
          "type": "uint256"
        },
        {
          "internalType": "uint256",
          "name": "",
          "type": "uint256"
        },
        {
          "internalType": "uint256",
          "name": "",
          "type": "uint256"
        }
      ],
      "payable": false,
      "stateMutability": "view",
      "type": "function"
    },
    {
      "constant": false,
      "inputs": [
        {
          "internalType": "uint256",
          "name": "_publication_Id",
          "type": "uint256"
        },
        {
          "internalType": "uint256",
          "name": "_value",
          "type": "uint256"
        }
      ],
      "name": "donate",
      "outputs": [],
      "payable": false,
      "stateMutability": "nonpayable",
      "type": "function"
    },
    {
      "constant": true,
      "inputs": [],
      "name": "isCallerRegistered",
      "outputs": [
        {
          "internalType": "bool",
          "name": "",
          "type": "bool"
        }
      ],
      "payable": false,
      "stateMutability": "view",
      "type": "function"
    },
    {
      "constant": true,
      "inputs": [],
      "name": "getCallerId",
      "outputs": [
        {
          "internalType": "uint256",
          "name": "",
          "type": "uint256"
        }
      ],
      "payable": false,
      "stateMutability": "view",
      "type": "function"
    },
    {
      "constant": true,
      "inputs": [
        {
          "internalType": "uint256",
          "name": "_user_Id",
          "type": "uint256"
        }
      ],
      "name": "getUserAddress",
      "outputs": [
        {
          "internalType": "address",
          "name": "",
          "type": "address"
        }
      ],
      "payable": false,
      "stateMutability": "view",
      "type": "function"
    },
    {
      "constant": true,
      "inputs": [
        {
          "internalType": "uint256",
          "name": "_user_Id",
          "type": "uint256"
        },
        {
          "internalType": "uint256",
          "name": "_amount",
          "type": "uint256"
        }
      ],
      "name": "canAddressPay",
      "outputs": [
        {
          "internalType": "bool",
          "name": "",
          "type": "bool"
        }
      ],
      "payable": false,
      "stateMutability": "view",
      "type": "function"
    },
    {
      "constant": true,
      "inputs": [
        {
          "internalType": "uint256",
          "name": "_bidder_Id",
          "type": "uint256"
        }
      ],
      "name": "getBidderBids",
      "outputs": [
        {
          "internalType": "uint256[]",
          "name": "",
          "type": "uint256[]"
        }
      ],
      "payable": false,
      "stateMutability": "view",
      "type": "function"
    },
    {
      "constant": true,
      "inputs": [],
      "name": "getBlockTime",
      "outputs": [
        {
          "internalType": "uint256",
          "name": "",
          "type": "uint256"
        }
      ],
      "payable": false,
      "stateMutability": "view",
      "type": "function"
    },
    {
      "constant": false,
      "inputs": [
        {
          "internalType": "uint256",
          "name": "_auction_Id",
          "type": "uint256"
        }
      ],
      "name": "getAuctionStatus",
      "outputs": [
        {
          "internalType": "uint256",
          "name": "",
          "type": "uint256"
        }
      ],
      "payable": false,
      "stateMutability": "nonpayable",
      "type": "function"
    },
    {
      "constant": false,
      "inputs": [
        {
          "internalType": "uint256",
          "name": "_publication_Id",
          "type": "uint256"
        },
        {
          "internalType": "uint256",
          "name": "_newStartTime",
          "type": "uint256"
        }
      ],
      "name": "updateAuctionStartTime",
      "outputs": [],
      "payable": false,
      "stateMutability": "nonpayable",
      "type": "function"
    },
    {
      "constant": true,
      "inputs": [
        {
          "internalType": "uint256",
          "name": "_publication_Id",
          "type": "uint256"
        }
      ],
      "name": "getPublicationBids",
      "outputs": [
        {
          "internalType": "uint256[]",
          "name": "",
          "type": "uint256[]"
        }
      ],
      "payable": false,
      "stateMutability": "view",
      "type": "function"
    },
    {
      "constant": true,
      "inputs": [
        {
          "internalType": "uint256",
          "name": "_bid_Id",
          "type": "uint256"
        }
      ],
      "name": "getBid",
      "outputs": [
        {
          "internalType": "bytes32",
          "name": "",
          "type": "bytes32"
        },
        {
          "internalType": "uint256",
          "name": "",
          "type": "uint256"
        },
        {
          "internalType": "uint256",
          "name": "",
          "type": "uint256"
        },
        {
          "internalType": "uint8",
          "name": "",
          "type": "uint8"
        },
        {
          "internalType": "uint256",
          "name": "",
          "type": "uint256"
        },
        {
          "internalType": "uint256",
          "name": "",
          "type": "uint256"
        },
        {
          "internalType": "uint256",
          "name": "",
          "type": "uint256"
        }
      ],
      "payable": false,
      "stateMutability": "view",
      "type": "function"
    },
    {
      "constant": true,
      "inputs": [
        {
          "internalType": "uint256",
          "name": "_publication_Id",
          "type": "uint256"
        }
      ],
      "name": "getPublicationAuctionBidLength",
      "outputs": [
        {
          "internalType": "uint256",
          "name": "",
          "type": "uint256"
        }
      ],
      "payable": false,
      "stateMutability": "view",
      "type": "function"
    },
    {
      "constant": true,
      "inputs": [
        {
          "internalType": "uint256",
          "name": "tokenId",
          "type": "uint256"
        }
      ],
      "name": "ownerOf",
      "outputs": [
        {
          "internalType": "address",
          "name": "",
          "type": "address"
        }
      ],
      "payable": false,
      "stateMutability": "view",
      "type": "function"
    }
  ],
  "bytecode": "0x608060405261574c806100136000396000f3fe608060405234801561001057600080fd5b50600436106102325760003560e01c80637765c52c116101305780639dccae82116100b8578063e06e0e221161007c578063e06e0e22146112e8578063e808386314611381578063ec297be6146113c3578063fbd9d2eb146113fb578063ff42e8791461147e57610232565b80639dccae8214610f3b578063a564e83c14610fd4578063a8020ee71461117c578063ad61ccd514611215578063b3208f121461129857610232565b806383947ea0116100ff57806383947ea014610c3357806387ceff0914610df4578063897f1e4a14610e1257806390d976e214610e955780639ae001ff14610f0357610232565b80637765c52c14610b3c5780637ece03bb14610b7e57806380274db714610b9c5780638129fc1c14610c2957610232565b80632207fc6a116101be578063522b0e2311610182578063522b0e23146109105780635bc2ff78146109935780636352211e146109b5578063704f1b9414610a2357806374e861d614610af257610232565b80632207fc6a146106d25780632cedebee146107325780633c889e6f146107825780633e764604146107f457806351a353491461087757610232565b806313af40351161020557806313af4035146103065780631459457a1461034a57806314b37f581461040e5780631aa5b7e914610631578063207f29371461064f57610232565b806304686b4a146102375780630cdd53f61461024157806311fcd546146102795780631220e2ff146102fc575b600080fd5b61023f6114c0565b005b6102776004803603604081101561025757600080fd5b8101908080359060200190929190803590602001909291905050506114c2565b005b6102a56004803603602081101561028f57600080fd5b8101908080359060200190929190505050611bba565b6040518080602001828103825283818151815260200191508051906020019060200280838360005b838110156102e85780820151818401526020810190506102cd565b505050509050019250505060405180910390f35b610304611d0b565b005b6103486004803603602081101561031c57600080fd5b81019080803573ffffffffffffffffffffffffffffffffffffffff169060200190929190505050611d2a565b005b61040c600480360360a081101561036057600080fd5b81019080803573ffffffffffffffffffffffffffffffffffffffff169060200190929190803573ffffffffffffffffffffffffffffffffffffffff169060200190929190803573ffffffffffffffffffffffffffffffffffffffff169060200190929190803573ffffffffffffffffffffffffffffffffffffffff169060200190929190803573ffffffffffffffffffffffffffffffffffffffff169060200190929190505050611e14565b005b61062f600480360361012081101561042557600080fd5b81019080803560ff1690602001909291908035906020019064010000000081111561044f57600080fd5b82018360208201111561046157600080fd5b8035906020019184600183028401116401000000008311171561048357600080fd5b91908080601f016020809104026020016040519081016040528093929190818152602001838380828437600081840152601f19601f82011690508083019250505050505050919291929080359060200190929190803590602001909291908035906020019092919080359060200190929190803590602001909291908035906020019064010000000081111561051857600080fd5b82018360208201111561052a57600080fd5b8035906020019184602083028401116401000000008311171561054c57600080fd5b919080806020026020016040519081016040528093929190818152602001838360200280828437600081840152601f19601f820116905080830192505050505050509192919290803590602001906401000000008111156105ac57600080fd5b8201836020820111156105be57600080fd5b803590602001918460208302840111640100000000831117156105e057600080fd5b919080806020026020016040519081016040528093929190818152602001838360200280828437600081840152601f19601f8201169050808301925050505050505091929192905050506120a6565b005b61063961247b565b6040518082815260200191505060405180910390f35b61067b6004803603602081101561066557600080fd5b81019080803590602001909291905050506125d8565b6040518080602001828103825283818151815260200191508051906020019060200280838360005b838110156106be5780820151818401526020810190506106a3565b505050509050019250505060405180910390f35b61071c600480360360808110156106e857600080fd5b8101908080359060200190929190803590602001909291908035906020019092919080359060200190929190505050612729565b6040518082815260200191505060405180910390f35b61075e6004803603602081101561074857600080fd5b810190808035906020019092919050505061289f565b60405180848152602001838152602001828152602001935050505060405180910390f35b6107ae6004803603602081101561079857600080fd5b8101908080359060200190929190505050612973565b604051808881526020018781526020018681526020018560ff1660ff16815260200184815260200183815260200182815260200197505050505050505060405180910390f35b6108206004803603602081101561080a57600080fd5b8101908080359060200190929190505050612a81565b6040518080602001828103825283818151815260200191508051906020019060200280838360005b83811015610863578082015181840152602081019050610848565b505050509050019250505060405180910390f35b6108b96004803603602081101561088d57600080fd5b81019080803573ffffffffffffffffffffffffffffffffffffffff169060200190929190505050612c85565b6040518080602001828103825283818151815260200191508051906020019060200280838360005b838110156108fc5780820151818401526020810190506108e1565b505050509050019250505060405180910390f35b61093c6004803603602081101561092657600080fd5b8101908080359060200190929190505050612eb5565b6040518080602001828103825283818151815260200191508051906020019060200280838360005b8381101561097f578082015181840152602081019050610964565b505050509050019250505060405180910390f35b61099b613006565b604051808215151515815260200191505060405180910390f35b6109e1600480360360208110156109cb57600080fd5b81019080803590602001909291905050506130e7565b604051808273ffffffffffffffffffffffffffffffffffffffff1673ffffffffffffffffffffffffffffffffffffffff16815260200191505060405180910390f35b610adc60048036036020811015610a3957600080fd5b8101908080359060200190640100000000811115610a5657600080fd5b820183602082011115610a6857600080fd5b80359060200191846001830284011164010000000083111715610a8a57600080fd5b91908080601f016020809104026020016040519081016040528093929190818152602001838380828437600081840152601f19601f82011690508083019250505050505050919291929050505061319e565b6040518082815260200191505060405180910390f35b610afa6132f5565b604051808273ffffffffffffffffffffffffffffffffffffffff1673ffffffffffffffffffffffffffffffffffffffff16815260200191505060405180910390f35b610b6860048036036020811015610b5257600080fd5b810190808035906020019092919050505061331f565b6040518082815260200191505060405180910390f35b610b866133e3565b6040518082815260200191505060405180910390f35b610c1360048036036020811015610bb257600080fd5b8101908080359060200190640100000000811115610bcf57600080fd5b820183602082011115610be157600080fd5b80359060200191846001830284011164010000000083111715610c0357600080fd5b909192939192939050505061348d565b6040518082815260200191505060405180910390f35b610c3161356f565b005b610d726004803603610120811015610c4a57600080fd5b81019080803573ffffffffffffffffffffffffffffffffffffffff169060200190929190803573ffffffffffffffffffffffffffffffffffffffff16906020019092919080359060200190640100000000811115610ca757600080fd5b820183602082011115610cb957600080fd5b80359060200191846001830284011164010000000083111715610cdb57600080fd5b90919293919293908035906020019092919080359060200190929190803590602001909291908035906020019092919080359060200190640100000000811115610d2457600080fd5b820183602082011115610d3657600080fd5b80359060200191846001830284011164010000000083111715610d5857600080fd5b9091929391929390803590602001909291905050506136ce565b6040518083815260200180602001828103825283818151815260200191508051906020019080838360005b83811015610db8578082015181840152602081019050610d9d565b50505050905090810190601f168015610de55780820380516001836020036101000a031916815260200191505b50935050505060405180910390f35b610dfc6136ee565b6040518082815260200191505060405180910390f35b610e3e60048036036020811015610e2857600080fd5b81019080803590602001909291905050506136f6565b6040518080602001828103825283818151815260200191508051906020019060200280838360005b83811015610e81578082015181840152602081019050610e66565b505050509050019250505060405180910390f35b610ec160048036036020811015610eab57600080fd5b8101908080359060200190929190505050613847565b604051808273ffffffffffffffffffffffffffffffffffffffff1673ffffffffffffffffffffffffffffffffffffffff16815260200191505060405180910390f35b610f3960048036036040811015610f1957600080fd5b8101908080359060200190929190803590602001909291905050506138fe565b005b610f7d60048036036020811015610f5157600080fd5b81019080803573ffffffffffffffffffffffffffffffffffffffff169060200190929190505050613b5c565b6040518080602001828103825283818151815260200191508051906020019060200280838360005b83811015610fc0578082015181840152602081019050610fa5565b505050509050019250505060405180910390f35b61100060048036036020811015610fea57600080fd5b8101908080359060200190929190505050613d8c565b604051808a60ff1660ff1681526020018060200189815260200188815260200187815260200186815260200180602001806020018060200185810385528d818151815260200191508051906020019080838360005b83811015611070578082015181840152602081019050611055565b50505050905090810190601f16801561109d5780820380516001836020036101000a031916815260200191505b50858103845288818151815260200191508051906020019060200280838360005b838110156110d95780820151818401526020810190506110be565b50505050905001858103835287818151815260200191508051906020019060200280838360005b8381101561111b578082015181840152602081019050611100565b50505050905001858103825286818151815260200191508051906020019060200280838360005b8381101561115d578082015181840152602081019050611142565b505050509050019d505050505050505050505050505060405180910390f35b6111be6004803603602081101561119257600080fd5b81019080803573ffffffffffffffffffffffffffffffffffffffff169060200190929190505050614112565b6040518080602001828103825283818151815260200191508051906020019060200280838360005b838110156112015780820151818401526020810190506111e6565b505050509050019250505060405180910390f35b61121d614203565b6040518080602001828103825283818151815260200191508051906020019080838360005b8381101561125d578082015181840152602081019050611242565b50505050905090810190601f16801561128a5780820380516001836020036101000a031916815260200191505b509250505060405180910390f35b6112ce600480360360408110156112ae57600080fd5b810190808035906020019092919080359060200190929190505050614240565b604051808215151515815260200191505060405180910390f35b61137f600480360360808110156112fe57600080fd5b810190808035906020019064010000000081111561131b57600080fd5b82018360208201111561132d57600080fd5b8035906020019184600183028401116401000000008311171561134f57600080fd5b90919293919293908035151590602001909291908035906020019092919080359060200190929190505050614339565b005b6113ad6004803603602081101561139757600080fd5b810190808035906020019092919050505061441b565b6040518082815260200191505060405180910390f35b6113f9600480360360408110156113d957600080fd5b810190808035906020019092919080359060200190929190505050614f82565b005b6114276004803603602081101561141157600080fd5b8101908080359060200190929190505050615107565b6040518080602001828103825283818151815260200191508051906020019060200280838360005b8381101561146a57808201518184015260208101905061144f565b505050509050019250505060405180910390f35b6114aa6004803603602081101561149457600080fd5b8101908080359060200190929190505050615258565b6040518082815260200191505060405180910390f35b565b6000603760009054906101000a900473ffffffffffffffffffffffffffffffffffffffff1673ffffffffffffffffffffffffffffffffffffffff166310a6d0d5846040518263ffffffff1660e01b81526004018082815260200191505060206040518083038186803b15801561153757600080fd5b505afa15801561154b573d6000803e3d6000fd5b505050506040513d602081101561156157600080fd5b810190808051906020019092919050505090506000603860009054906101000a900473ffffffffffffffffffffffffffffffffffffffff1673ffffffffffffffffffffffffffffffffffffffff166390d976e2836040518263ffffffff1660e01b81526004018082815260200191505060206040518083038186803b1580156115e957600080fd5b505afa1580156115fd573d6000803e3d6000fd5b505050506040513d602081101561161357600080fd5b81019080805190602001909291905050509050606080603760009054906101000a900473ffffffffffffffffffffffffffffffffffffffff1673ffffffffffffffffffffffffffffffffffffffff16639d273ddc876040518263ffffffff1660e01b81526004018082815260200191505060006040518083038186803b15801561169c57600080fd5b505afa1580156116b0573d6000803e3d6000fd5b505050506040513d6000823e3d601f19601f8201168201806040525060408110156116da57600080fd5b81019080805160405193929190846401000000008211156116fa57600080fd5b8382019150602082018581111561171057600080fd5b825186602082028301116401000000008211171561172d57600080fd5b8083526020830192505050908051906020019060200280838360005b83811015611764578082015181840152602081019050611749565b505050509050016040526020018051604051939291908464010000000082111561178d57600080fd5b838201915060208201858111156117a357600080fd5b82518660208202830111640100000000821117156117c057600080fd5b8083526020830192505050908051906020019060200280838360005b838110156117f75780820151818401526020810190506117dc565b50505050905001604052505050915091506060603860009054906101000a900473ffffffffffffffffffffffffffffffffffffffff1673ffffffffffffffffffffffffffffffffffffffff16637f4f2e84846040518263ffffffff1660e01b81526004018080602001828103825283818151815260200191508051906020019060200280838360005b8381101561189b578082015181840152602081019050611880565b505050509050019250505060006040518083038186803b1580156118be57600080fd5b505afa1580156118d2573d6000803e3d6000fd5b505050506040513d6000823e3d601f19601f8201168201806040525060208110156118fc57600080fd5b810190808051604051939291908464010000000082111561191c57600080fd5b8382019150602082018581111561193257600080fd5b825186602082028301116401000000008211171561194f57600080fd5b8083526020830192505050908051906020019060200280838360005b8381101561198657808201518184015260208101905061196b565b505050509050016040525050509050603960009054906101000a900473ffffffffffffffffffffffffffffffffffffffff1673ffffffffffffffffffffffffffffffffffffffff1663841aee53338684868b6040518663ffffffff1660e01b8152600401808673ffffffffffffffffffffffffffffffffffffffff1673ffffffffffffffffffffffffffffffffffffffff1681526020018573ffffffffffffffffffffffffffffffffffffffff1673ffffffffffffffffffffffffffffffffffffffff1681526020018060200180602001848152602001838103835286818151815260200191508051906020019060200280838360005b83811015611a98578082015181840152602081019050611a7d565b50505050905001838103825285818151815260200191508051906020019060200280838360005b83811015611ada578082015181840152602081019050611abf565b50505050905001975050505050505050602060405180830381600087803b158015611b0457600080fd5b505af1158015611b18573d6000803e3d6000fd5b505050506040513d6020811015611b2e57600080fd5b8101908080519060200190929190505050611bb1576040517f08c379a000000000000000000000000000000000000000000000000000000000815260040180806020018281038252601e8152602001807f42756c6b2061756374696f6e20736574746c656d656e74206661696c6564000081525060200191505060405180910390fd5b50505050505050565b6060603760009054906101000a900473ffffffffffffffffffffffffffffffffffffffff1673ffffffffffffffffffffffffffffffffffffffff1663f88e44a3836040518263ffffffff1660e01b81526004018082815260200191505060006040518083038186803b158015611c2f57600080fd5b505afa158015611c43573d6000803e3d6000fd5b505050506040513d6000823e3d601f19601f820116820180604052506020811015611c6d57600080fd5b8101908080516040519392919084640100000000821115611c8d57600080fd5b83820191506020820185811115611ca357600080fd5b8251866020820283011164010000000082111715611cc057600080fd5b8083526020830192505050908051906020019060200280838360005b83811015611cf7578082015181840152602081019050611cdc565b505050509050016040525050509050919050565b611d2873d216153c06e857cd7f72665e0af1d7d82172f4946153c1565b565b3373ffffffffffffffffffffffffffffffffffffffff16603460009054906101000a900473ffffffffffffffffffffffffffffffffffffffff1673ffffffffffffffffffffffffffffffffffffffff1614611dd0576040517f08c379a00000000000000000000000000000000000000000000000000000000081526004018080602001828103825260278152602001806156cd6027913960400191505060405180910390fd5b80603460006101000a81548173ffffffffffffffffffffffffffffffffffffffff021916908373ffffffffffffffffffffffffffffffffffffffff16021790555050565b600060019054906101000a900460ff1680611e335750611e32615592565b5b80611e4a57506000809054906101000a900460ff16155b611e9f576040517f08c379a000000000000000000000000000000000000000000000000000000000815260040180806020018281038252602e815260200180615672602e913960400191505060405180910390fd5b60008060019054906101000a900460ff161590508015611eef576001600060016101000a81548160ff02191690831515021790555060016000806101000a81548160ff0219169083151502179055505b33603460006101000a81548173ffffffffffffffffffffffffffffffffffffffff021916908373ffffffffffffffffffffffffffffffffffffffff160217905550611f3861356f565b85603560006101000a81548173ffffffffffffffffffffffffffffffffffffffff021916908373ffffffffffffffffffffffffffffffffffffffff16021790555084603660006101000a81548173ffffffffffffffffffffffffffffffffffffffff021916908373ffffffffffffffffffffffffffffffffffffffff16021790555083603760006101000a81548173ffffffffffffffffffffffffffffffffffffffff021916908373ffffffffffffffffffffffffffffffffffffffff16021790555082603860006101000a81548173ffffffffffffffffffffffffffffffffffffffff021916908373ffffffffffffffffffffffffffffffffffffffff16021790555081603960006101000a81548173ffffffffffffffffffffffffffffffffffffffff021916908373ffffffffffffffffffffffffffffffffffffffff160217905550801561209e5760008060016101000a81548160ff0219169083151502179055505b505050505050565b6120ae613006565b612103576040517f08c379a00000000000000000000000000000000000000000000000000000000081526004018080602001828103825260338152602001806155e56033913960400191505060405180910390fd5b600061210d61247b565b90506000603760009054906101000a900473ffffffffffffffffffffffffffffffffffffffff1673ffffffffffffffffffffffffffffffffffffffff1663497e192e8c8c858a8a8a8a6040518863ffffffff1660e01b8152600401808860ff1660ff16815260200180602001878152602001868152602001858152602001806020018060200184810384528a818151815260200191508051906020019080838360005b838110156121cb5780820151818401526020810190506121b0565b50505050905090810190601f1680156121f85780820380516001836020036101000a031916815260200191505b50848103835286818151815260200191508051906020019060200280838360005b83811015612234578082015181840152602081019050612219565b50505050905001848103825285818151815260200191508051906020019060200280838360005b8381101561227657808201518184015260208101905061225b565b505050509050019a5050505050505050505050602060405180830381600087803b1580156122a357600080fd5b505af11580156122b7573d6000803e3d6000fd5b505050506040513d60208110156122cd57600080fd5b810190808051906020019092919050505090506001808111156122ec57fe5b8b60ff1660018111156122fb57fe5b600181111561230657fe5b1461246e576000603560009054906101000a900473ffffffffffffffffffffffffffffffffffffffff1673ffffffffffffffffffffffffffffffffffffffff1663b8f4e5a5838c8c8c6040518563ffffffff1660e01b815260040180858152602001848152602001838152602001828152602001945050505050602060405180830381600087803b15801561239a57600080fd5b505af11580156123ae573d6000803e3d6000fd5b505050506040513d60208110156123c457600080fd5b81019080805190602001909291905050509050603760009054906101000a900473ffffffffffffffffffffffffffffffffffffffff1673ffffffffffffffffffffffffffffffffffffffff1663f8290cde83836040518363ffffffff1660e01b81526004018083815260200182815260200192505050600060405180830381600087803b15801561245457600080fd5b505af1158015612468573d6000803e3d6000fd5b50505050505b5050505050505050505050565b600080603860009054906101000a900473ffffffffffffffffffffffffffffffffffffffff1673ffffffffffffffffffffffffffffffffffffffff16632b956ff7336040518263ffffffff1660e01b8152600401808273ffffffffffffffffffffffffffffffffffffffff1673ffffffffffffffffffffffffffffffffffffffff16815260200191505060206040518083038186803b15801561251d57600080fd5b505afa158015612531573d6000803e3d6000fd5b505050506040513d602081101561254757600080fd5b8101908080519060200190929190505050905060008114156125d1576040517f08c379a00000000000000000000000000000000000000000000000000000000081526004018080602001828103825260198152602001807f43616c6c6572206973206e6f742072656769737465726564210000000000000081525060200191505060405180910390fd5b8091505090565b6060603760009054906101000a900473ffffffffffffffffffffffffffffffffffffffff1673ffffffffffffffffffffffffffffffffffffffff1663207f2937836040518263ffffffff1660e01b81526004018082815260200191505060006040518083038186803b15801561264d57600080fd5b505afa158015612661573d6000803e3d6000fd5b505050506040513d6000823e3d601f19601f82011682018060405250602081101561268b57600080fd5b81019080805160405193929190846401000000008211156126ab57600080fd5b838201915060208201858111156126c157600080fd5b82518660208202830111640100000000821117156126de57600080fd5b8083526020830192505050908051906020019060200280838360005b838110156127155780820151818401526020810190506126fa565b505050509050016040525050509050919050565b600080603760009054906101000a900473ffffffffffffffffffffffffffffffffffffffff1673ffffffffffffffffffffffffffffffffffffffff16636c6167c6856040518263ffffffff1660e01b81526004018082815260200191505060206040518083038186803b15801561279f57600080fd5b505afa1580156127b3573d6000803e3d6000fd5b505050506040513d60208110156127c957600080fd5b8101908080519060200190929190505050905060006127e661247b565b9050603560009054906101000a900473ffffffffffffffffffffffffffffffffffffffff1673ffffffffffffffffffffffffffffffffffffffff166394d0f15e88888588866040518663ffffffff1660e01b81526004018086815260200185815260200184815260200183815260200182815260200195505050505050600060405180830381600087803b15801561287d57600080fd5b505af1158015612891573d6000803e3d6000fd5b505050505050949350505050565b6000806000603660009054906101000a900473ffffffffffffffffffffffffffffffffffffffff1673ffffffffffffffffffffffffffffffffffffffff16632cedebee856040518263ffffffff1660e01b81526004018082815260200191505060606040518083038186803b15801561291757600080fd5b505afa15801561292b573d6000803e3d6000fd5b505050506040513d606081101561294157600080fd5b810190808051906020019092919080519060200190929190805190602001909291905050509250925092509193909250565b6000806000806000806000603560009054906101000a900473ffffffffffffffffffffffffffffffffffffffff1673ffffffffffffffffffffffffffffffffffffffff16633c889e6f896040518263ffffffff1660e01b81526004018082815260200191505060e06040518083038186803b1580156129f157600080fd5b505afa158015612a05573d6000803e3d6000fd5b505050506040513d60e0811015612a1b57600080fd5b81019080805190602001909291908051906020019092919080519060200190929190805190602001909291908051906020019092919080519060200190929190805190602001909291905050509650965096509650965096509650919395979092949650565b60606000603760009054906101000a900473ffffffffffffffffffffffffffffffffffffffff1673ffffffffffffffffffffffffffffffffffffffff16636c6167c6846040518263ffffffff1660e01b81526004018082815260200191505060206040518083038186803b158015612af857600080fd5b505afa158015612b0c573d6000803e3d6000fd5b505050506040513d6020811015612b2257600080fd5b81019080805190602001909291905050509050603560009054906101000a900473ffffffffffffffffffffffffffffffffffffffff1673ffffffffffffffffffffffffffffffffffffffff166370b4768e826040518263ffffffff1660e01b81526004018082815260200191505060006040518083038186803b158015612ba857600080fd5b505afa158015612bbc573d6000803e3d6000fd5b505050506040513d6000823e3d601f19601f820116820180604052506020811015612be657600080fd5b8101908080516040519392919084640100000000821115612c0657600080fd5b83820191506020820185811115612c1c57600080fd5b8251866020820283011164010000000082111715612c3957600080fd5b8083526020830192505050908051906020019060200280838360005b83811015612c70578082015181840152602081019050612c55565b50505050905001604052505050915050919050565b60606000603860009054906101000a900473ffffffffffffffffffffffffffffffffffffffff1673ffffffffffffffffffffffffffffffffffffffff16632b956ff7846040518263ffffffff1660e01b8152600401808273ffffffffffffffffffffffffffffffffffffffff1673ffffffffffffffffffffffffffffffffffffffff16815260200191505060206040518083038186803b158015612d2857600080fd5b505afa158015612d3c573d6000803e3d6000fd5b505050506040513d6020811015612d5257600080fd5b81019080805190602001909291905050509050603760009054906101000a900473ffffffffffffffffffffffffffffffffffffffff1673ffffffffffffffffffffffffffffffffffffffff1663f88e44a3826040518263ffffffff1660e01b81526004018082815260200191505060006040518083038186803b158015612dd857600080fd5b505afa158015612dec573d6000803e3d6000fd5b505050506040513d6000823e3d601f19601f820116820180604052506020811015612e1657600080fd5b8101908080516040519392919084640100000000821115612e3657600080fd5b83820191506020820185811115612e4c57600080fd5b8251866020820283011164010000000082111715612e6957600080fd5b8083526020830192505050908051906020019060200280838360005b83811015612ea0578082015181840152602081019050612e85565b50505050905001604052505050915050919050565b6060603660009054906101000a900473ffffffffffffffffffffffffffffffffffffffff1673ffffffffffffffffffffffffffffffffffffffff16639787bb41836040518263ffffffff1660e01b81526004018082815260200191505060006040518083038186803b158015612f2a57600080fd5b505afa158015612f3e573d6000803e3d6000fd5b505050506040513d6000823e3d601f19601f820116820180604052506020811015612f6857600080fd5b8101908080516040519392919084640100000000821115612f8857600080fd5b83820191506020820185811115612f9e57600080fd5b8251866020820283011164010000000082111715612fbb57600080fd5b8083526020830192505050908051906020019060200280838360005b83811015612ff2578082015181840152602081019050612fd7565b505050509050016040525050509050919050565b6000603860009054906101000a900473ffffffffffffffffffffffffffffffffffffffff1673ffffffffffffffffffffffffffffffffffffffff166338b6a3a1336040518263ffffffff1660e01b8152600401808273ffffffffffffffffffffffffffffffffffffffff1673ffffffffffffffffffffffffffffffffffffffff16815260200191505060206040518083038186803b1580156130a757600080fd5b505afa1580156130bb573d6000803e3d6000fd5b505050506040513d60208110156130d157600080fd5b8101908080519060200190929190505050905090565b6000603660009054906101000a900473ffffffffffffffffffffffffffffffffffffffff1673ffffffffffffffffffffffffffffffffffffffff16636352211e836040518263ffffffff1660e01b81526004018082815260200191505060206040518083038186803b15801561315c57600080fd5b505afa158015613170573d6000803e3d6000fd5b505050506040513d602081101561318657600080fd5b81019080805190602001909291905050509050919050565b600080603860009054906101000a900473ffffffffffffffffffffffffffffffffffffffff1673ffffffffffffffffffffffffffffffffffffffff16636ec3877f84336040518363ffffffff1660e01b815260040180806020018373ffffffffffffffffffffffffffffffffffffffff1673ffffffffffffffffffffffffffffffffffffffff168152602001828103825284818151815260200191508051906020019080838360005b83811015613262578082015181840152602081019050613247565b50505050905090810190601f16801561328f5780820380516001836020036101000a031916815260200191505b509350505050602060405180830381600087803b1580156132af57600080fd5b505af11580156132c3573d6000803e3d6000fd5b505050506040513d60208110156132d957600080fd5b8101908080519060200190929190505050905080915050919050565b6000603360009054906101000a900473ffffffffffffffffffffffffffffffffffffffff16905090565b6000603560009054906101000a900473ffffffffffffffffffffffffffffffffffffffff1673ffffffffffffffffffffffffffffffffffffffff16637765c52c836040518263ffffffff1660e01b815260040180828152602001915050602060405180830381600087803b15801561339657600080fd5b505af11580156133aa573d6000803e3d6000fd5b505050506040513d60208110156133c057600080fd5b810190808051906020019092919050505060038111156133dc57fe5b9050919050565b6000603760009054906101000a900473ffffffffffffffffffffffffffffffffffffffff1673ffffffffffffffffffffffffffffffffffffffff16637ece03bb6040518163ffffffff1660e01b815260040160206040518083038186803b15801561344d57600080fd5b505afa158015613461573d6000803e3d6000fd5b505050506040513d602081101561347757600080fd5b8101908080519060200190929190505050905090565b60006134976132f5565b73ffffffffffffffffffffffffffffffffffffffff163373ffffffffffffffffffffffffffffffffffffffff161461351a576040517f08c379a00000000000000000000000000000000000000000000000000000000081526004018080602001828103825260248152602001806156f46024913960400191505060405180910390fd5b61356783838080601f016020809104026020016040519081016040528093929190818152602001838380828437600081840152601f19601f820116905080830192505050505050506155a3565b905092915050565b600060019054906101000a900460ff168061358e575061358d615592565b5b806135a557506000809054906101000a900460ff16155b6135fa576040517f08c379a000000000000000000000000000000000000000000000000000000000815260040180806020018281038252602e815260200180615672602e913960400191505060405180910390fd5b60008060019054906101000a900460ff16159050801561364a576001600060016101000a81548160ff02191690831515021790555060016000806101000a81548160ff0219169083151502179055505b600073ffffffffffffffffffffffffffffffffffffffff16603360009054906101000a900473ffffffffffffffffffffffffffffffffffffffff1673ffffffffffffffffffffffffffffffffffffffff1614156136aa576136a9611d0b565b5b80156136cb5760008060016101000a81548160ff0219169083151502179055505b50565b600060606136da6155aa565b915091509b509b9950505050505050505050565b600042905090565b6060603560009054906101000a900473ffffffffffffffffffffffffffffffffffffffff1673ffffffffffffffffffffffffffffffffffffffff1663897f1e4a836040518263ffffffff1660e01b81526004018082815260200191505060006040518083038186803b15801561376b57600080fd5b505afa15801561377f573d6000803e3d6000fd5b505050506040513d6000823e3d601f19601f8201168201806040525060208110156137a957600080fd5b81019080805160405193929190846401000000008211156137c957600080fd5b838201915060208201858111156137df57600080fd5b82518660208202830111640100000000821117156137fc57600080fd5b8083526020830192505050908051906020019060200280838360005b83811015613833578082015181840152602081019050613818565b505050509050016040525050509050919050565b6000603860009054906101000a900473ffffffffffffffffffffffffffffffffffffffff1673ffffffffffffffffffffffffffffffffffffffff166390d976e2836040518263ffffffff1660e01b81526004018082815260200191505060206040518083038186803b1580156138bc57600080fd5b505afa1580156138d0573d6000803e3d6000fd5b505050506040513d60208110156138e657600080fd5b81019080805190602001909291905050509050919050565b600061390861247b565b9050603760009054906101000a900473ffffffffffffffffffffffffffffffffffffffff1673ffffffffffffffffffffffffffffffffffffffff166310a6d0d5846040518263ffffffff1660e01b81526004018082815260200191505060206040518083038186803b15801561397d57600080fd5b505afa158015613991573d6000803e3d6000fd5b505050506040513d60208110156139a757600080fd5b81019080805190602001909291905050508114613a0f576040517f08c379a000000000000000000000000000000000000000000000000000000000815260040180806020018281038252602c815260200180615646602c913960400191505060405180910390fd5b6000603760009054906101000a900473ffffffffffffffffffffffffffffffffffffffff1673ffffffffffffffffffffffffffffffffffffffff16636c6167c6856040518263ffffffff1660e01b81526004018082815260200191505060206040518083038186803b158015613a8457600080fd5b505afa158015613a98573d6000803e3d6000fd5b505050506040513d6020811015613aae57600080fd5b81019080805190602001909291905050509050603560009054906101000a900473ffffffffffffffffffffffffffffffffffffffff1673ffffffffffffffffffffffffffffffffffffffff16639ae001ff82856040518363ffffffff1660e01b81526004018083815260200182815260200192505050600060405180830381600087803b158015613b3e57600080fd5b505af1158015613b52573d6000803e3d6000fd5b5050505050505050565b60606000603860009054906101000a900473ffffffffffffffffffffffffffffffffffffffff1673ffffffffffffffffffffffffffffffffffffffff16632b956ff7846040518263ffffffff1660e01b8152600401808273ffffffffffffffffffffffffffffffffffffffff1673ffffffffffffffffffffffffffffffffffffffff16815260200191505060206040518083038186803b158015613bff57600080fd5b505afa158015613c13573d6000803e3d6000fd5b505050506040513d6020811015613c2957600080fd5b81019080805190602001909291905050509050603560009054906101000a900473ffffffffffffffffffffffffffffffffffffffff1673ffffffffffffffffffffffffffffffffffffffff1663897f1e4a826040518263ffffffff1660e01b81526004018082815260200191505060006040518083038186803b158015613caf57600080fd5b505afa158015613cc3573d6000803e3d6000fd5b505050506040513d6000823e3d601f19601f820116820180604052506020811015613ced57600080fd5b8101908080516040519392919084640100000000821115613d0d57600080fd5b83820191506020820185811115613d2357600080fd5b8251866020820283011164010000000082111715613d4057600080fd5b8083526020830192505050908051906020019060200280838360005b83811015613d77578082015181840152602081019050613d5c565b50505050905001604052505050915050919050565b600060606000806000806060806060603760009054906101000a900473ffffffffffffffffffffffffffffffffffffffff1673ffffffffffffffffffffffffffffffffffffffff1663a564e83c8b6040518263ffffffff1660e01b81526004018082815260200191505060006040518083038186803b158015613e0e57600080fd5b505afa158015613e22573d6000803e3d6000fd5b505050506040513d6000823e3d601f19601f82011682018060405250610120811015613e4d57600080fd5b810190808051906020019092919080516040519392919084640100000000821115613e7757600080fd5b83820191506020820185811115613e8d57600080fd5b8251866001820283011164010000000082111715613eaa57600080fd5b8083526020830192505050908051906020019080838360005b83811015613ede578082015181840152602081019050613ec3565b50505050905090810190601f168015613f0b5780820380516001836020036101000a031916815260200191505b506040526020018051906020019092919080519060200190929190805190602001909291908051906020019092919080516040519392919084640100000000821115613f5657600080fd5b83820191506020820185811115613f6c57600080fd5b8251866020820283011164010000000082111715613f8957600080fd5b8083526020830192505050908051906020019060200280838360005b83811015613fc0578082015181840152602081019050613fa5565b5050505090500160405260200180516040519392919084640100000000821115613fe957600080fd5b83820191506020820185811115613fff57600080fd5b825186602082028301116401000000008211171561401c57600080fd5b8083526020830192505050908051906020019060200280838360005b83811015614053578082015181840152602081019050614038565b505050509050016040526020018051604051939291908464010000000082111561407c57600080fd5b8382019150602082018581111561409257600080fd5b82518660208202830111640100000000821117156140af57600080fd5b8083526020830192505050908051906020019060200280838360005b838110156140e65780820151818401526020810190506140cb565b505050509050016040525050509850985098509850985098509850985098509193959799909294969850565b60606000603860009054906101000a900473ffffffffffffffffffffffffffffffffffffffff1673ffffffffffffffffffffffffffffffffffffffff16632b956ff7846040518263ffffffff1660e01b8152600401808273ffffffffffffffffffffffffffffffffffffffff1673ffffffffffffffffffffffffffffffffffffffff16815260200191505060206040518083038186803b1580156141b557600080fd5b505afa1580156141c9573d6000803e3d6000fd5b505050506040513d60208110156141df57600080fd5b810190808051906020019092919050505090506141fb81612eb5565b915050919050565b60606040518060400160405280600581526020017f312e302e30000000000000000000000000000000000000000000000000000000815250905090565b60008061424c84613847565b9050603960009054906101000a900473ffffffffffffffffffffffffffffffffffffffff1673ffffffffffffffffffffffffffffffffffffffff16637a3e00cd82856040518363ffffffff1660e01b8152600401808373ffffffffffffffffffffffffffffffffffffffff1673ffffffffffffffffffffffffffffffffffffffff1681526020018281526020019250505060206040518083038186803b1580156142f557600080fd5b505afa158015614309573d6000803e3d6000fd5b505050506040513d602081101561431f57600080fd5b810190808051906020019092919050505091505092915050565b6143416132f5565b73ffffffffffffffffffffffffffffffffffffffff163373ffffffffffffffffffffffffffffffffffffffff16146143c4576040517f08c379a00000000000000000000000000000000000000000000000000000000081526004018080602001828103825260248152602001806156f46024913960400191505060405180910390fd5b61441485858080601f016020809104026020016040519081016040528093929190818152602001838380828437600081840152601f19601f820116905080830192505050505050508484846155ce565b5050505050565b600080600080603560009054906101000a900473ffffffffffffffffffffffffffffffffffffffff1673ffffffffffffffffffffffffffffffffffffffff1663e8083863866040518263ffffffff1660e01b815260040180828152602001915050606060405180830381600087803b15801561449657600080fd5b505af11580156144aa573d6000803e3d6000fd5b505050506040513d60608110156144c057600080fd5b8101908080519060200190929190805190602001909291908051906020019092919050505092509250925060008311614561576040517f08c379a000000000000000000000000000000000000000000000000000000000815260040180806020018281038252601a8152602001807f496e76616c69642077696e6e696e672062696420616d6f756e7400000000000081525060200191505060405180910390fd5b600082116145d7576040517f08c379a00000000000000000000000000000000000000000000000000000000081526004018080602001828103825260168152602001807f496e76616c69642077696e6e696e67206269642049640000000000000000000081525060200191505060405180910390fd5b6000811161464d576040517f08c379a00000000000000000000000000000000000000000000000000000000081526004018080602001828103825260168152602001807f496e76616c6964207075626c69636174696f6e2049640000000000000000000081525060200191505060405180910390fd5b6000603760009054906101000a900473ffffffffffffffffffffffffffffffffffffffff1673ffffffffffffffffffffffffffffffffffffffff166310a6d0d5836040518263ffffffff1660e01b81526004018082815260200191505060206040518083038186803b1580156146c257600080fd5b505afa1580156146d6573d6000803e3d6000fd5b505050506040513d60208110156146ec57600080fd5b810190808051906020019092919050505090506000603860009054906101000a900473ffffffffffffffffffffffffffffffffffffffff1673ffffffffffffffffffffffffffffffffffffffff166390d976e2836040518263ffffffff1660e01b81526004018082815260200191505060206040518083038186803b15801561477457600080fd5b505afa158015614788573d6000803e3d6000fd5b505050506040513d602081101561479e57600080fd5b810190808051906020019092919050505090506000603860009054906101000a900473ffffffffffffffffffffffffffffffffffffffff1673ffffffffffffffffffffffffffffffffffffffff166390d976e2866040518263ffffffff1660e01b81526004018082815260200191505060206040518083038186803b15801561482657600080fd5b505afa15801561483a573d6000803e3d6000fd5b505050506040513d602081101561485057600080fd5b81019080805190602001909291905050509050606080603760009054906101000a900473ffffffffffffffffffffffffffffffffffffffff1673ffffffffffffffffffffffffffffffffffffffff16639d273ddc876040518263ffffffff1660e01b81526004018082815260200191505060006040518083038186803b1580156148d957600080fd5b505afa1580156148ed573d6000803e3d6000fd5b505050506040513d6000823e3d601f19601f82011682018060405250604081101561491757600080fd5b810190808051604051939291908464010000000082111561493757600080fd5b8382019150602082018581111561494d57600080fd5b825186602082028301116401000000008211171561496a57600080fd5b8083526020830192505050908051906020019060200280838360005b838110156149a1578082015181840152602081019050614986565b50505050905001604052602001805160405193929190846401000000008211156149ca57600080fd5b838201915060208201858111156149e057600080fd5b82518660208202830111640100000000821117156149fd57600080fd5b8083526020830192505050908051906020019060200280838360005b83811015614a34578082015181840152602081019050614a19565b50505050905001604052505050915091506060603860009054906101000a900473ffffffffffffffffffffffffffffffffffffffff1673ffffffffffffffffffffffffffffffffffffffff16637f4f2e84846040518263ffffffff1660e01b81526004018080602001828103825283818151815260200191508051906020019060200280838360005b83811015614ad8578082015181840152602081019050614abd565b505050509050019250505060006040518083038186803b158015614afb57600080fd5b505afa158015614b0f573d6000803e3d6000fd5b505050506040513d6000823e3d601f19601f820116820180604052506020811015614b3957600080fd5b8101908080516040519392919084640100000000821115614b5957600080fd5b83820191506020820185811115614b6f57600080fd5b8251866020820283011164010000000082111715614b8c57600080fd5b8083526020830192505050908051906020019060200280838360005b83811015614bc3578082015181840152602081019050614ba8565b505050509050016040525050509050603960009054906101000a900473ffffffffffffffffffffffffffffffffffffffff1673ffffffffffffffffffffffffffffffffffffffff1663841aee53858784868e6040518663ffffffff1660e01b8152600401808673ffffffffffffffffffffffffffffffffffffffff1673ffffffffffffffffffffffffffffffffffffffff1681526020018573ffffffffffffffffffffffffffffffffffffffff1673ffffffffffffffffffffffffffffffffffffffff1681526020018060200180602001848152602001838103835286818151815260200191508051906020019060200280838360005b83811015614cd5578082015181840152602081019050614cba565b50505050905001838103825285818151815260200191508051906020019060200280838360005b83811015614d17578082015181840152602081019050614cfc565b50505050905001975050505050505050602060405180830381600087803b158015614d4157600080fd5b505af1158015614d55573d6000803e3d6000fd5b505050506040513d6020811015614d6b57600080fd5b8101908080519060200190929190505050614dee576040517f08c379a000000000000000000000000000000000000000000000000000000000815260040180806020018281038252601e8152602001807f42756c6b2061756374696f6e20736574746c656d656e74206661696c6564000081525060200191505060405180910390fd5b6000603760009054906101000a900473ffffffffffffffffffffffffffffffffffffffff1673ffffffffffffffffffffffffffffffffffffffff1663755f538c896040518263ffffffff1660e01b815260040180828152602001915050602060405180830381600087803b158015614e6557600080fd5b505af1158015614e79573d6000803e3d6000fd5b505050506040513d6020811015614e8f57600080fd5b81019080805190602001909291905050509050603660009054906101000a900473ffffffffffffffffffffffffffffffffffffffff1673ffffffffffffffffffffffffffffffffffffffff1663af5485a8868b8b856040518563ffffffff1660e01b8152600401808573ffffffffffffffffffffffffffffffffffffffff1673ffffffffffffffffffffffffffffffffffffffff168152602001848152602001838152602001828152602001945050505050600060405180830381600087803b158015614f5b57600080fd5b505af1158015614f6f573d6000803e3d6000fd5b5050505050505050505050505050919050565b6000603760009054906101000a900473ffffffffffffffffffffffffffffffffffffffff1673ffffffffffffffffffffffffffffffffffffffff16636c6167c6836040518263ffffffff1660e01b81526004018082815260200191505060206040518083038186803b158015614ff757600080fd5b505afa15801561500b573d6000803e3d6000fd5b505050506040513d602081101561502157600080fd5b81019080805190602001909291905050509050600061503e61247b565b9050603560009054906101000a900473ffffffffffffffffffffffffffffffffffffffff1673ffffffffffffffffffffffffffffffffffffffff1663908e27eb8584846040518463ffffffff1660e01b8152600401808481526020018381526020018281526020019350505050602060405180830381600087803b1580156150c557600080fd5b505af11580156150d9573d6000803e3d6000fd5b505050506040513d60208110156150ef57600080fd5b81019080805190602001909291905050505050505050565b6060603660009054906101000a900473ffffffffffffffffffffffffffffffffffffffff1673ffffffffffffffffffffffffffffffffffffffff1663fbd9d2eb836040518263ffffffff1660e01b81526004018082815260200191505060006040518083038186803b15801561517c57600080fd5b505afa158015615190573d6000803e3d6000fd5b505050506040513d6000823e3d601f19601f8201168201806040525060208110156151ba57600080fd5b81019080805160405193929190846401000000008211156151da57600080fd5b838201915060208201858111156151f057600080fd5b825186602082028301116401000000008211171561520d57600080fd5b8083526020830192505050908051906020019060200280838360005b83811015615244578082015181840152602081019050615229565b505050509050016040525050509050919050565b600080603760009054906101000a900473ffffffffffffffffffffffffffffffffffffffff1673ffffffffffffffffffffffffffffffffffffffff16636c6167c6846040518263ffffffff1660e01b81526004018082815260200191505060206040518083038186803b1580156152ce57600080fd5b505afa1580156152e2573d6000803e3d6000fd5b505050506040513d60208110156152f857600080fd5b81019080805190602001909291905050509050603560009054906101000a900473ffffffffffffffffffffffffffffffffffffffff1673ffffffffffffffffffffffffffffffffffffffff16637a88dece826040518263ffffffff1660e01b81526004018082815260200191505060206040518083038186803b15801561537e57600080fd5b505afa158015615392573d6000803e3d6000fd5b505050506040513d60208110156153a857600080fd5b8101908080519060200190929190505050915050919050565b6000603360009054906101000a900473ffffffffffffffffffffffffffffffffffffffff169050600073ffffffffffffffffffffffffffffffffffffffff168273ffffffffffffffffffffffffffffffffffffffff16141561546e576040517f08c379a000000000000000000000000000000000000000000000000000000000815260040180806020018281038252602e815260200180615618602e913960400191505060405180910390fd5b8073ffffffffffffffffffffffffffffffffffffffff168273ffffffffffffffffffffffffffffffffffffffff1614156154f3576040517f08c379a000000000000000000000000000000000000000000000000000000000815260040180806020018281038252602d8152602001806156a0602d913960400191505060405180910390fd5b8173ffffffffffffffffffffffffffffffffffffffff168173ffffffffffffffffffffffffffffffffffffffff167fb9f84b8e65164b14439ae3620df0a4d8786d896996c0282b683f9d8c08f046e860405160405180910390a381603360006101000a81548173ffffffffffffffffffffffffffffffffffffffff021916908373ffffffffffffffffffffffffffffffffffffffff1602179055505050565b600080303b90506000811491505090565b6000919050565b600060606155c6604051806020016040528060008152506155d4565b915091509091565b50505050565b600060606000839150915091509156fe43616e74206372656174652061207075626c69636174696f6e20696620796f7520617265206e6f74207265676973746572656447534e526563697069656e743a206e65772052656c617948756220697320746865207a65726f20616464726573734f6e6c7920746865207075626c69736865722063616e206d6f64696679207468652073746172742074696d65436f6e747261637420696e7374616e63652068617320616c7265616479206265656e20696e697469616c697a656447534e526563697069656e743a206e65772052656c6179487562206973207468652063757272656e74206f6e654f6e6c79206f776e65722063616e206368616e676520746865206f776e6572206164647265737347534e526563697069656e743a2063616c6c6572206973206e6f742052656c6179487562a265627a7a723158200436370f5998d3793fd199e9efaa368e9985b4361f7c6fc7d40f62f2d323dc7964736f6c634300050c0032",
  "source": "pragma solidity ^0.5.12;\n\n/// @title UniCoin smart contract\n/// @author Chris Maree\n\nimport \"@openzeppelin/contracts-ethereum-package/contracts/GSN/GSNRecipient.sol\";\nimport \"@openzeppelin/upgrades/contracts/Initializable.sol\";\n\nimport \"./AuctionManager.sol\";\nimport \"./LicenceManager.sol\";\nimport \"./PublicationManager.sol\";\nimport \"./UserManager.sol\";\nimport \"./Vault.sol\";\n\ncontract UnicoinRegistry is Initializable, GSNRecipient {\n    address owner;\n\n    AuctionManager private auctionManager;\n    LicenceManager private licenceManager;\n    PublicationManager private publicationManager;\n    UserManager private userManager;\n    Vault private vault;\n\n    enum PricingStrategy {PrivateAuction, FixedRate}\n\n    function initialize(\n        address _auctionManager,\n        address _licenceManager,\n        address _publicationManager,\n        address _userManager,\n        address _vault\n    ) public initializer {\n        owner = msg.sender;\n\n        GSNRecipient.initialize();\n\n        auctionManager = AuctionManager(_auctionManager);\n        licenceManager = LicenceManager(_licenceManager);\n        publicationManager = PublicationManager(_publicationManager);\n        userManager = UserManager(_userManager);\n        vault = Vault(_vault);\n\n    }\n\n    // accept all requests\n    function acceptRelayedCall(\n        address,\n        address,\n        bytes calldata,\n        uint256,\n        uint256,\n        uint256,\n        uint256,\n        bytes calldata,\n        uint256\n    ) external view returns (uint256, bytes memory) {\n        return _approveRelayedCall();\n    }\n\n    function _preRelayedCall(bytes memory context) internal returns (bytes32) {\n        // solhint-disable-previous-line no-empty-blocks\n    }\n\n    function _postRelayedCall(\n        bytes memory context,\n        bool,\n        uint256 actualCharge,\n        bytes32\n    ) internal {\n        // solhint-disable-previous-line no-empty-blocks\n    }\n\n    function setOwner(address _owner) public {\n        require(owner == msg.sender, \"Only owner can change the owner address\");\n        owner = _owner;\n    }\n\n    function registerUser(string memory _profile_uri) public returns(uint256) {\n        uint256 user_Id = userManager._registerUser(_profile_uri, msg.sender);\n        return user_Id;\n    }\n    function createPublication(\n        uint8 _pricing_Strategy,\n        string memory _publication_uri,\n        uint256 _auctionFloor,\n        uint256 _auctionStartTime,\n        uint256 _auctionDuration,\n        uint256 _fixed_sell_price,\n        uint256 _maxNumberOfLicences,\n        uint256[] memory _contributors,\n        uint256[] memory _contributors_weightings\n    ) public {\n        require(\n            isCallerRegistered(),\n            \"Cant create a publication if you are not registered\"\n        );\n        uint256 author_id = getCallerId();\n        uint256 publicationId = publicationManager._createPublication(\n            _pricing_Strategy,\n            _publication_uri,\n            author_id,\n            _fixed_sell_price,\n            _maxNumberOfLicences,\n            _contributors,\n            _contributors_weightings\n        );\n\n        if (PricingStrategy(_pricing_Strategy) != PricingStrategy.FixedRate) {\n            uint256 auctionId = auctionManager._createAuction(\n                publicationId,\n                _auctionFloor,\n                _auctionStartTime,\n                _auctionDuration\n            );\n            publicationManager._addAuctionToPublication(\n                publicationId,\n                auctionId\n            );\n        }\n    }\n\n    function commitSealedBid(bytes32 _bidHash, uint256 _publication_Id) public {\n        uint256 auction_Id = publicationManager.getLatestAuctionId(\n            _publication_Id\n        );\n        uint256 bidder_Id = getCallerId();\n        auctionManager._commitSealedBid(_bidHash, auction_Id, bidder_Id);\n    }\n\n    function revealSealedBid(\n        uint256 _bid,\n        uint256 _salt,\n        uint256 _publication_Id,\n        uint256 _bid_Id\n    ) public returns (uint256) {\n        uint256 auction_Id = publicationManager.getLatestAuctionId(\n            _publication_Id\n        );\n        uint256 bidder_Id = getCallerId();\n        auctionManager.revealSealedBid(\n            _bid,\n            _salt,\n            auction_Id,\n            _bid_Id,\n            bidder_Id\n        );\n    }\n\n    function finalizeAuction(uint256 _auction_Id) public returns (uint256) {\n        (uint256 winningBidAmount, uint256 winningBiderId, uint256 publicationId) = auctionManager\n            .finalizeAuction(_auction_Id);\n\n        require(winningBidAmount > 0, \"Invalid winning bid amount\");\n        require(winningBiderId > 0, \"Invalid winning bid Id\");\n        require(publicationId > 0, \"Invalid publication Id\");\n\n        uint256 authorId = publicationManager.getAuthorId(publicationId);\n        address authorAddress = userManager.getUserAddress(authorId);\n        address winningBidderAddress = userManager.getUserAddress(\n            winningBiderId\n        );\n\n        (uint256[] memory contributorIds, uint256[] memory contributorWeightings) = publicationManager\n            ._getContributers(publicationId);\n\n        address[] memory contributorAddresses = userManager.getAddressArray(\n            contributorIds\n        );\n\n        require(\n            vault.settleBulkPayment(\n                winningBidderAddress,\n                authorAddress,\n                contributorAddresses,\n                contributorWeightings,\n                winningBidAmount\n            ),\n            \"Bulk auction settlement failed\"\n        );\n\n        uint256 publicationLicenceNo = publicationManager\n            .addNewLicenceToPublication(publicationId);\n\n        licenceManager.registerNewLicence(\n            winningBidderAddress,\n            winningBiderId,\n            publicationId,\n            publicationLicenceNo\n        );\n    }\n\n    function buyLicenceFixedRate() public {}\n\n    function getPublicationsAuthorAddress(address _address)\n        public\n        view\n        returns (uint256[] memory)\n    {\n        uint256 author_Id = userManager.getUserId(_address);\n        return publicationManager.getAuthorPublications(author_Id);\n    }\n\n    function getPublicationsAuthorId(uint256 _author_Id)\n        public\n        view\n        returns (uint256[] memory)\n    {\n        return publicationManager.getAuthorPublications(_author_Id);\n    }\n\n    function getPublicationLicences(uint256 _publication_Id)\n        public\n        view\n        returns (uint256[] memory)\n    {\n        return licenceManager.getPublicationLicences(_publication_Id);\n    }\n\n    function getBids(address _address) public view returns (uint256[] memory) {\n        uint256 userAddress = userManager.getUserId(_address);\n        return auctionManager.getBidderBids(userAddress);\n    }\n\n    function getPublicationAuctions(uint256 _publication_Id)\n        public\n        view\n        returns (uint256[] memory)\n    {\n        return publicationManager.getPublicationAuctions(_publication_Id);\n    }\n\n    function getPublicationLength() public view returns (uint256) {\n        return publicationManager.getPublicationLength();\n    }\n\n    function getPublication(uint256 _publication_Id)\n        public\n        view\n        returns (\n            uint8,\n            string memory,\n            uint256,\n            uint256,\n            uint256,\n            uint256,\n            uint256[] memory,\n            uint256[] memory,\n            uint256[] memory\n        )\n    {\n        return (publicationManager.getPublication(_publication_Id));\n    }\n\n    function getLicenceForAddress(address _address)\n        public\n        view\n        returns (uint256[] memory)\n    {\n        uint256 user_Id = userManager.getUserId(_address);\n        return getLicenceForUserId(user_Id);\n    }\n\n    function getLicenceForUserId(uint256 _user_Id)\n        public\n        view\n        returns (uint256[] memory)\n    {\n        return licenceManager.getLicenceForUser(_user_Id);\n    }\n\n    function getLicence(uint256 _licence_Id)\n        public\n        view\n        returns (uint256, uint256, uint256)\n    {\n        return (licenceManager.getLicence(_licence_Id));\n    }\n\n    function donate(uint256 _publication_Id, uint256 _value) public {\n        uint256 authorId = publicationManager.getAuthorId(_publication_Id);\n        address authorAddress = userManager.getUserAddress(authorId);\n\n        (uint256[] memory contributorIds, uint256[] memory contributorWeightings) = publicationManager\n            ._getContributers(_publication_Id);\n\n        address[] memory contributorAddresses = userManager.getAddressArray(\n            contributorIds\n        );\n\n        require(\n            vault.settleBulkPayment(\n                msg.sender,\n                authorAddress,\n                contributorAddresses,\n                contributorWeightings,\n                _value\n            ),\n            \"Bulk auction settlement failed\"\n        );\n    }\n\n    function isCallerRegistered() public view returns (bool) {\n        return userManager.isAddressRegistered(msg.sender);\n    }\n\n    function getCallerId() public view returns (uint256) {\n        uint256 callerId = userManager.getUserId(msg.sender);\n        require(callerId != 0, \"Caller is not registered!\");\n        return callerId;\n    }\n\n    function getUserAddress(uint256 _user_Id) public view returns (address) {\n        return userManager.getUserAddress(_user_Id);\n    }\n\n    function canAddressPay(uint256 _user_Id, uint256 _amount)\n        public\n        view\n        returns (bool)\n    {\n        address userAddress = getUserAddress(_user_Id);\n        return vault.canAddressPay(userAddress, _amount);\n    }\n\n    function getBidderBids(uint256 _bidder_Id)\n        public\n        view\n        returns (uint256[] memory)\n    {\n        return auctionManager.getBidderBids(_bidder_Id);\n    }\n\n    function getBlockTime() public view returns (uint256) {\n        return now;\n    }\n\n    function getAuctionStatus(uint256 _auction_Id) public returns (uint256) {\n        return uint256(auctionManager.getAuctionStatus(_auction_Id));\n    }\n\n    function updateAuctionStartTime(\n        uint256 _publication_Id,\n        uint256 _newStartTime\n    ) public {\n        uint256 caller_Id = getCallerId();\n        require(\n            caller_Id == publicationManager.getAuthorId(_publication_Id),\n            \"Only the publisher can modify the start time\"\n        );\n        uint256 auction_Id = publicationManager.getLatestAuctionId(\n            _publication_Id\n        );\n        auctionManager.updateAuctionStartTime(auction_Id, _newStartTime);\n    }\n\n    function getPublicationBids(uint256 _publication_Id)\n        public\n        view\n        returns (uint256[] memory)\n    {\n        uint256 auction_Id = publicationManager.getLatestAuctionId(\n            _publication_Id\n        );\n        return (auctionManager.getAuctionBids(auction_Id));\n    }\n\n    function getBid(uint256 _bid_Id)\n        public\n        view\n        returns (bytes32, uint256, uint256, uint8, uint256, uint256, uint256)\n    {\n        return (auctionManager.getBid(_bid_Id));\n    }\n\n    function getPublicationAuctionBidLength(uint256 _publication_Id)\n        public\n        view\n        returns (uint256)\n    {\n        uint256 auction_Id = publicationManager.getLatestAuctionId(\n            _publication_Id\n        );\n        return auctionManager.getNumberOfBidsInAuction(auction_Id);\n    }\n    function ownerOf(uint256 tokenId) public view returns (address) {\n        return licenceManager.ownerOf(tokenId);\n    }\n\n}\n",
  "sourcePath": "/Users/chris/Projects/unicoindapp/contracts/UnicoinRegistry.sol",
  "compiler": {
    "name": "solc",
    "version": "0.5.12+commit.7709ece9.Emscripten.clang"
  },
  "schemaVersion": "3.0.16",
  "updatedAt": "2019-12-01T05:16:04.502Z",
  "devdoc": {
    "methods": {
      "getHubAddr()": {
        "details": "Returns the address of the {IRelayHub} contract for this recipient."
      },
      "postRelayedCall(bytes,bool,uint256,bytes32)": {
        "details": "See `IRelayRecipient.postRelayedCall`.     * This function should not be overriden directly, use `_postRelayedCall` instead.     * * Requirements:     * - the caller must be the `RelayHub` contract."
      },
      "preRelayedCall(bytes)": {
        "details": "See `IRelayRecipient.preRelayedCall`.     * This function should not be overriden directly, use `_preRelayedCall` instead.     * * Requirements:     * - the caller must be the `RelayHub` contract."
      },
      "relayHubVersion()": {
        "details": "Returns the version string of the {IRelayHub} for which this recipient implementation was built. If {_upgradeRelayHub} is used, the new {IRelayHub} instance should be compatible with this version."
      }
    }
  },
  "userdoc": {
    "methods": {}
  }
}