{
  "contractName": "UnicoinRegistry",
  "abi": [
    {
      "anonymous": false,
      "inputs": [
        {
          "indexed": true,
          "internalType": "address",
          "name": "oldRelayHub",
          "type": "address"
        },
        {
          "indexed": true,
          "internalType": "address",
          "name": "newRelayHub",
          "type": "address"
        }
      ],
      "name": "RelayHubChanged",
      "type": "event"
    },
    {
      "constant": true,
      "inputs": [],
      "name": "getHubAddr",
      "outputs": [
        {
          "internalType": "address",
          "name": "",
          "type": "address"
        }
      ],
      "payable": false,
      "stateMutability": "view",
      "type": "function"
    },
    {
      "constant": false,
      "inputs": [
        {
          "internalType": "bytes",
          "name": "context",
          "type": "bytes"
        },
        {
          "internalType": "bool",
          "name": "success",
          "type": "bool"
        },
        {
          "internalType": "uint256",
          "name": "actualCharge",
          "type": "uint256"
        },
        {
          "internalType": "bytes32",
          "name": "preRetVal",
          "type": "bytes32"
        }
      ],
      "name": "postRelayedCall",
      "outputs": [],
      "payable": false,
      "stateMutability": "nonpayable",
      "type": "function"
    },
    {
      "constant": false,
      "inputs": [
        {
          "internalType": "bytes",
          "name": "context",
          "type": "bytes"
        }
      ],
      "name": "preRelayedCall",
      "outputs": [
        {
          "internalType": "bytes32",
          "name": "",
          "type": "bytes32"
        }
      ],
      "payable": false,
      "stateMutability": "nonpayable",
      "type": "function"
    },
    {
      "constant": true,
      "inputs": [],
      "name": "relayHubVersion",
      "outputs": [
        {
          "internalType": "string",
          "name": "",
          "type": "string"
        }
      ],
      "payable": false,
      "stateMutability": "view",
      "type": "function"
    },
    {
      "constant": false,
      "inputs": [],
      "name": "setDefaultRelayHub",
      "outputs": [],
      "payable": false,
      "stateMutability": "nonpayable",
      "type": "function"
    },
    {
      "constant": false,
      "inputs": [
        {
          "internalType": "address",
          "name": "_auctionManager",
          "type": "address"
        },
        {
          "internalType": "address",
          "name": "_licenceManager",
          "type": "address"
        },
        {
          "internalType": "address",
          "name": "_publicationManager",
          "type": "address"
        },
        {
          "internalType": "address",
          "name": "_userManager",
          "type": "address"
        },
        {
          "internalType": "address",
          "name": "_vault",
          "type": "address"
        }
      ],
      "name": "initialize",
      "outputs": [],
      "payable": false,
      "stateMutability": "nonpayable",
      "type": "function"
    },
    {
      "constant": false,
      "inputs": [],
      "name": "initialize",
      "outputs": [],
      "payable": false,
      "stateMutability": "nonpayable",
      "type": "function"
    },
    {
      "constant": true,
      "inputs": [
        {
          "internalType": "address",
          "name": "",
          "type": "address"
        },
        {
          "internalType": "address",
          "name": "",
          "type": "address"
        },
        {
          "internalType": "bytes",
          "name": "",
          "type": "bytes"
        },
        {
          "internalType": "uint256",
          "name": "",
          "type": "uint256"
        },
        {
          "internalType": "uint256",
          "name": "",
          "type": "uint256"
        },
        {
          "internalType": "uint256",
          "name": "",
          "type": "uint256"
        },
        {
          "internalType": "uint256",
          "name": "",
          "type": "uint256"
        },
        {
          "internalType": "bytes",
          "name": "",
          "type": "bytes"
        },
        {
          "internalType": "uint256",
          "name": "",
          "type": "uint256"
        }
      ],
      "name": "acceptRelayedCall",
      "outputs": [
        {
          "internalType": "uint256",
          "name": "",
          "type": "uint256"
        },
        {
          "internalType": "bytes",
          "name": "",
          "type": "bytes"
        }
      ],
      "payable": false,
      "stateMutability": "view",
      "type": "function"
    },
    {
      "constant": false,
      "inputs": [
        {
          "internalType": "address",
          "name": "_owner",
          "type": "address"
        }
      ],
      "name": "setOwner",
      "outputs": [],
      "payable": false,
      "stateMutability": "nonpayable",
      "type": "function"
    },
    {
      "constant": false,
      "inputs": [
        {
          "internalType": "string",
          "name": "_profile_uri",
          "type": "string"
        }
      ],
      "name": "registerUser",
      "outputs": [],
      "payable": false,
      "stateMutability": "nonpayable",
      "type": "function"
    },
    {
      "constant": false,
      "inputs": [
        {
          "internalType": "uint8",
          "name": "_pricing_Strategy",
          "type": "uint8"
        },
        {
          "internalType": "string",
          "name": "_publication_uri",
          "type": "string"
        },
        {
          "internalType": "uint256",
          "name": "_auctionFloor",
          "type": "uint256"
        },
        {
          "internalType": "uint256",
          "name": "_auctionStartTime",
          "type": "uint256"
        },
        {
          "internalType": "uint256",
          "name": "_auctionDuration",
          "type": "uint256"
        },
        {
          "internalType": "uint256",
          "name": "_fixed_sell_price",
          "type": "uint256"
        },
        {
          "internalType": "uint256",
          "name": "_maxNumberOfLicences",
          "type": "uint256"
        },
        {
          "internalType": "uint256[]",
          "name": "_contributors",
          "type": "uint256[]"
        },
        {
          "internalType": "uint256[]",
          "name": "_contributors_weightings",
          "type": "uint256[]"
        }
      ],
      "name": "createPublication",
      "outputs": [],
      "payable": false,
      "stateMutability": "nonpayable",
      "type": "function"
    },
    {
      "constant": false,
      "inputs": [
        {
          "internalType": "bytes32",
          "name": "_bidHash",
          "type": "bytes32"
        },
        {
          "internalType": "uint256",
          "name": "_publication_Id",
          "type": "uint256"
        }
      ],
      "name": "commitSealedBid",
      "outputs": [],
      "payable": false,
      "stateMutability": "nonpayable",
      "type": "function"
    },
    {
      "constant": false,
      "inputs": [
        {
          "internalType": "uint256",
          "name": "_bid",
          "type": "uint256"
        },
        {
          "internalType": "uint256",
          "name": "_salt",
          "type": "uint256"
        },
        {
          "internalType": "uint256",
          "name": "_publication_Id",
          "type": "uint256"
        },
        {
          "internalType": "uint256",
          "name": "_bid_Id",
          "type": "uint256"
        }
      ],
      "name": "revealSealedBid",
      "outputs": [
        {
          "internalType": "uint256",
          "name": "",
          "type": "uint256"
        }
      ],
      "payable": false,
      "stateMutability": "nonpayable",
      "type": "function"
    },
    {
      "constant": false,
      "inputs": [
        {
          "internalType": "uint256",
          "name": "_auction_Id",
          "type": "uint256"
        }
      ],
      "name": "finalizeAuction",
      "outputs": [
        {
          "internalType": "uint256",
          "name": "",
          "type": "uint256"
        }
      ],
      "payable": false,
      "stateMutability": "nonpayable",
      "type": "function"
    },
    {
      "constant": false,
      "inputs": [],
      "name": "buyLicenceFixedRate",
      "outputs": [],
      "payable": false,
      "stateMutability": "nonpayable",
      "type": "function"
    },
    {
      "constant": true,
      "inputs": [
        {
          "internalType": "address",
          "name": "_address",
          "type": "address"
        }
      ],
      "name": "getPublicationsAuthorAddress",
      "outputs": [
        {
          "internalType": "uint256[]",
          "name": "",
          "type": "uint256[]"
        }
      ],
      "payable": false,
      "stateMutability": "view",
      "type": "function"
    },
    {
      "constant": true,
      "inputs": [
        {
          "internalType": "uint256",
          "name": "_author_Id",
          "type": "uint256"
        }
      ],
      "name": "getPublicationsAuthorId",
      "outputs": [
        {
          "internalType": "uint256[]",
          "name": "",
          "type": "uint256[]"
        }
      ],
      "payable": false,
      "stateMutability": "view",
      "type": "function"
    },
    {
      "constant": true,
      "inputs": [
        {
          "internalType": "uint256",
          "name": "_publication_Id",
          "type": "uint256"
        }
      ],
      "name": "getPublicationLicences",
      "outputs": [
        {
          "internalType": "uint256[]",
          "name": "",
          "type": "uint256[]"
        }
      ],
      "payable": false,
      "stateMutability": "view",
      "type": "function"
    },
    {
      "constant": true,
      "inputs": [
        {
          "internalType": "address",
          "name": "_address",
          "type": "address"
        }
      ],
      "name": "getBids",
      "outputs": [
        {
          "internalType": "uint256[]",
          "name": "",
          "type": "uint256[]"
        }
      ],
      "payable": false,
      "stateMutability": "view",
      "type": "function"
    },
    {
      "constant": true,
      "inputs": [
        {
          "internalType": "uint256",
          "name": "_publication_Id",
          "type": "uint256"
        }
      ],
      "name": "getPublicationAuctions",
      "outputs": [
        {
          "internalType": "uint256[]",
          "name": "",
          "type": "uint256[]"
        }
      ],
      "payable": false,
      "stateMutability": "view",
      "type": "function"
    },
    {
      "constant": true,
      "inputs": [],
      "name": "getPublicationLength",
      "outputs": [
        {
          "internalType": "uint256",
          "name": "",
          "type": "uint256"
        }
      ],
      "payable": false,
      "stateMutability": "view",
      "type": "function"
    },
    {
      "constant": true,
      "inputs": [
        {
          "internalType": "uint256",
          "name": "_publication_Id",
          "type": "uint256"
        }
      ],
      "name": "getPublication",
      "outputs": [
        {
          "internalType": "uint8",
          "name": "",
          "type": "uint8"
        },
        {
          "internalType": "string",
          "name": "",
          "type": "string"
        },
        {
          "internalType": "uint256",
          "name": "",
          "type": "uint256"
        },
        {
          "internalType": "uint256",
          "name": "",
          "type": "uint256"
        },
        {
          "internalType": "uint256",
          "name": "",
          "type": "uint256"
        },
        {
          "internalType": "uint256",
          "name": "",
          "type": "uint256"
        },
        {
          "internalType": "uint256[]",
          "name": "",
          "type": "uint256[]"
        },
        {
          "internalType": "uint256[]",
          "name": "",
          "type": "uint256[]"
        },
        {
          "internalType": "uint256[]",
          "name": "",
          "type": "uint256[]"
        }
      ],
      "payable": false,
      "stateMutability": "view",
      "type": "function"
    },
    {
      "constant": true,
      "inputs": [
        {
          "internalType": "address",
          "name": "_address",
          "type": "address"
        }
      ],
      "name": "getLicenceForAddress",
      "outputs": [
        {
          "internalType": "uint256[]",
          "name": "",
          "type": "uint256[]"
        }
      ],
      "payable": false,
      "stateMutability": "view",
      "type": "function"
    },
    {
      "constant": true,
      "inputs": [
        {
          "internalType": "uint256",
          "name": "_user_Id",
          "type": "uint256"
        }
      ],
      "name": "getLicenceForUserId",
      "outputs": [
        {
          "internalType": "uint256[]",
          "name": "",
          "type": "uint256[]"
        }
      ],
      "payable": false,
      "stateMutability": "view",
      "type": "function"
    },
    {
      "constant": true,
      "inputs": [
        {
          "internalType": "uint256",
          "name": "_licence_Id",
          "type": "uint256"
        }
      ],
      "name": "getLicence",
      "outputs": [
        {
          "internalType": "uint256",
          "name": "",
          "type": "uint256"
        },
        {
          "internalType": "uint256",
          "name": "",
          "type": "uint256"
        },
        {
          "internalType": "uint256",
          "name": "",
          "type": "uint256"
        }
      ],
      "payable": false,
      "stateMutability": "view",
      "type": "function"
    },
    {
      "constant": false,
      "inputs": [
        {
          "internalType": "uint256",
          "name": "_publication_Id",
          "type": "uint256"
        },
        {
          "internalType": "uint256",
          "name": "_value",
          "type": "uint256"
        }
      ],
      "name": "donate",
      "outputs": [],
      "payable": false,
      "stateMutability": "nonpayable",
      "type": "function"
    },
    {
      "constant": true,
      "inputs": [],
      "name": "isCallerRegistered",
      "outputs": [
        {
          "internalType": "bool",
          "name": "",
          "type": "bool"
        }
      ],
      "payable": false,
      "stateMutability": "view",
      "type": "function"
    },
    {
      "constant": true,
      "inputs": [],
      "name": "getCallerId",
      "outputs": [
        {
          "internalType": "uint256",
          "name": "",
          "type": "uint256"
        }
      ],
      "payable": false,
      "stateMutability": "view",
      "type": "function"
    },
    {
      "constant": true,
      "inputs": [
        {
          "internalType": "uint256",
          "name": "_user_Id",
          "type": "uint256"
        }
      ],
      "name": "getUserAddress",
      "outputs": [
        {
          "internalType": "address",
          "name": "",
          "type": "address"
        }
      ],
      "payable": false,
      "stateMutability": "view",
      "type": "function"
    },
    {
      "constant": true,
      "inputs": [
        {
          "internalType": "uint256",
          "name": "_user_Id",
          "type": "uint256"
        },
        {
          "internalType": "uint256",
          "name": "_amount",
          "type": "uint256"
        }
      ],
      "name": "canBidderPay",
      "outputs": [
        {
          "internalType": "bool",
          "name": "",
          "type": "bool"
        }
      ],
      "payable": false,
      "stateMutability": "view",
      "type": "function"
    },
    {
      "constant": true,
      "inputs": [
        {
          "internalType": "uint256",
          "name": "_bidder_Id",
          "type": "uint256"
        }
      ],
      "name": "getBidderBids",
      "outputs": [
        {
          "internalType": "uint256[]",
          "name": "",
          "type": "uint256[]"
        }
      ],
      "payable": false,
      "stateMutability": "view",
      "type": "function"
    },
    {
      "constant": true,
      "inputs": [],
      "name": "getBlockTime",
      "outputs": [
        {
          "internalType": "uint256",
          "name": "",
          "type": "uint256"
        }
      ],
      "payable": false,
      "stateMutability": "view",
      "type": "function"
    },
    {
      "constant": false,
      "inputs": [
        {
          "internalType": "uint256",
          "name": "_auction_Id",
          "type": "uint256"
        }
      ],
      "name": "getAuctionStatus",
      "outputs": [
        {
          "internalType": "uint256",
          "name": "",
          "type": "uint256"
        }
      ],
      "payable": false,
      "stateMutability": "nonpayable",
      "type": "function"
    },
    {
      "constant": false,
      "inputs": [
        {
          "internalType": "uint256",
          "name": "_publication_Id",
          "type": "uint256"
        },
        {
          "internalType": "uint256",
          "name": "_newStartTime",
          "type": "uint256"
        }
      ],
      "name": "updateAuctionStartTime",
      "outputs": [],
      "payable": false,
      "stateMutability": "nonpayable",
      "type": "function"
    },
    {
      "constant": true,
      "inputs": [
        {
          "internalType": "uint256",
          "name": "_publication_Id",
          "type": "uint256"
        }
      ],
      "name": "getPublicationBids",
      "outputs": [
        {
          "internalType": "uint256[]",
          "name": "",
          "type": "uint256[]"
        }
      ],
      "payable": false,
      "stateMutability": "view",
      "type": "function"
    },
    {
      "constant": true,
      "inputs": [
        {
          "internalType": "uint256",
          "name": "_bid_Id",
          "type": "uint256"
        }
      ],
      "name": "getBid",
      "outputs": [
        {
          "internalType": "bytes32",
          "name": "",
          "type": "bytes32"
        },
        {
          "internalType": "uint256",
          "name": "",
          "type": "uint256"
        },
        {
          "internalType": "uint256",
          "name": "",
          "type": "uint256"
        },
        {
          "internalType": "uint8",
          "name": "",
          "type": "uint8"
        },
        {
          "internalType": "uint256",
          "name": "",
          "type": "uint256"
        },
        {
          "internalType": "uint256",
          "name": "",
          "type": "uint256"
        },
        {
          "internalType": "uint256",
          "name": "",
          "type": "uint256"
        }
      ],
      "payable": false,
      "stateMutability": "view",
      "type": "function"
    },
    {
      "constant": true,
      "inputs": [
        {
          "internalType": "uint256",
          "name": "_publication_Id",
          "type": "uint256"
        }
      ],
      "name": "getPublicationAuctionBidLength",
      "outputs": [
        {
          "internalType": "uint256",
          "name": "",
          "type": "uint256"
        }
      ],
      "payable": false,
      "stateMutability": "view",
      "type": "function"
    }
  ],
  "bytecode": "0x60806040526155da806100136000396000f3fe608060405234801561001057600080fd5b50600436106102275760003560e01c806374e861d6116101305780639ae001ff116100b8578063e06e0e221161007c578063e06e0e221461125b578063e8083863146112f4578063ec297be614611336578063fbd9d2eb1461136e578063ff42e879146113f157610227565b80639ae001ff14610ec65780639dccae8214610efe578063a564e83c14610f97578063a8020ee71461113f578063ad61ccd5146111d857610227565b80638129fc1c116100ff5780638129fc1c14610bec57806383947ea014610bf657806387ceff0914610db7578063897f1e4a14610dd557806390d976e214610e5857610227565b806374e861d614610ab55780637765c52c14610aff5780637ece03bb14610b4157806380274db714610b5f57610227565b80632207fc6a116101b357806351a353491161018257806351a353491461086c578063522b0e23146109055780635bc2ff781461098857806368c5051f146109aa578063704f1b94146109fa57610227565b80632207fc6a146106c75780632cedebee146107275780633c889e6f146107775780633e764604146107e957610227565b806313af4035116101fa57806313af4035146102fb5780631459457a1461033f57806314b37f58146104035780631aa5b7e914610626578063207f29371461064457610227565b806304686b4a1461022c5780630cdd53f61461023657806311fcd5461461026e5780631220e2ff146102f1575b600080fd5b610234611433565b005b61026c6004803603604081101561024c57600080fd5b810190808035906020019092919080359060200190929190505050611435565b005b61029a6004803603602081101561028457600080fd5b8101908080359060200190929190505050611b2d565b6040518080602001828103825283818151815260200191508051906020019060200280838360005b838110156102dd5780820151818401526020810190506102c2565b505050509050019250505060405180910390f35b6102f9611c7e565b005b61033d6004803603602081101561031157600080fd5b81019080803573ffffffffffffffffffffffffffffffffffffffff169060200190929190505050611c9d565b005b610401600480360360a081101561035557600080fd5b81019080803573ffffffffffffffffffffffffffffffffffffffff169060200190929190803573ffffffffffffffffffffffffffffffffffffffff169060200190929190803573ffffffffffffffffffffffffffffffffffffffff169060200190929190803573ffffffffffffffffffffffffffffffffffffffff169060200190929190803573ffffffffffffffffffffffffffffffffffffffff169060200190929190505050611d87565b005b610624600480360361012081101561041a57600080fd5b81019080803560ff1690602001909291908035906020019064010000000081111561044457600080fd5b82018360208201111561045657600080fd5b8035906020019184600183028401116401000000008311171561047857600080fd5b91908080601f016020809104026020016040519081016040528093929190818152602001838380828437600081840152601f19601f82011690508083019250505050505050919291929080359060200190929190803590602001909291908035906020019092919080359060200190929190803590602001909291908035906020019064010000000081111561050d57600080fd5b82018360208201111561051f57600080fd5b8035906020019184602083028401116401000000008311171561054157600080fd5b919080806020026020016040519081016040528093929190818152602001838360200280828437600081840152601f19601f820116905080830192505050505050509192919290803590602001906401000000008111156105a157600080fd5b8201836020820111156105b357600080fd5b803590602001918460208302840111640100000000831117156105d557600080fd5b919080806020026020016040519081016040528093929190818152602001838360200280828437600081840152601f19601f820116905080830192505050505050509192919290505050612019565b005b61062e6123ee565b6040518082815260200191505060405180910390f35b6106706004803603602081101561065a57600080fd5b810190808035906020019092919050505061254b565b6040518080602001828103825283818151815260200191508051906020019060200280838360005b838110156106b3578082015181840152602081019050610698565b505050509050019250505060405180910390f35b610711600480360360808110156106dd57600080fd5b810190808035906020019092919080359060200190929190803590602001909291908035906020019092919050505061269c565b6040518082815260200191505060405180910390f35b6107536004803603602081101561073d57600080fd5b8101908080359060200190929190505050612812565b60405180848152602001838152602001828152602001935050505060405180910390f35b6107a36004803603602081101561078d57600080fd5b81019080803590602001909291905050506128e6565b604051808881526020018781526020018681526020018560ff1660ff16815260200184815260200183815260200182815260200197505050505050505060405180910390f35b610815600480360360208110156107ff57600080fd5b81019080803590602001909291905050506129f4565b6040518080602001828103825283818151815260200191508051906020019060200280838360005b8381101561085857808201518184015260208101905061083d565b505050509050019250505060405180910390f35b6108ae6004803603602081101561088257600080fd5b81019080803573ffffffffffffffffffffffffffffffffffffffff169060200190929190505050612bf8565b6040518080602001828103825283818151815260200191508051906020019060200280838360005b838110156108f15780820151818401526020810190506108d6565b505050509050019250505060405180910390f35b6109316004803603602081101561091b57600080fd5b8101908080359060200190929190505050612e28565b6040518080602001828103825283818151815260200191508051906020019060200280838360005b83811015610974578082015181840152602081019050610959565b505050509050019250505060405180910390f35b610990612f79565b604051808215151515815260200191505060405180910390f35b6109e0600480360360408110156109c057600080fd5b81019080803590602001909291908035906020019092919050505061305a565b604051808215151515815260200191505060405180910390f35b610ab360048036036020811015610a1057600080fd5b8101908080359060200190640100000000811115610a2d57600080fd5b820183602082011115610a3f57600080fd5b80359060200191846001830284011164010000000083111715610a6157600080fd5b91908080601f016020809104026020016040519081016040528093929190818152602001838380828437600081840152601f19601f820116905080830192505050505050509192919290505050613153565b005b610abd61327c565b604051808273ffffffffffffffffffffffffffffffffffffffff1673ffffffffffffffffffffffffffffffffffffffff16815260200191505060405180910390f35b610b2b60048036036020811015610b1557600080fd5b81019080803590602001909291905050506132a6565b6040518082815260200191505060405180910390f35b610b4961336a565b6040518082815260200191505060405180910390f35b610bd660048036036020811015610b7557600080fd5b8101908080359060200190640100000000811115610b9257600080fd5b820183602082011115610ba457600080fd5b80359060200191846001830284011164010000000083111715610bc657600080fd5b9091929391929390505050613414565b6040518082815260200191505060405180910390f35b610bf46134f6565b005b610d356004803603610120811015610c0d57600080fd5b81019080803573ffffffffffffffffffffffffffffffffffffffff169060200190929190803573ffffffffffffffffffffffffffffffffffffffff16906020019092919080359060200190640100000000811115610c6a57600080fd5b820183602082011115610c7c57600080fd5b80359060200191846001830284011164010000000083111715610c9e57600080fd5b90919293919293908035906020019092919080359060200190929190803590602001909291908035906020019092919080359060200190640100000000811115610ce757600080fd5b820183602082011115610cf957600080fd5b80359060200191846001830284011164010000000083111715610d1b57600080fd5b909192939192939080359060200190929190505050613655565b6040518083815260200180602001828103825283818151815260200191508051906020019080838360005b83811015610d7b578082015181840152602081019050610d60565b50505050905090810190601f168015610da85780820380516001836020036101000a031916815260200191505b50935050505060405180910390f35b610dbf613675565b6040518082815260200191505060405180910390f35b610e0160048036036020811015610deb57600080fd5b810190808035906020019092919050505061367d565b6040518080602001828103825283818151815260200191508051906020019060200280838360005b83811015610e44578082015181840152602081019050610e29565b505050509050019250505060405180910390f35b610e8460048036036020811015610e6e57600080fd5b81019080803590602001909291905050506137ce565b604051808273ffffffffffffffffffffffffffffffffffffffff1673ffffffffffffffffffffffffffffffffffffffff16815260200191505060405180910390f35b610efc60048036036040811015610edc57600080fd5b810190808035906020019092919080359060200190929190505050613885565b005b610f4060048036036020811015610f1457600080fd5b81019080803573ffffffffffffffffffffffffffffffffffffffff169060200190929190505050613ae3565b6040518080602001828103825283818151815260200191508051906020019060200280838360005b83811015610f83578082015181840152602081019050610f68565b505050509050019250505060405180910390f35b610fc360048036036020811015610fad57600080fd5b8101908080359060200190929190505050613d13565b604051808a60ff1660ff1681526020018060200189815260200188815260200187815260200186815260200180602001806020018060200185810385528d818151815260200191508051906020019080838360005b83811015611033578082015181840152602081019050611018565b50505050905090810190601f1680156110605780820380516001836020036101000a031916815260200191505b50858103845288818151815260200191508051906020019060200280838360005b8381101561109c578082015181840152602081019050611081565b50505050905001858103835287818151815260200191508051906020019060200280838360005b838110156110de5780820151818401526020810190506110c3565b50505050905001858103825286818151815260200191508051906020019060200280838360005b83811015611120578082015181840152602081019050611105565b505050509050019d505050505050505050505050505060405180910390f35b6111816004803603602081101561115557600080fd5b81019080803573ffffffffffffffffffffffffffffffffffffffff169060200190929190505050614099565b6040518080602001828103825283818151815260200191508051906020019060200280838360005b838110156111c45780820151818401526020810190506111a9565b505050509050019250505060405180910390f35b6111e061418a565b6040518080602001828103825283818151815260200191508051906020019080838360005b83811015611220578082015181840152602081019050611205565b50505050905090810190601f16801561124d5780820380516001836020036101000a031916815260200191505b509250505060405180910390f35b6112f26004803603608081101561127157600080fd5b810190808035906020019064010000000081111561128e57600080fd5b8201836020820111156112a057600080fd5b803590602001918460018302840111640100000000831117156112c257600080fd5b909192939192939080351515906020019092919080359060200190929190803590602001909291905050506141c7565b005b6113206004803603602081101561130a57600080fd5b81019080803590602001909291905050506142a9565b6040518082815260200191505060405180910390f35b61136c6004803603604081101561134c57600080fd5b810190808035906020019092919080359060200190929190505050614e10565b005b61139a6004803603602081101561138457600080fd5b8101908080359060200190929190505050614f95565b6040518080602001828103825283818151815260200191508051906020019060200280838360005b838110156113dd5780820151818401526020810190506113c2565b505050509050019250505060405180910390f35b61141d6004803603602081101561140757600080fd5b81019080803590602001909291905050506150e6565b6040518082815260200191505060405180910390f35b565b6000603760009054906101000a900473ffffffffffffffffffffffffffffffffffffffff1673ffffffffffffffffffffffffffffffffffffffff166310a6d0d5846040518263ffffffff1660e01b81526004018082815260200191505060206040518083038186803b1580156114aa57600080fd5b505afa1580156114be573d6000803e3d6000fd5b505050506040513d60208110156114d457600080fd5b810190808051906020019092919050505090506000603860009054906101000a900473ffffffffffffffffffffffffffffffffffffffff1673ffffffffffffffffffffffffffffffffffffffff166390d976e2836040518263ffffffff1660e01b81526004018082815260200191505060206040518083038186803b15801561155c57600080fd5b505afa158015611570573d6000803e3d6000fd5b505050506040513d602081101561158657600080fd5b81019080805190602001909291905050509050606080603760009054906101000a900473ffffffffffffffffffffffffffffffffffffffff1673ffffffffffffffffffffffffffffffffffffffff16639d273ddc876040518263ffffffff1660e01b81526004018082815260200191505060006040518083038186803b15801561160f57600080fd5b505afa158015611623573d6000803e3d6000fd5b505050506040513d6000823e3d601f19601f82011682018060405250604081101561164d57600080fd5b810190808051604051939291908464010000000082111561166d57600080fd5b8382019150602082018581111561168357600080fd5b82518660208202830111640100000000821117156116a057600080fd5b8083526020830192505050908051906020019060200280838360005b838110156116d75780820151818401526020810190506116bc565b505050509050016040526020018051604051939291908464010000000082111561170057600080fd5b8382019150602082018581111561171657600080fd5b825186602082028301116401000000008211171561173357600080fd5b8083526020830192505050908051906020019060200280838360005b8381101561176a57808201518184015260208101905061174f565b50505050905001604052505050915091506060603860009054906101000a900473ffffffffffffffffffffffffffffffffffffffff1673ffffffffffffffffffffffffffffffffffffffff16637f4f2e84846040518263ffffffff1660e01b81526004018080602001828103825283818151815260200191508051906020019060200280838360005b8381101561180e5780820151818401526020810190506117f3565b505050509050019250505060006040518083038186803b15801561183157600080fd5b505afa158015611845573d6000803e3d6000fd5b505050506040513d6000823e3d601f19601f82011682018060405250602081101561186f57600080fd5b810190808051604051939291908464010000000082111561188f57600080fd5b838201915060208201858111156118a557600080fd5b82518660208202830111640100000000821117156118c257600080fd5b8083526020830192505050908051906020019060200280838360005b838110156118f95780820151818401526020810190506118de565b505050509050016040525050509050603960009054906101000a900473ffffffffffffffffffffffffffffffffffffffff1673ffffffffffffffffffffffffffffffffffffffff1663841aee53338684868b6040518663ffffffff1660e01b8152600401808673ffffffffffffffffffffffffffffffffffffffff1673ffffffffffffffffffffffffffffffffffffffff1681526020018573ffffffffffffffffffffffffffffffffffffffff1673ffffffffffffffffffffffffffffffffffffffff1681526020018060200180602001848152602001838103835286818151815260200191508051906020019060200280838360005b83811015611a0b5780820151818401526020810190506119f0565b50505050905001838103825285818151815260200191508051906020019060200280838360005b83811015611a4d578082015181840152602081019050611a32565b50505050905001975050505050505050602060405180830381600087803b158015611a7757600080fd5b505af1158015611a8b573d6000803e3d6000fd5b505050506040513d6020811015611aa157600080fd5b8101908080519060200190929190505050611b24576040517f08c379a000000000000000000000000000000000000000000000000000000000815260040180806020018281038252601e8152602001807f42756c6b2061756374696f6e20736574746c656d656e74206661696c6564000081525060200191505060405180910390fd5b50505050505050565b6060603760009054906101000a900473ffffffffffffffffffffffffffffffffffffffff1673ffffffffffffffffffffffffffffffffffffffff1663f88e44a3836040518263ffffffff1660e01b81526004018082815260200191505060006040518083038186803b158015611ba257600080fd5b505afa158015611bb6573d6000803e3d6000fd5b505050506040513d6000823e3d601f19601f820116820180604052506020811015611be057600080fd5b8101908080516040519392919084640100000000821115611c0057600080fd5b83820191506020820185811115611c1657600080fd5b8251866020820283011164010000000082111715611c3357600080fd5b8083526020830192505050908051906020019060200280838360005b83811015611c6a578082015181840152602081019050611c4f565b505050509050016040525050509050919050565b611c9b73d216153c06e857cd7f72665e0af1d7d82172f49461524f565b565b3373ffffffffffffffffffffffffffffffffffffffff16603460009054906101000a900473ffffffffffffffffffffffffffffffffffffffff1673ffffffffffffffffffffffffffffffffffffffff1614611d43576040517f08c379a000000000000000000000000000000000000000000000000000000000815260040180806020018281038252602781526020018061555b6027913960400191505060405180910390fd5b80603460006101000a81548173ffffffffffffffffffffffffffffffffffffffff021916908373ffffffffffffffffffffffffffffffffffffffff16021790555050565b600060019054906101000a900460ff1680611da65750611da5615420565b5b80611dbd57506000809054906101000a900460ff16155b611e12576040517f08c379a000000000000000000000000000000000000000000000000000000000815260040180806020018281038252602e815260200180615500602e913960400191505060405180910390fd5b60008060019054906101000a900460ff161590508015611e62576001600060016101000a81548160ff02191690831515021790555060016000806101000a81548160ff0219169083151502179055505b33603460006101000a81548173ffffffffffffffffffffffffffffffffffffffff021916908373ffffffffffffffffffffffffffffffffffffffff160217905550611eab6134f6565b85603560006101000a81548173ffffffffffffffffffffffffffffffffffffffff021916908373ffffffffffffffffffffffffffffffffffffffff16021790555084603660006101000a81548173ffffffffffffffffffffffffffffffffffffffff021916908373ffffffffffffffffffffffffffffffffffffffff16021790555083603760006101000a81548173ffffffffffffffffffffffffffffffffffffffff021916908373ffffffffffffffffffffffffffffffffffffffff16021790555082603860006101000a81548173ffffffffffffffffffffffffffffffffffffffff021916908373ffffffffffffffffffffffffffffffffffffffff16021790555081603960006101000a81548173ffffffffffffffffffffffffffffffffffffffff021916908373ffffffffffffffffffffffffffffffffffffffff16021790555080156120115760008060016101000a81548160ff0219169083151502179055505b505050505050565b612021612f79565b612076576040517f08c379a00000000000000000000000000000000000000000000000000000000081526004018080602001828103825260338152602001806154736033913960400191505060405180910390fd5b60006120806123ee565b90506000603760009054906101000a900473ffffffffffffffffffffffffffffffffffffffff1673ffffffffffffffffffffffffffffffffffffffff1663497e192e8c8c858a8a8a8a6040518863ffffffff1660e01b8152600401808860ff1660ff16815260200180602001878152602001868152602001858152602001806020018060200184810384528a818151815260200191508051906020019080838360005b8381101561213e578082015181840152602081019050612123565b50505050905090810190601f16801561216b5780820380516001836020036101000a031916815260200191505b50848103835286818151815260200191508051906020019060200280838360005b838110156121a757808201518184015260208101905061218c565b50505050905001848103825285818151815260200191508051906020019060200280838360005b838110156121e95780820151818401526020810190506121ce565b505050509050019a5050505050505050505050602060405180830381600087803b15801561221657600080fd5b505af115801561222a573d6000803e3d6000fd5b505050506040513d602081101561224057600080fd5b8101908080519060200190929190505050905060018081111561225f57fe5b8b60ff16600181111561226e57fe5b600181111561227957fe5b146123e1576000603560009054906101000a900473ffffffffffffffffffffffffffffffffffffffff1673ffffffffffffffffffffffffffffffffffffffff1663b8f4e5a5838c8c8c6040518563ffffffff1660e01b815260040180858152602001848152602001838152602001828152602001945050505050602060405180830381600087803b15801561230d57600080fd5b505af1158015612321573d6000803e3d6000fd5b505050506040513d602081101561233757600080fd5b81019080805190602001909291905050509050603760009054906101000a900473ffffffffffffffffffffffffffffffffffffffff1673ffffffffffffffffffffffffffffffffffffffff1663f8290cde83836040518363ffffffff1660e01b81526004018083815260200182815260200192505050600060405180830381600087803b1580156123c757600080fd5b505af11580156123db573d6000803e3d6000fd5b50505050505b5050505050505050505050565b600080603860009054906101000a900473ffffffffffffffffffffffffffffffffffffffff1673ffffffffffffffffffffffffffffffffffffffff16632b956ff7336040518263ffffffff1660e01b8152600401808273ffffffffffffffffffffffffffffffffffffffff1673ffffffffffffffffffffffffffffffffffffffff16815260200191505060206040518083038186803b15801561249057600080fd5b505afa1580156124a4573d6000803e3d6000fd5b505050506040513d60208110156124ba57600080fd5b810190808051906020019092919050505090506000811415612544576040517f08c379a00000000000000000000000000000000000000000000000000000000081526004018080602001828103825260198152602001807f43616c6c6572206973206e6f742072656769737465726564210000000000000081525060200191505060405180910390fd5b8091505090565b6060603760009054906101000a900473ffffffffffffffffffffffffffffffffffffffff1673ffffffffffffffffffffffffffffffffffffffff1663207f2937836040518263ffffffff1660e01b81526004018082815260200191505060006040518083038186803b1580156125c057600080fd5b505afa1580156125d4573d6000803e3d6000fd5b505050506040513d6000823e3d601f19601f8201168201806040525060208110156125fe57600080fd5b810190808051604051939291908464010000000082111561261e57600080fd5b8382019150602082018581111561263457600080fd5b825186602082028301116401000000008211171561265157600080fd5b8083526020830192505050908051906020019060200280838360005b8381101561268857808201518184015260208101905061266d565b505050509050016040525050509050919050565b600080603760009054906101000a900473ffffffffffffffffffffffffffffffffffffffff1673ffffffffffffffffffffffffffffffffffffffff16636c6167c6856040518263ffffffff1660e01b81526004018082815260200191505060206040518083038186803b15801561271257600080fd5b505afa158015612726573d6000803e3d6000fd5b505050506040513d602081101561273c57600080fd5b8101908080519060200190929190505050905060006127596123ee565b9050603560009054906101000a900473ffffffffffffffffffffffffffffffffffffffff1673ffffffffffffffffffffffffffffffffffffffff166394d0f15e88888588866040518663ffffffff1660e01b81526004018086815260200185815260200184815260200183815260200182815260200195505050505050600060405180830381600087803b1580156127f057600080fd5b505af1158015612804573d6000803e3d6000fd5b505050505050949350505050565b6000806000603660009054906101000a900473ffffffffffffffffffffffffffffffffffffffff1673ffffffffffffffffffffffffffffffffffffffff16632cedebee856040518263ffffffff1660e01b81526004018082815260200191505060606040518083038186803b15801561288a57600080fd5b505afa15801561289e573d6000803e3d6000fd5b505050506040513d60608110156128b457600080fd5b810190808051906020019092919080519060200190929190805190602001909291905050509250925092509193909250565b6000806000806000806000603560009054906101000a900473ffffffffffffffffffffffffffffffffffffffff1673ffffffffffffffffffffffffffffffffffffffff16633c889e6f896040518263ffffffff1660e01b81526004018082815260200191505060e06040518083038186803b15801561296457600080fd5b505afa158015612978573d6000803e3d6000fd5b505050506040513d60e081101561298e57600080fd5b81019080805190602001909291908051906020019092919080519060200190929190805190602001909291908051906020019092919080519060200190929190805190602001909291905050509650965096509650965096509650919395979092949650565b60606000603760009054906101000a900473ffffffffffffffffffffffffffffffffffffffff1673ffffffffffffffffffffffffffffffffffffffff16636c6167c6846040518263ffffffff1660e01b81526004018082815260200191505060206040518083038186803b158015612a6b57600080fd5b505afa158015612a7f573d6000803e3d6000fd5b505050506040513d6020811015612a9557600080fd5b81019080805190602001909291905050509050603560009054906101000a900473ffffffffffffffffffffffffffffffffffffffff1673ffffffffffffffffffffffffffffffffffffffff166370b4768e826040518263ffffffff1660e01b81526004018082815260200191505060006040518083038186803b158015612b1b57600080fd5b505afa158015612b2f573d6000803e3d6000fd5b505050506040513d6000823e3d601f19601f820116820180604052506020811015612b5957600080fd5b8101908080516040519392919084640100000000821115612b7957600080fd5b83820191506020820185811115612b8f57600080fd5b8251866020820283011164010000000082111715612bac57600080fd5b8083526020830192505050908051906020019060200280838360005b83811015612be3578082015181840152602081019050612bc8565b50505050905001604052505050915050919050565b60606000603860009054906101000a900473ffffffffffffffffffffffffffffffffffffffff1673ffffffffffffffffffffffffffffffffffffffff16632b956ff7846040518263ffffffff1660e01b8152600401808273ffffffffffffffffffffffffffffffffffffffff1673ffffffffffffffffffffffffffffffffffffffff16815260200191505060206040518083038186803b158015612c9b57600080fd5b505afa158015612caf573d6000803e3d6000fd5b505050506040513d6020811015612cc557600080fd5b81019080805190602001909291905050509050603760009054906101000a900473ffffffffffffffffffffffffffffffffffffffff1673ffffffffffffffffffffffffffffffffffffffff1663f88e44a3826040518263ffffffff1660e01b81526004018082815260200191505060006040518083038186803b158015612d4b57600080fd5b505afa158015612d5f573d6000803e3d6000fd5b505050506040513d6000823e3d601f19601f820116820180604052506020811015612d8957600080fd5b8101908080516040519392919084640100000000821115612da957600080fd5b83820191506020820185811115612dbf57600080fd5b8251866020820283011164010000000082111715612ddc57600080fd5b8083526020830192505050908051906020019060200280838360005b83811015612e13578082015181840152602081019050612df8565b50505050905001604052505050915050919050565b6060603660009054906101000a900473ffffffffffffffffffffffffffffffffffffffff1673ffffffffffffffffffffffffffffffffffffffff16639787bb41836040518263ffffffff1660e01b81526004018082815260200191505060006040518083038186803b158015612e9d57600080fd5b505afa158015612eb1573d6000803e3d6000fd5b505050506040513d6000823e3d601f19601f820116820180604052506020811015612edb57600080fd5b8101908080516040519392919084640100000000821115612efb57600080fd5b83820191506020820185811115612f1157600080fd5b8251866020820283011164010000000082111715612f2e57600080fd5b8083526020830192505050908051906020019060200280838360005b83811015612f65578082015181840152602081019050612f4a565b505050509050016040525050509050919050565b6000603860009054906101000a900473ffffffffffffffffffffffffffffffffffffffff1673ffffffffffffffffffffffffffffffffffffffff166338b6a3a1336040518263ffffffff1660e01b8152600401808273ffffffffffffffffffffffffffffffffffffffff1673ffffffffffffffffffffffffffffffffffffffff16815260200191505060206040518083038186803b15801561301a57600080fd5b505afa15801561302e573d6000803e3d6000fd5b505050506040513d602081101561304457600080fd5b8101908080519060200190929190505050905090565b600080613066846137ce565b9050603960009054906101000a900473ffffffffffffffffffffffffffffffffffffffff1673ffffffffffffffffffffffffffffffffffffffff1663123beb5182856040518363ffffffff1660e01b8152600401808373ffffffffffffffffffffffffffffffffffffffff1673ffffffffffffffffffffffffffffffffffffffff1681526020018281526020019250505060206040518083038186803b15801561310f57600080fd5b505afa158015613123573d6000803e3d6000fd5b505050506040513d602081101561313957600080fd5b810190808051906020019092919050505091505092915050565b603860009054906101000a900473ffffffffffffffffffffffffffffffffffffffff1673ffffffffffffffffffffffffffffffffffffffff16636ec3877f82336040518363ffffffff1660e01b815260040180806020018373ffffffffffffffffffffffffffffffffffffffff1673ffffffffffffffffffffffffffffffffffffffff168152602001828103825284818151815260200191508051906020019080838360005b838110156132145780820151818401526020810190506131f9565b50505050905090810190601f1680156132415780820380516001836020036101000a031916815260200191505b509350505050600060405180830381600087803b15801561326157600080fd5b505af1158015613275573d6000803e3d6000fd5b5050505050565b6000603360009054906101000a900473ffffffffffffffffffffffffffffffffffffffff16905090565b6000603560009054906101000a900473ffffffffffffffffffffffffffffffffffffffff1673ffffffffffffffffffffffffffffffffffffffff16637765c52c836040518263ffffffff1660e01b815260040180828152602001915050602060405180830381600087803b15801561331d57600080fd5b505af1158015613331573d6000803e3d6000fd5b505050506040513d602081101561334757600080fd5b8101908080519060200190929190505050600381111561336357fe5b9050919050565b6000603760009054906101000a900473ffffffffffffffffffffffffffffffffffffffff1673ffffffffffffffffffffffffffffffffffffffff16637ece03bb6040518163ffffffff1660e01b815260040160206040518083038186803b1580156133d457600080fd5b505afa1580156133e8573d6000803e3d6000fd5b505050506040513d60208110156133fe57600080fd5b8101908080519060200190929190505050905090565b600061341e61327c565b73ffffffffffffffffffffffffffffffffffffffff163373ffffffffffffffffffffffffffffffffffffffff16146134a1576040517f08c379a00000000000000000000000000000000000000000000000000000000081526004018080602001828103825260248152602001806155826024913960400191505060405180910390fd5b6134ee83838080601f016020809104026020016040519081016040528093929190818152602001838380828437600081840152601f19601f82011690508083019250505050505050615431565b905092915050565b600060019054906101000a900460ff16806135155750613514615420565b5b8061352c57506000809054906101000a900460ff16155b613581576040517f08c379a000000000000000000000000000000000000000000000000000000000815260040180806020018281038252602e815260200180615500602e913960400191505060405180910390fd5b60008060019054906101000a900460ff1615905080156135d1576001600060016101000a81548160ff02191690831515021790555060016000806101000a81548160ff0219169083151502179055505b600073ffffffffffffffffffffffffffffffffffffffff16603360009054906101000a900473ffffffffffffffffffffffffffffffffffffffff1673ffffffffffffffffffffffffffffffffffffffff16141561363157613630611c7e565b5b80156136525760008060016101000a81548160ff0219169083151502179055505b50565b60006060613661615438565b915091509b509b9950505050505050505050565b600042905090565b6060603560009054906101000a900473ffffffffffffffffffffffffffffffffffffffff1673ffffffffffffffffffffffffffffffffffffffff1663897f1e4a836040518263ffffffff1660e01b81526004018082815260200191505060006040518083038186803b1580156136f257600080fd5b505afa158015613706573d6000803e3d6000fd5b505050506040513d6000823e3d601f19601f82011682018060405250602081101561373057600080fd5b810190808051604051939291908464010000000082111561375057600080fd5b8382019150602082018581111561376657600080fd5b825186602082028301116401000000008211171561378357600080fd5b8083526020830192505050908051906020019060200280838360005b838110156137ba57808201518184015260208101905061379f565b505050509050016040525050509050919050565b6000603860009054906101000a900473ffffffffffffffffffffffffffffffffffffffff1673ffffffffffffffffffffffffffffffffffffffff166390d976e2836040518263ffffffff1660e01b81526004018082815260200191505060206040518083038186803b15801561384357600080fd5b505afa158015613857573d6000803e3d6000fd5b505050506040513d602081101561386d57600080fd5b81019080805190602001909291905050509050919050565b600061388f6123ee565b9050603760009054906101000a900473ffffffffffffffffffffffffffffffffffffffff1673ffffffffffffffffffffffffffffffffffffffff166310a6d0d5846040518263ffffffff1660e01b81526004018082815260200191505060206040518083038186803b15801561390457600080fd5b505afa158015613918573d6000803e3d6000fd5b505050506040513d602081101561392e57600080fd5b81019080805190602001909291905050508114613996576040517f08c379a000000000000000000000000000000000000000000000000000000000815260040180806020018281038252602c8152602001806154d4602c913960400191505060405180910390fd5b6000603760009054906101000a900473ffffffffffffffffffffffffffffffffffffffff1673ffffffffffffffffffffffffffffffffffffffff16636c6167c6856040518263ffffffff1660e01b81526004018082815260200191505060206040518083038186803b158015613a0b57600080fd5b505afa158015613a1f573d6000803e3d6000fd5b505050506040513d6020811015613a3557600080fd5b81019080805190602001909291905050509050603560009054906101000a900473ffffffffffffffffffffffffffffffffffffffff1673ffffffffffffffffffffffffffffffffffffffff16639ae001ff82856040518363ffffffff1660e01b81526004018083815260200182815260200192505050600060405180830381600087803b158015613ac557600080fd5b505af1158015613ad9573d6000803e3d6000fd5b5050505050505050565b60606000603860009054906101000a900473ffffffffffffffffffffffffffffffffffffffff1673ffffffffffffffffffffffffffffffffffffffff16632b956ff7846040518263ffffffff1660e01b8152600401808273ffffffffffffffffffffffffffffffffffffffff1673ffffffffffffffffffffffffffffffffffffffff16815260200191505060206040518083038186803b158015613b8657600080fd5b505afa158015613b9a573d6000803e3d6000fd5b505050506040513d6020811015613bb057600080fd5b81019080805190602001909291905050509050603560009054906101000a900473ffffffffffffffffffffffffffffffffffffffff1673ffffffffffffffffffffffffffffffffffffffff1663897f1e4a826040518263ffffffff1660e01b81526004018082815260200191505060006040518083038186803b158015613c3657600080fd5b505afa158015613c4a573d6000803e3d6000fd5b505050506040513d6000823e3d601f19601f820116820180604052506020811015613c7457600080fd5b8101908080516040519392919084640100000000821115613c9457600080fd5b83820191506020820185811115613caa57600080fd5b8251866020820283011164010000000082111715613cc757600080fd5b8083526020830192505050908051906020019060200280838360005b83811015613cfe578082015181840152602081019050613ce3565b50505050905001604052505050915050919050565b600060606000806000806060806060603760009054906101000a900473ffffffffffffffffffffffffffffffffffffffff1673ffffffffffffffffffffffffffffffffffffffff1663a564e83c8b6040518263ffffffff1660e01b81526004018082815260200191505060006040518083038186803b158015613d9557600080fd5b505afa158015613da9573d6000803e3d6000fd5b505050506040513d6000823e3d601f19601f82011682018060405250610120811015613dd457600080fd5b810190808051906020019092919080516040519392919084640100000000821115613dfe57600080fd5b83820191506020820185811115613e1457600080fd5b8251866001820283011164010000000082111715613e3157600080fd5b8083526020830192505050908051906020019080838360005b83811015613e65578082015181840152602081019050613e4a565b50505050905090810190601f168015613e925780820380516001836020036101000a031916815260200191505b506040526020018051906020019092919080519060200190929190805190602001909291908051906020019092919080516040519392919084640100000000821115613edd57600080fd5b83820191506020820185811115613ef357600080fd5b8251866020820283011164010000000082111715613f1057600080fd5b8083526020830192505050908051906020019060200280838360005b83811015613f47578082015181840152602081019050613f2c565b5050505090500160405260200180516040519392919084640100000000821115613f7057600080fd5b83820191506020820185811115613f8657600080fd5b8251866020820283011164010000000082111715613fa357600080fd5b8083526020830192505050908051906020019060200280838360005b83811015613fda578082015181840152602081019050613fbf565b505050509050016040526020018051604051939291908464010000000082111561400357600080fd5b8382019150602082018581111561401957600080fd5b825186602082028301116401000000008211171561403657600080fd5b8083526020830192505050908051906020019060200280838360005b8381101561406d578082015181840152602081019050614052565b505050509050016040525050509850985098509850985098509850985098509193959799909294969850565b60606000603860009054906101000a900473ffffffffffffffffffffffffffffffffffffffff1673ffffffffffffffffffffffffffffffffffffffff16632b956ff7846040518263ffffffff1660e01b8152600401808273ffffffffffffffffffffffffffffffffffffffff1673ffffffffffffffffffffffffffffffffffffffff16815260200191505060206040518083038186803b15801561413c57600080fd5b505afa158015614150573d6000803e3d6000fd5b505050506040513d602081101561416657600080fd5b8101908080519060200190929190505050905061418281612e28565b915050919050565b60606040518060400160405280600581526020017f312e302e30000000000000000000000000000000000000000000000000000000815250905090565b6141cf61327c565b73ffffffffffffffffffffffffffffffffffffffff163373ffffffffffffffffffffffffffffffffffffffff1614614252576040517f08c379a00000000000000000000000000000000000000000000000000000000081526004018080602001828103825260248152602001806155826024913960400191505060405180910390fd5b6142a285858080601f016020809104026020016040519081016040528093929190818152602001838380828437600081840152601f19601f8201169050808301925050505050505084848461545c565b5050505050565b600080600080603560009054906101000a900473ffffffffffffffffffffffffffffffffffffffff1673ffffffffffffffffffffffffffffffffffffffff1663e8083863866040518263ffffffff1660e01b815260040180828152602001915050606060405180830381600087803b15801561432457600080fd5b505af1158015614338573d6000803e3d6000fd5b505050506040513d606081101561434e57600080fd5b81019080805190602001909291908051906020019092919080519060200190929190505050925092509250600083116143ef576040517f08c379a000000000000000000000000000000000000000000000000000000000815260040180806020018281038252601a8152602001807f496e76616c69642077696e6e696e672062696420616d6f756e7400000000000081525060200191505060405180910390fd5b60008211614465576040517f08c379a00000000000000000000000000000000000000000000000000000000081526004018080602001828103825260168152602001807f496e76616c69642077696e6e696e67206269642049640000000000000000000081525060200191505060405180910390fd5b600081116144db576040517f08c379a00000000000000000000000000000000000000000000000000000000081526004018080602001828103825260168152602001807f496e76616c6964207075626c69636174696f6e2049640000000000000000000081525060200191505060405180910390fd5b6000603760009054906101000a900473ffffffffffffffffffffffffffffffffffffffff1673ffffffffffffffffffffffffffffffffffffffff166310a6d0d5836040518263ffffffff1660e01b81526004018082815260200191505060206040518083038186803b15801561455057600080fd5b505afa158015614564573d6000803e3d6000fd5b505050506040513d602081101561457a57600080fd5b810190808051906020019092919050505090506000603860009054906101000a900473ffffffffffffffffffffffffffffffffffffffff1673ffffffffffffffffffffffffffffffffffffffff166390d976e2836040518263ffffffff1660e01b81526004018082815260200191505060206040518083038186803b15801561460257600080fd5b505afa158015614616573d6000803e3d6000fd5b505050506040513d602081101561462c57600080fd5b810190808051906020019092919050505090506000603860009054906101000a900473ffffffffffffffffffffffffffffffffffffffff1673ffffffffffffffffffffffffffffffffffffffff166390d976e2866040518263ffffffff1660e01b81526004018082815260200191505060206040518083038186803b1580156146b457600080fd5b505afa1580156146c8573d6000803e3d6000fd5b505050506040513d60208110156146de57600080fd5b81019080805190602001909291905050509050606080603760009054906101000a900473ffffffffffffffffffffffffffffffffffffffff1673ffffffffffffffffffffffffffffffffffffffff16639d273ddc876040518263ffffffff1660e01b81526004018082815260200191505060006040518083038186803b15801561476757600080fd5b505afa15801561477b573d6000803e3d6000fd5b505050506040513d6000823e3d601f19601f8201168201806040525060408110156147a557600080fd5b81019080805160405193929190846401000000008211156147c557600080fd5b838201915060208201858111156147db57600080fd5b82518660208202830111640100000000821117156147f857600080fd5b8083526020830192505050908051906020019060200280838360005b8381101561482f578082015181840152602081019050614814565b505050509050016040526020018051604051939291908464010000000082111561485857600080fd5b8382019150602082018581111561486e57600080fd5b825186602082028301116401000000008211171561488b57600080fd5b8083526020830192505050908051906020019060200280838360005b838110156148c25780820151818401526020810190506148a7565b50505050905001604052505050915091506060603860009054906101000a900473ffffffffffffffffffffffffffffffffffffffff1673ffffffffffffffffffffffffffffffffffffffff16637f4f2e84846040518263ffffffff1660e01b81526004018080602001828103825283818151815260200191508051906020019060200280838360005b8381101561496657808201518184015260208101905061494b565b505050509050019250505060006040518083038186803b15801561498957600080fd5b505afa15801561499d573d6000803e3d6000fd5b505050506040513d6000823e3d601f19601f8201168201806040525060208110156149c757600080fd5b81019080805160405193929190846401000000008211156149e757600080fd5b838201915060208201858111156149fd57600080fd5b8251866020820283011164010000000082111715614a1a57600080fd5b8083526020830192505050908051906020019060200280838360005b83811015614a51578082015181840152602081019050614a36565b505050509050016040525050509050603960009054906101000a900473ffffffffffffffffffffffffffffffffffffffff1673ffffffffffffffffffffffffffffffffffffffff1663841aee53858784868e6040518663ffffffff1660e01b8152600401808673ffffffffffffffffffffffffffffffffffffffff1673ffffffffffffffffffffffffffffffffffffffff1681526020018573ffffffffffffffffffffffffffffffffffffffff1673ffffffffffffffffffffffffffffffffffffffff1681526020018060200180602001848152602001838103835286818151815260200191508051906020019060200280838360005b83811015614b63578082015181840152602081019050614b48565b50505050905001838103825285818151815260200191508051906020019060200280838360005b83811015614ba5578082015181840152602081019050614b8a565b50505050905001975050505050505050602060405180830381600087803b158015614bcf57600080fd5b505af1158015614be3573d6000803e3d6000fd5b505050506040513d6020811015614bf957600080fd5b8101908080519060200190929190505050614c7c576040517f08c379a000000000000000000000000000000000000000000000000000000000815260040180806020018281038252601e8152602001807f42756c6b2061756374696f6e20736574746c656d656e74206661696c6564000081525060200191505060405180910390fd5b6000603760009054906101000a900473ffffffffffffffffffffffffffffffffffffffff1673ffffffffffffffffffffffffffffffffffffffff1663755f538c896040518263ffffffff1660e01b815260040180828152602001915050602060405180830381600087803b158015614cf357600080fd5b505af1158015614d07573d6000803e3d6000fd5b505050506040513d6020811015614d1d57600080fd5b81019080805190602001909291905050509050603660009054906101000a900473ffffffffffffffffffffffffffffffffffffffff1673ffffffffffffffffffffffffffffffffffffffff1663af5485a8868b8b856040518563ffffffff1660e01b8152600401808573ffffffffffffffffffffffffffffffffffffffff1673ffffffffffffffffffffffffffffffffffffffff168152602001848152602001838152602001828152602001945050505050600060405180830381600087803b158015614de957600080fd5b505af1158015614dfd573d6000803e3d6000fd5b5050505050505050505050505050919050565b6000603760009054906101000a900473ffffffffffffffffffffffffffffffffffffffff1673ffffffffffffffffffffffffffffffffffffffff16636c6167c6836040518263ffffffff1660e01b81526004018082815260200191505060206040518083038186803b158015614e8557600080fd5b505afa158015614e99573d6000803e3d6000fd5b505050506040513d6020811015614eaf57600080fd5b810190808051906020019092919050505090506000614ecc6123ee565b9050603560009054906101000a900473ffffffffffffffffffffffffffffffffffffffff1673ffffffffffffffffffffffffffffffffffffffff1663908e27eb8584846040518463ffffffff1660e01b8152600401808481526020018381526020018281526020019350505050602060405180830381600087803b158015614f5357600080fd5b505af1158015614f67573d6000803e3d6000fd5b505050506040513d6020811015614f7d57600080fd5b81019080805190602001909291905050505050505050565b6060603660009054906101000a900473ffffffffffffffffffffffffffffffffffffffff1673ffffffffffffffffffffffffffffffffffffffff1663fbd9d2eb836040518263ffffffff1660e01b81526004018082815260200191505060006040518083038186803b15801561500a57600080fd5b505afa15801561501e573d6000803e3d6000fd5b505050506040513d6000823e3d601f19601f82011682018060405250602081101561504857600080fd5b810190808051604051939291908464010000000082111561506857600080fd5b8382019150602082018581111561507e57600080fd5b825186602082028301116401000000008211171561509b57600080fd5b8083526020830192505050908051906020019060200280838360005b838110156150d25780820151818401526020810190506150b7565b505050509050016040525050509050919050565b600080603760009054906101000a900473ffffffffffffffffffffffffffffffffffffffff1673ffffffffffffffffffffffffffffffffffffffff16636c6167c6846040518263ffffffff1660e01b81526004018082815260200191505060206040518083038186803b15801561515c57600080fd5b505afa158015615170573d6000803e3d6000fd5b505050506040513d602081101561518657600080fd5b81019080805190602001909291905050509050603560009054906101000a900473ffffffffffffffffffffffffffffffffffffffff1673ffffffffffffffffffffffffffffffffffffffff16637a88dece826040518263ffffffff1660e01b81526004018082815260200191505060206040518083038186803b15801561520c57600080fd5b505afa158015615220573d6000803e3d6000fd5b505050506040513d602081101561523657600080fd5b8101908080519060200190929190505050915050919050565b6000603360009054906101000a900473ffffffffffffffffffffffffffffffffffffffff169050600073ffffffffffffffffffffffffffffffffffffffff168273ffffffffffffffffffffffffffffffffffffffff1614156152fc576040517f08c379a000000000000000000000000000000000000000000000000000000000815260040180806020018281038252602e8152602001806154a6602e913960400191505060405180910390fd5b8073ffffffffffffffffffffffffffffffffffffffff168273ffffffffffffffffffffffffffffffffffffffff161415615381576040517f08c379a000000000000000000000000000000000000000000000000000000000815260040180806020018281038252602d81526020018061552e602d913960400191505060405180910390fd5b8173ffffffffffffffffffffffffffffffffffffffff168173ffffffffffffffffffffffffffffffffffffffff167fb9f84b8e65164b14439ae3620df0a4d8786d896996c0282b683f9d8c08f046e860405160405180910390a381603360006101000a81548173ffffffffffffffffffffffffffffffffffffffff021916908373ffffffffffffffffffffffffffffffffffffffff1602179055505050565b600080303b90506000811491505090565b6000919050565b6000606061545460405180602001604052806000815250615462565b915091509091565b50505050565b600060606000839150915091509156fe43616e74206372656174652061207075626c69636174696f6e20696620796f7520617265206e6f74207265676973746572656447534e526563697069656e743a206e65772052656c617948756220697320746865207a65726f20616464726573734f6e6c7920746865207075626c69736865722063616e206d6f64696679207468652073746172742074696d65436f6e747261637420696e7374616e63652068617320616c7265616479206265656e20696e697469616c697a656447534e526563697069656e743a206e65772052656c6179487562206973207468652063757272656e74206f6e654f6e6c79206f776e65722063616e206368616e676520746865206f776e6572206164647265737347534e526563697069656e743a2063616c6c6572206973206e6f742052656c6179487562a265627a7a72315820d3fdad8d44870c47efe308dc17aefd015ec62295510b37e2f28b4a67acd1882064736f6c634300050c0032",
  "source": "pragma solidity ^0.5.12;\n\n/// @title UniCoin smart contract\n/// @author Chris Maree\n\nimport \"@openzeppelin/contracts-ethereum-package/contracts/GSN/GSNRecipient.sol\";\nimport \"@openzeppelin/upgrades/contracts/Initializable.sol\";\n\nimport \"./AuctionManager.sol\";\nimport \"./LicenceManager.sol\";\nimport \"./PublicationManager.sol\";\nimport \"./UserManager.sol\";\nimport \"./Vault.sol\";\n\ncontract UnicoinRegistry is Initializable, GSNRecipient {\n    address owner;\n\n    AuctionManager private auctionManager;\n    LicenceManager private licenceManager;\n    PublicationManager private publicationManager;\n    UserManager private userManager;\n    Vault private vault;\n\n    enum PricingStrategy {PrivateAuction, FixedRate}\n\n    function initialize(\n        address _auctionManager,\n        address _licenceManager,\n        address _publicationManager,\n        address _userManager,\n        address _vault\n    ) public initializer {\n        owner = msg.sender;\n\n        GSNRecipient.initialize();\n\n        auctionManager = AuctionManager(_auctionManager);\n        licenceManager = LicenceManager(_licenceManager);\n        publicationManager = PublicationManager(_publicationManager);\n        userManager = UserManager(_userManager);\n        vault = Vault(_vault);\n\n    }\n\n    // accept all requests\n    function acceptRelayedCall(\n        address,\n        address,\n        bytes calldata,\n        uint256,\n        uint256,\n        uint256,\n        uint256,\n        bytes calldata,\n        uint256\n    ) external view returns (uint256, bytes memory) {\n        return _approveRelayedCall();\n    }\n\n    function _preRelayedCall(bytes memory context) internal returns (bytes32) {\n        // solhint-disable-previous-line no-empty-blocks\n    }\n\n    function _postRelayedCall(\n        bytes memory context,\n        bool,\n        uint256 actualCharge,\n        bytes32\n    ) internal {\n        // solhint-disable-previous-line no-empty-blocks\n    }\n\n    function setOwner(address _owner) public {\n        require(owner == msg.sender, \"Only owner can change the owner address\");\n        owner = _owner;\n    }\n\n    function registerUser(string memory _profile_uri) public {\n        userManager._registerUser(_profile_uri, msg.sender);\n    }\n    function createPublication(\n        uint8 _pricing_Strategy,\n        string memory _publication_uri,\n        uint256 _auctionFloor,\n        uint256 _auctionStartTime,\n        uint256 _auctionDuration,\n        uint256 _fixed_sell_price,\n        uint256 _maxNumberOfLicences,\n        uint256[] memory _contributors,\n        uint256[] memory _contributors_weightings\n    ) public {\n        require(\n            isCallerRegistered(),\n            \"Cant create a publication if you are not registered\"\n        );\n        uint256 author_id = getCallerId();\n        uint256 publicationId = publicationManager._createPublication(\n            _pricing_Strategy,\n            _publication_uri,\n            author_id,\n            _fixed_sell_price,\n            _maxNumberOfLicences,\n            _contributors,\n            _contributors_weightings\n        );\n\n        if (PricingStrategy(_pricing_Strategy) != PricingStrategy.FixedRate) {\n            uint256 auctionId = auctionManager._createAuction(\n                publicationId,\n                _auctionFloor,\n                _auctionStartTime,\n                _auctionDuration\n            );\n            publicationManager._addAuctionToPublication(\n                publicationId,\n                auctionId\n            );\n        }\n    }\n\n    function commitSealedBid(bytes32 _bidHash, uint256 _publication_Id) public {\n        uint256 auction_Id = publicationManager.getLatestAuctionId(\n            _publication_Id\n        );\n        uint256 bidder_Id = getCallerId();\n        auctionManager._commitSealedBid(_bidHash, auction_Id, bidder_Id);\n    }\n\n    function revealSealedBid(\n        uint256 _bid,\n        uint256 _salt,\n        uint256 _publication_Id,\n        uint256 _bid_Id\n    ) public returns (uint256) {\n        uint256 auction_Id = publicationManager.getLatestAuctionId(\n            _publication_Id\n        );\n        uint256 bidder_Id = getCallerId();\n        auctionManager.revealSealedBid(\n            _bid,\n            _salt,\n            auction_Id,\n            _bid_Id,\n            bidder_Id\n        );\n    }\n\n    function finalizeAuction(uint256 _auction_Id) public returns (uint256) {\n        (uint256 winningBidAmount, uint256 winningBiderId, uint256 publicationId) = auctionManager\n            .finalizeAuction(_auction_Id);\n\n        require(winningBidAmount > 0, \"Invalid winning bid amount\");\n        require(winningBiderId > 0, \"Invalid winning bid Id\");\n        require(publicationId > 0, \"Invalid publication Id\");\n\n        uint256 authorId = publicationManager.getAuthorId(publicationId);\n        address authorAddress = userManager.getUserAddress(authorId);\n        address winningBidderAddress = userManager.getUserAddress(\n            winningBiderId\n        );\n\n        (uint256[] memory contributorIds, uint256[] memory contributorWeightings) = publicationManager\n            ._getContributers(publicationId);\n\n        address[] memory contributorAddresses = userManager.getAddressArray(\n            contributorIds\n        );\n\n        require(\n            vault.settleBulkPayment(\n                winningBidderAddress,\n                authorAddress,\n                contributorAddresses,\n                contributorWeightings,\n                winningBidAmount\n            ),\n            \"Bulk auction settlement failed\"\n        );\n\n        uint256 publicationLicenceNo = publicationManager\n            .addNewLicenceToPublication(publicationId);\n\n        licenceManager.registerNewLicence(\n            winningBidderAddress,\n            winningBiderId,\n            publicationId,\n            publicationLicenceNo\n        );\n    }\n\n    function buyLicenceFixedRate() public {}\n\n    function getPublicationsAuthorAddress(address _address)\n        public\n        view\n        returns (uint256[] memory)\n    {\n        uint256 author_Id = userManager.getUserId(_address);\n        return publicationManager.getAuthorPublications(author_Id);\n    }\n\n    function getPublicationsAuthorId(uint256 _author_Id)\n        public\n        view\n        returns (uint256[] memory)\n    {\n        return publicationManager.getAuthorPublications(_author_Id);\n    }\n\n    function getPublicationLicences(uint256 _publication_Id)\n        public\n        view\n        returns (uint256[] memory)\n    {\n        return licenceManager.getPublicationLicences(_publication_Id);\n    }\n\n    function getBids(address _address) public view returns (uint256[] memory) {\n        uint256 userAddress = userManager.getUserId(_address);\n        return auctionManager.getBidderBids(userAddress);\n    }\n\n    function getPublicationAuctions(uint256 _publication_Id)\n        public\n        view\n        returns (uint256[] memory)\n    {\n        return publicationManager.getPublicationAuctions(_publication_Id);\n    }\n\n    function getPublicationLength() public view returns (uint256) {\n        return publicationManager.getPublicationLength();\n    }\n\n    function getPublication(uint256 _publication_Id)\n        public\n        view\n        returns (\n            uint8,\n            string memory,\n            uint256,\n            uint256,\n            uint256,\n            uint256,\n            uint256[] memory,\n            uint256[] memory,\n            uint256[] memory\n        )\n    {\n        return (publicationManager.getPublication(_publication_Id));\n    }\n\n    function getLicenceForAddress(address _address)\n        public\n        view\n        returns (uint256[] memory)\n    {\n        uint256 user_Id = userManager.getUserId(_address);\n        return getLicenceForUserId(user_Id);\n    }\n\n    function getLicenceForUserId(uint256 _user_Id)\n        public\n        view\n        returns (uint256[] memory)\n    {\n        return licenceManager.getLicenceForUser(_user_Id);\n    }\n\n    function getLicence(uint256 _licence_Id)\n        public\n        view\n        returns (uint256, uint256, uint256)\n    {\n        return (licenceManager.getLicence(_licence_Id));\n    }\n\n    function donate(uint256 _publication_Id, uint256 _value) public {\n        uint256 authorId = publicationManager.getAuthorId(_publication_Id);\n        address authorAddress = userManager.getUserAddress(authorId);\n\n        (uint256[] memory contributorIds, uint256[] memory contributorWeightings) = publicationManager\n            ._getContributers(_publication_Id);\n\n        address[] memory contributorAddresses = userManager.getAddressArray(\n            contributorIds\n        );\n\n        require(\n            vault.settleBulkPayment(\n                msg.sender,\n                authorAddress,\n                contributorAddresses,\n                contributorWeightings,\n                _value\n            ),\n            \"Bulk auction settlement failed\"\n        );\n    }\n\n    function isCallerRegistered() public view returns (bool) {\n        return userManager.isAddressRegistered(msg.sender);\n    }\n\n    function getCallerId() public view returns (uint256) {\n        uint256 callerId = userManager.getUserId(msg.sender);\n        require(callerId != 0, \"Caller is not registered!\");\n        return callerId;\n    }\n\n    function getUserAddress(uint256 _user_Id) public view returns (address) {\n        return userManager.getUserAddress(_user_Id);\n    }\n\n    function canBidderPay(uint256 _user_Id, uint256 _amount)\n        public\n        view\n        returns (bool)\n    {\n        address userAddress = getUserAddress(_user_Id);\n        return vault.canBidderPay(userAddress, _amount);\n    }\n\n    function getBidderBids(uint256 _bidder_Id)\n        public\n        view\n        returns (uint256[] memory)\n    {\n        return auctionManager.getBidderBids(_bidder_Id);\n    }\n\n    function getBlockTime() public view returns (uint256) {\n        return now;\n    }\n\n    function getAuctionStatus(uint256 _auction_Id) public returns (uint256) {\n        return uint256(auctionManager.getAuctionStatus(_auction_Id));\n    }\n\n    function updateAuctionStartTime(\n        uint256 _publication_Id,\n        uint256 _newStartTime\n    ) public {\n        uint256 caller_Id = getCallerId();\n        require(\n            caller_Id == publicationManager.getAuthorId(_publication_Id),\n            \"Only the publisher can modify the start time\"\n        );\n        uint256 auction_Id = publicationManager.getLatestAuctionId(\n            _publication_Id\n        );\n        auctionManager.updateAuctionStartTime(auction_Id, _newStartTime);\n    }\n\n    function getPublicationBids(uint256 _publication_Id)\n        public\n        view\n        returns (uint256[] memory)\n    {\n        uint256 auction_Id = publicationManager.getLatestAuctionId(\n            _publication_Id\n        );\n        return (auctionManager.getAuctionBids(auction_Id));\n    }\n\n    function getBid(uint256 _bid_Id)\n        public\n        view\n        returns (bytes32, uint256, uint256, uint8, uint256, uint256, uint256)\n    {\n        return (auctionManager.getBid(_bid_Id));\n    }\n\n    function getPublicationAuctionBidLength(uint256 _publication_Id)\n        public\n        view\n        returns (uint256)\n    {\n        uint256 auction_Id = publicationManager.getLatestAuctionId(\n            _publication_Id\n        );\n        return auctionManager.getNumberOfBidsInAuction(auction_Id);\n    }\n}\n",
  "sourcePath": "/Users/chris/Projects/unicoindapp/contracts/UnicoinRegistry.sol",
  "compiler": {
    "name": "solc",
    "version": "0.5.12+commit.7709ece9.Emscripten.clang"
  },
  "schemaVersion": "3.0.16",
  "updatedAt": "2019-11-28T09:27:57.916Z",
  "devdoc": {
    "methods": {
      "getHubAddr()": {
        "details": "Returns the address of the {IRelayHub} contract for this recipient."
      },
      "postRelayedCall(bytes,bool,uint256,bytes32)": {
        "details": "See `IRelayRecipient.postRelayedCall`.     * This function should not be overriden directly, use `_postRelayedCall` instead.     * * Requirements:     * - the caller must be the `RelayHub` contract."
      },
      "preRelayedCall(bytes)": {
        "details": "See `IRelayRecipient.preRelayedCall`.     * This function should not be overriden directly, use `_preRelayedCall` instead.     * * Requirements:     * - the caller must be the `RelayHub` contract."
      },
      "relayHubVersion()": {
        "details": "Returns the version string of the {IRelayHub} for which this recipient implementation was built. If {_upgradeRelayHub} is used, the new {IRelayHub} instance should be compatible with this version."
      }
    }
  },
  "userdoc": {
    "methods": {}
  }
}