{
  "contractName": "UnicoinRegistry",
  "abi": [
    {
      "inputs": [
        {
          "internalType": "address",
          "name": "forwarder",
          "type": "address"
        }
      ],
      "name": "isTrustedForwarder",
      "outputs": [
        {
          "internalType": "bool",
          "name": "",
          "type": "bool"
        }
      ],
      "stateMutability": "view",
      "type": "function"
    },
    {
      "inputs": [],
      "name": "trustedForwarder",
      "outputs": [
        {
          "internalType": "address",
          "name": "",
          "type": "address"
        }
      ],
      "stateMutability": "view",
      "type": "function"
    },
    {
      "inputs": [],
      "name": "versionRecipient",
      "outputs": [
        {
          "internalType": "string",
          "name": "",
          "type": "string"
        }
      ],
      "stateMutability": "pure",
      "type": "function"
    },
    {
      "inputs": [
        {
          "internalType": "address",
          "name": "_auctionManager",
          "type": "address"
        },
        {
          "internalType": "address",
          "name": "_licenceManager",
          "type": "address"
        },
        {
          "internalType": "address",
          "name": "_publicationManager",
          "type": "address"
        },
        {
          "internalType": "address",
          "name": "_userManager",
          "type": "address"
        },
        {
          "internalType": "address",
          "name": "_harbergerTaxManager",
          "type": "address"
        },
        {
          "internalType": "address",
          "name": "_vault",
          "type": "address"
        },
        {
          "internalType": "address",
          "name": "_forwarder",
          "type": "address"
        }
      ],
      "name": "initialize",
      "outputs": [],
      "stateMutability": "nonpayable",
      "type": "function"
    },
    {
      "inputs": [
        {
          "internalType": "address",
          "name": "_owner",
          "type": "address"
        }
      ],
      "name": "setOwner",
      "outputs": [],
      "stateMutability": "nonpayable",
      "type": "function"
    },
    {
      "inputs": [
        {
          "internalType": "string",
          "name": "_profileUri",
          "type": "string"
        }
      ],
      "name": "registerUser",
      "outputs": [
        {
          "internalType": "uint256",
          "name": "",
          "type": "uint256"
        }
      ],
      "stateMutability": "nonpayable",
      "type": "function"
    },
    {
      "inputs": [
        {
          "internalType": "enum IPublicationManager.PricingStrategy",
          "name": "_pricingStrategy",
          "type": "uint8"
        },
        {
          "internalType": "string",
          "name": "_publicationUri",
          "type": "string"
        },
        {
          "internalType": "uint256",
          "name": "_auctionFloor",
          "type": "uint256"
        },
        {
          "internalType": "uint256",
          "name": "_auctionStartTime",
          "type": "uint256"
        },
        {
          "internalType": "uint256",
          "name": "_auctionDuration",
          "type": "uint256"
        },
        {
          "internalType": "uint256",
          "name": "_fixedSellPrice",
          "type": "uint256"
        },
        {
          "internalType": "uint256",
          "name": "_maxNumberOfLicences",
          "type": "uint256"
        },
        {
          "internalType": "uint256[]",
          "name": "_contributors",
          "type": "uint256[]"
        },
        {
          "internalType": "uint256[]",
          "name": "_contributorsWeightings",
          "type": "uint256[]"
        }
      ],
      "name": "createPublication",
      "outputs": [],
      "stateMutability": "nonpayable",
      "type": "function"
    },
    {
      "inputs": [
        {
          "internalType": "bytes32",
          "name": "_bidHash",
          "type": "bytes32"
        },
        {
          "internalType": "uint256",
          "name": "_publicationId",
          "type": "uint256"
        }
      ],
      "name": "commitSealedBid",
      "outputs": [],
      "stateMutability": "nonpayable",
      "type": "function"
    },
    {
      "inputs": [
        {
          "internalType": "uint256",
          "name": "_bid",
          "type": "uint256"
        },
        {
          "internalType": "uint256",
          "name": "_salt",
          "type": "uint256"
        },
        {
          "internalType": "uint256",
          "name": "_publicationId",
          "type": "uint256"
        },
        {
          "internalType": "uint256",
          "name": "_bidId",
          "type": "uint256"
        }
      ],
      "name": "revealSealedBid",
      "outputs": [
        {
          "internalType": "uint256",
          "name": "",
          "type": "uint256"
        }
      ],
      "stateMutability": "nonpayable",
      "type": "function"
    },
    {
      "inputs": [
        {
          "internalType": "uint256",
          "name": "_auctionId",
          "type": "uint256"
        }
      ],
      "name": "finalizeAuction",
      "outputs": [
        {
          "internalType": "uint256",
          "name": "",
          "type": "uint256"
        }
      ],
      "stateMutability": "nonpayable",
      "type": "function"
    },
    {
      "inputs": [],
      "name": "buyLicenceFixedRate",
      "outputs": [],
      "stateMutability": "nonpayable",
      "type": "function"
    },
    {
      "inputs": [
        {
          "internalType": "uint256",
          "name": "_publicationId",
          "type": "uint256"
        }
      ],
      "name": "claimHarbergerTax",
      "outputs": [
        {
          "internalType": "uint256",
          "name": "",
          "type": "uint256"
        }
      ],
      "stateMutability": "nonpayable",
      "type": "function"
    },
    {
      "inputs": [
        {
          "internalType": "uint256",
          "name": "_licenceId",
          "type": "uint256"
        },
        {
          "internalType": "uint256",
          "name": "_newValuation",
          "type": "uint256"
        }
      ],
      "name": "updateLicenceHarbergerValuation",
      "outputs": [
        {
          "internalType": "uint256",
          "name": "",
          "type": "uint256"
        }
      ],
      "stateMutability": "nonpayable",
      "type": "function"
    },
    {
      "inputs": [
        {
          "internalType": "uint256",
          "name": "_licenceId",
          "type": "uint256"
        },
        {
          "internalType": "uint256",
          "name": "_buyOutAmount",
          "type": "uint256"
        }
      ],
      "name": "createHarbergerBuyOut",
      "outputs": [
        {
          "internalType": "uint256",
          "name": "",
          "type": "uint256"
        }
      ],
      "stateMutability": "nonpayable",
      "type": "function"
    },
    {
      "inputs": [
        {
          "internalType": "uint256",
          "name": "_buyOutId",
          "type": "uint256"
        }
      ],
      "name": "finalizeBuyoutOffer",
      "outputs": [
        {
          "internalType": "bool",
          "name": "",
          "type": "bool"
        }
      ],
      "stateMutability": "nonpayable",
      "type": "function"
    },
    {
      "inputs": [
        {
          "internalType": "uint256",
          "name": "_taxObjectId",
          "type": "uint256"
        }
      ],
      "name": "getTaxObject",
      "outputs": [
        {
          "internalType": "uint256",
          "name": "",
          "type": "uint256"
        },
        {
          "internalType": "uint256",
          "name": "",
          "type": "uint256"
        },
        {
          "internalType": "uint256",
          "name": "",
          "type": "uint256"
        },
        {
          "internalType": "uint256",
          "name": "",
          "type": "uint256"
        },
        {
          "internalType": "uint256",
          "name": "",
          "type": "uint256"
        },
        {
          "internalType": "uint256[]",
          "name": "",
          "type": "uint256[]"
        },
        {
          "internalType": "uint8",
          "name": "",
          "type": "uint8"
        }
      ],
      "stateMutability": "view",
      "type": "function"
    },
    {
      "inputs": [
        {
          "internalType": "uint256",
          "name": "_buyOutId",
          "type": "uint256"
        }
      ],
      "name": "getBuyOut",
      "outputs": [
        {
          "internalType": "uint256",
          "name": "",
          "type": "uint256"
        },
        {
          "internalType": "uint256",
          "name": "",
          "type": "uint256"
        },
        {
          "internalType": "uint256",
          "name": "",
          "type": "uint256"
        },
        {
          "internalType": "uint256",
          "name": "",
          "type": "uint256"
        },
        {
          "internalType": "uint8",
          "name": "",
          "type": "uint8"
        }
      ],
      "stateMutability": "view",
      "type": "function"
    },
    {
      "inputs": [],
      "name": "getTaxObjectLength",
      "outputs": [
        {
          "internalType": "uint256",
          "name": "",
          "type": "uint256"
        }
      ],
      "stateMutability": "view",
      "type": "function"
    },
    {
      "inputs": [
        {
          "internalType": "uint256",
          "name": "_publicationId",
          "type": "uint256"
        }
      ],
      "name": "getMinBuyOutAmount",
      "outputs": [
        {
          "internalType": "uint256",
          "name": "",
          "type": "uint256"
        }
      ],
      "stateMutability": "view",
      "type": "function"
    },
    {
      "inputs": [
        {
          "internalType": "address",
          "name": "_address",
          "type": "address"
        }
      ],
      "name": "getPublicationsAuthorAddress",
      "outputs": [
        {
          "internalType": "uint256[]",
          "name": "",
          "type": "uint256[]"
        }
      ],
      "stateMutability": "view",
      "type": "function"
    },
    {
      "inputs": [
        {
          "internalType": "uint256",
          "name": "_authorId",
          "type": "uint256"
        }
      ],
      "name": "getPublicationsAuthorId",
      "outputs": [
        {
          "internalType": "uint256[]",
          "name": "",
          "type": "uint256[]"
        }
      ],
      "stateMutability": "view",
      "type": "function"
    },
    {
      "inputs": [
        {
          "internalType": "uint256",
          "name": "_publicationId",
          "type": "uint256"
        }
      ],
      "name": "getPublicationLicences",
      "outputs": [
        {
          "internalType": "uint256[]",
          "name": "",
          "type": "uint256[]"
        }
      ],
      "stateMutability": "view",
      "type": "function"
    },
    {
      "inputs": [
        {
          "internalType": "address",
          "name": "_address",
          "type": "address"
        }
      ],
      "name": "getBids",
      "outputs": [
        {
          "internalType": "uint256[]",
          "name": "",
          "type": "uint256[]"
        }
      ],
      "stateMutability": "view",
      "type": "function"
    },
    {
      "inputs": [
        {
          "internalType": "uint256",
          "name": "_publicationId",
          "type": "uint256"
        }
      ],
      "name": "getPublicationAuctions",
      "outputs": [
        {
          "internalType": "uint256[]",
          "name": "",
          "type": "uint256[]"
        }
      ],
      "stateMutability": "view",
      "type": "function"
    },
    {
      "inputs": [],
      "name": "getPublicationLength",
      "outputs": [
        {
          "internalType": "uint256",
          "name": "",
          "type": "uint256"
        }
      ],
      "stateMutability": "view",
      "type": "function"
    },
    {
      "inputs": [
        {
          "internalType": "uint256",
          "name": "_publicationId",
          "type": "uint256"
        }
      ],
      "name": "getPublication",
      "outputs": [
        {
          "internalType": "uint8",
          "name": "",
          "type": "uint8"
        },
        {
          "internalType": "string",
          "name": "",
          "type": "string"
        },
        {
          "internalType": "uint256",
          "name": "",
          "type": "uint256"
        },
        {
          "internalType": "uint256",
          "name": "",
          "type": "uint256"
        },
        {
          "internalType": "uint256",
          "name": "",
          "type": "uint256"
        },
        {
          "internalType": "uint256",
          "name": "",
          "type": "uint256"
        },
        {
          "internalType": "uint256[]",
          "name": "",
          "type": "uint256[]"
        },
        {
          "internalType": "uint256[]",
          "name": "",
          "type": "uint256[]"
        },
        {
          "internalType": "uint256[]",
          "name": "",
          "type": "uint256[]"
        }
      ],
      "stateMutability": "view",
      "type": "function"
    },
    {
      "inputs": [
        {
          "internalType": "address",
          "name": "_address",
          "type": "address"
        }
      ],
      "name": "getLicenceForAddress",
      "outputs": [
        {
          "internalType": "uint256[]",
          "name": "",
          "type": "uint256[]"
        }
      ],
      "stateMutability": "view",
      "type": "function"
    },
    {
      "inputs": [
        {
          "internalType": "uint256",
          "name": "_userId",
          "type": "uint256"
        }
      ],
      "name": "getLicenceForUserId",
      "outputs": [
        {
          "internalType": "uint256[]",
          "name": "",
          "type": "uint256[]"
        }
      ],
      "stateMutability": "view",
      "type": "function"
    },
    {
      "inputs": [
        {
          "internalType": "uint256",
          "name": "_licenceId",
          "type": "uint256"
        }
      ],
      "name": "getLicence",
      "outputs": [
        {
          "internalType": "uint256",
          "name": "",
          "type": "uint256"
        },
        {
          "internalType": "uint256",
          "name": "",
          "type": "uint256"
        },
        {
          "internalType": "uint256",
          "name": "",
          "type": "uint256"
        },
        {
          "internalType": "uint8",
          "name": "",
          "type": "uint8"
        }
      ],
      "stateMutability": "view",
      "type": "function"
    },
    {
      "inputs": [
        {
          "internalType": "uint256",
          "name": "_publicationId",
          "type": "uint256"
        },
        {
          "internalType": "uint256",
          "name": "_value",
          "type": "uint256"
        }
      ],
      "name": "donate",
      "outputs": [],
      "stateMutability": "nonpayable",
      "type": "function"
    },
    {
      "inputs": [],
      "name": "isCallerRegistered",
      "outputs": [
        {
          "internalType": "bool",
          "name": "",
          "type": "bool"
        }
      ],
      "stateMutability": "view",
      "type": "function"
    },
    {
      "inputs": [],
      "name": "getCallerId",
      "outputs": [
        {
          "internalType": "uint256",
          "name": "",
          "type": "uint256"
        }
      ],
      "stateMutability": "view",
      "type": "function"
    },
    {
      "inputs": [
        {
          "internalType": "uint256",
          "name": "_userId",
          "type": "uint256"
        }
      ],
      "name": "getUserAddress",
      "outputs": [
        {
          "internalType": "address",
          "name": "",
          "type": "address"
        }
      ],
      "stateMutability": "view",
      "type": "function"
    },
    {
      "inputs": [
        {
          "internalType": "uint256",
          "name": "_userId",
          "type": "uint256"
        },
        {
          "internalType": "uint256",
          "name": "_amount",
          "type": "uint256"
        }
      ],
      "name": "canAddressPay",
      "outputs": [
        {
          "internalType": "bool",
          "name": "",
          "type": "bool"
        }
      ],
      "stateMutability": "view",
      "type": "function"
    },
    {
      "inputs": [
        {
          "internalType": "uint256",
          "name": "_bidderId",
          "type": "uint256"
        }
      ],
      "name": "getBidderBids",
      "outputs": [
        {
          "internalType": "uint256[]",
          "name": "",
          "type": "uint256[]"
        }
      ],
      "stateMutability": "view",
      "type": "function"
    },
    {
      "inputs": [],
      "name": "getBlockTime",
      "outputs": [
        {
          "internalType": "uint256",
          "name": "",
          "type": "uint256"
        }
      ],
      "stateMutability": "view",
      "type": "function"
    },
    {
      "inputs": [
        {
          "internalType": "uint256",
          "name": "_auctionId",
          "type": "uint256"
        }
      ],
      "name": "getAuctionStatus",
      "outputs": [
        {
          "internalType": "uint256",
          "name": "",
          "type": "uint256"
        }
      ],
      "stateMutability": "nonpayable",
      "type": "function"
    },
    {
      "inputs": [
        {
          "internalType": "uint256",
          "name": "_publicationId",
          "type": "uint256"
        },
        {
          "internalType": "uint256",
          "name": "_newStartTime",
          "type": "uint256"
        }
      ],
      "name": "updateAuctionStartTime",
      "outputs": [],
      "stateMutability": "nonpayable",
      "type": "function"
    },
    {
      "inputs": [
        {
          "internalType": "uint256",
          "name": "_publicationId",
          "type": "uint256"
        }
      ],
      "name": "getPublicationBids",
      "outputs": [
        {
          "internalType": "uint256[]",
          "name": "",
          "type": "uint256[]"
        }
      ],
      "stateMutability": "view",
      "type": "function"
    },
    {
      "inputs": [
        {
          "internalType": "uint256",
          "name": "_bidId",
          "type": "uint256"
        }
      ],
      "name": "getBid",
      "outputs": [
        {
          "internalType": "bytes32",
          "name": "",
          "type": "bytes32"
        },
        {
          "internalType": "uint256",
          "name": "",
          "type": "uint256"
        },
        {
          "internalType": "uint256",
          "name": "",
          "type": "uint256"
        },
        {
          "internalType": "uint8",
          "name": "",
          "type": "uint8"
        },
        {
          "internalType": "uint256",
          "name": "",
          "type": "uint256"
        },
        {
          "internalType": "uint256",
          "name": "",
          "type": "uint256"
        },
        {
          "internalType": "uint256",
          "name": "",
          "type": "uint256"
        }
      ],
      "stateMutability": "view",
      "type": "function"
    },
    {
      "inputs": [
        {
          "internalType": "uint256",
          "name": "_publicationId",
          "type": "uint256"
        }
      ],
      "name": "getPublicationAuctionBidLength",
      "outputs": [
        {
          "internalType": "uint256",
          "name": "",
          "type": "uint256"
        }
      ],
      "stateMutability": "view",
      "type": "function"
    },
    {
      "inputs": [
        {
          "internalType": "uint256",
          "name": "tokenId",
          "type": "uint256"
        }
      ],
      "name": "ownerOf",
      "outputs": [
        {
          "internalType": "address",
          "name": "",
          "type": "address"
        }
      ],
      "stateMutability": "view",
      "type": "function"
    },
    {
      "inputs": [
        {
          "internalType": "uint256",
          "name": "_taxObjectId",
          "type": "uint256"
        }
      ],
      "name": "getOutstandingTax",
      "outputs": [
        {
          "internalType": "uint256",
          "name": "",
          "type": "uint256"
        }
      ],
      "stateMutability": "view",
      "type": "function"
    },
    {
      "inputs": [
        {
          "internalType": "uint256",
          "name": "_taxObjectId",
          "type": "uint256"
        }
      ],
      "name": "getMinBuyOutPrice",
      "outputs": [
        {
          "internalType": "uint256",
          "name": "",
          "type": "uint256"
        }
      ],
      "stateMutability": "view",
      "type": "function"
    },
    {
      "inputs": [
        {
          "internalType": "uint256",
          "name": "_licenceId",
          "type": "uint256"
        }
      ],
      "name": "getLicenceTaxObjectId",
      "outputs": [
        {
          "internalType": "uint256",
          "name": "",
          "type": "uint256"
        }
      ],
      "stateMutability": "view",
      "type": "function"
    },
    {
      "inputs": [
        {
          "internalType": "uint256",
          "name": "_licenceId",
          "type": "uint256"
        }
      ],
      "name": "getLicenceBuyOuts",
      "outputs": [
        {
          "internalType": "uint256[]",
          "name": "",
          "type": "uint256[]"
        },
        {
          "internalType": "uint256[]",
          "name": "",
          "type": "uint256[]"
        },
        {
          "internalType": "uint256[]",
          "name": "",
          "type": "uint256[]"
        },
        {
          "internalType": "uint256[]",
          "name": "",
          "type": "uint256[]"
        },
        {
          "internalType": "enum IHarbergerTaxManager.BuyOutStatus[]",
          "name": "",
          "type": "uint8[]"
        }
      ],
      "stateMutability": "view",
      "type": "function"
    },
    {
      "inputs": [
        {
          "internalType": "uint256",
          "name": "_publicationId",
          "type": "uint256"
        }
      ],
      "name": "getMostRecentPublicationLicence",
      "outputs": [
        {
          "internalType": "uint256",
          "name": "",
          "type": "uint256"
        }
      ],
      "stateMutability": "view",
      "type": "function"
    },
    {
      "inputs": [
        {
          "internalType": "uint256",
          "name": "_auctionId",
          "type": "uint256"
        }
      ],
      "name": "getAuction",
      "outputs": [
        {
          "internalType": "uint256",
          "name": "",
          "type": "uint256"
        },
        {
          "internalType": "uint256",
          "name": "",
          "type": "uint256"
        },
        {
          "internalType": "uint256",
          "name": "",
          "type": "uint256"
        },
        {
          "internalType": "uint256",
          "name": "",
          "type": "uint256"
        },
        {
          "internalType": "uint256[]",
          "name": "",
          "type": "uint256[]"
        },
        {
          "internalType": "uint256",
          "name": "",
          "type": "uint256"
        },
        {
          "internalType": "uint8",
          "name": "",
          "type": "uint8"
        }
      ],
      "stateMutability": "view",
      "type": "function"
    }
  ],
  "bytecode": "0x608060405234801561001057600080fd5b5061422f806100206000396000f3fe608060405234801561001057600080fd5b50600436106103205760003560e01c80637765c52c116101a7578063b352c82d116100ee578063eb12cdc311610097578063fbd9d2eb11610071578063fbd9d2eb14610790578063fd8446e9146107a3578063ff42e879146107ab57600080fd5b8063eb12cdc314610733578063eb9c6e8114610759578063ec297be61461077d57600080fd5b8063c9603311116100c8578063c9603311146106cf578063d74298df1461070d578063e80838631461072057600080fd5b8063b352c82d14610696578063b4c0bd9d146106a9578063b7b668af146106bc57600080fd5b806390d976e211610150578063a564e83c1161012a578063a564e83c14610648578063a8020ee714610670578063b3208f121461068357600080fd5b806390d976e21461060f5780639ae001ff146106225780639dccae821461063557600080fd5b80637ece03bb116101815780637ece03bb146105ee57806387ceff09146105f6578063897f1e4a146105fc57600080fd5b80637765c52c146105a457806378bd7935146105b75780637da0a877146105dd57600080fd5b80633c889e6f1161026b578063522b0e231161021457806362838913116101ee57806362838913146105525780636352211e14610566578063704f1b941461059157600080fd5b8063522b0e2314610505578063572b6c05146105185780635bc2ff781461054a57600080fd5b8063486ff0cd11610245578063486ff0cd146104a05780634cd54184146104df57806351a35349146104f257600080fd5b80633c889e6f146104305780633e7646041461047a57806346ac9a361461048d57600080fd5b80631aa5b7e9116102cd57806328260cf9116102a757806328260cf9146103d45780632cedebee146103e7578063358764761461041d57600080fd5b80631aa5b7e9146103a6578063207f2937146103ae5780632207fc6a146103c157600080fd5b806311fcd546116102fe57806311fcd5461461036057806313af40351461038057806314b37f581461039357600080fd5b806303b43c771461032557806304686b4a1461034b5780630cdd53f61461034d575b600080fd5b610338610333366004613427565b6107be565b6040519081526020015b60405180910390f35b005b61034b61035b366004613427565b61098f565b61037361036e366004613449565b610c3a565b604051610342919061349d565b61034b61038e3660046134c8565b610cb3565b61034b6103a136600461364c565b610d57565b610338610f75565b6103736103bc366004613449565b61104f565b6103386103cf366004613716565b611081565b6103386103e2366004613449565b611184565b6103fa6103f5366004613449565b6111f3565b6040805194855260208501939093529183015260ff166060820152608001610342565b61034b61042b366004613748565b611278565b61044361043e366004613449565b6113e6565b6040805197885260208801969096529486019390935260ff9091166060850152608084015260a083015260c082015260e001610342565b610373610488366004613449565b611477565b61033861049b366004613449565b611564565b604080518082018252601481527f332e302e302d616c706861302b756e69636f696e00000000000000000000000060208201529051610342919061383a565b6103386104ed366004613449565b611cf2565b6103736105003660046134c8565b611d24565b610373610513366004613449565b611dcb565b61053a6105263660046134c8565b6000546001600160a01b0391821691161490565b6040519015158152602001610342565b61053a611dfd565b610338610560366004613449565b50600090565b610579610574366004613449565b611e86565b6040516001600160a01b039091168152602001610342565b61033861059f36600461384d565b611ef5565b6103386105b2366004613449565b611f74565b6105ca6105c5366004613449565b611ff5565b6040516103429796959493929190613882565b6000546001600160a01b0316610579565b610338612074565b42610338565b61037361060a366004613449565b6120e2565b61057961061d366004613449565b612114565b61034b610630366004613427565b612148565b6103736106433660046134c8565b6122f3565b61065b610656366004613449565b61239a565b604051610342999897969594939291906138ca565b61037361067e3660046134c8565b61243c565b61053a610691366004613427565b6124bc565b6103386106a4366004613449565b612547565b6103386106b7366004613449565b612579565b61053a6106ca366004613449565b6125ab565b6106e26106dd366004613449565b6128e0565b60408051958652602086019490945292840191909152606083015260ff16608082015260a001610342565b61033861071b366004613427565b612968565b61033861072e366004613449565b612a73565b610746610741366004613449565b6130c3565b604051610342979695949392919061394c565b61076c610767366004613449565b613142565b6040516103429594939291906139c8565b61034b61078b366004613427565b6131bc565b61037361079e366004613449565b6132bb565b6103386132ed565b6103386107b9366004613449565b613337565b6002546040516392c6830f60e01b81526004810184905260009182916001600160a01b03909116906392c6830f90602401602060405180830381865afa15801561080c573d6000803e3d6000fd5b505050506040513d601f19601f820116820180604052508101906108309190613a64565b905061083a610f75565b81146108b35760405162461bcd60e51b815260206004820152603860248201527f4f6e6c79207468652063757272656e74206c6963656e6365206f776e6572206360448201527f616e2075706461746520746865202076616c756174696f6e000000000000000060648201526084015b60405180910390fd5b60055460405163b4c0bd9d60e01b8152600481018690526000916001600160a01b03169063b4c0bd9d90602401602060405180830381865afa1580156108fd573d6000803e3d6000fd5b505050506040513d601f19601f820116820180604052508101906109219190613a64565b600554604051631116c47960e31b815260048101839052602481018790529192506001600160a01b0316906388b623c890604401600060405180830381600087803b15801561096f57600080fd5b505af1158015610983573d6000803e3d6000fd5b50505050505092915050565b6003546040516310a6d0d560e01b8152600481018490526000916001600160a01b0316906310a6d0d590602401602060405180830381865afa1580156109d9573d6000803e3d6000fd5b505050506040513d601f19601f820116820180604052508101906109fd9190613a64565b6004805460405163486cbb7160e11b81529182018390529192506000916001600160a01b0316906390d976e290602401602060405180830381865afa158015610a4a573d6000803e3d6000fd5b505050506040513d601f19601f82011682018060405250810190610a6e9190613a7d565b600354604051632749cf7760e21b81526004810187905291925060009182916001600160a01b031690639d273ddc90602401600060405180830381865afa158015610abd573d6000803e3d6000fd5b505050506040513d6000823e601f3d908101601f19168201604052610ae59190810190613af5565b60048054604051631fd3cba160e21b81529395509193506000926001600160a01b0390921691637f4f2e8491610b1d9187910161349d565b600060405180830381865afa158015610b3a573d6000803e3d6000fd5b505050506040513d6000823e601f3d908101601f19168201604052610b629190810190613b59565b6006549091506001600160a01b031663841aee53610b7e6133f3565b8684868b6040518663ffffffff1660e01b8152600401610ba2959493929190613bf3565b6020604051808303816000875af1158015610bc1573d6000803e3d6000fd5b505050506040513d601f19601f82011682018060405250810190610be59190613c72565b610c315760405162461bcd60e51b815260206004820152601e60248201527f42756c6b2061756374696f6e20736574746c656d656e74206661696c6564000060448201526064016108aa565b50505050505050565b60035460405163f88e44a360e01b8152600481018390526060916001600160a01b03169063f88e44a3906024015b600060405180830381865afa158015610c85573d6000803e3d6000fd5b505050506040513d6000823e601f3d908101601f19168201604052610cad9190810190613c94565b92915050565b610cbb6133f3565b6007546001600160a01b03908116911614610d285760405162461bcd60e51b815260206004820152602760248201527f4f6e6c79206f776e65722063616e206368616e676520746865206f776e6572206044820152666164647265737360c81b60648201526084016108aa565b6007805473ffffffffffffffffffffffffffffffffffffffff19166001600160a01b0392909216919091179055565b610d5f611dfd565b610dd15760405162461bcd60e51b815260206004820152603360248201527f43616e74206372656174652061207075626c69636174696f6e20696620796f7560448201527f20617265206e6f7420726567697374657265640000000000000000000000000060648201526084016108aa565b6000610ddb610f75565b6003546040516324bf0c9760e11b81529192506000916001600160a01b039091169063497e192e90610e1d908e908e9087908c908c908c908c90600401613cc9565b6020604051808303816000875af1158015610e3c573d6000803e3d6000fd5b505050506040513d601f19601f82011682018060405250810190610e609190613a64565b905060018b6002811115610e7657610e76613994565b14610f685760015460405163b8f4e5a560e01b815260048101839052602481018b9052604481018a9052606481018990526000916001600160a01b03169063b8f4e5a5906084016020604051808303816000875af1158015610edc573d6000803e3d6000fd5b505050506040513d601f19601f82011682018060405250810190610f009190613a64565b600354604051637c14866f60e11b815260048101859052602481018390529192506001600160a01b03169063f8290cde90604401600060405180830381600087803b158015610f4e57600080fd5b505af1158015610f62573d6000803e3d6000fd5b50505050505b5050505050505050505050565b60045460009081906001600160a01b0316632b956ff7610f936133f3565b6040516001600160e01b031960e084901b1681526001600160a01b039091166004820152602401602060405180830381865afa158015610fd7573d6000803e3d6000fd5b505050506040513d601f19601f82011682018060405250810190610ffb9190613a64565b90508061104a5760405162461bcd60e51b815260206004820152601960248201527f43616c6c6572206973206e6f742072656769737465726564210000000000000060448201526064016108aa565b919050565b60035460405163207f293760e01b8152600481018390526060916001600160a01b03169063207f293790602401610c68565b600354604051633630b3e360e11b81526004810184905260009182916001600160a01b0390911690636c6167c690602401602060405180830381865afa1580156110cf573d6000803e3d6000fd5b505050506040513d601f19601f820116820180604052508101906110f39190613a64565b905060006110ff610f75565b600154604051634a6878af60e11b8152600481018a9052602481018990526044810185905260648101879052608481018390529192506001600160a01b0316906394d0f15e9060a401600060405180830381600087803b15801561116257600080fd5b505af1158015611176573d6000803e3d6000fd5b505050505050949350505050565b600554604051631c59b01360e11b8152600481018390526000916001600160a01b0316906338b36026906024015b602060405180830381865afa1580156111cf573d6000803e3d6000fd5b505050506040513d601f19601f82011682018060405250810190610cad9190613a64565b600254604051631676f5f760e11b8152600481018390526000918291829182916001600160a01b0390911690632cedebee90602401608060405180830381865afa158015611245573d6000803e3d6000fd5b505050506040513d601f19601f820116820180604052508101906112699190613d42565b93509350935093509193509193565b600054600160a81b900460ff1661129c57600054600160a01b900460ff16156112a0565b303b155b6113125760405162461bcd60e51b815260206004820152602e60248201527f496e697469616c697a61626c653a20636f6e747261637420697320616c72656160448201527f647920696e697469616c697a656400000000000000000000000000000000000060648201526084016108aa565b600054600160a81b900460ff1615801561133c576000805461ffff60a01b191661010160a01b1790555b6113446133f3565b6007805473ffffffffffffffffffffffffffffffffffffffff199081166001600160a01b03938416179091556000805482168584161790556001805482168b84161790556002805482168a84161790556003805482168984161790556004805482168884161790556005805482168784161790556006805490911691851691909117905580156113dc576000805460ff60a81b191690555b5050505050505050565b600154604051633c889e6f60e01b8152600481018390526000918291829182918291829182916001600160a01b031690633c889e6f9060240160e060405180830381865afa15801561143c573d6000803e3d6000fd5b505050506040513d601f19601f820116820180604052508101906114609190613d81565b959e949d50929b5090995097509550909350915050565b600354604051633630b3e360e11b8152600481018390526060916000916001600160a01b0390911690636c6167c690602401602060405180830381865afa1580156114c6573d6000803e3d6000fd5b505050506040513d601f19601f820116820180604052508101906114ea9190613a64565b60015460405163385a3b4760e11b8152600481018390529192506001600160a01b0316906370b4768e906024015b600060405180830381865afa158015611535573d6000803e3d6000fd5b505050506040513d6000823e601f3d908101601f1916820160405261155d9190810190613c94565b9392505050565b600254604051631335506160e21b81526004810183905260009182916001600160a01b0390911690634cd5418490602401602060405180830381865afa1580156115b2573d6000803e3d6000fd5b505050506040513d601f19601f820116820180604052508101906115d69190613a64565b60055460405163b4c0bd9d60e01b8152600481018390529192506000916001600160a01b039091169063b4c0bd9d90602401602060405180830381865afa158015611625573d6000803e3d6000fd5b505050506040513d601f19601f820116820180604052508101906116499190613a64565b600554604051634511371960e11b8152600481018390529192506000916001600160a01b0390911690638a226e3290602401602060405180830381865afa158015611698573d6000803e3d6000fd5b505050506040513d601f19601f820116820180604052508101906116bc9190613a64565b6002546040516331a9108f60e11b8152600481018690529192506000916001600160a01b0390911690636352211e90602401602060405180830381865afa15801561170b573d6000803e3d6000fd5b505050506040513d601f19601f8201168201806040525081019061172f9190613a7d565b600654604051637a3e00cd60e01b81526001600160a01b0380841660048301526024820186905292935060009290911690637a3e00cd90604401602060405180830381865afa158015611786573d6000803e3d6000fd5b505050506040513d601f19601f820116820180604052508101906117aa9190613c72565b90508015611abb576003546040516310a6d0d560e01b8152600481018990526000916001600160a01b0316906310a6d0d590602401602060405180830381865afa1580156117fc573d6000803e3d6000fd5b505050506040513d601f19601f820116820180604052508101906118209190613a64565b6004805460405163486cbb7160e11b81529182018390529192506000916001600160a01b0316906390d976e290602401602060405180830381865afa15801561186d573d6000803e3d6000fd5b505050506040513d601f19601f820116820180604052508101906118919190613a7d565b600354604051632749cf7760e21b8152600481018c905291925060009182916001600160a01b031690639d273ddc90602401600060405180830381865afa1580156118e0573d6000803e3d6000fd5b505050506040513d6000823e601f3d908101601f191682016040526119089190810190613af5565b60048054604051631fd3cba160e21b81529395509193506000926001600160a01b0390921691637f4f2e84916119409187910161349d565b600060405180830381865afa15801561195d573d6000803e3d6000fd5b505050506040513d6000823e601f3d908101601f191682016040526119859190810190613b59565b60065460405163841aee5360e01b81529192506001600160a01b03169063841aee53906119be908a908890869088908f90600401613bf3565b6020604051808303816000875af11580156119dd573d6000803e3d6000fd5b505050506040513d601f19601f82011682018060405250810190611a019190613c72565b611a4d5760405162461bcd60e51b815260206004820181905260248201527f42756c6b2068617262657267657220736574746c656d656e74206661696c656460448201526064016108aa565b60055460405163709b1da960e11b8152600481018b90526001600160a01b039091169063e1363b5290602401600060405180830381600087803b158015611a9357600080fd5b505af1158015611aa7573d6000803e3d6000fd5b50999e9d5050505050505050505050505050565b80611ce857600254604051633a7ae75d60e01b8152600481018790526001600160a01b0390911690633a7ae75d90602401600060405180830381600087803b158015611b0657600080fd5b505af1158015611b1a573d6000803e3d6000fd5b5050600354604051633a7ae75d60e01b8152600481018b90526001600160a01b039091169250633a7ae75d91506024016020604051808303816000875af1158015611b69573d6000803e3d6000fd5b505050506040513d601f19601f82011682018060405250810190611b8d9190613a64565b50600554604051631af19b2b60e31b8152600481018690526001600160a01b039091169063d78cd95890602401600060405180830381600087803b158015611bd457600080fd5b505af1158015611be8573d6000803e3d6000fd5b505060015460405163b8f4e5a560e01b8152600481018b905260006024820181905242604483015262278d00606483015293506001600160a01b03909116915063b8f4e5a5906084016020604051808303816000875af1158015611c50573d6000803e3d6000fd5b505050506040513d601f19601f82011682018060405250810190611c749190613a64565b600354604051637c14866f60e11b8152600481018b9052602481018390529192506001600160a01b03169063f8290cde90604401600060405180830381600087803b158015611cc257600080fd5b505af1158015611cd6573d6000803e3d6000fd5b5060009b9a5050505050505050505050565b5050505050919050565b600254604051631335506160e21b8152600481018390526000916001600160a01b031690634cd54184906024016111b2565b60048054604051632b956ff760e01b81526001600160a01b03848116938201939093526060926000921690632b956ff790602401602060405180830381865afa158015611d75573d6000803e3d6000fd5b505050506040513d601f19601f82011682018060405250810190611d999190613a64565b60035460405163f88e44a360e01b8152600481018390529192506001600160a01b03169063f88e44a390602401611518565b600254604051639787bb4160e01b8152600481018390526060916001600160a01b031690639787bb4190602401610c68565b6004546000906001600160a01b03166338b6a3a1611e196133f3565b6040516001600160e01b031960e084901b1681526001600160a01b039091166004820152602401602060405180830381865afa158015611e5d573d6000803e3d6000fd5b505050506040513d601f19601f82011682018060405250810190611e819190613c72565b905090565b6002546040516331a9108f60e11b8152600481018390526000916001600160a01b031690636352211e906024015b602060405180830381865afa158015611ed1573d6000803e3d6000fd5b505050506040513d601f19601f82011682018060405250810190610cad9190613a7d565b60045460009081906001600160a01b0316636ec3877f84611f146133f3565b6040518363ffffffff1660e01b8152600401611f31929190613ddd565b6020604051808303816000875af1158015611f50573d6000803e3d6000fd5b505050506040513d601f19601f8201168201806040525081019061155d9190613a64565b600154604051631dd9714b60e21b8152600481018390526000916001600160a01b031690637765c52c906024016020604051808303816000875af1158015611fc0573d6000803e3d6000fd5b505050506040513d601f19601f82011682018060405250810190611fe49190613e08565b6003811115610cad57610cad613994565b6001546040516378bd793560e01b815260048101839052600091829182918291606091839182916001600160a01b0316906378bd793590602401600060405180830381865afa15801561204c573d6000803e3d6000fd5b505050506040513d6000823e601f3d908101601f191682016040526114609190810190613e29565b60035460408051637ece03bb60e01b815290516000926001600160a01b031691637ece03bb9160048083019260209291908290030181865afa1580156120be573d6000803e3d6000fd5b505050506040513d601f19601f82011682018060405250810190611e819190613a64565b6001546040516344bf8f2560e11b8152600481018390526060916001600160a01b03169063897f1e4a90602401610c68565b6004805460405163486cbb7160e11b81529182018390526000916001600160a01b03909116906390d976e290602401611eb4565b6000612152610f75565b6003546040516310a6d0d560e01b8152600481018690529192506001600160a01b0316906310a6d0d590602401602060405180830381865afa15801561219c573d6000803e3d6000fd5b505050506040513d601f19601f820116820180604052508101906121c09190613a64565b81146122235760405162461bcd60e51b815260206004820152602c60248201527f4f6e6c7920746865207075626c69736865722063616e206d6f6469667920746860448201526b652073746172742074696d6560a01b60648201526084016108aa565b600354604051633630b3e360e11b8152600481018590526000916001600160a01b031690636c6167c690602401602060405180830381865afa15801561226d573d6000803e3d6000fd5b505050506040513d601f19601f820116820180604052508101906122919190613a64565b600154604051639ae001ff60e01b815260048101839052602481018690529192506001600160a01b031690639ae001ff90604401600060405180830381600087803b1580156122df57600080fd5b505af11580156113dc573d6000803e3d6000fd5b60048054604051632b956ff760e01b81526001600160a01b03848116938201939093526060926000921690632b956ff790602401602060405180830381865afa158015612344573d6000803e3d6000fd5b505050506040513d601f19601f820116820180604052508101906123689190613a64565b6001546040516344bf8f2560e11b8152600481018390529192506001600160a01b03169063897f1e4a90602401611518565b6003546040516329593a0f60e21b81526004810183905260009160609183918291829182918691829182916001600160a01b03169063a564e83c90602401600060405180830381865afa1580156123f5573d6000803e3d6000fd5b505050506040513d6000823e601f3d908101601f1916820160405261241d9190810190613eec565b9850985098509850985098509850985098509193959799909294969850565b60048054604051632b956ff760e01b81526001600160a01b03848116938201939093526060926000921690632b956ff790602401602060405180830381865afa15801561248d573d6000803e3d6000fd5b505050506040513d601f19601f820116820180604052508101906124b19190613a64565b905061155d81611dcb565b6000806124c884612114565b600654604051637a3e00cd60e01b81526001600160a01b03808416600483015260248201879052929350911690637a3e00cd90604401602060405180830381865afa15801561251b573d6000803e3d6000fd5b505050506040513d601f19601f8201168201806040525081019061253f9190613c72565b949350505050565b600554604051634511371960e11b8152600481018390526000916001600160a01b031690638a226e32906024016111b2565b60055460405163b4c0bd9d60e01b8152600481018390526000916001600160a01b03169063b4c0bd9d906024016111b2565b600554604051630e95b25960e41b81526004810183905260009182916001600160a01b039091169063e95b2590906024016020604051808303816000875af11580156125fb573d6000803e3d6000fd5b505050506040513d601f19601f8201168201806040525081019061261f9190613c72565b905080156128da57600554604051635859eec160e01b8152600481018590526000916001600160a01b031690635859eec190602401602060405180830381865afa158015612671573d6000803e3d6000fd5b505050506040513d601f19601f820116820180604052508101906126959190613a64565b6005546040516372d8e81960e01b8152600481018790529192506000916001600160a01b03909116906372d8e81990602401602060405180830381865afa1580156126e4573d6000803e3d6000fd5b505050506040513d601f19601f820116820180604052508101906127089190613a64565b6004805460405163486cbb7160e11b81529182018390529192506000916001600160a01b0316906390d976e290602401602060405180830381865afa158015612755573d6000803e3d6000fd5b505050506040513d601f19601f820116820180604052508101906127799190613a7d565b6002546040516392c6830f60e01b8152600481018690529192506000916001600160a01b03909116906392c6830f90602401602060405180830381865afa1580156127c8573d6000803e3d6000fd5b505050506040513d601f19601f820116820180604052508101906127ec9190613a64565b6004805460405163486cbb7160e11b81529182018390529192506000916001600160a01b0316906390d976e290602401602060405180830381865afa158015612839573d6000803e3d6000fd5b505050506040513d601f19601f8201168201806040525081019061285d9190613a7d565b600254604051632e14866360e11b815260048101889052602481018790526001600160a01b0380841660448301528681166064830152929350911690635c290cc690608401600060405180830381600087803b1580156128bc57600080fd5b505af11580156128d0573d6000803e3d6000fd5b5050505050505050505b50919050565b60055460405163c960331160e01b81526004810183905260009182918291829182916001600160a01b03169063c96033119060240160a060405180830381865afa158015612932573d6000803e3d6000fd5b505050506040513d601f19601f820116820180604052508101906129569190613fc1565b939a9299509097509550909350915050565b60055460405163b4c0bd9d60e01b81526004810184905260009182916001600160a01b039091169063b4c0bd9d90602401602060405180830381865afa1580156129b6573d6000803e3d6000fd5b505050506040513d601f19601f820116820180604052508101906129da9190613a64565b905060006129e6610f75565b6005546040516313772f9560e11b81526004810185905260248101879052604481018390529192506000916001600160a01b03909116906326ee5f2a906064016020604051808303816000875af1158015612a45573d6000803e3d6000fd5b505050506040513d601f19601f82011682018060405250810190612a699190613a64565b9695505050505050565b60015460405163e808386360e01b8152600481018390526000918291829182916001600160a01b039091169063e8083863906024016060604051808303816000875af1158015612ac7573d6000803e3d6000fd5b505050506040513d601f19601f82011682018060405250810190612aeb919061400a565b9250925092508260001415612b0557506000949350505050565b60008211612b555760405162461bcd60e51b815260206004820152601660248201527f496e76616c69642077696e6e696e67206269642049640000000000000000000060448201526064016108aa565b60008111612ba55760405162461bcd60e51b815260206004820152601660248201527f496e76616c6964207075626c69636174696f6e2049640000000000000000000060448201526064016108aa565b6003546040516310a6d0d560e01b8152600481018390526000916001600160a01b0316906310a6d0d590602401602060405180830381865afa158015612bef573d6000803e3d6000fd5b505050506040513d601f19601f82011682018060405250810190612c139190613a64565b6004805460405163486cbb7160e11b81529182018390529192506000916001600160a01b0316906390d976e290602401602060405180830381865afa158015612c60573d6000803e3d6000fd5b505050506040513d601f19601f82011682018060405250810190612c849190613a7d565b6004805460405163486cbb7160e11b81529182018790529192506000916001600160a01b0316906390d976e290602401602060405180830381865afa158015612cd1573d6000803e3d6000fd5b505050506040513d601f19601f82011682018060405250810190612cf59190613a7d565b600354604051632749cf7760e21b81526004810187905291925060009182916001600160a01b031690639d273ddc90602401600060405180830381865afa158015612d44573d6000803e3d6000fd5b505050506040513d6000823e601f3d908101601f19168201604052612d6c9190810190613af5565b60048054604051631fd3cba160e21b81529395509193506000926001600160a01b0390921691637f4f2e8491612da49187910161349d565b600060405180830381865afa158015612dc1573d6000803e3d6000fd5b505050506040513d6000823e601f3d908101601f19168201604052612de99190810190613b59565b9050600660009054906101000a90046001600160a01b03166001600160a01b031663841aee53858784868e6040518663ffffffff1660e01b8152600401612e34959493929190613bf3565b6020604051808303816000875af1158015612e53573d6000803e3d6000fd5b505050506040513d601f19601f82011682018060405250810190612e779190613c72565b612ec35760405162461bcd60e51b815260206004820152601e60248201527f42756c6b2061756374696f6e20736574746c656d656e74206661696c6564000060448201526064016108aa565b600354604051631d57d4e360e21b8152600481018990526000916001600160a01b03169063755f538c906024016020604051808303816000875af1158015612f0f573d6000803e3d6000fd5b505050506040513d601f19601f82011682018060405250810190612f339190613a64565b6002546040516315ea90b560e31b81526001600160a01b038881166004830152602482018d9052604482018c9052606482018490529293506000929091169063af5485a8906084016020604051808303816000875af1158015612f9a573d6000803e3d6000fd5b505050506040513d601f19601f82011682018060405250810190612fbe9190613a64565b6003546040516301854b3760e51b8152600481018c90529192506002916001600160a01b03909116906330a966e090602401602060405180830381865afa15801561300d573d6000803e3d6000fd5b505050506040513d601f19601f820116820180604052508101906130319190614038565b60ff1614156130b257600554604051630eed804960e31b815260048101839052602481018d90526001600160a01b039091169063776c0248906044016020604051808303816000875af115801561308c573d6000803e3d6000fd5b505050506040513d601f19601f820116820180604052508101906130b09190613a64565b505b50989b9a5050505050505050505050565b60055460405163eb12cdc360e01b815260048101839052600091829182918291829160609183916001600160a01b03169063eb12cdc390602401600060405180830381865afa15801561311a573d6000803e3d6000fd5b505050506040513d6000823e601f3d908101601f191682016040526114609190810190614053565b60055460405163eb9c6e8160e01b81526004810183905260609182918291829182916001600160a01b03169063eb9c6e8190602401600060405180830381865afa158015613194573d6000803e3d6000fd5b505050506040513d6000823e601f3d908101601f191682016040526129569190810190614127565b600354604051633630b3e360e11b8152600481018390526000916001600160a01b031690636c6167c690602401602060405180830381865afa158015613206573d6000803e3d6000fd5b505050506040513d601f19601f8201168201806040525081019061322a9190613a64565b90506000613236610f75565b60015460405163908e27eb60e01b81526004810187905260248101859052604481018390529192506001600160a01b03169063908e27eb906064016020604051808303816000875af1158015613290573d6000803e3d6000fd5b505050506040513d601f19601f820116820180604052508101906132b49190613a64565b5050505050565b60025460405163fbd9d2eb60e01b8152600481018390526060916001600160a01b03169063fbd9d2eb90602401610c68565b6005546040805163fd8446e960e01b815290516000926001600160a01b03169163fd8446e99160048083019260209291908290030181865afa1580156120be573d6000803e3d6000fd5b600354604051633630b3e360e11b81526004810183905260009182916001600160a01b0390911690636c6167c690602401602060405180830381865afa158015613385573d6000803e3d6000fd5b505050506040513d601f19601f820116820180604052508101906133a99190613a64565b600154604051633d446f6760e11b8152600481018390529192506001600160a01b031690637a88dece90602401602060405180830381865afa158015611f50573d6000803e3d6000fd5b60006014361080159061341057506000546001600160a01b031633145b15613422575060131936013560601c90565b503390565b6000806040838503121561343a57600080fd5b50508035926020909101359150565b60006020828403121561345b57600080fd5b5035919050565b600081518084526020808501945080840160005b8381101561349257815187529582019590820190600101613476565b509495945050505050565b60208152600061155d6020830184613462565b6001600160a01b03811681146134c557600080fd5b50565b6000602082840312156134da57600080fd5b813561155d816134b0565b600381106134c557600080fd5b803561104a816134e5565b634e487b7160e01b600052604160045260246000fd5b604051601f8201601f1916810167ffffffffffffffff8111828210171561353c5761353c6134fd565b604052919050565b600067ffffffffffffffff82111561355e5761355e6134fd565b50601f01601f191660200190565b600082601f83011261357d57600080fd5b813561359061358b82613544565b613513565b8181528460208386010111156135a557600080fd5b816020850160208301376000918101602001919091529392505050565b600067ffffffffffffffff8211156135dc576135dc6134fd565b5060051b60200190565b600082601f8301126135f757600080fd5b8135602061360761358b836135c2565b82815260059290921b8401810191818101908684111561362657600080fd5b8286015b84811015613641578035835291830191830161362a565b509695505050505050565b60008060008060008060008060006101208a8c03121561366b57600080fd5b6136748a6134f2565b985060208a013567ffffffffffffffff8082111561369157600080fd5b61369d8d838e0161356c565b995060408c0135985060608c0135975060808c0135965060a08c0135955060c08c0135945060e08c01359150808211156136d657600080fd5b6136e28d838e016135e6565b93506101008c01359150808211156136f957600080fd5b506137068c828d016135e6565b9150509295985092959850929598565b6000806000806080858703121561372c57600080fd5b5050823594602084013594506040840135936060013592509050565b600080600080600080600060e0888a03121561376357600080fd5b873561376e816134b0565b9650602088013561377e816134b0565b9550604088013561378e816134b0565b9450606088013561379e816134b0565b935060808801356137ae816134b0565b925060a08801356137be816134b0565b915060c08801356137ce816134b0565b8091505092959891949750929550565b60005b838110156137f95781810151838201526020016137e1565b83811115613808576000848401525b50505050565b600081518084526138268160208601602086016137de565b601f01601f19169290920160200192915050565b60208152600061155d602083018461380e565b60006020828403121561385f57600080fd5b813567ffffffffffffffff81111561387657600080fd5b61253f8482850161356c565b87815286602082015285604082015284606082015260e0608082015260006138ad60e0830186613462565b90508360a083015260ff831660c083015298975050505050505050565b600061012060ff8c1683528060208401526138e78184018c61380e565b90508960408401528860608401528760808401528660a084015282810360c08401526139138187613462565b905082810360e08401526139278186613462565b905082810361010084015261393c8185613462565b9c9b505050505050505050505050565b87815286602082015285604082015284606082015283608082015260e060a0820152600061397d60e0830185613462565b905060ff831660c083015298975050505050505050565b634e487b7160e01b600052602160045260246000fd5b600381106134c557634e487b7160e01b600052602160045260246000fd5b60a0815260006139db60a0830188613462565b6020838203818501526139ee8289613462565b91508382036040850152613a028288613462565b91508382036060850152613a168287613462565b8481036080860152855180825282870193509082019060005b81811015613a54578451613a42816139aa565b83529383019391830191600101613a2f565b50909a9950505050505050505050565b600060208284031215613a7657600080fd5b5051919050565b600060208284031215613a8f57600080fd5b815161155d816134b0565b600082601f830112613aab57600080fd5b81516020613abb61358b836135c2565b82815260059290921b84018101918181019086841115613ada57600080fd5b8286015b848110156136415780518352918301918301613ade565b60008060408385031215613b0857600080fd5b825167ffffffffffffffff80821115613b2057600080fd5b613b2c86838701613a9a565b93506020850151915080821115613b4257600080fd5b50613b4f85828601613a9a565b9150509250929050565b60006020808385031215613b6c57600080fd5b825167ffffffffffffffff811115613b8357600080fd5b8301601f81018513613b9457600080fd5b8051613ba261358b826135c2565b81815260059190911b82018301908381019087831115613bc157600080fd5b928401925b82841015613be8578351613bd9816134b0565b82529284019290840190613bc6565b979650505050505050565b600060a082016001600160a01b03808916845260208189168186015260a0604086015282885180855260c087019150828a01945060005b81811015613c48578551851683529483019491830191600101613c2a565b50508581036060870152613c5c8189613462565b9450505050508260808301529695505050505050565b600060208284031215613c8457600080fd5b8151801515811461155d57600080fd5b600060208284031215613ca657600080fd5b815167ffffffffffffffff811115613cbd57600080fd5b61253f84828501613a9a565b613cd2886139aa565b87815260e060208201526000613ceb60e083018961380e565b87604084015286606084015285608084015282810360a0840152613d0f8186613462565b905082810360c0840152613d238185613462565b9a9950505050505050505050565b805160ff8116811461104a57600080fd5b60008060008060808587031215613d5857600080fd5b845193506020850151925060408501519150613d7660608601613d31565b905092959194509250565b600080600080600080600060e0888a031215613d9c57600080fd5b875196506020880151955060408801519450613dba60608901613d31565b93506080880151925060a0880151915060c0880151905092959891949750929550565b604081526000613df0604083018561380e565b90506001600160a01b03831660208301529392505050565b600060208284031215613e1a57600080fd5b81516004811061155d57600080fd5b600080600080600080600060e0888a031215613e4457600080fd5b87519650602088015195506040880151945060608801519350608088015167ffffffffffffffff811115613e7757600080fd5b613e838a828b01613a9a565b93505060a08801519150613e9960c08901613d31565b905092959891949750929550565b600082601f830112613eb857600080fd5b8151613ec661358b82613544565b818152846020838601011115613edb57600080fd5b61253f8260208301602087016137de565b60008060008060008060008060006101208a8c031215613f0b57600080fd5b613f148a613d31565b985060208a015167ffffffffffffffff80821115613f3157600080fd5b613f3d8d838e01613ea7565b995060408c0151985060608c0151975060808c0151965060a08c0151955060c08c0151915080821115613f6f57600080fd5b613f7b8d838e01613a9a565b945060e08c0151915080821115613f9157600080fd5b613f9d8d838e01613a9a565b93506101008c0151915080821115613fb457600080fd5b506137068c828d01613a9a565b600080600080600060a08688031215613fd957600080fd5b85519450602086015193506040860151925060608601519150613ffe60808701613d31565b90509295509295909350565b60008060006060848603121561401f57600080fd5b8351925060208401519150604084015190509250925092565b60006020828403121561404a57600080fd5b61155d82613d31565b600080600080600080600060e0888a03121561406e57600080fd5b875196506020880151955060408801519450606088015193506080880151925060a088015167ffffffffffffffff8111156140a857600080fd5b6140b48a828b01613a9a565b925050613e9960c08901613d31565b600082601f8301126140d457600080fd5b815160206140e461358b836135c2565b82815260059290921b8401810191818101908684111561410357600080fd5b8286015b8481101561364157805161411a816134e5565b8352918301918301614107565b600080600080600060a0868803121561413f57600080fd5b855167ffffffffffffffff8082111561415757600080fd5b61416389838a01613a9a565b9650602088015191508082111561417957600080fd5b61418589838a01613a9a565b9550604088015191508082111561419b57600080fd5b6141a789838a01613a9a565b945060608801519150808211156141bd57600080fd5b6141c989838a01613a9a565b935060808801519150808211156141df57600080fd5b506141ec888289016140c3565b915050929550929590935056fea264697066735822122019fcba9972576fdbaaafa21ab66ebe5cd2a75108f19710076eec09470716ec4464736f6c634300080c0033",
  "immutableReferences": {},
  "source": "// SPDX-License-Identifier: MIT\n\npragma solidity ^0.8.12;\n\n/// @title UniCoin smart contract\n/// @author Chris Maree\n\nimport \"@opengsn/contracts/src/BaseRelayRecipient.sol\";\nimport \"@openzeppelin/contracts-upgradeable/proxy/utils/Initializable.sol\";\n\nimport \"./interfaces/IAuctionManager.sol\";\nimport \"./interfaces/ILicenceManager.sol\";\nimport \"./interfaces/IPublicationManager.sol\";\nimport \"./interfaces/IUserManager.sol\";\nimport \"./interfaces/IVault.sol\";\nimport \"./interfaces/IHarbergerTaxManager.sol\";\n\ncontract UnicoinRegistry is BaseRelayRecipient, Initializable {\n    function versionRecipient() public pure override returns (string memory) {\n        return \"3.0.0-alpha0+unicoin\";\n    }\n\n    IAuctionManager private auctionManager;\n    ILicenceManager private licenceManager;\n    IPublicationManager private publicationManager;\n    IUserManager private userManager;\n    IHarbergerTaxManager private harbergerTaxManager;\n    IVault private vault;\n\n    address owner;\n\n    function initialize(\n        address _auctionManager,\n        address _licenceManager,\n        address _publicationManager,\n        address _userManager,\n        address _harbergerTaxManager,\n        address _vault,\n        address _forwarder\n    ) public initializer {\n        owner = _msgSender();\n\n        _setTrustedForwarder(_forwarder);\n\n        //GSNRecipient.initialize();\n\n        auctionManager = IAuctionManager(_auctionManager);\n        licenceManager = ILicenceManager(_licenceManager);\n        publicationManager = IPublicationManager(_publicationManager);\n        userManager = IUserManager(_userManager);\n        harbergerTaxManager = IHarbergerTaxManager(_harbergerTaxManager);\n        vault = IVault(_vault);\n    }\n\n    // accept all requests\n    /*function acceptRelayedCall(\n        address,\n        address,\n        bytes calldata,\n        uint256,\n        uint256,\n        uint256,\n        uint256,\n        bytes calldata,\n        uint256\n    ) external view returns (uint256, bytes memory) {\n        return _approveRelayedCall();\n    }*/\n\n    function _preRelayedCall(bytes memory context) internal returns (bytes32) {\n        // solhint-disable-previous-line no-empty-blocks\n    }\n\n    function _postRelayedCall(bytes memory context, bool, uint256 actualCharge, bytes32) internal {\n        // solhint-disable-previous-line no-empty-blocks\n    }\n\n    function setOwner(address _owner) public {\n        require(owner == _msgSender(), \"Only owner can change the owner address\");\n        owner = _owner;\n    }\n\n    function registerUser(string memory _profileUri) public returns (uint256) {\n        uint256 userId = userManager._registerUser(_profileUri, _msgSender());\n        return userId;\n    }\n\n    function createPublication(\n        IPublicationManager.PricingStrategy _pricingStrategy,\n        string memory _publicationUri,\n        uint256 _auctionFloor,\n        uint256 _auctionStartTime,\n        uint256 _auctionDuration,\n        uint256 _fixedSellPrice,\n        uint256 _maxNumberOfLicences,\n        uint256[] memory _contributors,\n        uint256[] memory _contributorsWeightings\n    ) public {\n        require(isCallerRegistered(), \"Cant create a publication if you are not registered\");\n\n        uint256 authorId = getCallerId();\n\n        uint256 publicationId = publicationManager._createPublication(\n            _pricingStrategy,\n            _publicationUri,\n            authorId,\n            _fixedSellPrice,\n            _maxNumberOfLicences,\n            _contributors,\n            _contributorsWeightings\n        );\n\n        if (_pricingStrategy != IPublicationManager.PricingStrategy.FixedRate) {\n            uint256 auctionId = auctionManager._createAuction(\n                publicationId,\n                _auctionFloor,\n                _auctionStartTime,\n                _auctionDuration\n            );\n            publicationManager._addAuctionToPublication(publicationId, auctionId);\n        }\n    }\n\n    function commitSealedBid(bytes32 _bidHash, uint256 _publicationId) public {\n        uint256 auctionId = publicationManager.getLatestAuctionId(_publicationId);\n        uint256 bidderId = getCallerId();\n        auctionManager._commitSealedBid(_bidHash, auctionId, bidderId);\n    }\n\n    function revealSealedBid(uint256 _bid, uint256 _salt, uint256 _publicationId, uint256 _bidId)\n        public\n        returns (uint256)\n    {\n        uint256 auctionId = publicationManager.getLatestAuctionId(_publicationId);\n        uint256 bidderId = getCallerId();\n        auctionManager.revealSealedBid(_bid, _salt, auctionId, _bidId, bidderId);\n    }\n\n    function finalizeAuction(uint256 _auctionId) public returns (uint256) {\n        (uint256 winningBidAmount, uint256 winningBidderId, uint256 publicationId) = auctionManager.finalizeAuction(\n            _auctionId\n        );\n\n        if (winningBidAmount == 0) {\n            return 0; //no one won the auction\n        }\n        require(winningBidderId > 0, \"Invalid winning bid Id\");\n        require(publicationId > 0, \"Invalid publication Id\");\n\n        uint256 authorId = publicationManager.getAuthorId(publicationId);\n        address authorAddress = userManager.getUserAddress(authorId);\n        address winningBidderAddress = userManager.getUserAddress(winningBidderId);\n\n        (uint256[] memory contributorIds, uint256[] memory contributorWeightings) = publicationManager._getContributers(\n            publicationId\n        );\n\n        address[] memory contributorAddresses = userManager.getAddressArray(contributorIds);\n\n        require(\n            vault.settleBulkPayment(\n                winningBidderAddress,\n                authorAddress,\n                contributorAddresses,\n                contributorWeightings,\n                winningBidAmount\n            ),\n            \"Bulk auction settlement failed\"\n        );\n\n        uint256 publicationLicenceNo = publicationManager.addNewLicenceToPublication(publicationId);\n\n        uint256 licenceId = licenceManager.registerNewLicence(\n            winningBidderAddress,\n            winningBidderId,\n            publicationId,\n            publicationLicenceNo\n        );\n        if (\n            publicationManager.GetPublicationPricingStrategy(publicationId) ==\n            uint8(IPublicationManager.PricingStrategy.PrivateAuctionHarberger)\n        ) {\n            harbergerTaxManager.createTaxObject(licenceId, winningBidAmount);\n        }\n        return winningBidAmount;\n    }\n\n    function buyLicenceFixedRate() public {}\n\n    function claimHarbergerTax(uint256 _publicationId) public returns (uint256) {\n        uint256 licenceId = licenceManager.getMostRecentPublicationLicence(_publicationId);\n        uint256 taxObjectId = harbergerTaxManager.getLicenceTaxObjectId(licenceId);\n        uint256 outstandingTax = harbergerTaxManager.calculateOutstandingTax(taxObjectId);\n        address licenceOwner = licenceManager.ownerOf(licenceId);\n        bool licenceOwnerSolvent = vault.canAddressPay(licenceOwner, outstandingTax);\n\n        if (licenceOwnerSolvent) {\n            //the licence owner can pay the tax and all contributers are paid\n            uint256 authorId = publicationManager.getAuthorId(_publicationId);\n            address authorAddress = userManager.getUserAddress(authorId);\n            (uint256[] memory contributorIds, uint256[] memory contributorWeightings) = publicationManager\n                ._getContributers(_publicationId);\n            address[] memory contributorAddresses = userManager.getAddressArray(contributorIds);\n\n            require(\n                vault.settleBulkPayment(\n                    licenceOwner,\n                    authorAddress,\n                    contributorAddresses,\n                    contributorWeightings,\n                    outstandingTax\n                ),\n                \"Bulk harberger settlement failed\"\n            );\n\n            harbergerTaxManager._updateTaxObjectLastPayment(taxObjectId);\n\n            return outstandingTax; //returns the total tax sent\n        }\n        // the licence owner cant pay the tax. they loose their licence which is placed for auction again\n        if (!licenceOwnerSolvent) {\n            licenceManager.revokeLicence(licenceId);\n            publicationManager.revokeLicence(_publicationId);\n            harbergerTaxManager.revokeTaxObject(taxObjectId);\n\n            //create a new auction\n            uint256 auctionId = auctionManager._createAuction(\n                _publicationId,\n                0, //auction floor\n                block.timestamp, //auction start time\n                60 * 60 * 24 * 30 // one month duration for the auction\n            );\n            publicationManager._addAuctionToPublication(_publicationId, auctionId);\n            return 0;\n        }\n    }\n\n    function updateLicenceHarbergerValuation(uint256 _licenceId, uint256 _newValuation) public returns (uint256) {\n        uint256 licenceOwnerId = licenceManager.getLicenceOwnerId(_licenceId);\n        require(licenceOwnerId == getCallerId(), \"Only the current licence owner can update the  valuation\");\n\n        uint256 taxObjectId = harbergerTaxManager.getLicenceTaxObjectId(_licenceId);\n\n        harbergerTaxManager._updateTaxObjectValuation(taxObjectId, _newValuation);\n    }\n\n    function createHarbergerBuyOut(uint256 _licenceId, uint256 _buyOutAmount) public returns (uint256) {\n        uint256 taxObjectId = harbergerTaxManager.getLicenceTaxObjectId(_licenceId);\n        uint256 buyOutOwnerId = getCallerId();\n\n        uint256 buyOutId = harbergerTaxManager.submitBuyOut(taxObjectId, _buyOutAmount, buyOutOwnerId);\n        return buyOutId;\n    }\n\n    function finalizeBuyoutOffer(uint256 _buyOutId) public returns (bool) {\n        bool offerSucceeded = harbergerTaxManager.finalizeBuyOutOffer(_buyOutId);\n        if (offerSucceeded) {\n            uint256 licenceId = harbergerTaxManager.getBuyOutLicenceId(_buyOutId);\n            uint256 buyOutOwnerId = harbergerTaxManager.getBuyOutOwnerId(_buyOutId);\n\n            address buyOutOwnerAddress = userManager.getUserAddress(buyOutOwnerId);\n\n            uint256 previousOwnerId = licenceManager.getLicenceOwnerId(licenceId);\n\n            address previousOwnerAddress = userManager.getUserAddress(previousOwnerId);\n\n            licenceManager.allocateLicenceToNewOwner(\n                licenceId,\n                buyOutOwnerId,\n                previousOwnerAddress,\n                buyOutOwnerAddress\n            );\n        }\n    }\n\n    function getTaxObject(uint256 _taxObjectId)\n        public\n        view\n        returns (uint256, uint256, uint256, uint256, uint256, uint256[] memory, uint8)\n    {\n        return (harbergerTaxManager.getTaxObject(_taxObjectId));\n    }\n\n    function getBuyOut(uint256 _buyOutId) public view returns (uint256, uint256, uint256, uint256, uint8) {\n        return (harbergerTaxManager.getBuyOut(_buyOutId));\n    }\n\n    function getTaxObjectLength() public view returns (uint256) {\n        return harbergerTaxManager.getTaxObjectLength();\n    }\n\n    function getMinBuyOutAmount(uint256 _publicationId) public view returns (uint256) {}\n\n    function getPublicationsAuthorAddress(address _address) public view returns (uint256[] memory) {\n        uint256 authorId = userManager.getUserId(_address);\n        return publicationManager.getAuthorPublications(authorId);\n    }\n\n    function getPublicationsAuthorId(uint256 _authorId) public view returns (uint256[] memory) {\n        return publicationManager.getAuthorPublications(_authorId);\n    }\n\n    function getPublicationLicences(uint256 _publicationId) public view returns (uint256[] memory) {\n        return licenceManager.getPublicationLicences(_publicationId);\n    }\n\n    function getBids(address _address) public view returns (uint256[] memory) {\n        uint256 userAddress = userManager.getUserId(_address);\n        return auctionManager.getBidderBids(userAddress);\n    }\n\n    function getPublicationAuctions(uint256 _publicationId) public view returns (uint256[] memory) {\n        return publicationManager.getPublicationAuctions(_publicationId);\n    }\n\n    function getPublicationLength() public view returns (uint256) {\n        return publicationManager.getPublicationLength();\n    }\n\n    function getPublication(uint256 _publicationId)\n        public\n        view\n        returns (\n            uint8,\n            string memory,\n            uint256,\n            uint256,\n            uint256,\n            uint256,\n            uint256[] memory,\n            uint256[] memory,\n            uint256[] memory\n        )\n    {\n        return (publicationManager.getPublication(_publicationId));\n    }\n\n    function getLicenceForAddress(address _address) public view returns (uint256[] memory) {\n        uint256 userId = userManager.getUserId(_address);\n        return getLicenceForUserId(userId);\n    }\n\n    function getLicenceForUserId(uint256 _userId) public view returns (uint256[] memory) {\n        return licenceManager.getLicenceForUser(_userId);\n    }\n\n    function getLicence(uint256 _licenceId) public view returns (uint256, uint256, uint256, uint8) {\n        return (licenceManager.getLicence(_licenceId));\n    }\n\n    function donate(uint256 _publicationId, uint256 _value) public {\n        uint256 authorId = publicationManager.getAuthorId(_publicationId);\n        address authorAddress = userManager.getUserAddress(authorId);\n\n        (uint256[] memory contributorIds, uint256[] memory contributorWeightings) = publicationManager._getContributers(\n            _publicationId\n        );\n\n        address[] memory contributorAddresses = userManager.getAddressArray(contributorIds);\n\n        require(\n            vault.settleBulkPayment(_msgSender(), authorAddress, contributorAddresses, contributorWeightings, _value),\n            \"Bulk auction settlement failed\"\n        );\n    }\n\n    function isCallerRegistered() public view returns (bool) {\n        return userManager.isAddressRegistered(_msgSender());\n    }\n\n    function getCallerId() public view returns (uint256) {\n        uint256 callerId = userManager.getUserId(_msgSender());\n        require(callerId != 0, \"Caller is not registered!\");\n        return callerId;\n    }\n\n    function getUserAddress(uint256 _userId) public view returns (address) {\n        return userManager.getUserAddress(_userId);\n    }\n\n    function canAddressPay(uint256 _userId, uint256 _amount) public view returns (bool) {\n        address userAddress = getUserAddress(_userId);\n        return vault.canAddressPay(userAddress, _amount);\n    }\n\n    function getBidderBids(uint256 _bidderId) public view returns (uint256[] memory) {\n        return auctionManager.getBidderBids(_bidderId);\n    }\n\n    function getBlockTime() public view returns (uint256) {\n        return block.timestamp;\n    }\n\n    function getAuctionStatus(uint256 _auctionId) public returns (uint256) {\n        return uint256(auctionManager.getAuctionStatus(_auctionId));\n    }\n\n    function updateAuctionStartTime(uint256 _publicationId, uint256 _newStartTime) public {\n        uint256 callerId = getCallerId();\n\n        require(\n            callerId == publicationManager.getAuthorId(_publicationId),\n            \"Only the publisher can modify the start time\"\n        );\n\n        uint256 auctionId = publicationManager.getLatestAuctionId(_publicationId);\n        auctionManager.updateAuctionStartTime(auctionId, _newStartTime);\n    }\n\n    function getPublicationBids(uint256 _publicationId) public view returns (uint256[] memory) {\n        uint256 auctionId = publicationManager.getLatestAuctionId(_publicationId);\n        return (auctionManager.getAuctionBids(auctionId));\n    }\n\n    function getBid(uint256 _bidId) public view returns (bytes32, uint256, uint256, uint8, uint256, uint256, uint256) {\n        return (auctionManager.getBid(_bidId));\n    }\n\n    function getPublicationAuctionBidLength(uint256 _publicationId) public view returns (uint256) {\n        uint256 auctionId = publicationManager.getLatestAuctionId(_publicationId);\n        return auctionManager.getNumberOfBidsInAuction(auctionId);\n    }\n    function ownerOf(uint256 tokenId) public view returns (address) {\n        return licenceManager.ownerOf(tokenId);\n    }\n\n    function getOutstandingTax(uint256 _taxObjectId) public view returns (uint256) {\n        return harbergerTaxManager.calculateOutstandingTax(_taxObjectId);\n    }\n\n    function getMinBuyOutPrice(uint256 _taxObjectId) public view returns (uint256) {\n        return harbergerTaxManager.calculateMinBuyOutPrice(_taxObjectId);\n    }\n\n    function getLicenceTaxObjectId(uint256 _licenceId) public view returns (uint256) {\n        return harbergerTaxManager.getLicenceTaxObjectId(_licenceId);\n    }\n\n    function getLicenceBuyOuts(uint256 _licenceId)\n        public\n        view\n        returns (\n            uint256[] memory,\n            uint256[] memory,\n            uint256[] memory,\n            uint256[] memory,\n            IHarbergerTaxManager.BuyOutStatus[] memory\n        )\n    {\n        return (harbergerTaxManager.getLicenceBuyOuts(_licenceId));\n    }\n\n    function getMostRecentPublicationLicence(uint256 _publicationId) public view returns (uint256) {\n        return licenceManager.getMostRecentPublicationLicence(_publicationId);\n    }\n\n    function getAuction(uint256 _auctionId)\n        public\n        view\n        returns (uint256, uint256, uint256, uint256, uint256[] memory, uint256, uint8)\n    {\n        return (auctionManager.getAuction(_auctionId));\n    }\n}\n",
  "sourcePath": "/home/azureuser/unicoin/unicoin2.0/contracts/UnicoinRegistry.sol",
  "compiler": {
    "name": "solc",
    "version": "0.8.12+commit.f00d7308.Emscripten.clang"
  },
  "schemaVersion": "3.4.6",
  "updatedAt": "2022-03-16T11:23:44.765Z",
  "devdoc": {
    "kind": "dev",
    "methods": {},
    "version": 1
  },
  "userdoc": {
    "kind": "user",
    "methods": {
      "isTrustedForwarder(address)": {
        "notice": "return if the forwarder is trusted to forward relayed transactions to us. the forwarder is required to verify the sender's signature, and verify the call is not a replay."
      }
    },
    "version": 1
  }
}