{
  "contractName": "UserManager",
  "abi": [
    {
      "constant": true,
      "inputs": [
        {
          "name": "",
          "type": "uint256"
        }
      ],
      "name": "users",
      "outputs": [
        {
          "name": "owned_address",
          "type": "address"
        },
        {
          "name": "profile_uri",
          "type": "string"
        }
      ],
      "payable": false,
      "stateMutability": "view",
      "type": "function"
    },
    {
      "constant": true,
      "inputs": [
        {
          "name": "",
          "type": "address"
        }
      ],
      "name": "userAddresses",
      "outputs": [
        {
          "name": "",
          "type": "uint256"
        }
      ],
      "payable": false,
      "stateMutability": "view",
      "type": "function"
    },
    {
      "constant": false,
      "inputs": [
        {
          "name": "_unicoinRegistry",
          "type": "address"
        }
      ],
      "name": "initialize",
      "outputs": [],
      "payable": false,
      "stateMutability": "nonpayable",
      "type": "function"
    },
    {
      "constant": false,
      "inputs": [
        {
          "name": "_profile_uri",
          "type": "string"
        }
      ],
      "name": "_registerUser",
      "outputs": [],
      "payable": false,
      "stateMutability": "nonpayable",
      "type": "function"
    },
    {
      "constant": true,
      "inputs": [
        {
          "name": "_userAddress",
          "type": "address"
        }
      ],
      "name": "_isAddressRegistered",
      "outputs": [
        {
          "name": "",
          "type": "bool"
        }
      ],
      "payable": false,
      "stateMutability": "view",
      "type": "function"
    },
    {
      "constant": true,
      "inputs": [
        {
          "name": "_userAddress",
          "type": "address"
        }
      ],
      "name": "_getUserId",
      "outputs": [
        {
          "name": "",
          "type": "uint256"
        }
      ],
      "payable": false,
      "stateMutability": "view",
      "type": "function"
    }
  ],
  "bytecode": "0x608060405234801561001057600080fd5b50610afe806100206000396000f3fe608060405234801561001057600080fd5b50600436106100625760003560e01c806318ceab1914610067578063365b98b2146100bf5780635b3fba8c14610199578063c4d66de8146101f5578063cf06c8ca14610239578063fc86dea7146102f4575b600080fd5b6100a96004803603602081101561007d57600080fd5b81019080803573ffffffffffffffffffffffffffffffffffffffff16906020019092919050505061034c565b6040518082815260200191505060405180910390f35b6100eb600480360360208110156100d557600080fd5b8101908080359060200190929190505050610395565b604051808373ffffffffffffffffffffffffffffffffffffffff1673ffffffffffffffffffffffffffffffffffffffff16815260200180602001828103825283818151815260200191508051906020019080838360005b8381101561015d578082015181840152602081019050610142565b50505050905090810190601f16801561018a5780820380516001836020036101000a031916815260200191505b50935050505060405180910390f35b6101db600480360360208110156101af57600080fd5b81019080803573ffffffffffffffffffffffffffffffffffffffff16906020019092919050505061047e565b604051808215151515815260200191505060405180910390f35b6102376004803603602081101561020b57600080fd5b81019080803573ffffffffffffffffffffffffffffffffffffffff1690602001909291905050506104ca565b005b6102f26004803603602081101561024f57600080fd5b810190808035906020019064010000000081111561026c57600080fd5b82018360208201111561027e57600080fd5b803590602001918460018302840111640100000000831117156102a057600080fd5b91908080601f016020809104026020016040519081016040528093929190818152602001838380828437600081840152601f19601f8201169050808301925050505050505091929192905050506106da565b005b6103366004803603602081101561030a57600080fd5b81019080803573ffffffffffffffffffffffffffffffffffffffff1690602001909291905050506109d6565b6040518082815260200191505060405180910390f35b6000603460008373ffffffffffffffffffffffffffffffffffffffff1673ffffffffffffffffffffffffffffffffffffffff168152602001908152602001600020549050919050565b603381815481106103a257fe5b90600052602060002090600202016000915090508060000160009054906101000a900473ffffffffffffffffffffffffffffffffffffffff1690806001018054600181600116156101000203166002900480601f0160208091040260200160405190810160405280929190818152602001828054600181600116156101000203166002900480156104745780601f1061044957610100808354040283529160200191610474565b820191906000526020600020905b81548152906001019060200180831161045757829003601f168201915b5050505050905082565b600080603460008473ffffffffffffffffffffffffffffffffffffffff1673ffffffffffffffffffffffffffffffffffffffff1681526020019081526020016000205414159050919050565b600060019054906101000a900460ff16806104e957506104e86109ee565b5b8061050057506000809054906101000a900460ff16155b610555576040517f08c379a000000000000000000000000000000000000000000000000000000000815260040180806020018281038252602e815260200180610aa5602e913960400191505060405180910390fd5b60008060019054906101000a900460ff1615905080156105a5576001600060016101000a81548160ff02191690831515021790555060016000806101000a81548160ff0219169083151502179055505b60336040518060400160405280600073ffffffffffffffffffffffffffffffffffffffff168152602001604051806020016040528060008152508152509080600181540180825580915050906001820390600052602060002090600202016000909192909190915060008201518160000160006101000a81548173ffffffffffffffffffffffffffffffffffffffff021916908373ffffffffffffffffffffffffffffffffffffffff16021790555060208201518160010190805190602001906106709291906109ff565b5050505081603560006101000a81548173ffffffffffffffffffffffffffffffffffffffff021916908373ffffffffffffffffffffffffffffffffffffffff16021790555080156106d65760008060016101000a81548160ff0219169083151502179055505b5050565b603560009054906101000a900473ffffffffffffffffffffffffffffffffffffffff1673ffffffffffffffffffffffffffffffffffffffff163373ffffffffffffffffffffffffffffffffffffffff161461079d576040517f08c379a000000000000000000000000000000000000000000000000000000000815260040180806020018281038252601e8152602001807f43616e206f6e6c792062652063616c6c6564206279207265676973747279000081525060200191505060405180910390fd5b6000815111610814576040517f08c379a00000000000000000000000000000000000000000000000000000000081526004018080602001828103825260208152602001807f50726f66696c65205552492073686f756c64206e6f7420626520656d7074792e81525060200191505060405180910390fd5b6000603460003373ffffffffffffffffffffffffffffffffffffffff1673ffffffffffffffffffffffffffffffffffffffff16815260200190815260200160002054146108c9576040517f08c379a00000000000000000000000000000000000000000000000000000000081526004018080602001828103825260188152602001807f5573657220616c726561647920726567697374657265642e000000000000000081525060200191505060405180910390fd5b6000603360405180604001604052803373ffffffffffffffffffffffffffffffffffffffff168152602001848152509080600181540180825580915050906001820390600052602060002090600202016000909192909190915060008201518160000160006101000a81548173ffffffffffffffffffffffffffffffffffffffff021916908373ffffffffffffffffffffffffffffffffffffffff16021790555060208201518160010190805190602001906109869291906109ff565b505050905060018103603460003373ffffffffffffffffffffffffffffffffffffffff1673ffffffffffffffffffffffffffffffffffffffff168152602001908152602001600020819055505050565b60346020528060005260406000206000915090505481565b600080303b90506000811491505090565b828054600181600116156101000203166002900490600052602060002090601f016020900481019282601f10610a4057805160ff1916838001178555610a6e565b82800160010185558215610a6e579182015b82811115610a6d578251825591602001919060010190610a52565b5b509050610a7b9190610a7f565b5090565b610aa191905b80821115610a9d576000816000905550600101610a85565b5090565b9056fe436f6e747261637420696e7374616e63652068617320616c7265616479206265656e20696e697469616c697a6564a165627a7a72305820a16e2b722021ed0687aacb923c51c884fa30d7d7b6cd2d015f022472102569020029",
  "source": "pragma solidity ^0.5.0;\n\nimport \"@openzeppelin/upgrades/contracts/Initializable.sol\";\n\ncontract UserManager is Initializable {\n\n    /// @notice struct for users of the plaform, needs their Ethereum address and profile URL\n    struct User {\n        address owned_address;\n        string profile_uri;\n    }\n    /// @notice Array of regististred users\n    User[] public users;\n\n\n    /// @notice maps all users' addresses to their userID\n    mapping(address => uint256) public userAddresses;\n\n    address registry;\n\n    modifier onlyRegistry(){\n        require(msg.sender == registry,\"Can only be called by registry\");\n        _;\n    }\n\n    function initialize(address _unicoinRegistry)  public initializer {\n        //set the zeroth user to null.\n        users.push(User(address(0), \"\"));\n\n        registry = _unicoinRegistry;\n    }\n\n    function _registerUser(string memory _profile_uri) public onlyRegistry {\n        require(\n            bytes(_profile_uri).length > 0,\n            \"Profile URI should not be empty.\"\n        );\n        require(userAddresses[msg.sender] == 0, \"User already registered.\");\n        uint256 id = users.push(User(msg.sender, _profile_uri));\n        userAddresses[msg.sender] = id - 1;\n    }\n\n    function _isAddressRegistered(address _userAddress) public view returns (bool){\n        return userAddresses[_userAddress] != 0;\n    }\n\n    function _getUserId(address _userAddress) public view returns (uint256) {\n        return userAddresses[_userAddress];\n    }\n}",
  "sourcePath": "/Users/chris/Projects/unicoindapp/contracts/UserManager.sol",
  "compiler": {
    "name": "solc",
    "version": "0.5.8+commit.23d335f2.Emscripten.clang"
  },
  "schemaVersion": "3.0.16",
  "updatedAt": "2019-11-21T16:45:30.636Z",
  "devdoc": {
    "methods": {}
  },
  "userdoc": {
    "methods": {}
  }
}