{
  "contractName": "UserManager",
  "abi": [
    {
      "inputs": [
        {
          "internalType": "address",
          "name": "forwarder",
          "type": "address"
        }
      ],
      "name": "isTrustedForwarder",
      "outputs": [
        {
          "internalType": "bool",
          "name": "",
          "type": "bool"
        }
      ],
      "stateMutability": "view",
      "type": "function"
    },
    {
      "inputs": [
        {
          "internalType": "address",
          "name": "",
          "type": "address"
        }
      ],
      "name": "userAddresses",
      "outputs": [
        {
          "internalType": "uint256",
          "name": "",
          "type": "uint256"
        }
      ],
      "stateMutability": "view",
      "type": "function"
    },
    {
      "inputs": [
        {
          "internalType": "uint256",
          "name": "",
          "type": "uint256"
        }
      ],
      "name": "users",
      "outputs": [
        {
          "internalType": "address",
          "name": "owned_address",
          "type": "address"
        },
        {
          "internalType": "string",
          "name": "profile_uri",
          "type": "string"
        }
      ],
      "stateMutability": "view",
      "type": "function"
    },
    {
      "inputs": [
        {
          "internalType": "address",
          "name": "_unicoinRegistry",
          "type": "address"
        },
        {
          "internalType": "address",
          "name": "_trustedForwarder",
          "type": "address"
        }
      ],
      "name": "initialize",
      "outputs": [],
      "stateMutability": "nonpayable",
      "type": "function"
    },
    {
      "inputs": [
        {
          "internalType": "string",
          "name": "_profileUri",
          "type": "string"
        },
        {
          "internalType": "address",
          "name": "_userAddress",
          "type": "address"
        }
      ],
      "name": "_registerUser",
      "outputs": [
        {
          "internalType": "uint256",
          "name": "",
          "type": "uint256"
        }
      ],
      "stateMutability": "nonpayable",
      "type": "function"
    },
    {
      "inputs": [
        {
          "internalType": "address",
          "name": "_userAddress",
          "type": "address"
        }
      ],
      "name": "isAddressRegistered",
      "outputs": [
        {
          "internalType": "bool",
          "name": "",
          "type": "bool"
        }
      ],
      "stateMutability": "view",
      "type": "function"
    },
    {
      "inputs": [
        {
          "internalType": "address",
          "name": "_userAddress",
          "type": "address"
        }
      ],
      "name": "getUserId",
      "outputs": [
        {
          "internalType": "uint256",
          "name": "",
          "type": "uint256"
        }
      ],
      "stateMutability": "view",
      "type": "function"
    },
    {
      "inputs": [
        {
          "internalType": "uint256",
          "name": "_user_Id",
          "type": "uint256"
        }
      ],
      "name": "getUserAddress",
      "outputs": [
        {
          "internalType": "address",
          "name": "",
          "type": "address"
        }
      ],
      "stateMutability": "view",
      "type": "function"
    },
    {
      "inputs": [
        {
          "internalType": "uint256[]",
          "name": "_user_Ids",
          "type": "uint256[]"
        }
      ],
      "name": "getAddressArray",
      "outputs": [
        {
          "internalType": "address[]",
          "name": "returnedAddresses_",
          "type": "address[]"
        }
      ],
      "stateMutability": "view",
      "type": "function"
    }
  ],
  "bytecode": "0x608060405234801561001057600080fd5b50610cdd806100206000396000f3fe608060405234801561001057600080fd5b50600436106100935760003560e01c8063572b6c0511610066578063572b6c05146101455780636ec3877f146101675780637f4f2e841461017a57806390d976e21461019a578063fc86dea7146101c557600080fd5b80632b956ff714610098578063365b98b2146100d457806338b6a3a1146100f5578063485cc95514610130575b600080fd5b6100c16100a636600461099e565b6001600160a01b031660009081526068602052604090205490565b6040519081526020015b60405180910390f35b6100e76100e23660046109c0565b6101e5565b6040516100cb9291906109d9565b61012061010336600461099e565b6001600160a01b0316600090815260686020526040902054151590565b60405190151581526020016100cb565b61014361013e366004610a3f565b6102a7565b005b61012061015336600461099e565b6033546001600160a01b0391821691161490565b6100c1610175366004610a72565b61044b565b61018d610188366004610b09565b61065b565b6040516100cb9190610bc7565b6101ad6101a83660046109c0565b610713565b6040516001600160a01b0390911681526020016100cb565b6100c16101d336600461099e565b60686020526000908152604090205481565b606781815481106101f557600080fd5b6000918252602090912060029091020180546001820180546001600160a01b0390921693509061022490610c14565b80601f016020809104026020016040519081016040528092919081815260200182805461025090610c14565b801561029d5780601f106102725761010080835404028352916020019161029d565b820191906000526020600020905b81548152906001019060200180831161028057829003601f168201915b5050505050905082565b600054610100900460ff166102c25760005460ff16156102c6565b303b155b61033d5760405162461bcd60e51b815260206004820152602e60248201527f496e697469616c697a61626c653a20636f6e747261637420697320616c72656160448201527f647920696e697469616c697a656400000000000000000000000000000000000060648201526084015b60405180910390fd5b600054610100900460ff1615801561035f576000805461ffff19166101011790555b61036882610748565b60408051808201825260008082528251602080820190945281815283830190815260678054600181018255925282517f9787eeb91fe3101235e4a76063c7023ecb40f923f97916639c598592fa30d6ae600290930292830180546001600160a01b0319166001600160a01b039092169190911781559051805193949193610416937f9787eeb91fe3101235e4a76063c7023ecb40f923f97916639c598592fa30d6af019291909101906108e9565b5050606980546001600160a01b0319166001600160a01b038616179055508015610446576000805461ff00191690555b505050565b6069546000906001600160a01b03166104626107c7565b6001600160a01b0316146104b85760405162461bcd60e51b815260206004820152601e60248201527f43616e206f6e6c792062652063616c6c656420627920726567697374727900006044820152606401610334565b826105055760405162461bcd60e51b815260206004820181905260248201527f50726f66696c65205552492073686f756c64206e6f7420626520656d7074792e6044820152606401610334565b6001600160a01b0382166000908152606860205260409020541561056b5760405162461bcd60e51b815260206004820152601860248201527f5573657220616c726561647920726567697374657265642e00000000000000006044820152606401610334565b60676040518060400160405280846001600160a01b0316815260200186868080601f0160208091040260200160405190810160405280939291908181526020018383808284376000920182905250939094525050835460018082018655948252602091829020845160029092020180546001600160a01b0319166001600160a01b039092169190911781558382015180519495919461061094509185019201906108e9565b505050610621606680546001019055565b600061062c60665490565b9050610639600182610c5f565b6001600160a01b03841660009081526068602052604090205590509392505050565b6060815167ffffffffffffffff81111561067757610677610af3565b6040519080825280602002602001820160405280156106a0578160200160208202803683370190505b50905060005b825181101561070d576106d18382815181106106c4576106c4610c76565b6020026020010151610713565b8282815181106106e3576106e3610c76565b6001600160a01b03909216602092830291909101909101528061070581610c8c565b9150506106a6565b50919050565b60006067828154811061072857610728610c76565b60009182526020909120600290910201546001600160a01b031692915050565b600054610100900460ff166107b35760405162461bcd60e51b815260206004820152602b60248201527f496e697469616c697a61626c653a20636f6e7472616374206973206e6f74206960448201526a6e697469616c697a696e6760a81b6064820152608401610334565b6107bb6107ef565b6107c48161085c565b50565b6033546000906001600160a01b03163314156107ea575060131936013560601c90565b503390565b600054610100900460ff1661085a5760405162461bcd60e51b815260206004820152602b60248201527f496e697469616c697a61626c653a20636f6e7472616374206973206e6f74206960448201526a6e697469616c697a696e6760a81b6064820152608401610334565b565b600054610100900460ff166108c75760405162461bcd60e51b815260206004820152602b60248201527f496e697469616c697a61626c653a20636f6e7472616374206973206e6f74206960448201526a6e697469616c697a696e6760a81b6064820152608401610334565b603380546001600160a01b0319166001600160a01b0392909216919091179055565b8280546108f590610c14565b90600052602060002090601f016020900481019282610917576000855561095d565b82601f1061093057805160ff191683800117855561095d565b8280016001018555821561095d579182015b8281111561095d578251825591602001919060010190610942565b5061096992915061096d565b5090565b5b80821115610969576000815560010161096e565b80356001600160a01b038116811461099957600080fd5b919050565b6000602082840312156109b057600080fd5b6109b982610982565b9392505050565b6000602082840312156109d257600080fd5b5035919050565b6001600160a01b038316815260006020604081840152835180604085015260005b81811015610a16578581018301518582016060015282016109fa565b81811115610a28576000606083870101525b50601f01601f191692909201606001949350505050565b60008060408385031215610a5257600080fd5b610a5b83610982565b9150610a6960208401610982565b90509250929050565b600080600060408486031215610a8757600080fd5b833567ffffffffffffffff80821115610a9f57600080fd5b818601915086601f830112610ab357600080fd5b813581811115610ac257600080fd5b876020828501011115610ad457600080fd5b602092830195509350610aea9186019050610982565b90509250925092565b634e487b7160e01b600052604160045260246000fd5b60006020808385031215610b1c57600080fd5b823567ffffffffffffffff80821115610b3457600080fd5b818501915085601f830112610b4857600080fd5b813581811115610b5a57610b5a610af3565b8060051b604051601f19603f83011681018181108582111715610b7f57610b7f610af3565b604052918252848201925083810185019188831115610b9d57600080fd5b938501935b82851015610bbb57843584529385019392850192610ba2565b98975050505050505050565b6020808252825182820181905260009190848201906040850190845b81811015610c085783516001600160a01b031683529284019291840191600101610be3565b50909695505050505050565b600181811c90821680610c2857607f821691505b6020821081141561070d57634e487b7160e01b600052602260045260246000fd5b634e487b7160e01b600052601160045260246000fd5b600082821015610c7157610c71610c49565b500390565b634e487b7160e01b600052603260045260246000fd5b6000600019821415610ca057610ca0610c49565b506001019056fea26469706673582212208a46aa3af7e7952f4d53face81a16ceaa899a16e15417329aecfa1a129440d9464736f6c634300080c0033",
  "immutableReferences": {},
  "source": "// SPDX-License-Identifier: MIT\n\npragma solidity ^0.8.12;\n\nimport \"@openzeppelin/contracts-upgradeable/proxy/utils/Initializable.sol\";\nimport \"@openzeppelin/contracts/utils/Counters.sol\";\nimport \"./patches/ERC2771ContextUpgradeable.sol\";\nimport \"./interfaces/IUserManager.sol\";\n\ncontract UserManager is Initializable, IUserManager, ERC2771ContextUpgradeable {\n    using Counters for Counters.Counter;\n\n    Counters.Counter _userIds;\n\n    struct User {\n        address owned_address;\n        string profile_uri;\n    }\n\n    //Array of registered users\n    User[] public users;\n\n    //all users' addresses to their userID\n    mapping(address => uint256) public userAddresses;\n\n    address registry;\n\n    modifier onlyRegistry() {\n        require(_msgSender() == registry, \"Can only be called by registry\");\n        _;\n    }\n\n    function initialize(address _unicoinRegistry, address _trustedForwarder) public initializer {\n\n        __ERC2771Context_init(_trustedForwarder);\n\n        //set the zeroth user to null.\n        users.push(User(address(0), \"\"));\n\n        registry = _unicoinRegistry;\n    }\n\n    function _registerUser(string calldata _profileUri, address _userAddress) public onlyRegistry returns (uint256) {\n        require(bytes(_profileUri).length > 0, \"Profile URI should not be empty.\");\n        require(userAddresses[_userAddress] == 0, \"User already registered.\");\n\n        users.push(User(_userAddress, _profileUri));\n        _userIds.increment();\n        uint256 id = _userIds.current();\n\n        userAddresses[_userAddress] = id - 1;\n\n        return id;\n    }\n\n    function isAddressRegistered(address _userAddress) public view returns (bool) {\n        return userAddresses[_userAddress] != 0;\n    }\n\n    function getUserId(address _userAddress) public view returns (uint256) {\n        return userAddresses[_userAddress];\n    }\n\n    function getUserAddress(uint256 _user_Id) public view returns (address) {\n        return users[_user_Id].owned_address;\n    }\n\n    function getAddressArray(uint256[] memory _user_Ids) public view returns (address[] memory returnedAddresses_) {\n        returnedAddresses_ = new address[](_user_Ids.length);\n        for (uint256 i = 0; i < _user_Ids.length; i++) {\n            returnedAddresses_[i] = getUserAddress(_user_Ids[i]);\n        }\n        return returnedAddresses_;\n    }\n}\n",
  "sourcePath": "/home/azureuser/unicoin/unicoin2.0/contracts/UserManager.sol",
  "compiler": {
    "name": "solc",
    "version": "0.8.12+commit.f00d7308.Emscripten.clang"
  },
  "schemaVersion": "3.4.6",
  "updatedAt": "2022-03-16T11:23:44.785Z",
  "devdoc": {
    "kind": "dev",
    "methods": {},
    "version": 1
  },
  "userdoc": {
    "kind": "user",
    "methods": {},
    "version": 1
  }
}