{
  "contractName": "UserManager",
  "abi": [
    {
      "constant": true,
      "inputs": [
        {
          "name": "",
          "type": "uint256"
        }
      ],
      "name": "users",
      "outputs": [
        {
          "name": "owned_address",
          "type": "address"
        },
        {
          "name": "profile_uri",
          "type": "string"
        }
      ],
      "payable": false,
      "stateMutability": "view",
      "type": "function"
    },
    {
      "constant": false,
      "inputs": [
        {
          "name": "_unicoinRegistry",
          "type": "address"
        }
      ],
      "name": "initialize",
      "outputs": [],
      "payable": false,
      "stateMutability": "nonpayable",
      "type": "function"
    }
  ],
  "bytecode": "0x608060405234801561001057600080fd5b50610562806100206000396000f3fe608060405234801561001057600080fd5b50600436106100365760003560e01c8063365b98b21461003b578063c4d66de814610115575b600080fd5b6100676004803603602081101561005157600080fd5b8101908080359060200190929190505050610159565b604051808373ffffffffffffffffffffffffffffffffffffffff1673ffffffffffffffffffffffffffffffffffffffff16815260200180602001828103825283818151815260200191508051906020019080838360005b838110156100d95780820151818401526020810190506100be565b50505050905090810190601f1680156101065780820380516001836020036101000a031916815260200191505b50935050505060405180910390f35b6101576004803603602081101561012b57600080fd5b81019080803573ffffffffffffffffffffffffffffffffffffffff169060200190929190505050610242565b005b6033818154811061016657fe5b90600052602060002090600202016000915090508060000160009054906101000a900473ffffffffffffffffffffffffffffffffffffffff1690806001018054600181600116156101000203166002900480601f0160208091040260200160405190810160405280929190818152602001828054600181600116156101000203166002900480156102385780601f1061020d57610100808354040283529160200191610238565b820191906000526020600020905b81548152906001019060200180831161021b57829003601f168201915b5050505050905082565b600060019054906101000a900460ff16806102615750610260610452565b5b8061027857506000809054906101000a900460ff16155b6102cd576040517f08c379a000000000000000000000000000000000000000000000000000000000815260040180806020018281038252602e815260200180610509602e913960400191505060405180910390fd5b60008060019054906101000a900460ff16159050801561031d576001600060016101000a81548160ff02191690831515021790555060016000806101000a81548160ff0219169083151502179055505b60336040518060400160405280600073ffffffffffffffffffffffffffffffffffffffff168152602001604051806020016040528060008152508152509080600181540180825580915050906001820390600052602060002090600202016000909192909190915060008201518160000160006101000a81548173ffffffffffffffffffffffffffffffffffffffff021916908373ffffffffffffffffffffffffffffffffffffffff16021790555060208201518160010190805190602001906103e8929190610463565b5050505081603460006101000a81548173ffffffffffffffffffffffffffffffffffffffff021916908373ffffffffffffffffffffffffffffffffffffffff160217905550801561044e5760008060016101000a81548160ff0219169083151502179055505b5050565b600080303b90506000811491505090565b828054600181600116156101000203166002900490600052602060002090601f016020900481019282601f106104a457805160ff19168380011785556104d2565b828001600101855582156104d2579182015b828111156104d15782518255916020019190600101906104b6565b5b5090506104df91906104e3565b5090565b61050591905b808211156105015760008160009055506001016104e9565b5090565b9056fe436f6e747261637420696e7374616e63652068617320616c7265616479206265656e20696e697469616c697a6564a165627a7a72305820037bb882a9403a41beb82fb1211f898bf4ef1e6a9583bbe52b8abb1d9d0929f80029",
  "source": "pragma solidity ^0.5.0;\n\nimport \"@openzeppelin/upgrades/contracts/Initializable.sol\";\n\ncontract UserManager is Initializable {\n\n    /// @notice struct for users of the plaform, needs their Ethereum address and profile URL\n    struct User {\n        address owned_address;\n        string profile_uri;\n    }\n    /// @notice Array of regististred users\n    User[] public users;\n\n    address registry;\n\n    modifier onlyRegistry(){\n        require(msg.sender == registry,\"Can only be called by registry\");\n        _;\n    }\n\n    function initialize(address _unicoinRegistry)  public initializer {\n        //set the zeroth user to null.\n        users.push(User(address(0), \"\"));\n\n        registry = _unicoinRegistry;\n    }\n}",
  "sourcePath": "/Users/chris/Projects/unicoindapp/contracts/UserManager.sol",
  "compiler": {
    "name": "solc",
    "version": "0.5.8+commit.23d335f2.Emscripten.clang"
  },
  "schemaVersion": "3.0.16",
  "updatedAt": "2019-11-21T13:46:52.132Z",
  "devdoc": {
    "methods": {}
  },
  "userdoc": {
    "methods": {}
  }
}