{
  "contractName": "UserManager",
  "abi": [
    {
      "constant": true,
      "inputs": [
        {
          "internalType": "address",
          "name": "",
          "type": "address"
        }
      ],
      "name": "userAddresses",
      "outputs": [
        {
          "internalType": "uint256",
          "name": "",
          "type": "uint256"
        }
      ],
      "payable": false,
      "stateMutability": "view",
      "type": "function"
    },
    {
      "constant": true,
      "inputs": [
        {
          "internalType": "uint256",
          "name": "",
          "type": "uint256"
        }
      ],
      "name": "users",
      "outputs": [
        {
          "internalType": "address",
          "name": "owned_address",
          "type": "address"
        },
        {
          "internalType": "string",
          "name": "profile_uri",
          "type": "string"
        }
      ],
      "payable": false,
      "stateMutability": "view",
      "type": "function"
    },
    {
      "constant": false,
      "inputs": [
        {
          "internalType": "address",
          "name": "_unicoinRegistry",
          "type": "address"
        }
      ],
      "name": "initialize",
      "outputs": [],
      "payable": false,
      "stateMutability": "nonpayable",
      "type": "function"
    },
    {
      "constant": false,
      "inputs": [
        {
          "internalType": "string",
          "name": "_profile_uri",
          "type": "string"
        },
        {
          "internalType": "address",
          "name": "_userAddress",
          "type": "address"
        }
      ],
      "name": "_registerUser",
      "outputs": [
        {
          "internalType": "uint256",
          "name": "",
          "type": "uint256"
        }
      ],
      "payable": false,
      "stateMutability": "nonpayable",
      "type": "function"
    },
    {
      "constant": true,
      "inputs": [
        {
          "internalType": "address",
          "name": "_userAddress",
          "type": "address"
        }
      ],
      "name": "isAddressRegistered",
      "outputs": [
        {
          "internalType": "bool",
          "name": "",
          "type": "bool"
        }
      ],
      "payable": false,
      "stateMutability": "view",
      "type": "function"
    },
    {
      "constant": true,
      "inputs": [
        {
          "internalType": "address",
          "name": "_userAddress",
          "type": "address"
        }
      ],
      "name": "getUserId",
      "outputs": [
        {
          "internalType": "uint256",
          "name": "",
          "type": "uint256"
        }
      ],
      "payable": false,
      "stateMutability": "view",
      "type": "function"
    },
    {
      "constant": true,
      "inputs": [
        {
          "internalType": "uint256",
          "name": "_user_Id",
          "type": "uint256"
        }
      ],
      "name": "getUserAddress",
      "outputs": [
        {
          "internalType": "address",
          "name": "",
          "type": "address"
        }
      ],
      "payable": false,
      "stateMutability": "view",
      "type": "function"
    },
    {
      "constant": true,
      "inputs": [
        {
          "internalType": "uint256[]",
          "name": "_user_Ids",
          "type": "uint256[]"
        }
      ],
      "name": "getAddressArray",
      "outputs": [
        {
          "internalType": "address[]",
          "name": "returnedAddresses_",
          "type": "address[]"
        }
      ],
      "payable": false,
      "stateMutability": "view",
      "type": "function"
    }
  ],
  "bytecode": "0x608060405234801561001057600080fd5b50610de8806100206000396000f3fe608060405234801561001057600080fd5b50600436106100885760003560e01c80637f4f2e841161005b5780637f4f2e841461030a57806390d976e214610417578063c4d66de814610485578063fc86dea7146104c957610088565b80632b956ff71461008d578063365b98b2146100e557806338b6a3a1146101bf5780636ec3877f1461021b575b600080fd5b6100cf600480360360208110156100a357600080fd5b81019080803573ffffffffffffffffffffffffffffffffffffffff169060200190929190505050610521565b6040518082815260200191505060405180910390f35b610111600480360360208110156100fb57600080fd5b810190808035906020019092919050505061056a565b604051808373ffffffffffffffffffffffffffffffffffffffff1673ffffffffffffffffffffffffffffffffffffffff16815260200180602001828103825283818151815260200191508051906020019080838360005b83811015610183578082015181840152602081019050610168565b50505050905090810190601f1680156101b05780820380516001836020036101000a031916815260200191505b50935050505060405180910390f35b610201600480360360208110156101d557600080fd5b81019080803573ffffffffffffffffffffffffffffffffffffffff169060200190929190505050610653565b604051808215151515815260200191505060405180910390f35b6102f46004803603604081101561023157600080fd5b810190808035906020019064010000000081111561024e57600080fd5b82018360208201111561026057600080fd5b8035906020019184600183028401116401000000008311171561028257600080fd5b91908080601f016020809104026020016040519081016040528093929190818152602001838380828437600081840152601f19601f820116905080830192505050505050509192919290803573ffffffffffffffffffffffffffffffffffffffff16906020019092919050505061069f565b6040518082815260200191505060405180910390f35b6103c06004803603602081101561032057600080fd5b810190808035906020019064010000000081111561033d57600080fd5b82018360208201111561034f57600080fd5b8035906020019184602083028401116401000000008311171561037157600080fd5b919080806020026020016040519081016040528093929190818152602001838360200280828437600081840152601f19601f8201169050808301925050505050505091929192905050506109a3565b6040518080602001828103825283818151815260200191508051906020019060200280838360005b838110156104035780820151818401526020810190506103e8565b505050509050019250505060405180910390f35b6104436004803603602081101561042d57600080fd5b8101908080359060200190929190505050610a5f565b604051808273ffffffffffffffffffffffffffffffffffffffff1673ffffffffffffffffffffffffffffffffffffffff16815260200191505060405180910390f35b6104c76004803603602081101561049b57600080fd5b81019080803573ffffffffffffffffffffffffffffffffffffffff169060200190929190505050610aa7565b005b61050b600480360360208110156104df57600080fd5b81019080803573ffffffffffffffffffffffffffffffffffffffff169060200190929190505050610cb7565b6040518082815260200191505060405180910390f35b6000603460008373ffffffffffffffffffffffffffffffffffffffff1673ffffffffffffffffffffffffffffffffffffffff168152602001908152602001600020549050919050565b6033818154811061057757fe5b90600052602060002090600202016000915090508060000160009054906101000a900473ffffffffffffffffffffffffffffffffffffffff1690806001018054600181600116156101000203166002900480601f0160208091040260200160405190810160405280929190818152602001828054600181600116156101000203166002900480156106495780601f1061061e57610100808354040283529160200191610649565b820191906000526020600020905b81548152906001019060200180831161062c57829003601f168201915b5050505050905082565b600080603460008473ffffffffffffffffffffffffffffffffffffffff1673ffffffffffffffffffffffffffffffffffffffff1681526020019081526020016000205414159050919050565b6000603560009054906101000a900473ffffffffffffffffffffffffffffffffffffffff1673ffffffffffffffffffffffffffffffffffffffff163373ffffffffffffffffffffffffffffffffffffffff1614610764576040517f08c379a000000000000000000000000000000000000000000000000000000000815260040180806020018281038252601e8152602001807f43616e206f6e6c792062652063616c6c6564206279207265676973747279000081525060200191505060405180910390fd5b60008351116107db576040517f08c379a00000000000000000000000000000000000000000000000000000000081526004018080602001828103825260208152602001807f50726f66696c65205552492073686f756c64206e6f7420626520656d7074792e81525060200191505060405180910390fd5b6000603460008473ffffffffffffffffffffffffffffffffffffffff1673ffffffffffffffffffffffffffffffffffffffff1681526020019081526020016000205414610890576040517f08c379a00000000000000000000000000000000000000000000000000000000081526004018080602001828103825260188152602001807f5573657220616c726561647920726567697374657265642e000000000000000081525060200191505060405180910390fd5b6000603360405180604001604052808573ffffffffffffffffffffffffffffffffffffffff168152602001868152509080600181540180825580915050906001820390600052602060002090600202016000909192909190915060008201518160000160006101000a81548173ffffffffffffffffffffffffffffffffffffffff021916908373ffffffffffffffffffffffffffffffffffffffff160217905550602082015181600101908051906020019061094d929190610ce0565b505050905060018103603460008573ffffffffffffffffffffffffffffffffffffffff1673ffffffffffffffffffffffffffffffffffffffff168152602001908152602001600020819055508091505092915050565b606081516040519080825280602002602001820160405280156109d55781602001602082028038833980820191505090505b50905060008090505b8251811015610a5657610a038382815181106109f657fe5b6020026020010151610a5f565b828281518110610a0f57fe5b602002602001019073ffffffffffffffffffffffffffffffffffffffff16908173ffffffffffffffffffffffffffffffffffffffff168152505080806001019150506109de565b50809050919050565b600060338281548110610a6e57fe5b906000526020600020906002020160000160009054906101000a900473ffffffffffffffffffffffffffffffffffffffff169050919050565b600060019054906101000a900460ff1680610ac65750610ac5610ccf565b5b80610add57506000809054906101000a900460ff16155b610b32576040517f08c379a000000000000000000000000000000000000000000000000000000000815260040180806020018281038252602e815260200180610d86602e913960400191505060405180910390fd5b60008060019054906101000a900460ff161590508015610b82576001600060016101000a81548160ff02191690831515021790555060016000806101000a81548160ff0219169083151502179055505b60336040518060400160405280600073ffffffffffffffffffffffffffffffffffffffff168152602001604051806020016040528060008152508152509080600181540180825580915050906001820390600052602060002090600202016000909192909190915060008201518160000160006101000a81548173ffffffffffffffffffffffffffffffffffffffff021916908373ffffffffffffffffffffffffffffffffffffffff1602179055506020820151816001019080519060200190610c4d929190610ce0565b5050505081603560006101000a81548173ffffffffffffffffffffffffffffffffffffffff021916908373ffffffffffffffffffffffffffffffffffffffff1602179055508015610cb35760008060016101000a81548160ff0219169083151502179055505b5050565b60346020528060005260406000206000915090505481565b600080303b90506000811491505090565b828054600181600116156101000203166002900490600052602060002090601f016020900481019282601f10610d2157805160ff1916838001178555610d4f565b82800160010185558215610d4f579182015b82811115610d4e578251825591602001919060010190610d33565b5b509050610d5c9190610d60565b5090565b610d8291905b80821115610d7e576000816000905550600101610d66565b5090565b9056fe436f6e747261637420696e7374616e63652068617320616c7265616479206265656e20696e697469616c697a6564a265627a7a7231582044b2138b9620adf19df2ae3d89ce2ed95928658a10a3e54be54fc103d8311cc864736f6c634300050c0032",
  "source": "pragma solidity ^0.5.12;\n\nimport \"@openzeppelin/upgrades/contracts/Initializable.sol\";\n\ncontract UserManager is Initializable {\n    struct User {\n        address owned_address;\n        string profile_uri;\n    }\n    //Array of registered users\n    User[] public users;\n\n    //all users' addresses to their userID\n    mapping(address => uint256) public userAddresses;\n\n    address registry;\n\n    modifier onlyRegistry() {\n        require(msg.sender == registry, \"Can only be called by registry\");\n        _;\n    }\n\n    function initialize(address _unicoinRegistry) public initializer {\n        //set the zeroth user to null.\n        users.push(User(address(0), \"\"));\n\n        registry = _unicoinRegistry;\n    }\n\n    function _registerUser(string memory _profile_uri, address _userAddress)\n        public\n        onlyRegistry\n        returns(uint256)\n    {\n        require(\n            bytes(_profile_uri).length > 0,\n            \"Profile URI should not be empty.\"\n        );\n        require(userAddresses[_userAddress] == 0, \"User already registered.\");\n        uint256 id = users.push(User(_userAddress, _profile_uri));\n        userAddresses[_userAddress] = id - 1;\n        return id;\n    }\n\n    function isAddressRegistered(address _userAddress)\n        public\n        view\n        returns (bool)\n    {\n        return userAddresses[_userAddress] != 0;\n    }\n\n    function getUserId(address _userAddress) public view returns (uint256) {\n        return userAddresses[_userAddress];\n    }\n\n    function getUserAddress(uint256 _user_Id) public view returns (address) {\n        return users[_user_Id].owned_address;\n    }\n\n    function getAddressArray(uint256[] memory _user_Ids)\n        public\n        view\n        returns (address[] memory returnedAddresses_)\n    {\n        returnedAddresses_ = new address[](_user_Ids.length);\n        for (uint256 i = 0; i < _user_Ids.length; i++) {\n            returnedAddresses_[i] = getUserAddress(_user_Ids[i]);\n        }\n        return returnedAddresses_;\n    }\n}\n",
  "sourcePath": "/Users/chris/Projects/unicoindapp/contracts/UserManager.sol",
  "compiler": {
    "name": "solc",
    "version": "0.5.12+commit.7709ece9.Emscripten.clang"
  },
  "schemaVersion": "3.0.16",
  "updatedAt": "2019-12-01T05:16:04.510Z",
  "devdoc": {
    "methods": {}
  },
  "userdoc": {
    "methods": {}
  }
}