{
  "contractName": "Vault",
  "abi": [
    {
      "constant": false,
      "inputs": [
        {
          "internalType": "address",
          "name": "_tokenAddress",
          "type": "address"
        },
        {
          "internalType": "address",
          "name": "_unicoinRegistry",
          "type": "address"
        }
      ],
      "name": "initialize",
      "outputs": [],
      "payable": false,
      "stateMutability": "nonpayable",
      "type": "function"
    },
    {
      "constant": true,
      "inputs": [
        {
          "internalType": "address",
          "name": "_address",
          "type": "address"
        },
        {
          "internalType": "uint256",
          "name": "_amount",
          "type": "uint256"
        }
      ],
      "name": "canAddressPay",
      "outputs": [
        {
          "internalType": "bool",
          "name": "",
          "type": "bool"
        }
      ],
      "payable": false,
      "stateMutability": "view",
      "type": "function"
    },
    {
      "constant": false,
      "inputs": [
        {
          "internalType": "address",
          "name": "_sender",
          "type": "address"
        },
        {
          "internalType": "address",
          "name": "_reciver",
          "type": "address"
        },
        {
          "internalType": "uint256",
          "name": "_amount",
          "type": "uint256"
        }
      ],
      "name": "settlePayment",
      "outputs": [
        {
          "internalType": "uint256",
          "name": "",
          "type": "uint256"
        }
      ],
      "payable": false,
      "stateMutability": "nonpayable",
      "type": "function"
    },
    {
      "constant": false,
      "inputs": [
        {
          "internalType": "address",
          "name": "_sender",
          "type": "address"
        },
        {
          "internalType": "address",
          "name": "_authorAddress",
          "type": "address"
        },
        {
          "internalType": "address[]",
          "name": "_contributorAddresses",
          "type": "address[]"
        },
        {
          "internalType": "uint256[]",
          "name": "_contributorWeightings",
          "type": "uint256[]"
        },
        {
          "internalType": "uint256",
          "name": "_paymentAmount",
          "type": "uint256"
        }
      ],
      "name": "settleBulkPayment",
      "outputs": [
        {
          "internalType": "bool",
          "name": "",
          "type": "bool"
        }
      ],
      "payable": false,
      "stateMutability": "nonpayable",
      "type": "function"
    }
  ],
  "bytecode": "0x608060405234801561001057600080fd5b50610767806100206000396000f3fe608060405234801561001057600080fd5b506004361061004c5760003560e01c8063454bd24e14610051578063485cc955146100995780637a3e00cd146100c9578063841aee5314610109575b600080fd5b6100876004803603606081101561006757600080fd5b506001600160a01b0381358116916020810135909116906040013561024b565b60408051918252519081900360200190f35b6100c7600480360360408110156100af57600080fd5b506001600160a01b038135811691602001351661033f565b005b6100f5600480360360408110156100df57600080fd5b506001600160a01b038135169060200135610420565b604080519115158252519081900360200190f35b6100f5600480360360a081101561011f57600080fd5b6001600160a01b03823581169260208101359091169181019060608101604082013564010000000081111561015357600080fd5b82018360208201111561016557600080fd5b8035906020019184602083028401116401000000008311171561018757600080fd5b91908080602002602001604051908101604052809392919081815260200183836020028082843760009201919091525092959493602081019350359150506401000000008111156101d757600080fd5b8201836020820111156101e957600080fd5b8035906020019184602083028401116401000000008311171561020b57600080fd5b919080806020026020016040519081016040528093929190818152602001838360200280828437600092019190915250929550509135925061053b915050565b6034546000906001600160a01b031633146102ad576040805162461bcd60e51b815260206004820152601e60248201527f43616e206f6e6c792062652063616c6c65642062792072656769737472790000604482015290519081900360640190fd5b603354604080516323b872dd60e01b81526001600160a01b038781166004830152868116602483015260448201869052915191909216916323b872dd9160648083019260209291908290030181600087803b15801561030b57600080fd5b505af115801561031f573d6000803e3d6000fd5b505050506040513d602081101561033557600080fd5b5090949350505050565b600054610100900460ff168061035857506103586106fe565b80610366575060005460ff16155b6103a15760405162461bcd60e51b815260040180806020018281038252602e815260200180610705602e913960400191505060405180910390fd5b600054610100900460ff161580156103cc576000805460ff1961ff0019909116610100171660011790555b603380546001600160a01b0380861673ffffffffffffffffffffffffffffffffffffffff19928316179092556034805492851692909116919091179055801561041b576000805461ff00191690555b505050565b603354604080516370a0823160e01b81526001600160a01b0385811660048301529151600093849316916370a08231916024808301926020929190829003018186803b15801561046f57600080fd5b505afa158015610483573d6000803e3d6000fd5b505050506040513d602081101561049957600080fd5b505160335460408051636eb1769f60e11b81526001600160a01b0388811660048301523060248301529151939450600093919092169163dd62ed3e916044808301926020929190829003018186803b1580156104f457600080fd5b505afa158015610508573d6000803e3d6000fd5b505050506040513d602081101561051e57600080fd5b505190508382108015906105325750838110155b95945050505050565b600080805b855181101561065c576000606486838151811061055957fe5b602002602001015186028161056a57fe5b04905085828151811061057957fe5b602002602001015183019250603360009054906101000a90046001600160a01b03166001600160a01b03166323b872dd8a8985815181106105b657fe5b6020026020010151846040518463ffffffff1660e01b815260040180846001600160a01b03166001600160a01b03168152602001836001600160a01b03166001600160a01b031681526020018281526020019350505050602060405180830381600087803b15801561062757600080fd5b505af115801561063b573d6000803e3d6000fd5b505050506040513d602081101561065157600080fd5b505050600101610540565b50603354604080516323b872dd60e01b81526001600160a01b038a81166004830152898116602483015260648581038802819004604484018190529351939491909116926323b872dd9280830192602092918290030181600087803b1580156106c457600080fd5b505af11580156106d8573d6000803e3d6000fd5b505050506040513d60208110156106ee57600080fd5b5060019998505050505050505050565b303b159056fe436f6e747261637420696e7374616e63652068617320616c7265616479206265656e20696e697469616c697a6564a265627a7a7231582054d5fa03be505a6fb2728a15f9f4b6421d8e96e7491dd4f8ae3efe229fb80b4f64736f6c634300050c0032",
  "source": "pragma solidity ^0.5.12;\n\nimport \"@openzeppelin/upgrades/contracts/Initializable.sol\";\n\nimport \"@openzeppelin/contracts-ethereum-package/contracts/token/ERC20/ERC20.sol\";\n\ncontract Vault is Initializable {\n    ERC20 token;\n\n    address registry;\n\n    modifier onlyRegistry() {\n        require(msg.sender == registry, \"Can only be called by registry\");\n        _;\n    }\n\n    function initialize(address _tokenAddress, address _unicoinRegistry) public initializer {\n        token = ERC20(_tokenAddress);\n        registry = _unicoinRegistry;\n    }\n\n    function canAddressPay(address _address, uint256 _amount) public view returns (bool) {\n        uint256 userBalance = token.balanceOf(_address);\n        uint256 userContractAproval = token.allowance(_address, address(this));\n        return (userBalance >= _amount) && (userContractAproval >= _amount);\n    }\n\n    function settlePayment(address _sender, address _reciver, uint256 _amount) public onlyRegistry returns (uint256) {\n        token.transferFrom(_sender, _reciver, _amount);\n    }\n\n    function settleBulkPayment(\n        address _sender,\n        address _authorAddress,\n        address[] memory _contributorAddresses,\n        uint256[] memory _contributorWeightings,\n        uint256 _paymentAmount\n    ) public returns (bool) {\n        uint256 totalPaidToContributors = 0;\n        for (uint256 i = 0; i < _contributorAddresses.length; i++) {\n            uint256 amountToPay = (_paymentAmount * _contributorWeightings[i]) / 1e2;\n            totalPaidToContributors += _contributorWeightings[i];\n            token.transferFrom(_sender, _contributorAddresses[i], amountToPay);\n        }\n\n        uint256 authorAmount = ((1e2 - totalPaidToContributors) * _paymentAmount) / 1e2;\n        token.transferFrom(_sender, _authorAddress, authorAmount);\n        return true;\n    }\n}\n",
  "sourcePath": "/Users/chris/Projects/unicoin2.0/contracts/Vault.sol",
  "compiler": {
    "name": "solc",
    "version": "0.5.12+commit.7709ece9.Emscripten.clang"
  },
  "schemaVersion": "3.0.16",
  "updatedAt": "2020-02-01T17:28:20.965Z",
  "devdoc": {
    "methods": {}
  },
  "userdoc": {
    "methods": {}
  }
}