{
  "contractName": "Vault",
  "abi": [
    {
      "inputs": [
        {
          "internalType": "address",
          "name": "forwarder",
          "type": "address"
        }
      ],
      "name": "isTrustedForwarder",
      "outputs": [
        {
          "internalType": "bool",
          "name": "",
          "type": "bool"
        }
      ],
      "stateMutability": "view",
      "type": "function"
    },
    {
      "inputs": [
        {
          "internalType": "address",
          "name": "_tokenAddress",
          "type": "address"
        },
        {
          "internalType": "address",
          "name": "_unicoinRegistry",
          "type": "address"
        },
        {
          "internalType": "address",
          "name": "_trustedForwarder",
          "type": "address"
        }
      ],
      "name": "initialize",
      "outputs": [],
      "stateMutability": "nonpayable",
      "type": "function"
    },
    {
      "inputs": [
        {
          "internalType": "address",
          "name": "_address",
          "type": "address"
        },
        {
          "internalType": "uint256",
          "name": "_amount",
          "type": "uint256"
        }
      ],
      "name": "canAddressPay",
      "outputs": [
        {
          "internalType": "bool",
          "name": "",
          "type": "bool"
        }
      ],
      "stateMutability": "view",
      "type": "function"
    },
    {
      "inputs": [
        {
          "internalType": "address",
          "name": "_sender",
          "type": "address"
        },
        {
          "internalType": "address",
          "name": "_reciver",
          "type": "address"
        },
        {
          "internalType": "uint256",
          "name": "_amount",
          "type": "uint256"
        }
      ],
      "name": "settlePayment",
      "outputs": [
        {
          "internalType": "uint256",
          "name": "",
          "type": "uint256"
        }
      ],
      "stateMutability": "nonpayable",
      "type": "function"
    },
    {
      "inputs": [
        {
          "internalType": "address",
          "name": "_sender",
          "type": "address"
        },
        {
          "internalType": "address",
          "name": "_authorAddress",
          "type": "address"
        },
        {
          "internalType": "address[]",
          "name": "_contributorAddresses",
          "type": "address[]"
        },
        {
          "internalType": "uint256[]",
          "name": "_contributorWeightings",
          "type": "uint256[]"
        },
        {
          "internalType": "uint256",
          "name": "_paymentAmount",
          "type": "uint256"
        }
      ],
      "name": "settleBulkPayment",
      "outputs": [
        {
          "internalType": "bool",
          "name": "",
          "type": "bool"
        }
      ],
      "stateMutability": "nonpayable",
      "type": "function"
    }
  ],
  "bytecode": "0x608060405234801561001057600080fd5b50610b76806100206000396000f3fe608060405234801561001057600080fd5b50600436106100575760003560e01c8063454bd24e1461005c578063572b6c05146100825780637a3e00cd146100b4578063841aee53146100c7578063c0c53b8b146100da575b600080fd5b61006f61006a3660046107c2565b6100ef565b6040519081526020015b60405180910390f35b6100a46100903660046107fe565b6033546001600160a01b0391821691161490565b6040519015158152602001610079565b6100a46100c2366004610820565b6101e8565b6100a46100d5366004610920565b6102ef565b6100ed6100e8366004610a0b565b6104e7565b005b6067546000906001600160a01b03166101066105f8565b6001600160a01b0316146101615760405162461bcd60e51b815260206004820152601e60248201527f43616e206f6e6c792062652063616c6c6564206279207265676973747279000060448201526064015b60405180910390fd5b6066546040516323b872dd60e01b81526001600160a01b038681166004830152858116602483015260448201859052909116906323b872dd906064016020604051808303816000875af11580156101bc573d6000803e3d6000fd5b505050506040513d601f19601f820116820180604052508101906101e09190610a4e565b509392505050565b6066546040516370a0823160e01b81526001600160a01b03848116600483015260009283929116906370a0823190602401602060405180830381865afa158015610236573d6000803e3d6000fd5b505050506040513d601f19601f8201168201806040525081019061025a9190610a70565b606654604051636eb1769f60e11b81526001600160a01b0387811660048301523060248301529293506000929091169063dd62ed3e90604401602060405180830381865afa1580156102b0573d6000803e3d6000fd5b505050506040513d601f19601f820116820180604052508101906102d49190610a70565b90508382101580156102e65750838110155b95945050505050565b600080805b8551811015610433576000606486838151811061031357610313610a89565b6020026020010151866103269190610ab5565b6103309190610ad4565b905085828151811061034457610344610a89565b6020026020010151836103579190610af6565b60665488519194506001600160a01b0316906323b872dd908b908a908690811061038357610383610a89565b60209081029190910101516040517fffffffff0000000000000000000000000000000000000000000000000000000060e085901b1681526001600160a01b03928316600482015291166024820152604481018490526064016020604051808303816000875af11580156103fa573d6000803e3d6000fd5b505050506040513d601f19601f8201168201806040525081019061041e9190610a4e565b5050808061042b90610b0e565b9150506102f4565b5060006064846104438483610b29565b61044d9190610ab5565b6104579190610ad4565b6066546040516323b872dd60e01b81526001600160a01b038b811660048301528a81166024830152604482018490529293509116906323b872dd906064016020604051808303816000875af11580156104b4573d6000803e3d6000fd5b505050506040513d601f19601f820116820180604052508101906104d89190610a4e565b50600198975050505050505050565b600054610100900460ff166105025760005460ff1615610506565b303b155b6105785760405162461bcd60e51b815260206004820152602e60248201527f496e697469616c697a61626c653a20636f6e747261637420697320616c72656160448201527f647920696e697469616c697a65640000000000000000000000000000000000006064820152608401610158565b600054610100900460ff1615801561059a576000805461ffff19166101011790555b6105a382610620565b606680546001600160a01b0380871673ffffffffffffffffffffffffffffffffffffffff1992831617909255606780549286169290911691909117905580156105f2576000805461ff00191690555b50505050565b6033546000906001600160a01b031633141561061b575060131936013560601c90565b503390565b600054610100900460ff1661068b5760405162461bcd60e51b815260206004820152602b60248201527f496e697469616c697a61626c653a20636f6e7472616374206973206e6f74206960448201526a6e697469616c697a696e6760a81b6064820152608401610158565b61069361069f565b61069c8161070c565b50565b600054610100900460ff1661070a5760405162461bcd60e51b815260206004820152602b60248201527f496e697469616c697a61626c653a20636f6e7472616374206973206e6f74206960448201526a6e697469616c697a696e6760a81b6064820152608401610158565b565b600054610100900460ff166107775760405162461bcd60e51b815260206004820152602b60248201527f496e697469616c697a61626c653a20636f6e7472616374206973206e6f74206960448201526a6e697469616c697a696e6760a81b6064820152608401610158565b6033805473ffffffffffffffffffffffffffffffffffffffff19166001600160a01b0392909216919091179055565b80356001600160a01b03811681146107bd57600080fd5b919050565b6000806000606084860312156107d757600080fd5b6107e0846107a6565b92506107ee602085016107a6565b9150604084013590509250925092565b60006020828403121561081057600080fd5b610819826107a6565b9392505050565b6000806040838503121561083357600080fd5b61083c836107a6565b946020939093013593505050565b634e487b7160e01b600052604160045260246000fd5b604051601f8201601f1916810167ffffffffffffffff811182821017156108895761088961084a565b604052919050565b600067ffffffffffffffff8211156108ab576108ab61084a565b5060051b60200190565b600082601f8301126108c657600080fd5b813560206108db6108d683610891565b610860565b82815260059290921b840181019181810190868411156108fa57600080fd5b8286015b8481101561091557803583529183019183016108fe565b509695505050505050565b600080600080600060a0868803121561093857600080fd5b610941866107a6565b945060206109508188016107a6565b9450604087013567ffffffffffffffff8082111561096d57600080fd5b818901915089601f83011261098157600080fd5b813561098f6108d682610891565b81815260059190911b8301840190848101908c8311156109ae57600080fd5b938501935b828510156109d3576109c4856107a6565b825293850193908501906109b3565b9750505060608901359250808311156109eb57600080fd5b50506109f9888289016108b5565b95989497509295608001359392505050565b600080600060608486031215610a2057600080fd5b610a29846107a6565b9250610a37602085016107a6565b9150610a45604085016107a6565b90509250925092565b600060208284031215610a6057600080fd5b8151801515811461081957600080fd5b600060208284031215610a8257600080fd5b5051919050565b634e487b7160e01b600052603260045260246000fd5b634e487b7160e01b600052601160045260246000fd5b6000816000190483118215151615610acf57610acf610a9f565b500290565b600082610af157634e487b7160e01b600052601260045260246000fd5b500490565b60008219821115610b0957610b09610a9f565b500190565b6000600019821415610b2257610b22610a9f565b5060010190565b600082821015610b3b57610b3b610a9f565b50039056fea264697066735822122019ebf7693b4026d84979eab8adc72dbe14930b745fbbed0735fcabf1d472fcd964736f6c634300080c0033",
  "immutableReferences": {},
  "source": "//SPDX-License-Identifier: MIT\n\npragma solidity ^0.8.12;\n\nimport \"@openzeppelin/contracts-upgradeable/proxy/utils/Initializable.sol\";\nimport \"@openzeppelin/contracts-upgradeable/token/ERC20/ERC20Upgradeable.sol\";\nimport \"./patches/ERC2771ContextUpgradeable.sol\";\nimport \"./interfaces/IVault.sol\";\n\ncontract Vault is Initializable, IVault, ERC2771ContextUpgradeable {\n    ERC20Upgradeable token;\n\n    address registry;\n\n    modifier onlyRegistry() {\n        require(_msgSender() == registry, \"Can only be called by registry\");\n        _;\n    }\n\n    function initialize(address _tokenAddress, address _unicoinRegistry, address _trustedForwarder) public initializer {\n        __ERC2771Context_init(_trustedForwarder);\n\n        token = ERC20Upgradeable(_tokenAddress);\n        registry = _unicoinRegistry;\n    }\n\n    function canAddressPay(address _address, uint256 _amount) public view returns (bool) {\n        uint256 userBalance = token.balanceOf(_address);\n        uint256 userContractAproval = token.allowance(_address, address(this));\n        return (userBalance >= _amount) && (userContractAproval >= _amount);\n    }\n\n    function settlePayment(address _sender, address _reciver, uint256 _amount) public onlyRegistry returns (uint256) {\n        token.transferFrom(_sender, _reciver, _amount);\n    }\n\n    function settleBulkPayment(\n        address _sender,\n        address _authorAddress,\n        address[] memory _contributorAddresses,\n        uint256[] memory _contributorWeightings,\n        uint256 _paymentAmount\n    ) public returns (bool) {\n        uint256 totalPaidToContributors = 0;\n        for (uint256 i = 0; i < _contributorAddresses.length; i++) {\n            uint256 amountToPay = (_paymentAmount * _contributorWeightings[i]) / 1e2;\n            totalPaidToContributors += _contributorWeightings[i];\n            token.transferFrom(_sender, _contributorAddresses[i], amountToPay);\n        }\n\n        uint256 authorAmount = ((1e2 - totalPaidToContributors) * _paymentAmount) / 1e2;\n        token.transferFrom(_sender, _authorAddress, authorAmount);\n        return true;\n    }\n}\n",
  "sourcePath": "/home/azureuser/unicoin/unicoin2.0/contracts/Vault.sol",
  "compiler": {
    "name": "solc",
    "version": "0.8.12+commit.f00d7308.Emscripten.clang"
  },
  "schemaVersion": "3.4.6",
  "updatedAt": "2022-03-16T11:23:44.790Z",
  "devdoc": {
    "kind": "dev",
    "methods": {},
    "version": 1
  },
  "userdoc": {
    "kind": "user",
    "methods": {},
    "version": 1
  }
}