{
  "contractName": "Vault",
  "abi": [
    {
      "constant": false,
      "inputs": [
        {
          "internalType": "address",
          "name": "_tokenAddress",
          "type": "address"
        },
        {
          "internalType": "address",
          "name": "_unicoinRegistry",
          "type": "address"
        }
      ],
      "name": "initialize",
      "outputs": [],
      "payable": false,
      "stateMutability": "nonpayable",
      "type": "function"
    },
    {
      "constant": true,
      "inputs": [
        {
          "internalType": "address",
          "name": "_address",
          "type": "address"
        },
        {
          "internalType": "uint256",
          "name": "_amount",
          "type": "uint256"
        }
      ],
      "name": "canBidderPay",
      "outputs": [
        {
          "internalType": "bool",
          "name": "",
          "type": "bool"
        }
      ],
      "payable": false,
      "stateMutability": "view",
      "type": "function"
    },
    {
      "constant": false,
      "inputs": [
        {
          "internalType": "address",
          "name": "_sender",
          "type": "address"
        },
        {
          "internalType": "address",
          "name": "_reciver",
          "type": "address"
        },
        {
          "internalType": "uint256",
          "name": "_amount",
          "type": "uint256"
        }
      ],
      "name": "settlePayment",
      "outputs": [
        {
          "internalType": "uint256",
          "name": "",
          "type": "uint256"
        }
      ],
      "payable": false,
      "stateMutability": "nonpayable",
      "type": "function"
    },
    {
      "constant": false,
      "inputs": [
        {
          "internalType": "address",
          "name": "_sender",
          "type": "address"
        },
        {
          "internalType": "address",
          "name": "_authorAddress",
          "type": "address"
        },
        {
          "internalType": "address[]",
          "name": "_contributorAddresses",
          "type": "address[]"
        },
        {
          "internalType": "uint256[]",
          "name": "_contributorWeightings",
          "type": "uint256[]"
        },
        {
          "internalType": "uint256",
          "name": "_paymentAmount",
          "type": "uint256"
        }
      ],
      "name": "settleBulkPayment",
      "outputs": [
        {
          "internalType": "bool",
          "name": "",
          "type": "bool"
        }
      ],
      "payable": false,
      "stateMutability": "nonpayable",
      "type": "function"
    }
  ],
  "bytecode": "0x608060405234801561001057600080fd5b50610bfb806100206000396000f3fe608060405234801561001057600080fd5b506004361061004c5760003560e01c8063123beb5114610051578063454bd24e146100b7578063485cc95514610139578063841aee531461019d575b600080fd5b61009d6004803603604081101561006757600080fd5b81019080803573ffffffffffffffffffffffffffffffffffffffff1690602001909291908035906020019092919050505061034b565b604051808215151515815260200191505060405180910390f35b610123600480360360608110156100cd57600080fd5b81019080803573ffffffffffffffffffffffffffffffffffffffff169060200190929190803573ffffffffffffffffffffffffffffffffffffffff16906020019092919080359060200190929190505050610556565b6040518082815260200191505060405180910390f35b61019b6004803603604081101561014f57600080fd5b81019080803573ffffffffffffffffffffffffffffffffffffffff169060200190929190803573ffffffffffffffffffffffffffffffffffffffff16906020019092919050505061073b565b005b610331600480360360a08110156101b357600080fd5b81019080803573ffffffffffffffffffffffffffffffffffffffff169060200190929190803573ffffffffffffffffffffffffffffffffffffffff1690602001909291908035906020019064010000000081111561021057600080fd5b82018360208201111561022257600080fd5b8035906020019184602083028401116401000000008311171561024457600080fd5b919080806020026020016040519081016040528093929190818152602001838360200280828437600081840152601f19601f820116905080830192505050505050509192919290803590602001906401000000008111156102a457600080fd5b8201836020820111156102b657600080fd5b803590602001918460208302840111640100000000831117156102d857600080fd5b919080806020026020016040519081016040528093929190818152602001838360200280828437600081840152601f19601f820116905080830192505050505050509192919290803590602001909291905050506108be565b604051808215151515815260200191505060405180910390f35b600080603360009054906101000a900473ffffffffffffffffffffffffffffffffffffffff1673ffffffffffffffffffffffffffffffffffffffff166370a08231856040518263ffffffff1660e01b8152600401808273ffffffffffffffffffffffffffffffffffffffff1673ffffffffffffffffffffffffffffffffffffffff16815260200191505060206040518083038186803b1580156103ed57600080fd5b505afa158015610401573d6000803e3d6000fd5b505050506040513d602081101561041757600080fd5b810190808051906020019092919050505090506000603360009054906101000a900473ffffffffffffffffffffffffffffffffffffffff1673ffffffffffffffffffffffffffffffffffffffff1663dd62ed3e86306040518363ffffffff1660e01b8152600401808373ffffffffffffffffffffffffffffffffffffffff1673ffffffffffffffffffffffffffffffffffffffff1681526020018273ffffffffffffffffffffffffffffffffffffffff1673ffffffffffffffffffffffffffffffffffffffff1681526020019250505060206040518083038186803b1580156104ff57600080fd5b505afa158015610513573d6000803e3d6000fd5b505050506040513d602081101561052957600080fd5b8101908080519060200190929190505050905083821015801561054c5750838110155b9250505092915050565b6000603460009054906101000a900473ffffffffffffffffffffffffffffffffffffffff1673ffffffffffffffffffffffffffffffffffffffff163373ffffffffffffffffffffffffffffffffffffffff161461061b576040517f08c379a000000000000000000000000000000000000000000000000000000000815260040180806020018281038252601e8152602001807f43616e206f6e6c792062652063616c6c6564206279207265676973747279000081525060200191505060405180910390fd5b603360009054906101000a900473ffffffffffffffffffffffffffffffffffffffff1673ffffffffffffffffffffffffffffffffffffffff166323b872dd8585856040518463ffffffff1660e01b8152600401808473ffffffffffffffffffffffffffffffffffffffff1673ffffffffffffffffffffffffffffffffffffffff1681526020018373ffffffffffffffffffffffffffffffffffffffff1673ffffffffffffffffffffffffffffffffffffffff1681526020018281526020019350505050602060405180830381600087803b1580156106f857600080fd5b505af115801561070c573d6000803e3d6000fd5b505050506040513d602081101561072257600080fd5b8101908080519060200190929190505050509392505050565b600060019054906101000a900460ff168061075a5750610759610b87565b5b8061077157506000809054906101000a900460ff16155b6107c6576040517f08c379a000000000000000000000000000000000000000000000000000000000815260040180806020018281038252602e815260200180610b99602e913960400191505060405180910390fd5b60008060019054906101000a900460ff161590508015610816576001600060016101000a81548160ff02191690831515021790555060016000806101000a81548160ff0219169083151502179055505b82603360006101000a81548173ffffffffffffffffffffffffffffffffffffffff021916908373ffffffffffffffffffffffffffffffffffffffff16021790555081603460006101000a81548173ffffffffffffffffffffffffffffffffffffffff021916908373ffffffffffffffffffffffffffffffffffffffff16021790555080156108b95760008060016101000a81548160ff0219169083151502179055505b505050565b6000806000905060008090505b8551811015610a4a57600060648683815181106108e457fe5b60200260200101518602816108f557fe5b04905085828151811061090457fe5b602002602001015183019250603360009054906101000a900473ffffffffffffffffffffffffffffffffffffffff1673ffffffffffffffffffffffffffffffffffffffff166323b872dd8a89858151811061095b57fe5b6020026020010151846040518463ffffffff1660e01b8152600401808473ffffffffffffffffffffffffffffffffffffffff1673ffffffffffffffffffffffffffffffffffffffff1681526020018373ffffffffffffffffffffffffffffffffffffffff1673ffffffffffffffffffffffffffffffffffffffff1681526020018281526020019350505050602060405180830381600087803b158015610a0057600080fd5b505af1158015610a14573d6000803e3d6000fd5b505050506040513d6020811015610a2a57600080fd5b8101908080519060200190929190505050505080806001019150506108cb565b506000606484836064030281610a5c57fe5b049050603360009054906101000a900473ffffffffffffffffffffffffffffffffffffffff1673ffffffffffffffffffffffffffffffffffffffff166323b872dd8989846040518463ffffffff1660e01b8152600401808473ffffffffffffffffffffffffffffffffffffffff1673ffffffffffffffffffffffffffffffffffffffff1681526020018373ffffffffffffffffffffffffffffffffffffffff1673ffffffffffffffffffffffffffffffffffffffff1681526020018281526020019350505050602060405180830381600087803b158015610b3c57600080fd5b505af1158015610b50573d6000803e3d6000fd5b505050506040513d6020811015610b6657600080fd5b81019080805190602001909291905050505060019250505095945050505050565b600080303b9050600081149150509056fe436f6e747261637420696e7374616e63652068617320616c7265616479206265656e20696e697469616c697a6564a265627a7a72315820d502630df836dbb84c75961342e7898cb385c046c7330d3c772134b6429ed9c864736f6c634300050c0032",
  "source": "pragma solidity ^0.5.12;\n\nimport \"@openzeppelin/upgrades/contracts/Initializable.sol\";\n\nimport \"@openzeppelin/contracts-ethereum-package/contracts/token/ERC20/ERC20.sol\";\n\ncontract Vault is Initializable {\n    ERC20 token;\n\n    address registry;\n\n    modifier onlyRegistry() {\n        require(msg.sender == registry, \"Can only be called by registry\");\n        _;\n    }\n\n    function initialize(address _tokenAddress, address _unicoinRegistry)\n        public\n        initializer\n    {\n        token = ERC20(_tokenAddress);\n        registry = _unicoinRegistry;\n    }\n\n    function canBidderPay(address _address, uint256 _amount)\n        public\n        view\n        returns (bool)\n    {\n        uint256 userBalance = token.balanceOf(_address);\n        uint256 userContractAproval = token.allowance(_address, address(this));\n        return (userBalance >= _amount) && (userContractAproval >= _amount);\n    }\n\n    function settlePayment(address _sender, address _reciver, uint256 _amount)\n        public\n        onlyRegistry\n        returns (uint256)\n    {\n        token.transferFrom(_sender, _reciver, _amount);\n    }\n\n    function settleBulkPayment(\n        address _sender,\n        address _authorAddress,\n        address[] memory _contributorAddresses,\n        uint256[] memory _contributorWeightings,\n        uint256 _paymentAmount\n    ) public returns (bool) {\n        uint256 totalPaidToContributors = 0;\n        for (uint256 i = 0; i < _contributorAddresses.length; i++) {\n            uint256 amountToPay = (_paymentAmount * _contributorWeightings[i]) /\n                1e2;\n            totalPaidToContributors += _contributorWeightings[i];\n            token.transferFrom(_sender, _contributorAddresses[i], amountToPay);\n        }\n\n        uint256 authorAmount = ((1e2 - totalPaidToContributors) *\n            _paymentAmount) /\n            1e2;\n        token.transferFrom(_sender, _authorAddress, authorAmount);\n        return true;\n    }\n}\n",
  "sourcePath": "/Users/chris/Projects/unicoindapp/contracts/Vault.sol",
  "compiler": {
    "name": "solc",
    "version": "0.5.12+commit.7709ece9.Emscripten.clang"
  },
  "schemaVersion": "3.0.16",
  "updatedAt": "2019-11-27T08:59:58.483Z",
  "devdoc": {
    "methods": {}
  },
  "userdoc": {
    "methods": {}
  }
}